{
	"contracts/PortfolioManager.sol": {
		"PortfolioManager": {
			"abi": [
				{
					"inputs": [
						{
							"internalType": "address",
							"name": "_aiTrader",
							"type": "address"
						}
					],
					"stateMutability": "nonpayable",
					"type": "constructor"
				},
				{
					"anonymous": false,
					"inputs": [
						{
							"indexed": true,
							"internalType": "address",
							"name": "user",
							"type": "address"
						},
						{
							"indexed": false,
							"internalType": "uint256",
							"name": "riskLevel",
							"type": "uint256"
						}
					],
					"name": "PortfolioCreated",
					"type": "event"
				},
				{
					"anonymous": false,
					"inputs": [
						{
							"indexed": true,
							"internalType": "address",
							"name": "token",
							"type": "address"
						}
					],
					"name": "TokenAdded",
					"type": "event"
				},
				{
					"anonymous": false,
					"inputs": [
						{
							"indexed": true,
							"internalType": "address",
							"name": "token",
							"type": "address"
						}
					],
					"name": "TokenRemoved",
					"type": "event"
				},
				{
					"anonymous": false,
					"inputs": [
						{
							"indexed": true,
							"internalType": "address",
							"name": "user",
							"type": "address"
						},
						{
							"indexed": true,
							"internalType": "address",
							"name": "tokenIn",
							"type": "address"
						},
						{
							"indexed": true,
							"internalType": "address",
							"name": "tokenOut",
							"type": "address"
						},
						{
							"indexed": false,
							"internalType": "uint256",
							"name": "amount",
							"type": "uint256"
						}
					],
					"name": "TradeExecuted",
					"type": "event"
				},
				{
					"inputs": [
						{
							"internalType": "address",
							"name": "_token",
							"type": "address"
						}
					],
					"name": "addToken",
					"outputs": [],
					"stateMutability": "nonpayable",
					"type": "function"
				},
				{
					"inputs": [],
					"name": "aiTrader",
					"outputs": [
						{
							"internalType": "address",
							"name": "",
							"type": "address"
						}
					],
					"stateMutability": "view",
					"type": "function"
				},
				{
					"inputs": [
						{
							"internalType": "address",
							"name": "",
							"type": "address"
						}
					],
					"name": "approvedTokens",
					"outputs": [
						{
							"internalType": "bool",
							"name": "",
							"type": "bool"
						}
					],
					"stateMutability": "view",
					"type": "function"
				},
				{
					"inputs": [
						{
							"internalType": "uint256",
							"name": "_riskLevel",
							"type": "uint256"
						}
					],
					"name": "createPortfolio",
					"outputs": [],
					"stateMutability": "nonpayable",
					"type": "function"
				},
				{
					"inputs": [
						{
							"internalType": "address",
							"name": "_token",
							"type": "address"
						},
						{
							"internalType": "uint256",
							"name": "_amount",
							"type": "uint256"
						}
					],
					"name": "deposit",
					"outputs": [],
					"stateMutability": "nonpayable",
					"type": "function"
				},
				{
					"inputs": [
						{
							"internalType": "address",
							"name": "_user",
							"type": "address"
						},
						{
							"internalType": "address",
							"name": "_tokenIn",
							"type": "address"
						},
						{
							"internalType": "address",
							"name": "_tokenOut",
							"type": "address"
						},
						{
							"internalType": "uint256",
							"name": "_amount",
							"type": "uint256"
						}
					],
					"name": "executeAITrade",
					"outputs": [],
					"stateMutability": "nonpayable",
					"type": "function"
				},
				{
					"inputs": [
						{
							"internalType": "address",
							"name": "_user",
							"type": "address"
						},
						{
							"internalType": "address",
							"name": "_token",
							"type": "address"
						}
					],
					"name": "getTokenBalance",
					"outputs": [
						{
							"internalType": "uint256",
							"name": "",
							"type": "uint256"
						}
					],
					"stateMutability": "view",
					"type": "function"
				},
				{
					"inputs": [],
					"name": "owner",
					"outputs": [
						{
							"internalType": "address",
							"name": "",
							"type": "address"
						}
					],
					"stateMutability": "view",
					"type": "function"
				},
				{
					"inputs": [
						{
							"internalType": "address",
							"name": "_token",
							"type": "address"
						}
					],
					"name": "removeToken",
					"outputs": [],
					"stateMutability": "nonpayable",
					"type": "function"
				},
				{
					"inputs": [
						{
							"internalType": "address",
							"name": "",
							"type": "address"
						}
					],
					"name": "userPortfolios",
					"outputs": [
						{
							"internalType": "uint256",
							"name": "totalValue",
							"type": "uint256"
						},
						{
							"internalType": "uint256",
							"name": "riskLevel",
							"type": "uint256"
						},
						{
							"internalType": "bool",
							"name": "isActive",
							"type": "bool"
						}
					],
					"stateMutability": "view",
					"type": "function"
				},
				{
					"inputs": [
						{
							"internalType": "address",
							"name": "_token",
							"type": "address"
						},
						{
							"internalType": "uint256",
							"name": "_amount",
							"type": "uint256"
						}
					],
					"name": "withdraw",
					"outputs": [],
					"stateMutability": "nonpayable",
					"type": "function"
				}
			],
			"devdoc": {
				"kind": "dev",
				"methods": {},
				"version": 1
			},
			"evm": {
				"assembly": "    /* \"contracts/PortfolioManager.sol\":699:4477  contract PortfolioManager {... */\n  mstore(0x40, 0x80)\n    /* \"contracts/PortfolioManager.sol\":1401:1497  constructor(address _aiTrader) {... */\n  callvalue\n  dup1\n  iszero\n  tag_1\n  jumpi\n  0x00\n  dup1\n  revert\ntag_1:\n  pop\n  mload(0x40)\n  sub(codesize, bytecodeSize)\n  dup1\n  bytecodeSize\n  dup4\n  codecopy\n  dup2\n  dup2\n  add\n  0x40\n  mstore\n  dup2\n  add\n  swap1\n  tag_2\n  swap2\n  swap1\n  tag_3\n  jump\t// in\ntag_2:\n    /* \"contracts/PortfolioManager.sol\":1450:1460  msg.sender */\n  caller\n    /* \"contracts/PortfolioManager.sol\":1442:1447  owner */\n  0x02\n  0x00\n    /* \"contracts/PortfolioManager.sol\":1442:1460  owner = msg.sender */\n  0x0100\n  exp\n  dup2\n  sload\n  dup2\n  0xffffffffffffffffffffffffffffffffffffffff\n  mul\n  not\n  and\n  swap1\n  dup4\n  0xffffffffffffffffffffffffffffffffffffffff\n  and\n  mul\n  or\n  swap1\n  sstore\n  pop\n    /* \"contracts/PortfolioManager.sol\":1481:1490  _aiTrader */\n  dup1\n    /* \"contracts/PortfolioManager.sol\":1470:1478  aiTrader */\n  0x03\n  0x00\n    /* \"contracts/PortfolioManager.sol\":1470:1490  aiTrader = _aiTrader */\n  0x0100\n  exp\n  dup2\n  sload\n  dup2\n  0xffffffffffffffffffffffffffffffffffffffff\n  mul\n  not\n  and\n  swap1\n  dup4\n  0xffffffffffffffffffffffffffffffffffffffff\n  and\n  mul\n  or\n  swap1\n  sstore\n  pop\n    /* \"contracts/PortfolioManager.sol\":1401:1497  constructor(address _aiTrader) {... */\n  pop\n    /* \"contracts/PortfolioManager.sol\":699:4477  contract PortfolioManager {... */\n  jump(tag_6)\n    /* \"#utility.yul\":88:205   */\ntag_8:\n    /* \"#utility.yul\":197:198   */\n  0x00\n    /* \"#utility.yul\":194:195   */\n  dup1\n    /* \"#utility.yul\":187:199   */\n  revert\n    /* \"#utility.yul\":334:460   */\ntag_10:\n    /* \"#utility.yul\":371:378   */\n  0x00\n    /* \"#utility.yul\":411:453   */\n  0xffffffffffffffffffffffffffffffffffffffff\n    /* \"#utility.yul\":404:409   */\n  dup3\n    /* \"#utility.yul\":400:454   */\n  and\n    /* \"#utility.yul\":389:454   */\n  swap1\n  pop\n    /* \"#utility.yul\":334:460   */\n  swap2\n  swap1\n  pop\n  jump\t// out\n    /* \"#utility.yul\":466:562   */\ntag_11:\n    /* \"#utility.yul\":503:510   */\n  0x00\n    /* \"#utility.yul\":532:556   */\n  tag_20\n    /* \"#utility.yul\":550:555   */\n  dup3\n    /* \"#utility.yul\":532:556   */\n  tag_10\n  jump\t// in\ntag_20:\n    /* \"#utility.yul\":521:556   */\n  swap1\n  pop\n    /* \"#utility.yul\":466:562   */\n  swap2\n  swap1\n  pop\n  jump\t// out\n    /* \"#utility.yul\":568:690   */\ntag_12:\n    /* \"#utility.yul\":641:665   */\n  tag_22\n    /* \"#utility.yul\":659:664   */\n  dup2\n    /* \"#utility.yul\":641:665   */\n  tag_11\n  jump\t// in\ntag_22:\n    /* \"#utility.yul\":634:639   */\n  dup2\n    /* \"#utility.yul\":631:666   */\n  eq\n    /* \"#utility.yul\":621:684   */\n  tag_23\n  jumpi\n    /* \"#utility.yul\":680:681   */\n  0x00\n    /* \"#utility.yul\":677:678   */\n  dup1\n    /* \"#utility.yul\":670:682   */\n  revert\n    /* \"#utility.yul\":621:684   */\ntag_23:\n    /* \"#utility.yul\":568:690   */\n  pop\n  jump\t// out\n    /* \"#utility.yul\":696:839   */\ntag_13:\n    /* \"#utility.yul\":753:758   */\n  0x00\n    /* \"#utility.yul\":784:790   */\n  dup2\n    /* \"#utility.yul\":778:791   */\n  mload\n    /* \"#utility.yul\":769:791   */\n  swap1\n  pop\n    /* \"#utility.yul\":800:833   */\n  tag_25\n    /* \"#utility.yul\":827:832   */\n  dup2\n    /* \"#utility.yul\":800:833   */\n  tag_12\n  jump\t// in\ntag_25:\n    /* \"#utility.yul\":696:839   */\n  swap3\n  swap2\n  pop\n  pop\n  jump\t// out\n    /* \"#utility.yul\":845:1196   */\ntag_3:\n    /* \"#utility.yul\":915:921   */\n  0x00\n    /* \"#utility.yul\":964:966   */\n  0x20\n    /* \"#utility.yul\":952:961   */\n  dup3\n    /* \"#utility.yul\":943:950   */\n  dup5\n    /* \"#utility.yul\":939:962   */\n  sub\n    /* \"#utility.yul\":935:967   */\n  slt\n    /* \"#utility.yul\":932:1051   */\n  iszero\n  tag_27\n  jumpi\n    /* \"#utility.yul\":970:1049   */\n  tag_28\n  tag_8\n  jump\t// in\ntag_28:\n    /* \"#utility.yul\":932:1051   */\ntag_27:\n    /* \"#utility.yul\":1090:1091   */\n  0x00\n    /* \"#utility.yul\":1115:1179   */\n  tag_29\n    /* \"#utility.yul\":1171:1178   */\n  dup5\n    /* \"#utility.yul\":1162:1168   */\n  dup3\n    /* \"#utility.yul\":1151:1160   */\n  dup6\n    /* \"#utility.yul\":1147:1169   */\n  add\n    /* \"#utility.yul\":1115:1179   */\n  tag_13\n  jump\t// in\ntag_29:\n    /* \"#utility.yul\":1105:1179   */\n  swap2\n  pop\n    /* \"#utility.yul\":1061:1189   */\n  pop\n    /* \"#utility.yul\":845:1196   */\n  swap3\n  swap2\n  pop\n  pop\n  jump\t// out\n    /* \"contracts/PortfolioManager.sol\":699:4477  contract PortfolioManager {... */\ntag_6:\n  dataSize(sub_0)\n  dup1\n  dataOffset(sub_0)\n  0x00\n  codecopy\n  0x00\n  return\nstop\n\nsub_0: assembly {\n        /* \"contracts/PortfolioManager.sol\":699:4477  contract PortfolioManager {... */\n      mstore(0x40, 0x80)\n      callvalue\n      dup1\n      iszero\n      tag_1\n      jumpi\n      0x00\n      dup1\n      revert\n    tag_1:\n      pop\n      jumpi(tag_2, lt(calldatasize, 0x04))\n      shr(0xe0, calldataload(0x00))\n      dup1\n      0x8da5cb5b\n      gt\n      tag_14\n      jumpi\n      dup1\n      0x8da5cb5b\n      eq\n      tag_8\n      jumpi\n      dup1\n      0xb1d6e59d\n      eq\n      tag_9\n      jumpi\n      dup1\n      0xb61920c1\n      eq\n      tag_10\n      jumpi\n      dup1\n      0xc489744b\n      eq\n      tag_11\n      jumpi\n      dup1\n      0xd48bfca7\n      eq\n      tag_12\n      jumpi\n      dup1\n      0xf3fef3a3\n      eq\n      tag_13\n      jumpi\n      jump(tag_2)\n    tag_14:\n      dup1\n      0x138a5e25\n      eq\n      tag_3\n      jumpi\n      dup1\n      0x43b25452\n      eq\n      tag_4\n      jumpi\n      dup1\n      0x47e7ef24\n      eq\n      tag_5\n      jumpi\n      dup1\n      0x5fa7b584\n      eq\n      tag_6\n      jumpi\n      dup1\n      0x6d1ea3fa\n      eq\n      tag_7\n      jumpi\n    tag_2:\n      0x00\n      dup1\n      revert\n        /* \"contracts/PortfolioManager.sol\":1057:1080  address public aiTrader */\n    tag_3:\n      tag_15\n      tag_16\n      jump\t// in\n    tag_15:\n      mload(0x40)\n      tag_17\n      swap2\n      swap1\n      tag_18\n      jump\t// in\n    tag_17:\n      mload(0x40)\n      dup1\n      swap2\n      sub\n      swap1\n      return\n        /* \"contracts/PortfolioManager.sol\":1699:2119  function createPortfolio(uint256 _riskLevel) external {... */\n    tag_4:\n      tag_19\n      0x04\n      dup1\n      calldatasize\n      sub\n      dup2\n      add\n      swap1\n      tag_20\n      swap2\n      swap1\n      tag_21\n      jump\t// in\n    tag_20:\n      tag_22\n      jump\t// in\n    tag_19:\n      stop\n        /* \"contracts/PortfolioManager.sol\":3461:3810  function deposit(address _token, uint256 _amount) external {... */\n    tag_5:\n      tag_23\n      0x04\n      dup1\n      calldatasize\n      sub\n      dup2\n      add\n      swap1\n      tag_24\n      swap2\n      swap1\n      tag_25\n      jump\t// in\n    tag_24:\n      tag_26\n      jump\t// in\n    tag_23:\n      stop\n        /* \"contracts/PortfolioManager.sol\":2263:2401  function removeToken(address _token) external onlyOwner {... */\n    tag_6:\n      tag_27\n      0x04\n      dup1\n      calldatasize\n      sub\n      dup2\n      add\n      swap1\n      tag_28\n      swap2\n      swap1\n      tag_29\n      jump\t// in\n    tag_28:\n      tag_30\n      jump\t// in\n    tag_27:\n      stop\n        /* \"contracts/PortfolioManager.sol\":979:1025  mapping(address => bool) public approvedTokens */\n    tag_7:\n      tag_31\n      0x04\n      dup1\n      calldatasize\n      sub\n      dup2\n      add\n      swap1\n      tag_32\n      swap2\n      swap1\n      tag_29\n      jump\t// in\n    tag_32:\n      tag_33\n      jump\t// in\n    tag_31:\n      mload(0x40)\n      tag_34\n      swap2\n      swap1\n      tag_35\n      jump\t// in\n    tag_34:\n      mload(0x40)\n      dup1\n      swap2\n      sub\n      swap1\n      return\n        /* \"contracts/PortfolioManager.sol\":1031:1051  address public owner */\n    tag_8:\n      tag_36\n      tag_37\n      jump\t// in\n    tag_36:\n      mload(0x40)\n      tag_38\n      swap2\n      swap1\n      tag_18\n      jump\t// in\n    tag_38:\n      mload(0x40)\n      dup1\n      swap2\n      sub\n      swap1\n      return\n        /* \"contracts/PortfolioManager.sol\":2407:3455  function executeAITrade(... */\n    tag_9:\n      tag_39\n      0x04\n      dup1\n      calldatasize\n      sub\n      dup2\n      add\n      swap1\n      tag_40\n      swap2\n      swap1\n      tag_41\n      jump\t// in\n    tag_40:\n      tag_42\n      jump\t// in\n    tag_39:\n      stop\n        /* \"contracts/PortfolioManager.sol\":922:973  mapping(address => Portfolio) public userPortfolios */\n    tag_10:\n      tag_43\n      0x04\n      dup1\n      calldatasize\n      sub\n      dup2\n      add\n      swap1\n      tag_44\n      swap2\n      swap1\n      tag_29\n      jump\t// in\n    tag_44:\n      tag_45\n      jump\t// in\n    tag_43:\n      mload(0x40)\n      tag_46\n      swap4\n      swap3\n      swap2\n      swap1\n      tag_47\n      jump\t// in\n    tag_46:\n      mload(0x40)\n      dup1\n      swap2\n      sub\n      swap1\n      return\n        /* \"contracts/PortfolioManager.sol\":4226:4475  function getTokenBalance(... */\n    tag_11:\n      tag_48\n      0x04\n      dup1\n      calldatasize\n      sub\n      dup2\n      add\n      swap1\n      tag_49\n      swap2\n      swap1\n      tag_50\n      jump\t// in\n    tag_49:\n      tag_51\n      jump\t// in\n    tag_48:\n      mload(0x40)\n      tag_52\n      swap2\n      swap1\n      tag_53\n      jump\t// in\n    tag_52:\n      mload(0x40)\n      dup1\n      swap2\n      sub\n      swap1\n      return\n        /* \"contracts/PortfolioManager.sol\":2125:2257  function addToken(address _token) external onlyOwner {... */\n    tag_12:\n      tag_54\n      0x04\n      dup1\n      calldatasize\n      sub\n      dup2\n      add\n      swap1\n      tag_55\n      swap2\n      swap1\n      tag_29\n      jump\t// in\n    tag_55:\n      tag_56\n      jump\t// in\n    tag_54:\n      stop\n        /* \"contracts/PortfolioManager.sol\":3816:4220  function withdraw(address _token, uint256 _amount) external {... */\n    tag_13:\n      tag_57\n      0x04\n      dup1\n      calldatasize\n      sub\n      dup2\n      add\n      swap1\n      tag_58\n      swap2\n      swap1\n      tag_25\n      jump\t// in\n    tag_58:\n      tag_59\n      jump\t// in\n    tag_57:\n      stop\n        /* \"contracts/PortfolioManager.sol\":1057:1080  address public aiTrader */\n    tag_16:\n      0x03\n      0x00\n      swap1\n      sload\n      swap1\n      0x0100\n      exp\n      swap1\n      div\n      0xffffffffffffffffffffffffffffffffffffffff\n      and\n      dup2\n      jump\t// out\n        /* \"contracts/PortfolioManager.sol\":1699:2119  function createPortfolio(uint256 _riskLevel) external {... */\n    tag_22:\n        /* \"contracts/PortfolioManager.sol\":1784:1785  0 */\n      0x00\n        /* \"contracts/PortfolioManager.sol\":1771:1781  _riskLevel */\n      dup2\n        /* \"contracts/PortfolioManager.sol\":1771:1785  _riskLevel > 0 */\n      gt\n        /* \"contracts/PortfolioManager.sol\":1771:1805  _riskLevel > 0 && _riskLevel <= 10 */\n      dup1\n      iszero\n      tag_61\n      jumpi\n      pop\n        /* \"contracts/PortfolioManager.sol\":1803:1805  10 */\n      0x0a\n        /* \"contracts/PortfolioManager.sol\":1789:1799  _riskLevel */\n      dup2\n        /* \"contracts/PortfolioManager.sol\":1789:1805  _riskLevel <= 10 */\n      gt\n      iszero\n        /* \"contracts/PortfolioManager.sol\":1771:1805  _riskLevel > 0 && _riskLevel <= 10 */\n    tag_61:\n        /* \"contracts/PortfolioManager.sol\":1763:1828  require(_riskLevel > 0 && _riskLevel <= 10, \"Invalid risk level\") */\n      tag_62\n      jumpi\n      mload(0x40)\n      0x08c379a000000000000000000000000000000000000000000000000000000000\n      dup2\n      mstore\n      0x04\n      add\n      tag_63\n      swap1\n      tag_64\n      jump\t// in\n    tag_63:\n      mload(0x40)\n      dup1\n      swap2\n      sub\n      swap1\n      revert\n    tag_62:\n        /* \"contracts/PortfolioManager.sol\":1847:1861  userPortfolios */\n      0x00\n        /* \"contracts/PortfolioManager.sol\":1847:1873  userPortfolios[msg.sender] */\n      dup1\n        /* \"contracts/PortfolioManager.sol\":1862:1872  msg.sender */\n      caller\n        /* \"contracts/PortfolioManager.sol\":1847:1873  userPortfolios[msg.sender] */\n      0xffffffffffffffffffffffffffffffffffffffff\n      and\n      0xffffffffffffffffffffffffffffffffffffffff\n      and\n      dup2\n      mstore\n      0x20\n      add\n      swap1\n      dup2\n      mstore\n      0x20\n      add\n      0x00\n      keccak256\n        /* \"contracts/PortfolioManager.sol\":1847:1882  userPortfolios[msg.sender].isActive */\n      0x03\n      add\n      0x00\n      swap1\n      sload\n      swap1\n      0x0100\n      exp\n      swap1\n      div\n      0xff\n      and\n        /* \"contracts/PortfolioManager.sol\":1846:1882  !userPortfolios[msg.sender].isActive */\n      iszero\n        /* \"contracts/PortfolioManager.sol\":1838:1903  require(!userPortfolios[msg.sender].isActive, \"Portfolio exists\") */\n      tag_65\n      jumpi\n      mload(0x40)\n      0x08c379a000000000000000000000000000000000000000000000000000000000\n      dup2\n      mstore\n      0x04\n      add\n      tag_66\n      swap1\n      tag_67\n      jump\t// in\n    tag_66:\n      mload(0x40)\n      dup1\n      swap2\n      sub\n      swap1\n      revert\n    tag_65:\n        /* \"contracts/PortfolioManager.sol\":1914:1944  Portfolio storage newPortfolio */\n      0x00\n        /* \"contracts/PortfolioManager.sol\":1947:1961  userPortfolios */\n      dup1\n        /* \"contracts/PortfolioManager.sol\":1947:1973  userPortfolios[msg.sender] */\n      0x00\n        /* \"contracts/PortfolioManager.sol\":1962:1972  msg.sender */\n      caller\n        /* \"contracts/PortfolioManager.sol\":1947:1973  userPortfolios[msg.sender] */\n      0xffffffffffffffffffffffffffffffffffffffff\n      and\n      0xffffffffffffffffffffffffffffffffffffffff\n      and\n      dup2\n      mstore\n      0x20\n      add\n      swap1\n      dup2\n      mstore\n      0x20\n      add\n      0x00\n      keccak256\n        /* \"contracts/PortfolioManager.sol\":1914:1973  Portfolio storage newPortfolio = userPortfolios[msg.sender] */\n      swap1\n      pop\n        /* \"contracts/PortfolioManager.sol\":2008:2018  _riskLevel */\n      dup2\n        /* \"contracts/PortfolioManager.sol\":1983:1995  newPortfolio */\n      dup2\n        /* \"contracts/PortfolioManager.sol\":1983:2005  newPortfolio.riskLevel */\n      0x01\n      add\n        /* \"contracts/PortfolioManager.sol\":1983:2018  newPortfolio.riskLevel = _riskLevel */\n      dup2\n      swap1\n      sstore\n      pop\n        /* \"contracts/PortfolioManager.sol\":2052:2056  true */\n      0x01\n        /* \"contracts/PortfolioManager.sol\":2028:2040  newPortfolio */\n      dup2\n        /* \"contracts/PortfolioManager.sol\":2028:2049  newPortfolio.isActive */\n      0x03\n      add\n      0x00\n        /* \"contracts/PortfolioManager.sol\":2028:2056  newPortfolio.isActive = true */\n      0x0100\n      exp\n      dup2\n      sload\n      dup2\n      0xff\n      mul\n      not\n      and\n      swap1\n      dup4\n      iszero\n      iszero\n      mul\n      or\n      swap1\n      sstore\n      pop\n        /* \"contracts/PortfolioManager.sol\":2089:2099  msg.sender */\n      caller\n        /* \"contracts/PortfolioManager.sol\":2072:2112  PortfolioCreated(msg.sender, _riskLevel) */\n      0xffffffffffffffffffffffffffffffffffffffff\n      and\n      0x67fb572dde9f80bfb3f0454266d9258cf72d569e4ef809f9301b9ee757dd78d0\n        /* \"contracts/PortfolioManager.sol\":2101:2111  _riskLevel */\n      dup4\n        /* \"contracts/PortfolioManager.sol\":2072:2112  PortfolioCreated(msg.sender, _riskLevel) */\n      mload(0x40)\n      tag_68\n      swap2\n      swap1\n      tag_53\n      jump\t// in\n    tag_68:\n      mload(0x40)\n      dup1\n      swap2\n      sub\n      swap1\n      log2\n        /* \"contracts/PortfolioManager.sol\":1753:2119  {... */\n      pop\n        /* \"contracts/PortfolioManager.sol\":1699:2119  function createPortfolio(uint256 _riskLevel) external {... */\n      pop\n      jump\t// out\n        /* \"contracts/PortfolioManager.sol\":3461:3810  function deposit(address _token, uint256 _amount) external {... */\n    tag_26:\n        /* \"contracts/PortfolioManager.sol\":3538:3552  approvedTokens */\n      0x01\n        /* \"contracts/PortfolioManager.sol\":3538:3560  approvedTokens[_token] */\n      0x00\n        /* \"contracts/PortfolioManager.sol\":3553:3559  _token */\n      dup4\n        /* \"contracts/PortfolioManager.sol\":3538:3560  approvedTokens[_token] */\n      0xffffffffffffffffffffffffffffffffffffffff\n      and\n      0xffffffffffffffffffffffffffffffffffffffff\n      and\n      dup2\n      mstore\n      0x20\n      add\n      swap1\n      dup2\n      mstore\n      0x20\n      add\n      0x00\n      keccak256\n      0x00\n      swap1\n      sload\n      swap1\n      0x0100\n      exp\n      swap1\n      div\n      0xff\n      and\n        /* \"contracts/PortfolioManager.sol\":3530:3583  require(approvedTokens[_token], \"Token not approved\") */\n      tag_70\n      jumpi\n      mload(0x40)\n      0x08c379a000000000000000000000000000000000000000000000000000000000\n      dup2\n      mstore\n      0x04\n      add\n      tag_71\n      swap1\n      tag_72\n      jump\t// in\n    tag_71:\n      mload(0x40)\n      dup1\n      swap2\n      sub\n      swap1\n      revert\n    tag_70:\n        /* \"contracts/PortfolioManager.sol\":3601:3615  userPortfolios */\n      0x00\n        /* \"contracts/PortfolioManager.sol\":3601:3627  userPortfolios[msg.sender] */\n      dup1\n        /* \"contracts/PortfolioManager.sol\":3616:3626  msg.sender */\n      caller\n        /* \"contracts/PortfolioManager.sol\":3601:3627  userPortfolios[msg.sender] */\n      0xffffffffffffffffffffffffffffffffffffffff\n      and\n      0xffffffffffffffffffffffffffffffffffffffff\n      and\n      dup2\n      mstore\n      0x20\n      add\n      swap1\n      dup2\n      mstore\n      0x20\n      add\n      0x00\n      keccak256\n        /* \"contracts/PortfolioManager.sol\":3601:3636  userPortfolios[msg.sender].isActive */\n      0x03\n      add\n      0x00\n      swap1\n      sload\n      swap1\n      0x0100\n      exp\n      swap1\n      div\n      0xff\n      and\n        /* \"contracts/PortfolioManager.sol\":3593:3660  require(userPortfolios[msg.sender].isActive, \"No active portfolio\") */\n      tag_73\n      jumpi\n      mload(0x40)\n      0x08c379a000000000000000000000000000000000000000000000000000000000\n      dup2\n      mstore\n      0x04\n      add\n      tag_74\n      swap1\n      tag_75\n      jump\t// in\n    tag_74:\n      mload(0x40)\n      dup1\n      swap2\n      sub\n      swap1\n      revert\n    tag_73:\n        /* \"contracts/PortfolioManager.sol\":3678:3684  _token */\n      dup2\n        /* \"contracts/PortfolioManager.sol\":3671:3698  IERC20(_token).transferFrom */\n      0xffffffffffffffffffffffffffffffffffffffff\n      and\n      0x23b872dd\n        /* \"contracts/PortfolioManager.sol\":3699:3709  msg.sender */\n      caller\n        /* \"contracts/PortfolioManager.sol\":3719:3723  this */\n      address\n        /* \"contracts/PortfolioManager.sol\":3726:3733  _amount */\n      dup5\n        /* \"contracts/PortfolioManager.sol\":3671:3734  IERC20(_token).transferFrom(msg.sender, address(this), _amount) */\n      mload(0x40)\n      dup5\n      0xffffffff\n      and\n      0xe0\n      shl\n      dup2\n      mstore\n      0x04\n      add\n      tag_76\n      swap4\n      swap3\n      swap2\n      swap1\n      tag_77\n      jump\t// in\n    tag_76:\n      0x20\n      mload(0x40)\n      dup1\n      dup4\n      sub\n      dup2\n      0x00\n      dup8\n      gas\n      call\n      iszero\n      dup1\n      iszero\n      tag_79\n      jumpi\n      returndatasize\n      0x00\n      dup1\n      returndatacopy\n      revert(0x00, returndatasize)\n    tag_79:\n      pop\n      pop\n      pop\n      pop\n      mload(0x40)\n      returndatasize\n      not(0x1f)\n      0x1f\n      dup3\n      add\n      and\n      dup3\n      add\n      dup1\n      0x40\n      mstore\n      pop\n      dup2\n      add\n      swap1\n      tag_80\n      swap2\n      swap1\n      tag_81\n      jump\t// in\n    tag_80:\n      pop\n        /* \"contracts/PortfolioManager.sol\":3796:3803  _amount */\n      dup1\n        /* \"contracts/PortfolioManager.sol\":3744:3758  userPortfolios */\n      0x00\n        /* \"contracts/PortfolioManager.sol\":3744:3770  userPortfolios[msg.sender] */\n      dup1\n        /* \"contracts/PortfolioManager.sol\":3759:3769  msg.sender */\n      caller\n        /* \"contracts/PortfolioManager.sol\":3744:3770  userPortfolios[msg.sender] */\n      0xffffffffffffffffffffffffffffffffffffffff\n      and\n      0xffffffffffffffffffffffffffffffffffffffff\n      and\n      dup2\n      mstore\n      0x20\n      add\n      swap1\n      dup2\n      mstore\n      0x20\n      add\n      0x00\n      keccak256\n        /* \"contracts/PortfolioManager.sol\":3744:3784  userPortfolios[msg.sender].tokenBalances */\n      0x02\n      add\n        /* \"contracts/PortfolioManager.sol\":3744:3792  userPortfolios[msg.sender].tokenBalances[_token] */\n      0x00\n        /* \"contracts/PortfolioManager.sol\":3785:3791  _token */\n      dup5\n        /* \"contracts/PortfolioManager.sol\":3744:3792  userPortfolios[msg.sender].tokenBalances[_token] */\n      0xffffffffffffffffffffffffffffffffffffffff\n      and\n      0xffffffffffffffffffffffffffffffffffffffff\n      and\n      dup2\n      mstore\n      0x20\n      add\n      swap1\n      dup2\n      mstore\n      0x20\n      add\n      0x00\n      keccak256\n      0x00\n        /* \"contracts/PortfolioManager.sol\":3744:3803  userPortfolios[msg.sender].tokenBalances[_token] += _amount */\n      dup3\n      dup3\n      sload\n      tag_82\n      swap2\n      swap1\n      tag_83\n      jump\t// in\n    tag_82:\n      swap3\n      pop\n      pop\n      dup2\n      swap1\n      sstore\n      pop\n        /* \"contracts/PortfolioManager.sol\":3461:3810  function deposit(address _token, uint256 _amount) external {... */\n      pop\n      pop\n      jump\t// out\n        /* \"contracts/PortfolioManager.sol\":2263:2401  function removeToken(address _token) external onlyOwner {... */\n    tag_30:\n        /* \"contracts/PortfolioManager.sol\":1556:1561  owner */\n      0x02\n      0x00\n      swap1\n      sload\n      swap1\n      0x0100\n      exp\n      swap1\n      div\n      0xffffffffffffffffffffffffffffffffffffffff\n      and\n        /* \"contracts/PortfolioManager.sol\":1542:1561  msg.sender == owner */\n      0xffffffffffffffffffffffffffffffffffffffff\n      and\n        /* \"contracts/PortfolioManager.sol\":1542:1552  msg.sender */\n      caller\n        /* \"contracts/PortfolioManager.sol\":1542:1561  msg.sender == owner */\n      0xffffffffffffffffffffffffffffffffffffffff\n      and\n      eq\n        /* \"contracts/PortfolioManager.sol\":1534:1575  require(msg.sender == owner, \"Not owner\") */\n      tag_85\n      jumpi\n      mload(0x40)\n      0x08c379a000000000000000000000000000000000000000000000000000000000\n      dup2\n      mstore\n      0x04\n      add\n      tag_86\n      swap1\n      tag_87\n      jump\t// in\n    tag_86:\n      mload(0x40)\n      dup1\n      swap2\n      sub\n      swap1\n      revert\n    tag_85:\n        /* \"contracts/PortfolioManager.sol\":2354:2359  false */\n      0x00\n        /* \"contracts/PortfolioManager.sol\":2329:2343  approvedTokens */\n      0x01\n        /* \"contracts/PortfolioManager.sol\":2329:2351  approvedTokens[_token] */\n      0x00\n        /* \"contracts/PortfolioManager.sol\":2344:2350  _token */\n      dup4\n        /* \"contracts/PortfolioManager.sol\":2329:2351  approvedTokens[_token] */\n      0xffffffffffffffffffffffffffffffffffffffff\n      and\n      0xffffffffffffffffffffffffffffffffffffffff\n      and\n      dup2\n      mstore\n      0x20\n      add\n      swap1\n      dup2\n      mstore\n      0x20\n      add\n      0x00\n      keccak256\n      0x00\n        /* \"contracts/PortfolioManager.sol\":2329:2359  approvedTokens[_token] = false */\n      0x0100\n      exp\n      dup2\n      sload\n      dup2\n      0xff\n      mul\n      not\n      and\n      swap1\n      dup4\n      iszero\n      iszero\n      mul\n      or\n      swap1\n      sstore\n      pop\n        /* \"contracts/PortfolioManager.sol\":2387:2393  _token */\n      dup1\n        /* \"contracts/PortfolioManager.sol\":2374:2394  TokenRemoved(_token) */\n      0xffffffffffffffffffffffffffffffffffffffff\n      and\n      0x4c910b69fe65a61f7531b9c5042b2329ca7179c77290aa7e2eb3afa3c8511fd3\n      mload(0x40)\n      mload(0x40)\n      dup1\n      swap2\n      sub\n      swap1\n      log2\n        /* \"contracts/PortfolioManager.sol\":2263:2401  function removeToken(address _token) external onlyOwner {... */\n      pop\n      jump\t// out\n        /* \"contracts/PortfolioManager.sol\":979:1025  mapping(address => bool) public approvedTokens */\n    tag_33:\n      mstore(0x20, 0x01)\n      dup1\n      0x00\n      mstore\n      keccak256(0x00, 0x40)\n      0x00\n      swap2\n      pop\n      sload\n      swap1\n      0x0100\n      exp\n      swap1\n      div\n      0xff\n      and\n      dup2\n      jump\t// out\n        /* \"contracts/PortfolioManager.sol\":1031:1051  address public owner */\n    tag_37:\n      0x02\n      0x00\n      swap1\n      sload\n      swap1\n      0x0100\n      exp\n      swap1\n      div\n      0xffffffffffffffffffffffffffffffffffffffff\n      and\n      dup2\n      jump\t// out\n        /* \"contracts/PortfolioManager.sol\":2407:3455  function executeAITrade(... */\n    tag_42:\n        /* \"contracts/PortfolioManager.sol\":1649:1657  aiTrader */\n      0x03\n      0x00\n      swap1\n      sload\n      swap1\n      0x0100\n      exp\n      swap1\n      div\n      0xffffffffffffffffffffffffffffffffffffffff\n      and\n        /* \"contracts/PortfolioManager.sol\":1635:1657  msg.sender == aiTrader */\n      0xffffffffffffffffffffffffffffffffffffffff\n      and\n        /* \"contracts/PortfolioManager.sol\":1635:1645  msg.sender */\n      caller\n        /* \"contracts/PortfolioManager.sol\":1635:1657  msg.sender == aiTrader */\n      0xffffffffffffffffffffffffffffffffffffffff\n      and\n      eq\n        /* \"contracts/PortfolioManager.sol\":1627:1675  require(msg.sender == aiTrader, \"Not AI trader\") */\n      tag_90\n      jumpi\n      mload(0x40)\n      0x08c379a000000000000000000000000000000000000000000000000000000000\n      dup2\n      mstore\n      0x04\n      add\n      tag_91\n      swap1\n      tag_92\n      jump\t// in\n    tag_91:\n      mload(0x40)\n      dup1\n      swap2\n      sub\n      swap1\n      revert\n    tag_90:\n        /* \"contracts/PortfolioManager.sol\":2585:2599  approvedTokens */\n      0x01\n        /* \"contracts/PortfolioManager.sol\":2585:2609  approvedTokens[_tokenIn] */\n      0x00\n        /* \"contracts/PortfolioManager.sol\":2600:2608  _tokenIn */\n      dup5\n        /* \"contracts/PortfolioManager.sol\":2585:2609  approvedTokens[_tokenIn] */\n      0xffffffffffffffffffffffffffffffffffffffff\n      and\n      0xffffffffffffffffffffffffffffffffffffffff\n      and\n      dup2\n      mstore\n      0x20\n      add\n      swap1\n      dup2\n      mstore\n      0x20\n      add\n      0x00\n      keccak256\n      0x00\n      swap1\n      sload\n      swap1\n      0x0100\n      exp\n      swap1\n      div\n      0xff\n      and\n        /* \"contracts/PortfolioManager.sol\":2585:2638  approvedTokens[_tokenIn] && approvedTokens[_tokenOut] */\n      dup1\n      iszero\n      tag_94\n      jumpi\n      pop\n        /* \"contracts/PortfolioManager.sol\":2613:2627  approvedTokens */\n      0x01\n        /* \"contracts/PortfolioManager.sol\":2613:2638  approvedTokens[_tokenOut] */\n      0x00\n        /* \"contracts/PortfolioManager.sol\":2628:2637  _tokenOut */\n      dup4\n        /* \"contracts/PortfolioManager.sol\":2613:2638  approvedTokens[_tokenOut] */\n      0xffffffffffffffffffffffffffffffffffffffff\n      and\n      0xffffffffffffffffffffffffffffffffffffffff\n      and\n      dup2\n      mstore\n      0x20\n      add\n      swap1\n      dup2\n      mstore\n      0x20\n      add\n      0x00\n      keccak256\n      0x00\n      swap1\n      sload\n      swap1\n      0x0100\n      exp\n      swap1\n      div\n      0xff\n      and\n        /* \"contracts/PortfolioManager.sol\":2585:2638  approvedTokens[_tokenIn] && approvedTokens[_tokenOut] */\n    tag_94:\n        /* \"contracts/PortfolioManager.sol\":2564:2681  require(... */\n      tag_95\n      jumpi\n      mload(0x40)\n      0x08c379a000000000000000000000000000000000000000000000000000000000\n      dup2\n      mstore\n      0x04\n      add\n      tag_96\n      swap1\n      tag_97\n      jump\t// in\n    tag_96:\n      mload(0x40)\n      dup1\n      swap2\n      sub\n      swap1\n      revert\n    tag_95:\n        /* \"contracts/PortfolioManager.sol\":2699:2713  userPortfolios */\n      0x00\n        /* \"contracts/PortfolioManager.sol\":2699:2720  userPortfolios[_user] */\n      dup1\n        /* \"contracts/PortfolioManager.sol\":2714:2719  _user */\n      dup6\n        /* \"contracts/PortfolioManager.sol\":2699:2720  userPortfolios[_user] */\n      0xffffffffffffffffffffffffffffffffffffffff\n      and\n      0xffffffffffffffffffffffffffffffffffffffff\n      and\n      dup2\n      mstore\n      0x20\n      add\n      swap1\n      dup2\n      mstore\n      0x20\n      add\n      0x00\n      keccak256\n        /* \"contracts/PortfolioManager.sol\":2699:2729  userPortfolios[_user].isActive */\n      0x03\n      add\n      0x00\n      swap1\n      sload\n      swap1\n      0x0100\n      exp\n      swap1\n      div\n      0xff\n      and\n        /* \"contracts/PortfolioManager.sol\":2691:2753  require(userPortfolios[_user].isActive, \"No active portfolio\") */\n      tag_98\n      jumpi\n      mload(0x40)\n      0x08c379a000000000000000000000000000000000000000000000000000000000\n      dup2\n      mstore\n      0x04\n      add\n      tag_99\n      swap1\n      tag_75\n      jump\t// in\n    tag_99:\n      mload(0x40)\n      dup1\n      swap2\n      sub\n      swap1\n      revert\n    tag_98:\n        /* \"contracts/PortfolioManager.sol\":2764:2791  Portfolio storage portfolio */\n      0x00\n        /* \"contracts/PortfolioManager.sol\":2794:2808  userPortfolios */\n      dup1\n        /* \"contracts/PortfolioManager.sol\":2794:2815  userPortfolios[_user] */\n      0x00\n        /* \"contracts/PortfolioManager.sol\":2809:2814  _user */\n      dup7\n        /* \"contracts/PortfolioManager.sol\":2794:2815  userPortfolios[_user] */\n      0xffffffffffffffffffffffffffffffffffffffff\n      and\n      0xffffffffffffffffffffffffffffffffffffffff\n      and\n      dup2\n      mstore\n      0x20\n      add\n      swap1\n      dup2\n      mstore\n      0x20\n      add\n      0x00\n      keccak256\n        /* \"contracts/PortfolioManager.sol\":2764:2815  Portfolio storage portfolio = userPortfolios[_user] */\n      swap1\n      pop\n        /* \"contracts/PortfolioManager.sol\":2883:2890  _amount */\n      dup2\n        /* \"contracts/PortfolioManager.sol\":2846:2855  portfolio */\n      dup2\n        /* \"contracts/PortfolioManager.sol\":2846:2869  portfolio.tokenBalances */\n      0x02\n      add\n        /* \"contracts/PortfolioManager.sol\":2846:2879  portfolio.tokenBalances[_tokenIn] */\n      0x00\n        /* \"contracts/PortfolioManager.sol\":2870:2878  _tokenIn */\n      dup7\n        /* \"contracts/PortfolioManager.sol\":2846:2879  portfolio.tokenBalances[_tokenIn] */\n      0xffffffffffffffffffffffffffffffffffffffff\n      and\n      0xffffffffffffffffffffffffffffffffffffffff\n      and\n      dup2\n      mstore\n      0x20\n      add\n      swap1\n      dup2\n      mstore\n      0x20\n      add\n      0x00\n      keccak256\n      sload\n        /* \"contracts/PortfolioManager.sol\":2846:2890  portfolio.tokenBalances[_tokenIn] >= _amount */\n      lt\n      iszero\n        /* \"contracts/PortfolioManager.sol\":2825:2936  require(... */\n      tag_100\n      jumpi\n      mload(0x40)\n      0x08c379a000000000000000000000000000000000000000000000000000000000\n      dup2\n      mstore\n      0x04\n      add\n      tag_101\n      swap1\n      tag_102\n      jump\t// in\n    tag_101:\n      mload(0x40)\n      dup1\n      swap2\n      sub\n      swap1\n      revert\n    tag_100:\n        /* \"contracts/PortfolioManager.sol\":2999:3007  _tokenIn */\n      dup4\n        /* \"contracts/PortfolioManager.sol\":2992:3016  IERC20(_tokenIn).approve */\n      0xffffffffffffffffffffffffffffffffffffffff\n      and\n      0x095ea7b3\n        /* \"contracts/PortfolioManager.sol\":3017:3025  aiTrader */\n      0x03\n      0x00\n      swap1\n      sload\n      swap1\n      0x0100\n      exp\n      swap1\n      div\n      0xffffffffffffffffffffffffffffffffffffffff\n      and\n        /* \"contracts/PortfolioManager.sol\":3027:3034  _amount */\n      dup5\n        /* \"contracts/PortfolioManager.sol\":2992:3035  IERC20(_tokenIn).approve(aiTrader, _amount) */\n      mload(0x40)\n      dup4\n      0xffffffff\n      and\n      0xe0\n      shl\n      dup2\n      mstore\n      0x04\n      add\n      tag_103\n      swap3\n      swap2\n      swap1\n      tag_104\n      jump\t// in\n    tag_103:\n      0x20\n      mload(0x40)\n      dup1\n      dup4\n      sub\n      dup2\n      0x00\n      dup8\n      gas\n      call\n      iszero\n      dup1\n      iszero\n      tag_106\n      jumpi\n      returndatasize\n      0x00\n      dup1\n      returndatacopy\n      revert(0x00, returndatasize)\n    tag_106:\n      pop\n      pop\n      pop\n      pop\n      mload(0x40)\n      returndatasize\n      not(0x1f)\n      0x1f\n      dup3\n      add\n      and\n      dup3\n      add\n      dup1\n      0x40\n      mstore\n      pop\n      dup2\n      add\n      swap1\n      tag_107\n      swap2\n      swap1\n      tag_81\n      jump\t// in\n    tag_107:\n      pop\n        /* \"contracts/PortfolioManager.sol\":3126:3133  _amount */\n      dup2\n        /* \"contracts/PortfolioManager.sol\":3089:3098  portfolio */\n      dup2\n        /* \"contracts/PortfolioManager.sol\":3089:3112  portfolio.tokenBalances */\n      0x02\n      add\n        /* \"contracts/PortfolioManager.sol\":3089:3122  portfolio.tokenBalances[_tokenIn] */\n      0x00\n        /* \"contracts/PortfolioManager.sol\":3113:3121  _tokenIn */\n      dup7\n        /* \"contracts/PortfolioManager.sol\":3089:3122  portfolio.tokenBalances[_tokenIn] */\n      0xffffffffffffffffffffffffffffffffffffffff\n      and\n      0xffffffffffffffffffffffffffffffffffffffff\n      and\n      dup2\n      mstore\n      0x20\n      add\n      swap1\n      dup2\n      mstore\n      0x20\n      add\n      0x00\n      keccak256\n      0x00\n        /* \"contracts/PortfolioManager.sol\":3089:3133  portfolio.tokenBalances[_tokenIn] -= _amount */\n      dup3\n      dup3\n      sload\n      tag_108\n      swap2\n      swap1\n      tag_109\n      jump\t// in\n    tag_108:\n      swap3\n      pop\n      pop\n      dup2\n      swap1\n      sstore\n      pop\n        /* \"contracts/PortfolioManager.sol\":3143:3165  uint256 amountReceived */\n      0x00\n        /* \"contracts/PortfolioManager.sol\":3179:3187  aiTrader */\n      0x03\n      0x00\n      swap1\n      sload\n      swap1\n      0x0100\n      exp\n      swap1\n      div\n      0xffffffffffffffffffffffffffffffffffffffff\n      and\n        /* \"contracts/PortfolioManager.sol\":3168:3201  IAI_Trader(aiTrader).executeTrade */\n      0xffffffffffffffffffffffffffffffffffffffff\n      and\n      0xaad4466e\n        /* \"contracts/PortfolioManager.sol\":3215:3223  _tokenIn */\n      dup7\n        /* \"contracts/PortfolioManager.sol\":3237:3246  _tokenOut */\n      dup7\n        /* \"contracts/PortfolioManager.sol\":3260:3267  _amount */\n      dup7\n        /* \"contracts/PortfolioManager.sol\":3289:3293  this */\n      address\n        /* \"contracts/PortfolioManager.sol\":3168:3320  IAI_Trader(aiTrader).executeTrade(... */\n      mload(0x40)\n      dup6\n      0xffffffff\n      and\n      0xe0\n      shl\n      dup2\n      mstore\n      0x04\n      add\n      tag_110\n      swap5\n      swap4\n      swap3\n      swap2\n      swap1\n      tag_111\n      jump\t// in\n    tag_110:\n      0x20\n      mload(0x40)\n      dup1\n      dup4\n      sub\n      dup2\n      0x00\n      dup8\n      gas\n      call\n      iszero\n      dup1\n      iszero\n      tag_113\n      jumpi\n      returndatasize\n      0x00\n      dup1\n      returndatacopy\n      revert(0x00, returndatasize)\n    tag_113:\n      pop\n      pop\n      pop\n      pop\n      mload(0x40)\n      returndatasize\n      not(0x1f)\n      0x1f\n      dup3\n      add\n      and\n      dup3\n      add\n      dup1\n      0x40\n      mstore\n      pop\n      dup2\n      add\n      swap1\n      tag_114\n      swap2\n      swap1\n      tag_115\n      jump\t// in\n    tag_114:\n        /* \"contracts/PortfolioManager.sol\":3143:3320  uint256 amountReceived = IAI_Trader(aiTrader).executeTrade(... */\n      swap1\n      pop\n        /* \"contracts/PortfolioManager.sol\":3368:3382  amountReceived */\n      dup1\n        /* \"contracts/PortfolioManager.sol\":3330:3339  portfolio */\n      dup3\n        /* \"contracts/PortfolioManager.sol\":3330:3353  portfolio.tokenBalances */\n      0x02\n      add\n        /* \"contracts/PortfolioManager.sol\":3330:3364  portfolio.tokenBalances[_tokenOut] */\n      0x00\n        /* \"contracts/PortfolioManager.sol\":3354:3363  _tokenOut */\n      dup7\n        /* \"contracts/PortfolioManager.sol\":3330:3364  portfolio.tokenBalances[_tokenOut] */\n      0xffffffffffffffffffffffffffffffffffffffff\n      and\n      0xffffffffffffffffffffffffffffffffffffffff\n      and\n      dup2\n      mstore\n      0x20\n      add\n      swap1\n      dup2\n      mstore\n      0x20\n      add\n      0x00\n      keccak256\n      0x00\n        /* \"contracts/PortfolioManager.sol\":3330:3382  portfolio.tokenBalances[_tokenOut] += amountReceived */\n      dup3\n      dup3\n      sload\n      tag_116\n      swap2\n      swap1\n      tag_83\n      jump\t// in\n    tag_116:\n      swap3\n      pop\n      pop\n      dup2\n      swap1\n      sstore\n      pop\n        /* \"contracts/PortfolioManager.sol\":3429:3438  _tokenOut */\n      dup4\n        /* \"contracts/PortfolioManager.sol\":3398:3448  TradeExecuted(_user, _tokenIn, _tokenOut, _amount) */\n      0xffffffffffffffffffffffffffffffffffffffff\n      and\n        /* \"contracts/PortfolioManager.sol\":3419:3427  _tokenIn */\n      dup6\n        /* \"contracts/PortfolioManager.sol\":3398:3448  TradeExecuted(_user, _tokenIn, _tokenOut, _amount) */\n      0xffffffffffffffffffffffffffffffffffffffff\n      and\n        /* \"contracts/PortfolioManager.sol\":3412:3417  _user */\n      dup8\n        /* \"contracts/PortfolioManager.sol\":3398:3448  TradeExecuted(_user, _tokenIn, _tokenOut, _amount) */\n      0xffffffffffffffffffffffffffffffffffffffff\n      and\n      0x7c98d1e471158166ac434c9c01540b47abb40862bbf909edb2dc73c22229a23f\n        /* \"contracts/PortfolioManager.sol\":3440:3447  _amount */\n      dup7\n        /* \"contracts/PortfolioManager.sol\":3398:3448  TradeExecuted(_user, _tokenIn, _tokenOut, _amount) */\n      mload(0x40)\n      tag_117\n      swap2\n      swap1\n      tag_53\n      jump\t// in\n    tag_117:\n      mload(0x40)\n      dup1\n      swap2\n      sub\n      swap1\n      log4\n        /* \"contracts/PortfolioManager.sol\":2554:3455  {... */\n      pop\n      pop\n        /* \"contracts/PortfolioManager.sol\":2407:3455  function executeAITrade(... */\n      pop\n      pop\n      pop\n      pop\n      jump\t// out\n        /* \"contracts/PortfolioManager.sol\":922:973  mapping(address => Portfolio) public userPortfolios */\n    tag_45:\n      mstore(0x20, 0x00)\n      dup1\n      0x00\n      mstore\n      keccak256(0x00, 0x40)\n      0x00\n      swap2\n      pop\n      swap1\n      pop\n      dup1\n      0x00\n      add\n      sload\n      swap1\n      dup1\n      0x01\n      add\n      sload\n      swap1\n      dup1\n      0x03\n      add\n      0x00\n      swap1\n      sload\n      swap1\n      0x0100\n      exp\n      swap1\n      div\n      0xff\n      and\n      swap1\n      pop\n      dup4\n      jump\t// out\n        /* \"contracts/PortfolioManager.sol\":4226:4475  function getTokenBalance(... */\n    tag_51:\n        /* \"contracts/PortfolioManager.sol\":4327:4334  uint256 */\n      0x00\n        /* \"contracts/PortfolioManager.sol\":4354:4368  userPortfolios */\n      dup1\n        /* \"contracts/PortfolioManager.sol\":4354:4375  userPortfolios[_user] */\n      0x00\n        /* \"contracts/PortfolioManager.sol\":4369:4374  _user */\n      dup5\n        /* \"contracts/PortfolioManager.sol\":4354:4375  userPortfolios[_user] */\n      0xffffffffffffffffffffffffffffffffffffffff\n      and\n      0xffffffffffffffffffffffffffffffffffffffff\n      and\n      dup2\n      mstore\n      0x20\n      add\n      swap1\n      dup2\n      mstore\n      0x20\n      add\n      0x00\n      keccak256\n        /* \"contracts/PortfolioManager.sol\":4354:4384  userPortfolios[_user].isActive */\n      0x03\n      add\n      0x00\n      swap1\n      sload\n      swap1\n      0x0100\n      exp\n      swap1\n      div\n      0xff\n      and\n        /* \"contracts/PortfolioManager.sol\":4346:4408  require(userPortfolios[_user].isActive, \"No active portfolio\") */\n      tag_119\n      jumpi\n      mload(0x40)\n      0x08c379a000000000000000000000000000000000000000000000000000000000\n      dup2\n      mstore\n      0x04\n      add\n      tag_120\n      swap1\n      tag_75\n      jump\t// in\n    tag_120:\n      mload(0x40)\n      dup1\n      swap2\n      sub\n      swap1\n      revert\n    tag_119:\n        /* \"contracts/PortfolioManager.sol\":4425:4439  userPortfolios */\n      0x00\n        /* \"contracts/PortfolioManager.sol\":4425:4446  userPortfolios[_user] */\n      dup1\n        /* \"contracts/PortfolioManager.sol\":4440:4445  _user */\n      dup5\n        /* \"contracts/PortfolioManager.sol\":4425:4446  userPortfolios[_user] */\n      0xffffffffffffffffffffffffffffffffffffffff\n      and\n      0xffffffffffffffffffffffffffffffffffffffff\n      and\n      dup2\n      mstore\n      0x20\n      add\n      swap1\n      dup2\n      mstore\n      0x20\n      add\n      0x00\n      keccak256\n        /* \"contracts/PortfolioManager.sol\":4425:4460  userPortfolios[_user].tokenBalances */\n      0x02\n      add\n        /* \"contracts/PortfolioManager.sol\":4425:4468  userPortfolios[_user].tokenBalances[_token] */\n      0x00\n        /* \"contracts/PortfolioManager.sol\":4461:4467  _token */\n      dup4\n        /* \"contracts/PortfolioManager.sol\":4425:4468  userPortfolios[_user].tokenBalances[_token] */\n      0xffffffffffffffffffffffffffffffffffffffff\n      and\n      0xffffffffffffffffffffffffffffffffffffffff\n      and\n      dup2\n      mstore\n      0x20\n      add\n      swap1\n      dup2\n      mstore\n      0x20\n      add\n      0x00\n      keccak256\n      sload\n        /* \"contracts/PortfolioManager.sol\":4418:4468  return userPortfolios[_user].tokenBalances[_token] */\n      swap1\n      pop\n        /* \"contracts/PortfolioManager.sol\":4226:4475  function getTokenBalance(... */\n      swap3\n      swap2\n      pop\n      pop\n      jump\t// out\n        /* \"contracts/PortfolioManager.sol\":2125:2257  function addToken(address _token) external onlyOwner {... */\n    tag_56:\n        /* \"contracts/PortfolioManager.sol\":1556:1561  owner */\n      0x02\n      0x00\n      swap1\n      sload\n      swap1\n      0x0100\n      exp\n      swap1\n      div\n      0xffffffffffffffffffffffffffffffffffffffff\n      and\n        /* \"contracts/PortfolioManager.sol\":1542:1561  msg.sender == owner */\n      0xffffffffffffffffffffffffffffffffffffffff\n      and\n        /* \"contracts/PortfolioManager.sol\":1542:1552  msg.sender */\n      caller\n        /* \"contracts/PortfolioManager.sol\":1542:1561  msg.sender == owner */\n      0xffffffffffffffffffffffffffffffffffffffff\n      and\n      eq\n        /* \"contracts/PortfolioManager.sol\":1534:1575  require(msg.sender == owner, \"Not owner\") */\n      tag_122\n      jumpi\n      mload(0x40)\n      0x08c379a000000000000000000000000000000000000000000000000000000000\n      dup2\n      mstore\n      0x04\n      add\n      tag_123\n      swap1\n      tag_87\n      jump\t// in\n    tag_123:\n      mload(0x40)\n      dup1\n      swap2\n      sub\n      swap1\n      revert\n    tag_122:\n        /* \"contracts/PortfolioManager.sol\":2213:2217  true */\n      0x01\n        /* \"contracts/PortfolioManager.sol\":2188:2202  approvedTokens */\n      dup1\n        /* \"contracts/PortfolioManager.sol\":2188:2210  approvedTokens[_token] */\n      0x00\n        /* \"contracts/PortfolioManager.sol\":2203:2209  _token */\n      dup4\n        /* \"contracts/PortfolioManager.sol\":2188:2210  approvedTokens[_token] */\n      0xffffffffffffffffffffffffffffffffffffffff\n      and\n      0xffffffffffffffffffffffffffffffffffffffff\n      and\n      dup2\n      mstore\n      0x20\n      add\n      swap1\n      dup2\n      mstore\n      0x20\n      add\n      0x00\n      keccak256\n      0x00\n        /* \"contracts/PortfolioManager.sol\":2188:2217  approvedTokens[_token] = true */\n      0x0100\n      exp\n      dup2\n      sload\n      dup2\n      0xff\n      mul\n      not\n      and\n      swap1\n      dup4\n      iszero\n      iszero\n      mul\n      or\n      swap1\n      sstore\n      pop\n        /* \"contracts/PortfolioManager.sol\":2243:2249  _token */\n      dup1\n        /* \"contracts/PortfolioManager.sol\":2232:2250  TokenAdded(_token) */\n      0xffffffffffffffffffffffffffffffffffffffff\n      and\n      0x784c8f4dbf0ffedd6e72c76501c545a70f8b203b30a26ce542bf92ba87c248a4\n      mload(0x40)\n      mload(0x40)\n      dup1\n      swap2\n      sub\n      swap1\n      log2\n        /* \"contracts/PortfolioManager.sol\":2125:2257  function addToken(address _token) external onlyOwner {... */\n      pop\n      jump\t// out\n        /* \"contracts/PortfolioManager.sol\":3816:4220  function withdraw(address _token, uint256 _amount) external {... */\n    tag_59:\n        /* \"contracts/PortfolioManager.sol\":3894:3908  userPortfolios */\n      0x00\n        /* \"contracts/PortfolioManager.sol\":3894:3920  userPortfolios[msg.sender] */\n      dup1\n        /* \"contracts/PortfolioManager.sol\":3909:3919  msg.sender */\n      caller\n        /* \"contracts/PortfolioManager.sol\":3894:3920  userPortfolios[msg.sender] */\n      0xffffffffffffffffffffffffffffffffffffffff\n      and\n      0xffffffffffffffffffffffffffffffffffffffff\n      and\n      dup2\n      mstore\n      0x20\n      add\n      swap1\n      dup2\n      mstore\n      0x20\n      add\n      0x00\n      keccak256\n        /* \"contracts/PortfolioManager.sol\":3894:3929  userPortfolios[msg.sender].isActive */\n      0x03\n      add\n      0x00\n      swap1\n      sload\n      swap1\n      0x0100\n      exp\n      swap1\n      div\n      0xff\n      and\n        /* \"contracts/PortfolioManager.sol\":3886:3953  require(userPortfolios[msg.sender].isActive, \"No active portfolio\") */\n      tag_126\n      jumpi\n      mload(0x40)\n      0x08c379a000000000000000000000000000000000000000000000000000000000\n      dup2\n      mstore\n      0x04\n      add\n      tag_127\n      swap1\n      tag_75\n      jump\t// in\n    tag_127:\n      mload(0x40)\n      dup1\n      swap2\n      sub\n      swap1\n      revert\n    tag_126:\n        /* \"contracts/PortfolioManager.sol\":4036:4043  _amount */\n      dup1\n        /* \"contracts/PortfolioManager.sol\":3984:3998  userPortfolios */\n      0x00\n        /* \"contracts/PortfolioManager.sol\":3984:4010  userPortfolios[msg.sender] */\n      dup1\n        /* \"contracts/PortfolioManager.sol\":3999:4009  msg.sender */\n      caller\n        /* \"contracts/PortfolioManager.sol\":3984:4010  userPortfolios[msg.sender] */\n      0xffffffffffffffffffffffffffffffffffffffff\n      and\n      0xffffffffffffffffffffffffffffffffffffffff\n      and\n      dup2\n      mstore\n      0x20\n      add\n      swap1\n      dup2\n      mstore\n      0x20\n      add\n      0x00\n      keccak256\n        /* \"contracts/PortfolioManager.sol\":3984:4024  userPortfolios[msg.sender].tokenBalances */\n      0x02\n      add\n        /* \"contracts/PortfolioManager.sol\":3984:4032  userPortfolios[msg.sender].tokenBalances[_token] */\n      0x00\n        /* \"contracts/PortfolioManager.sol\":4025:4031  _token */\n      dup5\n        /* \"contracts/PortfolioManager.sol\":3984:4032  userPortfolios[msg.sender].tokenBalances[_token] */\n      0xffffffffffffffffffffffffffffffffffffffff\n      and\n      0xffffffffffffffffffffffffffffffffffffffff\n      and\n      dup2\n      mstore\n      0x20\n      add\n      swap1\n      dup2\n      mstore\n      0x20\n      add\n      0x00\n      keccak256\n      sload\n        /* \"contracts/PortfolioManager.sol\":3984:4043  userPortfolios[msg.sender].tokenBalances[_token] >= _amount */\n      lt\n      iszero\n        /* \"contracts/PortfolioManager.sol\":3963:4089  require(... */\n      tag_128\n      jumpi\n      mload(0x40)\n      0x08c379a000000000000000000000000000000000000000000000000000000000\n      dup2\n      mstore\n      0x04\n      add\n      tag_129\n      swap1\n      tag_102\n      jump\t// in\n    tag_129:\n      mload(0x40)\n      dup1\n      swap2\n      sub\n      swap1\n      revert\n    tag_128:\n        /* \"contracts/PortfolioManager.sol\":4152:4159  _amount */\n      dup1\n        /* \"contracts/PortfolioManager.sol\":4100:4114  userPortfolios */\n      0x00\n        /* \"contracts/PortfolioManager.sol\":4100:4126  userPortfolios[msg.sender] */\n      dup1\n        /* \"contracts/PortfolioManager.sol\":4115:4125  msg.sender */\n      caller\n        /* \"contracts/PortfolioManager.sol\":4100:4126  userPortfolios[msg.sender] */\n      0xffffffffffffffffffffffffffffffffffffffff\n      and\n      0xffffffffffffffffffffffffffffffffffffffff\n      and\n      dup2\n      mstore\n      0x20\n      add\n      swap1\n      dup2\n      mstore\n      0x20\n      add\n      0x00\n      keccak256\n        /* \"contracts/PortfolioManager.sol\":4100:4140  userPortfolios[msg.sender].tokenBalances */\n      0x02\n      add\n        /* \"contracts/PortfolioManager.sol\":4100:4148  userPortfolios[msg.sender].tokenBalances[_token] */\n      0x00\n        /* \"contracts/PortfolioManager.sol\":4141:4147  _token */\n      dup5\n        /* \"contracts/PortfolioManager.sol\":4100:4148  userPortfolios[msg.sender].tokenBalances[_token] */\n      0xffffffffffffffffffffffffffffffffffffffff\n      and\n      0xffffffffffffffffffffffffffffffffffffffff\n      and\n      dup2\n      mstore\n      0x20\n      add\n      swap1\n      dup2\n      mstore\n      0x20\n      add\n      0x00\n      keccak256\n      0x00\n        /* \"contracts/PortfolioManager.sol\":4100:4159  userPortfolios[msg.sender].tokenBalances[_token] -= _amount */\n      dup3\n      dup3\n      sload\n      tag_130\n      swap2\n      swap1\n      tag_109\n      jump\t// in\n    tag_130:\n      swap3\n      pop\n      pop\n      dup2\n      swap1\n      sstore\n      pop\n        /* \"contracts/PortfolioManager.sol\":4176:4182  _token */\n      dup2\n        /* \"contracts/PortfolioManager.sol\":4169:4192  IERC20(_token).transfer */\n      0xffffffffffffffffffffffffffffffffffffffff\n      and\n      0xa9059cbb\n        /* \"contracts/PortfolioManager.sol\":4193:4203  msg.sender */\n      caller\n        /* \"contracts/PortfolioManager.sol\":4205:4212  _amount */\n      dup4\n        /* \"contracts/PortfolioManager.sol\":4169:4213  IERC20(_token).transfer(msg.sender, _amount) */\n      mload(0x40)\n      dup4\n      0xffffffff\n      and\n      0xe0\n      shl\n      dup2\n      mstore\n      0x04\n      add\n      tag_131\n      swap3\n      swap2\n      swap1\n      tag_104\n      jump\t// in\n    tag_131:\n      0x20\n      mload(0x40)\n      dup1\n      dup4\n      sub\n      dup2\n      0x00\n      dup8\n      gas\n      call\n      iszero\n      dup1\n      iszero\n      tag_133\n      jumpi\n      returndatasize\n      0x00\n      dup1\n      returndatacopy\n      revert(0x00, returndatasize)\n    tag_133:\n      pop\n      pop\n      pop\n      pop\n      mload(0x40)\n      returndatasize\n      not(0x1f)\n      0x1f\n      dup3\n      add\n      and\n      dup3\n      add\n      dup1\n      0x40\n      mstore\n      pop\n      dup2\n      add\n      swap1\n      tag_134\n      swap2\n      swap1\n      tag_81\n      jump\t// in\n    tag_134:\n      pop\n        /* \"contracts/PortfolioManager.sol\":3816:4220  function withdraw(address _token, uint256 _amount) external {... */\n      pop\n      pop\n      jump\t// out\n        /* \"#utility.yul\":7:133   */\n    tag_135:\n        /* \"#utility.yul\":44:51   */\n      0x00\n        /* \"#utility.yul\":84:126   */\n      0xffffffffffffffffffffffffffffffffffffffff\n        /* \"#utility.yul\":77:82   */\n      dup3\n        /* \"#utility.yul\":73:127   */\n      and\n        /* \"#utility.yul\":62:127   */\n      swap1\n      pop\n        /* \"#utility.yul\":7:133   */\n      swap2\n      swap1\n      pop\n      jump\t// out\n        /* \"#utility.yul\":139:235   */\n    tag_136:\n        /* \"#utility.yul\":176:183   */\n      0x00\n        /* \"#utility.yul\":205:229   */\n      tag_176\n        /* \"#utility.yul\":223:228   */\n      dup3\n        /* \"#utility.yul\":205:229   */\n      tag_135\n      jump\t// in\n    tag_176:\n        /* \"#utility.yul\":194:229   */\n      swap1\n      pop\n        /* \"#utility.yul\":139:235   */\n      swap2\n      swap1\n      pop\n      jump\t// out\n        /* \"#utility.yul\":241:359   */\n    tag_137:\n        /* \"#utility.yul\":328:352   */\n      tag_178\n        /* \"#utility.yul\":346:351   */\n      dup2\n        /* \"#utility.yul\":328:352   */\n      tag_136\n      jump\t// in\n    tag_178:\n        /* \"#utility.yul\":323:326   */\n      dup3\n        /* \"#utility.yul\":316:353   */\n      mstore\n        /* \"#utility.yul\":241:359   */\n      pop\n      pop\n      jump\t// out\n        /* \"#utility.yul\":365:587   */\n    tag_18:\n        /* \"#utility.yul\":458:462   */\n      0x00\n        /* \"#utility.yul\":496:498   */\n      0x20\n        /* \"#utility.yul\":485:494   */\n      dup3\n        /* \"#utility.yul\":481:499   */\n      add\n        /* \"#utility.yul\":473:499   */\n      swap1\n      pop\n        /* \"#utility.yul\":509:580   */\n      tag_180\n        /* \"#utility.yul\":577:578   */\n      0x00\n        /* \"#utility.yul\":566:575   */\n      dup4\n        /* \"#utility.yul\":562:579   */\n      add\n        /* \"#utility.yul\":553:559   */\n      dup5\n        /* \"#utility.yul\":509:580   */\n      tag_137\n      jump\t// in\n    tag_180:\n        /* \"#utility.yul\":365:587   */\n      swap3\n      swap2\n      pop\n      pop\n      jump\t// out\n        /* \"#utility.yul\":674:791   */\n    tag_139:\n        /* \"#utility.yul\":783:784   */\n      0x00\n        /* \"#utility.yul\":780:781   */\n      dup1\n        /* \"#utility.yul\":773:785   */\n      revert\n        /* \"#utility.yul\":920:997   */\n    tag_141:\n        /* \"#utility.yul\":957:964   */\n      0x00\n        /* \"#utility.yul\":986:991   */\n      dup2\n        /* \"#utility.yul\":975:991   */\n      swap1\n      pop\n        /* \"#utility.yul\":920:997   */\n      swap2\n      swap1\n      pop\n      jump\t// out\n        /* \"#utility.yul\":1003:1125   */\n    tag_142:\n        /* \"#utility.yul\":1076:1100   */\n      tag_186\n        /* \"#utility.yul\":1094:1099   */\n      dup2\n        /* \"#utility.yul\":1076:1100   */\n      tag_141\n      jump\t// in\n    tag_186:\n        /* \"#utility.yul\":1069:1074   */\n      dup2\n        /* \"#utility.yul\":1066:1101   */\n      eq\n        /* \"#utility.yul\":1056:1119   */\n      tag_187\n      jumpi\n        /* \"#utility.yul\":1115:1116   */\n      0x00\n        /* \"#utility.yul\":1112:1113   */\n      dup1\n        /* \"#utility.yul\":1105:1117   */\n      revert\n        /* \"#utility.yul\":1056:1119   */\n    tag_187:\n        /* \"#utility.yul\":1003:1125   */\n      pop\n      jump\t// out\n        /* \"#utility.yul\":1131:1270   */\n    tag_143:\n        /* \"#utility.yul\":1177:1182   */\n      0x00\n        /* \"#utility.yul\":1215:1221   */\n      dup2\n        /* \"#utility.yul\":1202:1222   */\n      calldataload\n        /* \"#utility.yul\":1193:1222   */\n      swap1\n      pop\n        /* \"#utility.yul\":1231:1264   */\n      tag_189\n        /* \"#utility.yul\":1258:1263   */\n      dup2\n        /* \"#utility.yul\":1231:1264   */\n      tag_142\n      jump\t// in\n    tag_189:\n        /* \"#utility.yul\":1131:1270   */\n      swap3\n      swap2\n      pop\n      pop\n      jump\t// out\n        /* \"#utility.yul\":1276:1605   */\n    tag_21:\n        /* \"#utility.yul\":1335:1341   */\n      0x00\n        /* \"#utility.yul\":1384:1386   */\n      0x20\n        /* \"#utility.yul\":1372:1381   */\n      dup3\n        /* \"#utility.yul\":1363:1370   */\n      dup5\n        /* \"#utility.yul\":1359:1382   */\n      sub\n        /* \"#utility.yul\":1355:1387   */\n      slt\n        /* \"#utility.yul\":1352:1471   */\n      iszero\n      tag_191\n      jumpi\n        /* \"#utility.yul\":1390:1469   */\n      tag_192\n      tag_139\n      jump\t// in\n    tag_192:\n        /* \"#utility.yul\":1352:1471   */\n    tag_191:\n        /* \"#utility.yul\":1510:1511   */\n      0x00\n        /* \"#utility.yul\":1535:1588   */\n      tag_193\n        /* \"#utility.yul\":1580:1587   */\n      dup5\n        /* \"#utility.yul\":1571:1577   */\n      dup3\n        /* \"#utility.yul\":1560:1569   */\n      dup6\n        /* \"#utility.yul\":1556:1578   */\n      add\n        /* \"#utility.yul\":1535:1588   */\n      tag_143\n      jump\t// in\n    tag_193:\n        /* \"#utility.yul\":1525:1588   */\n      swap2\n      pop\n        /* \"#utility.yul\":1481:1598   */\n      pop\n        /* \"#utility.yul\":1276:1605   */\n      swap3\n      swap2\n      pop\n      pop\n      jump\t// out\n        /* \"#utility.yul\":1611:1733   */\n    tag_144:\n        /* \"#utility.yul\":1684:1708   */\n      tag_195\n        /* \"#utility.yul\":1702:1707   */\n      dup2\n        /* \"#utility.yul\":1684:1708   */\n      tag_136\n      jump\t// in\n    tag_195:\n        /* \"#utility.yul\":1677:1682   */\n      dup2\n        /* \"#utility.yul\":1674:1709   */\n      eq\n        /* \"#utility.yul\":1664:1727   */\n      tag_196\n      jumpi\n        /* \"#utility.yul\":1723:1724   */\n      0x00\n        /* \"#utility.yul\":1720:1721   */\n      dup1\n        /* \"#utility.yul\":1713:1725   */\n      revert\n        /* \"#utility.yul\":1664:1727   */\n    tag_196:\n        /* \"#utility.yul\":1611:1733   */\n      pop\n      jump\t// out\n        /* \"#utility.yul\":1739:1878   */\n    tag_145:\n        /* \"#utility.yul\":1785:1790   */\n      0x00\n        /* \"#utility.yul\":1823:1829   */\n      dup2\n        /* \"#utility.yul\":1810:1830   */\n      calldataload\n        /* \"#utility.yul\":1801:1830   */\n      swap1\n      pop\n        /* \"#utility.yul\":1839:1872   */\n      tag_198\n        /* \"#utility.yul\":1866:1871   */\n      dup2\n        /* \"#utility.yul\":1839:1872   */\n      tag_144\n      jump\t// in\n    tag_198:\n        /* \"#utility.yul\":1739:1878   */\n      swap3\n      swap2\n      pop\n      pop\n      jump\t// out\n        /* \"#utility.yul\":1884:2358   */\n    tag_25:\n        /* \"#utility.yul\":1952:1958   */\n      0x00\n        /* \"#utility.yul\":1960:1966   */\n      dup1\n        /* \"#utility.yul\":2009:2011   */\n      0x40\n        /* \"#utility.yul\":1997:2006   */\n      dup4\n        /* \"#utility.yul\":1988:1995   */\n      dup6\n        /* \"#utility.yul\":1984:2007   */\n      sub\n        /* \"#utility.yul\":1980:2012   */\n      slt\n        /* \"#utility.yul\":1977:2096   */\n      iszero\n      tag_200\n      jumpi\n        /* \"#utility.yul\":2015:2094   */\n      tag_201\n      tag_139\n      jump\t// in\n    tag_201:\n        /* \"#utility.yul\":1977:2096   */\n    tag_200:\n        /* \"#utility.yul\":2135:2136   */\n      0x00\n        /* \"#utility.yul\":2160:2213   */\n      tag_202\n        /* \"#utility.yul\":2205:2212   */\n      dup6\n        /* \"#utility.yul\":2196:2202   */\n      dup3\n        /* \"#utility.yul\":2185:2194   */\n      dup7\n        /* \"#utility.yul\":2181:2203   */\n      add\n        /* \"#utility.yul\":2160:2213   */\n      tag_145\n      jump\t// in\n    tag_202:\n        /* \"#utility.yul\":2150:2213   */\n      swap3\n      pop\n        /* \"#utility.yul\":2106:2223   */\n      pop\n        /* \"#utility.yul\":2262:2264   */\n      0x20\n        /* \"#utility.yul\":2288:2341   */\n      tag_203\n        /* \"#utility.yul\":2333:2340   */\n      dup6\n        /* \"#utility.yul\":2324:2330   */\n      dup3\n        /* \"#utility.yul\":2313:2322   */\n      dup7\n        /* \"#utility.yul\":2309:2331   */\n      add\n        /* \"#utility.yul\":2288:2341   */\n      tag_143\n      jump\t// in\n    tag_203:\n        /* \"#utility.yul\":2278:2341   */\n      swap2\n      pop\n        /* \"#utility.yul\":2233:2351   */\n      pop\n        /* \"#utility.yul\":1884:2358   */\n      swap3\n      pop\n      swap3\n      swap1\n      pop\n      jump\t// out\n        /* \"#utility.yul\":2364:2693   */\n    tag_29:\n        /* \"#utility.yul\":2423:2429   */\n      0x00\n        /* \"#utility.yul\":2472:2474   */\n      0x20\n        /* \"#utility.yul\":2460:2469   */\n      dup3\n        /* \"#utility.yul\":2451:2458   */\n      dup5\n        /* \"#utility.yul\":2447:2470   */\n      sub\n        /* \"#utility.yul\":2443:2475   */\n      slt\n        /* \"#utility.yul\":2440:2559   */\n      iszero\n      tag_205\n      jumpi\n        /* \"#utility.yul\":2478:2557   */\n      tag_206\n      tag_139\n      jump\t// in\n    tag_206:\n        /* \"#utility.yul\":2440:2559   */\n    tag_205:\n        /* \"#utility.yul\":2598:2599   */\n      0x00\n        /* \"#utility.yul\":2623:2676   */\n      tag_207\n        /* \"#utility.yul\":2668:2675   */\n      dup5\n        /* \"#utility.yul\":2659:2665   */\n      dup3\n        /* \"#utility.yul\":2648:2657   */\n      dup6\n        /* \"#utility.yul\":2644:2666   */\n      add\n        /* \"#utility.yul\":2623:2676   */\n      tag_145\n      jump\t// in\n    tag_207:\n        /* \"#utility.yul\":2613:2676   */\n      swap2\n      pop\n        /* \"#utility.yul\":2569:2686   */\n      pop\n        /* \"#utility.yul\":2364:2693   */\n      swap3\n      swap2\n      pop\n      pop\n      jump\t// out\n        /* \"#utility.yul\":2699:2789   */\n    tag_146:\n        /* \"#utility.yul\":2733:2740   */\n      0x00\n        /* \"#utility.yul\":2776:2781   */\n      dup2\n        /* \"#utility.yul\":2769:2782   */\n      iszero\n        /* \"#utility.yul\":2762:2783   */\n      iszero\n        /* \"#utility.yul\":2751:2783   */\n      swap1\n      pop\n        /* \"#utility.yul\":2699:2789   */\n      swap2\n      swap1\n      pop\n      jump\t// out\n        /* \"#utility.yul\":2795:2904   */\n    tag_147:\n        /* \"#utility.yul\":2876:2897   */\n      tag_210\n        /* \"#utility.yul\":2891:2896   */\n      dup2\n        /* \"#utility.yul\":2876:2897   */\n      tag_146\n      jump\t// in\n    tag_210:\n        /* \"#utility.yul\":2871:2874   */\n      dup3\n        /* \"#utility.yul\":2864:2898   */\n      mstore\n        /* \"#utility.yul\":2795:2904   */\n      pop\n      pop\n      jump\t// out\n        /* \"#utility.yul\":2910:3120   */\n    tag_35:\n        /* \"#utility.yul\":2997:3001   */\n      0x00\n        /* \"#utility.yul\":3035:3037   */\n      0x20\n        /* \"#utility.yul\":3024:3033   */\n      dup3\n        /* \"#utility.yul\":3020:3038   */\n      add\n        /* \"#utility.yul\":3012:3038   */\n      swap1\n      pop\n        /* \"#utility.yul\":3048:3113   */\n      tag_212\n        /* \"#utility.yul\":3110:3111   */\n      0x00\n        /* \"#utility.yul\":3099:3108   */\n      dup4\n        /* \"#utility.yul\":3095:3112   */\n      add\n        /* \"#utility.yul\":3086:3092   */\n      dup5\n        /* \"#utility.yul\":3048:3113   */\n      tag_147\n      jump\t// in\n    tag_212:\n        /* \"#utility.yul\":2910:3120   */\n      swap3\n      swap2\n      pop\n      pop\n      jump\t// out\n        /* \"#utility.yul\":3126:3891   */\n    tag_41:\n        /* \"#utility.yul\":3212:3218   */\n      0x00\n        /* \"#utility.yul\":3220:3226   */\n      dup1\n        /* \"#utility.yul\":3228:3234   */\n      0x00\n        /* \"#utility.yul\":3236:3242   */\n      dup1\n        /* \"#utility.yul\":3285:3288   */\n      0x80\n        /* \"#utility.yul\":3273:3282   */\n      dup6\n        /* \"#utility.yul\":3264:3271   */\n      dup8\n        /* \"#utility.yul\":3260:3283   */\n      sub\n        /* \"#utility.yul\":3256:3289   */\n      slt\n        /* \"#utility.yul\":3253:3373   */\n      iszero\n      tag_214\n      jumpi\n        /* \"#utility.yul\":3292:3371   */\n      tag_215\n      tag_139\n      jump\t// in\n    tag_215:\n        /* \"#utility.yul\":3253:3373   */\n    tag_214:\n        /* \"#utility.yul\":3412:3413   */\n      0x00\n        /* \"#utility.yul\":3437:3490   */\n      tag_216\n        /* \"#utility.yul\":3482:3489   */\n      dup8\n        /* \"#utility.yul\":3473:3479   */\n      dup3\n        /* \"#utility.yul\":3462:3471   */\n      dup9\n        /* \"#utility.yul\":3458:3480   */\n      add\n        /* \"#utility.yul\":3437:3490   */\n      tag_145\n      jump\t// in\n    tag_216:\n        /* \"#utility.yul\":3427:3490   */\n      swap5\n      pop\n        /* \"#utility.yul\":3383:3500   */\n      pop\n        /* \"#utility.yul\":3539:3541   */\n      0x20\n        /* \"#utility.yul\":3565:3618   */\n      tag_217\n        /* \"#utility.yul\":3610:3617   */\n      dup8\n        /* \"#utility.yul\":3601:3607   */\n      dup3\n        /* \"#utility.yul\":3590:3599   */\n      dup9\n        /* \"#utility.yul\":3586:3608   */\n      add\n        /* \"#utility.yul\":3565:3618   */\n      tag_145\n      jump\t// in\n    tag_217:\n        /* \"#utility.yul\":3555:3618   */\n      swap4\n      pop\n        /* \"#utility.yul\":3510:3628   */\n      pop\n        /* \"#utility.yul\":3667:3669   */\n      0x40\n        /* \"#utility.yul\":3693:3746   */\n      tag_218\n        /* \"#utility.yul\":3738:3745   */\n      dup8\n        /* \"#utility.yul\":3729:3735   */\n      dup3\n        /* \"#utility.yul\":3718:3727   */\n      dup9\n        /* \"#utility.yul\":3714:3736   */\n      add\n        /* \"#utility.yul\":3693:3746   */\n      tag_145\n      jump\t// in\n    tag_218:\n        /* \"#utility.yul\":3683:3746   */\n      swap3\n      pop\n        /* \"#utility.yul\":3638:3756   */\n      pop\n        /* \"#utility.yul\":3795:3797   */\n      0x60\n        /* \"#utility.yul\":3821:3874   */\n      tag_219\n        /* \"#utility.yul\":3866:3873   */\n      dup8\n        /* \"#utility.yul\":3857:3863   */\n      dup3\n        /* \"#utility.yul\":3846:3855   */\n      dup9\n        /* \"#utility.yul\":3842:3864   */\n      add\n        /* \"#utility.yul\":3821:3874   */\n      tag_143\n      jump\t// in\n    tag_219:\n        /* \"#utility.yul\":3811:3874   */\n      swap2\n      pop\n        /* \"#utility.yul\":3766:3884   */\n      pop\n        /* \"#utility.yul\":3126:3891   */\n      swap3\n      swap6\n      swap2\n      swap5\n      pop\n      swap3\n      pop\n      jump\t// out\n        /* \"#utility.yul\":3897:4015   */\n    tag_148:\n        /* \"#utility.yul\":3984:4008   */\n      tag_221\n        /* \"#utility.yul\":4002:4007   */\n      dup2\n        /* \"#utility.yul\":3984:4008   */\n      tag_141\n      jump\t// in\n    tag_221:\n        /* \"#utility.yul\":3979:3982   */\n      dup3\n        /* \"#utility.yul\":3972:4009   */\n      mstore\n        /* \"#utility.yul\":3897:4015   */\n      pop\n      pop\n      jump\t// out\n        /* \"#utility.yul\":4021:4451   */\n    tag_47:\n        /* \"#utility.yul\":4164:4168   */\n      0x00\n        /* \"#utility.yul\":4202:4204   */\n      0x60\n        /* \"#utility.yul\":4191:4200   */\n      dup3\n        /* \"#utility.yul\":4187:4205   */\n      add\n        /* \"#utility.yul\":4179:4205   */\n      swap1\n      pop\n        /* \"#utility.yul\":4215:4286   */\n      tag_223\n        /* \"#utility.yul\":4283:4284   */\n      0x00\n        /* \"#utility.yul\":4272:4281   */\n      dup4\n        /* \"#utility.yul\":4268:4285   */\n      add\n        /* \"#utility.yul\":4259:4265   */\n      dup7\n        /* \"#utility.yul\":4215:4286   */\n      tag_148\n      jump\t// in\n    tag_223:\n        /* \"#utility.yul\":4296:4368   */\n      tag_224\n        /* \"#utility.yul\":4364:4366   */\n      0x20\n        /* \"#utility.yul\":4353:4362   */\n      dup4\n        /* \"#utility.yul\":4349:4367   */\n      add\n        /* \"#utility.yul\":4340:4346   */\n      dup6\n        /* \"#utility.yul\":4296:4368   */\n      tag_148\n      jump\t// in\n    tag_224:\n        /* \"#utility.yul\":4378:4444   */\n      tag_225\n        /* \"#utility.yul\":4440:4442   */\n      0x40\n        /* \"#utility.yul\":4429:4438   */\n      dup4\n        /* \"#utility.yul\":4425:4443   */\n      add\n        /* \"#utility.yul\":4416:4422   */\n      dup5\n        /* \"#utility.yul\":4378:4444   */\n      tag_147\n      jump\t// in\n    tag_225:\n        /* \"#utility.yul\":4021:4451   */\n      swap5\n      swap4\n      pop\n      pop\n      pop\n      pop\n      jump\t// out\n        /* \"#utility.yul\":4457:4931   */\n    tag_50:\n        /* \"#utility.yul\":4525:4531   */\n      0x00\n        /* \"#utility.yul\":4533:4539   */\n      dup1\n        /* \"#utility.yul\":4582:4584   */\n      0x40\n        /* \"#utility.yul\":4570:4579   */\n      dup4\n        /* \"#utility.yul\":4561:4568   */\n      dup6\n        /* \"#utility.yul\":4557:4580   */\n      sub\n        /* \"#utility.yul\":4553:4585   */\n      slt\n        /* \"#utility.yul\":4550:4669   */\n      iszero\n      tag_227\n      jumpi\n        /* \"#utility.yul\":4588:4667   */\n      tag_228\n      tag_139\n      jump\t// in\n    tag_228:\n        /* \"#utility.yul\":4550:4669   */\n    tag_227:\n        /* \"#utility.yul\":4708:4709   */\n      0x00\n        /* \"#utility.yul\":4733:4786   */\n      tag_229\n        /* \"#utility.yul\":4778:4785   */\n      dup6\n        /* \"#utility.yul\":4769:4775   */\n      dup3\n        /* \"#utility.yul\":4758:4767   */\n      dup7\n        /* \"#utility.yul\":4754:4776   */\n      add\n        /* \"#utility.yul\":4733:4786   */\n      tag_145\n      jump\t// in\n    tag_229:\n        /* \"#utility.yul\":4723:4786   */\n      swap3\n      pop\n        /* \"#utility.yul\":4679:4796   */\n      pop\n        /* \"#utility.yul\":4835:4837   */\n      0x20\n        /* \"#utility.yul\":4861:4914   */\n      tag_230\n        /* \"#utility.yul\":4906:4913   */\n      dup6\n        /* \"#utility.yul\":4897:4903   */\n      dup3\n        /* \"#utility.yul\":4886:4895   */\n      dup7\n        /* \"#utility.yul\":4882:4904   */\n      add\n        /* \"#utility.yul\":4861:4914   */\n      tag_145\n      jump\t// in\n    tag_230:\n        /* \"#utility.yul\":4851:4914   */\n      swap2\n      pop\n        /* \"#utility.yul\":4806:4924   */\n      pop\n        /* \"#utility.yul\":4457:4931   */\n      swap3\n      pop\n      swap3\n      swap1\n      pop\n      jump\t// out\n        /* \"#utility.yul\":4937:5159   */\n    tag_53:\n        /* \"#utility.yul\":5030:5034   */\n      0x00\n        /* \"#utility.yul\":5068:5070   */\n      0x20\n        /* \"#utility.yul\":5057:5066   */\n      dup3\n        /* \"#utility.yul\":5053:5071   */\n      add\n        /* \"#utility.yul\":5045:5071   */\n      swap1\n      pop\n        /* \"#utility.yul\":5081:5152   */\n      tag_232\n        /* \"#utility.yul\":5149:5150   */\n      0x00\n        /* \"#utility.yul\":5138:5147   */\n      dup4\n        /* \"#utility.yul\":5134:5151   */\n      add\n        /* \"#utility.yul\":5125:5131   */\n      dup5\n        /* \"#utility.yul\":5081:5152   */\n      tag_148\n      jump\t// in\n    tag_232:\n        /* \"#utility.yul\":4937:5159   */\n      swap3\n      swap2\n      pop\n      pop\n      jump\t// out\n        /* \"#utility.yul\":5165:5334   */\n    tag_149:\n        /* \"#utility.yul\":5249:5260   */\n      0x00\n        /* \"#utility.yul\":5283:5289   */\n      dup3\n        /* \"#utility.yul\":5278:5281   */\n      dup3\n        /* \"#utility.yul\":5271:5290   */\n      mstore\n        /* \"#utility.yul\":5323:5327   */\n      0x20\n        /* \"#utility.yul\":5318:5321   */\n      dup3\n        /* \"#utility.yul\":5314:5328   */\n      add\n        /* \"#utility.yul\":5299:5328   */\n      swap1\n      pop\n        /* \"#utility.yul\":5165:5334   */\n      swap3\n      swap2\n      pop\n      pop\n      jump\t// out\n        /* \"#utility.yul\":5340:5508   */\n    tag_150:\n        /* \"#utility.yul\":5480:5500   */\n      0x496e76616c6964207269736b206c6576656c0000000000000000000000000000\n        /* \"#utility.yul\":5476:5477   */\n      0x00\n        /* \"#utility.yul\":5468:5474   */\n      dup3\n        /* \"#utility.yul\":5464:5478   */\n      add\n        /* \"#utility.yul\":5457:5501   */\n      mstore\n        /* \"#utility.yul\":5340:5508   */\n      pop\n      jump\t// out\n        /* \"#utility.yul\":5514:5880   */\n    tag_151:\n        /* \"#utility.yul\":5656:5659   */\n      0x00\n        /* \"#utility.yul\":5677:5744   */\n      tag_236\n        /* \"#utility.yul\":5741:5743   */\n      0x12\n        /* \"#utility.yul\":5736:5739   */\n      dup4\n        /* \"#utility.yul\":5677:5744   */\n      tag_149\n      jump\t// in\n    tag_236:\n        /* \"#utility.yul\":5670:5744   */\n      swap2\n      pop\n        /* \"#utility.yul\":5753:5846   */\n      tag_237\n        /* \"#utility.yul\":5842:5845   */\n      dup3\n        /* \"#utility.yul\":5753:5846   */\n      tag_150\n      jump\t// in\n    tag_237:\n        /* \"#utility.yul\":5871:5873   */\n      0x20\n        /* \"#utility.yul\":5866:5869   */\n      dup3\n        /* \"#utility.yul\":5862:5874   */\n      add\n        /* \"#utility.yul\":5855:5874   */\n      swap1\n      pop\n        /* \"#utility.yul\":5514:5880   */\n      swap2\n      swap1\n      pop\n      jump\t// out\n        /* \"#utility.yul\":5886:6305   */\n    tag_64:\n        /* \"#utility.yul\":6052:6056   */\n      0x00\n        /* \"#utility.yul\":6090:6092   */\n      0x20\n        /* \"#utility.yul\":6079:6088   */\n      dup3\n        /* \"#utility.yul\":6075:6093   */\n      add\n        /* \"#utility.yul\":6067:6093   */\n      swap1\n      pop\n        /* \"#utility.yul\":6139:6148   */\n      dup2\n        /* \"#utility.yul\":6133:6137   */\n      dup2\n        /* \"#utility.yul\":6129:6149   */\n      sub\n        /* \"#utility.yul\":6125:6126   */\n      0x00\n        /* \"#utility.yul\":6114:6123   */\n      dup4\n        /* \"#utility.yul\":6110:6127   */\n      add\n        /* \"#utility.yul\":6103:6150   */\n      mstore\n        /* \"#utility.yul\":6167:6298   */\n      tag_239\n        /* \"#utility.yul\":6293:6297   */\n      dup2\n        /* \"#utility.yul\":6167:6298   */\n      tag_151\n      jump\t// in\n    tag_239:\n        /* \"#utility.yul\":6159:6298   */\n      swap1\n      pop\n        /* \"#utility.yul\":5886:6305   */\n      swap2\n      swap1\n      pop\n      jump\t// out\n        /* \"#utility.yul\":6311:6477   */\n    tag_152:\n        /* \"#utility.yul\":6451:6469   */\n      0x506f7274666f6c696f2065786973747300000000000000000000000000000000\n        /* \"#utility.yul\":6447:6448   */\n      0x00\n        /* \"#utility.yul\":6439:6445   */\n      dup3\n        /* \"#utility.yul\":6435:6449   */\n      add\n        /* \"#utility.yul\":6428:6470   */\n      mstore\n        /* \"#utility.yul\":6311:6477   */\n      pop\n      jump\t// out\n        /* \"#utility.yul\":6483:6849   */\n    tag_153:\n        /* \"#utility.yul\":6625:6628   */\n      0x00\n        /* \"#utility.yul\":6646:6713   */\n      tag_242\n        /* \"#utility.yul\":6710:6712   */\n      0x10\n        /* \"#utility.yul\":6705:6708   */\n      dup4\n        /* \"#utility.yul\":6646:6713   */\n      tag_149\n      jump\t// in\n    tag_242:\n        /* \"#utility.yul\":6639:6713   */\n      swap2\n      pop\n        /* \"#utility.yul\":6722:6815   */\n      tag_243\n        /* \"#utility.yul\":6811:6814   */\n      dup3\n        /* \"#utility.yul\":6722:6815   */\n      tag_152\n      jump\t// in\n    tag_243:\n        /* \"#utility.yul\":6840:6842   */\n      0x20\n        /* \"#utility.yul\":6835:6838   */\n      dup3\n        /* \"#utility.yul\":6831:6843   */\n      add\n        /* \"#utility.yul\":6824:6843   */\n      swap1\n      pop\n        /* \"#utility.yul\":6483:6849   */\n      swap2\n      swap1\n      pop\n      jump\t// out\n        /* \"#utility.yul\":6855:7274   */\n    tag_67:\n        /* \"#utility.yul\":7021:7025   */\n      0x00\n        /* \"#utility.yul\":7059:7061   */\n      0x20\n        /* \"#utility.yul\":7048:7057   */\n      dup3\n        /* \"#utility.yul\":7044:7062   */\n      add\n        /* \"#utility.yul\":7036:7062   */\n      swap1\n      pop\n        /* \"#utility.yul\":7108:7117   */\n      dup2\n        /* \"#utility.yul\":7102:7106   */\n      dup2\n        /* \"#utility.yul\":7098:7118   */\n      sub\n        /* \"#utility.yul\":7094:7095   */\n      0x00\n        /* \"#utility.yul\":7083:7092   */\n      dup4\n        /* \"#utility.yul\":7079:7096   */\n      add\n        /* \"#utility.yul\":7072:7119   */\n      mstore\n        /* \"#utility.yul\":7136:7267   */\n      tag_245\n        /* \"#utility.yul\":7262:7266   */\n      dup2\n        /* \"#utility.yul\":7136:7267   */\n      tag_153\n      jump\t// in\n    tag_245:\n        /* \"#utility.yul\":7128:7267   */\n      swap1\n      pop\n        /* \"#utility.yul\":6855:7274   */\n      swap2\n      swap1\n      pop\n      jump\t// out\n        /* \"#utility.yul\":7280:7448   */\n    tag_154:\n        /* \"#utility.yul\":7420:7440   */\n      0x546f6b656e206e6f7420617070726f7665640000000000000000000000000000\n        /* \"#utility.yul\":7416:7417   */\n      0x00\n        /* \"#utility.yul\":7408:7414   */\n      dup3\n        /* \"#utility.yul\":7404:7418   */\n      add\n        /* \"#utility.yul\":7397:7441   */\n      mstore\n        /* \"#utility.yul\":7280:7448   */\n      pop\n      jump\t// out\n        /* \"#utility.yul\":7454:7820   */\n    tag_155:\n        /* \"#utility.yul\":7596:7599   */\n      0x00\n        /* \"#utility.yul\":7617:7684   */\n      tag_248\n        /* \"#utility.yul\":7681:7683   */\n      0x12\n        /* \"#utility.yul\":7676:7679   */\n      dup4\n        /* \"#utility.yul\":7617:7684   */\n      tag_149\n      jump\t// in\n    tag_248:\n        /* \"#utility.yul\":7610:7684   */\n      swap2\n      pop\n        /* \"#utility.yul\":7693:7786   */\n      tag_249\n        /* \"#utility.yul\":7782:7785   */\n      dup3\n        /* \"#utility.yul\":7693:7786   */\n      tag_154\n      jump\t// in\n    tag_249:\n        /* \"#utility.yul\":7811:7813   */\n      0x20\n        /* \"#utility.yul\":7806:7809   */\n      dup3\n        /* \"#utility.yul\":7802:7814   */\n      add\n        /* \"#utility.yul\":7795:7814   */\n      swap1\n      pop\n        /* \"#utility.yul\":7454:7820   */\n      swap2\n      swap1\n      pop\n      jump\t// out\n        /* \"#utility.yul\":7826:8245   */\n    tag_72:\n        /* \"#utility.yul\":7992:7996   */\n      0x00\n        /* \"#utility.yul\":8030:8032   */\n      0x20\n        /* \"#utility.yul\":8019:8028   */\n      dup3\n        /* \"#utility.yul\":8015:8033   */\n      add\n        /* \"#utility.yul\":8007:8033   */\n      swap1\n      pop\n        /* \"#utility.yul\":8079:8088   */\n      dup2\n        /* \"#utility.yul\":8073:8077   */\n      dup2\n        /* \"#utility.yul\":8069:8089   */\n      sub\n        /* \"#utility.yul\":8065:8066   */\n      0x00\n        /* \"#utility.yul\":8054:8063   */\n      dup4\n        /* \"#utility.yul\":8050:8067   */\n      add\n        /* \"#utility.yul\":8043:8090   */\n      mstore\n        /* \"#utility.yul\":8107:8238   */\n      tag_251\n        /* \"#utility.yul\":8233:8237   */\n      dup2\n        /* \"#utility.yul\":8107:8238   */\n      tag_155\n      jump\t// in\n    tag_251:\n        /* \"#utility.yul\":8099:8238   */\n      swap1\n      pop\n        /* \"#utility.yul\":7826:8245   */\n      swap2\n      swap1\n      pop\n      jump\t// out\n        /* \"#utility.yul\":8251:8420   */\n    tag_156:\n        /* \"#utility.yul\":8391:8412   */\n      0x4e6f2061637469766520706f7274666f6c696f00000000000000000000000000\n        /* \"#utility.yul\":8387:8388   */\n      0x00\n        /* \"#utility.yul\":8379:8385   */\n      dup3\n        /* \"#utility.yul\":8375:8389   */\n      add\n        /* \"#utility.yul\":8368:8413   */\n      mstore\n        /* \"#utility.yul\":8251:8420   */\n      pop\n      jump\t// out\n        /* \"#utility.yul\":8426:8792   */\n    tag_157:\n        /* \"#utility.yul\":8568:8571   */\n      0x00\n        /* \"#utility.yul\":8589:8656   */\n      tag_254\n        /* \"#utility.yul\":8653:8655   */\n      0x13\n        /* \"#utility.yul\":8648:8651   */\n      dup4\n        /* \"#utility.yul\":8589:8656   */\n      tag_149\n      jump\t// in\n    tag_254:\n        /* \"#utility.yul\":8582:8656   */\n      swap2\n      pop\n        /* \"#utility.yul\":8665:8758   */\n      tag_255\n        /* \"#utility.yul\":8754:8757   */\n      dup3\n        /* \"#utility.yul\":8665:8758   */\n      tag_156\n      jump\t// in\n    tag_255:\n        /* \"#utility.yul\":8783:8785   */\n      0x20\n        /* \"#utility.yul\":8778:8781   */\n      dup3\n        /* \"#utility.yul\":8774:8786   */\n      add\n        /* \"#utility.yul\":8767:8786   */\n      swap1\n      pop\n        /* \"#utility.yul\":8426:8792   */\n      swap2\n      swap1\n      pop\n      jump\t// out\n        /* \"#utility.yul\":8798:9217   */\n    tag_75:\n        /* \"#utility.yul\":8964:8968   */\n      0x00\n        /* \"#utility.yul\":9002:9004   */\n      0x20\n        /* \"#utility.yul\":8991:9000   */\n      dup3\n        /* \"#utility.yul\":8987:9005   */\n      add\n        /* \"#utility.yul\":8979:9005   */\n      swap1\n      pop\n        /* \"#utility.yul\":9051:9060   */\n      dup2\n        /* \"#utility.yul\":9045:9049   */\n      dup2\n        /* \"#utility.yul\":9041:9061   */\n      sub\n        /* \"#utility.yul\":9037:9038   */\n      0x00\n        /* \"#utility.yul\":9026:9035   */\n      dup4\n        /* \"#utility.yul\":9022:9039   */\n      add\n        /* \"#utility.yul\":9015:9062   */\n      mstore\n        /* \"#utility.yul\":9079:9210   */\n      tag_257\n        /* \"#utility.yul\":9205:9209   */\n      dup2\n        /* \"#utility.yul\":9079:9210   */\n      tag_157\n      jump\t// in\n    tag_257:\n        /* \"#utility.yul\":9071:9210   */\n      swap1\n      pop\n        /* \"#utility.yul\":8798:9217   */\n      swap2\n      swap1\n      pop\n      jump\t// out\n        /* \"#utility.yul\":9223:9665   */\n    tag_77:\n        /* \"#utility.yul\":9372:9376   */\n      0x00\n        /* \"#utility.yul\":9410:9412   */\n      0x60\n        /* \"#utility.yul\":9399:9408   */\n      dup3\n        /* \"#utility.yul\":9395:9413   */\n      add\n        /* \"#utility.yul\":9387:9413   */\n      swap1\n      pop\n        /* \"#utility.yul\":9423:9494   */\n      tag_259\n        /* \"#utility.yul\":9491:9492   */\n      0x00\n        /* \"#utility.yul\":9480:9489   */\n      dup4\n        /* \"#utility.yul\":9476:9493   */\n      add\n        /* \"#utility.yul\":9467:9473   */\n      dup7\n        /* \"#utility.yul\":9423:9494   */\n      tag_137\n      jump\t// in\n    tag_259:\n        /* \"#utility.yul\":9504:9576   */\n      tag_260\n        /* \"#utility.yul\":9572:9574   */\n      0x20\n        /* \"#utility.yul\":9561:9570   */\n      dup4\n        /* \"#utility.yul\":9557:9575   */\n      add\n        /* \"#utility.yul\":9548:9554   */\n      dup6\n        /* \"#utility.yul\":9504:9576   */\n      tag_137\n      jump\t// in\n    tag_260:\n        /* \"#utility.yul\":9586:9658   */\n      tag_261\n        /* \"#utility.yul\":9654:9656   */\n      0x40\n        /* \"#utility.yul\":9643:9652   */\n      dup4\n        /* \"#utility.yul\":9639:9657   */\n      add\n        /* \"#utility.yul\":9630:9636   */\n      dup5\n        /* \"#utility.yul\":9586:9658   */\n      tag_148\n      jump\t// in\n    tag_261:\n        /* \"#utility.yul\":9223:9665   */\n      swap5\n      swap4\n      pop\n      pop\n      pop\n      pop\n      jump\t// out\n        /* \"#utility.yul\":9671:9787   */\n    tag_158:\n        /* \"#utility.yul\":9741:9762   */\n      tag_263\n        /* \"#utility.yul\":9756:9761   */\n      dup2\n        /* \"#utility.yul\":9741:9762   */\n      tag_146\n      jump\t// in\n    tag_263:\n        /* \"#utility.yul\":9734:9739   */\n      dup2\n        /* \"#utility.yul\":9731:9763   */\n      eq\n        /* \"#utility.yul\":9721:9781   */\n      tag_264\n      jumpi\n        /* \"#utility.yul\":9777:9778   */\n      0x00\n        /* \"#utility.yul\":9774:9775   */\n      dup1\n        /* \"#utility.yul\":9767:9779   */\n      revert\n        /* \"#utility.yul\":9721:9781   */\n    tag_264:\n        /* \"#utility.yul\":9671:9787   */\n      pop\n      jump\t// out\n        /* \"#utility.yul\":9793:9930   */\n    tag_159:\n        /* \"#utility.yul\":9847:9852   */\n      0x00\n        /* \"#utility.yul\":9878:9884   */\n      dup2\n        /* \"#utility.yul\":9872:9885   */\n      mload\n        /* \"#utility.yul\":9863:9885   */\n      swap1\n      pop\n        /* \"#utility.yul\":9894:9924   */\n      tag_266\n        /* \"#utility.yul\":9918:9923   */\n      dup2\n        /* \"#utility.yul\":9894:9924   */\n      tag_158\n      jump\t// in\n    tag_266:\n        /* \"#utility.yul\":9793:9930   */\n      swap3\n      swap2\n      pop\n      pop\n      jump\t// out\n        /* \"#utility.yul\":9936:10281   */\n    tag_81:\n        /* \"#utility.yul\":10003:10009   */\n      0x00\n        /* \"#utility.yul\":10052:10054   */\n      0x20\n        /* \"#utility.yul\":10040:10049   */\n      dup3\n        /* \"#utility.yul\":10031:10038   */\n      dup5\n        /* \"#utility.yul\":10027:10050   */\n      sub\n        /* \"#utility.yul\":10023:10055   */\n      slt\n        /* \"#utility.yul\":10020:10139   */\n      iszero\n      tag_268\n      jumpi\n        /* \"#utility.yul\":10058:10137   */\n      tag_269\n      tag_139\n      jump\t// in\n    tag_269:\n        /* \"#utility.yul\":10020:10139   */\n    tag_268:\n        /* \"#utility.yul\":10178:10179   */\n      0x00\n        /* \"#utility.yul\":10203:10264   */\n      tag_270\n        /* \"#utility.yul\":10256:10263   */\n      dup5\n        /* \"#utility.yul\":10247:10253   */\n      dup3\n        /* \"#utility.yul\":10236:10245   */\n      dup6\n        /* \"#utility.yul\":10232:10254   */\n      add\n        /* \"#utility.yul\":10203:10264   */\n      tag_159\n      jump\t// in\n    tag_270:\n        /* \"#utility.yul\":10193:10264   */\n      swap2\n      pop\n        /* \"#utility.yul\":10149:10274   */\n      pop\n        /* \"#utility.yul\":9936:10281   */\n      swap3\n      swap2\n      pop\n      pop\n      jump\t// out\n        /* \"#utility.yul\":10287:10467   */\n    tag_160:\n        /* \"#utility.yul\":10335:10412   */\n      0x4e487b7100000000000000000000000000000000000000000000000000000000\n        /* \"#utility.yul\":10332:10333   */\n      0x00\n        /* \"#utility.yul\":10325:10413   */\n      mstore\n        /* \"#utility.yul\":10432:10436   */\n      0x11\n        /* \"#utility.yul\":10429:10430   */\n      0x04\n        /* \"#utility.yul\":10422:10437   */\n      mstore\n        /* \"#utility.yul\":10456:10460   */\n      0x24\n        /* \"#utility.yul\":10453:10454   */\n      0x00\n        /* \"#utility.yul\":10446:10461   */\n      revert\n        /* \"#utility.yul\":10473:10664   */\n    tag_83:\n        /* \"#utility.yul\":10513:10516   */\n      0x00\n        /* \"#utility.yul\":10532:10552   */\n      tag_273\n        /* \"#utility.yul\":10550:10551   */\n      dup3\n        /* \"#utility.yul\":10532:10552   */\n      tag_141\n      jump\t// in\n    tag_273:\n        /* \"#utility.yul\":10527:10552   */\n      swap2\n      pop\n        /* \"#utility.yul\":10566:10586   */\n      tag_274\n        /* \"#utility.yul\":10584:10585   */\n      dup4\n        /* \"#utility.yul\":10566:10586   */\n      tag_141\n      jump\t// in\n    tag_274:\n        /* \"#utility.yul\":10561:10586   */\n      swap3\n      pop\n        /* \"#utility.yul\":10609:10610   */\n      dup3\n        /* \"#utility.yul\":10606:10607   */\n      dup3\n        /* \"#utility.yul\":10602:10611   */\n      add\n        /* \"#utility.yul\":10595:10611   */\n      swap1\n      pop\n        /* \"#utility.yul\":10630:10633   */\n      dup1\n        /* \"#utility.yul\":10627:10628   */\n      dup3\n        /* \"#utility.yul\":10624:10634   */\n      gt\n        /* \"#utility.yul\":10621:10657   */\n      iszero\n      tag_275\n      jumpi\n        /* \"#utility.yul\":10637:10655   */\n      tag_276\n      tag_160\n      jump\t// in\n    tag_276:\n        /* \"#utility.yul\":10621:10657   */\n    tag_275:\n        /* \"#utility.yul\":10473:10664   */\n      swap3\n      swap2\n      pop\n      pop\n      jump\t// out\n        /* \"#utility.yul\":10670:10829   */\n    tag_161:\n        /* \"#utility.yul\":10810:10821   */\n      0x4e6f74206f776e65720000000000000000000000000000000000000000000000\n        /* \"#utility.yul\":10806:10807   */\n      0x00\n        /* \"#utility.yul\":10798:10804   */\n      dup3\n        /* \"#utility.yul\":10794:10808   */\n      add\n        /* \"#utility.yul\":10787:10822   */\n      mstore\n        /* \"#utility.yul\":10670:10829   */\n      pop\n      jump\t// out\n        /* \"#utility.yul\":10835:11200   */\n    tag_162:\n        /* \"#utility.yul\":10977:10980   */\n      0x00\n        /* \"#utility.yul\":10998:11064   */\n      tag_279\n        /* \"#utility.yul\":11062:11063   */\n      0x09\n        /* \"#utility.yul\":11057:11060   */\n      dup4\n        /* \"#utility.yul\":10998:11064   */\n      tag_149\n      jump\t// in\n    tag_279:\n        /* \"#utility.yul\":10991:11064   */\n      swap2\n      pop\n        /* \"#utility.yul\":11073:11166   */\n      tag_280\n        /* \"#utility.yul\":11162:11165   */\n      dup3\n        /* \"#utility.yul\":11073:11166   */\n      tag_161\n      jump\t// in\n    tag_280:\n        /* \"#utility.yul\":11191:11193   */\n      0x20\n        /* \"#utility.yul\":11186:11189   */\n      dup3\n        /* \"#utility.yul\":11182:11194   */\n      add\n        /* \"#utility.yul\":11175:11194   */\n      swap1\n      pop\n        /* \"#utility.yul\":10835:11200   */\n      swap2\n      swap1\n      pop\n      jump\t// out\n        /* \"#utility.yul\":11206:11625   */\n    tag_87:\n        /* \"#utility.yul\":11372:11376   */\n      0x00\n        /* \"#utility.yul\":11410:11412   */\n      0x20\n        /* \"#utility.yul\":11399:11408   */\n      dup3\n        /* \"#utility.yul\":11395:11413   */\n      add\n        /* \"#utility.yul\":11387:11413   */\n      swap1\n      pop\n        /* \"#utility.yul\":11459:11468   */\n      dup2\n        /* \"#utility.yul\":11453:11457   */\n      dup2\n        /* \"#utility.yul\":11449:11469   */\n      sub\n        /* \"#utility.yul\":11445:11446   */\n      0x00\n        /* \"#utility.yul\":11434:11443   */\n      dup4\n        /* \"#utility.yul\":11430:11447   */\n      add\n        /* \"#utility.yul\":11423:11470   */\n      mstore\n        /* \"#utility.yul\":11487:11618   */\n      tag_282\n        /* \"#utility.yul\":11613:11617   */\n      dup2\n        /* \"#utility.yul\":11487:11618   */\n      tag_162\n      jump\t// in\n    tag_282:\n        /* \"#utility.yul\":11479:11618   */\n      swap1\n      pop\n        /* \"#utility.yul\":11206:11625   */\n      swap2\n      swap1\n      pop\n      jump\t// out\n        /* \"#utility.yul\":11631:11794   */\n    tag_163:\n        /* \"#utility.yul\":11771:11786   */\n      0x4e6f742041492074726164657200000000000000000000000000000000000000\n        /* \"#utility.yul\":11767:11768   */\n      0x00\n        /* \"#utility.yul\":11759:11765   */\n      dup3\n        /* \"#utility.yul\":11755:11769   */\n      add\n        /* \"#utility.yul\":11748:11787   */\n      mstore\n        /* \"#utility.yul\":11631:11794   */\n      pop\n      jump\t// out\n        /* \"#utility.yul\":11800:12166   */\n    tag_164:\n        /* \"#utility.yul\":11942:11945   */\n      0x00\n        /* \"#utility.yul\":11963:12030   */\n      tag_285\n        /* \"#utility.yul\":12027:12029   */\n      0x0d\n        /* \"#utility.yul\":12022:12025   */\n      dup4\n        /* \"#utility.yul\":11963:12030   */\n      tag_149\n      jump\t// in\n    tag_285:\n        /* \"#utility.yul\":11956:12030   */\n      swap2\n      pop\n        /* \"#utility.yul\":12039:12132   */\n      tag_286\n        /* \"#utility.yul\":12128:12131   */\n      dup3\n        /* \"#utility.yul\":12039:12132   */\n      tag_163\n      jump\t// in\n    tag_286:\n        /* \"#utility.yul\":12157:12159   */\n      0x20\n        /* \"#utility.yul\":12152:12155   */\n      dup3\n        /* \"#utility.yul\":12148:12160   */\n      add\n        /* \"#utility.yul\":12141:12160   */\n      swap1\n      pop\n        /* \"#utility.yul\":11800:12166   */\n      swap2\n      swap1\n      pop\n      jump\t// out\n        /* \"#utility.yul\":12172:12591   */\n    tag_92:\n        /* \"#utility.yul\":12338:12342   */\n      0x00\n        /* \"#utility.yul\":12376:12378   */\n      0x20\n        /* \"#utility.yul\":12365:12374   */\n      dup3\n        /* \"#utility.yul\":12361:12379   */\n      add\n        /* \"#utility.yul\":12353:12379   */\n      swap1\n      pop\n        /* \"#utility.yul\":12425:12434   */\n      dup2\n        /* \"#utility.yul\":12419:12423   */\n      dup2\n        /* \"#utility.yul\":12415:12435   */\n      sub\n        /* \"#utility.yul\":12411:12412   */\n      0x00\n        /* \"#utility.yul\":12400:12409   */\n      dup4\n        /* \"#utility.yul\":12396:12413   */\n      add\n        /* \"#utility.yul\":12389:12436   */\n      mstore\n        /* \"#utility.yul\":12453:12584   */\n      tag_288\n        /* \"#utility.yul\":12579:12583   */\n      dup2\n        /* \"#utility.yul\":12453:12584   */\n      tag_164\n      jump\t// in\n    tag_288:\n        /* \"#utility.yul\":12445:12584   */\n      swap1\n      pop\n        /* \"#utility.yul\":12172:12591   */\n      swap2\n      swap1\n      pop\n      jump\t// out\n        /* \"#utility.yul\":12597:12764   */\n    tag_165:\n        /* \"#utility.yul\":12737:12756   */\n      0x556e617070726f76656420746f6b656e73000000000000000000000000000000\n        /* \"#utility.yul\":12733:12734   */\n      0x00\n        /* \"#utility.yul\":12725:12731   */\n      dup3\n        /* \"#utility.yul\":12721:12735   */\n      add\n        /* \"#utility.yul\":12714:12757   */\n      mstore\n        /* \"#utility.yul\":12597:12764   */\n      pop\n      jump\t// out\n        /* \"#utility.yul\":12770:13136   */\n    tag_166:\n        /* \"#utility.yul\":12912:12915   */\n      0x00\n        /* \"#utility.yul\":12933:13000   */\n      tag_291\n        /* \"#utility.yul\":12997:12999   */\n      0x11\n        /* \"#utility.yul\":12992:12995   */\n      dup4\n        /* \"#utility.yul\":12933:13000   */\n      tag_149\n      jump\t// in\n    tag_291:\n        /* \"#utility.yul\":12926:13000   */\n      swap2\n      pop\n        /* \"#utility.yul\":13009:13102   */\n      tag_292\n        /* \"#utility.yul\":13098:13101   */\n      dup3\n        /* \"#utility.yul\":13009:13102   */\n      tag_165\n      jump\t// in\n    tag_292:\n        /* \"#utility.yul\":13127:13129   */\n      0x20\n        /* \"#utility.yul\":13122:13125   */\n      dup3\n        /* \"#utility.yul\":13118:13130   */\n      add\n        /* \"#utility.yul\":13111:13130   */\n      swap1\n      pop\n        /* \"#utility.yul\":12770:13136   */\n      swap2\n      swap1\n      pop\n      jump\t// out\n        /* \"#utility.yul\":13142:13561   */\n    tag_97:\n        /* \"#utility.yul\":13308:13312   */\n      0x00\n        /* \"#utility.yul\":13346:13348   */\n      0x20\n        /* \"#utility.yul\":13335:13344   */\n      dup3\n        /* \"#utility.yul\":13331:13349   */\n      add\n        /* \"#utility.yul\":13323:13349   */\n      swap1\n      pop\n        /* \"#utility.yul\":13395:13404   */\n      dup2\n        /* \"#utility.yul\":13389:13393   */\n      dup2\n        /* \"#utility.yul\":13385:13405   */\n      sub\n        /* \"#utility.yul\":13381:13382   */\n      0x00\n        /* \"#utility.yul\":13370:13379   */\n      dup4\n        /* \"#utility.yul\":13366:13383   */\n      add\n        /* \"#utility.yul\":13359:13406   */\n      mstore\n        /* \"#utility.yul\":13423:13554   */\n      tag_294\n        /* \"#utility.yul\":13549:13553   */\n      dup2\n        /* \"#utility.yul\":13423:13554   */\n      tag_166\n      jump\t// in\n    tag_294:\n        /* \"#utility.yul\":13415:13554   */\n      swap1\n      pop\n        /* \"#utility.yul\":13142:13561   */\n      swap2\n      swap1\n      pop\n      jump\t// out\n        /* \"#utility.yul\":13567:13737   */\n    tag_167:\n        /* \"#utility.yul\":13707:13729   */\n      0x496e73756666696369656e742062616c616e6365000000000000000000000000\n        /* \"#utility.yul\":13703:13704   */\n      0x00\n        /* \"#utility.yul\":13695:13701   */\n      dup3\n        /* \"#utility.yul\":13691:13705   */\n      add\n        /* \"#utility.yul\":13684:13730   */\n      mstore\n        /* \"#utility.yul\":13567:13737   */\n      pop\n      jump\t// out\n        /* \"#utility.yul\":13743:14109   */\n    tag_168:\n        /* \"#utility.yul\":13885:13888   */\n      0x00\n        /* \"#utility.yul\":13906:13973   */\n      tag_297\n        /* \"#utility.yul\":13970:13972   */\n      0x14\n        /* \"#utility.yul\":13965:13968   */\n      dup4\n        /* \"#utility.yul\":13906:13973   */\n      tag_149\n      jump\t// in\n    tag_297:\n        /* \"#utility.yul\":13899:13973   */\n      swap2\n      pop\n        /* \"#utility.yul\":13982:14075   */\n      tag_298\n        /* \"#utility.yul\":14071:14074   */\n      dup3\n        /* \"#utility.yul\":13982:14075   */\n      tag_167\n      jump\t// in\n    tag_298:\n        /* \"#utility.yul\":14100:14102   */\n      0x20\n        /* \"#utility.yul\":14095:14098   */\n      dup3\n        /* \"#utility.yul\":14091:14103   */\n      add\n        /* \"#utility.yul\":14084:14103   */\n      swap1\n      pop\n        /* \"#utility.yul\":13743:14109   */\n      swap2\n      swap1\n      pop\n      jump\t// out\n        /* \"#utility.yul\":14115:14534   */\n    tag_102:\n        /* \"#utility.yul\":14281:14285   */\n      0x00\n        /* \"#utility.yul\":14319:14321   */\n      0x20\n        /* \"#utility.yul\":14308:14317   */\n      dup3\n        /* \"#utility.yul\":14304:14322   */\n      add\n        /* \"#utility.yul\":14296:14322   */\n      swap1\n      pop\n        /* \"#utility.yul\":14368:14377   */\n      dup2\n        /* \"#utility.yul\":14362:14366   */\n      dup2\n        /* \"#utility.yul\":14358:14378   */\n      sub\n        /* \"#utility.yul\":14354:14355   */\n      0x00\n        /* \"#utility.yul\":14343:14352   */\n      dup4\n        /* \"#utility.yul\":14339:14356   */\n      add\n        /* \"#utility.yul\":14332:14379   */\n      mstore\n        /* \"#utility.yul\":14396:14527   */\n      tag_300\n        /* \"#utility.yul\":14522:14526   */\n      dup2\n        /* \"#utility.yul\":14396:14527   */\n      tag_168\n      jump\t// in\n    tag_300:\n        /* \"#utility.yul\":14388:14527   */\n      swap1\n      pop\n        /* \"#utility.yul\":14115:14534   */\n      swap2\n      swap1\n      pop\n      jump\t// out\n        /* \"#utility.yul\":14540:14872   */\n    tag_104:\n        /* \"#utility.yul\":14661:14665   */\n      0x00\n        /* \"#utility.yul\":14699:14701   */\n      0x40\n        /* \"#utility.yul\":14688:14697   */\n      dup3\n        /* \"#utility.yul\":14684:14702   */\n      add\n        /* \"#utility.yul\":14676:14702   */\n      swap1\n      pop\n        /* \"#utility.yul\":14712:14783   */\n      tag_302\n        /* \"#utility.yul\":14780:14781   */\n      0x00\n        /* \"#utility.yul\":14769:14778   */\n      dup4\n        /* \"#utility.yul\":14765:14782   */\n      add\n        /* \"#utility.yul\":14756:14762   */\n      dup6\n        /* \"#utility.yul\":14712:14783   */\n      tag_137\n      jump\t// in\n    tag_302:\n        /* \"#utility.yul\":14793:14865   */\n      tag_303\n        /* \"#utility.yul\":14861:14863   */\n      0x20\n        /* \"#utility.yul\":14850:14859   */\n      dup4\n        /* \"#utility.yul\":14846:14864   */\n      add\n        /* \"#utility.yul\":14837:14843   */\n      dup5\n        /* \"#utility.yul\":14793:14865   */\n      tag_148\n      jump\t// in\n    tag_303:\n        /* \"#utility.yul\":14540:14872   */\n      swap4\n      swap3\n      pop\n      pop\n      pop\n      jump\t// out\n        /* \"#utility.yul\":14878:15072   */\n    tag_109:\n        /* \"#utility.yul\":14918:14922   */\n      0x00\n        /* \"#utility.yul\":14938:14958   */\n      tag_305\n        /* \"#utility.yul\":14956:14957   */\n      dup3\n        /* \"#utility.yul\":14938:14958   */\n      tag_141\n      jump\t// in\n    tag_305:\n        /* \"#utility.yul\":14933:14958   */\n      swap2\n      pop\n        /* \"#utility.yul\":14972:14992   */\n      tag_306\n        /* \"#utility.yul\":14990:14991   */\n      dup4\n        /* \"#utility.yul\":14972:14992   */\n      tag_141\n      jump\t// in\n    tag_306:\n        /* \"#utility.yul\":14967:14992   */\n      swap3\n      pop\n        /* \"#utility.yul\":15016:15017   */\n      dup3\n        /* \"#utility.yul\":15013:15014   */\n      dup3\n        /* \"#utility.yul\":15009:15018   */\n      sub\n        /* \"#utility.yul\":15001:15018   */\n      swap1\n      pop\n        /* \"#utility.yul\":15040:15041   */\n      dup2\n        /* \"#utility.yul\":15034:15038   */\n      dup2\n        /* \"#utility.yul\":15031:15042   */\n      gt\n        /* \"#utility.yul\":15028:15065   */\n      iszero\n      tag_307\n      jumpi\n        /* \"#utility.yul\":15045:15063   */\n      tag_308\n      tag_160\n      jump\t// in\n    tag_308:\n        /* \"#utility.yul\":15028:15065   */\n    tag_307:\n        /* \"#utility.yul\":14878:15072   */\n      swap3\n      swap2\n      pop\n      pop\n      jump\t// out\n        /* \"#utility.yul\":15078:15246   */\n    tag_169:\n        /* \"#utility.yul\":15161:15172   */\n      0x00\n        /* \"#utility.yul\":15195:15201   */\n      dup3\n        /* \"#utility.yul\":15190:15193   */\n      dup3\n        /* \"#utility.yul\":15183:15202   */\n      mstore\n        /* \"#utility.yul\":15235:15239   */\n      0x20\n        /* \"#utility.yul\":15230:15233   */\n      dup3\n        /* \"#utility.yul\":15226:15240   */\n      add\n        /* \"#utility.yul\":15211:15240   */\n      swap1\n      pop\n        /* \"#utility.yul\":15078:15246   */\n      swap3\n      swap2\n      pop\n      pop\n      jump\t// out\n        /* \"#utility.yul\":15252:15366   */\n    tag_170:\n      pop\n      jump\t// out\n        /* \"#utility.yul\":15372:15734   */\n    tag_171:\n        /* \"#utility.yul\":15513:15516   */\n      0x00\n        /* \"#utility.yul\":15534:15599   */\n      tag_312\n        /* \"#utility.yul\":15597:15598   */\n      0x00\n        /* \"#utility.yul\":15592:15595   */\n      dup4\n        /* \"#utility.yul\":15534:15599   */\n      tag_169\n      jump\t// in\n    tag_312:\n        /* \"#utility.yul\":15527:15599   */\n      swap2\n      pop\n        /* \"#utility.yul\":15608:15701   */\n      tag_313\n        /* \"#utility.yul\":15697:15700   */\n      dup3\n        /* \"#utility.yul\":15608:15701   */\n      tag_170\n      jump\t// in\n    tag_313:\n        /* \"#utility.yul\":15726:15727   */\n      0x00\n        /* \"#utility.yul\":15721:15724   */\n      dup3\n        /* \"#utility.yul\":15717:15728   */\n      add\n        /* \"#utility.yul\":15710:15728   */\n      swap1\n      pop\n        /* \"#utility.yul\":15372:15734   */\n      swap2\n      swap1\n      pop\n      jump\t// out\n        /* \"#utility.yul\":15740:16599   */\n    tag_111:\n        /* \"#utility.yul\":16017:16021   */\n      0x00\n        /* \"#utility.yul\":16055:16058   */\n      0xa0\n        /* \"#utility.yul\":16044:16053   */\n      dup3\n        /* \"#utility.yul\":16040:16059   */\n      add\n        /* \"#utility.yul\":16032:16059   */\n      swap1\n      pop\n        /* \"#utility.yul\":16069:16140   */\n      tag_315\n        /* \"#utility.yul\":16137:16138   */\n      0x00\n        /* \"#utility.yul\":16126:16135   */\n      dup4\n        /* \"#utility.yul\":16122:16139   */\n      add\n        /* \"#utility.yul\":16113:16119   */\n      dup8\n        /* \"#utility.yul\":16069:16140   */\n      tag_137\n      jump\t// in\n    tag_315:\n        /* \"#utility.yul\":16150:16222   */\n      tag_316\n        /* \"#utility.yul\":16218:16220   */\n      0x20\n        /* \"#utility.yul\":16207:16216   */\n      dup4\n        /* \"#utility.yul\":16203:16221   */\n      add\n        /* \"#utility.yul\":16194:16200   */\n      dup7\n        /* \"#utility.yul\":16150:16222   */\n      tag_137\n      jump\t// in\n    tag_316:\n        /* \"#utility.yul\":16232:16304   */\n      tag_317\n        /* \"#utility.yul\":16300:16302   */\n      0x40\n        /* \"#utility.yul\":16289:16298   */\n      dup4\n        /* \"#utility.yul\":16285:16303   */\n      add\n        /* \"#utility.yul\":16276:16282   */\n      dup6\n        /* \"#utility.yul\":16232:16304   */\n      tag_148\n      jump\t// in\n    tag_317:\n        /* \"#utility.yul\":16314:16386   */\n      tag_318\n        /* \"#utility.yul\":16382:16384   */\n      0x60\n        /* \"#utility.yul\":16371:16380   */\n      dup4\n        /* \"#utility.yul\":16367:16385   */\n      add\n        /* \"#utility.yul\":16358:16364   */\n      dup5\n        /* \"#utility.yul\":16314:16386   */\n      tag_137\n      jump\t// in\n    tag_318:\n        /* \"#utility.yul\":16434:16443   */\n      dup2\n        /* \"#utility.yul\":16428:16432   */\n      dup2\n        /* \"#utility.yul\":16424:16444   */\n      sub\n        /* \"#utility.yul\":16418:16421   */\n      0x80\n        /* \"#utility.yul\":16407:16416   */\n      dup4\n        /* \"#utility.yul\":16403:16422   */\n      add\n        /* \"#utility.yul\":16396:16445   */\n      mstore\n        /* \"#utility.yul\":16462:16592   */\n      tag_319\n        /* \"#utility.yul\":16587:16591   */\n      dup2\n        /* \"#utility.yul\":16462:16592   */\n      tag_171\n      jump\t// in\n    tag_319:\n        /* \"#utility.yul\":16454:16592   */\n      swap1\n      pop\n        /* \"#utility.yul\":15740:16599   */\n      swap6\n      swap5\n      pop\n      pop\n      pop\n      pop\n      pop\n      jump\t// out\n        /* \"#utility.yul\":16605:16748   */\n    tag_172:\n        /* \"#utility.yul\":16662:16667   */\n      0x00\n        /* \"#utility.yul\":16693:16699   */\n      dup2\n        /* \"#utility.yul\":16687:16700   */\n      mload\n        /* \"#utility.yul\":16678:16700   */\n      swap1\n      pop\n        /* \"#utility.yul\":16709:16742   */\n      tag_321\n        /* \"#utility.yul\":16736:16741   */\n      dup2\n        /* \"#utility.yul\":16709:16742   */\n      tag_142\n      jump\t// in\n    tag_321:\n        /* \"#utility.yul\":16605:16748   */\n      swap3\n      swap2\n      pop\n      pop\n      jump\t// out\n        /* \"#utility.yul\":16754:17105   */\n    tag_115:\n        /* \"#utility.yul\":16824:16830   */\n      0x00\n        /* \"#utility.yul\":16873:16875   */\n      0x20\n        /* \"#utility.yul\":16861:16870   */\n      dup3\n        /* \"#utility.yul\":16852:16859   */\n      dup5\n        /* \"#utility.yul\":16848:16871   */\n      sub\n        /* \"#utility.yul\":16844:16876   */\n      slt\n        /* \"#utility.yul\":16841:16960   */\n      iszero\n      tag_323\n      jumpi\n        /* \"#utility.yul\":16879:16958   */\n      tag_324\n      tag_139\n      jump\t// in\n    tag_324:\n        /* \"#utility.yul\":16841:16960   */\n    tag_323:\n        /* \"#utility.yul\":16999:17000   */\n      0x00\n        /* \"#utility.yul\":17024:17088   */\n      tag_325\n        /* \"#utility.yul\":17080:17087   */\n      dup5\n        /* \"#utility.yul\":17071:17077   */\n      dup3\n        /* \"#utility.yul\":17060:17069   */\n      dup6\n        /* \"#utility.yul\":17056:17078   */\n      add\n        /* \"#utility.yul\":17024:17088   */\n      tag_172\n      jump\t// in\n    tag_325:\n        /* \"#utility.yul\":17014:17088   */\n      swap2\n      pop\n        /* \"#utility.yul\":16970:17098   */\n      pop\n        /* \"#utility.yul\":16754:17105   */\n      swap3\n      swap2\n      pop\n      pop\n      jump\t// out\n\n    auxdata: 0xa2646970667358221220b1aee55d6608c115a6dfcc7dc05cdd0ccd9c1b2b1e23bb52a82078c3f15b3ef964736f6c634300081a0033\n}\n",
				"bytecode": {
					"linkReferences": {},
					"object": "608060405234801561000f575f80fd5b50604051611aab380380611aab83398181016040528101906100319190610115565b3360025f6101000a81548173ffffffffffffffffffffffffffffffffffffffff021916908373ffffffffffffffffffffffffffffffffffffffff1602179055508060035f6101000a81548173ffffffffffffffffffffffffffffffffffffffff021916908373ffffffffffffffffffffffffffffffffffffffff16021790555050610140565b5f80fd5b5f73ffffffffffffffffffffffffffffffffffffffff82169050919050565b5f6100e4826100bb565b9050919050565b6100f4816100da565b81146100fe575f80fd5b50565b5f8151905061010f816100eb565b92915050565b5f6020828403121561012a576101296100b7565b5b5f61013784828501610101565b91505092915050565b61195e8061014d5f395ff3fe608060405234801561000f575f80fd5b50600436106100a7575f3560e01c80638da5cb5b1161006f5780638da5cb5b1461014d578063b1d6e59d1461016b578063b61920c114610187578063c489744b146101b9578063d48bfca7146101e9578063f3fef3a314610205576100a7565b8063138a5e25146100ab57806343b25452146100c957806347e7ef24146100e55780635fa7b584146101015780636d1ea3fa1461011d575b5f80fd5b6100b3610221565b6040516100c0919061118c565b60405180910390f35b6100e360048036038101906100de91906111dc565b610246565b005b6100ff60048036038101906100fa9190611231565b6103d7565b005b61011b6004803603810190610116919061126f565b6105fd565b005b6101376004803603810190610132919061126f565b610726565b60405161014491906112b4565b60405180910390f35b610155610743565b604051610162919061118c565b60405180910390f35b610185600480360381019061018091906112cd565b610768565b005b6101a1600480360381019061019c919061126f565b610c8c565b6040516101b093929190611340565b60405180910390f35b6101d360048036038101906101ce9190611375565b610cbd565b6040516101e091906113b3565b60405180910390f35b61020360048036038101906101fe919061126f565b610dcc565b005b61021f600480360381019061021a9190611231565b610ef5565b005b60035f9054906101000a900473ffffffffffffffffffffffffffffffffffffffff1681565b5f811180156102565750600a8111155b610295576040517f08c379a000000000000000000000000000000000000000000000000000000000815260040161028c90611426565b60405180910390fd5b5f803373ffffffffffffffffffffffffffffffffffffffff1673ffffffffffffffffffffffffffffffffffffffff1681526020019081526020015f206003015f9054906101000a900460ff1615610321576040517f08c379a00000000000000000000000000000000000000000000000000000000081526004016103189061148e565b60405180910390fd5b5f805f3373ffffffffffffffffffffffffffffffffffffffff1673ffffffffffffffffffffffffffffffffffffffff1681526020019081526020015f2090508181600101819055506001816003015f6101000a81548160ff0219169083151502179055503373ffffffffffffffffffffffffffffffffffffffff167f67fb572dde9f80bfb3f0454266d9258cf72d569e4ef809f9301b9ee757dd78d0836040516103cb91906113b3565b60405180910390a25050565b60015f8373ffffffffffffffffffffffffffffffffffffffff1673ffffffffffffffffffffffffffffffffffffffff1681526020019081526020015f205f9054906101000a900460ff16610460576040517f08c379a0000000000000000000000000000000000000000000000000000000008152600401610457906114f6565b60405180910390fd5b5f803373ffffffffffffffffffffffffffffffffffffffff1673ffffffffffffffffffffffffffffffffffffffff1681526020019081526020015f206003015f9054906101000a900460ff166104eb576040517f08c379a00000000000000000000000000000000000000000000000000000000081526004016104e29061155e565b60405180910390fd5b8173ffffffffffffffffffffffffffffffffffffffff166323b872dd3330846040518463ffffffff1660e01b81526004016105289392919061157c565b6020604051808303815f875af1158015610544573d5f803e3d5ffd5b505050506040513d601f19601f8201168201806040525081019061056891906115db565b50805f803373ffffffffffffffffffffffffffffffffffffffff1673ffffffffffffffffffffffffffffffffffffffff1681526020019081526020015f206002015f8473ffffffffffffffffffffffffffffffffffffffff1673ffffffffffffffffffffffffffffffffffffffff1681526020019081526020015f205f8282546105f29190611633565b925050819055505050565b60025f9054906101000a900473ffffffffffffffffffffffffffffffffffffffff1673ffffffffffffffffffffffffffffffffffffffff163373ffffffffffffffffffffffffffffffffffffffff161461068c576040517f08c379a0000000000000000000000000000000000000000000000000000000008152600401610683906116b0565b60405180910390fd5b5f60015f8373ffffffffffffffffffffffffffffffffffffffff1673ffffffffffffffffffffffffffffffffffffffff1681526020019081526020015f205f6101000a81548160ff0219169083151502179055508073ffffffffffffffffffffffffffffffffffffffff167f4c910b69fe65a61f7531b9c5042b2329ca7179c77290aa7e2eb3afa3c8511fd360405160405180910390a250565b6001602052805f5260405f205f915054906101000a900460ff1681565b60025f9054906101000a900473ffffffffffffffffffffffffffffffffffffffff1681565b60035f9054906101000a900473ffffffffffffffffffffffffffffffffffffffff1673ffffffffffffffffffffffffffffffffffffffff163373ffffffffffffffffffffffffffffffffffffffff16146107f7576040517f08c379a00000000000000000000000000000000000000000000000000000000081526004016107ee90611718565b60405180910390fd5b60015f8473ffffffffffffffffffffffffffffffffffffffff1673ffffffffffffffffffffffffffffffffffffffff1681526020019081526020015f205f9054906101000a900460ff168015610893575060015f8373ffffffffffffffffffffffffffffffffffffffff1673ffffffffffffffffffffffffffffffffffffffff1681526020019081526020015f205f9054906101000a900460ff165b6108d2576040517f08c379a00000000000000000000000000000000000000000000000000000000081526004016108c990611780565b60405180910390fd5b5f808573ffffffffffffffffffffffffffffffffffffffff1673ffffffffffffffffffffffffffffffffffffffff1681526020019081526020015f206003015f9054906101000a900460ff1661095d576040517f08c379a00000000000000000000000000000000000000000000000000000000081526004016109549061155e565b60405180910390fd5b5f805f8673ffffffffffffffffffffffffffffffffffffffff1673ffffffffffffffffffffffffffffffffffffffff1681526020019081526020015f20905081816002015f8673ffffffffffffffffffffffffffffffffffffffff1673ffffffffffffffffffffffffffffffffffffffff1681526020019081526020015f20541015610a1e576040517f08c379a0000000000000000000000000000000000000000000000000000000008152600401610a15906117e8565b60405180910390fd5b8373ffffffffffffffffffffffffffffffffffffffff1663095ea7b360035f9054906101000a900473ffffffffffffffffffffffffffffffffffffffff16846040518363ffffffff1660e01b8152600401610a7a929190611806565b6020604051808303815f875af1158015610a96573d5f803e3d5ffd5b505050506040513d601f19601f82011682018060405250810190610aba91906115db565b5081816002015f8673ffffffffffffffffffffffffffffffffffffffff1673ffffffffffffffffffffffffffffffffffffffff1681526020019081526020015f205f828254610b09919061182d565b925050819055505f60035f9054906101000a900473ffffffffffffffffffffffffffffffffffffffff1673ffffffffffffffffffffffffffffffffffffffff1663aad4466e868686306040518563ffffffff1660e01b8152600401610b719493929190611893565b6020604051808303815f875af1158015610b8d573d5f803e3d5ffd5b505050506040513d601f19601f82011682018060405250810190610bb191906118fd565b905080826002015f8673ffffffffffffffffffffffffffffffffffffffff1673ffffffffffffffffffffffffffffffffffffffff1681526020019081526020015f205f828254610c019190611633565b925050819055508373ffffffffffffffffffffffffffffffffffffffff168573ffffffffffffffffffffffffffffffffffffffff168773ffffffffffffffffffffffffffffffffffffffff167f7c98d1e471158166ac434c9c01540b47abb40862bbf909edb2dc73c22229a23f86604051610c7c91906113b3565b60405180910390a4505050505050565b5f602052805f5260405f205f91509050805f015490806001015490806003015f9054906101000a900460ff16905083565b5f805f8473ffffffffffffffffffffffffffffffffffffffff1673ffffffffffffffffffffffffffffffffffffffff1681526020019081526020015f206003015f9054906101000a900460ff16610d49576040517f08c379a0000000000000000000000000000000000000000000000000000000008152600401610d409061155e565b60405180910390fd5b5f808473ffffffffffffffffffffffffffffffffffffffff1673ffffffffffffffffffffffffffffffffffffffff1681526020019081526020015f206002015f8373ffffffffffffffffffffffffffffffffffffffff1673ffffffffffffffffffffffffffffffffffffffff1681526020019081526020015f2054905092915050565b60025f9054906101000a900473ffffffffffffffffffffffffffffffffffffffff1673ffffffffffffffffffffffffffffffffffffffff163373ffffffffffffffffffffffffffffffffffffffff1614610e5b576040517f08c379a0000000000000000000000000000000000000000000000000000000008152600401610e52906116b0565b60405180910390fd5b6001805f8373ffffffffffffffffffffffffffffffffffffffff1673ffffffffffffffffffffffffffffffffffffffff1681526020019081526020015f205f6101000a81548160ff0219169083151502179055508073ffffffffffffffffffffffffffffffffffffffff167f784c8f4dbf0ffedd6e72c76501c545a70f8b203b30a26ce542bf92ba87c248a460405160405180910390a250565b5f803373ffffffffffffffffffffffffffffffffffffffff1673ffffffffffffffffffffffffffffffffffffffff1681526020019081526020015f206003015f9054906101000a900460ff16610f80576040517f08c379a0000000000000000000000000000000000000000000000000000000008152600401610f779061155e565b60405180910390fd5b805f803373ffffffffffffffffffffffffffffffffffffffff1673ffffffffffffffffffffffffffffffffffffffff1681526020019081526020015f206002015f8473ffffffffffffffffffffffffffffffffffffffff1673ffffffffffffffffffffffffffffffffffffffff1681526020019081526020015f2054101561103d576040517f08c379a0000000000000000000000000000000000000000000000000000000008152600401611034906117e8565b60405180910390fd5b805f803373ffffffffffffffffffffffffffffffffffffffff1673ffffffffffffffffffffffffffffffffffffffff1681526020019081526020015f206002015f8473ffffffffffffffffffffffffffffffffffffffff1673ffffffffffffffffffffffffffffffffffffffff1681526020019081526020015f205f8282546110c6919061182d565b925050819055508173ffffffffffffffffffffffffffffffffffffffff1663a9059cbb33836040518363ffffffff1660e01b8152600401611108929190611806565b6020604051808303815f875af1158015611124573d5f803e3d5ffd5b505050506040513d601f19601f8201168201806040525081019061114891906115db565b505050565b5f73ffffffffffffffffffffffffffffffffffffffff82169050919050565b5f6111768261114d565b9050919050565b6111868161116c565b82525050565b5f60208201905061119f5f83018461117d565b92915050565b5f80fd5b5f819050919050565b6111bb816111a9565b81146111c5575f80fd5b50565b5f813590506111d6816111b2565b92915050565b5f602082840312156111f1576111f06111a5565b5b5f6111fe848285016111c8565b91505092915050565b6112108161116c565b811461121a575f80fd5b50565b5f8135905061122b81611207565b92915050565b5f8060408385031215611247576112466111a5565b5b5f6112548582860161121d565b9250506020611265858286016111c8565b9150509250929050565b5f60208284031215611284576112836111a5565b5b5f6112918482850161121d565b91505092915050565b5f8115159050919050565b6112ae8161129a565b82525050565b5f6020820190506112c75f8301846112a5565b92915050565b5f805f80608085870312156112e5576112e46111a5565b5b5f6112f28782880161121d565b94505060206113038782880161121d565b93505060406113148782880161121d565b9250506060611325878288016111c8565b91505092959194509250565b61133a816111a9565b82525050565b5f6060820190506113535f830186611331565b6113606020830185611331565b61136d60408301846112a5565b949350505050565b5f806040838503121561138b5761138a6111a5565b5b5f6113988582860161121d565b92505060206113a98582860161121d565b9150509250929050565b5f6020820190506113c65f830184611331565b92915050565b5f82825260208201905092915050565b7f496e76616c6964207269736b206c6576656c00000000000000000000000000005f82015250565b5f6114106012836113cc565b915061141b826113dc565b602082019050919050565b5f6020820190508181035f83015261143d81611404565b9050919050565b7f506f7274666f6c696f20657869737473000000000000000000000000000000005f82015250565b5f6114786010836113cc565b915061148382611444565b602082019050919050565b5f6020820190508181035f8301526114a58161146c565b9050919050565b7f546f6b656e206e6f7420617070726f76656400000000000000000000000000005f82015250565b5f6114e06012836113cc565b91506114eb826114ac565b602082019050919050565b5f6020820190508181035f83015261150d816114d4565b9050919050565b7f4e6f2061637469766520706f7274666f6c696f000000000000000000000000005f82015250565b5f6115486013836113cc565b915061155382611514565b602082019050919050565b5f6020820190508181035f8301526115758161153c565b9050919050565b5f60608201905061158f5f83018661117d565b61159c602083018561117d565b6115a96040830184611331565b949350505050565b6115ba8161129a565b81146115c4575f80fd5b50565b5f815190506115d5816115b1565b92915050565b5f602082840312156115f0576115ef6111a5565b5b5f6115fd848285016115c7565b91505092915050565b7f4e487b71000000000000000000000000000000000000000000000000000000005f52601160045260245ffd5b5f61163d826111a9565b9150611648836111a9565b92508282019050808211156116605761165f611606565b5b92915050565b7f4e6f74206f776e657200000000000000000000000000000000000000000000005f82015250565b5f61169a6009836113cc565b91506116a582611666565b602082019050919050565b5f6020820190508181035f8301526116c78161168e565b9050919050565b7f4e6f7420414920747261646572000000000000000000000000000000000000005f82015250565b5f611702600d836113cc565b915061170d826116ce565b602082019050919050565b5f6020820190508181035f83015261172f816116f6565b9050919050565b7f556e617070726f76656420746f6b656e730000000000000000000000000000005f82015250565b5f61176a6011836113cc565b915061177582611736565b602082019050919050565b5f6020820190508181035f8301526117978161175e565b9050919050565b7f496e73756666696369656e742062616c616e63650000000000000000000000005f82015250565b5f6117d26014836113cc565b91506117dd8261179e565b602082019050919050565b5f6020820190508181035f8301526117ff816117c6565b9050919050565b5f6040820190506118195f83018561117d565b6118266020830184611331565b9392505050565b5f611837826111a9565b9150611842836111a9565b925082820390508181111561185a57611859611606565b5b92915050565b5f82825260208201905092915050565b50565b5f61187e5f83611860565b915061188982611870565b5f82019050919050565b5f60a0820190506118a65f83018761117d565b6118b3602083018661117d565b6118c06040830185611331565b6118cd606083018461117d565b81810360808301526118de81611873565b905095945050505050565b5f815190506118f7816111b2565b92915050565b5f60208284031215611912576119116111a5565b5b5f61191f848285016118e9565b9150509291505056fea2646970667358221220b1aee55d6608c115a6dfcc7dc05cdd0ccd9c1b2b1e23bb52a82078c3f15b3ef964736f6c634300081a0033",
					"opcodes": "PUSH1 0x80 PUSH1 0x40 MSTORE CALLVALUE DUP1 ISZERO PUSH2 0xF JUMPI PUSH0 DUP1 REVERT JUMPDEST POP PUSH1 0x40 MLOAD PUSH2 0x1AAB CODESIZE SUB DUP1 PUSH2 0x1AAB DUP4 CODECOPY DUP2 DUP2 ADD PUSH1 0x40 MSTORE DUP2 ADD SWAP1 PUSH2 0x31 SWAP2 SWAP1 PUSH2 0x115 JUMP JUMPDEST CALLER PUSH1 0x2 PUSH0 PUSH2 0x100 EXP DUP2 SLOAD DUP2 PUSH20 0xFFFFFFFFFFFFFFFFFFFFFFFFFFFFFFFFFFFFFFFF MUL NOT AND SWAP1 DUP4 PUSH20 0xFFFFFFFFFFFFFFFFFFFFFFFFFFFFFFFFFFFFFFFF AND MUL OR SWAP1 SSTORE POP DUP1 PUSH1 0x3 PUSH0 PUSH2 0x100 EXP DUP2 SLOAD DUP2 PUSH20 0xFFFFFFFFFFFFFFFFFFFFFFFFFFFFFFFFFFFFFFFF MUL NOT AND SWAP1 DUP4 PUSH20 0xFFFFFFFFFFFFFFFFFFFFFFFFFFFFFFFFFFFFFFFF AND MUL OR SWAP1 SSTORE POP POP PUSH2 0x140 JUMP JUMPDEST PUSH0 DUP1 REVERT JUMPDEST PUSH0 PUSH20 0xFFFFFFFFFFFFFFFFFFFFFFFFFFFFFFFFFFFFFFFF DUP3 AND SWAP1 POP SWAP2 SWAP1 POP JUMP JUMPDEST PUSH0 PUSH2 0xE4 DUP3 PUSH2 0xBB JUMP JUMPDEST SWAP1 POP SWAP2 SWAP1 POP JUMP JUMPDEST PUSH2 0xF4 DUP2 PUSH2 0xDA JUMP JUMPDEST DUP2 EQ PUSH2 0xFE JUMPI PUSH0 DUP1 REVERT JUMPDEST POP JUMP JUMPDEST PUSH0 DUP2 MLOAD SWAP1 POP PUSH2 0x10F DUP2 PUSH2 0xEB JUMP JUMPDEST SWAP3 SWAP2 POP POP JUMP JUMPDEST PUSH0 PUSH1 0x20 DUP3 DUP5 SUB SLT ISZERO PUSH2 0x12A JUMPI PUSH2 0x129 PUSH2 0xB7 JUMP JUMPDEST JUMPDEST PUSH0 PUSH2 0x137 DUP5 DUP3 DUP6 ADD PUSH2 0x101 JUMP JUMPDEST SWAP2 POP POP SWAP3 SWAP2 POP POP JUMP JUMPDEST PUSH2 0x195E DUP1 PUSH2 0x14D PUSH0 CODECOPY PUSH0 RETURN INVALID PUSH1 0x80 PUSH1 0x40 MSTORE CALLVALUE DUP1 ISZERO PUSH2 0xF JUMPI PUSH0 DUP1 REVERT JUMPDEST POP PUSH1 0x4 CALLDATASIZE LT PUSH2 0xA7 JUMPI PUSH0 CALLDATALOAD PUSH1 0xE0 SHR DUP1 PUSH4 0x8DA5CB5B GT PUSH2 0x6F JUMPI DUP1 PUSH4 0x8DA5CB5B EQ PUSH2 0x14D JUMPI DUP1 PUSH4 0xB1D6E59D EQ PUSH2 0x16B JUMPI DUP1 PUSH4 0xB61920C1 EQ PUSH2 0x187 JUMPI DUP1 PUSH4 0xC489744B EQ PUSH2 0x1B9 JUMPI DUP1 PUSH4 0xD48BFCA7 EQ PUSH2 0x1E9 JUMPI DUP1 PUSH4 0xF3FEF3A3 EQ PUSH2 0x205 JUMPI PUSH2 0xA7 JUMP JUMPDEST DUP1 PUSH4 0x138A5E25 EQ PUSH2 0xAB JUMPI DUP1 PUSH4 0x43B25452 EQ PUSH2 0xC9 JUMPI DUP1 PUSH4 0x47E7EF24 EQ PUSH2 0xE5 JUMPI DUP1 PUSH4 0x5FA7B584 EQ PUSH2 0x101 JUMPI DUP1 PUSH4 0x6D1EA3FA EQ PUSH2 0x11D JUMPI JUMPDEST PUSH0 DUP1 REVERT JUMPDEST PUSH2 0xB3 PUSH2 0x221 JUMP JUMPDEST PUSH1 0x40 MLOAD PUSH2 0xC0 SWAP2 SWAP1 PUSH2 0x118C JUMP JUMPDEST PUSH1 0x40 MLOAD DUP1 SWAP2 SUB SWAP1 RETURN JUMPDEST PUSH2 0xE3 PUSH1 0x4 DUP1 CALLDATASIZE SUB DUP2 ADD SWAP1 PUSH2 0xDE SWAP2 SWAP1 PUSH2 0x11DC JUMP JUMPDEST PUSH2 0x246 JUMP JUMPDEST STOP JUMPDEST PUSH2 0xFF PUSH1 0x4 DUP1 CALLDATASIZE SUB DUP2 ADD SWAP1 PUSH2 0xFA SWAP2 SWAP1 PUSH2 0x1231 JUMP JUMPDEST PUSH2 0x3D7 JUMP JUMPDEST STOP JUMPDEST PUSH2 0x11B PUSH1 0x4 DUP1 CALLDATASIZE SUB DUP2 ADD SWAP1 PUSH2 0x116 SWAP2 SWAP1 PUSH2 0x126F JUMP JUMPDEST PUSH2 0x5FD JUMP JUMPDEST STOP JUMPDEST PUSH2 0x137 PUSH1 0x4 DUP1 CALLDATASIZE SUB DUP2 ADD SWAP1 PUSH2 0x132 SWAP2 SWAP1 PUSH2 0x126F JUMP JUMPDEST PUSH2 0x726 JUMP JUMPDEST PUSH1 0x40 MLOAD PUSH2 0x144 SWAP2 SWAP1 PUSH2 0x12B4 JUMP JUMPDEST PUSH1 0x40 MLOAD DUP1 SWAP2 SUB SWAP1 RETURN JUMPDEST PUSH2 0x155 PUSH2 0x743 JUMP JUMPDEST PUSH1 0x40 MLOAD PUSH2 0x162 SWAP2 SWAP1 PUSH2 0x118C JUMP JUMPDEST PUSH1 0x40 MLOAD DUP1 SWAP2 SUB SWAP1 RETURN JUMPDEST PUSH2 0x185 PUSH1 0x4 DUP1 CALLDATASIZE SUB DUP2 ADD SWAP1 PUSH2 0x180 SWAP2 SWAP1 PUSH2 0x12CD JUMP JUMPDEST PUSH2 0x768 JUMP JUMPDEST STOP JUMPDEST PUSH2 0x1A1 PUSH1 0x4 DUP1 CALLDATASIZE SUB DUP2 ADD SWAP1 PUSH2 0x19C SWAP2 SWAP1 PUSH2 0x126F JUMP JUMPDEST PUSH2 0xC8C JUMP JUMPDEST PUSH1 0x40 MLOAD PUSH2 0x1B0 SWAP4 SWAP3 SWAP2 SWAP1 PUSH2 0x1340 JUMP JUMPDEST PUSH1 0x40 MLOAD DUP1 SWAP2 SUB SWAP1 RETURN JUMPDEST PUSH2 0x1D3 PUSH1 0x4 DUP1 CALLDATASIZE SUB DUP2 ADD SWAP1 PUSH2 0x1CE SWAP2 SWAP1 PUSH2 0x1375 JUMP JUMPDEST PUSH2 0xCBD JUMP JUMPDEST PUSH1 0x40 MLOAD PUSH2 0x1E0 SWAP2 SWAP1 PUSH2 0x13B3 JUMP JUMPDEST PUSH1 0x40 MLOAD DUP1 SWAP2 SUB SWAP1 RETURN JUMPDEST PUSH2 0x203 PUSH1 0x4 DUP1 CALLDATASIZE SUB DUP2 ADD SWAP1 PUSH2 0x1FE SWAP2 SWAP1 PUSH2 0x126F JUMP JUMPDEST PUSH2 0xDCC JUMP JUMPDEST STOP JUMPDEST PUSH2 0x21F PUSH1 0x4 DUP1 CALLDATASIZE SUB DUP2 ADD SWAP1 PUSH2 0x21A SWAP2 SWAP1 PUSH2 0x1231 JUMP JUMPDEST PUSH2 0xEF5 JUMP JUMPDEST STOP JUMPDEST PUSH1 0x3 PUSH0 SWAP1 SLOAD SWAP1 PUSH2 0x100 EXP SWAP1 DIV PUSH20 0xFFFFFFFFFFFFFFFFFFFFFFFFFFFFFFFFFFFFFFFF AND DUP2 JUMP JUMPDEST PUSH0 DUP2 GT DUP1 ISZERO PUSH2 0x256 JUMPI POP PUSH1 0xA DUP2 GT ISZERO JUMPDEST PUSH2 0x295 JUMPI PUSH1 0x40 MLOAD PUSH32 0x8C379A000000000000000000000000000000000000000000000000000000000 DUP2 MSTORE PUSH1 0x4 ADD PUSH2 0x28C SWAP1 PUSH2 0x1426 JUMP JUMPDEST PUSH1 0x40 MLOAD DUP1 SWAP2 SUB SWAP1 REVERT JUMPDEST PUSH0 DUP1 CALLER PUSH20 0xFFFFFFFFFFFFFFFFFFFFFFFFFFFFFFFFFFFFFFFF AND PUSH20 0xFFFFFFFFFFFFFFFFFFFFFFFFFFFFFFFFFFFFFFFF AND DUP2 MSTORE PUSH1 0x20 ADD SWAP1 DUP2 MSTORE PUSH1 0x20 ADD PUSH0 KECCAK256 PUSH1 0x3 ADD PUSH0 SWAP1 SLOAD SWAP1 PUSH2 0x100 EXP SWAP1 DIV PUSH1 0xFF AND ISZERO PUSH2 0x321 JUMPI PUSH1 0x40 MLOAD PUSH32 0x8C379A000000000000000000000000000000000000000000000000000000000 DUP2 MSTORE PUSH1 0x4 ADD PUSH2 0x318 SWAP1 PUSH2 0x148E JUMP JUMPDEST PUSH1 0x40 MLOAD DUP1 SWAP2 SUB SWAP1 REVERT JUMPDEST PUSH0 DUP1 PUSH0 CALLER PUSH20 0xFFFFFFFFFFFFFFFFFFFFFFFFFFFFFFFFFFFFFFFF AND PUSH20 0xFFFFFFFFFFFFFFFFFFFFFFFFFFFFFFFFFFFFFFFF AND DUP2 MSTORE PUSH1 0x20 ADD SWAP1 DUP2 MSTORE PUSH1 0x20 ADD PUSH0 KECCAK256 SWAP1 POP DUP2 DUP2 PUSH1 0x1 ADD DUP2 SWAP1 SSTORE POP PUSH1 0x1 DUP2 PUSH1 0x3 ADD PUSH0 PUSH2 0x100 EXP DUP2 SLOAD DUP2 PUSH1 0xFF MUL NOT AND SWAP1 DUP4 ISZERO ISZERO MUL OR SWAP1 SSTORE POP CALLER PUSH20 0xFFFFFFFFFFFFFFFFFFFFFFFFFFFFFFFFFFFFFFFF AND PUSH32 0x67FB572DDE9F80BFB3F0454266D9258CF72D569E4EF809F9301B9EE757DD78D0 DUP4 PUSH1 0x40 MLOAD PUSH2 0x3CB SWAP2 SWAP1 PUSH2 0x13B3 JUMP JUMPDEST PUSH1 0x40 MLOAD DUP1 SWAP2 SUB SWAP1 LOG2 POP POP JUMP JUMPDEST PUSH1 0x1 PUSH0 DUP4 PUSH20 0xFFFFFFFFFFFFFFFFFFFFFFFFFFFFFFFFFFFFFFFF AND PUSH20 0xFFFFFFFFFFFFFFFFFFFFFFFFFFFFFFFFFFFFFFFF AND DUP2 MSTORE PUSH1 0x20 ADD SWAP1 DUP2 MSTORE PUSH1 0x20 ADD PUSH0 KECCAK256 PUSH0 SWAP1 SLOAD SWAP1 PUSH2 0x100 EXP SWAP1 DIV PUSH1 0xFF AND PUSH2 0x460 JUMPI PUSH1 0x40 MLOAD PUSH32 0x8C379A000000000000000000000000000000000000000000000000000000000 DUP2 MSTORE PUSH1 0x4 ADD PUSH2 0x457 SWAP1 PUSH2 0x14F6 JUMP JUMPDEST PUSH1 0x40 MLOAD DUP1 SWAP2 SUB SWAP1 REVERT JUMPDEST PUSH0 DUP1 CALLER PUSH20 0xFFFFFFFFFFFFFFFFFFFFFFFFFFFFFFFFFFFFFFFF AND PUSH20 0xFFFFFFFFFFFFFFFFFFFFFFFFFFFFFFFFFFFFFFFF AND DUP2 MSTORE PUSH1 0x20 ADD SWAP1 DUP2 MSTORE PUSH1 0x20 ADD PUSH0 KECCAK256 PUSH1 0x3 ADD PUSH0 SWAP1 SLOAD SWAP1 PUSH2 0x100 EXP SWAP1 DIV PUSH1 0xFF AND PUSH2 0x4EB JUMPI PUSH1 0x40 MLOAD PUSH32 0x8C379A000000000000000000000000000000000000000000000000000000000 DUP2 MSTORE PUSH1 0x4 ADD PUSH2 0x4E2 SWAP1 PUSH2 0x155E JUMP JUMPDEST PUSH1 0x40 MLOAD DUP1 SWAP2 SUB SWAP1 REVERT JUMPDEST DUP2 PUSH20 0xFFFFFFFFFFFFFFFFFFFFFFFFFFFFFFFFFFFFFFFF AND PUSH4 0x23B872DD CALLER ADDRESS DUP5 PUSH1 0x40 MLOAD DUP5 PUSH4 0xFFFFFFFF AND PUSH1 0xE0 SHL DUP2 MSTORE PUSH1 0x4 ADD PUSH2 0x528 SWAP4 SWAP3 SWAP2 SWAP1 PUSH2 0x157C JUMP JUMPDEST PUSH1 0x20 PUSH1 0x40 MLOAD DUP1 DUP4 SUB DUP2 PUSH0 DUP8 GAS CALL ISZERO DUP1 ISZERO PUSH2 0x544 JUMPI RETURNDATASIZE PUSH0 DUP1 RETURNDATACOPY RETURNDATASIZE PUSH0 REVERT JUMPDEST POP POP POP POP PUSH1 0x40 MLOAD RETURNDATASIZE PUSH1 0x1F NOT PUSH1 0x1F DUP3 ADD AND DUP3 ADD DUP1 PUSH1 0x40 MSTORE POP DUP2 ADD SWAP1 PUSH2 0x568 SWAP2 SWAP1 PUSH2 0x15DB JUMP JUMPDEST POP DUP1 PUSH0 DUP1 CALLER PUSH20 0xFFFFFFFFFFFFFFFFFFFFFFFFFFFFFFFFFFFFFFFF AND PUSH20 0xFFFFFFFFFFFFFFFFFFFFFFFFFFFFFFFFFFFFFFFF AND DUP2 MSTORE PUSH1 0x20 ADD SWAP1 DUP2 MSTORE PUSH1 0x20 ADD PUSH0 KECCAK256 PUSH1 0x2 ADD PUSH0 DUP5 PUSH20 0xFFFFFFFFFFFFFFFFFFFFFFFFFFFFFFFFFFFFFFFF AND PUSH20 0xFFFFFFFFFFFFFFFFFFFFFFFFFFFFFFFFFFFFFFFF AND DUP2 MSTORE PUSH1 0x20 ADD SWAP1 DUP2 MSTORE PUSH1 0x20 ADD PUSH0 KECCAK256 PUSH0 DUP3 DUP3 SLOAD PUSH2 0x5F2 SWAP2 SWAP1 PUSH2 0x1633 JUMP JUMPDEST SWAP3 POP POP DUP2 SWAP1 SSTORE POP POP POP JUMP JUMPDEST PUSH1 0x2 PUSH0 SWAP1 SLOAD SWAP1 PUSH2 0x100 EXP SWAP1 DIV PUSH20 0xFFFFFFFFFFFFFFFFFFFFFFFFFFFFFFFFFFFFFFFF AND PUSH20 0xFFFFFFFFFFFFFFFFFFFFFFFFFFFFFFFFFFFFFFFF AND CALLER PUSH20 0xFFFFFFFFFFFFFFFFFFFFFFFFFFFFFFFFFFFFFFFF AND EQ PUSH2 0x68C JUMPI PUSH1 0x40 MLOAD PUSH32 0x8C379A000000000000000000000000000000000000000000000000000000000 DUP2 MSTORE PUSH1 0x4 ADD PUSH2 0x683 SWAP1 PUSH2 0x16B0 JUMP JUMPDEST PUSH1 0x40 MLOAD DUP1 SWAP2 SUB SWAP1 REVERT JUMPDEST PUSH0 PUSH1 0x1 PUSH0 DUP4 PUSH20 0xFFFFFFFFFFFFFFFFFFFFFFFFFFFFFFFFFFFFFFFF AND PUSH20 0xFFFFFFFFFFFFFFFFFFFFFFFFFFFFFFFFFFFFFFFF AND DUP2 MSTORE PUSH1 0x20 ADD SWAP1 DUP2 MSTORE PUSH1 0x20 ADD PUSH0 KECCAK256 PUSH0 PUSH2 0x100 EXP DUP2 SLOAD DUP2 PUSH1 0xFF MUL NOT AND SWAP1 DUP4 ISZERO ISZERO MUL OR SWAP1 SSTORE POP DUP1 PUSH20 0xFFFFFFFFFFFFFFFFFFFFFFFFFFFFFFFFFFFFFFFF AND PUSH32 0x4C910B69FE65A61F7531B9C5042B2329CA7179C77290AA7E2EB3AFA3C8511FD3 PUSH1 0x40 MLOAD PUSH1 0x40 MLOAD DUP1 SWAP2 SUB SWAP1 LOG2 POP JUMP JUMPDEST PUSH1 0x1 PUSH1 0x20 MSTORE DUP1 PUSH0 MSTORE PUSH1 0x40 PUSH0 KECCAK256 PUSH0 SWAP2 POP SLOAD SWAP1 PUSH2 0x100 EXP SWAP1 DIV PUSH1 0xFF AND DUP2 JUMP JUMPDEST PUSH1 0x2 PUSH0 SWAP1 SLOAD SWAP1 PUSH2 0x100 EXP SWAP1 DIV PUSH20 0xFFFFFFFFFFFFFFFFFFFFFFFFFFFFFFFFFFFFFFFF AND DUP2 JUMP JUMPDEST PUSH1 0x3 PUSH0 SWAP1 SLOAD SWAP1 PUSH2 0x100 EXP SWAP1 DIV PUSH20 0xFFFFFFFFFFFFFFFFFFFFFFFFFFFFFFFFFFFFFFFF AND PUSH20 0xFFFFFFFFFFFFFFFFFFFFFFFFFFFFFFFFFFFFFFFF AND CALLER PUSH20 0xFFFFFFFFFFFFFFFFFFFFFFFFFFFFFFFFFFFFFFFF AND EQ PUSH2 0x7F7 JUMPI PUSH1 0x40 MLOAD PUSH32 0x8C379A000000000000000000000000000000000000000000000000000000000 DUP2 MSTORE PUSH1 0x4 ADD PUSH2 0x7EE SWAP1 PUSH2 0x1718 JUMP JUMPDEST PUSH1 0x40 MLOAD DUP1 SWAP2 SUB SWAP1 REVERT JUMPDEST PUSH1 0x1 PUSH0 DUP5 PUSH20 0xFFFFFFFFFFFFFFFFFFFFFFFFFFFFFFFFFFFFFFFF AND PUSH20 0xFFFFFFFFFFFFFFFFFFFFFFFFFFFFFFFFFFFFFFFF AND DUP2 MSTORE PUSH1 0x20 ADD SWAP1 DUP2 MSTORE PUSH1 0x20 ADD PUSH0 KECCAK256 PUSH0 SWAP1 SLOAD SWAP1 PUSH2 0x100 EXP SWAP1 DIV PUSH1 0xFF AND DUP1 ISZERO PUSH2 0x893 JUMPI POP PUSH1 0x1 PUSH0 DUP4 PUSH20 0xFFFFFFFFFFFFFFFFFFFFFFFFFFFFFFFFFFFFFFFF AND PUSH20 0xFFFFFFFFFFFFFFFFFFFFFFFFFFFFFFFFFFFFFFFF AND DUP2 MSTORE PUSH1 0x20 ADD SWAP1 DUP2 MSTORE PUSH1 0x20 ADD PUSH0 KECCAK256 PUSH0 SWAP1 SLOAD SWAP1 PUSH2 0x100 EXP SWAP1 DIV PUSH1 0xFF AND JUMPDEST PUSH2 0x8D2 JUMPI PUSH1 0x40 MLOAD PUSH32 0x8C379A000000000000000000000000000000000000000000000000000000000 DUP2 MSTORE PUSH1 0x4 ADD PUSH2 0x8C9 SWAP1 PUSH2 0x1780 JUMP JUMPDEST PUSH1 0x40 MLOAD DUP1 SWAP2 SUB SWAP1 REVERT JUMPDEST PUSH0 DUP1 DUP6 PUSH20 0xFFFFFFFFFFFFFFFFFFFFFFFFFFFFFFFFFFFFFFFF AND PUSH20 0xFFFFFFFFFFFFFFFFFFFFFFFFFFFFFFFFFFFFFFFF AND DUP2 MSTORE PUSH1 0x20 ADD SWAP1 DUP2 MSTORE PUSH1 0x20 ADD PUSH0 KECCAK256 PUSH1 0x3 ADD PUSH0 SWAP1 SLOAD SWAP1 PUSH2 0x100 EXP SWAP1 DIV PUSH1 0xFF AND PUSH2 0x95D JUMPI PUSH1 0x40 MLOAD PUSH32 0x8C379A000000000000000000000000000000000000000000000000000000000 DUP2 MSTORE PUSH1 0x4 ADD PUSH2 0x954 SWAP1 PUSH2 0x155E JUMP JUMPDEST PUSH1 0x40 MLOAD DUP1 SWAP2 SUB SWAP1 REVERT JUMPDEST PUSH0 DUP1 PUSH0 DUP7 PUSH20 0xFFFFFFFFFFFFFFFFFFFFFFFFFFFFFFFFFFFFFFFF AND PUSH20 0xFFFFFFFFFFFFFFFFFFFFFFFFFFFFFFFFFFFFFFFF AND DUP2 MSTORE PUSH1 0x20 ADD SWAP1 DUP2 MSTORE PUSH1 0x20 ADD PUSH0 KECCAK256 SWAP1 POP DUP2 DUP2 PUSH1 0x2 ADD PUSH0 DUP7 PUSH20 0xFFFFFFFFFFFFFFFFFFFFFFFFFFFFFFFFFFFFFFFF AND PUSH20 0xFFFFFFFFFFFFFFFFFFFFFFFFFFFFFFFFFFFFFFFF AND DUP2 MSTORE PUSH1 0x20 ADD SWAP1 DUP2 MSTORE PUSH1 0x20 ADD PUSH0 KECCAK256 SLOAD LT ISZERO PUSH2 0xA1E JUMPI PUSH1 0x40 MLOAD PUSH32 0x8C379A000000000000000000000000000000000000000000000000000000000 DUP2 MSTORE PUSH1 0x4 ADD PUSH2 0xA15 SWAP1 PUSH2 0x17E8 JUMP JUMPDEST PUSH1 0x40 MLOAD DUP1 SWAP2 SUB SWAP1 REVERT JUMPDEST DUP4 PUSH20 0xFFFFFFFFFFFFFFFFFFFFFFFFFFFFFFFFFFFFFFFF AND PUSH4 0x95EA7B3 PUSH1 0x3 PUSH0 SWAP1 SLOAD SWAP1 PUSH2 0x100 EXP SWAP1 DIV PUSH20 0xFFFFFFFFFFFFFFFFFFFFFFFFFFFFFFFFFFFFFFFF AND DUP5 PUSH1 0x40 MLOAD DUP4 PUSH4 0xFFFFFFFF AND PUSH1 0xE0 SHL DUP2 MSTORE PUSH1 0x4 ADD PUSH2 0xA7A SWAP3 SWAP2 SWAP1 PUSH2 0x1806 JUMP JUMPDEST PUSH1 0x20 PUSH1 0x40 MLOAD DUP1 DUP4 SUB DUP2 PUSH0 DUP8 GAS CALL ISZERO DUP1 ISZERO PUSH2 0xA96 JUMPI RETURNDATASIZE PUSH0 DUP1 RETURNDATACOPY RETURNDATASIZE PUSH0 REVERT JUMPDEST POP POP POP POP PUSH1 0x40 MLOAD RETURNDATASIZE PUSH1 0x1F NOT PUSH1 0x1F DUP3 ADD AND DUP3 ADD DUP1 PUSH1 0x40 MSTORE POP DUP2 ADD SWAP1 PUSH2 0xABA SWAP2 SWAP1 PUSH2 0x15DB JUMP JUMPDEST POP DUP2 DUP2 PUSH1 0x2 ADD PUSH0 DUP7 PUSH20 0xFFFFFFFFFFFFFFFFFFFFFFFFFFFFFFFFFFFFFFFF AND PUSH20 0xFFFFFFFFFFFFFFFFFFFFFFFFFFFFFFFFFFFFFFFF AND DUP2 MSTORE PUSH1 0x20 ADD SWAP1 DUP2 MSTORE PUSH1 0x20 ADD PUSH0 KECCAK256 PUSH0 DUP3 DUP3 SLOAD PUSH2 0xB09 SWAP2 SWAP1 PUSH2 0x182D JUMP JUMPDEST SWAP3 POP POP DUP2 SWAP1 SSTORE POP PUSH0 PUSH1 0x3 PUSH0 SWAP1 SLOAD SWAP1 PUSH2 0x100 EXP SWAP1 DIV PUSH20 0xFFFFFFFFFFFFFFFFFFFFFFFFFFFFFFFFFFFFFFFF AND PUSH20 0xFFFFFFFFFFFFFFFFFFFFFFFFFFFFFFFFFFFFFFFF AND PUSH4 0xAAD4466E DUP7 DUP7 DUP7 ADDRESS PUSH1 0x40 MLOAD DUP6 PUSH4 0xFFFFFFFF AND PUSH1 0xE0 SHL DUP2 MSTORE PUSH1 0x4 ADD PUSH2 0xB71 SWAP5 SWAP4 SWAP3 SWAP2 SWAP1 PUSH2 0x1893 JUMP JUMPDEST PUSH1 0x20 PUSH1 0x40 MLOAD DUP1 DUP4 SUB DUP2 PUSH0 DUP8 GAS CALL ISZERO DUP1 ISZERO PUSH2 0xB8D JUMPI RETURNDATASIZE PUSH0 DUP1 RETURNDATACOPY RETURNDATASIZE PUSH0 REVERT JUMPDEST POP POP POP POP PUSH1 0x40 MLOAD RETURNDATASIZE PUSH1 0x1F NOT PUSH1 0x1F DUP3 ADD AND DUP3 ADD DUP1 PUSH1 0x40 MSTORE POP DUP2 ADD SWAP1 PUSH2 0xBB1 SWAP2 SWAP1 PUSH2 0x18FD JUMP JUMPDEST SWAP1 POP DUP1 DUP3 PUSH1 0x2 ADD PUSH0 DUP7 PUSH20 0xFFFFFFFFFFFFFFFFFFFFFFFFFFFFFFFFFFFFFFFF AND PUSH20 0xFFFFFFFFFFFFFFFFFFFFFFFFFFFFFFFFFFFFFFFF AND DUP2 MSTORE PUSH1 0x20 ADD SWAP1 DUP2 MSTORE PUSH1 0x20 ADD PUSH0 KECCAK256 PUSH0 DUP3 DUP3 SLOAD PUSH2 0xC01 SWAP2 SWAP1 PUSH2 0x1633 JUMP JUMPDEST SWAP3 POP POP DUP2 SWAP1 SSTORE POP DUP4 PUSH20 0xFFFFFFFFFFFFFFFFFFFFFFFFFFFFFFFFFFFFFFFF AND DUP6 PUSH20 0xFFFFFFFFFFFFFFFFFFFFFFFFFFFFFFFFFFFFFFFF AND DUP8 PUSH20 0xFFFFFFFFFFFFFFFFFFFFFFFFFFFFFFFFFFFFFFFF AND PUSH32 0x7C98D1E471158166AC434C9C01540B47ABB40862BBF909EDB2DC73C22229A23F DUP7 PUSH1 0x40 MLOAD PUSH2 0xC7C SWAP2 SWAP1 PUSH2 0x13B3 JUMP JUMPDEST PUSH1 0x40 MLOAD DUP1 SWAP2 SUB SWAP1 LOG4 POP POP POP POP POP POP JUMP JUMPDEST PUSH0 PUSH1 0x20 MSTORE DUP1 PUSH0 MSTORE PUSH1 0x40 PUSH0 KECCAK256 PUSH0 SWAP2 POP SWAP1 POP DUP1 PUSH0 ADD SLOAD SWAP1 DUP1 PUSH1 0x1 ADD SLOAD SWAP1 DUP1 PUSH1 0x3 ADD PUSH0 SWAP1 SLOAD SWAP1 PUSH2 0x100 EXP SWAP1 DIV PUSH1 0xFF AND SWAP1 POP DUP4 JUMP JUMPDEST PUSH0 DUP1 PUSH0 DUP5 PUSH20 0xFFFFFFFFFFFFFFFFFFFFFFFFFFFFFFFFFFFFFFFF AND PUSH20 0xFFFFFFFFFFFFFFFFFFFFFFFFFFFFFFFFFFFFFFFF AND DUP2 MSTORE PUSH1 0x20 ADD SWAP1 DUP2 MSTORE PUSH1 0x20 ADD PUSH0 KECCAK256 PUSH1 0x3 ADD PUSH0 SWAP1 SLOAD SWAP1 PUSH2 0x100 EXP SWAP1 DIV PUSH1 0xFF AND PUSH2 0xD49 JUMPI PUSH1 0x40 MLOAD PUSH32 0x8C379A000000000000000000000000000000000000000000000000000000000 DUP2 MSTORE PUSH1 0x4 ADD PUSH2 0xD40 SWAP1 PUSH2 0x155E JUMP JUMPDEST PUSH1 0x40 MLOAD DUP1 SWAP2 SUB SWAP1 REVERT JUMPDEST PUSH0 DUP1 DUP5 PUSH20 0xFFFFFFFFFFFFFFFFFFFFFFFFFFFFFFFFFFFFFFFF AND PUSH20 0xFFFFFFFFFFFFFFFFFFFFFFFFFFFFFFFFFFFFFFFF AND DUP2 MSTORE PUSH1 0x20 ADD SWAP1 DUP2 MSTORE PUSH1 0x20 ADD PUSH0 KECCAK256 PUSH1 0x2 ADD PUSH0 DUP4 PUSH20 0xFFFFFFFFFFFFFFFFFFFFFFFFFFFFFFFFFFFFFFFF AND PUSH20 0xFFFFFFFFFFFFFFFFFFFFFFFFFFFFFFFFFFFFFFFF AND DUP2 MSTORE PUSH1 0x20 ADD SWAP1 DUP2 MSTORE PUSH1 0x20 ADD PUSH0 KECCAK256 SLOAD SWAP1 POP SWAP3 SWAP2 POP POP JUMP JUMPDEST PUSH1 0x2 PUSH0 SWAP1 SLOAD SWAP1 PUSH2 0x100 EXP SWAP1 DIV PUSH20 0xFFFFFFFFFFFFFFFFFFFFFFFFFFFFFFFFFFFFFFFF AND PUSH20 0xFFFFFFFFFFFFFFFFFFFFFFFFFFFFFFFFFFFFFFFF AND CALLER PUSH20 0xFFFFFFFFFFFFFFFFFFFFFFFFFFFFFFFFFFFFFFFF AND EQ PUSH2 0xE5B JUMPI PUSH1 0x40 MLOAD PUSH32 0x8C379A000000000000000000000000000000000000000000000000000000000 DUP2 MSTORE PUSH1 0x4 ADD PUSH2 0xE52 SWAP1 PUSH2 0x16B0 JUMP JUMPDEST PUSH1 0x40 MLOAD DUP1 SWAP2 SUB SWAP1 REVERT JUMPDEST PUSH1 0x1 DUP1 PUSH0 DUP4 PUSH20 0xFFFFFFFFFFFFFFFFFFFFFFFFFFFFFFFFFFFFFFFF AND PUSH20 0xFFFFFFFFFFFFFFFFFFFFFFFFFFFFFFFFFFFFFFFF AND DUP2 MSTORE PUSH1 0x20 ADD SWAP1 DUP2 MSTORE PUSH1 0x20 ADD PUSH0 KECCAK256 PUSH0 PUSH2 0x100 EXP DUP2 SLOAD DUP2 PUSH1 0xFF MUL NOT AND SWAP1 DUP4 ISZERO ISZERO MUL OR SWAP1 SSTORE POP DUP1 PUSH20 0xFFFFFFFFFFFFFFFFFFFFFFFFFFFFFFFFFFFFFFFF AND PUSH32 0x784C8F4DBF0FFEDD6E72C76501C545A70F8B203B30A26CE542BF92BA87C248A4 PUSH1 0x40 MLOAD PUSH1 0x40 MLOAD DUP1 SWAP2 SUB SWAP1 LOG2 POP JUMP JUMPDEST PUSH0 DUP1 CALLER PUSH20 0xFFFFFFFFFFFFFFFFFFFFFFFFFFFFFFFFFFFFFFFF AND PUSH20 0xFFFFFFFFFFFFFFFFFFFFFFFFFFFFFFFFFFFFFFFF AND DUP2 MSTORE PUSH1 0x20 ADD SWAP1 DUP2 MSTORE PUSH1 0x20 ADD PUSH0 KECCAK256 PUSH1 0x3 ADD PUSH0 SWAP1 SLOAD SWAP1 PUSH2 0x100 EXP SWAP1 DIV PUSH1 0xFF AND PUSH2 0xF80 JUMPI PUSH1 0x40 MLOAD PUSH32 0x8C379A000000000000000000000000000000000000000000000000000000000 DUP2 MSTORE PUSH1 0x4 ADD PUSH2 0xF77 SWAP1 PUSH2 0x155E JUMP JUMPDEST PUSH1 0x40 MLOAD DUP1 SWAP2 SUB SWAP1 REVERT JUMPDEST DUP1 PUSH0 DUP1 CALLER PUSH20 0xFFFFFFFFFFFFFFFFFFFFFFFFFFFFFFFFFFFFFFFF AND PUSH20 0xFFFFFFFFFFFFFFFFFFFFFFFFFFFFFFFFFFFFFFFF AND DUP2 MSTORE PUSH1 0x20 ADD SWAP1 DUP2 MSTORE PUSH1 0x20 ADD PUSH0 KECCAK256 PUSH1 0x2 ADD PUSH0 DUP5 PUSH20 0xFFFFFFFFFFFFFFFFFFFFFFFFFFFFFFFFFFFFFFFF AND PUSH20 0xFFFFFFFFFFFFFFFFFFFFFFFFFFFFFFFFFFFFFFFF AND DUP2 MSTORE PUSH1 0x20 ADD SWAP1 DUP2 MSTORE PUSH1 0x20 ADD PUSH0 KECCAK256 SLOAD LT ISZERO PUSH2 0x103D JUMPI PUSH1 0x40 MLOAD PUSH32 0x8C379A000000000000000000000000000000000000000000000000000000000 DUP2 MSTORE PUSH1 0x4 ADD PUSH2 0x1034 SWAP1 PUSH2 0x17E8 JUMP JUMPDEST PUSH1 0x40 MLOAD DUP1 SWAP2 SUB SWAP1 REVERT JUMPDEST DUP1 PUSH0 DUP1 CALLER PUSH20 0xFFFFFFFFFFFFFFFFFFFFFFFFFFFFFFFFFFFFFFFF AND PUSH20 0xFFFFFFFFFFFFFFFFFFFFFFFFFFFFFFFFFFFFFFFF AND DUP2 MSTORE PUSH1 0x20 ADD SWAP1 DUP2 MSTORE PUSH1 0x20 ADD PUSH0 KECCAK256 PUSH1 0x2 ADD PUSH0 DUP5 PUSH20 0xFFFFFFFFFFFFFFFFFFFFFFFFFFFFFFFFFFFFFFFF AND PUSH20 0xFFFFFFFFFFFFFFFFFFFFFFFFFFFFFFFFFFFFFFFF AND DUP2 MSTORE PUSH1 0x20 ADD SWAP1 DUP2 MSTORE PUSH1 0x20 ADD PUSH0 KECCAK256 PUSH0 DUP3 DUP3 SLOAD PUSH2 0x10C6 SWAP2 SWAP1 PUSH2 0x182D JUMP JUMPDEST SWAP3 POP POP DUP2 SWAP1 SSTORE POP DUP2 PUSH20 0xFFFFFFFFFFFFFFFFFFFFFFFFFFFFFFFFFFFFFFFF AND PUSH4 0xA9059CBB CALLER DUP4 PUSH1 0x40 MLOAD DUP4 PUSH4 0xFFFFFFFF AND PUSH1 0xE0 SHL DUP2 MSTORE PUSH1 0x4 ADD PUSH2 0x1108 SWAP3 SWAP2 SWAP1 PUSH2 0x1806 JUMP JUMPDEST PUSH1 0x20 PUSH1 0x40 MLOAD DUP1 DUP4 SUB DUP2 PUSH0 DUP8 GAS CALL ISZERO DUP1 ISZERO PUSH2 0x1124 JUMPI RETURNDATASIZE PUSH0 DUP1 RETURNDATACOPY RETURNDATASIZE PUSH0 REVERT JUMPDEST POP POP POP POP PUSH1 0x40 MLOAD RETURNDATASIZE PUSH1 0x1F NOT PUSH1 0x1F DUP3 ADD AND DUP3 ADD DUP1 PUSH1 0x40 MSTORE POP DUP2 ADD SWAP1 PUSH2 0x1148 SWAP2 SWAP1 PUSH2 0x15DB JUMP JUMPDEST POP POP POP JUMP JUMPDEST PUSH0 PUSH20 0xFFFFFFFFFFFFFFFFFFFFFFFFFFFFFFFFFFFFFFFF DUP3 AND SWAP1 POP SWAP2 SWAP1 POP JUMP JUMPDEST PUSH0 PUSH2 0x1176 DUP3 PUSH2 0x114D JUMP JUMPDEST SWAP1 POP SWAP2 SWAP1 POP JUMP JUMPDEST PUSH2 0x1186 DUP2 PUSH2 0x116C JUMP JUMPDEST DUP3 MSTORE POP POP JUMP JUMPDEST PUSH0 PUSH1 0x20 DUP3 ADD SWAP1 POP PUSH2 0x119F PUSH0 DUP4 ADD DUP5 PUSH2 0x117D JUMP JUMPDEST SWAP3 SWAP2 POP POP JUMP JUMPDEST PUSH0 DUP1 REVERT JUMPDEST PUSH0 DUP2 SWAP1 POP SWAP2 SWAP1 POP JUMP JUMPDEST PUSH2 0x11BB DUP2 PUSH2 0x11A9 JUMP JUMPDEST DUP2 EQ PUSH2 0x11C5 JUMPI PUSH0 DUP1 REVERT JUMPDEST POP JUMP JUMPDEST PUSH0 DUP2 CALLDATALOAD SWAP1 POP PUSH2 0x11D6 DUP2 PUSH2 0x11B2 JUMP JUMPDEST SWAP3 SWAP2 POP POP JUMP JUMPDEST PUSH0 PUSH1 0x20 DUP3 DUP5 SUB SLT ISZERO PUSH2 0x11F1 JUMPI PUSH2 0x11F0 PUSH2 0x11A5 JUMP JUMPDEST JUMPDEST PUSH0 PUSH2 0x11FE DUP5 DUP3 DUP6 ADD PUSH2 0x11C8 JUMP JUMPDEST SWAP2 POP POP SWAP3 SWAP2 POP POP JUMP JUMPDEST PUSH2 0x1210 DUP2 PUSH2 0x116C JUMP JUMPDEST DUP2 EQ PUSH2 0x121A JUMPI PUSH0 DUP1 REVERT JUMPDEST POP JUMP JUMPDEST PUSH0 DUP2 CALLDATALOAD SWAP1 POP PUSH2 0x122B DUP2 PUSH2 0x1207 JUMP JUMPDEST SWAP3 SWAP2 POP POP JUMP JUMPDEST PUSH0 DUP1 PUSH1 0x40 DUP4 DUP6 SUB SLT ISZERO PUSH2 0x1247 JUMPI PUSH2 0x1246 PUSH2 0x11A5 JUMP JUMPDEST JUMPDEST PUSH0 PUSH2 0x1254 DUP6 DUP3 DUP7 ADD PUSH2 0x121D JUMP JUMPDEST SWAP3 POP POP PUSH1 0x20 PUSH2 0x1265 DUP6 DUP3 DUP7 ADD PUSH2 0x11C8 JUMP JUMPDEST SWAP2 POP POP SWAP3 POP SWAP3 SWAP1 POP JUMP JUMPDEST PUSH0 PUSH1 0x20 DUP3 DUP5 SUB SLT ISZERO PUSH2 0x1284 JUMPI PUSH2 0x1283 PUSH2 0x11A5 JUMP JUMPDEST JUMPDEST PUSH0 PUSH2 0x1291 DUP5 DUP3 DUP6 ADD PUSH2 0x121D JUMP JUMPDEST SWAP2 POP POP SWAP3 SWAP2 POP POP JUMP JUMPDEST PUSH0 DUP2 ISZERO ISZERO SWAP1 POP SWAP2 SWAP1 POP JUMP JUMPDEST PUSH2 0x12AE DUP2 PUSH2 0x129A JUMP JUMPDEST DUP3 MSTORE POP POP JUMP JUMPDEST PUSH0 PUSH1 0x20 DUP3 ADD SWAP1 POP PUSH2 0x12C7 PUSH0 DUP4 ADD DUP5 PUSH2 0x12A5 JUMP JUMPDEST SWAP3 SWAP2 POP POP JUMP JUMPDEST PUSH0 DUP1 PUSH0 DUP1 PUSH1 0x80 DUP6 DUP8 SUB SLT ISZERO PUSH2 0x12E5 JUMPI PUSH2 0x12E4 PUSH2 0x11A5 JUMP JUMPDEST JUMPDEST PUSH0 PUSH2 0x12F2 DUP8 DUP3 DUP9 ADD PUSH2 0x121D JUMP JUMPDEST SWAP5 POP POP PUSH1 0x20 PUSH2 0x1303 DUP8 DUP3 DUP9 ADD PUSH2 0x121D JUMP JUMPDEST SWAP4 POP POP PUSH1 0x40 PUSH2 0x1314 DUP8 DUP3 DUP9 ADD PUSH2 0x121D JUMP JUMPDEST SWAP3 POP POP PUSH1 0x60 PUSH2 0x1325 DUP8 DUP3 DUP9 ADD PUSH2 0x11C8 JUMP JUMPDEST SWAP2 POP POP SWAP3 SWAP6 SWAP2 SWAP5 POP SWAP3 POP JUMP JUMPDEST PUSH2 0x133A DUP2 PUSH2 0x11A9 JUMP JUMPDEST DUP3 MSTORE POP POP JUMP JUMPDEST PUSH0 PUSH1 0x60 DUP3 ADD SWAP1 POP PUSH2 0x1353 PUSH0 DUP4 ADD DUP7 PUSH2 0x1331 JUMP JUMPDEST PUSH2 0x1360 PUSH1 0x20 DUP4 ADD DUP6 PUSH2 0x1331 JUMP JUMPDEST PUSH2 0x136D PUSH1 0x40 DUP4 ADD DUP5 PUSH2 0x12A5 JUMP JUMPDEST SWAP5 SWAP4 POP POP POP POP JUMP JUMPDEST PUSH0 DUP1 PUSH1 0x40 DUP4 DUP6 SUB SLT ISZERO PUSH2 0x138B JUMPI PUSH2 0x138A PUSH2 0x11A5 JUMP JUMPDEST JUMPDEST PUSH0 PUSH2 0x1398 DUP6 DUP3 DUP7 ADD PUSH2 0x121D JUMP JUMPDEST SWAP3 POP POP PUSH1 0x20 PUSH2 0x13A9 DUP6 DUP3 DUP7 ADD PUSH2 0x121D JUMP JUMPDEST SWAP2 POP POP SWAP3 POP SWAP3 SWAP1 POP JUMP JUMPDEST PUSH0 PUSH1 0x20 DUP3 ADD SWAP1 POP PUSH2 0x13C6 PUSH0 DUP4 ADD DUP5 PUSH2 0x1331 JUMP JUMPDEST SWAP3 SWAP2 POP POP JUMP JUMPDEST PUSH0 DUP3 DUP3 MSTORE PUSH1 0x20 DUP3 ADD SWAP1 POP SWAP3 SWAP2 POP POP JUMP JUMPDEST PUSH32 0x496E76616C6964207269736B206C6576656C0000000000000000000000000000 PUSH0 DUP3 ADD MSTORE POP JUMP JUMPDEST PUSH0 PUSH2 0x1410 PUSH1 0x12 DUP4 PUSH2 0x13CC JUMP JUMPDEST SWAP2 POP PUSH2 0x141B DUP3 PUSH2 0x13DC JUMP JUMPDEST PUSH1 0x20 DUP3 ADD SWAP1 POP SWAP2 SWAP1 POP JUMP JUMPDEST PUSH0 PUSH1 0x20 DUP3 ADD SWAP1 POP DUP2 DUP2 SUB PUSH0 DUP4 ADD MSTORE PUSH2 0x143D DUP2 PUSH2 0x1404 JUMP JUMPDEST SWAP1 POP SWAP2 SWAP1 POP JUMP JUMPDEST PUSH32 0x506F7274666F6C696F2065786973747300000000000000000000000000000000 PUSH0 DUP3 ADD MSTORE POP JUMP JUMPDEST PUSH0 PUSH2 0x1478 PUSH1 0x10 DUP4 PUSH2 0x13CC JUMP JUMPDEST SWAP2 POP PUSH2 0x1483 DUP3 PUSH2 0x1444 JUMP JUMPDEST PUSH1 0x20 DUP3 ADD SWAP1 POP SWAP2 SWAP1 POP JUMP JUMPDEST PUSH0 PUSH1 0x20 DUP3 ADD SWAP1 POP DUP2 DUP2 SUB PUSH0 DUP4 ADD MSTORE PUSH2 0x14A5 DUP2 PUSH2 0x146C JUMP JUMPDEST SWAP1 POP SWAP2 SWAP1 POP JUMP JUMPDEST PUSH32 0x546F6B656E206E6F7420617070726F7665640000000000000000000000000000 PUSH0 DUP3 ADD MSTORE POP JUMP JUMPDEST PUSH0 PUSH2 0x14E0 PUSH1 0x12 DUP4 PUSH2 0x13CC JUMP JUMPDEST SWAP2 POP PUSH2 0x14EB DUP3 PUSH2 0x14AC JUMP JUMPDEST PUSH1 0x20 DUP3 ADD SWAP1 POP SWAP2 SWAP1 POP JUMP JUMPDEST PUSH0 PUSH1 0x20 DUP3 ADD SWAP1 POP DUP2 DUP2 SUB PUSH0 DUP4 ADD MSTORE PUSH2 0x150D DUP2 PUSH2 0x14D4 JUMP JUMPDEST SWAP1 POP SWAP2 SWAP1 POP JUMP JUMPDEST PUSH32 0x4E6F2061637469766520706F7274666F6C696F00000000000000000000000000 PUSH0 DUP3 ADD MSTORE POP JUMP JUMPDEST PUSH0 PUSH2 0x1548 PUSH1 0x13 DUP4 PUSH2 0x13CC JUMP JUMPDEST SWAP2 POP PUSH2 0x1553 DUP3 PUSH2 0x1514 JUMP JUMPDEST PUSH1 0x20 DUP3 ADD SWAP1 POP SWAP2 SWAP1 POP JUMP JUMPDEST PUSH0 PUSH1 0x20 DUP3 ADD SWAP1 POP DUP2 DUP2 SUB PUSH0 DUP4 ADD MSTORE PUSH2 0x1575 DUP2 PUSH2 0x153C JUMP JUMPDEST SWAP1 POP SWAP2 SWAP1 POP JUMP JUMPDEST PUSH0 PUSH1 0x60 DUP3 ADD SWAP1 POP PUSH2 0x158F PUSH0 DUP4 ADD DUP7 PUSH2 0x117D JUMP JUMPDEST PUSH2 0x159C PUSH1 0x20 DUP4 ADD DUP6 PUSH2 0x117D JUMP JUMPDEST PUSH2 0x15A9 PUSH1 0x40 DUP4 ADD DUP5 PUSH2 0x1331 JUMP JUMPDEST SWAP5 SWAP4 POP POP POP POP JUMP JUMPDEST PUSH2 0x15BA DUP2 PUSH2 0x129A JUMP JUMPDEST DUP2 EQ PUSH2 0x15C4 JUMPI PUSH0 DUP1 REVERT JUMPDEST POP JUMP JUMPDEST PUSH0 DUP2 MLOAD SWAP1 POP PUSH2 0x15D5 DUP2 PUSH2 0x15B1 JUMP JUMPDEST SWAP3 SWAP2 POP POP JUMP JUMPDEST PUSH0 PUSH1 0x20 DUP3 DUP5 SUB SLT ISZERO PUSH2 0x15F0 JUMPI PUSH2 0x15EF PUSH2 0x11A5 JUMP JUMPDEST JUMPDEST PUSH0 PUSH2 0x15FD DUP5 DUP3 DUP6 ADD PUSH2 0x15C7 JUMP JUMPDEST SWAP2 POP POP SWAP3 SWAP2 POP POP JUMP JUMPDEST PUSH32 0x4E487B7100000000000000000000000000000000000000000000000000000000 PUSH0 MSTORE PUSH1 0x11 PUSH1 0x4 MSTORE PUSH1 0x24 PUSH0 REVERT JUMPDEST PUSH0 PUSH2 0x163D DUP3 PUSH2 0x11A9 JUMP JUMPDEST SWAP2 POP PUSH2 0x1648 DUP4 PUSH2 0x11A9 JUMP JUMPDEST SWAP3 POP DUP3 DUP3 ADD SWAP1 POP DUP1 DUP3 GT ISZERO PUSH2 0x1660 JUMPI PUSH2 0x165F PUSH2 0x1606 JUMP JUMPDEST JUMPDEST SWAP3 SWAP2 POP POP JUMP JUMPDEST PUSH32 0x4E6F74206F776E65720000000000000000000000000000000000000000000000 PUSH0 DUP3 ADD MSTORE POP JUMP JUMPDEST PUSH0 PUSH2 0x169A PUSH1 0x9 DUP4 PUSH2 0x13CC JUMP JUMPDEST SWAP2 POP PUSH2 0x16A5 DUP3 PUSH2 0x1666 JUMP JUMPDEST PUSH1 0x20 DUP3 ADD SWAP1 POP SWAP2 SWAP1 POP JUMP JUMPDEST PUSH0 PUSH1 0x20 DUP3 ADD SWAP1 POP DUP2 DUP2 SUB PUSH0 DUP4 ADD MSTORE PUSH2 0x16C7 DUP2 PUSH2 0x168E JUMP JUMPDEST SWAP1 POP SWAP2 SWAP1 POP JUMP JUMPDEST PUSH32 0x4E6F742041492074726164657200000000000000000000000000000000000000 PUSH0 DUP3 ADD MSTORE POP JUMP JUMPDEST PUSH0 PUSH2 0x1702 PUSH1 0xD DUP4 PUSH2 0x13CC JUMP JUMPDEST SWAP2 POP PUSH2 0x170D DUP3 PUSH2 0x16CE JUMP JUMPDEST PUSH1 0x20 DUP3 ADD SWAP1 POP SWAP2 SWAP1 POP JUMP JUMPDEST PUSH0 PUSH1 0x20 DUP3 ADD SWAP1 POP DUP2 DUP2 SUB PUSH0 DUP4 ADD MSTORE PUSH2 0x172F DUP2 PUSH2 0x16F6 JUMP JUMPDEST SWAP1 POP SWAP2 SWAP1 POP JUMP JUMPDEST PUSH32 0x556E617070726F76656420746F6B656E73000000000000000000000000000000 PUSH0 DUP3 ADD MSTORE POP JUMP JUMPDEST PUSH0 PUSH2 0x176A PUSH1 0x11 DUP4 PUSH2 0x13CC JUMP JUMPDEST SWAP2 POP PUSH2 0x1775 DUP3 PUSH2 0x1736 JUMP JUMPDEST PUSH1 0x20 DUP3 ADD SWAP1 POP SWAP2 SWAP1 POP JUMP JUMPDEST PUSH0 PUSH1 0x20 DUP3 ADD SWAP1 POP DUP2 DUP2 SUB PUSH0 DUP4 ADD MSTORE PUSH2 0x1797 DUP2 PUSH2 0x175E JUMP JUMPDEST SWAP1 POP SWAP2 SWAP1 POP JUMP JUMPDEST PUSH32 0x496E73756666696369656E742062616C616E6365000000000000000000000000 PUSH0 DUP3 ADD MSTORE POP JUMP JUMPDEST PUSH0 PUSH2 0x17D2 PUSH1 0x14 DUP4 PUSH2 0x13CC JUMP JUMPDEST SWAP2 POP PUSH2 0x17DD DUP3 PUSH2 0x179E JUMP JUMPDEST PUSH1 0x20 DUP3 ADD SWAP1 POP SWAP2 SWAP1 POP JUMP JUMPDEST PUSH0 PUSH1 0x20 DUP3 ADD SWAP1 POP DUP2 DUP2 SUB PUSH0 DUP4 ADD MSTORE PUSH2 0x17FF DUP2 PUSH2 0x17C6 JUMP JUMPDEST SWAP1 POP SWAP2 SWAP1 POP JUMP JUMPDEST PUSH0 PUSH1 0x40 DUP3 ADD SWAP1 POP PUSH2 0x1819 PUSH0 DUP4 ADD DUP6 PUSH2 0x117D JUMP JUMPDEST PUSH2 0x1826 PUSH1 0x20 DUP4 ADD DUP5 PUSH2 0x1331 JUMP JUMPDEST SWAP4 SWAP3 POP POP POP JUMP JUMPDEST PUSH0 PUSH2 0x1837 DUP3 PUSH2 0x11A9 JUMP JUMPDEST SWAP2 POP PUSH2 0x1842 DUP4 PUSH2 0x11A9 JUMP JUMPDEST SWAP3 POP DUP3 DUP3 SUB SWAP1 POP DUP2 DUP2 GT ISZERO PUSH2 0x185A JUMPI PUSH2 0x1859 PUSH2 0x1606 JUMP JUMPDEST JUMPDEST SWAP3 SWAP2 POP POP JUMP JUMPDEST PUSH0 DUP3 DUP3 MSTORE PUSH1 0x20 DUP3 ADD SWAP1 POP SWAP3 SWAP2 POP POP JUMP JUMPDEST POP JUMP JUMPDEST PUSH0 PUSH2 0x187E PUSH0 DUP4 PUSH2 0x1860 JUMP JUMPDEST SWAP2 POP PUSH2 0x1889 DUP3 PUSH2 0x1870 JUMP JUMPDEST PUSH0 DUP3 ADD SWAP1 POP SWAP2 SWAP1 POP JUMP JUMPDEST PUSH0 PUSH1 0xA0 DUP3 ADD SWAP1 POP PUSH2 0x18A6 PUSH0 DUP4 ADD DUP8 PUSH2 0x117D JUMP JUMPDEST PUSH2 0x18B3 PUSH1 0x20 DUP4 ADD DUP7 PUSH2 0x117D JUMP JUMPDEST PUSH2 0x18C0 PUSH1 0x40 DUP4 ADD DUP6 PUSH2 0x1331 JUMP JUMPDEST PUSH2 0x18CD PUSH1 0x60 DUP4 ADD DUP5 PUSH2 0x117D JUMP JUMPDEST DUP2 DUP2 SUB PUSH1 0x80 DUP4 ADD MSTORE PUSH2 0x18DE DUP2 PUSH2 0x1873 JUMP JUMPDEST SWAP1 POP SWAP6 SWAP5 POP POP POP POP POP JUMP JUMPDEST PUSH0 DUP2 MLOAD SWAP1 POP PUSH2 0x18F7 DUP2 PUSH2 0x11B2 JUMP JUMPDEST SWAP3 SWAP2 POP POP JUMP JUMPDEST PUSH0 PUSH1 0x20 DUP3 DUP5 SUB SLT ISZERO PUSH2 0x1912 JUMPI PUSH2 0x1911 PUSH2 0x11A5 JUMP JUMPDEST JUMPDEST PUSH0 PUSH2 0x191F DUP5 DUP3 DUP6 ADD PUSH2 0x18E9 JUMP JUMPDEST SWAP2 POP POP SWAP3 SWAP2 POP POP JUMP INVALID LOG2 PUSH5 0x6970667358 0x22 SLT KECCAK256 0xB1 0xAE 0xE5 TSTORE PUSH7 0x8C115A6DFCC7D 0xC0 TLOAD 0xDD 0xC 0xCD SWAP13 SHL 0x2B 0x1E 0x23 0xBB MSTORE 0xA8 KECCAK256 PUSH25 0xC3F15B3EF964736F6C634300081A0033000000000000000000 "
				},
				"gasEstimates": {
					"creation": {
						"codeDepositCost": "1298800",
						"executionCost": "infinite",
						"totalCost": "infinite"
					},
					"external": {
						"addToken(address)": "28221",
						"aiTrader()": "2509",
						"approvedTokens(address)": "2922",
						"createPortfolio(uint256)": "infinite",
						"deposit(address,uint256)": "infinite",
						"executeAITrade(address,address,address,uint256)": "infinite",
						"getTokenBalance(address,address)": "infinite",
						"owner()": "2508",
						"removeToken(address)": "28199",
						"userPortfolios(address)": "infinite",
						"withdraw(address,uint256)": "infinite"
					}
				},
				"methodIdentifiers": {
					"addToken(address)": "d48bfca7",
					"aiTrader()": "138a5e25",
					"approvedTokens(address)": "6d1ea3fa",
					"createPortfolio(uint256)": "43b25452",
					"deposit(address,uint256)": "47e7ef24",
					"executeAITrade(address,address,address,uint256)": "b1d6e59d",
					"getTokenBalance(address,address)": "c489744b",
					"owner()": "8da5cb5b",
					"removeToken(address)": "5fa7b584",
					"userPortfolios(address)": "b61920c1",
					"withdraw(address,uint256)": "f3fef3a3"
				}
			},
			"storageLayout": {
				"storage": [
					{
						"astId": 70,
						"contract": "contracts/PortfolioManager.sol:PortfolioManager",
						"label": "userPortfolios",
						"offset": 0,
						"slot": "0",
						"type": "t_mapping(t_address,t_struct(Portfolio)65_storage)"
					},
					{
						"astId": 74,
						"contract": "contracts/PortfolioManager.sol:PortfolioManager",
						"label": "approvedTokens",
						"offset": 0,
						"slot": "1",
						"type": "t_mapping(t_address,t_bool)"
					},
					{
						"astId": 76,
						"contract": "contracts/PortfolioManager.sol:PortfolioManager",
						"label": "owner",
						"offset": 0,
						"slot": "2",
						"type": "t_address"
					},
					{
						"astId": 78,
						"contract": "contracts/PortfolioManager.sol:PortfolioManager",
						"label": "aiTrader",
						"offset": 0,
						"slot": "3",
						"type": "t_address"
					}
				],
				"types": {
					"t_address": {
						"encoding": "inplace",
						"label": "address",
						"numberOfBytes": "20"
					},
					"t_bool": {
						"encoding": "inplace",
						"label": "bool",
						"numberOfBytes": "1"
					},
					"t_mapping(t_address,t_bool)": {
						"encoding": "mapping",
						"key": "t_address",
						"label": "mapping(address => bool)",
						"numberOfBytes": "32",
						"value": "t_bool"
					},
					"t_mapping(t_address,t_struct(Portfolio)65_storage)": {
						"encoding": "mapping",
						"key": "t_address",
						"label": "mapping(address => struct PortfolioManager.Portfolio)",
						"numberOfBytes": "32",
						"value": "t_struct(Portfolio)65_storage"
					},
					"t_mapping(t_address,t_uint256)": {
						"encoding": "mapping",
						"key": "t_address",
						"label": "mapping(address => uint256)",
						"numberOfBytes": "32",
						"value": "t_uint256"
					},
					"t_struct(Portfolio)65_storage": {
						"encoding": "inplace",
						"label": "struct PortfolioManager.Portfolio",
						"members": [
							{
								"astId": 56,
								"contract": "contracts/PortfolioManager.sol:PortfolioManager",
								"label": "totalValue",
								"offset": 0,
								"slot": "0",
								"type": "t_uint256"
							},
							{
								"astId": 58,
								"contract": "contracts/PortfolioManager.sol:PortfolioManager",
								"label": "riskLevel",
								"offset": 0,
								"slot": "1",
								"type": "t_uint256"
							},
							{
								"astId": 62,
								"contract": "contracts/PortfolioManager.sol:PortfolioManager",
								"label": "tokenBalances",
								"offset": 0,
								"slot": "2",
								"type": "t_mapping(t_address,t_uint256)"
							},
							{
								"astId": 64,
								"contract": "contracts/PortfolioManager.sol:PortfolioManager",
								"label": "isActive",
								"offset": 0,
								"slot": "3",
								"type": "t_bool"
							}
						],
						"numberOfBytes": "128"
					},
					"t_uint256": {
						"encoding": "inplace",
						"label": "uint256",
						"numberOfBytes": "32"
					}
				}
			},
			"userdoc": {
				"kind": "user",
				"methods": {},
				"version": 1
			}
		}
	}
}