{
	"contracts/PortfolioManager.sol": {
		"PortfolioManager": {
			"abi": [
				{
					"inputs": [
						{
							"internalType": "address",
							"name": "_aiTrader",
							"type": "address"
						}
					],
					"stateMutability": "nonpayable",
					"type": "constructor"
				},
				{
					"anonymous": false,
					"inputs": [
						{
							"indexed": true,
							"internalType": "address",
							"name": "user",
							"type": "address"
						},
						{
							"indexed": false,
							"internalType": "uint256",
							"name": "riskLevel",
							"type": "uint256"
						}
					],
					"name": "PortfolioCreated",
					"type": "event"
				},
				{
					"anonymous": false,
					"inputs": [
						{
							"indexed": true,
							"internalType": "address",
							"name": "token",
							"type": "address"
						}
					],
					"name": "TokenAdded",
					"type": "event"
				},
				{
					"anonymous": false,
					"inputs": [
						{
							"indexed": true,
							"internalType": "address",
							"name": "token",
							"type": "address"
						}
					],
					"name": "TokenRemoved",
					"type": "event"
				},
				{
					"anonymous": false,
					"inputs": [
						{
							"indexed": true,
							"internalType": "address",
							"name": "user",
							"type": "address"
						},
						{
							"indexed": true,
							"internalType": "address",
							"name": "tokenIn",
							"type": "address"
						},
						{
							"indexed": true,
							"internalType": "address",
							"name": "tokenOut",
							"type": "address"
						},
						{
							"indexed": false,
							"internalType": "uint256",
							"name": "amount",
							"type": "uint256"
						}
					],
					"name": "TradeExecuted",
					"type": "event"
				},
				{
					"inputs": [
						{
							"internalType": "address",
							"name": "_token",
							"type": "address"
						}
					],
					"name": "addToken",
					"outputs": [],
					"stateMutability": "nonpayable",
					"type": "function"
				},
				{
					"inputs": [],
					"name": "aiTrader",
					"outputs": [
						{
							"internalType": "address",
							"name": "",
							"type": "address"
						}
					],
					"stateMutability": "view",
					"type": "function"
				},
				{
					"inputs": [
						{
							"internalType": "address",
							"name": "",
							"type": "address"
						}
					],
					"name": "approvedTokens",
					"outputs": [
						{
							"internalType": "bool",
							"name": "",
							"type": "bool"
						}
					],
					"stateMutability": "view",
					"type": "function"
				},
				{
					"inputs": [
						{
							"internalType": "uint256",
							"name": "_riskLevel",
							"type": "uint256"
						}
					],
					"name": "createPortfolio",
					"outputs": [],
					"stateMutability": "nonpayable",
					"type": "function"
				},
				{
					"inputs": [
						{
							"internalType": "address",
							"name": "_token",
							"type": "address"
						},
						{
							"internalType": "uint256",
							"name": "_amount",
							"type": "uint256"
						}
					],
					"name": "deposit",
					"outputs": [],
					"stateMutability": "nonpayable",
					"type": "function"
				},
				{
					"inputs": [
						{
							"internalType": "address",
							"name": "_user",
							"type": "address"
						},
						{
							"internalType": "address",
							"name": "_tokenIn",
							"type": "address"
						},
						{
							"internalType": "address",
							"name": "_tokenOut",
							"type": "address"
						},
						{
							"internalType": "uint256",
							"name": "_amount",
							"type": "uint256"
						}
					],
					"name": "executeAITrade",
					"outputs": [],
					"stateMutability": "nonpayable",
					"type": "function"
				},
				{
					"inputs": [],
					"name": "owner",
					"outputs": [
						{
							"internalType": "address",
							"name": "",
							"type": "address"
						}
					],
					"stateMutability": "view",
					"type": "function"
				},
				{
					"inputs": [
						{
							"internalType": "address",
							"name": "_token",
							"type": "address"
						}
					],
					"name": "removeToken",
					"outputs": [],
					"stateMutability": "nonpayable",
					"type": "function"
				},
				{
					"inputs": [
						{
							"internalType": "address",
							"name": "",
							"type": "address"
						}
					],
					"name": "userPortfolios",
					"outputs": [
						{
							"internalType": "uint256",
							"name": "totalValue",
							"type": "uint256"
						},
						{
							"internalType": "uint256",
							"name": "riskLevel",
							"type": "uint256"
						},
						{
							"internalType": "bool",
							"name": "isActive",
							"type": "bool"
						}
					],
					"stateMutability": "view",
					"type": "function"
				},
				{
					"inputs": [
						{
							"internalType": "address",
							"name": "_token",
							"type": "address"
						},
						{
							"internalType": "uint256",
							"name": "_amount",
							"type": "uint256"
						}
					],
					"name": "withdraw",
					"outputs": [],
					"stateMutability": "nonpayable",
					"type": "function"
				}
			],
			"devdoc": {
				"kind": "dev",
				"methods": {},
				"version": 1
			},
			"evm": {
				"assembly": "    /* \"contracts/PortfolioManager.sol\":470:3842  contract PortfolioManager {... */\n  mstore(0x40, 0x80)\n    /* \"contracts/PortfolioManager.sol\":1172:1268  constructor(address _aiTrader) {... */\n  callvalue\n  dup1\n  iszero\n  tag_1\n  jumpi\n  0x00\n  dup1\n  revert\ntag_1:\n  pop\n  mload(0x40)\n  sub(codesize, bytecodeSize)\n  dup1\n  bytecodeSize\n  dup4\n  codecopy\n  dup2\n  dup2\n  add\n  0x40\n  mstore\n  dup2\n  add\n  swap1\n  tag_2\n  swap2\n  swap1\n  tag_3\n  jump\t// in\ntag_2:\n    /* \"contracts/PortfolioManager.sol\":1221:1231  msg.sender */\n  caller\n    /* \"contracts/PortfolioManager.sol\":1213:1218  owner */\n  0x02\n  0x00\n    /* \"contracts/PortfolioManager.sol\":1213:1231  owner = msg.sender */\n  0x0100\n  exp\n  dup2\n  sload\n  dup2\n  0xffffffffffffffffffffffffffffffffffffffff\n  mul\n  not\n  and\n  swap1\n  dup4\n  0xffffffffffffffffffffffffffffffffffffffff\n  and\n  mul\n  or\n  swap1\n  sstore\n  pop\n    /* \"contracts/PortfolioManager.sol\":1252:1261  _aiTrader */\n  dup1\n    /* \"contracts/PortfolioManager.sol\":1241:1249  aiTrader */\n  0x03\n  0x00\n    /* \"contracts/PortfolioManager.sol\":1241:1261  aiTrader = _aiTrader */\n  0x0100\n  exp\n  dup2\n  sload\n  dup2\n  0xffffffffffffffffffffffffffffffffffffffff\n  mul\n  not\n  and\n  swap1\n  dup4\n  0xffffffffffffffffffffffffffffffffffffffff\n  and\n  mul\n  or\n  swap1\n  sstore\n  pop\n    /* \"contracts/PortfolioManager.sol\":1172:1268  constructor(address _aiTrader) {... */\n  pop\n    /* \"contracts/PortfolioManager.sol\":470:3842  contract PortfolioManager {... */\n  jump(tag_6)\n    /* \"#utility.yul\":88:205   */\ntag_8:\n    /* \"#utility.yul\":197:198   */\n  0x00\n    /* \"#utility.yul\":194:195   */\n  dup1\n    /* \"#utility.yul\":187:199   */\n  revert\n    /* \"#utility.yul\":334:460   */\ntag_10:\n    /* \"#utility.yul\":371:378   */\n  0x00\n    /* \"#utility.yul\":411:453   */\n  0xffffffffffffffffffffffffffffffffffffffff\n    /* \"#utility.yul\":404:409   */\n  dup3\n    /* \"#utility.yul\":400:454   */\n  and\n    /* \"#utility.yul\":389:454   */\n  swap1\n  pop\n    /* \"#utility.yul\":334:460   */\n  swap2\n  swap1\n  pop\n  jump\t// out\n    /* \"#utility.yul\":466:562   */\ntag_11:\n    /* \"#utility.yul\":503:510   */\n  0x00\n    /* \"#utility.yul\":532:556   */\n  tag_20\n    /* \"#utility.yul\":550:555   */\n  dup3\n    /* \"#utility.yul\":532:556   */\n  tag_10\n  jump\t// in\ntag_20:\n    /* \"#utility.yul\":521:556   */\n  swap1\n  pop\n    /* \"#utility.yul\":466:562   */\n  swap2\n  swap1\n  pop\n  jump\t// out\n    /* \"#utility.yul\":568:690   */\ntag_12:\n    /* \"#utility.yul\":641:665   */\n  tag_22\n    /* \"#utility.yul\":659:664   */\n  dup2\n    /* \"#utility.yul\":641:665   */\n  tag_11\n  jump\t// in\ntag_22:\n    /* \"#utility.yul\":634:639   */\n  dup2\n    /* \"#utility.yul\":631:666   */\n  eq\n    /* \"#utility.yul\":621:684   */\n  tag_23\n  jumpi\n    /* \"#utility.yul\":680:681   */\n  0x00\n    /* \"#utility.yul\":677:678   */\n  dup1\n    /* \"#utility.yul\":670:682   */\n  revert\n    /* \"#utility.yul\":621:684   */\ntag_23:\n    /* \"#utility.yul\":568:690   */\n  pop\n  jump\t// out\n    /* \"#utility.yul\":696:839   */\ntag_13:\n    /* \"#utility.yul\":753:758   */\n  0x00\n    /* \"#utility.yul\":784:790   */\n  dup2\n    /* \"#utility.yul\":778:791   */\n  mload\n    /* \"#utility.yul\":769:791   */\n  swap1\n  pop\n    /* \"#utility.yul\":800:833   */\n  tag_25\n    /* \"#utility.yul\":827:832   */\n  dup2\n    /* \"#utility.yul\":800:833   */\n  tag_12\n  jump\t// in\ntag_25:\n    /* \"#utility.yul\":696:839   */\n  swap3\n  swap2\n  pop\n  pop\n  jump\t// out\n    /* \"#utility.yul\":845:1196   */\ntag_3:\n    /* \"#utility.yul\":915:921   */\n  0x00\n    /* \"#utility.yul\":964:966   */\n  0x20\n    /* \"#utility.yul\":952:961   */\n  dup3\n    /* \"#utility.yul\":943:950   */\n  dup5\n    /* \"#utility.yul\":939:962   */\n  sub\n    /* \"#utility.yul\":935:967   */\n  slt\n    /* \"#utility.yul\":932:1051   */\n  iszero\n  tag_27\n  jumpi\n    /* \"#utility.yul\":970:1049   */\n  tag_28\n  tag_8\n  jump\t// in\ntag_28:\n    /* \"#utility.yul\":932:1051   */\ntag_27:\n    /* \"#utility.yul\":1090:1091   */\n  0x00\n    /* \"#utility.yul\":1115:1179   */\n  tag_29\n    /* \"#utility.yul\":1171:1178   */\n  dup5\n    /* \"#utility.yul\":1162:1168   */\n  dup3\n    /* \"#utility.yul\":1151:1160   */\n  dup6\n    /* \"#utility.yul\":1147:1169   */\n  add\n    /* \"#utility.yul\":1115:1179   */\n  tag_13\n  jump\t// in\ntag_29:\n    /* \"#utility.yul\":1105:1179   */\n  swap2\n  pop\n    /* \"#utility.yul\":1061:1189   */\n  pop\n    /* \"#utility.yul\":845:1196   */\n  swap3\n  swap2\n  pop\n  pop\n  jump\t// out\n    /* \"contracts/PortfolioManager.sol\":470:3842  contract PortfolioManager {... */\ntag_6:\n  dataSize(sub_0)\n  dup1\n  dataOffset(sub_0)\n  0x00\n  codecopy\n  0x00\n  return\nstop\n\nsub_0: assembly {\n        /* \"contracts/PortfolioManager.sol\":470:3842  contract PortfolioManager {... */\n      mstore(0x40, 0x80)\n      callvalue\n      dup1\n      iszero\n      tag_1\n      jumpi\n      0x00\n      dup1\n      revert\n    tag_1:\n      pop\n      jumpi(tag_2, lt(calldatasize, 0x04))\n      shr(0xe0, calldataload(0x00))\n      dup1\n      0x8da5cb5b\n      gt\n      tag_13\n      jumpi\n      dup1\n      0x8da5cb5b\n      eq\n      tag_8\n      jumpi\n      dup1\n      0xb1d6e59d\n      eq\n      tag_9\n      jumpi\n      dup1\n      0xb61920c1\n      eq\n      tag_10\n      jumpi\n      dup1\n      0xd48bfca7\n      eq\n      tag_11\n      jumpi\n      dup1\n      0xf3fef3a3\n      eq\n      tag_12\n      jumpi\n      jump(tag_2)\n    tag_13:\n      dup1\n      0x138a5e25\n      eq\n      tag_3\n      jumpi\n      dup1\n      0x43b25452\n      eq\n      tag_4\n      jumpi\n      dup1\n      0x47e7ef24\n      eq\n      tag_5\n      jumpi\n      dup1\n      0x5fa7b584\n      eq\n      tag_6\n      jumpi\n      dup1\n      0x6d1ea3fa\n      eq\n      tag_7\n      jumpi\n    tag_2:\n      0x00\n      dup1\n      revert\n        /* \"contracts/PortfolioManager.sol\":828:851  address public aiTrader */\n    tag_3:\n      tag_14\n      tag_15\n      jump\t// in\n    tag_14:\n      mload(0x40)\n      tag_16\n      swap2\n      swap1\n      tag_17\n      jump\t// in\n    tag_16:\n      mload(0x40)\n      dup1\n      swap2\n      sub\n      swap1\n      return\n        /* \"contracts/PortfolioManager.sol\":1470:1890  function createPortfolio(uint256 _riskLevel) external {... */\n    tag_4:\n      tag_18\n      0x04\n      dup1\n      calldatasize\n      sub\n      dup2\n      add\n      swap1\n      tag_19\n      swap2\n      swap1\n      tag_20\n      jump\t// in\n    tag_19:\n      tag_21\n      jump\t// in\n    tag_18:\n      stop\n        /* \"contracts/PortfolioManager.sol\":3081:3430  function deposit(address _token, uint256 _amount) external {... */\n    tag_5:\n      tag_22\n      0x04\n      dup1\n      calldatasize\n      sub\n      dup2\n      add\n      swap1\n      tag_23\n      swap2\n      swap1\n      tag_24\n      jump\t// in\n    tag_23:\n      tag_25\n      jump\t// in\n    tag_22:\n      stop\n        /* \"contracts/PortfolioManager.sol\":2034:2172  function removeToken(address _token) external onlyOwner {... */\n    tag_6:\n      tag_26\n      0x04\n      dup1\n      calldatasize\n      sub\n      dup2\n      add\n      swap1\n      tag_27\n      swap2\n      swap1\n      tag_28\n      jump\t// in\n    tag_27:\n      tag_29\n      jump\t// in\n    tag_26:\n      stop\n        /* \"contracts/PortfolioManager.sol\":750:796  mapping(address => bool) public approvedTokens */\n    tag_7:\n      tag_30\n      0x04\n      dup1\n      calldatasize\n      sub\n      dup2\n      add\n      swap1\n      tag_31\n      swap2\n      swap1\n      tag_28\n      jump\t// in\n    tag_31:\n      tag_32\n      jump\t// in\n    tag_30:\n      mload(0x40)\n      tag_33\n      swap2\n      swap1\n      tag_34\n      jump\t// in\n    tag_33:\n      mload(0x40)\n      dup1\n      swap2\n      sub\n      swap1\n      return\n        /* \"contracts/PortfolioManager.sol\":802:822  address public owner */\n    tag_8:\n      tag_35\n      tag_36\n      jump\t// in\n    tag_35:\n      mload(0x40)\n      tag_37\n      swap2\n      swap1\n      tag_17\n      jump\t// in\n    tag_37:\n      mload(0x40)\n      dup1\n      swap2\n      sub\n      swap1\n      return\n        /* \"contracts/PortfolioManager.sol\":2178:3075  function executeAITrade(... */\n    tag_9:\n      tag_38\n      0x04\n      dup1\n      calldatasize\n      sub\n      dup2\n      add\n      swap1\n      tag_39\n      swap2\n      swap1\n      tag_40\n      jump\t// in\n    tag_39:\n      tag_41\n      jump\t// in\n    tag_38:\n      stop\n        /* \"contracts/PortfolioManager.sol\":693:744  mapping(address => Portfolio) public userPortfolios */\n    tag_10:\n      tag_42\n      0x04\n      dup1\n      calldatasize\n      sub\n      dup2\n      add\n      swap1\n      tag_43\n      swap2\n      swap1\n      tag_28\n      jump\t// in\n    tag_43:\n      tag_44\n      jump\t// in\n    tag_42:\n      mload(0x40)\n      tag_45\n      swap4\n      swap3\n      swap2\n      swap1\n      tag_46\n      jump\t// in\n    tag_45:\n      mload(0x40)\n      dup1\n      swap2\n      sub\n      swap1\n      return\n        /* \"contracts/PortfolioManager.sol\":1896:2028  function addToken(address _token) external onlyOwner {... */\n    tag_11:\n      tag_47\n      0x04\n      dup1\n      calldatasize\n      sub\n      dup2\n      add\n      swap1\n      tag_48\n      swap2\n      swap1\n      tag_28\n      jump\t// in\n    tag_48:\n      tag_49\n      jump\t// in\n    tag_47:\n      stop\n        /* \"contracts/PortfolioManager.sol\":3436:3840  function withdraw(address _token, uint256 _amount) external {... */\n    tag_12:\n      tag_50\n      0x04\n      dup1\n      calldatasize\n      sub\n      dup2\n      add\n      swap1\n      tag_51\n      swap2\n      swap1\n      tag_24\n      jump\t// in\n    tag_51:\n      tag_52\n      jump\t// in\n    tag_50:\n      stop\n        /* \"contracts/PortfolioManager.sol\":828:851  address public aiTrader */\n    tag_15:\n      0x03\n      0x00\n      swap1\n      sload\n      swap1\n      0x0100\n      exp\n      swap1\n      div\n      0xffffffffffffffffffffffffffffffffffffffff\n      and\n      dup2\n      jump\t// out\n        /* \"contracts/PortfolioManager.sol\":1470:1890  function createPortfolio(uint256 _riskLevel) external {... */\n    tag_21:\n        /* \"contracts/PortfolioManager.sol\":1555:1556  0 */\n      0x00\n        /* \"contracts/PortfolioManager.sol\":1542:1552  _riskLevel */\n      dup2\n        /* \"contracts/PortfolioManager.sol\":1542:1556  _riskLevel > 0 */\n      gt\n        /* \"contracts/PortfolioManager.sol\":1542:1576  _riskLevel > 0 && _riskLevel <= 10 */\n      dup1\n      iszero\n      tag_54\n      jumpi\n      pop\n        /* \"contracts/PortfolioManager.sol\":1574:1576  10 */\n      0x0a\n        /* \"contracts/PortfolioManager.sol\":1560:1570  _riskLevel */\n      dup2\n        /* \"contracts/PortfolioManager.sol\":1560:1576  _riskLevel <= 10 */\n      gt\n      iszero\n        /* \"contracts/PortfolioManager.sol\":1542:1576  _riskLevel > 0 && _riskLevel <= 10 */\n    tag_54:\n        /* \"contracts/PortfolioManager.sol\":1534:1599  require(_riskLevel > 0 && _riskLevel <= 10, \"Invalid risk level\") */\n      tag_55\n      jumpi\n      mload(0x40)\n      0x08c379a000000000000000000000000000000000000000000000000000000000\n      dup2\n      mstore\n      0x04\n      add\n      tag_56\n      swap1\n      tag_57\n      jump\t// in\n    tag_56:\n      mload(0x40)\n      dup1\n      swap2\n      sub\n      swap1\n      revert\n    tag_55:\n        /* \"contracts/PortfolioManager.sol\":1618:1632  userPortfolios */\n      0x00\n        /* \"contracts/PortfolioManager.sol\":1618:1644  userPortfolios[msg.sender] */\n      dup1\n        /* \"contracts/PortfolioManager.sol\":1633:1643  msg.sender */\n      caller\n        /* \"contracts/PortfolioManager.sol\":1618:1644  userPortfolios[msg.sender] */\n      0xffffffffffffffffffffffffffffffffffffffff\n      and\n      0xffffffffffffffffffffffffffffffffffffffff\n      and\n      dup2\n      mstore\n      0x20\n      add\n      swap1\n      dup2\n      mstore\n      0x20\n      add\n      0x00\n      keccak256\n        /* \"contracts/PortfolioManager.sol\":1618:1653  userPortfolios[msg.sender].isActive */\n      0x03\n      add\n      0x00\n      swap1\n      sload\n      swap1\n      0x0100\n      exp\n      swap1\n      div\n      0xff\n      and\n        /* \"contracts/PortfolioManager.sol\":1617:1653  !userPortfolios[msg.sender].isActive */\n      iszero\n        /* \"contracts/PortfolioManager.sol\":1609:1674  require(!userPortfolios[msg.sender].isActive, \"Portfolio exists\") */\n      tag_58\n      jumpi\n      mload(0x40)\n      0x08c379a000000000000000000000000000000000000000000000000000000000\n      dup2\n      mstore\n      0x04\n      add\n      tag_59\n      swap1\n      tag_60\n      jump\t// in\n    tag_59:\n      mload(0x40)\n      dup1\n      swap2\n      sub\n      swap1\n      revert\n    tag_58:\n        /* \"contracts/PortfolioManager.sol\":1685:1715  Portfolio storage newPortfolio */\n      0x00\n        /* \"contracts/PortfolioManager.sol\":1718:1732  userPortfolios */\n      dup1\n        /* \"contracts/PortfolioManager.sol\":1718:1744  userPortfolios[msg.sender] */\n      0x00\n        /* \"contracts/PortfolioManager.sol\":1733:1743  msg.sender */\n      caller\n        /* \"contracts/PortfolioManager.sol\":1718:1744  userPortfolios[msg.sender] */\n      0xffffffffffffffffffffffffffffffffffffffff\n      and\n      0xffffffffffffffffffffffffffffffffffffffff\n      and\n      dup2\n      mstore\n      0x20\n      add\n      swap1\n      dup2\n      mstore\n      0x20\n      add\n      0x00\n      keccak256\n        /* \"contracts/PortfolioManager.sol\":1685:1744  Portfolio storage newPortfolio = userPortfolios[msg.sender] */\n      swap1\n      pop\n        /* \"contracts/PortfolioManager.sol\":1779:1789  _riskLevel */\n      dup2\n        /* \"contracts/PortfolioManager.sol\":1754:1766  newPortfolio */\n      dup2\n        /* \"contracts/PortfolioManager.sol\":1754:1776  newPortfolio.riskLevel */\n      0x01\n      add\n        /* \"contracts/PortfolioManager.sol\":1754:1789  newPortfolio.riskLevel = _riskLevel */\n      dup2\n      swap1\n      sstore\n      pop\n        /* \"contracts/PortfolioManager.sol\":1823:1827  true */\n      0x01\n        /* \"contracts/PortfolioManager.sol\":1799:1811  newPortfolio */\n      dup2\n        /* \"contracts/PortfolioManager.sol\":1799:1820  newPortfolio.isActive */\n      0x03\n      add\n      0x00\n        /* \"contracts/PortfolioManager.sol\":1799:1827  newPortfolio.isActive = true */\n      0x0100\n      exp\n      dup2\n      sload\n      dup2\n      0xff\n      mul\n      not\n      and\n      swap1\n      dup4\n      iszero\n      iszero\n      mul\n      or\n      swap1\n      sstore\n      pop\n        /* \"contracts/PortfolioManager.sol\":1860:1870  msg.sender */\n      caller\n        /* \"contracts/PortfolioManager.sol\":1843:1883  PortfolioCreated(msg.sender, _riskLevel) */\n      0xffffffffffffffffffffffffffffffffffffffff\n      and\n      0x67fb572dde9f80bfb3f0454266d9258cf72d569e4ef809f9301b9ee757dd78d0\n        /* \"contracts/PortfolioManager.sol\":1872:1882  _riskLevel */\n      dup4\n        /* \"contracts/PortfolioManager.sol\":1843:1883  PortfolioCreated(msg.sender, _riskLevel) */\n      mload(0x40)\n      tag_61\n      swap2\n      swap1\n      tag_62\n      jump\t// in\n    tag_61:\n      mload(0x40)\n      dup1\n      swap2\n      sub\n      swap1\n      log2\n        /* \"contracts/PortfolioManager.sol\":1524:1890  {... */\n      pop\n        /* \"contracts/PortfolioManager.sol\":1470:1890  function createPortfolio(uint256 _riskLevel) external {... */\n      pop\n      jump\t// out\n        /* \"contracts/PortfolioManager.sol\":3081:3430  function deposit(address _token, uint256 _amount) external {... */\n    tag_25:\n        /* \"contracts/PortfolioManager.sol\":3158:3172  approvedTokens */\n      0x01\n        /* \"contracts/PortfolioManager.sol\":3158:3180  approvedTokens[_token] */\n      0x00\n        /* \"contracts/PortfolioManager.sol\":3173:3179  _token */\n      dup4\n        /* \"contracts/PortfolioManager.sol\":3158:3180  approvedTokens[_token] */\n      0xffffffffffffffffffffffffffffffffffffffff\n      and\n      0xffffffffffffffffffffffffffffffffffffffff\n      and\n      dup2\n      mstore\n      0x20\n      add\n      swap1\n      dup2\n      mstore\n      0x20\n      add\n      0x00\n      keccak256\n      0x00\n      swap1\n      sload\n      swap1\n      0x0100\n      exp\n      swap1\n      div\n      0xff\n      and\n        /* \"contracts/PortfolioManager.sol\":3150:3203  require(approvedTokens[_token], \"Token not approved\") */\n      tag_64\n      jumpi\n      mload(0x40)\n      0x08c379a000000000000000000000000000000000000000000000000000000000\n      dup2\n      mstore\n      0x04\n      add\n      tag_65\n      swap1\n      tag_66\n      jump\t// in\n    tag_65:\n      mload(0x40)\n      dup1\n      swap2\n      sub\n      swap1\n      revert\n    tag_64:\n        /* \"contracts/PortfolioManager.sol\":3221:3235  userPortfolios */\n      0x00\n        /* \"contracts/PortfolioManager.sol\":3221:3247  userPortfolios[msg.sender] */\n      dup1\n        /* \"contracts/PortfolioManager.sol\":3236:3246  msg.sender */\n      caller\n        /* \"contracts/PortfolioManager.sol\":3221:3247  userPortfolios[msg.sender] */\n      0xffffffffffffffffffffffffffffffffffffffff\n      and\n      0xffffffffffffffffffffffffffffffffffffffff\n      and\n      dup2\n      mstore\n      0x20\n      add\n      swap1\n      dup2\n      mstore\n      0x20\n      add\n      0x00\n      keccak256\n        /* \"contracts/PortfolioManager.sol\":3221:3256  userPortfolios[msg.sender].isActive */\n      0x03\n      add\n      0x00\n      swap1\n      sload\n      swap1\n      0x0100\n      exp\n      swap1\n      div\n      0xff\n      and\n        /* \"contracts/PortfolioManager.sol\":3213:3280  require(userPortfolios[msg.sender].isActive, \"No active portfolio\") */\n      tag_67\n      jumpi\n      mload(0x40)\n      0x08c379a000000000000000000000000000000000000000000000000000000000\n      dup2\n      mstore\n      0x04\n      add\n      tag_68\n      swap1\n      tag_69\n      jump\t// in\n    tag_68:\n      mload(0x40)\n      dup1\n      swap2\n      sub\n      swap1\n      revert\n    tag_67:\n        /* \"contracts/PortfolioManager.sol\":3298:3304  _token */\n      dup2\n        /* \"contracts/PortfolioManager.sol\":3291:3318  IERC20(_token).transferFrom */\n      0xffffffffffffffffffffffffffffffffffffffff\n      and\n      0x23b872dd\n        /* \"contracts/PortfolioManager.sol\":3319:3329  msg.sender */\n      caller\n        /* \"contracts/PortfolioManager.sol\":3339:3343  this */\n      address\n        /* \"contracts/PortfolioManager.sol\":3346:3353  _amount */\n      dup5\n        /* \"contracts/PortfolioManager.sol\":3291:3354  IERC20(_token).transferFrom(msg.sender, address(this), _amount) */\n      mload(0x40)\n      dup5\n      0xffffffff\n      and\n      0xe0\n      shl\n      dup2\n      mstore\n      0x04\n      add\n      tag_70\n      swap4\n      swap3\n      swap2\n      swap1\n      tag_71\n      jump\t// in\n    tag_70:\n      0x20\n      mload(0x40)\n      dup1\n      dup4\n      sub\n      dup2\n      0x00\n      dup8\n      gas\n      call\n      iszero\n      dup1\n      iszero\n      tag_73\n      jumpi\n      returndatasize\n      0x00\n      dup1\n      returndatacopy\n      revert(0x00, returndatasize)\n    tag_73:\n      pop\n      pop\n      pop\n      pop\n      mload(0x40)\n      returndatasize\n      not(0x1f)\n      0x1f\n      dup3\n      add\n      and\n      dup3\n      add\n      dup1\n      0x40\n      mstore\n      pop\n      dup2\n      add\n      swap1\n      tag_74\n      swap2\n      swap1\n      tag_75\n      jump\t// in\n    tag_74:\n      pop\n        /* \"contracts/PortfolioManager.sol\":3416:3423  _amount */\n      dup1\n        /* \"contracts/PortfolioManager.sol\":3364:3378  userPortfolios */\n      0x00\n        /* \"contracts/PortfolioManager.sol\":3364:3390  userPortfolios[msg.sender] */\n      dup1\n        /* \"contracts/PortfolioManager.sol\":3379:3389  msg.sender */\n      caller\n        /* \"contracts/PortfolioManager.sol\":3364:3390  userPortfolios[msg.sender] */\n      0xffffffffffffffffffffffffffffffffffffffff\n      and\n      0xffffffffffffffffffffffffffffffffffffffff\n      and\n      dup2\n      mstore\n      0x20\n      add\n      swap1\n      dup2\n      mstore\n      0x20\n      add\n      0x00\n      keccak256\n        /* \"contracts/PortfolioManager.sol\":3364:3404  userPortfolios[msg.sender].tokenBalances */\n      0x02\n      add\n        /* \"contracts/PortfolioManager.sol\":3364:3412  userPortfolios[msg.sender].tokenBalances[_token] */\n      0x00\n        /* \"contracts/PortfolioManager.sol\":3405:3411  _token */\n      dup5\n        /* \"contracts/PortfolioManager.sol\":3364:3412  userPortfolios[msg.sender].tokenBalances[_token] */\n      0xffffffffffffffffffffffffffffffffffffffff\n      and\n      0xffffffffffffffffffffffffffffffffffffffff\n      and\n      dup2\n      mstore\n      0x20\n      add\n      swap1\n      dup2\n      mstore\n      0x20\n      add\n      0x00\n      keccak256\n      0x00\n        /* \"contracts/PortfolioManager.sol\":3364:3423  userPortfolios[msg.sender].tokenBalances[_token] += _amount */\n      dup3\n      dup3\n      sload\n      tag_76\n      swap2\n      swap1\n      tag_77\n      jump\t// in\n    tag_76:\n      swap3\n      pop\n      pop\n      dup2\n      swap1\n      sstore\n      pop\n        /* \"contracts/PortfolioManager.sol\":3081:3430  function deposit(address _token, uint256 _amount) external {... */\n      pop\n      pop\n      jump\t// out\n        /* \"contracts/PortfolioManager.sol\":2034:2172  function removeToken(address _token) external onlyOwner {... */\n    tag_29:\n        /* \"contracts/PortfolioManager.sol\":1327:1332  owner */\n      0x02\n      0x00\n      swap1\n      sload\n      swap1\n      0x0100\n      exp\n      swap1\n      div\n      0xffffffffffffffffffffffffffffffffffffffff\n      and\n        /* \"contracts/PortfolioManager.sol\":1313:1332  msg.sender == owner */\n      0xffffffffffffffffffffffffffffffffffffffff\n      and\n        /* \"contracts/PortfolioManager.sol\":1313:1323  msg.sender */\n      caller\n        /* \"contracts/PortfolioManager.sol\":1313:1332  msg.sender == owner */\n      0xffffffffffffffffffffffffffffffffffffffff\n      and\n      eq\n        /* \"contracts/PortfolioManager.sol\":1305:1346  require(msg.sender == owner, \"Not owner\") */\n      tag_79\n      jumpi\n      mload(0x40)\n      0x08c379a000000000000000000000000000000000000000000000000000000000\n      dup2\n      mstore\n      0x04\n      add\n      tag_80\n      swap1\n      tag_81\n      jump\t// in\n    tag_80:\n      mload(0x40)\n      dup1\n      swap2\n      sub\n      swap1\n      revert\n    tag_79:\n        /* \"contracts/PortfolioManager.sol\":2125:2130  false */\n      0x00\n        /* \"contracts/PortfolioManager.sol\":2100:2114  approvedTokens */\n      0x01\n        /* \"contracts/PortfolioManager.sol\":2100:2122  approvedTokens[_token] */\n      0x00\n        /* \"contracts/PortfolioManager.sol\":2115:2121  _token */\n      dup4\n        /* \"contracts/PortfolioManager.sol\":2100:2122  approvedTokens[_token] */\n      0xffffffffffffffffffffffffffffffffffffffff\n      and\n      0xffffffffffffffffffffffffffffffffffffffff\n      and\n      dup2\n      mstore\n      0x20\n      add\n      swap1\n      dup2\n      mstore\n      0x20\n      add\n      0x00\n      keccak256\n      0x00\n        /* \"contracts/PortfolioManager.sol\":2100:2130  approvedTokens[_token] = false */\n      0x0100\n      exp\n      dup2\n      sload\n      dup2\n      0xff\n      mul\n      not\n      and\n      swap1\n      dup4\n      iszero\n      iszero\n      mul\n      or\n      swap1\n      sstore\n      pop\n        /* \"contracts/PortfolioManager.sol\":2158:2164  _token */\n      dup1\n        /* \"contracts/PortfolioManager.sol\":2145:2165  TokenRemoved(_token) */\n      0xffffffffffffffffffffffffffffffffffffffff\n      and\n      0x4c910b69fe65a61f7531b9c5042b2329ca7179c77290aa7e2eb3afa3c8511fd3\n      mload(0x40)\n      mload(0x40)\n      dup1\n      swap2\n      sub\n      swap1\n      log2\n        /* \"contracts/PortfolioManager.sol\":2034:2172  function removeToken(address _token) external onlyOwner {... */\n      pop\n      jump\t// out\n        /* \"contracts/PortfolioManager.sol\":750:796  mapping(address => bool) public approvedTokens */\n    tag_32:\n      mstore(0x20, 0x01)\n      dup1\n      0x00\n      mstore\n      keccak256(0x00, 0x40)\n      0x00\n      swap2\n      pop\n      sload\n      swap1\n      0x0100\n      exp\n      swap1\n      div\n      0xff\n      and\n      dup2\n      jump\t// out\n        /* \"contracts/PortfolioManager.sol\":802:822  address public owner */\n    tag_36:\n      0x02\n      0x00\n      swap1\n      sload\n      swap1\n      0x0100\n      exp\n      swap1\n      div\n      0xffffffffffffffffffffffffffffffffffffffff\n      and\n      dup2\n      jump\t// out\n        /* \"contracts/PortfolioManager.sol\":2178:3075  function executeAITrade(... */\n    tag_41:\n        /* \"contracts/PortfolioManager.sol\":1420:1428  aiTrader */\n      0x03\n      0x00\n      swap1\n      sload\n      swap1\n      0x0100\n      exp\n      swap1\n      div\n      0xffffffffffffffffffffffffffffffffffffffff\n      and\n        /* \"contracts/PortfolioManager.sol\":1406:1428  msg.sender == aiTrader */\n      0xffffffffffffffffffffffffffffffffffffffff\n      and\n        /* \"contracts/PortfolioManager.sol\":1406:1416  msg.sender */\n      caller\n        /* \"contracts/PortfolioManager.sol\":1406:1428  msg.sender == aiTrader */\n      0xffffffffffffffffffffffffffffffffffffffff\n      and\n      eq\n        /* \"contracts/PortfolioManager.sol\":1398:1446  require(msg.sender == aiTrader, \"Not AI trader\") */\n      tag_84\n      jumpi\n      mload(0x40)\n      0x08c379a000000000000000000000000000000000000000000000000000000000\n      dup2\n      mstore\n      0x04\n      add\n      tag_85\n      swap1\n      tag_86\n      jump\t// in\n    tag_85:\n      mload(0x40)\n      dup1\n      swap2\n      sub\n      swap1\n      revert\n    tag_84:\n        /* \"contracts/PortfolioManager.sol\":2356:2370  approvedTokens */\n      0x01\n        /* \"contracts/PortfolioManager.sol\":2356:2380  approvedTokens[_tokenIn] */\n      0x00\n        /* \"contracts/PortfolioManager.sol\":2371:2379  _tokenIn */\n      dup5\n        /* \"contracts/PortfolioManager.sol\":2356:2380  approvedTokens[_tokenIn] */\n      0xffffffffffffffffffffffffffffffffffffffff\n      and\n      0xffffffffffffffffffffffffffffffffffffffff\n      and\n      dup2\n      mstore\n      0x20\n      add\n      swap1\n      dup2\n      mstore\n      0x20\n      add\n      0x00\n      keccak256\n      0x00\n      swap1\n      sload\n      swap1\n      0x0100\n      exp\n      swap1\n      div\n      0xff\n      and\n        /* \"contracts/PortfolioManager.sol\":2356:2409  approvedTokens[_tokenIn] && approvedTokens[_tokenOut] */\n      dup1\n      iszero\n      tag_88\n      jumpi\n      pop\n        /* \"contracts/PortfolioManager.sol\":2384:2398  approvedTokens */\n      0x01\n        /* \"contracts/PortfolioManager.sol\":2384:2409  approvedTokens[_tokenOut] */\n      0x00\n        /* \"contracts/PortfolioManager.sol\":2399:2408  _tokenOut */\n      dup4\n        /* \"contracts/PortfolioManager.sol\":2384:2409  approvedTokens[_tokenOut] */\n      0xffffffffffffffffffffffffffffffffffffffff\n      and\n      0xffffffffffffffffffffffffffffffffffffffff\n      and\n      dup2\n      mstore\n      0x20\n      add\n      swap1\n      dup2\n      mstore\n      0x20\n      add\n      0x00\n      keccak256\n      0x00\n      swap1\n      sload\n      swap1\n      0x0100\n      exp\n      swap1\n      div\n      0xff\n      and\n        /* \"contracts/PortfolioManager.sol\":2356:2409  approvedTokens[_tokenIn] && approvedTokens[_tokenOut] */\n    tag_88:\n        /* \"contracts/PortfolioManager.sol\":2335:2452  require(... */\n      tag_89\n      jumpi\n      mload(0x40)\n      0x08c379a000000000000000000000000000000000000000000000000000000000\n      dup2\n      mstore\n      0x04\n      add\n      tag_90\n      swap1\n      tag_91\n      jump\t// in\n    tag_90:\n      mload(0x40)\n      dup1\n      swap2\n      sub\n      swap1\n      revert\n    tag_89:\n        /* \"contracts/PortfolioManager.sol\":2470:2484  userPortfolios */\n      0x00\n        /* \"contracts/PortfolioManager.sol\":2470:2491  userPortfolios[_user] */\n      dup1\n        /* \"contracts/PortfolioManager.sol\":2485:2490  _user */\n      dup6\n        /* \"contracts/PortfolioManager.sol\":2470:2491  userPortfolios[_user] */\n      0xffffffffffffffffffffffffffffffffffffffff\n      and\n      0xffffffffffffffffffffffffffffffffffffffff\n      and\n      dup2\n      mstore\n      0x20\n      add\n      swap1\n      dup2\n      mstore\n      0x20\n      add\n      0x00\n      keccak256\n        /* \"contracts/PortfolioManager.sol\":2470:2500  userPortfolios[_user].isActive */\n      0x03\n      add\n      0x00\n      swap1\n      sload\n      swap1\n      0x0100\n      exp\n      swap1\n      div\n      0xff\n      and\n        /* \"contracts/PortfolioManager.sol\":2462:2524  require(userPortfolios[_user].isActive, \"No active portfolio\") */\n      tag_92\n      jumpi\n      mload(0x40)\n      0x08c379a000000000000000000000000000000000000000000000000000000000\n      dup2\n      mstore\n      0x04\n      add\n      tag_93\n      swap1\n      tag_69\n      jump\t// in\n    tag_93:\n      mload(0x40)\n      dup1\n      swap2\n      sub\n      swap1\n      revert\n    tag_92:\n        /* \"contracts/PortfolioManager.sol\":2535:2562  Portfolio storage portfolio */\n      0x00\n        /* \"contracts/PortfolioManager.sol\":2565:2579  userPortfolios */\n      dup1\n        /* \"contracts/PortfolioManager.sol\":2565:2586  userPortfolios[_user] */\n      0x00\n        /* \"contracts/PortfolioManager.sol\":2580:2585  _user */\n      dup7\n        /* \"contracts/PortfolioManager.sol\":2565:2586  userPortfolios[_user] */\n      0xffffffffffffffffffffffffffffffffffffffff\n      and\n      0xffffffffffffffffffffffffffffffffffffffff\n      and\n      dup2\n      mstore\n      0x20\n      add\n      swap1\n      dup2\n      mstore\n      0x20\n      add\n      0x00\n      keccak256\n        /* \"contracts/PortfolioManager.sol\":2535:2586  Portfolio storage portfolio = userPortfolios[_user] */\n      swap1\n      pop\n        /* \"contracts/PortfolioManager.sol\":2654:2661  _amount */\n      dup2\n        /* \"contracts/PortfolioManager.sol\":2617:2626  portfolio */\n      dup2\n        /* \"contracts/PortfolioManager.sol\":2617:2640  portfolio.tokenBalances */\n      0x02\n      add\n        /* \"contracts/PortfolioManager.sol\":2617:2650  portfolio.tokenBalances[_tokenIn] */\n      0x00\n        /* \"contracts/PortfolioManager.sol\":2641:2649  _tokenIn */\n      dup7\n        /* \"contracts/PortfolioManager.sol\":2617:2650  portfolio.tokenBalances[_tokenIn] */\n      0xffffffffffffffffffffffffffffffffffffffff\n      and\n      0xffffffffffffffffffffffffffffffffffffffff\n      and\n      dup2\n      mstore\n      0x20\n      add\n      swap1\n      dup2\n      mstore\n      0x20\n      add\n      0x00\n      keccak256\n      sload\n        /* \"contracts/PortfolioManager.sol\":2617:2661  portfolio.tokenBalances[_tokenIn] >= _amount */\n      lt\n      iszero\n        /* \"contracts/PortfolioManager.sol\":2596:2707  require(... */\n      tag_94\n      jumpi\n      mload(0x40)\n      0x08c379a000000000000000000000000000000000000000000000000000000000\n      dup2\n      mstore\n      0x04\n      add\n      tag_95\n      swap1\n      tag_96\n      jump\t// in\n    tag_95:\n      mload(0x40)\n      dup1\n      swap2\n      sub\n      swap1\n      revert\n    tag_94:\n        /* \"contracts/PortfolioManager.sol\":2791:2798  _amount */\n      dup2\n        /* \"contracts/PortfolioManager.sol\":2754:2763  portfolio */\n      dup2\n        /* \"contracts/PortfolioManager.sol\":2754:2777  portfolio.tokenBalances */\n      0x02\n      add\n        /* \"contracts/PortfolioManager.sol\":2754:2787  portfolio.tokenBalances[_tokenIn] */\n      0x00\n        /* \"contracts/PortfolioManager.sol\":2778:2786  _tokenIn */\n      dup7\n        /* \"contracts/PortfolioManager.sol\":2754:2787  portfolio.tokenBalances[_tokenIn] */\n      0xffffffffffffffffffffffffffffffffffffffff\n      and\n      0xffffffffffffffffffffffffffffffffffffffff\n      and\n      dup2\n      mstore\n      0x20\n      add\n      swap1\n      dup2\n      mstore\n      0x20\n      add\n      0x00\n      keccak256\n      0x00\n        /* \"contracts/PortfolioManager.sol\":2754:2798  portfolio.tokenBalances[_tokenIn] -= _amount */\n      dup3\n      dup3\n      sload\n      tag_97\n      swap2\n      swap1\n      tag_98\n      jump\t// in\n    tag_97:\n      swap3\n      pop\n      pop\n      dup2\n      swap1\n      sstore\n      pop\n        /* \"contracts/PortfolioManager.sol\":2867:2889  uint256 receivedAmount */\n      0x00\n        /* \"contracts/PortfolioManager.sol\":2892:2899  _amount */\n      dup3\n        /* \"contracts/PortfolioManager.sol\":2867:2899  uint256 receivedAmount = _amount */\n      swap1\n      pop\n        /* \"contracts/PortfolioManager.sol\":2988:3002  receivedAmount */\n      dup1\n        /* \"contracts/PortfolioManager.sol\":2950:2959  portfolio */\n      dup3\n        /* \"contracts/PortfolioManager.sol\":2950:2973  portfolio.tokenBalances */\n      0x02\n      add\n        /* \"contracts/PortfolioManager.sol\":2950:2984  portfolio.tokenBalances[_tokenOut] */\n      0x00\n        /* \"contracts/PortfolioManager.sol\":2974:2983  _tokenOut */\n      dup7\n        /* \"contracts/PortfolioManager.sol\":2950:2984  portfolio.tokenBalances[_tokenOut] */\n      0xffffffffffffffffffffffffffffffffffffffff\n      and\n      0xffffffffffffffffffffffffffffffffffffffff\n      and\n      dup2\n      mstore\n      0x20\n      add\n      swap1\n      dup2\n      mstore\n      0x20\n      add\n      0x00\n      keccak256\n      0x00\n        /* \"contracts/PortfolioManager.sol\":2950:3002  portfolio.tokenBalances[_tokenOut] += receivedAmount */\n      dup3\n      dup3\n      sload\n      tag_99\n      swap2\n      swap1\n      tag_77\n      jump\t// in\n    tag_99:\n      swap3\n      pop\n      pop\n      dup2\n      swap1\n      sstore\n      pop\n        /* \"contracts/PortfolioManager.sol\":3049:3058  _tokenOut */\n      dup4\n        /* \"contracts/PortfolioManager.sol\":3018:3068  TradeExecuted(_user, _tokenIn, _tokenOut, _amount) */\n      0xffffffffffffffffffffffffffffffffffffffff\n      and\n        /* \"contracts/PortfolioManager.sol\":3039:3047  _tokenIn */\n      dup6\n        /* \"contracts/PortfolioManager.sol\":3018:3068  TradeExecuted(_user, _tokenIn, _tokenOut, _amount) */\n      0xffffffffffffffffffffffffffffffffffffffff\n      and\n        /* \"contracts/PortfolioManager.sol\":3032:3037  _user */\n      dup8\n        /* \"contracts/PortfolioManager.sol\":3018:3068  TradeExecuted(_user, _tokenIn, _tokenOut, _amount) */\n      0xffffffffffffffffffffffffffffffffffffffff\n      and\n      0x7c98d1e471158166ac434c9c01540b47abb40862bbf909edb2dc73c22229a23f\n        /* \"contracts/PortfolioManager.sol\":3060:3067  _amount */\n      dup7\n        /* \"contracts/PortfolioManager.sol\":3018:3068  TradeExecuted(_user, _tokenIn, _tokenOut, _amount) */\n      mload(0x40)\n      tag_100\n      swap2\n      swap1\n      tag_62\n      jump\t// in\n    tag_100:\n      mload(0x40)\n      dup1\n      swap2\n      sub\n      swap1\n      log4\n        /* \"contracts/PortfolioManager.sol\":2325:3075  {... */\n      pop\n      pop\n        /* \"contracts/PortfolioManager.sol\":2178:3075  function executeAITrade(... */\n      pop\n      pop\n      pop\n      pop\n      jump\t// out\n        /* \"contracts/PortfolioManager.sol\":693:744  mapping(address => Portfolio) public userPortfolios */\n    tag_44:\n      mstore(0x20, 0x00)\n      dup1\n      0x00\n      mstore\n      keccak256(0x00, 0x40)\n      0x00\n      swap2\n      pop\n      swap1\n      pop\n      dup1\n      0x00\n      add\n      sload\n      swap1\n      dup1\n      0x01\n      add\n      sload\n      swap1\n      dup1\n      0x03\n      add\n      0x00\n      swap1\n      sload\n      swap1\n      0x0100\n      exp\n      swap1\n      div\n      0xff\n      and\n      swap1\n      pop\n      dup4\n      jump\t// out\n        /* \"contracts/PortfolioManager.sol\":1896:2028  function addToken(address _token) external onlyOwner {... */\n    tag_49:\n        /* \"contracts/PortfolioManager.sol\":1327:1332  owner */\n      0x02\n      0x00\n      swap1\n      sload\n      swap1\n      0x0100\n      exp\n      swap1\n      div\n      0xffffffffffffffffffffffffffffffffffffffff\n      and\n        /* \"contracts/PortfolioManager.sol\":1313:1332  msg.sender == owner */\n      0xffffffffffffffffffffffffffffffffffffffff\n      and\n        /* \"contracts/PortfolioManager.sol\":1313:1323  msg.sender */\n      caller\n        /* \"contracts/PortfolioManager.sol\":1313:1332  msg.sender == owner */\n      0xffffffffffffffffffffffffffffffffffffffff\n      and\n      eq\n        /* \"contracts/PortfolioManager.sol\":1305:1346  require(msg.sender == owner, \"Not owner\") */\n      tag_102\n      jumpi\n      mload(0x40)\n      0x08c379a000000000000000000000000000000000000000000000000000000000\n      dup2\n      mstore\n      0x04\n      add\n      tag_103\n      swap1\n      tag_81\n      jump\t// in\n    tag_103:\n      mload(0x40)\n      dup1\n      swap2\n      sub\n      swap1\n      revert\n    tag_102:\n        /* \"contracts/PortfolioManager.sol\":1984:1988  true */\n      0x01\n        /* \"contracts/PortfolioManager.sol\":1959:1973  approvedTokens */\n      dup1\n        /* \"contracts/PortfolioManager.sol\":1959:1981  approvedTokens[_token] */\n      0x00\n        /* \"contracts/PortfolioManager.sol\":1974:1980  _token */\n      dup4\n        /* \"contracts/PortfolioManager.sol\":1959:1981  approvedTokens[_token] */\n      0xffffffffffffffffffffffffffffffffffffffff\n      and\n      0xffffffffffffffffffffffffffffffffffffffff\n      and\n      dup2\n      mstore\n      0x20\n      add\n      swap1\n      dup2\n      mstore\n      0x20\n      add\n      0x00\n      keccak256\n      0x00\n        /* \"contracts/PortfolioManager.sol\":1959:1988  approvedTokens[_token] = true */\n      0x0100\n      exp\n      dup2\n      sload\n      dup2\n      0xff\n      mul\n      not\n      and\n      swap1\n      dup4\n      iszero\n      iszero\n      mul\n      or\n      swap1\n      sstore\n      pop\n        /* \"contracts/PortfolioManager.sol\":2014:2020  _token */\n      dup1\n        /* \"contracts/PortfolioManager.sol\":2003:2021  TokenAdded(_token) */\n      0xffffffffffffffffffffffffffffffffffffffff\n      and\n      0x784c8f4dbf0ffedd6e72c76501c545a70f8b203b30a26ce542bf92ba87c248a4\n      mload(0x40)\n      mload(0x40)\n      dup1\n      swap2\n      sub\n      swap1\n      log2\n        /* \"contracts/PortfolioManager.sol\":1896:2028  function addToken(address _token) external onlyOwner {... */\n      pop\n      jump\t// out\n        /* \"contracts/PortfolioManager.sol\":3436:3840  function withdraw(address _token, uint256 _amount) external {... */\n    tag_52:\n        /* \"contracts/PortfolioManager.sol\":3514:3528  userPortfolios */\n      0x00\n        /* \"contracts/PortfolioManager.sol\":3514:3540  userPortfolios[msg.sender] */\n      dup1\n        /* \"contracts/PortfolioManager.sol\":3529:3539  msg.sender */\n      caller\n        /* \"contracts/PortfolioManager.sol\":3514:3540  userPortfolios[msg.sender] */\n      0xffffffffffffffffffffffffffffffffffffffff\n      and\n      0xffffffffffffffffffffffffffffffffffffffff\n      and\n      dup2\n      mstore\n      0x20\n      add\n      swap1\n      dup2\n      mstore\n      0x20\n      add\n      0x00\n      keccak256\n        /* \"contracts/PortfolioManager.sol\":3514:3549  userPortfolios[msg.sender].isActive */\n      0x03\n      add\n      0x00\n      swap1\n      sload\n      swap1\n      0x0100\n      exp\n      swap1\n      div\n      0xff\n      and\n        /* \"contracts/PortfolioManager.sol\":3506:3573  require(userPortfolios[msg.sender].isActive, \"No active portfolio\") */\n      tag_106\n      jumpi\n      mload(0x40)\n      0x08c379a000000000000000000000000000000000000000000000000000000000\n      dup2\n      mstore\n      0x04\n      add\n      tag_107\n      swap1\n      tag_69\n      jump\t// in\n    tag_107:\n      mload(0x40)\n      dup1\n      swap2\n      sub\n      swap1\n      revert\n    tag_106:\n        /* \"contracts/PortfolioManager.sol\":3656:3663  _amount */\n      dup1\n        /* \"contracts/PortfolioManager.sol\":3604:3618  userPortfolios */\n      0x00\n        /* \"contracts/PortfolioManager.sol\":3604:3630  userPortfolios[msg.sender] */\n      dup1\n        /* \"contracts/PortfolioManager.sol\":3619:3629  msg.sender */\n      caller\n        /* \"contracts/PortfolioManager.sol\":3604:3630  userPortfolios[msg.sender] */\n      0xffffffffffffffffffffffffffffffffffffffff\n      and\n      0xffffffffffffffffffffffffffffffffffffffff\n      and\n      dup2\n      mstore\n      0x20\n      add\n      swap1\n      dup2\n      mstore\n      0x20\n      add\n      0x00\n      keccak256\n        /* \"contracts/PortfolioManager.sol\":3604:3644  userPortfolios[msg.sender].tokenBalances */\n      0x02\n      add\n        /* \"contracts/PortfolioManager.sol\":3604:3652  userPortfolios[msg.sender].tokenBalances[_token] */\n      0x00\n        /* \"contracts/PortfolioManager.sol\":3645:3651  _token */\n      dup5\n        /* \"contracts/PortfolioManager.sol\":3604:3652  userPortfolios[msg.sender].tokenBalances[_token] */\n      0xffffffffffffffffffffffffffffffffffffffff\n      and\n      0xffffffffffffffffffffffffffffffffffffffff\n      and\n      dup2\n      mstore\n      0x20\n      add\n      swap1\n      dup2\n      mstore\n      0x20\n      add\n      0x00\n      keccak256\n      sload\n        /* \"contracts/PortfolioManager.sol\":3604:3663  userPortfolios[msg.sender].tokenBalances[_token] >= _amount */\n      lt\n      iszero\n        /* \"contracts/PortfolioManager.sol\":3583:3709  require(... */\n      tag_108\n      jumpi\n      mload(0x40)\n      0x08c379a000000000000000000000000000000000000000000000000000000000\n      dup2\n      mstore\n      0x04\n      add\n      tag_109\n      swap1\n      tag_96\n      jump\t// in\n    tag_109:\n      mload(0x40)\n      dup1\n      swap2\n      sub\n      swap1\n      revert\n    tag_108:\n        /* \"contracts/PortfolioManager.sol\":3772:3779  _amount */\n      dup1\n        /* \"contracts/PortfolioManager.sol\":3720:3734  userPortfolios */\n      0x00\n        /* \"contracts/PortfolioManager.sol\":3720:3746  userPortfolios[msg.sender] */\n      dup1\n        /* \"contracts/PortfolioManager.sol\":3735:3745  msg.sender */\n      caller\n        /* \"contracts/PortfolioManager.sol\":3720:3746  userPortfolios[msg.sender] */\n      0xffffffffffffffffffffffffffffffffffffffff\n      and\n      0xffffffffffffffffffffffffffffffffffffffff\n      and\n      dup2\n      mstore\n      0x20\n      add\n      swap1\n      dup2\n      mstore\n      0x20\n      add\n      0x00\n      keccak256\n        /* \"contracts/PortfolioManager.sol\":3720:3760  userPortfolios[msg.sender].tokenBalances */\n      0x02\n      add\n        /* \"contracts/PortfolioManager.sol\":3720:3768  userPortfolios[msg.sender].tokenBalances[_token] */\n      0x00\n        /* \"contracts/PortfolioManager.sol\":3761:3767  _token */\n      dup5\n        /* \"contracts/PortfolioManager.sol\":3720:3768  userPortfolios[msg.sender].tokenBalances[_token] */\n      0xffffffffffffffffffffffffffffffffffffffff\n      and\n      0xffffffffffffffffffffffffffffffffffffffff\n      and\n      dup2\n      mstore\n      0x20\n      add\n      swap1\n      dup2\n      mstore\n      0x20\n      add\n      0x00\n      keccak256\n      0x00\n        /* \"contracts/PortfolioManager.sol\":3720:3779  userPortfolios[msg.sender].tokenBalances[_token] -= _amount */\n      dup3\n      dup3\n      sload\n      tag_110\n      swap2\n      swap1\n      tag_98\n      jump\t// in\n    tag_110:\n      swap3\n      pop\n      pop\n      dup2\n      swap1\n      sstore\n      pop\n        /* \"contracts/PortfolioManager.sol\":3796:3802  _token */\n      dup2\n        /* \"contracts/PortfolioManager.sol\":3789:3812  IERC20(_token).transfer */\n      0xffffffffffffffffffffffffffffffffffffffff\n      and\n      0xa9059cbb\n        /* \"contracts/PortfolioManager.sol\":3813:3823  msg.sender */\n      caller\n        /* \"contracts/PortfolioManager.sol\":3825:3832  _amount */\n      dup4\n        /* \"contracts/PortfolioManager.sol\":3789:3833  IERC20(_token).transfer(msg.sender, _amount) */\n      mload(0x40)\n      dup4\n      0xffffffff\n      and\n      0xe0\n      shl\n      dup2\n      mstore\n      0x04\n      add\n      tag_111\n      swap3\n      swap2\n      swap1\n      tag_112\n      jump\t// in\n    tag_111:\n      0x20\n      mload(0x40)\n      dup1\n      dup4\n      sub\n      dup2\n      0x00\n      dup8\n      gas\n      call\n      iszero\n      dup1\n      iszero\n      tag_114\n      jumpi\n      returndatasize\n      0x00\n      dup1\n      returndatacopy\n      revert(0x00, returndatasize)\n    tag_114:\n      pop\n      pop\n      pop\n      pop\n      mload(0x40)\n      returndatasize\n      not(0x1f)\n      0x1f\n      dup3\n      add\n      and\n      dup3\n      add\n      dup1\n      0x40\n      mstore\n      pop\n      dup2\n      add\n      swap1\n      tag_115\n      swap2\n      swap1\n      tag_75\n      jump\t// in\n    tag_115:\n      pop\n        /* \"contracts/PortfolioManager.sol\":3436:3840  function withdraw(address _token, uint256 _amount) external {... */\n      pop\n      pop\n      jump\t// out\n        /* \"#utility.yul\":7:133   */\n    tag_116:\n        /* \"#utility.yul\":44:51   */\n      0x00\n        /* \"#utility.yul\":84:126   */\n      0xffffffffffffffffffffffffffffffffffffffff\n        /* \"#utility.yul\":77:82   */\n      dup3\n        /* \"#utility.yul\":73:127   */\n      and\n        /* \"#utility.yul\":62:127   */\n      swap1\n      pop\n        /* \"#utility.yul\":7:133   */\n      swap2\n      swap1\n      pop\n      jump\t// out\n        /* \"#utility.yul\":139:235   */\n    tag_117:\n        /* \"#utility.yul\":176:183   */\n      0x00\n        /* \"#utility.yul\":205:229   */\n      tag_153\n        /* \"#utility.yul\":223:228   */\n      dup3\n        /* \"#utility.yul\":205:229   */\n      tag_116\n      jump\t// in\n    tag_153:\n        /* \"#utility.yul\":194:229   */\n      swap1\n      pop\n        /* \"#utility.yul\":139:235   */\n      swap2\n      swap1\n      pop\n      jump\t// out\n        /* \"#utility.yul\":241:359   */\n    tag_118:\n        /* \"#utility.yul\":328:352   */\n      tag_155\n        /* \"#utility.yul\":346:351   */\n      dup2\n        /* \"#utility.yul\":328:352   */\n      tag_117\n      jump\t// in\n    tag_155:\n        /* \"#utility.yul\":323:326   */\n      dup3\n        /* \"#utility.yul\":316:353   */\n      mstore\n        /* \"#utility.yul\":241:359   */\n      pop\n      pop\n      jump\t// out\n        /* \"#utility.yul\":365:587   */\n    tag_17:\n        /* \"#utility.yul\":458:462   */\n      0x00\n        /* \"#utility.yul\":496:498   */\n      0x20\n        /* \"#utility.yul\":485:494   */\n      dup3\n        /* \"#utility.yul\":481:499   */\n      add\n        /* \"#utility.yul\":473:499   */\n      swap1\n      pop\n        /* \"#utility.yul\":509:580   */\n      tag_157\n        /* \"#utility.yul\":577:578   */\n      0x00\n        /* \"#utility.yul\":566:575   */\n      dup4\n        /* \"#utility.yul\":562:579   */\n      add\n        /* \"#utility.yul\":553:559   */\n      dup5\n        /* \"#utility.yul\":509:580   */\n      tag_118\n      jump\t// in\n    tag_157:\n        /* \"#utility.yul\":365:587   */\n      swap3\n      swap2\n      pop\n      pop\n      jump\t// out\n        /* \"#utility.yul\":674:791   */\n    tag_120:\n        /* \"#utility.yul\":783:784   */\n      0x00\n        /* \"#utility.yul\":780:781   */\n      dup1\n        /* \"#utility.yul\":773:785   */\n      revert\n        /* \"#utility.yul\":920:997   */\n    tag_122:\n        /* \"#utility.yul\":957:964   */\n      0x00\n        /* \"#utility.yul\":986:991   */\n      dup2\n        /* \"#utility.yul\":975:991   */\n      swap1\n      pop\n        /* \"#utility.yul\":920:997   */\n      swap2\n      swap1\n      pop\n      jump\t// out\n        /* \"#utility.yul\":1003:1125   */\n    tag_123:\n        /* \"#utility.yul\":1076:1100   */\n      tag_163\n        /* \"#utility.yul\":1094:1099   */\n      dup2\n        /* \"#utility.yul\":1076:1100   */\n      tag_122\n      jump\t// in\n    tag_163:\n        /* \"#utility.yul\":1069:1074   */\n      dup2\n        /* \"#utility.yul\":1066:1101   */\n      eq\n        /* \"#utility.yul\":1056:1119   */\n      tag_164\n      jumpi\n        /* \"#utility.yul\":1115:1116   */\n      0x00\n        /* \"#utility.yul\":1112:1113   */\n      dup1\n        /* \"#utility.yul\":1105:1117   */\n      revert\n        /* \"#utility.yul\":1056:1119   */\n    tag_164:\n        /* \"#utility.yul\":1003:1125   */\n      pop\n      jump\t// out\n        /* \"#utility.yul\":1131:1270   */\n    tag_124:\n        /* \"#utility.yul\":1177:1182   */\n      0x00\n        /* \"#utility.yul\":1215:1221   */\n      dup2\n        /* \"#utility.yul\":1202:1222   */\n      calldataload\n        /* \"#utility.yul\":1193:1222   */\n      swap1\n      pop\n        /* \"#utility.yul\":1231:1264   */\n      tag_166\n        /* \"#utility.yul\":1258:1263   */\n      dup2\n        /* \"#utility.yul\":1231:1264   */\n      tag_123\n      jump\t// in\n    tag_166:\n        /* \"#utility.yul\":1131:1270   */\n      swap3\n      swap2\n      pop\n      pop\n      jump\t// out\n        /* \"#utility.yul\":1276:1605   */\n    tag_20:\n        /* \"#utility.yul\":1335:1341   */\n      0x00\n        /* \"#utility.yul\":1384:1386   */\n      0x20\n        /* \"#utility.yul\":1372:1381   */\n      dup3\n        /* \"#utility.yul\":1363:1370   */\n      dup5\n        /* \"#utility.yul\":1359:1382   */\n      sub\n        /* \"#utility.yul\":1355:1387   */\n      slt\n        /* \"#utility.yul\":1352:1471   */\n      iszero\n      tag_168\n      jumpi\n        /* \"#utility.yul\":1390:1469   */\n      tag_169\n      tag_120\n      jump\t// in\n    tag_169:\n        /* \"#utility.yul\":1352:1471   */\n    tag_168:\n        /* \"#utility.yul\":1510:1511   */\n      0x00\n        /* \"#utility.yul\":1535:1588   */\n      tag_170\n        /* \"#utility.yul\":1580:1587   */\n      dup5\n        /* \"#utility.yul\":1571:1577   */\n      dup3\n        /* \"#utility.yul\":1560:1569   */\n      dup6\n        /* \"#utility.yul\":1556:1578   */\n      add\n        /* \"#utility.yul\":1535:1588   */\n      tag_124\n      jump\t// in\n    tag_170:\n        /* \"#utility.yul\":1525:1588   */\n      swap2\n      pop\n        /* \"#utility.yul\":1481:1598   */\n      pop\n        /* \"#utility.yul\":1276:1605   */\n      swap3\n      swap2\n      pop\n      pop\n      jump\t// out\n        /* \"#utility.yul\":1611:1733   */\n    tag_125:\n        /* \"#utility.yul\":1684:1708   */\n      tag_172\n        /* \"#utility.yul\":1702:1707   */\n      dup2\n        /* \"#utility.yul\":1684:1708   */\n      tag_117\n      jump\t// in\n    tag_172:\n        /* \"#utility.yul\":1677:1682   */\n      dup2\n        /* \"#utility.yul\":1674:1709   */\n      eq\n        /* \"#utility.yul\":1664:1727   */\n      tag_173\n      jumpi\n        /* \"#utility.yul\":1723:1724   */\n      0x00\n        /* \"#utility.yul\":1720:1721   */\n      dup1\n        /* \"#utility.yul\":1713:1725   */\n      revert\n        /* \"#utility.yul\":1664:1727   */\n    tag_173:\n        /* \"#utility.yul\":1611:1733   */\n      pop\n      jump\t// out\n        /* \"#utility.yul\":1739:1878   */\n    tag_126:\n        /* \"#utility.yul\":1785:1790   */\n      0x00\n        /* \"#utility.yul\":1823:1829   */\n      dup2\n        /* \"#utility.yul\":1810:1830   */\n      calldataload\n        /* \"#utility.yul\":1801:1830   */\n      swap1\n      pop\n        /* \"#utility.yul\":1839:1872   */\n      tag_175\n        /* \"#utility.yul\":1866:1871   */\n      dup2\n        /* \"#utility.yul\":1839:1872   */\n      tag_125\n      jump\t// in\n    tag_175:\n        /* \"#utility.yul\":1739:1878   */\n      swap3\n      swap2\n      pop\n      pop\n      jump\t// out\n        /* \"#utility.yul\":1884:2358   */\n    tag_24:\n        /* \"#utility.yul\":1952:1958   */\n      0x00\n        /* \"#utility.yul\":1960:1966   */\n      dup1\n        /* \"#utility.yul\":2009:2011   */\n      0x40\n        /* \"#utility.yul\":1997:2006   */\n      dup4\n        /* \"#utility.yul\":1988:1995   */\n      dup6\n        /* \"#utility.yul\":1984:2007   */\n      sub\n        /* \"#utility.yul\":1980:2012   */\n      slt\n        /* \"#utility.yul\":1977:2096   */\n      iszero\n      tag_177\n      jumpi\n        /* \"#utility.yul\":2015:2094   */\n      tag_178\n      tag_120\n      jump\t// in\n    tag_178:\n        /* \"#utility.yul\":1977:2096   */\n    tag_177:\n        /* \"#utility.yul\":2135:2136   */\n      0x00\n        /* \"#utility.yul\":2160:2213   */\n      tag_179\n        /* \"#utility.yul\":2205:2212   */\n      dup6\n        /* \"#utility.yul\":2196:2202   */\n      dup3\n        /* \"#utility.yul\":2185:2194   */\n      dup7\n        /* \"#utility.yul\":2181:2203   */\n      add\n        /* \"#utility.yul\":2160:2213   */\n      tag_126\n      jump\t// in\n    tag_179:\n        /* \"#utility.yul\":2150:2213   */\n      swap3\n      pop\n        /* \"#utility.yul\":2106:2223   */\n      pop\n        /* \"#utility.yul\":2262:2264   */\n      0x20\n        /* \"#utility.yul\":2288:2341   */\n      tag_180\n        /* \"#utility.yul\":2333:2340   */\n      dup6\n        /* \"#utility.yul\":2324:2330   */\n      dup3\n        /* \"#utility.yul\":2313:2322   */\n      dup7\n        /* \"#utility.yul\":2309:2331   */\n      add\n        /* \"#utility.yul\":2288:2341   */\n      tag_124\n      jump\t// in\n    tag_180:\n        /* \"#utility.yul\":2278:2341   */\n      swap2\n      pop\n        /* \"#utility.yul\":2233:2351   */\n      pop\n        /* \"#utility.yul\":1884:2358   */\n      swap3\n      pop\n      swap3\n      swap1\n      pop\n      jump\t// out\n        /* \"#utility.yul\":2364:2693   */\n    tag_28:\n        /* \"#utility.yul\":2423:2429   */\n      0x00\n        /* \"#utility.yul\":2472:2474   */\n      0x20\n        /* \"#utility.yul\":2460:2469   */\n      dup3\n        /* \"#utility.yul\":2451:2458   */\n      dup5\n        /* \"#utility.yul\":2447:2470   */\n      sub\n        /* \"#utility.yul\":2443:2475   */\n      slt\n        /* \"#utility.yul\":2440:2559   */\n      iszero\n      tag_182\n      jumpi\n        /* \"#utility.yul\":2478:2557   */\n      tag_183\n      tag_120\n      jump\t// in\n    tag_183:\n        /* \"#utility.yul\":2440:2559   */\n    tag_182:\n        /* \"#utility.yul\":2598:2599   */\n      0x00\n        /* \"#utility.yul\":2623:2676   */\n      tag_184\n        /* \"#utility.yul\":2668:2675   */\n      dup5\n        /* \"#utility.yul\":2659:2665   */\n      dup3\n        /* \"#utility.yul\":2648:2657   */\n      dup6\n        /* \"#utility.yul\":2644:2666   */\n      add\n        /* \"#utility.yul\":2623:2676   */\n      tag_126\n      jump\t// in\n    tag_184:\n        /* \"#utility.yul\":2613:2676   */\n      swap2\n      pop\n        /* \"#utility.yul\":2569:2686   */\n      pop\n        /* \"#utility.yul\":2364:2693   */\n      swap3\n      swap2\n      pop\n      pop\n      jump\t// out\n        /* \"#utility.yul\":2699:2789   */\n    tag_127:\n        /* \"#utility.yul\":2733:2740   */\n      0x00\n        /* \"#utility.yul\":2776:2781   */\n      dup2\n        /* \"#utility.yul\":2769:2782   */\n      iszero\n        /* \"#utility.yul\":2762:2783   */\n      iszero\n        /* \"#utility.yul\":2751:2783   */\n      swap1\n      pop\n        /* \"#utility.yul\":2699:2789   */\n      swap2\n      swap1\n      pop\n      jump\t// out\n        /* \"#utility.yul\":2795:2904   */\n    tag_128:\n        /* \"#utility.yul\":2876:2897   */\n      tag_187\n        /* \"#utility.yul\":2891:2896   */\n      dup2\n        /* \"#utility.yul\":2876:2897   */\n      tag_127\n      jump\t// in\n    tag_187:\n        /* \"#utility.yul\":2871:2874   */\n      dup3\n        /* \"#utility.yul\":2864:2898   */\n      mstore\n        /* \"#utility.yul\":2795:2904   */\n      pop\n      pop\n      jump\t// out\n        /* \"#utility.yul\":2910:3120   */\n    tag_34:\n        /* \"#utility.yul\":2997:3001   */\n      0x00\n        /* \"#utility.yul\":3035:3037   */\n      0x20\n        /* \"#utility.yul\":3024:3033   */\n      dup3\n        /* \"#utility.yul\":3020:3038   */\n      add\n        /* \"#utility.yul\":3012:3038   */\n      swap1\n      pop\n        /* \"#utility.yul\":3048:3113   */\n      tag_189\n        /* \"#utility.yul\":3110:3111   */\n      0x00\n        /* \"#utility.yul\":3099:3108   */\n      dup4\n        /* \"#utility.yul\":3095:3112   */\n      add\n        /* \"#utility.yul\":3086:3092   */\n      dup5\n        /* \"#utility.yul\":3048:3113   */\n      tag_128\n      jump\t// in\n    tag_189:\n        /* \"#utility.yul\":2910:3120   */\n      swap3\n      swap2\n      pop\n      pop\n      jump\t// out\n        /* \"#utility.yul\":3126:3891   */\n    tag_40:\n        /* \"#utility.yul\":3212:3218   */\n      0x00\n        /* \"#utility.yul\":3220:3226   */\n      dup1\n        /* \"#utility.yul\":3228:3234   */\n      0x00\n        /* \"#utility.yul\":3236:3242   */\n      dup1\n        /* \"#utility.yul\":3285:3288   */\n      0x80\n        /* \"#utility.yul\":3273:3282   */\n      dup6\n        /* \"#utility.yul\":3264:3271   */\n      dup8\n        /* \"#utility.yul\":3260:3283   */\n      sub\n        /* \"#utility.yul\":3256:3289   */\n      slt\n        /* \"#utility.yul\":3253:3373   */\n      iszero\n      tag_191\n      jumpi\n        /* \"#utility.yul\":3292:3371   */\n      tag_192\n      tag_120\n      jump\t// in\n    tag_192:\n        /* \"#utility.yul\":3253:3373   */\n    tag_191:\n        /* \"#utility.yul\":3412:3413   */\n      0x00\n        /* \"#utility.yul\":3437:3490   */\n      tag_193\n        /* \"#utility.yul\":3482:3489   */\n      dup8\n        /* \"#utility.yul\":3473:3479   */\n      dup3\n        /* \"#utility.yul\":3462:3471   */\n      dup9\n        /* \"#utility.yul\":3458:3480   */\n      add\n        /* \"#utility.yul\":3437:3490   */\n      tag_126\n      jump\t// in\n    tag_193:\n        /* \"#utility.yul\":3427:3490   */\n      swap5\n      pop\n        /* \"#utility.yul\":3383:3500   */\n      pop\n        /* \"#utility.yul\":3539:3541   */\n      0x20\n        /* \"#utility.yul\":3565:3618   */\n      tag_194\n        /* \"#utility.yul\":3610:3617   */\n      dup8\n        /* \"#utility.yul\":3601:3607   */\n      dup3\n        /* \"#utility.yul\":3590:3599   */\n      dup9\n        /* \"#utility.yul\":3586:3608   */\n      add\n        /* \"#utility.yul\":3565:3618   */\n      tag_126\n      jump\t// in\n    tag_194:\n        /* \"#utility.yul\":3555:3618   */\n      swap4\n      pop\n        /* \"#utility.yul\":3510:3628   */\n      pop\n        /* \"#utility.yul\":3667:3669   */\n      0x40\n        /* \"#utility.yul\":3693:3746   */\n      tag_195\n        /* \"#utility.yul\":3738:3745   */\n      dup8\n        /* \"#utility.yul\":3729:3735   */\n      dup3\n        /* \"#utility.yul\":3718:3727   */\n      dup9\n        /* \"#utility.yul\":3714:3736   */\n      add\n        /* \"#utility.yul\":3693:3746   */\n      tag_126\n      jump\t// in\n    tag_195:\n        /* \"#utility.yul\":3683:3746   */\n      swap3\n      pop\n        /* \"#utility.yul\":3638:3756   */\n      pop\n        /* \"#utility.yul\":3795:3797   */\n      0x60\n        /* \"#utility.yul\":3821:3874   */\n      tag_196\n        /* \"#utility.yul\":3866:3873   */\n      dup8\n        /* \"#utility.yul\":3857:3863   */\n      dup3\n        /* \"#utility.yul\":3846:3855   */\n      dup9\n        /* \"#utility.yul\":3842:3864   */\n      add\n        /* \"#utility.yul\":3821:3874   */\n      tag_124\n      jump\t// in\n    tag_196:\n        /* \"#utility.yul\":3811:3874   */\n      swap2\n      pop\n        /* \"#utility.yul\":3766:3884   */\n      pop\n        /* \"#utility.yul\":3126:3891   */\n      swap3\n      swap6\n      swap2\n      swap5\n      pop\n      swap3\n      pop\n      jump\t// out\n        /* \"#utility.yul\":3897:4015   */\n    tag_129:\n        /* \"#utility.yul\":3984:4008   */\n      tag_198\n        /* \"#utility.yul\":4002:4007   */\n      dup2\n        /* \"#utility.yul\":3984:4008   */\n      tag_122\n      jump\t// in\n    tag_198:\n        /* \"#utility.yul\":3979:3982   */\n      dup3\n        /* \"#utility.yul\":3972:4009   */\n      mstore\n        /* \"#utility.yul\":3897:4015   */\n      pop\n      pop\n      jump\t// out\n        /* \"#utility.yul\":4021:4451   */\n    tag_46:\n        /* \"#utility.yul\":4164:4168   */\n      0x00\n        /* \"#utility.yul\":4202:4204   */\n      0x60\n        /* \"#utility.yul\":4191:4200   */\n      dup3\n        /* \"#utility.yul\":4187:4205   */\n      add\n        /* \"#utility.yul\":4179:4205   */\n      swap1\n      pop\n        /* \"#utility.yul\":4215:4286   */\n      tag_200\n        /* \"#utility.yul\":4283:4284   */\n      0x00\n        /* \"#utility.yul\":4272:4281   */\n      dup4\n        /* \"#utility.yul\":4268:4285   */\n      add\n        /* \"#utility.yul\":4259:4265   */\n      dup7\n        /* \"#utility.yul\":4215:4286   */\n      tag_129\n      jump\t// in\n    tag_200:\n        /* \"#utility.yul\":4296:4368   */\n      tag_201\n        /* \"#utility.yul\":4364:4366   */\n      0x20\n        /* \"#utility.yul\":4353:4362   */\n      dup4\n        /* \"#utility.yul\":4349:4367   */\n      add\n        /* \"#utility.yul\":4340:4346   */\n      dup6\n        /* \"#utility.yul\":4296:4368   */\n      tag_129\n      jump\t// in\n    tag_201:\n        /* \"#utility.yul\":4378:4444   */\n      tag_202\n        /* \"#utility.yul\":4440:4442   */\n      0x40\n        /* \"#utility.yul\":4429:4438   */\n      dup4\n        /* \"#utility.yul\":4425:4443   */\n      add\n        /* \"#utility.yul\":4416:4422   */\n      dup5\n        /* \"#utility.yul\":4378:4444   */\n      tag_128\n      jump\t// in\n    tag_202:\n        /* \"#utility.yul\":4021:4451   */\n      swap5\n      swap4\n      pop\n      pop\n      pop\n      pop\n      jump\t// out\n        /* \"#utility.yul\":4457:4626   */\n    tag_130:\n        /* \"#utility.yul\":4541:4552   */\n      0x00\n        /* \"#utility.yul\":4575:4581   */\n      dup3\n        /* \"#utility.yul\":4570:4573   */\n      dup3\n        /* \"#utility.yul\":4563:4582   */\n      mstore\n        /* \"#utility.yul\":4615:4619   */\n      0x20\n        /* \"#utility.yul\":4610:4613   */\n      dup3\n        /* \"#utility.yul\":4606:4620   */\n      add\n        /* \"#utility.yul\":4591:4620   */\n      swap1\n      pop\n        /* \"#utility.yul\":4457:4626   */\n      swap3\n      swap2\n      pop\n      pop\n      jump\t// out\n        /* \"#utility.yul\":4632:4800   */\n    tag_131:\n        /* \"#utility.yul\":4772:4792   */\n      0x496e76616c6964207269736b206c6576656c0000000000000000000000000000\n        /* \"#utility.yul\":4768:4769   */\n      0x00\n        /* \"#utility.yul\":4760:4766   */\n      dup3\n        /* \"#utility.yul\":4756:4770   */\n      add\n        /* \"#utility.yul\":4749:4793   */\n      mstore\n        /* \"#utility.yul\":4632:4800   */\n      pop\n      jump\t// out\n        /* \"#utility.yul\":4806:5172   */\n    tag_132:\n        /* \"#utility.yul\":4948:4951   */\n      0x00\n        /* \"#utility.yul\":4969:5036   */\n      tag_206\n        /* \"#utility.yul\":5033:5035   */\n      0x12\n        /* \"#utility.yul\":5028:5031   */\n      dup4\n        /* \"#utility.yul\":4969:5036   */\n      tag_130\n      jump\t// in\n    tag_206:\n        /* \"#utility.yul\":4962:5036   */\n      swap2\n      pop\n        /* \"#utility.yul\":5045:5138   */\n      tag_207\n        /* \"#utility.yul\":5134:5137   */\n      dup3\n        /* \"#utility.yul\":5045:5138   */\n      tag_131\n      jump\t// in\n    tag_207:\n        /* \"#utility.yul\":5163:5165   */\n      0x20\n        /* \"#utility.yul\":5158:5161   */\n      dup3\n        /* \"#utility.yul\":5154:5166   */\n      add\n        /* \"#utility.yul\":5147:5166   */\n      swap1\n      pop\n        /* \"#utility.yul\":4806:5172   */\n      swap2\n      swap1\n      pop\n      jump\t// out\n        /* \"#utility.yul\":5178:5597   */\n    tag_57:\n        /* \"#utility.yul\":5344:5348   */\n      0x00\n        /* \"#utility.yul\":5382:5384   */\n      0x20\n        /* \"#utility.yul\":5371:5380   */\n      dup3\n        /* \"#utility.yul\":5367:5385   */\n      add\n        /* \"#utility.yul\":5359:5385   */\n      swap1\n      pop\n        /* \"#utility.yul\":5431:5440   */\n      dup2\n        /* \"#utility.yul\":5425:5429   */\n      dup2\n        /* \"#utility.yul\":5421:5441   */\n      sub\n        /* \"#utility.yul\":5417:5418   */\n      0x00\n        /* \"#utility.yul\":5406:5415   */\n      dup4\n        /* \"#utility.yul\":5402:5419   */\n      add\n        /* \"#utility.yul\":5395:5442   */\n      mstore\n        /* \"#utility.yul\":5459:5590   */\n      tag_209\n        /* \"#utility.yul\":5585:5589   */\n      dup2\n        /* \"#utility.yul\":5459:5590   */\n      tag_132\n      jump\t// in\n    tag_209:\n        /* \"#utility.yul\":5451:5590   */\n      swap1\n      pop\n        /* \"#utility.yul\":5178:5597   */\n      swap2\n      swap1\n      pop\n      jump\t// out\n        /* \"#utility.yul\":5603:5769   */\n    tag_133:\n        /* \"#utility.yul\":5743:5761   */\n      0x506f7274666f6c696f2065786973747300000000000000000000000000000000\n        /* \"#utility.yul\":5739:5740   */\n      0x00\n        /* \"#utility.yul\":5731:5737   */\n      dup3\n        /* \"#utility.yul\":5727:5741   */\n      add\n        /* \"#utility.yul\":5720:5762   */\n      mstore\n        /* \"#utility.yul\":5603:5769   */\n      pop\n      jump\t// out\n        /* \"#utility.yul\":5775:6141   */\n    tag_134:\n        /* \"#utility.yul\":5917:5920   */\n      0x00\n        /* \"#utility.yul\":5938:6005   */\n      tag_212\n        /* \"#utility.yul\":6002:6004   */\n      0x10\n        /* \"#utility.yul\":5997:6000   */\n      dup4\n        /* \"#utility.yul\":5938:6005   */\n      tag_130\n      jump\t// in\n    tag_212:\n        /* \"#utility.yul\":5931:6005   */\n      swap2\n      pop\n        /* \"#utility.yul\":6014:6107   */\n      tag_213\n        /* \"#utility.yul\":6103:6106   */\n      dup3\n        /* \"#utility.yul\":6014:6107   */\n      tag_133\n      jump\t// in\n    tag_213:\n        /* \"#utility.yul\":6132:6134   */\n      0x20\n        /* \"#utility.yul\":6127:6130   */\n      dup3\n        /* \"#utility.yul\":6123:6135   */\n      add\n        /* \"#utility.yul\":6116:6135   */\n      swap1\n      pop\n        /* \"#utility.yul\":5775:6141   */\n      swap2\n      swap1\n      pop\n      jump\t// out\n        /* \"#utility.yul\":6147:6566   */\n    tag_60:\n        /* \"#utility.yul\":6313:6317   */\n      0x00\n        /* \"#utility.yul\":6351:6353   */\n      0x20\n        /* \"#utility.yul\":6340:6349   */\n      dup3\n        /* \"#utility.yul\":6336:6354   */\n      add\n        /* \"#utility.yul\":6328:6354   */\n      swap1\n      pop\n        /* \"#utility.yul\":6400:6409   */\n      dup2\n        /* \"#utility.yul\":6394:6398   */\n      dup2\n        /* \"#utility.yul\":6390:6410   */\n      sub\n        /* \"#utility.yul\":6386:6387   */\n      0x00\n        /* \"#utility.yul\":6375:6384   */\n      dup4\n        /* \"#utility.yul\":6371:6388   */\n      add\n        /* \"#utility.yul\":6364:6411   */\n      mstore\n        /* \"#utility.yul\":6428:6559   */\n      tag_215\n        /* \"#utility.yul\":6554:6558   */\n      dup2\n        /* \"#utility.yul\":6428:6559   */\n      tag_134\n      jump\t// in\n    tag_215:\n        /* \"#utility.yul\":6420:6559   */\n      swap1\n      pop\n        /* \"#utility.yul\":6147:6566   */\n      swap2\n      swap1\n      pop\n      jump\t// out\n        /* \"#utility.yul\":6572:6794   */\n    tag_62:\n        /* \"#utility.yul\":6665:6669   */\n      0x00\n        /* \"#utility.yul\":6703:6705   */\n      0x20\n        /* \"#utility.yul\":6692:6701   */\n      dup3\n        /* \"#utility.yul\":6688:6706   */\n      add\n        /* \"#utility.yul\":6680:6706   */\n      swap1\n      pop\n        /* \"#utility.yul\":6716:6787   */\n      tag_217\n        /* \"#utility.yul\":6784:6785   */\n      0x00\n        /* \"#utility.yul\":6773:6782   */\n      dup4\n        /* \"#utility.yul\":6769:6786   */\n      add\n        /* \"#utility.yul\":6760:6766   */\n      dup5\n        /* \"#utility.yul\":6716:6787   */\n      tag_129\n      jump\t// in\n    tag_217:\n        /* \"#utility.yul\":6572:6794   */\n      swap3\n      swap2\n      pop\n      pop\n      jump\t// out\n        /* \"#utility.yul\":6800:6968   */\n    tag_135:\n        /* \"#utility.yul\":6940:6960   */\n      0x546f6b656e206e6f7420617070726f7665640000000000000000000000000000\n        /* \"#utility.yul\":6936:6937   */\n      0x00\n        /* \"#utility.yul\":6928:6934   */\n      dup3\n        /* \"#utility.yul\":6924:6938   */\n      add\n        /* \"#utility.yul\":6917:6961   */\n      mstore\n        /* \"#utility.yul\":6800:6968   */\n      pop\n      jump\t// out\n        /* \"#utility.yul\":6974:7340   */\n    tag_136:\n        /* \"#utility.yul\":7116:7119   */\n      0x00\n        /* \"#utility.yul\":7137:7204   */\n      tag_220\n        /* \"#utility.yul\":7201:7203   */\n      0x12\n        /* \"#utility.yul\":7196:7199   */\n      dup4\n        /* \"#utility.yul\":7137:7204   */\n      tag_130\n      jump\t// in\n    tag_220:\n        /* \"#utility.yul\":7130:7204   */\n      swap2\n      pop\n        /* \"#utility.yul\":7213:7306   */\n      tag_221\n        /* \"#utility.yul\":7302:7305   */\n      dup3\n        /* \"#utility.yul\":7213:7306   */\n      tag_135\n      jump\t// in\n    tag_221:\n        /* \"#utility.yul\":7331:7333   */\n      0x20\n        /* \"#utility.yul\":7326:7329   */\n      dup3\n        /* \"#utility.yul\":7322:7334   */\n      add\n        /* \"#utility.yul\":7315:7334   */\n      swap1\n      pop\n        /* \"#utility.yul\":6974:7340   */\n      swap2\n      swap1\n      pop\n      jump\t// out\n        /* \"#utility.yul\":7346:7765   */\n    tag_66:\n        /* \"#utility.yul\":7512:7516   */\n      0x00\n        /* \"#utility.yul\":7550:7552   */\n      0x20\n        /* \"#utility.yul\":7539:7548   */\n      dup3\n        /* \"#utility.yul\":7535:7553   */\n      add\n        /* \"#utility.yul\":7527:7553   */\n      swap1\n      pop\n        /* \"#utility.yul\":7599:7608   */\n      dup2\n        /* \"#utility.yul\":7593:7597   */\n      dup2\n        /* \"#utility.yul\":7589:7609   */\n      sub\n        /* \"#utility.yul\":7585:7586   */\n      0x00\n        /* \"#utility.yul\":7574:7583   */\n      dup4\n        /* \"#utility.yul\":7570:7587   */\n      add\n        /* \"#utility.yul\":7563:7610   */\n      mstore\n        /* \"#utility.yul\":7627:7758   */\n      tag_223\n        /* \"#utility.yul\":7753:7757   */\n      dup2\n        /* \"#utility.yul\":7627:7758   */\n      tag_136\n      jump\t// in\n    tag_223:\n        /* \"#utility.yul\":7619:7758   */\n      swap1\n      pop\n        /* \"#utility.yul\":7346:7765   */\n      swap2\n      swap1\n      pop\n      jump\t// out\n        /* \"#utility.yul\":7771:7940   */\n    tag_137:\n        /* \"#utility.yul\":7911:7932   */\n      0x4e6f2061637469766520706f7274666f6c696f00000000000000000000000000\n        /* \"#utility.yul\":7907:7908   */\n      0x00\n        /* \"#utility.yul\":7899:7905   */\n      dup3\n        /* \"#utility.yul\":7895:7909   */\n      add\n        /* \"#utility.yul\":7888:7933   */\n      mstore\n        /* \"#utility.yul\":7771:7940   */\n      pop\n      jump\t// out\n        /* \"#utility.yul\":7946:8312   */\n    tag_138:\n        /* \"#utility.yul\":8088:8091   */\n      0x00\n        /* \"#utility.yul\":8109:8176   */\n      tag_226\n        /* \"#utility.yul\":8173:8175   */\n      0x13\n        /* \"#utility.yul\":8168:8171   */\n      dup4\n        /* \"#utility.yul\":8109:8176   */\n      tag_130\n      jump\t// in\n    tag_226:\n        /* \"#utility.yul\":8102:8176   */\n      swap2\n      pop\n        /* \"#utility.yul\":8185:8278   */\n      tag_227\n        /* \"#utility.yul\":8274:8277   */\n      dup3\n        /* \"#utility.yul\":8185:8278   */\n      tag_137\n      jump\t// in\n    tag_227:\n        /* \"#utility.yul\":8303:8305   */\n      0x20\n        /* \"#utility.yul\":8298:8301   */\n      dup3\n        /* \"#utility.yul\":8294:8306   */\n      add\n        /* \"#utility.yul\":8287:8306   */\n      swap1\n      pop\n        /* \"#utility.yul\":7946:8312   */\n      swap2\n      swap1\n      pop\n      jump\t// out\n        /* \"#utility.yul\":8318:8737   */\n    tag_69:\n        /* \"#utility.yul\":8484:8488   */\n      0x00\n        /* \"#utility.yul\":8522:8524   */\n      0x20\n        /* \"#utility.yul\":8511:8520   */\n      dup3\n        /* \"#utility.yul\":8507:8525   */\n      add\n        /* \"#utility.yul\":8499:8525   */\n      swap1\n      pop\n        /* \"#utility.yul\":8571:8580   */\n      dup2\n        /* \"#utility.yul\":8565:8569   */\n      dup2\n        /* \"#utility.yul\":8561:8581   */\n      sub\n        /* \"#utility.yul\":8557:8558   */\n      0x00\n        /* \"#utility.yul\":8546:8555   */\n      dup4\n        /* \"#utility.yul\":8542:8559   */\n      add\n        /* \"#utility.yul\":8535:8582   */\n      mstore\n        /* \"#utility.yul\":8599:8730   */\n      tag_229\n        /* \"#utility.yul\":8725:8729   */\n      dup2\n        /* \"#utility.yul\":8599:8730   */\n      tag_138\n      jump\t// in\n    tag_229:\n        /* \"#utility.yul\":8591:8730   */\n      swap1\n      pop\n        /* \"#utility.yul\":8318:8737   */\n      swap2\n      swap1\n      pop\n      jump\t// out\n        /* \"#utility.yul\":8743:9185   */\n    tag_71:\n        /* \"#utility.yul\":8892:8896   */\n      0x00\n        /* \"#utility.yul\":8930:8932   */\n      0x60\n        /* \"#utility.yul\":8919:8928   */\n      dup3\n        /* \"#utility.yul\":8915:8933   */\n      add\n        /* \"#utility.yul\":8907:8933   */\n      swap1\n      pop\n        /* \"#utility.yul\":8943:9014   */\n      tag_231\n        /* \"#utility.yul\":9011:9012   */\n      0x00\n        /* \"#utility.yul\":9000:9009   */\n      dup4\n        /* \"#utility.yul\":8996:9013   */\n      add\n        /* \"#utility.yul\":8987:8993   */\n      dup7\n        /* \"#utility.yul\":8943:9014   */\n      tag_118\n      jump\t// in\n    tag_231:\n        /* \"#utility.yul\":9024:9096   */\n      tag_232\n        /* \"#utility.yul\":9092:9094   */\n      0x20\n        /* \"#utility.yul\":9081:9090   */\n      dup4\n        /* \"#utility.yul\":9077:9095   */\n      add\n        /* \"#utility.yul\":9068:9074   */\n      dup6\n        /* \"#utility.yul\":9024:9096   */\n      tag_118\n      jump\t// in\n    tag_232:\n        /* \"#utility.yul\":9106:9178   */\n      tag_233\n        /* \"#utility.yul\":9174:9176   */\n      0x40\n        /* \"#utility.yul\":9163:9172   */\n      dup4\n        /* \"#utility.yul\":9159:9177   */\n      add\n        /* \"#utility.yul\":9150:9156   */\n      dup5\n        /* \"#utility.yul\":9106:9178   */\n      tag_129\n      jump\t// in\n    tag_233:\n        /* \"#utility.yul\":8743:9185   */\n      swap5\n      swap4\n      pop\n      pop\n      pop\n      pop\n      jump\t// out\n        /* \"#utility.yul\":9191:9307   */\n    tag_139:\n        /* \"#utility.yul\":9261:9282   */\n      tag_235\n        /* \"#utility.yul\":9276:9281   */\n      dup2\n        /* \"#utility.yul\":9261:9282   */\n      tag_127\n      jump\t// in\n    tag_235:\n        /* \"#utility.yul\":9254:9259   */\n      dup2\n        /* \"#utility.yul\":9251:9283   */\n      eq\n        /* \"#utility.yul\":9241:9301   */\n      tag_236\n      jumpi\n        /* \"#utility.yul\":9297:9298   */\n      0x00\n        /* \"#utility.yul\":9294:9295   */\n      dup1\n        /* \"#utility.yul\":9287:9299   */\n      revert\n        /* \"#utility.yul\":9241:9301   */\n    tag_236:\n        /* \"#utility.yul\":9191:9307   */\n      pop\n      jump\t// out\n        /* \"#utility.yul\":9313:9450   */\n    tag_140:\n        /* \"#utility.yul\":9367:9372   */\n      0x00\n        /* \"#utility.yul\":9398:9404   */\n      dup2\n        /* \"#utility.yul\":9392:9405   */\n      mload\n        /* \"#utility.yul\":9383:9405   */\n      swap1\n      pop\n        /* \"#utility.yul\":9414:9444   */\n      tag_238\n        /* \"#utility.yul\":9438:9443   */\n      dup2\n        /* \"#utility.yul\":9414:9444   */\n      tag_139\n      jump\t// in\n    tag_238:\n        /* \"#utility.yul\":9313:9450   */\n      swap3\n      swap2\n      pop\n      pop\n      jump\t// out\n        /* \"#utility.yul\":9456:9801   */\n    tag_75:\n        /* \"#utility.yul\":9523:9529   */\n      0x00\n        /* \"#utility.yul\":9572:9574   */\n      0x20\n        /* \"#utility.yul\":9560:9569   */\n      dup3\n        /* \"#utility.yul\":9551:9558   */\n      dup5\n        /* \"#utility.yul\":9547:9570   */\n      sub\n        /* \"#utility.yul\":9543:9575   */\n      slt\n        /* \"#utility.yul\":9540:9659   */\n      iszero\n      tag_240\n      jumpi\n        /* \"#utility.yul\":9578:9657   */\n      tag_241\n      tag_120\n      jump\t// in\n    tag_241:\n        /* \"#utility.yul\":9540:9659   */\n    tag_240:\n        /* \"#utility.yul\":9698:9699   */\n      0x00\n        /* \"#utility.yul\":9723:9784   */\n      tag_242\n        /* \"#utility.yul\":9776:9783   */\n      dup5\n        /* \"#utility.yul\":9767:9773   */\n      dup3\n        /* \"#utility.yul\":9756:9765   */\n      dup6\n        /* \"#utility.yul\":9752:9774   */\n      add\n        /* \"#utility.yul\":9723:9784   */\n      tag_140\n      jump\t// in\n    tag_242:\n        /* \"#utility.yul\":9713:9784   */\n      swap2\n      pop\n        /* \"#utility.yul\":9669:9794   */\n      pop\n        /* \"#utility.yul\":9456:9801   */\n      swap3\n      swap2\n      pop\n      pop\n      jump\t// out\n        /* \"#utility.yul\":9807:9987   */\n    tag_141:\n        /* \"#utility.yul\":9855:9932   */\n      0x4e487b7100000000000000000000000000000000000000000000000000000000\n        /* \"#utility.yul\":9852:9853   */\n      0x00\n        /* \"#utility.yul\":9845:9933   */\n      mstore\n        /* \"#utility.yul\":9952:9956   */\n      0x11\n        /* \"#utility.yul\":9949:9950   */\n      0x04\n        /* \"#utility.yul\":9942:9957   */\n      mstore\n        /* \"#utility.yul\":9976:9980   */\n      0x24\n        /* \"#utility.yul\":9973:9974   */\n      0x00\n        /* \"#utility.yul\":9966:9981   */\n      revert\n        /* \"#utility.yul\":9993:10184   */\n    tag_77:\n        /* \"#utility.yul\":10033:10036   */\n      0x00\n        /* \"#utility.yul\":10052:10072   */\n      tag_245\n        /* \"#utility.yul\":10070:10071   */\n      dup3\n        /* \"#utility.yul\":10052:10072   */\n      tag_122\n      jump\t// in\n    tag_245:\n        /* \"#utility.yul\":10047:10072   */\n      swap2\n      pop\n        /* \"#utility.yul\":10086:10106   */\n      tag_246\n        /* \"#utility.yul\":10104:10105   */\n      dup4\n        /* \"#utility.yul\":10086:10106   */\n      tag_122\n      jump\t// in\n    tag_246:\n        /* \"#utility.yul\":10081:10106   */\n      swap3\n      pop\n        /* \"#utility.yul\":10129:10130   */\n      dup3\n        /* \"#utility.yul\":10126:10127   */\n      dup3\n        /* \"#utility.yul\":10122:10131   */\n      add\n        /* \"#utility.yul\":10115:10131   */\n      swap1\n      pop\n        /* \"#utility.yul\":10150:10153   */\n      dup1\n        /* \"#utility.yul\":10147:10148   */\n      dup3\n        /* \"#utility.yul\":10144:10154   */\n      gt\n        /* \"#utility.yul\":10141:10177   */\n      iszero\n      tag_247\n      jumpi\n        /* \"#utility.yul\":10157:10175   */\n      tag_248\n      tag_141\n      jump\t// in\n    tag_248:\n        /* \"#utility.yul\":10141:10177   */\n    tag_247:\n        /* \"#utility.yul\":9993:10184   */\n      swap3\n      swap2\n      pop\n      pop\n      jump\t// out\n        /* \"#utility.yul\":10190:10349   */\n    tag_142:\n        /* \"#utility.yul\":10330:10341   */\n      0x4e6f74206f776e65720000000000000000000000000000000000000000000000\n        /* \"#utility.yul\":10326:10327   */\n      0x00\n        /* \"#utility.yul\":10318:10324   */\n      dup3\n        /* \"#utility.yul\":10314:10328   */\n      add\n        /* \"#utility.yul\":10307:10342   */\n      mstore\n        /* \"#utility.yul\":10190:10349   */\n      pop\n      jump\t// out\n        /* \"#utility.yul\":10355:10720   */\n    tag_143:\n        /* \"#utility.yul\":10497:10500   */\n      0x00\n        /* \"#utility.yul\":10518:10584   */\n      tag_251\n        /* \"#utility.yul\":10582:10583   */\n      0x09\n        /* \"#utility.yul\":10577:10580   */\n      dup4\n        /* \"#utility.yul\":10518:10584   */\n      tag_130\n      jump\t// in\n    tag_251:\n        /* \"#utility.yul\":10511:10584   */\n      swap2\n      pop\n        /* \"#utility.yul\":10593:10686   */\n      tag_252\n        /* \"#utility.yul\":10682:10685   */\n      dup3\n        /* \"#utility.yul\":10593:10686   */\n      tag_142\n      jump\t// in\n    tag_252:\n        /* \"#utility.yul\":10711:10713   */\n      0x20\n        /* \"#utility.yul\":10706:10709   */\n      dup3\n        /* \"#utility.yul\":10702:10714   */\n      add\n        /* \"#utility.yul\":10695:10714   */\n      swap1\n      pop\n        /* \"#utility.yul\":10355:10720   */\n      swap2\n      swap1\n      pop\n      jump\t// out\n        /* \"#utility.yul\":10726:11145   */\n    tag_81:\n        /* \"#utility.yul\":10892:10896   */\n      0x00\n        /* \"#utility.yul\":10930:10932   */\n      0x20\n        /* \"#utility.yul\":10919:10928   */\n      dup3\n        /* \"#utility.yul\":10915:10933   */\n      add\n        /* \"#utility.yul\":10907:10933   */\n      swap1\n      pop\n        /* \"#utility.yul\":10979:10988   */\n      dup2\n        /* \"#utility.yul\":10973:10977   */\n      dup2\n        /* \"#utility.yul\":10969:10989   */\n      sub\n        /* \"#utility.yul\":10965:10966   */\n      0x00\n        /* \"#utility.yul\":10954:10963   */\n      dup4\n        /* \"#utility.yul\":10950:10967   */\n      add\n        /* \"#utility.yul\":10943:10990   */\n      mstore\n        /* \"#utility.yul\":11007:11138   */\n      tag_254\n        /* \"#utility.yul\":11133:11137   */\n      dup2\n        /* \"#utility.yul\":11007:11138   */\n      tag_143\n      jump\t// in\n    tag_254:\n        /* \"#utility.yul\":10999:11138   */\n      swap1\n      pop\n        /* \"#utility.yul\":10726:11145   */\n      swap2\n      swap1\n      pop\n      jump\t// out\n        /* \"#utility.yul\":11151:11314   */\n    tag_144:\n        /* \"#utility.yul\":11291:11306   */\n      0x4e6f742041492074726164657200000000000000000000000000000000000000\n        /* \"#utility.yul\":11287:11288   */\n      0x00\n        /* \"#utility.yul\":11279:11285   */\n      dup3\n        /* \"#utility.yul\":11275:11289   */\n      add\n        /* \"#utility.yul\":11268:11307   */\n      mstore\n        /* \"#utility.yul\":11151:11314   */\n      pop\n      jump\t// out\n        /* \"#utility.yul\":11320:11686   */\n    tag_145:\n        /* \"#utility.yul\":11462:11465   */\n      0x00\n        /* \"#utility.yul\":11483:11550   */\n      tag_257\n        /* \"#utility.yul\":11547:11549   */\n      0x0d\n        /* \"#utility.yul\":11542:11545   */\n      dup4\n        /* \"#utility.yul\":11483:11550   */\n      tag_130\n      jump\t// in\n    tag_257:\n        /* \"#utility.yul\":11476:11550   */\n      swap2\n      pop\n        /* \"#utility.yul\":11559:11652   */\n      tag_258\n        /* \"#utility.yul\":11648:11651   */\n      dup3\n        /* \"#utility.yul\":11559:11652   */\n      tag_144\n      jump\t// in\n    tag_258:\n        /* \"#utility.yul\":11677:11679   */\n      0x20\n        /* \"#utility.yul\":11672:11675   */\n      dup3\n        /* \"#utility.yul\":11668:11680   */\n      add\n        /* \"#utility.yul\":11661:11680   */\n      swap1\n      pop\n        /* \"#utility.yul\":11320:11686   */\n      swap2\n      swap1\n      pop\n      jump\t// out\n        /* \"#utility.yul\":11692:12111   */\n    tag_86:\n        /* \"#utility.yul\":11858:11862   */\n      0x00\n        /* \"#utility.yul\":11896:11898   */\n      0x20\n        /* \"#utility.yul\":11885:11894   */\n      dup3\n        /* \"#utility.yul\":11881:11899   */\n      add\n        /* \"#utility.yul\":11873:11899   */\n      swap1\n      pop\n        /* \"#utility.yul\":11945:11954   */\n      dup2\n        /* \"#utility.yul\":11939:11943   */\n      dup2\n        /* \"#utility.yul\":11935:11955   */\n      sub\n        /* \"#utility.yul\":11931:11932   */\n      0x00\n        /* \"#utility.yul\":11920:11929   */\n      dup4\n        /* \"#utility.yul\":11916:11933   */\n      add\n        /* \"#utility.yul\":11909:11956   */\n      mstore\n        /* \"#utility.yul\":11973:12104   */\n      tag_260\n        /* \"#utility.yul\":12099:12103   */\n      dup2\n        /* \"#utility.yul\":11973:12104   */\n      tag_145\n      jump\t// in\n    tag_260:\n        /* \"#utility.yul\":11965:12104   */\n      swap1\n      pop\n        /* \"#utility.yul\":11692:12111   */\n      swap2\n      swap1\n      pop\n      jump\t// out\n        /* \"#utility.yul\":12117:12284   */\n    tag_146:\n        /* \"#utility.yul\":12257:12276   */\n      0x556e617070726f76656420746f6b656e73000000000000000000000000000000\n        /* \"#utility.yul\":12253:12254   */\n      0x00\n        /* \"#utility.yul\":12245:12251   */\n      dup3\n        /* \"#utility.yul\":12241:12255   */\n      add\n        /* \"#utility.yul\":12234:12277   */\n      mstore\n        /* \"#utility.yul\":12117:12284   */\n      pop\n      jump\t// out\n        /* \"#utility.yul\":12290:12656   */\n    tag_147:\n        /* \"#utility.yul\":12432:12435   */\n      0x00\n        /* \"#utility.yul\":12453:12520   */\n      tag_263\n        /* \"#utility.yul\":12517:12519   */\n      0x11\n        /* \"#utility.yul\":12512:12515   */\n      dup4\n        /* \"#utility.yul\":12453:12520   */\n      tag_130\n      jump\t// in\n    tag_263:\n        /* \"#utility.yul\":12446:12520   */\n      swap2\n      pop\n        /* \"#utility.yul\":12529:12622   */\n      tag_264\n        /* \"#utility.yul\":12618:12621   */\n      dup3\n        /* \"#utility.yul\":12529:12622   */\n      tag_146\n      jump\t// in\n    tag_264:\n        /* \"#utility.yul\":12647:12649   */\n      0x20\n        /* \"#utility.yul\":12642:12645   */\n      dup3\n        /* \"#utility.yul\":12638:12650   */\n      add\n        /* \"#utility.yul\":12631:12650   */\n      swap1\n      pop\n        /* \"#utility.yul\":12290:12656   */\n      swap2\n      swap1\n      pop\n      jump\t// out\n        /* \"#utility.yul\":12662:13081   */\n    tag_91:\n        /* \"#utility.yul\":12828:12832   */\n      0x00\n        /* \"#utility.yul\":12866:12868   */\n      0x20\n        /* \"#utility.yul\":12855:12864   */\n      dup3\n        /* \"#utility.yul\":12851:12869   */\n      add\n        /* \"#utility.yul\":12843:12869   */\n      swap1\n      pop\n        /* \"#utility.yul\":12915:12924   */\n      dup2\n        /* \"#utility.yul\":12909:12913   */\n      dup2\n        /* \"#utility.yul\":12905:12925   */\n      sub\n        /* \"#utility.yul\":12901:12902   */\n      0x00\n        /* \"#utility.yul\":12890:12899   */\n      dup4\n        /* \"#utility.yul\":12886:12903   */\n      add\n        /* \"#utility.yul\":12879:12926   */\n      mstore\n        /* \"#utility.yul\":12943:13074   */\n      tag_266\n        /* \"#utility.yul\":13069:13073   */\n      dup2\n        /* \"#utility.yul\":12943:13074   */\n      tag_147\n      jump\t// in\n    tag_266:\n        /* \"#utility.yul\":12935:13074   */\n      swap1\n      pop\n        /* \"#utility.yul\":12662:13081   */\n      swap2\n      swap1\n      pop\n      jump\t// out\n        /* \"#utility.yul\":13087:13257   */\n    tag_148:\n        /* \"#utility.yul\":13227:13249   */\n      0x496e73756666696369656e742062616c616e6365000000000000000000000000\n        /* \"#utility.yul\":13223:13224   */\n      0x00\n        /* \"#utility.yul\":13215:13221   */\n      dup3\n        /* \"#utility.yul\":13211:13225   */\n      add\n        /* \"#utility.yul\":13204:13250   */\n      mstore\n        /* \"#utility.yul\":13087:13257   */\n      pop\n      jump\t// out\n        /* \"#utility.yul\":13263:13629   */\n    tag_149:\n        /* \"#utility.yul\":13405:13408   */\n      0x00\n        /* \"#utility.yul\":13426:13493   */\n      tag_269\n        /* \"#utility.yul\":13490:13492   */\n      0x14\n        /* \"#utility.yul\":13485:13488   */\n      dup4\n        /* \"#utility.yul\":13426:13493   */\n      tag_130\n      jump\t// in\n    tag_269:\n        /* \"#utility.yul\":13419:13493   */\n      swap2\n      pop\n        /* \"#utility.yul\":13502:13595   */\n      tag_270\n        /* \"#utility.yul\":13591:13594   */\n      dup3\n        /* \"#utility.yul\":13502:13595   */\n      tag_148\n      jump\t// in\n    tag_270:\n        /* \"#utility.yul\":13620:13622   */\n      0x20\n        /* \"#utility.yul\":13615:13618   */\n      dup3\n        /* \"#utility.yul\":13611:13623   */\n      add\n        /* \"#utility.yul\":13604:13623   */\n      swap1\n      pop\n        /* \"#utility.yul\":13263:13629   */\n      swap2\n      swap1\n      pop\n      jump\t// out\n        /* \"#utility.yul\":13635:14054   */\n    tag_96:\n        /* \"#utility.yul\":13801:13805   */\n      0x00\n        /* \"#utility.yul\":13839:13841   */\n      0x20\n        /* \"#utility.yul\":13828:13837   */\n      dup3\n        /* \"#utility.yul\":13824:13842   */\n      add\n        /* \"#utility.yul\":13816:13842   */\n      swap1\n      pop\n        /* \"#utility.yul\":13888:13897   */\n      dup2\n        /* \"#utility.yul\":13882:13886   */\n      dup2\n        /* \"#utility.yul\":13878:13898   */\n      sub\n        /* \"#utility.yul\":13874:13875   */\n      0x00\n        /* \"#utility.yul\":13863:13872   */\n      dup4\n        /* \"#utility.yul\":13859:13876   */\n      add\n        /* \"#utility.yul\":13852:13899   */\n      mstore\n        /* \"#utility.yul\":13916:14047   */\n      tag_272\n        /* \"#utility.yul\":14042:14046   */\n      dup2\n        /* \"#utility.yul\":13916:14047   */\n      tag_149\n      jump\t// in\n    tag_272:\n        /* \"#utility.yul\":13908:14047   */\n      swap1\n      pop\n        /* \"#utility.yul\":13635:14054   */\n      swap2\n      swap1\n      pop\n      jump\t// out\n        /* \"#utility.yul\":14060:14254   */\n    tag_98:\n        /* \"#utility.yul\":14100:14104   */\n      0x00\n        /* \"#utility.yul\":14120:14140   */\n      tag_274\n        /* \"#utility.yul\":14138:14139   */\n      dup3\n        /* \"#utility.yul\":14120:14140   */\n      tag_122\n      jump\t// in\n    tag_274:\n        /* \"#utility.yul\":14115:14140   */\n      swap2\n      pop\n        /* \"#utility.yul\":14154:14174   */\n      tag_275\n        /* \"#utility.yul\":14172:14173   */\n      dup4\n        /* \"#utility.yul\":14154:14174   */\n      tag_122\n      jump\t// in\n    tag_275:\n        /* \"#utility.yul\":14149:14174   */\n      swap3\n      pop\n        /* \"#utility.yul\":14198:14199   */\n      dup3\n        /* \"#utility.yul\":14195:14196   */\n      dup3\n        /* \"#utility.yul\":14191:14200   */\n      sub\n        /* \"#utility.yul\":14183:14200   */\n      swap1\n      pop\n        /* \"#utility.yul\":14222:14223   */\n      dup2\n        /* \"#utility.yul\":14216:14220   */\n      dup2\n        /* \"#utility.yul\":14213:14224   */\n      gt\n        /* \"#utility.yul\":14210:14247   */\n      iszero\n      tag_276\n      jumpi\n        /* \"#utility.yul\":14227:14245   */\n      tag_277\n      tag_141\n      jump\t// in\n    tag_277:\n        /* \"#utility.yul\":14210:14247   */\n    tag_276:\n        /* \"#utility.yul\":14060:14254   */\n      swap3\n      swap2\n      pop\n      pop\n      jump\t// out\n        /* \"#utility.yul\":14260:14592   */\n    tag_112:\n        /* \"#utility.yul\":14381:14385   */\n      0x00\n        /* \"#utility.yul\":14419:14421   */\n      0x40\n        /* \"#utility.yul\":14408:14417   */\n      dup3\n        /* \"#utility.yul\":14404:14422   */\n      add\n        /* \"#utility.yul\":14396:14422   */\n      swap1\n      pop\n        /* \"#utility.yul\":14432:14503   */\n      tag_279\n        /* \"#utility.yul\":14500:14501   */\n      0x00\n        /* \"#utility.yul\":14489:14498   */\n      dup4\n        /* \"#utility.yul\":14485:14502   */\n      add\n        /* \"#utility.yul\":14476:14482   */\n      dup6\n        /* \"#utility.yul\":14432:14503   */\n      tag_118\n      jump\t// in\n    tag_279:\n        /* \"#utility.yul\":14513:14585   */\n      tag_280\n        /* \"#utility.yul\":14581:14583   */\n      0x20\n        /* \"#utility.yul\":14570:14579   */\n      dup4\n        /* \"#utility.yul\":14566:14584   */\n      add\n        /* \"#utility.yul\":14557:14563   */\n      dup5\n        /* \"#utility.yul\":14513:14585   */\n      tag_129\n      jump\t// in\n    tag_280:\n        /* \"#utility.yul\":14260:14592   */\n      swap4\n      swap3\n      pop\n      pop\n      pop\n      jump\t// out\n\n    auxdata: 0xa2646970667358221220ebf9c05393863226ac97e6c975055671c9fc244340b6e69b245d82d4d2644ece64736f6c634300081a0033\n}\n",
				"bytecode": {
					"linkReferences": {},
					"object": "608060405234801561000f575f80fd5b5060405161171f38038061171f83398181016040528101906100319190610115565b3360025f6101000a81548173ffffffffffffffffffffffffffffffffffffffff021916908373ffffffffffffffffffffffffffffffffffffffff1602179055508060035f6101000a81548173ffffffffffffffffffffffffffffffffffffffff021916908373ffffffffffffffffffffffffffffffffffffffff16021790555050610140565b5f80fd5b5f73ffffffffffffffffffffffffffffffffffffffff82169050919050565b5f6100e4826100bb565b9050919050565b6100f4816100da565b81146100fe575f80fd5b50565b5f8151905061010f816100eb565b92915050565b5f6020828403121561012a576101296100b7565b5b5f61013784828501610101565b91505092915050565b6115d28061014d5f395ff3fe608060405234801561000f575f80fd5b506004361061009c575f3560e01c80638da5cb5b116100645780638da5cb5b14610142578063b1d6e59d14610160578063b61920c11461017c578063d48bfca7146101ae578063f3fef3a3146101ca5761009c565b8063138a5e25146100a057806343b25452146100be57806347e7ef24146100da5780635fa7b584146100f65780636d1ea3fa14610112575b5f80fd5b6100a86101e6565b6040516100b59190610f06565b60405180910390f35b6100d860048036038101906100d39190610f56565b61020b565b005b6100f460048036038101906100ef9190610fab565b61039c565b005b610110600480360381019061010b9190610fe9565b6105c2565b005b61012c60048036038101906101279190610fe9565b6106eb565b604051610139919061102e565b60405180910390f35b61014a610708565b6040516101579190610f06565b60405180910390f35b61017a60048036038101906101759190611047565b61072d565b005b61019660048036038101906101919190610fe9565b610b15565b6040516101a5939291906110ba565b60405180910390f35b6101c860048036038101906101c39190610fe9565b610b46565b005b6101e460048036038101906101df9190610fab565b610c6f565b005b60035f9054906101000a900473ffffffffffffffffffffffffffffffffffffffff1681565b5f8111801561021b5750600a8111155b61025a576040517f08c379a000000000000000000000000000000000000000000000000000000000815260040161025190611149565b60405180910390fd5b5f803373ffffffffffffffffffffffffffffffffffffffff1673ffffffffffffffffffffffffffffffffffffffff1681526020019081526020015f206003015f9054906101000a900460ff16156102e6576040517f08c379a00000000000000000000000000000000000000000000000000000000081526004016102dd906111b1565b60405180910390fd5b5f805f3373ffffffffffffffffffffffffffffffffffffffff1673ffffffffffffffffffffffffffffffffffffffff1681526020019081526020015f2090508181600101819055506001816003015f6101000a81548160ff0219169083151502179055503373ffffffffffffffffffffffffffffffffffffffff167f67fb572dde9f80bfb3f0454266d9258cf72d569e4ef809f9301b9ee757dd78d08360405161039091906111cf565b60405180910390a25050565b60015f8373ffffffffffffffffffffffffffffffffffffffff1673ffffffffffffffffffffffffffffffffffffffff1681526020019081526020015f205f9054906101000a900460ff16610425576040517f08c379a000000000000000000000000000000000000000000000000000000000815260040161041c90611232565b60405180910390fd5b5f803373ffffffffffffffffffffffffffffffffffffffff1673ffffffffffffffffffffffffffffffffffffffff1681526020019081526020015f206003015f9054906101000a900460ff166104b0576040517f08c379a00000000000000000000000000000000000000000000000000000000081526004016104a79061129a565b60405180910390fd5b8173ffffffffffffffffffffffffffffffffffffffff166323b872dd3330846040518463ffffffff1660e01b81526004016104ed939291906112b8565b6020604051808303815f875af1158015610509573d5f803e3d5ffd5b505050506040513d601f19601f8201168201806040525081019061052d9190611317565b50805f803373ffffffffffffffffffffffffffffffffffffffff1673ffffffffffffffffffffffffffffffffffffffff1681526020019081526020015f206002015f8473ffffffffffffffffffffffffffffffffffffffff1673ffffffffffffffffffffffffffffffffffffffff1681526020019081526020015f205f8282546105b7919061136f565b925050819055505050565b60025f9054906101000a900473ffffffffffffffffffffffffffffffffffffffff1673ffffffffffffffffffffffffffffffffffffffff163373ffffffffffffffffffffffffffffffffffffffff1614610651576040517f08c379a0000000000000000000000000000000000000000000000000000000008152600401610648906113ec565b60405180910390fd5b5f60015f8373ffffffffffffffffffffffffffffffffffffffff1673ffffffffffffffffffffffffffffffffffffffff1681526020019081526020015f205f6101000a81548160ff0219169083151502179055508073ffffffffffffffffffffffffffffffffffffffff167f4c910b69fe65a61f7531b9c5042b2329ca7179c77290aa7e2eb3afa3c8511fd360405160405180910390a250565b6001602052805f5260405f205f915054906101000a900460ff1681565b60025f9054906101000a900473ffffffffffffffffffffffffffffffffffffffff1681565b60035f9054906101000a900473ffffffffffffffffffffffffffffffffffffffff1673ffffffffffffffffffffffffffffffffffffffff163373ffffffffffffffffffffffffffffffffffffffff16146107bc576040517f08c379a00000000000000000000000000000000000000000000000000000000081526004016107b390611454565b60405180910390fd5b60015f8473ffffffffffffffffffffffffffffffffffffffff1673ffffffffffffffffffffffffffffffffffffffff1681526020019081526020015f205f9054906101000a900460ff168015610858575060015f8373ffffffffffffffffffffffffffffffffffffffff1673ffffffffffffffffffffffffffffffffffffffff1681526020019081526020015f205f9054906101000a900460ff165b610897576040517f08c379a000000000000000000000000000000000000000000000000000000000815260040161088e906114bc565b60405180910390fd5b5f808573ffffffffffffffffffffffffffffffffffffffff1673ffffffffffffffffffffffffffffffffffffffff1681526020019081526020015f206003015f9054906101000a900460ff16610922576040517f08c379a00000000000000000000000000000000000000000000000000000000081526004016109199061129a565b60405180910390fd5b5f805f8673ffffffffffffffffffffffffffffffffffffffff1673ffffffffffffffffffffffffffffffffffffffff1681526020019081526020015f20905081816002015f8673ffffffffffffffffffffffffffffffffffffffff1673ffffffffffffffffffffffffffffffffffffffff1681526020019081526020015f205410156109e3576040517f08c379a00000000000000000000000000000000000000000000000000000000081526004016109da90611524565b60405180910390fd5b81816002015f8673ffffffffffffffffffffffffffffffffffffffff1673ffffffffffffffffffffffffffffffffffffffff1681526020019081526020015f205f828254610a319190611542565b925050819055505f82905080826002015f8673ffffffffffffffffffffffffffffffffffffffff1673ffffffffffffffffffffffffffffffffffffffff1681526020019081526020015f205f828254610a8a919061136f565b925050819055508373ffffffffffffffffffffffffffffffffffffffff168573ffffffffffffffffffffffffffffffffffffffff168773ffffffffffffffffffffffffffffffffffffffff167f7c98d1e471158166ac434c9c01540b47abb40862bbf909edb2dc73c22229a23f86604051610b0591906111cf565b60405180910390a4505050505050565b5f602052805f5260405f205f91509050805f015490806001015490806003015f9054906101000a900460ff16905083565b60025f9054906101000a900473ffffffffffffffffffffffffffffffffffffffff1673ffffffffffffffffffffffffffffffffffffffff163373ffffffffffffffffffffffffffffffffffffffff1614610bd5576040517f08c379a0000000000000000000000000000000000000000000000000000000008152600401610bcc906113ec565b60405180910390fd5b6001805f8373ffffffffffffffffffffffffffffffffffffffff1673ffffffffffffffffffffffffffffffffffffffff1681526020019081526020015f205f6101000a81548160ff0219169083151502179055508073ffffffffffffffffffffffffffffffffffffffff167f784c8f4dbf0ffedd6e72c76501c545a70f8b203b30a26ce542bf92ba87c248a460405160405180910390a250565b5f803373ffffffffffffffffffffffffffffffffffffffff1673ffffffffffffffffffffffffffffffffffffffff1681526020019081526020015f206003015f9054906101000a900460ff16610cfa576040517f08c379a0000000000000000000000000000000000000000000000000000000008152600401610cf19061129a565b60405180910390fd5b805f803373ffffffffffffffffffffffffffffffffffffffff1673ffffffffffffffffffffffffffffffffffffffff1681526020019081526020015f206002015f8473ffffffffffffffffffffffffffffffffffffffff1673ffffffffffffffffffffffffffffffffffffffff1681526020019081526020015f20541015610db7576040517f08c379a0000000000000000000000000000000000000000000000000000000008152600401610dae90611524565b60405180910390fd5b805f803373ffffffffffffffffffffffffffffffffffffffff1673ffffffffffffffffffffffffffffffffffffffff1681526020019081526020015f206002015f8473ffffffffffffffffffffffffffffffffffffffff1673ffffffffffffffffffffffffffffffffffffffff1681526020019081526020015f205f828254610e409190611542565b925050819055508173ffffffffffffffffffffffffffffffffffffffff1663a9059cbb33836040518363ffffffff1660e01b8152600401610e82929190611575565b6020604051808303815f875af1158015610e9e573d5f803e3d5ffd5b505050506040513d601f19601f82011682018060405250810190610ec29190611317565b505050565b5f73ffffffffffffffffffffffffffffffffffffffff82169050919050565b5f610ef082610ec7565b9050919050565b610f0081610ee6565b82525050565b5f602082019050610f195f830184610ef7565b92915050565b5f80fd5b5f819050919050565b610f3581610f23565b8114610f3f575f80fd5b50565b5f81359050610f5081610f2c565b92915050565b5f60208284031215610f6b57610f6a610f1f565b5b5f610f7884828501610f42565b91505092915050565b610f8a81610ee6565b8114610f94575f80fd5b50565b5f81359050610fa581610f81565b92915050565b5f8060408385031215610fc157610fc0610f1f565b5b5f610fce85828601610f97565b9250506020610fdf85828601610f42565b9150509250929050565b5f60208284031215610ffe57610ffd610f1f565b5b5f61100b84828501610f97565b91505092915050565b5f8115159050919050565b61102881611014565b82525050565b5f6020820190506110415f83018461101f565b92915050565b5f805f806080858703121561105f5761105e610f1f565b5b5f61106c87828801610f97565b945050602061107d87828801610f97565b935050604061108e87828801610f97565b925050606061109f87828801610f42565b91505092959194509250565b6110b481610f23565b82525050565b5f6060820190506110cd5f8301866110ab565b6110da60208301856110ab565b6110e7604083018461101f565b949350505050565b5f82825260208201905092915050565b7f496e76616c6964207269736b206c6576656c00000000000000000000000000005f82015250565b5f6111336012836110ef565b915061113e826110ff565b602082019050919050565b5f6020820190508181035f83015261116081611127565b9050919050565b7f506f7274666f6c696f20657869737473000000000000000000000000000000005f82015250565b5f61119b6010836110ef565b91506111a682611167565b602082019050919050565b5f6020820190508181035f8301526111c88161118f565b9050919050565b5f6020820190506111e25f8301846110ab565b92915050565b7f546f6b656e206e6f7420617070726f76656400000000000000000000000000005f82015250565b5f61121c6012836110ef565b9150611227826111e8565b602082019050919050565b5f6020820190508181035f83015261124981611210565b9050919050565b7f4e6f2061637469766520706f7274666f6c696f000000000000000000000000005f82015250565b5f6112846013836110ef565b915061128f82611250565b602082019050919050565b5f6020820190508181035f8301526112b181611278565b9050919050565b5f6060820190506112cb5f830186610ef7565b6112d86020830185610ef7565b6112e560408301846110ab565b949350505050565b6112f681611014565b8114611300575f80fd5b50565b5f81519050611311816112ed565b92915050565b5f6020828403121561132c5761132b610f1f565b5b5f61133984828501611303565b91505092915050565b7f4e487b71000000000000000000000000000000000000000000000000000000005f52601160045260245ffd5b5f61137982610f23565b915061138483610f23565b925082820190508082111561139c5761139b611342565b5b92915050565b7f4e6f74206f776e657200000000000000000000000000000000000000000000005f82015250565b5f6113d66009836110ef565b91506113e1826113a2565b602082019050919050565b5f6020820190508181035f830152611403816113ca565b9050919050565b7f4e6f7420414920747261646572000000000000000000000000000000000000005f82015250565b5f61143e600d836110ef565b91506114498261140a565b602082019050919050565b5f6020820190508181035f83015261146b81611432565b9050919050565b7f556e617070726f76656420746f6b656e730000000000000000000000000000005f82015250565b5f6114a66011836110ef565b91506114b182611472565b602082019050919050565b5f6020820190508181035f8301526114d38161149a565b9050919050565b7f496e73756666696369656e742062616c616e63650000000000000000000000005f82015250565b5f61150e6014836110ef565b9150611519826114da565b602082019050919050565b5f6020820190508181035f83015261153b81611502565b9050919050565b5f61154c82610f23565b915061155783610f23565b925082820390508181111561156f5761156e611342565b5b92915050565b5f6040820190506115885f830185610ef7565b61159560208301846110ab565b939250505056fea2646970667358221220ebf9c05393863226ac97e6c975055671c9fc244340b6e69b245d82d4d2644ece64736f6c634300081a0033",
					"opcodes": "PUSH1 0x80 PUSH1 0x40 MSTORE CALLVALUE DUP1 ISZERO PUSH2 0xF JUMPI PUSH0 DUP1 REVERT JUMPDEST POP PUSH1 0x40 MLOAD PUSH2 0x171F CODESIZE SUB DUP1 PUSH2 0x171F DUP4 CODECOPY DUP2 DUP2 ADD PUSH1 0x40 MSTORE DUP2 ADD SWAP1 PUSH2 0x31 SWAP2 SWAP1 PUSH2 0x115 JUMP JUMPDEST CALLER PUSH1 0x2 PUSH0 PUSH2 0x100 EXP DUP2 SLOAD DUP2 PUSH20 0xFFFFFFFFFFFFFFFFFFFFFFFFFFFFFFFFFFFFFFFF MUL NOT AND SWAP1 DUP4 PUSH20 0xFFFFFFFFFFFFFFFFFFFFFFFFFFFFFFFFFFFFFFFF AND MUL OR SWAP1 SSTORE POP DUP1 PUSH1 0x3 PUSH0 PUSH2 0x100 EXP DUP2 SLOAD DUP2 PUSH20 0xFFFFFFFFFFFFFFFFFFFFFFFFFFFFFFFFFFFFFFFF MUL NOT AND SWAP1 DUP4 PUSH20 0xFFFFFFFFFFFFFFFFFFFFFFFFFFFFFFFFFFFFFFFF AND MUL OR SWAP1 SSTORE POP POP PUSH2 0x140 JUMP JUMPDEST PUSH0 DUP1 REVERT JUMPDEST PUSH0 PUSH20 0xFFFFFFFFFFFFFFFFFFFFFFFFFFFFFFFFFFFFFFFF DUP3 AND SWAP1 POP SWAP2 SWAP1 POP JUMP JUMPDEST PUSH0 PUSH2 0xE4 DUP3 PUSH2 0xBB JUMP JUMPDEST SWAP1 POP SWAP2 SWAP1 POP JUMP JUMPDEST PUSH2 0xF4 DUP2 PUSH2 0xDA JUMP JUMPDEST DUP2 EQ PUSH2 0xFE JUMPI PUSH0 DUP1 REVERT JUMPDEST POP JUMP JUMPDEST PUSH0 DUP2 MLOAD SWAP1 POP PUSH2 0x10F DUP2 PUSH2 0xEB JUMP JUMPDEST SWAP3 SWAP2 POP POP JUMP JUMPDEST PUSH0 PUSH1 0x20 DUP3 DUP5 SUB SLT ISZERO PUSH2 0x12A JUMPI PUSH2 0x129 PUSH2 0xB7 JUMP JUMPDEST JUMPDEST PUSH0 PUSH2 0x137 DUP5 DUP3 DUP6 ADD PUSH2 0x101 JUMP JUMPDEST SWAP2 POP POP SWAP3 SWAP2 POP POP JUMP JUMPDEST PUSH2 0x15D2 DUP1 PUSH2 0x14D PUSH0 CODECOPY PUSH0 RETURN INVALID PUSH1 0x80 PUSH1 0x40 MSTORE CALLVALUE DUP1 ISZERO PUSH2 0xF JUMPI PUSH0 DUP1 REVERT JUMPDEST POP PUSH1 0x4 CALLDATASIZE LT PUSH2 0x9C JUMPI PUSH0 CALLDATALOAD PUSH1 0xE0 SHR DUP1 PUSH4 0x8DA5CB5B GT PUSH2 0x64 JUMPI DUP1 PUSH4 0x8DA5CB5B EQ PUSH2 0x142 JUMPI DUP1 PUSH4 0xB1D6E59D EQ PUSH2 0x160 JUMPI DUP1 PUSH4 0xB61920C1 EQ PUSH2 0x17C JUMPI DUP1 PUSH4 0xD48BFCA7 EQ PUSH2 0x1AE JUMPI DUP1 PUSH4 0xF3FEF3A3 EQ PUSH2 0x1CA JUMPI PUSH2 0x9C JUMP JUMPDEST DUP1 PUSH4 0x138A5E25 EQ PUSH2 0xA0 JUMPI DUP1 PUSH4 0x43B25452 EQ PUSH2 0xBE JUMPI DUP1 PUSH4 0x47E7EF24 EQ PUSH2 0xDA JUMPI DUP1 PUSH4 0x5FA7B584 EQ PUSH2 0xF6 JUMPI DUP1 PUSH4 0x6D1EA3FA EQ PUSH2 0x112 JUMPI JUMPDEST PUSH0 DUP1 REVERT JUMPDEST PUSH2 0xA8 PUSH2 0x1E6 JUMP JUMPDEST PUSH1 0x40 MLOAD PUSH2 0xB5 SWAP2 SWAP1 PUSH2 0xF06 JUMP JUMPDEST PUSH1 0x40 MLOAD DUP1 SWAP2 SUB SWAP1 RETURN JUMPDEST PUSH2 0xD8 PUSH1 0x4 DUP1 CALLDATASIZE SUB DUP2 ADD SWAP1 PUSH2 0xD3 SWAP2 SWAP1 PUSH2 0xF56 JUMP JUMPDEST PUSH2 0x20B JUMP JUMPDEST STOP JUMPDEST PUSH2 0xF4 PUSH1 0x4 DUP1 CALLDATASIZE SUB DUP2 ADD SWAP1 PUSH2 0xEF SWAP2 SWAP1 PUSH2 0xFAB JUMP JUMPDEST PUSH2 0x39C JUMP JUMPDEST STOP JUMPDEST PUSH2 0x110 PUSH1 0x4 DUP1 CALLDATASIZE SUB DUP2 ADD SWAP1 PUSH2 0x10B SWAP2 SWAP1 PUSH2 0xFE9 JUMP JUMPDEST PUSH2 0x5C2 JUMP JUMPDEST STOP JUMPDEST PUSH2 0x12C PUSH1 0x4 DUP1 CALLDATASIZE SUB DUP2 ADD SWAP1 PUSH2 0x127 SWAP2 SWAP1 PUSH2 0xFE9 JUMP JUMPDEST PUSH2 0x6EB JUMP JUMPDEST PUSH1 0x40 MLOAD PUSH2 0x139 SWAP2 SWAP1 PUSH2 0x102E JUMP JUMPDEST PUSH1 0x40 MLOAD DUP1 SWAP2 SUB SWAP1 RETURN JUMPDEST PUSH2 0x14A PUSH2 0x708 JUMP JUMPDEST PUSH1 0x40 MLOAD PUSH2 0x157 SWAP2 SWAP1 PUSH2 0xF06 JUMP JUMPDEST PUSH1 0x40 MLOAD DUP1 SWAP2 SUB SWAP1 RETURN JUMPDEST PUSH2 0x17A PUSH1 0x4 DUP1 CALLDATASIZE SUB DUP2 ADD SWAP1 PUSH2 0x175 SWAP2 SWAP1 PUSH2 0x1047 JUMP JUMPDEST PUSH2 0x72D JUMP JUMPDEST STOP JUMPDEST PUSH2 0x196 PUSH1 0x4 DUP1 CALLDATASIZE SUB DUP2 ADD SWAP1 PUSH2 0x191 SWAP2 SWAP1 PUSH2 0xFE9 JUMP JUMPDEST PUSH2 0xB15 JUMP JUMPDEST PUSH1 0x40 MLOAD PUSH2 0x1A5 SWAP4 SWAP3 SWAP2 SWAP1 PUSH2 0x10BA JUMP JUMPDEST PUSH1 0x40 MLOAD DUP1 SWAP2 SUB SWAP1 RETURN JUMPDEST PUSH2 0x1C8 PUSH1 0x4 DUP1 CALLDATASIZE SUB DUP2 ADD SWAP1 PUSH2 0x1C3 SWAP2 SWAP1 PUSH2 0xFE9 JUMP JUMPDEST PUSH2 0xB46 JUMP JUMPDEST STOP JUMPDEST PUSH2 0x1E4 PUSH1 0x4 DUP1 CALLDATASIZE SUB DUP2 ADD SWAP1 PUSH2 0x1DF SWAP2 SWAP1 PUSH2 0xFAB JUMP JUMPDEST PUSH2 0xC6F JUMP JUMPDEST STOP JUMPDEST PUSH1 0x3 PUSH0 SWAP1 SLOAD SWAP1 PUSH2 0x100 EXP SWAP1 DIV PUSH20 0xFFFFFFFFFFFFFFFFFFFFFFFFFFFFFFFFFFFFFFFF AND DUP2 JUMP JUMPDEST PUSH0 DUP2 GT DUP1 ISZERO PUSH2 0x21B JUMPI POP PUSH1 0xA DUP2 GT ISZERO JUMPDEST PUSH2 0x25A JUMPI PUSH1 0x40 MLOAD PUSH32 0x8C379A000000000000000000000000000000000000000000000000000000000 DUP2 MSTORE PUSH1 0x4 ADD PUSH2 0x251 SWAP1 PUSH2 0x1149 JUMP JUMPDEST PUSH1 0x40 MLOAD DUP1 SWAP2 SUB SWAP1 REVERT JUMPDEST PUSH0 DUP1 CALLER PUSH20 0xFFFFFFFFFFFFFFFFFFFFFFFFFFFFFFFFFFFFFFFF AND PUSH20 0xFFFFFFFFFFFFFFFFFFFFFFFFFFFFFFFFFFFFFFFF AND DUP2 MSTORE PUSH1 0x20 ADD SWAP1 DUP2 MSTORE PUSH1 0x20 ADD PUSH0 KECCAK256 PUSH1 0x3 ADD PUSH0 SWAP1 SLOAD SWAP1 PUSH2 0x100 EXP SWAP1 DIV PUSH1 0xFF AND ISZERO PUSH2 0x2E6 JUMPI PUSH1 0x40 MLOAD PUSH32 0x8C379A000000000000000000000000000000000000000000000000000000000 DUP2 MSTORE PUSH1 0x4 ADD PUSH2 0x2DD SWAP1 PUSH2 0x11B1 JUMP JUMPDEST PUSH1 0x40 MLOAD DUP1 SWAP2 SUB SWAP1 REVERT JUMPDEST PUSH0 DUP1 PUSH0 CALLER PUSH20 0xFFFFFFFFFFFFFFFFFFFFFFFFFFFFFFFFFFFFFFFF AND PUSH20 0xFFFFFFFFFFFFFFFFFFFFFFFFFFFFFFFFFFFFFFFF AND DUP2 MSTORE PUSH1 0x20 ADD SWAP1 DUP2 MSTORE PUSH1 0x20 ADD PUSH0 KECCAK256 SWAP1 POP DUP2 DUP2 PUSH1 0x1 ADD DUP2 SWAP1 SSTORE POP PUSH1 0x1 DUP2 PUSH1 0x3 ADD PUSH0 PUSH2 0x100 EXP DUP2 SLOAD DUP2 PUSH1 0xFF MUL NOT AND SWAP1 DUP4 ISZERO ISZERO MUL OR SWAP1 SSTORE POP CALLER PUSH20 0xFFFFFFFFFFFFFFFFFFFFFFFFFFFFFFFFFFFFFFFF AND PUSH32 0x67FB572DDE9F80BFB3F0454266D9258CF72D569E4EF809F9301B9EE757DD78D0 DUP4 PUSH1 0x40 MLOAD PUSH2 0x390 SWAP2 SWAP1 PUSH2 0x11CF JUMP JUMPDEST PUSH1 0x40 MLOAD DUP1 SWAP2 SUB SWAP1 LOG2 POP POP JUMP JUMPDEST PUSH1 0x1 PUSH0 DUP4 PUSH20 0xFFFFFFFFFFFFFFFFFFFFFFFFFFFFFFFFFFFFFFFF AND PUSH20 0xFFFFFFFFFFFFFFFFFFFFFFFFFFFFFFFFFFFFFFFF AND DUP2 MSTORE PUSH1 0x20 ADD SWAP1 DUP2 MSTORE PUSH1 0x20 ADD PUSH0 KECCAK256 PUSH0 SWAP1 SLOAD SWAP1 PUSH2 0x100 EXP SWAP1 DIV PUSH1 0xFF AND PUSH2 0x425 JUMPI PUSH1 0x40 MLOAD PUSH32 0x8C379A000000000000000000000000000000000000000000000000000000000 DUP2 MSTORE PUSH1 0x4 ADD PUSH2 0x41C SWAP1 PUSH2 0x1232 JUMP JUMPDEST PUSH1 0x40 MLOAD DUP1 SWAP2 SUB SWAP1 REVERT JUMPDEST PUSH0 DUP1 CALLER PUSH20 0xFFFFFFFFFFFFFFFFFFFFFFFFFFFFFFFFFFFFFFFF AND PUSH20 0xFFFFFFFFFFFFFFFFFFFFFFFFFFFFFFFFFFFFFFFF AND DUP2 MSTORE PUSH1 0x20 ADD SWAP1 DUP2 MSTORE PUSH1 0x20 ADD PUSH0 KECCAK256 PUSH1 0x3 ADD PUSH0 SWAP1 SLOAD SWAP1 PUSH2 0x100 EXP SWAP1 DIV PUSH1 0xFF AND PUSH2 0x4B0 JUMPI PUSH1 0x40 MLOAD PUSH32 0x8C379A000000000000000000000000000000000000000000000000000000000 DUP2 MSTORE PUSH1 0x4 ADD PUSH2 0x4A7 SWAP1 PUSH2 0x129A JUMP JUMPDEST PUSH1 0x40 MLOAD DUP1 SWAP2 SUB SWAP1 REVERT JUMPDEST DUP2 PUSH20 0xFFFFFFFFFFFFFFFFFFFFFFFFFFFFFFFFFFFFFFFF AND PUSH4 0x23B872DD CALLER ADDRESS DUP5 PUSH1 0x40 MLOAD DUP5 PUSH4 0xFFFFFFFF AND PUSH1 0xE0 SHL DUP2 MSTORE PUSH1 0x4 ADD PUSH2 0x4ED SWAP4 SWAP3 SWAP2 SWAP1 PUSH2 0x12B8 JUMP JUMPDEST PUSH1 0x20 PUSH1 0x40 MLOAD DUP1 DUP4 SUB DUP2 PUSH0 DUP8 GAS CALL ISZERO DUP1 ISZERO PUSH2 0x509 JUMPI RETURNDATASIZE PUSH0 DUP1 RETURNDATACOPY RETURNDATASIZE PUSH0 REVERT JUMPDEST POP POP POP POP PUSH1 0x40 MLOAD RETURNDATASIZE PUSH1 0x1F NOT PUSH1 0x1F DUP3 ADD AND DUP3 ADD DUP1 PUSH1 0x40 MSTORE POP DUP2 ADD SWAP1 PUSH2 0x52D SWAP2 SWAP1 PUSH2 0x1317 JUMP JUMPDEST POP DUP1 PUSH0 DUP1 CALLER PUSH20 0xFFFFFFFFFFFFFFFFFFFFFFFFFFFFFFFFFFFFFFFF AND PUSH20 0xFFFFFFFFFFFFFFFFFFFFFFFFFFFFFFFFFFFFFFFF AND DUP2 MSTORE PUSH1 0x20 ADD SWAP1 DUP2 MSTORE PUSH1 0x20 ADD PUSH0 KECCAK256 PUSH1 0x2 ADD PUSH0 DUP5 PUSH20 0xFFFFFFFFFFFFFFFFFFFFFFFFFFFFFFFFFFFFFFFF AND PUSH20 0xFFFFFFFFFFFFFFFFFFFFFFFFFFFFFFFFFFFFFFFF AND DUP2 MSTORE PUSH1 0x20 ADD SWAP1 DUP2 MSTORE PUSH1 0x20 ADD PUSH0 KECCAK256 PUSH0 DUP3 DUP3 SLOAD PUSH2 0x5B7 SWAP2 SWAP1 PUSH2 0x136F JUMP JUMPDEST SWAP3 POP POP DUP2 SWAP1 SSTORE POP POP POP JUMP JUMPDEST PUSH1 0x2 PUSH0 SWAP1 SLOAD SWAP1 PUSH2 0x100 EXP SWAP1 DIV PUSH20 0xFFFFFFFFFFFFFFFFFFFFFFFFFFFFFFFFFFFFFFFF AND PUSH20 0xFFFFFFFFFFFFFFFFFFFFFFFFFFFFFFFFFFFFFFFF AND CALLER PUSH20 0xFFFFFFFFFFFFFFFFFFFFFFFFFFFFFFFFFFFFFFFF AND EQ PUSH2 0x651 JUMPI PUSH1 0x40 MLOAD PUSH32 0x8C379A000000000000000000000000000000000000000000000000000000000 DUP2 MSTORE PUSH1 0x4 ADD PUSH2 0x648 SWAP1 PUSH2 0x13EC JUMP JUMPDEST PUSH1 0x40 MLOAD DUP1 SWAP2 SUB SWAP1 REVERT JUMPDEST PUSH0 PUSH1 0x1 PUSH0 DUP4 PUSH20 0xFFFFFFFFFFFFFFFFFFFFFFFFFFFFFFFFFFFFFFFF AND PUSH20 0xFFFFFFFFFFFFFFFFFFFFFFFFFFFFFFFFFFFFFFFF AND DUP2 MSTORE PUSH1 0x20 ADD SWAP1 DUP2 MSTORE PUSH1 0x20 ADD PUSH0 KECCAK256 PUSH0 PUSH2 0x100 EXP DUP2 SLOAD DUP2 PUSH1 0xFF MUL NOT AND SWAP1 DUP4 ISZERO ISZERO MUL OR SWAP1 SSTORE POP DUP1 PUSH20 0xFFFFFFFFFFFFFFFFFFFFFFFFFFFFFFFFFFFFFFFF AND PUSH32 0x4C910B69FE65A61F7531B9C5042B2329CA7179C77290AA7E2EB3AFA3C8511FD3 PUSH1 0x40 MLOAD PUSH1 0x40 MLOAD DUP1 SWAP2 SUB SWAP1 LOG2 POP JUMP JUMPDEST PUSH1 0x1 PUSH1 0x20 MSTORE DUP1 PUSH0 MSTORE PUSH1 0x40 PUSH0 KECCAK256 PUSH0 SWAP2 POP SLOAD SWAP1 PUSH2 0x100 EXP SWAP1 DIV PUSH1 0xFF AND DUP2 JUMP JUMPDEST PUSH1 0x2 PUSH0 SWAP1 SLOAD SWAP1 PUSH2 0x100 EXP SWAP1 DIV PUSH20 0xFFFFFFFFFFFFFFFFFFFFFFFFFFFFFFFFFFFFFFFF AND DUP2 JUMP JUMPDEST PUSH1 0x3 PUSH0 SWAP1 SLOAD SWAP1 PUSH2 0x100 EXP SWAP1 DIV PUSH20 0xFFFFFFFFFFFFFFFFFFFFFFFFFFFFFFFFFFFFFFFF AND PUSH20 0xFFFFFFFFFFFFFFFFFFFFFFFFFFFFFFFFFFFFFFFF AND CALLER PUSH20 0xFFFFFFFFFFFFFFFFFFFFFFFFFFFFFFFFFFFFFFFF AND EQ PUSH2 0x7BC JUMPI PUSH1 0x40 MLOAD PUSH32 0x8C379A000000000000000000000000000000000000000000000000000000000 DUP2 MSTORE PUSH1 0x4 ADD PUSH2 0x7B3 SWAP1 PUSH2 0x1454 JUMP JUMPDEST PUSH1 0x40 MLOAD DUP1 SWAP2 SUB SWAP1 REVERT JUMPDEST PUSH1 0x1 PUSH0 DUP5 PUSH20 0xFFFFFFFFFFFFFFFFFFFFFFFFFFFFFFFFFFFFFFFF AND PUSH20 0xFFFFFFFFFFFFFFFFFFFFFFFFFFFFFFFFFFFFFFFF AND DUP2 MSTORE PUSH1 0x20 ADD SWAP1 DUP2 MSTORE PUSH1 0x20 ADD PUSH0 KECCAK256 PUSH0 SWAP1 SLOAD SWAP1 PUSH2 0x100 EXP SWAP1 DIV PUSH1 0xFF AND DUP1 ISZERO PUSH2 0x858 JUMPI POP PUSH1 0x1 PUSH0 DUP4 PUSH20 0xFFFFFFFFFFFFFFFFFFFFFFFFFFFFFFFFFFFFFFFF AND PUSH20 0xFFFFFFFFFFFFFFFFFFFFFFFFFFFFFFFFFFFFFFFF AND DUP2 MSTORE PUSH1 0x20 ADD SWAP1 DUP2 MSTORE PUSH1 0x20 ADD PUSH0 KECCAK256 PUSH0 SWAP1 SLOAD SWAP1 PUSH2 0x100 EXP SWAP1 DIV PUSH1 0xFF AND JUMPDEST PUSH2 0x897 JUMPI PUSH1 0x40 MLOAD PUSH32 0x8C379A000000000000000000000000000000000000000000000000000000000 DUP2 MSTORE PUSH1 0x4 ADD PUSH2 0x88E SWAP1 PUSH2 0x14BC JUMP JUMPDEST PUSH1 0x40 MLOAD DUP1 SWAP2 SUB SWAP1 REVERT JUMPDEST PUSH0 DUP1 DUP6 PUSH20 0xFFFFFFFFFFFFFFFFFFFFFFFFFFFFFFFFFFFFFFFF AND PUSH20 0xFFFFFFFFFFFFFFFFFFFFFFFFFFFFFFFFFFFFFFFF AND DUP2 MSTORE PUSH1 0x20 ADD SWAP1 DUP2 MSTORE PUSH1 0x20 ADD PUSH0 KECCAK256 PUSH1 0x3 ADD PUSH0 SWAP1 SLOAD SWAP1 PUSH2 0x100 EXP SWAP1 DIV PUSH1 0xFF AND PUSH2 0x922 JUMPI PUSH1 0x40 MLOAD PUSH32 0x8C379A000000000000000000000000000000000000000000000000000000000 DUP2 MSTORE PUSH1 0x4 ADD PUSH2 0x919 SWAP1 PUSH2 0x129A JUMP JUMPDEST PUSH1 0x40 MLOAD DUP1 SWAP2 SUB SWAP1 REVERT JUMPDEST PUSH0 DUP1 PUSH0 DUP7 PUSH20 0xFFFFFFFFFFFFFFFFFFFFFFFFFFFFFFFFFFFFFFFF AND PUSH20 0xFFFFFFFFFFFFFFFFFFFFFFFFFFFFFFFFFFFFFFFF AND DUP2 MSTORE PUSH1 0x20 ADD SWAP1 DUP2 MSTORE PUSH1 0x20 ADD PUSH0 KECCAK256 SWAP1 POP DUP2 DUP2 PUSH1 0x2 ADD PUSH0 DUP7 PUSH20 0xFFFFFFFFFFFFFFFFFFFFFFFFFFFFFFFFFFFFFFFF AND PUSH20 0xFFFFFFFFFFFFFFFFFFFFFFFFFFFFFFFFFFFFFFFF AND DUP2 MSTORE PUSH1 0x20 ADD SWAP1 DUP2 MSTORE PUSH1 0x20 ADD PUSH0 KECCAK256 SLOAD LT ISZERO PUSH2 0x9E3 JUMPI PUSH1 0x40 MLOAD PUSH32 0x8C379A000000000000000000000000000000000000000000000000000000000 DUP2 MSTORE PUSH1 0x4 ADD PUSH2 0x9DA SWAP1 PUSH2 0x1524 JUMP JUMPDEST PUSH1 0x40 MLOAD DUP1 SWAP2 SUB SWAP1 REVERT JUMPDEST DUP2 DUP2 PUSH1 0x2 ADD PUSH0 DUP7 PUSH20 0xFFFFFFFFFFFFFFFFFFFFFFFFFFFFFFFFFFFFFFFF AND PUSH20 0xFFFFFFFFFFFFFFFFFFFFFFFFFFFFFFFFFFFFFFFF AND DUP2 MSTORE PUSH1 0x20 ADD SWAP1 DUP2 MSTORE PUSH1 0x20 ADD PUSH0 KECCAK256 PUSH0 DUP3 DUP3 SLOAD PUSH2 0xA31 SWAP2 SWAP1 PUSH2 0x1542 JUMP JUMPDEST SWAP3 POP POP DUP2 SWAP1 SSTORE POP PUSH0 DUP3 SWAP1 POP DUP1 DUP3 PUSH1 0x2 ADD PUSH0 DUP7 PUSH20 0xFFFFFFFFFFFFFFFFFFFFFFFFFFFFFFFFFFFFFFFF AND PUSH20 0xFFFFFFFFFFFFFFFFFFFFFFFFFFFFFFFFFFFFFFFF AND DUP2 MSTORE PUSH1 0x20 ADD SWAP1 DUP2 MSTORE PUSH1 0x20 ADD PUSH0 KECCAK256 PUSH0 DUP3 DUP3 SLOAD PUSH2 0xA8A SWAP2 SWAP1 PUSH2 0x136F JUMP JUMPDEST SWAP3 POP POP DUP2 SWAP1 SSTORE POP DUP4 PUSH20 0xFFFFFFFFFFFFFFFFFFFFFFFFFFFFFFFFFFFFFFFF AND DUP6 PUSH20 0xFFFFFFFFFFFFFFFFFFFFFFFFFFFFFFFFFFFFFFFF AND DUP8 PUSH20 0xFFFFFFFFFFFFFFFFFFFFFFFFFFFFFFFFFFFFFFFF AND PUSH32 0x7C98D1E471158166AC434C9C01540B47ABB40862BBF909EDB2DC73C22229A23F DUP7 PUSH1 0x40 MLOAD PUSH2 0xB05 SWAP2 SWAP1 PUSH2 0x11CF JUMP JUMPDEST PUSH1 0x40 MLOAD DUP1 SWAP2 SUB SWAP1 LOG4 POP POP POP POP POP POP JUMP JUMPDEST PUSH0 PUSH1 0x20 MSTORE DUP1 PUSH0 MSTORE PUSH1 0x40 PUSH0 KECCAK256 PUSH0 SWAP2 POP SWAP1 POP DUP1 PUSH0 ADD SLOAD SWAP1 DUP1 PUSH1 0x1 ADD SLOAD SWAP1 DUP1 PUSH1 0x3 ADD PUSH0 SWAP1 SLOAD SWAP1 PUSH2 0x100 EXP SWAP1 DIV PUSH1 0xFF AND SWAP1 POP DUP4 JUMP JUMPDEST PUSH1 0x2 PUSH0 SWAP1 SLOAD SWAP1 PUSH2 0x100 EXP SWAP1 DIV PUSH20 0xFFFFFFFFFFFFFFFFFFFFFFFFFFFFFFFFFFFFFFFF AND PUSH20 0xFFFFFFFFFFFFFFFFFFFFFFFFFFFFFFFFFFFFFFFF AND CALLER PUSH20 0xFFFFFFFFFFFFFFFFFFFFFFFFFFFFFFFFFFFFFFFF AND EQ PUSH2 0xBD5 JUMPI PUSH1 0x40 MLOAD PUSH32 0x8C379A000000000000000000000000000000000000000000000000000000000 DUP2 MSTORE PUSH1 0x4 ADD PUSH2 0xBCC SWAP1 PUSH2 0x13EC JUMP JUMPDEST PUSH1 0x40 MLOAD DUP1 SWAP2 SUB SWAP1 REVERT JUMPDEST PUSH1 0x1 DUP1 PUSH0 DUP4 PUSH20 0xFFFFFFFFFFFFFFFFFFFFFFFFFFFFFFFFFFFFFFFF AND PUSH20 0xFFFFFFFFFFFFFFFFFFFFFFFFFFFFFFFFFFFFFFFF AND DUP2 MSTORE PUSH1 0x20 ADD SWAP1 DUP2 MSTORE PUSH1 0x20 ADD PUSH0 KECCAK256 PUSH0 PUSH2 0x100 EXP DUP2 SLOAD DUP2 PUSH1 0xFF MUL NOT AND SWAP1 DUP4 ISZERO ISZERO MUL OR SWAP1 SSTORE POP DUP1 PUSH20 0xFFFFFFFFFFFFFFFFFFFFFFFFFFFFFFFFFFFFFFFF AND PUSH32 0x784C8F4DBF0FFEDD6E72C76501C545A70F8B203B30A26CE542BF92BA87C248A4 PUSH1 0x40 MLOAD PUSH1 0x40 MLOAD DUP1 SWAP2 SUB SWAP1 LOG2 POP JUMP JUMPDEST PUSH0 DUP1 CALLER PUSH20 0xFFFFFFFFFFFFFFFFFFFFFFFFFFFFFFFFFFFFFFFF AND PUSH20 0xFFFFFFFFFFFFFFFFFFFFFFFFFFFFFFFFFFFFFFFF AND DUP2 MSTORE PUSH1 0x20 ADD SWAP1 DUP2 MSTORE PUSH1 0x20 ADD PUSH0 KECCAK256 PUSH1 0x3 ADD PUSH0 SWAP1 SLOAD SWAP1 PUSH2 0x100 EXP SWAP1 DIV PUSH1 0xFF AND PUSH2 0xCFA JUMPI PUSH1 0x40 MLOAD PUSH32 0x8C379A000000000000000000000000000000000000000000000000000000000 DUP2 MSTORE PUSH1 0x4 ADD PUSH2 0xCF1 SWAP1 PUSH2 0x129A JUMP JUMPDEST PUSH1 0x40 MLOAD DUP1 SWAP2 SUB SWAP1 REVERT JUMPDEST DUP1 PUSH0 DUP1 CALLER PUSH20 0xFFFFFFFFFFFFFFFFFFFFFFFFFFFFFFFFFFFFFFFF AND PUSH20 0xFFFFFFFFFFFFFFFFFFFFFFFFFFFFFFFFFFFFFFFF AND DUP2 MSTORE PUSH1 0x20 ADD SWAP1 DUP2 MSTORE PUSH1 0x20 ADD PUSH0 KECCAK256 PUSH1 0x2 ADD PUSH0 DUP5 PUSH20 0xFFFFFFFFFFFFFFFFFFFFFFFFFFFFFFFFFFFFFFFF AND PUSH20 0xFFFFFFFFFFFFFFFFFFFFFFFFFFFFFFFFFFFFFFFF AND DUP2 MSTORE PUSH1 0x20 ADD SWAP1 DUP2 MSTORE PUSH1 0x20 ADD PUSH0 KECCAK256 SLOAD LT ISZERO PUSH2 0xDB7 JUMPI PUSH1 0x40 MLOAD PUSH32 0x8C379A000000000000000000000000000000000000000000000000000000000 DUP2 MSTORE PUSH1 0x4 ADD PUSH2 0xDAE SWAP1 PUSH2 0x1524 JUMP JUMPDEST PUSH1 0x40 MLOAD DUP1 SWAP2 SUB SWAP1 REVERT JUMPDEST DUP1 PUSH0 DUP1 CALLER PUSH20 0xFFFFFFFFFFFFFFFFFFFFFFFFFFFFFFFFFFFFFFFF AND PUSH20 0xFFFFFFFFFFFFFFFFFFFFFFFFFFFFFFFFFFFFFFFF AND DUP2 MSTORE PUSH1 0x20 ADD SWAP1 DUP2 MSTORE PUSH1 0x20 ADD PUSH0 KECCAK256 PUSH1 0x2 ADD PUSH0 DUP5 PUSH20 0xFFFFFFFFFFFFFFFFFFFFFFFFFFFFFFFFFFFFFFFF AND PUSH20 0xFFFFFFFFFFFFFFFFFFFFFFFFFFFFFFFFFFFFFFFF AND DUP2 MSTORE PUSH1 0x20 ADD SWAP1 DUP2 MSTORE PUSH1 0x20 ADD PUSH0 KECCAK256 PUSH0 DUP3 DUP3 SLOAD PUSH2 0xE40 SWAP2 SWAP1 PUSH2 0x1542 JUMP JUMPDEST SWAP3 POP POP DUP2 SWAP1 SSTORE POP DUP2 PUSH20 0xFFFFFFFFFFFFFFFFFFFFFFFFFFFFFFFFFFFFFFFF AND PUSH4 0xA9059CBB CALLER DUP4 PUSH1 0x40 MLOAD DUP4 PUSH4 0xFFFFFFFF AND PUSH1 0xE0 SHL DUP2 MSTORE PUSH1 0x4 ADD PUSH2 0xE82 SWAP3 SWAP2 SWAP1 PUSH2 0x1575 JUMP JUMPDEST PUSH1 0x20 PUSH1 0x40 MLOAD DUP1 DUP4 SUB DUP2 PUSH0 DUP8 GAS CALL ISZERO DUP1 ISZERO PUSH2 0xE9E JUMPI RETURNDATASIZE PUSH0 DUP1 RETURNDATACOPY RETURNDATASIZE PUSH0 REVERT JUMPDEST POP POP POP POP PUSH1 0x40 MLOAD RETURNDATASIZE PUSH1 0x1F NOT PUSH1 0x1F DUP3 ADD AND DUP3 ADD DUP1 PUSH1 0x40 MSTORE POP DUP2 ADD SWAP1 PUSH2 0xEC2 SWAP2 SWAP1 PUSH2 0x1317 JUMP JUMPDEST POP POP POP JUMP JUMPDEST PUSH0 PUSH20 0xFFFFFFFFFFFFFFFFFFFFFFFFFFFFFFFFFFFFFFFF DUP3 AND SWAP1 POP SWAP2 SWAP1 POP JUMP JUMPDEST PUSH0 PUSH2 0xEF0 DUP3 PUSH2 0xEC7 JUMP JUMPDEST SWAP1 POP SWAP2 SWAP1 POP JUMP JUMPDEST PUSH2 0xF00 DUP2 PUSH2 0xEE6 JUMP JUMPDEST DUP3 MSTORE POP POP JUMP JUMPDEST PUSH0 PUSH1 0x20 DUP3 ADD SWAP1 POP PUSH2 0xF19 PUSH0 DUP4 ADD DUP5 PUSH2 0xEF7 JUMP JUMPDEST SWAP3 SWAP2 POP POP JUMP JUMPDEST PUSH0 DUP1 REVERT JUMPDEST PUSH0 DUP2 SWAP1 POP SWAP2 SWAP1 POP JUMP JUMPDEST PUSH2 0xF35 DUP2 PUSH2 0xF23 JUMP JUMPDEST DUP2 EQ PUSH2 0xF3F JUMPI PUSH0 DUP1 REVERT JUMPDEST POP JUMP JUMPDEST PUSH0 DUP2 CALLDATALOAD SWAP1 POP PUSH2 0xF50 DUP2 PUSH2 0xF2C JUMP JUMPDEST SWAP3 SWAP2 POP POP JUMP JUMPDEST PUSH0 PUSH1 0x20 DUP3 DUP5 SUB SLT ISZERO PUSH2 0xF6B JUMPI PUSH2 0xF6A PUSH2 0xF1F JUMP JUMPDEST JUMPDEST PUSH0 PUSH2 0xF78 DUP5 DUP3 DUP6 ADD PUSH2 0xF42 JUMP JUMPDEST SWAP2 POP POP SWAP3 SWAP2 POP POP JUMP JUMPDEST PUSH2 0xF8A DUP2 PUSH2 0xEE6 JUMP JUMPDEST DUP2 EQ PUSH2 0xF94 JUMPI PUSH0 DUP1 REVERT JUMPDEST POP JUMP JUMPDEST PUSH0 DUP2 CALLDATALOAD SWAP1 POP PUSH2 0xFA5 DUP2 PUSH2 0xF81 JUMP JUMPDEST SWAP3 SWAP2 POP POP JUMP JUMPDEST PUSH0 DUP1 PUSH1 0x40 DUP4 DUP6 SUB SLT ISZERO PUSH2 0xFC1 JUMPI PUSH2 0xFC0 PUSH2 0xF1F JUMP JUMPDEST JUMPDEST PUSH0 PUSH2 0xFCE DUP6 DUP3 DUP7 ADD PUSH2 0xF97 JUMP JUMPDEST SWAP3 POP POP PUSH1 0x20 PUSH2 0xFDF DUP6 DUP3 DUP7 ADD PUSH2 0xF42 JUMP JUMPDEST SWAP2 POP POP SWAP3 POP SWAP3 SWAP1 POP JUMP JUMPDEST PUSH0 PUSH1 0x20 DUP3 DUP5 SUB SLT ISZERO PUSH2 0xFFE JUMPI PUSH2 0xFFD PUSH2 0xF1F JUMP JUMPDEST JUMPDEST PUSH0 PUSH2 0x100B DUP5 DUP3 DUP6 ADD PUSH2 0xF97 JUMP JUMPDEST SWAP2 POP POP SWAP3 SWAP2 POP POP JUMP JUMPDEST PUSH0 DUP2 ISZERO ISZERO SWAP1 POP SWAP2 SWAP1 POP JUMP JUMPDEST PUSH2 0x1028 DUP2 PUSH2 0x1014 JUMP JUMPDEST DUP3 MSTORE POP POP JUMP JUMPDEST PUSH0 PUSH1 0x20 DUP3 ADD SWAP1 POP PUSH2 0x1041 PUSH0 DUP4 ADD DUP5 PUSH2 0x101F JUMP JUMPDEST SWAP3 SWAP2 POP POP JUMP JUMPDEST PUSH0 DUP1 PUSH0 DUP1 PUSH1 0x80 DUP6 DUP8 SUB SLT ISZERO PUSH2 0x105F JUMPI PUSH2 0x105E PUSH2 0xF1F JUMP JUMPDEST JUMPDEST PUSH0 PUSH2 0x106C DUP8 DUP3 DUP9 ADD PUSH2 0xF97 JUMP JUMPDEST SWAP5 POP POP PUSH1 0x20 PUSH2 0x107D DUP8 DUP3 DUP9 ADD PUSH2 0xF97 JUMP JUMPDEST SWAP4 POP POP PUSH1 0x40 PUSH2 0x108E DUP8 DUP3 DUP9 ADD PUSH2 0xF97 JUMP JUMPDEST SWAP3 POP POP PUSH1 0x60 PUSH2 0x109F DUP8 DUP3 DUP9 ADD PUSH2 0xF42 JUMP JUMPDEST SWAP2 POP POP SWAP3 SWAP6 SWAP2 SWAP5 POP SWAP3 POP JUMP JUMPDEST PUSH2 0x10B4 DUP2 PUSH2 0xF23 JUMP JUMPDEST DUP3 MSTORE POP POP JUMP JUMPDEST PUSH0 PUSH1 0x60 DUP3 ADD SWAP1 POP PUSH2 0x10CD PUSH0 DUP4 ADD DUP7 PUSH2 0x10AB JUMP JUMPDEST PUSH2 0x10DA PUSH1 0x20 DUP4 ADD DUP6 PUSH2 0x10AB JUMP JUMPDEST PUSH2 0x10E7 PUSH1 0x40 DUP4 ADD DUP5 PUSH2 0x101F JUMP JUMPDEST SWAP5 SWAP4 POP POP POP POP JUMP JUMPDEST PUSH0 DUP3 DUP3 MSTORE PUSH1 0x20 DUP3 ADD SWAP1 POP SWAP3 SWAP2 POP POP JUMP JUMPDEST PUSH32 0x496E76616C6964207269736B206C6576656C0000000000000000000000000000 PUSH0 DUP3 ADD MSTORE POP JUMP JUMPDEST PUSH0 PUSH2 0x1133 PUSH1 0x12 DUP4 PUSH2 0x10EF JUMP JUMPDEST SWAP2 POP PUSH2 0x113E DUP3 PUSH2 0x10FF JUMP JUMPDEST PUSH1 0x20 DUP3 ADD SWAP1 POP SWAP2 SWAP1 POP JUMP JUMPDEST PUSH0 PUSH1 0x20 DUP3 ADD SWAP1 POP DUP2 DUP2 SUB PUSH0 DUP4 ADD MSTORE PUSH2 0x1160 DUP2 PUSH2 0x1127 JUMP JUMPDEST SWAP1 POP SWAP2 SWAP1 POP JUMP JUMPDEST PUSH32 0x506F7274666F6C696F2065786973747300000000000000000000000000000000 PUSH0 DUP3 ADD MSTORE POP JUMP JUMPDEST PUSH0 PUSH2 0x119B PUSH1 0x10 DUP4 PUSH2 0x10EF JUMP JUMPDEST SWAP2 POP PUSH2 0x11A6 DUP3 PUSH2 0x1167 JUMP JUMPDEST PUSH1 0x20 DUP3 ADD SWAP1 POP SWAP2 SWAP1 POP JUMP JUMPDEST PUSH0 PUSH1 0x20 DUP3 ADD SWAP1 POP DUP2 DUP2 SUB PUSH0 DUP4 ADD MSTORE PUSH2 0x11C8 DUP2 PUSH2 0x118F JUMP JUMPDEST SWAP1 POP SWAP2 SWAP1 POP JUMP JUMPDEST PUSH0 PUSH1 0x20 DUP3 ADD SWAP1 POP PUSH2 0x11E2 PUSH0 DUP4 ADD DUP5 PUSH2 0x10AB JUMP JUMPDEST SWAP3 SWAP2 POP POP JUMP JUMPDEST PUSH32 0x546F6B656E206E6F7420617070726F7665640000000000000000000000000000 PUSH0 DUP3 ADD MSTORE POP JUMP JUMPDEST PUSH0 PUSH2 0x121C PUSH1 0x12 DUP4 PUSH2 0x10EF JUMP JUMPDEST SWAP2 POP PUSH2 0x1227 DUP3 PUSH2 0x11E8 JUMP JUMPDEST PUSH1 0x20 DUP3 ADD SWAP1 POP SWAP2 SWAP1 POP JUMP JUMPDEST PUSH0 PUSH1 0x20 DUP3 ADD SWAP1 POP DUP2 DUP2 SUB PUSH0 DUP4 ADD MSTORE PUSH2 0x1249 DUP2 PUSH2 0x1210 JUMP JUMPDEST SWAP1 POP SWAP2 SWAP1 POP JUMP JUMPDEST PUSH32 0x4E6F2061637469766520706F7274666F6C696F00000000000000000000000000 PUSH0 DUP3 ADD MSTORE POP JUMP JUMPDEST PUSH0 PUSH2 0x1284 PUSH1 0x13 DUP4 PUSH2 0x10EF JUMP JUMPDEST SWAP2 POP PUSH2 0x128F DUP3 PUSH2 0x1250 JUMP JUMPDEST PUSH1 0x20 DUP3 ADD SWAP1 POP SWAP2 SWAP1 POP JUMP JUMPDEST PUSH0 PUSH1 0x20 DUP3 ADD SWAP1 POP DUP2 DUP2 SUB PUSH0 DUP4 ADD MSTORE PUSH2 0x12B1 DUP2 PUSH2 0x1278 JUMP JUMPDEST SWAP1 POP SWAP2 SWAP1 POP JUMP JUMPDEST PUSH0 PUSH1 0x60 DUP3 ADD SWAP1 POP PUSH2 0x12CB PUSH0 DUP4 ADD DUP7 PUSH2 0xEF7 JUMP JUMPDEST PUSH2 0x12D8 PUSH1 0x20 DUP4 ADD DUP6 PUSH2 0xEF7 JUMP JUMPDEST PUSH2 0x12E5 PUSH1 0x40 DUP4 ADD DUP5 PUSH2 0x10AB JUMP JUMPDEST SWAP5 SWAP4 POP POP POP POP JUMP JUMPDEST PUSH2 0x12F6 DUP2 PUSH2 0x1014 JUMP JUMPDEST DUP2 EQ PUSH2 0x1300 JUMPI PUSH0 DUP1 REVERT JUMPDEST POP JUMP JUMPDEST PUSH0 DUP2 MLOAD SWAP1 POP PUSH2 0x1311 DUP2 PUSH2 0x12ED JUMP JUMPDEST SWAP3 SWAP2 POP POP JUMP JUMPDEST PUSH0 PUSH1 0x20 DUP3 DUP5 SUB SLT ISZERO PUSH2 0x132C JUMPI PUSH2 0x132B PUSH2 0xF1F JUMP JUMPDEST JUMPDEST PUSH0 PUSH2 0x1339 DUP5 DUP3 DUP6 ADD PUSH2 0x1303 JUMP JUMPDEST SWAP2 POP POP SWAP3 SWAP2 POP POP JUMP JUMPDEST PUSH32 0x4E487B7100000000000000000000000000000000000000000000000000000000 PUSH0 MSTORE PUSH1 0x11 PUSH1 0x4 MSTORE PUSH1 0x24 PUSH0 REVERT JUMPDEST PUSH0 PUSH2 0x1379 DUP3 PUSH2 0xF23 JUMP JUMPDEST SWAP2 POP PUSH2 0x1384 DUP4 PUSH2 0xF23 JUMP JUMPDEST SWAP3 POP DUP3 DUP3 ADD SWAP1 POP DUP1 DUP3 GT ISZERO PUSH2 0x139C JUMPI PUSH2 0x139B PUSH2 0x1342 JUMP JUMPDEST JUMPDEST SWAP3 SWAP2 POP POP JUMP JUMPDEST PUSH32 0x4E6F74206F776E65720000000000000000000000000000000000000000000000 PUSH0 DUP3 ADD MSTORE POP JUMP JUMPDEST PUSH0 PUSH2 0x13D6 PUSH1 0x9 DUP4 PUSH2 0x10EF JUMP JUMPDEST SWAP2 POP PUSH2 0x13E1 DUP3 PUSH2 0x13A2 JUMP JUMPDEST PUSH1 0x20 DUP3 ADD SWAP1 POP SWAP2 SWAP1 POP JUMP JUMPDEST PUSH0 PUSH1 0x20 DUP3 ADD SWAP1 POP DUP2 DUP2 SUB PUSH0 DUP4 ADD MSTORE PUSH2 0x1403 DUP2 PUSH2 0x13CA JUMP JUMPDEST SWAP1 POP SWAP2 SWAP1 POP JUMP JUMPDEST PUSH32 0x4E6F742041492074726164657200000000000000000000000000000000000000 PUSH0 DUP3 ADD MSTORE POP JUMP JUMPDEST PUSH0 PUSH2 0x143E PUSH1 0xD DUP4 PUSH2 0x10EF JUMP JUMPDEST SWAP2 POP PUSH2 0x1449 DUP3 PUSH2 0x140A JUMP JUMPDEST PUSH1 0x20 DUP3 ADD SWAP1 POP SWAP2 SWAP1 POP JUMP JUMPDEST PUSH0 PUSH1 0x20 DUP3 ADD SWAP1 POP DUP2 DUP2 SUB PUSH0 DUP4 ADD MSTORE PUSH2 0x146B DUP2 PUSH2 0x1432 JUMP JUMPDEST SWAP1 POP SWAP2 SWAP1 POP JUMP JUMPDEST PUSH32 0x556E617070726F76656420746F6B656E73000000000000000000000000000000 PUSH0 DUP3 ADD MSTORE POP JUMP JUMPDEST PUSH0 PUSH2 0x14A6 PUSH1 0x11 DUP4 PUSH2 0x10EF JUMP JUMPDEST SWAP2 POP PUSH2 0x14B1 DUP3 PUSH2 0x1472 JUMP JUMPDEST PUSH1 0x20 DUP3 ADD SWAP1 POP SWAP2 SWAP1 POP JUMP JUMPDEST PUSH0 PUSH1 0x20 DUP3 ADD SWAP1 POP DUP2 DUP2 SUB PUSH0 DUP4 ADD MSTORE PUSH2 0x14D3 DUP2 PUSH2 0x149A JUMP JUMPDEST SWAP1 POP SWAP2 SWAP1 POP JUMP JUMPDEST PUSH32 0x496E73756666696369656E742062616C616E6365000000000000000000000000 PUSH0 DUP3 ADD MSTORE POP JUMP JUMPDEST PUSH0 PUSH2 0x150E PUSH1 0x14 DUP4 PUSH2 0x10EF JUMP JUMPDEST SWAP2 POP PUSH2 0x1519 DUP3 PUSH2 0x14DA JUMP JUMPDEST PUSH1 0x20 DUP3 ADD SWAP1 POP SWAP2 SWAP1 POP JUMP JUMPDEST PUSH0 PUSH1 0x20 DUP3 ADD SWAP1 POP DUP2 DUP2 SUB PUSH0 DUP4 ADD MSTORE PUSH2 0x153B DUP2 PUSH2 0x1502 JUMP JUMPDEST SWAP1 POP SWAP2 SWAP1 POP JUMP JUMPDEST PUSH0 PUSH2 0x154C DUP3 PUSH2 0xF23 JUMP JUMPDEST SWAP2 POP PUSH2 0x1557 DUP4 PUSH2 0xF23 JUMP JUMPDEST SWAP3 POP DUP3 DUP3 SUB SWAP1 POP DUP2 DUP2 GT ISZERO PUSH2 0x156F JUMPI PUSH2 0x156E PUSH2 0x1342 JUMP JUMPDEST JUMPDEST SWAP3 SWAP2 POP POP JUMP JUMPDEST PUSH0 PUSH1 0x40 DUP3 ADD SWAP1 POP PUSH2 0x1588 PUSH0 DUP4 ADD DUP6 PUSH2 0xEF7 JUMP JUMPDEST PUSH2 0x1595 PUSH1 0x20 DUP4 ADD DUP5 PUSH2 0x10AB JUMP JUMPDEST SWAP4 SWAP3 POP POP POP JUMP INVALID LOG2 PUSH5 0x6970667358 0x22 SLT KECCAK256 0xEB 0xF9 0xC0 MSTORE8 SWAP4 DUP7 ORIGIN 0x26 0xAC SWAP8 0xE6 0xC9 PUSH22 0x55671C9FC244340B6E69B245D82D4D2644ECE64736F PUSH13 0x634300081A0033000000000000 "
				},
				"gasEstimates": {
					"creation": {
						"codeDepositCost": "1117200",
						"executionCost": "infinite",
						"totalCost": "infinite"
					},
					"external": {
						"addToken(address)": "28199",
						"aiTrader()": "2509",
						"approvedTokens(address)": "2922",
						"createPortfolio(uint256)": "infinite",
						"deposit(address,uint256)": "infinite",
						"executeAITrade(address,address,address,uint256)": "infinite",
						"owner()": "2508",
						"removeToken(address)": "28199",
						"userPortfolios(address)": "infinite",
						"withdraw(address,uint256)": "infinite"
					}
				},
				"methodIdentifiers": {
					"addToken(address)": "d48bfca7",
					"aiTrader()": "138a5e25",
					"approvedTokens(address)": "6d1ea3fa",
					"createPortfolio(uint256)": "43b25452",
					"deposit(address,uint256)": "47e7ef24",
					"executeAITrade(address,address,address,uint256)": "b1d6e59d",
					"owner()": "8da5cb5b",
					"removeToken(address)": "5fa7b584",
					"userPortfolios(address)": "b61920c1",
					"withdraw(address,uint256)": "f3fef3a3"
				}
			},
			"storageLayout": {
				"storage": [
					{
						"astId": 54,
						"contract": "contracts/PortfolioManager.sol:PortfolioManager",
						"label": "userPortfolios",
						"offset": 0,
						"slot": "0",
						"type": "t_mapping(t_address,t_struct(Portfolio)49_storage)"
					},
					{
						"astId": 58,
						"contract": "contracts/PortfolioManager.sol:PortfolioManager",
						"label": "approvedTokens",
						"offset": 0,
						"slot": "1",
						"type": "t_mapping(t_address,t_bool)"
					},
					{
						"astId": 60,
						"contract": "contracts/PortfolioManager.sol:PortfolioManager",
						"label": "owner",
						"offset": 0,
						"slot": "2",
						"type": "t_address"
					},
					{
						"astId": 62,
						"contract": "contracts/PortfolioManager.sol:PortfolioManager",
						"label": "aiTrader",
						"offset": 0,
						"slot": "3",
						"type": "t_address"
					}
				],
				"types": {
					"t_address": {
						"encoding": "inplace",
						"label": "address",
						"numberOfBytes": "20"
					},
					"t_bool": {
						"encoding": "inplace",
						"label": "bool",
						"numberOfBytes": "1"
					},
					"t_mapping(t_address,t_bool)": {
						"encoding": "mapping",
						"key": "t_address",
						"label": "mapping(address => bool)",
						"numberOfBytes": "32",
						"value": "t_bool"
					},
					"t_mapping(t_address,t_struct(Portfolio)49_storage)": {
						"encoding": "mapping",
						"key": "t_address",
						"label": "mapping(address => struct PortfolioManager.Portfolio)",
						"numberOfBytes": "32",
						"value": "t_struct(Portfolio)49_storage"
					},
					"t_mapping(t_address,t_uint256)": {
						"encoding": "mapping",
						"key": "t_address",
						"label": "mapping(address => uint256)",
						"numberOfBytes": "32",
						"value": "t_uint256"
					},
					"t_struct(Portfolio)49_storage": {
						"encoding": "inplace",
						"label": "struct PortfolioManager.Portfolio",
						"members": [
							{
								"astId": 40,
								"contract": "contracts/PortfolioManager.sol:PortfolioManager",
								"label": "totalValue",
								"offset": 0,
								"slot": "0",
								"type": "t_uint256"
							},
							{
								"astId": 42,
								"contract": "contracts/PortfolioManager.sol:PortfolioManager",
								"label": "riskLevel",
								"offset": 0,
								"slot": "1",
								"type": "t_uint256"
							},
							{
								"astId": 46,
								"contract": "contracts/PortfolioManager.sol:PortfolioManager",
								"label": "tokenBalances",
								"offset": 0,
								"slot": "2",
								"type": "t_mapping(t_address,t_uint256)"
							},
							{
								"astId": 48,
								"contract": "contracts/PortfolioManager.sol:PortfolioManager",
								"label": "isActive",
								"offset": 0,
								"slot": "3",
								"type": "t_bool"
							}
						],
						"numberOfBytes": "128"
					},
					"t_uint256": {
						"encoding": "inplace",
						"label": "uint256",
						"numberOfBytes": "32"
					}
				}
			},
			"userdoc": {
				"kind": "user",
				"methods": {},
				"version": 1
			}
		}
	}
}