{
	"contracts/AIOracleV1.sol": {
		"AIOracleV1": {
			"abi": [
				{
					"inputs": [],
					"stateMutability": "nonpayable",
					"type": "constructor"
				},
				{
					"anonymous": false,
					"inputs": [
						{
							"indexed": true,
							"internalType": "address",
							"name": "token",
							"type": "address"
						},
						{
							"indexed": false,
							"internalType": "uint256",
							"name": "confidence",
							"type": "uint256"
						},
						{
							"indexed": false,
							"internalType": "int256",
							"name": "priceDirection",
							"type": "int256"
						},
						{
							"indexed": false,
							"internalType": "bool",
							"name": "isHoneypot",
							"type": "bool"
						},
						{
							"indexed": false,
							"internalType": "uint256",
							"name": "riskScore",
							"type": "uint256"
						}
					],
					"name": "PredictionUpdated",
					"type": "event"
				},
				{
					"inputs": [
						{
							"internalType": "address",
							"name": "_updater",
							"type": "address"
						}
					],
					"name": "addUpdater",
					"outputs": [],
					"stateMutability": "nonpayable",
					"type": "function"
				},
				{
					"inputs": [
						{
							"internalType": "address",
							"name": "",
							"type": "address"
						}
					],
					"name": "authorizedUpdaters",
					"outputs": [
						{
							"internalType": "bool",
							"name": "",
							"type": "bool"
						}
					],
					"stateMutability": "view",
					"type": "function"
				},
				{
					"inputs": [
						{
							"internalType": "address",
							"name": "_token",
							"type": "address"
						}
					],
					"name": "getPrediction",
					"outputs": [
						{
							"internalType": "uint256",
							"name": "confidence",
							"type": "uint256"
						},
						{
							"internalType": "int256",
							"name": "priceDirection",
							"type": "int256"
						},
						{
							"internalType": "uint256",
							"name": "timestamp",
							"type": "uint256"
						},
						{
							"internalType": "bool",
							"name": "isHoneypot",
							"type": "bool"
						},
						{
							"internalType": "uint256",
							"name": "riskScore",
							"type": "uint256"
						}
					],
					"stateMutability": "view",
					"type": "function"
				},
				{
					"inputs": [],
					"name": "owner",
					"outputs": [
						{
							"internalType": "address",
							"name": "",
							"type": "address"
						}
					],
					"stateMutability": "view",
					"type": "function"
				},
				{
					"inputs": [
						{
							"internalType": "address",
							"name": "_updater",
							"type": "address"
						}
					],
					"name": "removeUpdater",
					"outputs": [],
					"stateMutability": "nonpayable",
					"type": "function"
				},
				{
					"inputs": [
						{
							"internalType": "address",
							"name": "",
							"type": "address"
						}
					],
					"name": "tokenPredictions",
					"outputs": [
						{
							"internalType": "uint256",
							"name": "confidence",
							"type": "uint256"
						},
						{
							"internalType": "int256",
							"name": "priceDirection",
							"type": "int256"
						},
						{
							"internalType": "uint256",
							"name": "timestamp",
							"type": "uint256"
						},
						{
							"internalType": "bool",
							"name": "isHoneypot",
							"type": "bool"
						},
						{
							"internalType": "uint256",
							"name": "riskScore",
							"type": "uint256"
						}
					],
					"stateMutability": "view",
					"type": "function"
				},
				{
					"inputs": [
						{
							"internalType": "address",
							"name": "_token",
							"type": "address"
						},
						{
							"internalType": "uint256",
							"name": "_confidence",
							"type": "uint256"
						},
						{
							"internalType": "int256",
							"name": "_priceDirection",
							"type": "int256"
						},
						{
							"internalType": "bool",
							"name": "_isHoneypot",
							"type": "bool"
						},
						{
							"internalType": "uint256",
							"name": "_riskScore",
							"type": "uint256"
						}
					],
					"name": "updatePrediction",
					"outputs": [],
					"stateMutability": "nonpayable",
					"type": "function"
				}
			],
			"devdoc": {
				"kind": "dev",
				"methods": {},
				"version": 1
			},
			"evm": {
				"assembly": "    /* \"contracts/AIOracleV1.sol\":57:2421  contract AIOracleV1 {... */\n  mstore(0x40, 0x80)\n    /* \"contracts/AIOracleV1.sol\":613:709  constructor() {... */\n  callvalue\n  dup1\n  iszero\n  tag_1\n  jumpi\n  0x00\n  dup1\n  revert\ntag_1:\n  pop\n    /* \"contracts/AIOracleV1.sol\":645:655  msg.sender */\n  caller\n    /* \"contracts/AIOracleV1.sol\":637:642  owner */\n  0x02\n  0x00\n    /* \"contracts/AIOracleV1.sol\":637:655  owner = msg.sender */\n  0x0100\n  exp\n  dup2\n  sload\n  dup2\n  0xffffffffffffffffffffffffffffffffffffffff\n  mul\n  not\n  and\n  swap1\n  dup4\n  0xffffffffffffffffffffffffffffffffffffffff\n  and\n  mul\n  or\n  swap1\n  sstore\n  pop\n    /* \"contracts/AIOracleV1.sol\":698:702  true */\n  0x01\n    /* \"contracts/AIOracleV1.sol\":665:683  authorizedUpdaters */\n  dup1\n    /* \"contracts/AIOracleV1.sol\":665:695  authorizedUpdaters[msg.sender] */\n  0x00\n    /* \"contracts/AIOracleV1.sol\":684:694  msg.sender */\n  caller\n    /* \"contracts/AIOracleV1.sol\":665:695  authorizedUpdaters[msg.sender] */\n  0xffffffffffffffffffffffffffffffffffffffff\n  and\n  0xffffffffffffffffffffffffffffffffffffffff\n  and\n  dup2\n  mstore\n  0x20\n  add\n  swap1\n  dup2\n  mstore\n  0x20\n  add\n  0x00\n  keccak256\n  0x00\n    /* \"contracts/AIOracleV1.sol\":665:702  authorizedUpdaters[msg.sender] = true */\n  0x0100\n  exp\n  dup2\n  sload\n  dup2\n  0xff\n  mul\n  not\n  and\n  swap1\n  dup4\n  iszero\n  iszero\n  mul\n  or\n  swap1\n  sstore\n  pop\n    /* \"contracts/AIOracleV1.sol\":57:2421  contract AIOracleV1 {... */\n  dataSize(sub_0)\n  dup1\n  dataOffset(sub_0)\n  0x00\n  codecopy\n  0x00\n  return\nstop\n\nsub_0: assembly {\n        /* \"contracts/AIOracleV1.sol\":57:2421  contract AIOracleV1 {... */\n      mstore(0x40, 0x80)\n      callvalue\n      dup1\n      iszero\n      tag_1\n      jumpi\n      0x00\n      dup1\n      revert\n    tag_1:\n      pop\n      jumpi(tag_2, lt(calldatasize, 0x04))\n      shr(0xe0, calldataload(0x00))\n      dup1\n      0x43d24a5e\n      gt\n      tag_10\n      jumpi\n      dup1\n      0x43d24a5e\n      eq\n      tag_6\n      jumpi\n      dup1\n      0x8da5cb5b\n      eq\n      tag_7\n      jumpi\n      dup1\n      0x8ff29cfe\n      eq\n      tag_8\n      jumpi\n      dup1\n      0xeacaced7\n      eq\n      tag_9\n      jumpi\n      jump(tag_2)\n    tag_10:\n      dup1\n      0x04b07a5e\n      eq\n      tag_3\n      jumpi\n      dup1\n      0x2daa1bdf\n      eq\n      tag_4\n      jumpi\n      dup1\n      0x2f6cacf5\n      eq\n      tag_5\n      jumpi\n    tag_2:\n      0x00\n      dup1\n      revert\n        /* \"contracts/AIOracleV1.sol\":1043:1156  function removeUpdater(address _updater) external onlyOwner {... */\n    tag_3:\n      tag_11\n      0x04\n      dup1\n      calldatasize\n      sub\n      dup2\n      add\n      swap1\n      tag_12\n      swap2\n      swap1\n      tag_13\n      jump\t// in\n    tag_12:\n      tag_14\n      jump\t// in\n    tag_11:\n      stop\n        /* \"contracts/AIOracleV1.sol\":292:346  mapping(address => Prediction) public tokenPredictions */\n    tag_4:\n      tag_15\n      0x04\n      dup1\n      calldatasize\n      sub\n      dup2\n      add\n      swap1\n      tag_16\n      swap2\n      swap1\n      tag_13\n      jump\t// in\n    tag_16:\n      tag_17\n      jump\t// in\n    tag_15:\n      mload(0x40)\n      tag_18\n      swap6\n      swap5\n      swap4\n      swap3\n      swap2\n      swap1\n      tag_19\n      jump\t// in\n    tag_18:\n      mload(0x40)\n      dup1\n      swap2\n      sub\n      swap1\n      return\n        /* \"contracts/AIOracleV1.sol\":1162:1901  function updatePrediction(... */\n    tag_5:\n      tag_20\n      0x04\n      dup1\n      calldatasize\n      sub\n      dup2\n      add\n      swap1\n      tag_21\n      swap2\n      swap1\n      tag_22\n      jump\t// in\n    tag_21:\n      tag_23\n      jump\t// in\n    tag_20:\n      stop\n        /* \"contracts/AIOracleV1.sol\":928:1037  function addUpdater(address _updater) external onlyOwner {... */\n    tag_6:\n      tag_24\n      0x04\n      dup1\n      calldatasize\n      sub\n      dup2\n      add\n      swap1\n      tag_25\n      swap2\n      swap1\n      tag_13\n      jump\t// in\n    tag_25:\n      tag_26\n      jump\t// in\n    tag_24:\n      stop\n        /* \"contracts/AIOracleV1.sol\":408:428  address public owner */\n    tag_7:\n      tag_27\n      tag_28\n      jump\t// in\n    tag_27:\n      mload(0x40)\n      tag_29\n      swap2\n      swap1\n      tag_30\n      jump\t// in\n    tag_29:\n      mload(0x40)\n      dup1\n      swap2\n      sub\n      swap1\n      return\n        /* \"contracts/AIOracleV1.sol\":352:402  mapping(address => bool) public authorizedUpdaters */\n    tag_8:\n      tag_31\n      0x04\n      dup1\n      calldatasize\n      sub\n      dup2\n      add\n      swap1\n      tag_32\n      swap2\n      swap1\n      tag_13\n      jump\t// in\n    tag_32:\n      tag_33\n      jump\t// in\n    tag_31:\n      mload(0x40)\n      tag_34\n      swap2\n      swap1\n      tag_35\n      jump\t// in\n    tag_34:\n      mload(0x40)\n      dup1\n      swap2\n      sub\n      swap1\n      return\n        /* \"contracts/AIOracleV1.sol\":1907:2419  function getPrediction(... */\n    tag_9:\n      tag_36\n      0x04\n      dup1\n      calldatasize\n      sub\n      dup2\n      add\n      swap1\n      tag_37\n      swap2\n      swap1\n      tag_13\n      jump\t// in\n    tag_37:\n      tag_38\n      jump\t// in\n    tag_36:\n      mload(0x40)\n      tag_39\n      swap6\n      swap5\n      swap4\n      swap3\n      swap2\n      swap1\n      tag_19\n      jump\t// in\n    tag_39:\n      mload(0x40)\n      dup1\n      swap2\n      sub\n      swap1\n      return\n        /* \"contracts/AIOracleV1.sol\":1043:1156  function removeUpdater(address _updater) external onlyOwner {... */\n    tag_14:\n        /* \"contracts/AIOracleV1.sol\":768:773  owner */\n      0x02\n      0x00\n      swap1\n      sload\n      swap1\n      0x0100\n      exp\n      swap1\n      div\n      0xffffffffffffffffffffffffffffffffffffffff\n      and\n        /* \"contracts/AIOracleV1.sol\":754:773  msg.sender == owner */\n      0xffffffffffffffffffffffffffffffffffffffff\n      and\n        /* \"contracts/AIOracleV1.sol\":754:764  msg.sender */\n      caller\n        /* \"contracts/AIOracleV1.sol\":754:773  msg.sender == owner */\n      0xffffffffffffffffffffffffffffffffffffffff\n      and\n      eq\n        /* \"contracts/AIOracleV1.sol\":746:787  require(msg.sender == owner, \"Not owner\") */\n      tag_41\n      jumpi\n      mload(0x40)\n      0x08c379a000000000000000000000000000000000000000000000000000000000\n      dup2\n      mstore\n      0x04\n      add\n      tag_42\n      swap1\n      tag_43\n      jump\t// in\n    tag_42:\n      mload(0x40)\n      dup1\n      swap2\n      sub\n      swap1\n      revert\n    tag_41:\n        /* \"contracts/AIOracleV1.sol\":1144:1149  false */\n      0x00\n        /* \"contracts/AIOracleV1.sol\":1113:1131  authorizedUpdaters */\n      0x01\n        /* \"contracts/AIOracleV1.sol\":1113:1141  authorizedUpdaters[_updater] */\n      0x00\n        /* \"contracts/AIOracleV1.sol\":1132:1140  _updater */\n      dup4\n        /* \"contracts/AIOracleV1.sol\":1113:1141  authorizedUpdaters[_updater] */\n      0xffffffffffffffffffffffffffffffffffffffff\n      and\n      0xffffffffffffffffffffffffffffffffffffffff\n      and\n      dup2\n      mstore\n      0x20\n      add\n      swap1\n      dup2\n      mstore\n      0x20\n      add\n      0x00\n      keccak256\n      0x00\n        /* \"contracts/AIOracleV1.sol\":1113:1149  authorizedUpdaters[_updater] = false */\n      0x0100\n      exp\n      dup2\n      sload\n      dup2\n      0xff\n      mul\n      not\n      and\n      swap1\n      dup4\n      iszero\n      iszero\n      mul\n      or\n      swap1\n      sstore\n      pop\n        /* \"contracts/AIOracleV1.sol\":1043:1156  function removeUpdater(address _updater) external onlyOwner {... */\n      pop\n      jump\t// out\n        /* \"contracts/AIOracleV1.sol\":292:346  mapping(address => Prediction) public tokenPredictions */\n    tag_17:\n      mstore(0x20, 0x00)\n      dup1\n      0x00\n      mstore\n      keccak256(0x00, 0x40)\n      0x00\n      swap2\n      pop\n      swap1\n      pop\n      dup1\n      0x00\n      add\n      sload\n      swap1\n      dup1\n      0x01\n      add\n      sload\n      swap1\n      dup1\n      0x02\n      add\n      sload\n      swap1\n      dup1\n      0x03\n      add\n      0x00\n      swap1\n      sload\n      swap1\n      0x0100\n      exp\n      swap1\n      div\n      0xff\n      and\n      swap1\n      dup1\n      0x04\n      add\n      sload\n      swap1\n      pop\n      dup6\n      jump\t// out\n        /* \"contracts/AIOracleV1.sol\":1162:1901  function updatePrediction(... */\n    tag_23:\n        /* \"contracts/AIOracleV1.sol\":855:873  authorizedUpdaters */\n      0x01\n        /* \"contracts/AIOracleV1.sol\":855:885  authorizedUpdaters[msg.sender] */\n      0x00\n        /* \"contracts/AIOracleV1.sol\":874:884  msg.sender */\n      caller\n        /* \"contracts/AIOracleV1.sol\":855:885  authorizedUpdaters[msg.sender] */\n      0xffffffffffffffffffffffffffffffffffffffff\n      and\n      0xffffffffffffffffffffffffffffffffffffffff\n      and\n      dup2\n      mstore\n      0x20\n      add\n      swap1\n      dup2\n      mstore\n      0x20\n      add\n      0x00\n      keccak256\n      0x00\n      swap1\n      sload\n      swap1\n      0x0100\n      exp\n      swap1\n      div\n      0xff\n      and\n        /* \"contracts/AIOracleV1.sol\":847:904  require(authorizedUpdaters[msg.sender], \"Not authorized\") */\n      tag_46\n      jumpi\n      mload(0x40)\n      0x08c379a000000000000000000000000000000000000000000000000000000000\n      dup2\n      mstore\n      0x04\n      add\n      tag_47\n      swap1\n      tag_48\n      jump\t// in\n    tag_47:\n      mload(0x40)\n      dup1\n      swap2\n      sub\n      swap1\n      revert\n    tag_46:\n        /* \"contracts/AIOracleV1.sol\":1390:1393  100 */\n      0x64\n        /* \"contracts/AIOracleV1.sol\":1375:1386  _confidence */\n      dup5\n        /* \"contracts/AIOracleV1.sol\":1375:1393  _confidence <= 100 */\n      gt\n      iszero\n        /* \"contracts/AIOracleV1.sol\":1367:1416  require(_confidence <= 100, \"Invalid confidence\") */\n      tag_50\n      jumpi\n      mload(0x40)\n      0x08c379a000000000000000000000000000000000000000000000000000000000\n      dup2\n      mstore\n      0x04\n      add\n      tag_51\n      swap1\n      tag_52\n      jump\t// in\n    tag_51:\n      mload(0x40)\n      dup1\n      swap2\n      sub\n      swap1\n      revert\n    tag_50:\n        /* \"contracts/AIOracleV1.sol\":1448:1451  100 */\n      0x64\n        /* \"contracts/AIOracleV1.sol\":1434:1444  _riskScore */\n      dup2\n        /* \"contracts/AIOracleV1.sol\":1434:1451  _riskScore <= 100 */\n      gt\n      iszero\n        /* \"contracts/AIOracleV1.sol\":1426:1474  require(_riskScore <= 100, \"Invalid risk score\") */\n      tag_53\n      jumpi\n      mload(0x40)\n      0x08c379a000000000000000000000000000000000000000000000000000000000\n      dup2\n      mstore\n      0x04\n      add\n      tag_54\n      swap1\n      tag_55\n      jump\t// in\n    tag_54:\n      mload(0x40)\n      dup1\n      swap2\n      sub\n      swap1\n      revert\n    tag_53:\n        /* \"contracts/AIOracleV1.sol\":1512:1728  Prediction({... */\n      mload(0x40)\n      dup1\n      0xa0\n      add\n      0x40\n      mstore\n      dup1\n        /* \"contracts/AIOracleV1.sol\":1549:1560  _confidence */\n      dup6\n        /* \"contracts/AIOracleV1.sol\":1512:1728  Prediction({... */\n      dup2\n      mstore\n      0x20\n      add\n        /* \"contracts/AIOracleV1.sol\":1590:1605  _priceDirection */\n      dup5\n        /* \"contracts/AIOracleV1.sol\":1512:1728  Prediction({... */\n      dup2\n      mstore\n      0x20\n      add\n        /* \"contracts/AIOracleV1.sol\":1630:1645  block.timestamp */\n      timestamp\n        /* \"contracts/AIOracleV1.sol\":1512:1728  Prediction({... */\n      dup2\n      mstore\n      0x20\n      add\n        /* \"contracts/AIOracleV1.sol\":1671:1682  _isHoneypot */\n      dup4\n        /* \"contracts/AIOracleV1.sol\":1512:1728  Prediction({... */\n      iszero\n      iszero\n      dup2\n      mstore\n      0x20\n      add\n        /* \"contracts/AIOracleV1.sol\":1707:1717  _riskScore */\n      dup3\n        /* \"contracts/AIOracleV1.sol\":1512:1728  Prediction({... */\n      dup2\n      mstore\n      pop\n        /* \"contracts/AIOracleV1.sol\":1485:1501  tokenPredictions */\n      0x00\n        /* \"contracts/AIOracleV1.sol\":1485:1509  tokenPredictions[_token] */\n      dup1\n        /* \"contracts/AIOracleV1.sol\":1502:1508  _token */\n      dup8\n        /* \"contracts/AIOracleV1.sol\":1485:1509  tokenPredictions[_token] */\n      0xffffffffffffffffffffffffffffffffffffffff\n      and\n      0xffffffffffffffffffffffffffffffffffffffff\n      and\n      dup2\n      mstore\n      0x20\n      add\n      swap1\n      dup2\n      mstore\n      0x20\n      add\n      0x00\n      keccak256\n        /* \"contracts/AIOracleV1.sol\":1485:1728  tokenPredictions[_token] = Prediction({... */\n      0x00\n      dup3\n      add\n      mload\n      dup2\n      0x00\n      add\n      sstore\n      0x20\n      dup3\n      add\n      mload\n      dup2\n      0x01\n      add\n      sstore\n      0x40\n      dup3\n      add\n      mload\n      dup2\n      0x02\n      add\n      sstore\n      0x60\n      dup3\n      add\n      mload\n      dup2\n      0x03\n      add\n      exp(0x0100, 0x00)\n      dup2\n      sload\n      dup2\n      0xff\n      mul\n      not\n      and\n      swap1\n      dup4\n      iszero\n      iszero\n      mul\n      or\n      swap1\n      sstore\n      pop\n      0x80\n      dup3\n      add\n      mload\n      dup2\n      0x04\n      add\n      sstore\n      swap1\n      pop\n      pop\n        /* \"contracts/AIOracleV1.sol\":1775:1781  _token */\n      dup5\n        /* \"contracts/AIOracleV1.sol\":1744:1894  PredictionUpdated(... */\n      0xffffffffffffffffffffffffffffffffffffffff\n      and\n      0xf299f72b44aa6a6589bb03305d192b00977863348e19e01f283b483180048e2f\n        /* \"contracts/AIOracleV1.sol\":1795:1806  _confidence */\n      dup6\n        /* \"contracts/AIOracleV1.sol\":1820:1835  _priceDirection */\n      dup6\n        /* \"contracts/AIOracleV1.sol\":1849:1860  _isHoneypot */\n      dup6\n        /* \"contracts/AIOracleV1.sol\":1874:1884  _riskScore */\n      dup6\n        /* \"contracts/AIOracleV1.sol\":1744:1894  PredictionUpdated(... */\n      mload(0x40)\n      tag_56\n      swap5\n      swap4\n      swap3\n      swap2\n      swap1\n      tag_57\n      jump\t// in\n    tag_56:\n      mload(0x40)\n      dup1\n      swap2\n      sub\n      swap1\n      log2\n        /* \"contracts/AIOracleV1.sol\":1162:1901  function updatePrediction(... */\n      pop\n      pop\n      pop\n      pop\n      pop\n      jump\t// out\n        /* \"contracts/AIOracleV1.sol\":928:1037  function addUpdater(address _updater) external onlyOwner {... */\n    tag_26:\n        /* \"contracts/AIOracleV1.sol\":768:773  owner */\n      0x02\n      0x00\n      swap1\n      sload\n      swap1\n      0x0100\n      exp\n      swap1\n      div\n      0xffffffffffffffffffffffffffffffffffffffff\n      and\n        /* \"contracts/AIOracleV1.sol\":754:773  msg.sender == owner */\n      0xffffffffffffffffffffffffffffffffffffffff\n      and\n        /* \"contracts/AIOracleV1.sol\":754:764  msg.sender */\n      caller\n        /* \"contracts/AIOracleV1.sol\":754:773  msg.sender == owner */\n      0xffffffffffffffffffffffffffffffffffffffff\n      and\n      eq\n        /* \"contracts/AIOracleV1.sol\":746:787  require(msg.sender == owner, \"Not owner\") */\n      tag_59\n      jumpi\n      mload(0x40)\n      0x08c379a000000000000000000000000000000000000000000000000000000000\n      dup2\n      mstore\n      0x04\n      add\n      tag_60\n      swap1\n      tag_43\n      jump\t// in\n    tag_60:\n      mload(0x40)\n      dup1\n      swap2\n      sub\n      swap1\n      revert\n    tag_59:\n        /* \"contracts/AIOracleV1.sol\":1026:1030  true */\n      0x01\n        /* \"contracts/AIOracleV1.sol\":995:1013  authorizedUpdaters */\n      dup1\n        /* \"contracts/AIOracleV1.sol\":995:1023  authorizedUpdaters[_updater] */\n      0x00\n        /* \"contracts/AIOracleV1.sol\":1014:1022  _updater */\n      dup4\n        /* \"contracts/AIOracleV1.sol\":995:1023  authorizedUpdaters[_updater] */\n      0xffffffffffffffffffffffffffffffffffffffff\n      and\n      0xffffffffffffffffffffffffffffffffffffffff\n      and\n      dup2\n      mstore\n      0x20\n      add\n      swap1\n      dup2\n      mstore\n      0x20\n      add\n      0x00\n      keccak256\n      0x00\n        /* \"contracts/AIOracleV1.sol\":995:1030  authorizedUpdaters[_updater] = true */\n      0x0100\n      exp\n      dup2\n      sload\n      dup2\n      0xff\n      mul\n      not\n      and\n      swap1\n      dup4\n      iszero\n      iszero\n      mul\n      or\n      swap1\n      sstore\n      pop\n        /* \"contracts/AIOracleV1.sol\":928:1037  function addUpdater(address _updater) external onlyOwner {... */\n      pop\n      jump\t// out\n        /* \"contracts/AIOracleV1.sol\":408:428  address public owner */\n    tag_28:\n      0x02\n      0x00\n      swap1\n      sload\n      swap1\n      0x0100\n      exp\n      swap1\n      div\n      0xffffffffffffffffffffffffffffffffffffffff\n      and\n      dup2\n      jump\t// out\n        /* \"contracts/AIOracleV1.sol\":352:402  mapping(address => bool) public authorizedUpdaters */\n    tag_33:\n      mstore(0x20, 0x01)\n      dup1\n      0x00\n      mstore\n      keccak256(0x00, 0x40)\n      0x00\n      swap2\n      pop\n      sload\n      swap1\n      0x0100\n      exp\n      swap1\n      div\n      0xff\n      and\n      dup2\n      jump\t// out\n        /* \"contracts/AIOracleV1.sol\":1907:2419  function getPrediction(... */\n    tag_38:\n        /* \"contracts/AIOracleV1.sol\":2020:2038  uint256 confidence */\n      0x00\n        /* \"contracts/AIOracleV1.sol\":2052:2073  int256 priceDirection */\n      dup1\n        /* \"contracts/AIOracleV1.sol\":2087:2104  uint256 timestamp */\n      0x00\n        /* \"contracts/AIOracleV1.sol\":2118:2133  bool isHoneypot */\n      dup1\n        /* \"contracts/AIOracleV1.sol\":2147:2164  uint256 riskScore */\n      0x00\n        /* \"contracts/AIOracleV1.sol\":2189:2211  Prediction memory pred */\n      dup1\n        /* \"contracts/AIOracleV1.sol\":2214:2230  tokenPredictions */\n      0x00\n        /* \"contracts/AIOracleV1.sol\":2214:2238  tokenPredictions[_token] */\n      dup1\n        /* \"contracts/AIOracleV1.sol\":2231:2237  _token */\n      dup9\n        /* \"contracts/AIOracleV1.sol\":2214:2238  tokenPredictions[_token] */\n      0xffffffffffffffffffffffffffffffffffffffff\n      and\n      0xffffffffffffffffffffffffffffffffffffffff\n      and\n      dup2\n      mstore\n      0x20\n      add\n      swap1\n      dup2\n      mstore\n      0x20\n      add\n      0x00\n      keccak256\n        /* \"contracts/AIOracleV1.sol\":2189:2238  Prediction memory pred = tokenPredictions[_token] */\n      mload(0x40)\n      dup1\n      0xa0\n      add\n      0x40\n      mstore\n      swap1\n      dup2\n      0x00\n      dup3\n      add\n      sload\n      dup2\n      mstore\n      0x20\n      add\n      0x01\n      dup3\n      add\n      sload\n      dup2\n      mstore\n      0x20\n      add\n      0x02\n      dup3\n      add\n      sload\n      dup2\n      mstore\n      0x20\n      add\n      0x03\n      dup3\n      add\n      0x00\n      swap1\n      sload\n      swap1\n      0x0100\n      exp\n      swap1\n      div\n      0xff\n      and\n      iszero\n      iszero\n      iszero\n      iszero\n      dup2\n      mstore\n      0x20\n      add\n      0x04\n      dup3\n      add\n      sload\n      dup2\n      mstore\n      pop\n      pop\n      swap1\n      pop\n        /* \"contracts/AIOracleV1.sol\":2269:2273  pred */\n      dup1\n        /* \"contracts/AIOracleV1.sol\":2269:2284  pred.confidence */\n      0x00\n      add\n      mload\n        /* \"contracts/AIOracleV1.sol\":2298:2302  pred */\n      dup2\n        /* \"contracts/AIOracleV1.sol\":2298:2317  pred.priceDirection */\n      0x20\n      add\n      mload\n        /* \"contracts/AIOracleV1.sol\":2331:2335  pred */\n      dup3\n        /* \"contracts/AIOracleV1.sol\":2331:2345  pred.timestamp */\n      0x40\n      add\n      mload\n        /* \"contracts/AIOracleV1.sol\":2359:2363  pred */\n      dup4\n        /* \"contracts/AIOracleV1.sol\":2359:2374  pred.isHoneypot */\n      0x60\n      add\n      mload\n        /* \"contracts/AIOracleV1.sol\":2388:2392  pred */\n      dup5\n        /* \"contracts/AIOracleV1.sol\":2388:2402  pred.riskScore */\n      0x80\n      add\n      mload\n        /* \"contracts/AIOracleV1.sol\":2248:2412  return (... */\n      swap6\n      pop\n      swap6\n      pop\n      swap6\n      pop\n      swap6\n      pop\n      swap6\n      pop\n      pop\n        /* \"contracts/AIOracleV1.sol\":1907:2419  function getPrediction(... */\n      swap2\n      swap4\n      swap6\n      swap1\n      swap3\n      swap5\n      pop\n      jump\t// out\n        /* \"#utility.yul\":88:205   */\n    tag_64:\n        /* \"#utility.yul\":197:198   */\n      0x00\n        /* \"#utility.yul\":194:195   */\n      dup1\n        /* \"#utility.yul\":187:199   */\n      revert\n        /* \"#utility.yul\":334:460   */\n    tag_66:\n        /* \"#utility.yul\":371:378   */\n      0x00\n        /* \"#utility.yul\":411:453   */\n      0xffffffffffffffffffffffffffffffffffffffff\n        /* \"#utility.yul\":404:409   */\n      dup3\n        /* \"#utility.yul\":400:454   */\n      and\n        /* \"#utility.yul\":389:454   */\n      swap1\n      pop\n        /* \"#utility.yul\":334:460   */\n      swap2\n      swap1\n      pop\n      jump\t// out\n        /* \"#utility.yul\":466:562   */\n    tag_67:\n        /* \"#utility.yul\":503:510   */\n      0x00\n        /* \"#utility.yul\":532:556   */\n      tag_98\n        /* \"#utility.yul\":550:555   */\n      dup3\n        /* \"#utility.yul\":532:556   */\n      tag_66\n      jump\t// in\n    tag_98:\n        /* \"#utility.yul\":521:556   */\n      swap1\n      pop\n        /* \"#utility.yul\":466:562   */\n      swap2\n      swap1\n      pop\n      jump\t// out\n        /* \"#utility.yul\":568:690   */\n    tag_68:\n        /* \"#utility.yul\":641:665   */\n      tag_100\n        /* \"#utility.yul\":659:664   */\n      dup2\n        /* \"#utility.yul\":641:665   */\n      tag_67\n      jump\t// in\n    tag_100:\n        /* \"#utility.yul\":634:639   */\n      dup2\n        /* \"#utility.yul\":631:666   */\n      eq\n        /* \"#utility.yul\":621:684   */\n      tag_101\n      jumpi\n        /* \"#utility.yul\":680:681   */\n      0x00\n        /* \"#utility.yul\":677:678   */\n      dup1\n        /* \"#utility.yul\":670:682   */\n      revert\n        /* \"#utility.yul\":621:684   */\n    tag_101:\n        /* \"#utility.yul\":568:690   */\n      pop\n      jump\t// out\n        /* \"#utility.yul\":696:835   */\n    tag_69:\n        /* \"#utility.yul\":742:747   */\n      0x00\n        /* \"#utility.yul\":780:786   */\n      dup2\n        /* \"#utility.yul\":767:787   */\n      calldataload\n        /* \"#utility.yul\":758:787   */\n      swap1\n      pop\n        /* \"#utility.yul\":796:829   */\n      tag_103\n        /* \"#utility.yul\":823:828   */\n      dup2\n        /* \"#utility.yul\":796:829   */\n      tag_68\n      jump\t// in\n    tag_103:\n        /* \"#utility.yul\":696:835   */\n      swap3\n      swap2\n      pop\n      pop\n      jump\t// out\n        /* \"#utility.yul\":841:1170   */\n    tag_13:\n        /* \"#utility.yul\":900:906   */\n      0x00\n        /* \"#utility.yul\":949:951   */\n      0x20\n        /* \"#utility.yul\":937:946   */\n      dup3\n        /* \"#utility.yul\":928:935   */\n      dup5\n        /* \"#utility.yul\":924:947   */\n      sub\n        /* \"#utility.yul\":920:952   */\n      slt\n        /* \"#utility.yul\":917:1036   */\n      iszero\n      tag_105\n      jumpi\n        /* \"#utility.yul\":955:1034   */\n      tag_106\n      tag_64\n      jump\t// in\n    tag_106:\n        /* \"#utility.yul\":917:1036   */\n    tag_105:\n        /* \"#utility.yul\":1075:1076   */\n      0x00\n        /* \"#utility.yul\":1100:1153   */\n      tag_107\n        /* \"#utility.yul\":1145:1152   */\n      dup5\n        /* \"#utility.yul\":1136:1142   */\n      dup3\n        /* \"#utility.yul\":1125:1134   */\n      dup6\n        /* \"#utility.yul\":1121:1143   */\n      add\n        /* \"#utility.yul\":1100:1153   */\n      tag_69\n      jump\t// in\n    tag_107:\n        /* \"#utility.yul\":1090:1153   */\n      swap2\n      pop\n        /* \"#utility.yul\":1046:1163   */\n      pop\n        /* \"#utility.yul\":841:1170   */\n      swap3\n      swap2\n      pop\n      pop\n      jump\t// out\n        /* \"#utility.yul\":1176:1253   */\n    tag_70:\n        /* \"#utility.yul\":1213:1220   */\n      0x00\n        /* \"#utility.yul\":1242:1247   */\n      dup2\n        /* \"#utility.yul\":1231:1247   */\n      swap1\n      pop\n        /* \"#utility.yul\":1176:1253   */\n      swap2\n      swap1\n      pop\n      jump\t// out\n        /* \"#utility.yul\":1259:1377   */\n    tag_71:\n        /* \"#utility.yul\":1346:1370   */\n      tag_110\n        /* \"#utility.yul\":1364:1369   */\n      dup2\n        /* \"#utility.yul\":1346:1370   */\n      tag_70\n      jump\t// in\n    tag_110:\n        /* \"#utility.yul\":1341:1344   */\n      dup3\n        /* \"#utility.yul\":1334:1371   */\n      mstore\n        /* \"#utility.yul\":1259:1377   */\n      pop\n      pop\n      jump\t// out\n        /* \"#utility.yul\":1383:1459   */\n    tag_72:\n        /* \"#utility.yul\":1419:1426   */\n      0x00\n        /* \"#utility.yul\":1448:1453   */\n      dup2\n        /* \"#utility.yul\":1437:1453   */\n      swap1\n      pop\n        /* \"#utility.yul\":1383:1459   */\n      swap2\n      swap1\n      pop\n      jump\t// out\n        /* \"#utility.yul\":1465:1580   */\n    tag_73:\n        /* \"#utility.yul\":1550:1573   */\n      tag_113\n        /* \"#utility.yul\":1567:1572   */\n      dup2\n        /* \"#utility.yul\":1550:1573   */\n      tag_72\n      jump\t// in\n    tag_113:\n        /* \"#utility.yul\":1545:1548   */\n      dup3\n        /* \"#utility.yul\":1538:1574   */\n      mstore\n        /* \"#utility.yul\":1465:1580   */\n      pop\n      pop\n      jump\t// out\n        /* \"#utility.yul\":1586:1676   */\n    tag_74:\n        /* \"#utility.yul\":1620:1627   */\n      0x00\n        /* \"#utility.yul\":1663:1668   */\n      dup2\n        /* \"#utility.yul\":1656:1669   */\n      iszero\n        /* \"#utility.yul\":1649:1670   */\n      iszero\n        /* \"#utility.yul\":1638:1670   */\n      swap1\n      pop\n        /* \"#utility.yul\":1586:1676   */\n      swap2\n      swap1\n      pop\n      jump\t// out\n        /* \"#utility.yul\":1682:1791   */\n    tag_75:\n        /* \"#utility.yul\":1763:1784   */\n      tag_116\n        /* \"#utility.yul\":1778:1783   */\n      dup2\n        /* \"#utility.yul\":1763:1784   */\n      tag_74\n      jump\t// in\n    tag_116:\n        /* \"#utility.yul\":1758:1761   */\n      dup3\n        /* \"#utility.yul\":1751:1785   */\n      mstore\n        /* \"#utility.yul\":1682:1791   */\n      pop\n      pop\n      jump\t// out\n        /* \"#utility.yul\":1797:2445   */\n    tag_19:\n        /* \"#utility.yul\":1994:1998   */\n      0x00\n        /* \"#utility.yul\":2032:2035   */\n      0xa0\n        /* \"#utility.yul\":2021:2030   */\n      dup3\n        /* \"#utility.yul\":2017:2036   */\n      add\n        /* \"#utility.yul\":2009:2036   */\n      swap1\n      pop\n        /* \"#utility.yul\":2046:2117   */\n      tag_118\n        /* \"#utility.yul\":2114:2115   */\n      0x00\n        /* \"#utility.yul\":2103:2112   */\n      dup4\n        /* \"#utility.yul\":2099:2116   */\n      add\n        /* \"#utility.yul\":2090:2096   */\n      dup9\n        /* \"#utility.yul\":2046:2117   */\n      tag_71\n      jump\t// in\n    tag_118:\n        /* \"#utility.yul\":2127:2197   */\n      tag_119\n        /* \"#utility.yul\":2193:2195   */\n      0x20\n        /* \"#utility.yul\":2182:2191   */\n      dup4\n        /* \"#utility.yul\":2178:2196   */\n      add\n        /* \"#utility.yul\":2169:2175   */\n      dup8\n        /* \"#utility.yul\":2127:2197   */\n      tag_73\n      jump\t// in\n    tag_119:\n        /* \"#utility.yul\":2207:2279   */\n      tag_120\n        /* \"#utility.yul\":2275:2277   */\n      0x40\n        /* \"#utility.yul\":2264:2273   */\n      dup4\n        /* \"#utility.yul\":2260:2278   */\n      add\n        /* \"#utility.yul\":2251:2257   */\n      dup7\n        /* \"#utility.yul\":2207:2279   */\n      tag_71\n      jump\t// in\n    tag_120:\n        /* \"#utility.yul\":2289:2355   */\n      tag_121\n        /* \"#utility.yul\":2351:2353   */\n      0x60\n        /* \"#utility.yul\":2340:2349   */\n      dup4\n        /* \"#utility.yul\":2336:2354   */\n      add\n        /* \"#utility.yul\":2327:2333   */\n      dup6\n        /* \"#utility.yul\":2289:2355   */\n      tag_75\n      jump\t// in\n    tag_121:\n        /* \"#utility.yul\":2365:2438   */\n      tag_122\n        /* \"#utility.yul\":2433:2436   */\n      0x80\n        /* \"#utility.yul\":2422:2431   */\n      dup4\n        /* \"#utility.yul\":2418:2437   */\n      add\n        /* \"#utility.yul\":2409:2415   */\n      dup5\n        /* \"#utility.yul\":2365:2438   */\n      tag_71\n      jump\t// in\n    tag_122:\n        /* \"#utility.yul\":1797:2445   */\n      swap7\n      swap6\n      pop\n      pop\n      pop\n      pop\n      pop\n      pop\n      jump\t// out\n        /* \"#utility.yul\":2451:2573   */\n    tag_76:\n        /* \"#utility.yul\":2524:2548   */\n      tag_124\n        /* \"#utility.yul\":2542:2547   */\n      dup2\n        /* \"#utility.yul\":2524:2548   */\n      tag_70\n      jump\t// in\n    tag_124:\n        /* \"#utility.yul\":2517:2522   */\n      dup2\n        /* \"#utility.yul\":2514:2549   */\n      eq\n        /* \"#utility.yul\":2504:2567   */\n      tag_125\n      jumpi\n        /* \"#utility.yul\":2563:2564   */\n      0x00\n        /* \"#utility.yul\":2560:2561   */\n      dup1\n        /* \"#utility.yul\":2553:2565   */\n      revert\n        /* \"#utility.yul\":2504:2567   */\n    tag_125:\n        /* \"#utility.yul\":2451:2573   */\n      pop\n      jump\t// out\n        /* \"#utility.yul\":2579:2718   */\n    tag_77:\n        /* \"#utility.yul\":2625:2630   */\n      0x00\n        /* \"#utility.yul\":2663:2669   */\n      dup2\n        /* \"#utility.yul\":2650:2670   */\n      calldataload\n        /* \"#utility.yul\":2641:2670   */\n      swap1\n      pop\n        /* \"#utility.yul\":2679:2712   */\n      tag_127\n        /* \"#utility.yul\":2706:2711   */\n      dup2\n        /* \"#utility.yul\":2679:2712   */\n      tag_76\n      jump\t// in\n    tag_127:\n        /* \"#utility.yul\":2579:2718   */\n      swap3\n      swap2\n      pop\n      pop\n      jump\t// out\n        /* \"#utility.yul\":2724:2844   */\n    tag_78:\n        /* \"#utility.yul\":2796:2819   */\n      tag_129\n        /* \"#utility.yul\":2813:2818   */\n      dup2\n        /* \"#utility.yul\":2796:2819   */\n      tag_72\n      jump\t// in\n    tag_129:\n        /* \"#utility.yul\":2789:2794   */\n      dup2\n        /* \"#utility.yul\":2786:2820   */\n      eq\n        /* \"#utility.yul\":2776:2838   */\n      tag_130\n      jumpi\n        /* \"#utility.yul\":2834:2835   */\n      0x00\n        /* \"#utility.yul\":2831:2832   */\n      dup1\n        /* \"#utility.yul\":2824:2836   */\n      revert\n        /* \"#utility.yul\":2776:2838   */\n    tag_130:\n        /* \"#utility.yul\":2724:2844   */\n      pop\n      jump\t// out\n        /* \"#utility.yul\":2850:2987   */\n    tag_79:\n        /* \"#utility.yul\":2895:2900   */\n      0x00\n        /* \"#utility.yul\":2933:2939   */\n      dup2\n        /* \"#utility.yul\":2920:2940   */\n      calldataload\n        /* \"#utility.yul\":2911:2940   */\n      swap1\n      pop\n        /* \"#utility.yul\":2949:2981   */\n      tag_132\n        /* \"#utility.yul\":2975:2980   */\n      dup2\n        /* \"#utility.yul\":2949:2981   */\n      tag_78\n      jump\t// in\n    tag_132:\n        /* \"#utility.yul\":2850:2987   */\n      swap3\n      swap2\n      pop\n      pop\n      jump\t// out\n        /* \"#utility.yul\":2993:3109   */\n    tag_80:\n        /* \"#utility.yul\":3063:3084   */\n      tag_134\n        /* \"#utility.yul\":3078:3083   */\n      dup2\n        /* \"#utility.yul\":3063:3084   */\n      tag_74\n      jump\t// in\n    tag_134:\n        /* \"#utility.yul\":3056:3061   */\n      dup2\n        /* \"#utility.yul\":3053:3085   */\n      eq\n        /* \"#utility.yul\":3043:3103   */\n      tag_135\n      jumpi\n        /* \"#utility.yul\":3099:3100   */\n      0x00\n        /* \"#utility.yul\":3096:3097   */\n      dup1\n        /* \"#utility.yul\":3089:3101   */\n      revert\n        /* \"#utility.yul\":3043:3103   */\n    tag_135:\n        /* \"#utility.yul\":2993:3109   */\n      pop\n      jump\t// out\n        /* \"#utility.yul\":3115:3248   */\n    tag_81:\n        /* \"#utility.yul\":3158:3163   */\n      0x00\n        /* \"#utility.yul\":3196:3202   */\n      dup2\n        /* \"#utility.yul\":3183:3203   */\n      calldataload\n        /* \"#utility.yul\":3174:3203   */\n      swap1\n      pop\n        /* \"#utility.yul\":3212:3242   */\n      tag_137\n        /* \"#utility.yul\":3236:3241   */\n      dup2\n        /* \"#utility.yul\":3212:3242   */\n      tag_80\n      jump\t// in\n    tag_137:\n        /* \"#utility.yul\":3115:3248   */\n      swap3\n      swap2\n      pop\n      pop\n      jump\t// out\n        /* \"#utility.yul\":3254:4157   */\n    tag_22:\n        /* \"#utility.yul\":3345:3351   */\n      0x00\n        /* \"#utility.yul\":3353:3359   */\n      dup1\n        /* \"#utility.yul\":3361:3367   */\n      0x00\n        /* \"#utility.yul\":3369:3375   */\n      dup1\n        /* \"#utility.yul\":3377:3383   */\n      0x00\n        /* \"#utility.yul\":3426:3429   */\n      0xa0\n        /* \"#utility.yul\":3414:3423   */\n      dup7\n        /* \"#utility.yul\":3405:3412   */\n      dup9\n        /* \"#utility.yul\":3401:3424   */\n      sub\n        /* \"#utility.yul\":3397:3430   */\n      slt\n        /* \"#utility.yul\":3394:3514   */\n      iszero\n      tag_139\n      jumpi\n        /* \"#utility.yul\":3433:3512   */\n      tag_140\n      tag_64\n      jump\t// in\n    tag_140:\n        /* \"#utility.yul\":3394:3514   */\n    tag_139:\n        /* \"#utility.yul\":3553:3554   */\n      0x00\n        /* \"#utility.yul\":3578:3631   */\n      tag_141\n        /* \"#utility.yul\":3623:3630   */\n      dup9\n        /* \"#utility.yul\":3614:3620   */\n      dup3\n        /* \"#utility.yul\":3603:3612   */\n      dup10\n        /* \"#utility.yul\":3599:3621   */\n      add\n        /* \"#utility.yul\":3578:3631   */\n      tag_69\n      jump\t// in\n    tag_141:\n        /* \"#utility.yul\":3568:3631   */\n      swap6\n      pop\n        /* \"#utility.yul\":3524:3641   */\n      pop\n        /* \"#utility.yul\":3680:3682   */\n      0x20\n        /* \"#utility.yul\":3706:3759   */\n      tag_142\n        /* \"#utility.yul\":3751:3758   */\n      dup9\n        /* \"#utility.yul\":3742:3748   */\n      dup3\n        /* \"#utility.yul\":3731:3740   */\n      dup10\n        /* \"#utility.yul\":3727:3749   */\n      add\n        /* \"#utility.yul\":3706:3759   */\n      tag_77\n      jump\t// in\n    tag_142:\n        /* \"#utility.yul\":3696:3759   */\n      swap5\n      pop\n        /* \"#utility.yul\":3651:3769   */\n      pop\n        /* \"#utility.yul\":3808:3810   */\n      0x40\n        /* \"#utility.yul\":3834:3886   */\n      tag_143\n        /* \"#utility.yul\":3878:3885   */\n      dup9\n        /* \"#utility.yul\":3869:3875   */\n      dup3\n        /* \"#utility.yul\":3858:3867   */\n      dup10\n        /* \"#utility.yul\":3854:3876   */\n      add\n        /* \"#utility.yul\":3834:3886   */\n      tag_79\n      jump\t// in\n    tag_143:\n        /* \"#utility.yul\":3824:3886   */\n      swap4\n      pop\n        /* \"#utility.yul\":3779:3896   */\n      pop\n        /* \"#utility.yul\":3935:3937   */\n      0x60\n        /* \"#utility.yul\":3961:4011   */\n      tag_144\n        /* \"#utility.yul\":4003:4010   */\n      dup9\n        /* \"#utility.yul\":3994:4000   */\n      dup3\n        /* \"#utility.yul\":3983:3992   */\n      dup10\n        /* \"#utility.yul\":3979:4001   */\n      add\n        /* \"#utility.yul\":3961:4011   */\n      tag_81\n      jump\t// in\n    tag_144:\n        /* \"#utility.yul\":3951:4011   */\n      swap3\n      pop\n        /* \"#utility.yul\":3906:4021   */\n      pop\n        /* \"#utility.yul\":4060:4063   */\n      0x80\n        /* \"#utility.yul\":4087:4140   */\n      tag_145\n        /* \"#utility.yul\":4132:4139   */\n      dup9\n        /* \"#utility.yul\":4123:4129   */\n      dup3\n        /* \"#utility.yul\":4112:4121   */\n      dup10\n        /* \"#utility.yul\":4108:4130   */\n      add\n        /* \"#utility.yul\":4087:4140   */\n      tag_77\n      jump\t// in\n    tag_145:\n        /* \"#utility.yul\":4077:4140   */\n      swap2\n      pop\n        /* \"#utility.yul\":4031:4150   */\n      pop\n        /* \"#utility.yul\":3254:4157   */\n      swap3\n      swap6\n      pop\n      swap3\n      swap6\n      swap1\n      swap4\n      pop\n      jump\t// out\n        /* \"#utility.yul\":4163:4281   */\n    tag_82:\n        /* \"#utility.yul\":4250:4274   */\n      tag_147\n        /* \"#utility.yul\":4268:4273   */\n      dup2\n        /* \"#utility.yul\":4250:4274   */\n      tag_67\n      jump\t// in\n    tag_147:\n        /* \"#utility.yul\":4245:4248   */\n      dup3\n        /* \"#utility.yul\":4238:4275   */\n      mstore\n        /* \"#utility.yul\":4163:4281   */\n      pop\n      pop\n      jump\t// out\n        /* \"#utility.yul\":4287:4509   */\n    tag_30:\n        /* \"#utility.yul\":4380:4384   */\n      0x00\n        /* \"#utility.yul\":4418:4420   */\n      0x20\n        /* \"#utility.yul\":4407:4416   */\n      dup3\n        /* \"#utility.yul\":4403:4421   */\n      add\n        /* \"#utility.yul\":4395:4421   */\n      swap1\n      pop\n        /* \"#utility.yul\":4431:4502   */\n      tag_149\n        /* \"#utility.yul\":4499:4500   */\n      0x00\n        /* \"#utility.yul\":4488:4497   */\n      dup4\n        /* \"#utility.yul\":4484:4501   */\n      add\n        /* \"#utility.yul\":4475:4481   */\n      dup5\n        /* \"#utility.yul\":4431:4502   */\n      tag_82\n      jump\t// in\n    tag_149:\n        /* \"#utility.yul\":4287:4509   */\n      swap3\n      swap2\n      pop\n      pop\n      jump\t// out\n        /* \"#utility.yul\":4515:4725   */\n    tag_35:\n        /* \"#utility.yul\":4602:4606   */\n      0x00\n        /* \"#utility.yul\":4640:4642   */\n      0x20\n        /* \"#utility.yul\":4629:4638   */\n      dup3\n        /* \"#utility.yul\":4625:4643   */\n      add\n        /* \"#utility.yul\":4617:4643   */\n      swap1\n      pop\n        /* \"#utility.yul\":4653:4718   */\n      tag_151\n        /* \"#utility.yul\":4715:4716   */\n      0x00\n        /* \"#utility.yul\":4704:4713   */\n      dup4\n        /* \"#utility.yul\":4700:4717   */\n      add\n        /* \"#utility.yul\":4691:4697   */\n      dup5\n        /* \"#utility.yul\":4653:4718   */\n      tag_75\n      jump\t// in\n    tag_151:\n        /* \"#utility.yul\":4515:4725   */\n      swap3\n      swap2\n      pop\n      pop\n      jump\t// out\n        /* \"#utility.yul\":4731:4900   */\n    tag_83:\n        /* \"#utility.yul\":4815:4826   */\n      0x00\n        /* \"#utility.yul\":4849:4855   */\n      dup3\n        /* \"#utility.yul\":4844:4847   */\n      dup3\n        /* \"#utility.yul\":4837:4856   */\n      mstore\n        /* \"#utility.yul\":4889:4893   */\n      0x20\n        /* \"#utility.yul\":4884:4887   */\n      dup3\n        /* \"#utility.yul\":4880:4894   */\n      add\n        /* \"#utility.yul\":4865:4894   */\n      swap1\n      pop\n        /* \"#utility.yul\":4731:4900   */\n      swap3\n      swap2\n      pop\n      pop\n      jump\t// out\n        /* \"#utility.yul\":4906:5065   */\n    tag_84:\n        /* \"#utility.yul\":5046:5057   */\n      0x4e6f74206f776e65720000000000000000000000000000000000000000000000\n        /* \"#utility.yul\":5042:5043   */\n      0x00\n        /* \"#utility.yul\":5034:5040   */\n      dup3\n        /* \"#utility.yul\":5030:5044   */\n      add\n        /* \"#utility.yul\":5023:5058   */\n      mstore\n        /* \"#utility.yul\":4906:5065   */\n      pop\n      jump\t// out\n        /* \"#utility.yul\":5071:5436   */\n    tag_85:\n        /* \"#utility.yul\":5213:5216   */\n      0x00\n        /* \"#utility.yul\":5234:5300   */\n      tag_155\n        /* \"#utility.yul\":5298:5299   */\n      0x09\n        /* \"#utility.yul\":5293:5296   */\n      dup4\n        /* \"#utility.yul\":5234:5300   */\n      tag_83\n      jump\t// in\n    tag_155:\n        /* \"#utility.yul\":5227:5300   */\n      swap2\n      pop\n        /* \"#utility.yul\":5309:5402   */\n      tag_156\n        /* \"#utility.yul\":5398:5401   */\n      dup3\n        /* \"#utility.yul\":5309:5402   */\n      tag_84\n      jump\t// in\n    tag_156:\n        /* \"#utility.yul\":5427:5429   */\n      0x20\n        /* \"#utility.yul\":5422:5425   */\n      dup3\n        /* \"#utility.yul\":5418:5430   */\n      add\n        /* \"#utility.yul\":5411:5430   */\n      swap1\n      pop\n        /* \"#utility.yul\":5071:5436   */\n      swap2\n      swap1\n      pop\n      jump\t// out\n        /* \"#utility.yul\":5442:5861   */\n    tag_43:\n        /* \"#utility.yul\":5608:5612   */\n      0x00\n        /* \"#utility.yul\":5646:5648   */\n      0x20\n        /* \"#utility.yul\":5635:5644   */\n      dup3\n        /* \"#utility.yul\":5631:5649   */\n      add\n        /* \"#utility.yul\":5623:5649   */\n      swap1\n      pop\n        /* \"#utility.yul\":5695:5704   */\n      dup2\n        /* \"#utility.yul\":5689:5693   */\n      dup2\n        /* \"#utility.yul\":5685:5705   */\n      sub\n        /* \"#utility.yul\":5681:5682   */\n      0x00\n        /* \"#utility.yul\":5670:5679   */\n      dup4\n        /* \"#utility.yul\":5666:5683   */\n      add\n        /* \"#utility.yul\":5659:5706   */\n      mstore\n        /* \"#utility.yul\":5723:5854   */\n      tag_158\n        /* \"#utility.yul\":5849:5853   */\n      dup2\n        /* \"#utility.yul\":5723:5854   */\n      tag_85\n      jump\t// in\n    tag_158:\n        /* \"#utility.yul\":5715:5854   */\n      swap1\n      pop\n        /* \"#utility.yul\":5442:5861   */\n      swap2\n      swap1\n      pop\n      jump\t// out\n        /* \"#utility.yul\":5867:6031   */\n    tag_86:\n        /* \"#utility.yul\":6007:6023   */\n      0x4e6f7420617574686f72697a6564000000000000000000000000000000000000\n        /* \"#utility.yul\":6003:6004   */\n      0x00\n        /* \"#utility.yul\":5995:6001   */\n      dup3\n        /* \"#utility.yul\":5991:6005   */\n      add\n        /* \"#utility.yul\":5984:6024   */\n      mstore\n        /* \"#utility.yul\":5867:6031   */\n      pop\n      jump\t// out\n        /* \"#utility.yul\":6037:6403   */\n    tag_87:\n        /* \"#utility.yul\":6179:6182   */\n      0x00\n        /* \"#utility.yul\":6200:6267   */\n      tag_161\n        /* \"#utility.yul\":6264:6266   */\n      0x0e\n        /* \"#utility.yul\":6259:6262   */\n      dup4\n        /* \"#utility.yul\":6200:6267   */\n      tag_83\n      jump\t// in\n    tag_161:\n        /* \"#utility.yul\":6193:6267   */\n      swap2\n      pop\n        /* \"#utility.yul\":6276:6369   */\n      tag_162\n        /* \"#utility.yul\":6365:6368   */\n      dup3\n        /* \"#utility.yul\":6276:6369   */\n      tag_86\n      jump\t// in\n    tag_162:\n        /* \"#utility.yul\":6394:6396   */\n      0x20\n        /* \"#utility.yul\":6389:6392   */\n      dup3\n        /* \"#utility.yul\":6385:6397   */\n      add\n        /* \"#utility.yul\":6378:6397   */\n      swap1\n      pop\n        /* \"#utility.yul\":6037:6403   */\n      swap2\n      swap1\n      pop\n      jump\t// out\n        /* \"#utility.yul\":6409:6828   */\n    tag_48:\n        /* \"#utility.yul\":6575:6579   */\n      0x00\n        /* \"#utility.yul\":6613:6615   */\n      0x20\n        /* \"#utility.yul\":6602:6611   */\n      dup3\n        /* \"#utility.yul\":6598:6616   */\n      add\n        /* \"#utility.yul\":6590:6616   */\n      swap1\n      pop\n        /* \"#utility.yul\":6662:6671   */\n      dup2\n        /* \"#utility.yul\":6656:6660   */\n      dup2\n        /* \"#utility.yul\":6652:6672   */\n      sub\n        /* \"#utility.yul\":6648:6649   */\n      0x00\n        /* \"#utility.yul\":6637:6646   */\n      dup4\n        /* \"#utility.yul\":6633:6650   */\n      add\n        /* \"#utility.yul\":6626:6673   */\n      mstore\n        /* \"#utility.yul\":6690:6821   */\n      tag_164\n        /* \"#utility.yul\":6816:6820   */\n      dup2\n        /* \"#utility.yul\":6690:6821   */\n      tag_87\n      jump\t// in\n    tag_164:\n        /* \"#utility.yul\":6682:6821   */\n      swap1\n      pop\n        /* \"#utility.yul\":6409:6828   */\n      swap2\n      swap1\n      pop\n      jump\t// out\n        /* \"#utility.yul\":6834:7002   */\n    tag_88:\n        /* \"#utility.yul\":6974:6994   */\n      0x496e76616c696420636f6e666964656e63650000000000000000000000000000\n        /* \"#utility.yul\":6970:6971   */\n      0x00\n        /* \"#utility.yul\":6962:6968   */\n      dup3\n        /* \"#utility.yul\":6958:6972   */\n      add\n        /* \"#utility.yul\":6951:6995   */\n      mstore\n        /* \"#utility.yul\":6834:7002   */\n      pop\n      jump\t// out\n        /* \"#utility.yul\":7008:7374   */\n    tag_89:\n        /* \"#utility.yul\":7150:7153   */\n      0x00\n        /* \"#utility.yul\":7171:7238   */\n      tag_167\n        /* \"#utility.yul\":7235:7237   */\n      0x12\n        /* \"#utility.yul\":7230:7233   */\n      dup4\n        /* \"#utility.yul\":7171:7238   */\n      tag_83\n      jump\t// in\n    tag_167:\n        /* \"#utility.yul\":7164:7238   */\n      swap2\n      pop\n        /* \"#utility.yul\":7247:7340   */\n      tag_168\n        /* \"#utility.yul\":7336:7339   */\n      dup3\n        /* \"#utility.yul\":7247:7340   */\n      tag_88\n      jump\t// in\n    tag_168:\n        /* \"#utility.yul\":7365:7367   */\n      0x20\n        /* \"#utility.yul\":7360:7363   */\n      dup3\n        /* \"#utility.yul\":7356:7368   */\n      add\n        /* \"#utility.yul\":7349:7368   */\n      swap1\n      pop\n        /* \"#utility.yul\":7008:7374   */\n      swap2\n      swap1\n      pop\n      jump\t// out\n        /* \"#utility.yul\":7380:7799   */\n    tag_52:\n        /* \"#utility.yul\":7546:7550   */\n      0x00\n        /* \"#utility.yul\":7584:7586   */\n      0x20\n        /* \"#utility.yul\":7573:7582   */\n      dup3\n        /* \"#utility.yul\":7569:7587   */\n      add\n        /* \"#utility.yul\":7561:7587   */\n      swap1\n      pop\n        /* \"#utility.yul\":7633:7642   */\n      dup2\n        /* \"#utility.yul\":7627:7631   */\n      dup2\n        /* \"#utility.yul\":7623:7643   */\n      sub\n        /* \"#utility.yul\":7619:7620   */\n      0x00\n        /* \"#utility.yul\":7608:7617   */\n      dup4\n        /* \"#utility.yul\":7604:7621   */\n      add\n        /* \"#utility.yul\":7597:7644   */\n      mstore\n        /* \"#utility.yul\":7661:7792   */\n      tag_170\n        /* \"#utility.yul\":7787:7791   */\n      dup2\n        /* \"#utility.yul\":7661:7792   */\n      tag_89\n      jump\t// in\n    tag_170:\n        /* \"#utility.yul\":7653:7792   */\n      swap1\n      pop\n        /* \"#utility.yul\":7380:7799   */\n      swap2\n      swap1\n      pop\n      jump\t// out\n        /* \"#utility.yul\":7805:7973   */\n    tag_90:\n        /* \"#utility.yul\":7945:7965   */\n      0x496e76616c6964207269736b2073636f72650000000000000000000000000000\n        /* \"#utility.yul\":7941:7942   */\n      0x00\n        /* \"#utility.yul\":7933:7939   */\n      dup3\n        /* \"#utility.yul\":7929:7943   */\n      add\n        /* \"#utility.yul\":7922:7966   */\n      mstore\n        /* \"#utility.yul\":7805:7973   */\n      pop\n      jump\t// out\n        /* \"#utility.yul\":7979:8345   */\n    tag_91:\n        /* \"#utility.yul\":8121:8124   */\n      0x00\n        /* \"#utility.yul\":8142:8209   */\n      tag_173\n        /* \"#utility.yul\":8206:8208   */\n      0x12\n        /* \"#utility.yul\":8201:8204   */\n      dup4\n        /* \"#utility.yul\":8142:8209   */\n      tag_83\n      jump\t// in\n    tag_173:\n        /* \"#utility.yul\":8135:8209   */\n      swap2\n      pop\n        /* \"#utility.yul\":8218:8311   */\n      tag_174\n        /* \"#utility.yul\":8307:8310   */\n      dup3\n        /* \"#utility.yul\":8218:8311   */\n      tag_90\n      jump\t// in\n    tag_174:\n        /* \"#utility.yul\":8336:8338   */\n      0x20\n        /* \"#utility.yul\":8331:8334   */\n      dup3\n        /* \"#utility.yul\":8327:8339   */\n      add\n        /* \"#utility.yul\":8320:8339   */\n      swap1\n      pop\n        /* \"#utility.yul\":7979:8345   */\n      swap2\n      swap1\n      pop\n      jump\t// out\n        /* \"#utility.yul\":8351:8770   */\n    tag_55:\n        /* \"#utility.yul\":8517:8521   */\n      0x00\n        /* \"#utility.yul\":8555:8557   */\n      0x20\n        /* \"#utility.yul\":8544:8553   */\n      dup3\n        /* \"#utility.yul\":8540:8558   */\n      add\n        /* \"#utility.yul\":8532:8558   */\n      swap1\n      pop\n        /* \"#utility.yul\":8604:8613   */\n      dup2\n        /* \"#utility.yul\":8598:8602   */\n      dup2\n        /* \"#utility.yul\":8594:8614   */\n      sub\n        /* \"#utility.yul\":8590:8591   */\n      0x00\n        /* \"#utility.yul\":8579:8588   */\n      dup4\n        /* \"#utility.yul\":8575:8592   */\n      add\n        /* \"#utility.yul\":8568:8615   */\n      mstore\n        /* \"#utility.yul\":8632:8763   */\n      tag_176\n        /* \"#utility.yul\":8758:8762   */\n      dup2\n        /* \"#utility.yul\":8632:8763   */\n      tag_91\n      jump\t// in\n    tag_176:\n        /* \"#utility.yul\":8624:8763   */\n      swap1\n      pop\n        /* \"#utility.yul\":8351:8770   */\n      swap2\n      swap1\n      pop\n      jump\t// out\n        /* \"#utility.yul\":8776:9313   */\n    tag_57:\n        /* \"#utility.yul\":8945:8949   */\n      0x00\n        /* \"#utility.yul\":8983:8986   */\n      0x80\n        /* \"#utility.yul\":8972:8981   */\n      dup3\n        /* \"#utility.yul\":8968:8987   */\n      add\n        /* \"#utility.yul\":8960:8987   */\n      swap1\n      pop\n        /* \"#utility.yul\":8997:9068   */\n      tag_178\n        /* \"#utility.yul\":9065:9066   */\n      0x00\n        /* \"#utility.yul\":9054:9063   */\n      dup4\n        /* \"#utility.yul\":9050:9067   */\n      add\n        /* \"#utility.yul\":9041:9047   */\n      dup8\n        /* \"#utility.yul\":8997:9068   */\n      tag_71\n      jump\t// in\n    tag_178:\n        /* \"#utility.yul\":9078:9148   */\n      tag_179\n        /* \"#utility.yul\":9144:9146   */\n      0x20\n        /* \"#utility.yul\":9133:9142   */\n      dup4\n        /* \"#utility.yul\":9129:9147   */\n      add\n        /* \"#utility.yul\":9120:9126   */\n      dup7\n        /* \"#utility.yul\":9078:9148   */\n      tag_73\n      jump\t// in\n    tag_179:\n        /* \"#utility.yul\":9158:9224   */\n      tag_180\n        /* \"#utility.yul\":9220:9222   */\n      0x40\n        /* \"#utility.yul\":9209:9218   */\n      dup4\n        /* \"#utility.yul\":9205:9223   */\n      add\n        /* \"#utility.yul\":9196:9202   */\n      dup6\n        /* \"#utility.yul\":9158:9224   */\n      tag_75\n      jump\t// in\n    tag_180:\n        /* \"#utility.yul\":9234:9306   */\n      tag_181\n        /* \"#utility.yul\":9302:9304   */\n      0x60\n        /* \"#utility.yul\":9291:9300   */\n      dup4\n        /* \"#utility.yul\":9287:9305   */\n      add\n        /* \"#utility.yul\":9278:9284   */\n      dup5\n        /* \"#utility.yul\":9234:9306   */\n      tag_71\n      jump\t// in\n    tag_181:\n        /* \"#utility.yul\":8776:9313   */\n      swap6\n      swap5\n      pop\n      pop\n      pop\n      pop\n      pop\n      jump\t// out\n\n    auxdata: 0xa26469706673582212201b5aef747c0d164eecee34299eab1a86e60953eff59f5534ed410e47a6d715ba64736f6c634300081a0033\n}\n",
				"bytecode": {
					"linkReferences": {},
					"object": "6080604052348015600e575f80fd5b503360025f6101000a81548173ffffffffffffffffffffffffffffffffffffffff021916908373ffffffffffffffffffffffffffffffffffffffff1602179055506001805f3373ffffffffffffffffffffffffffffffffffffffff1673ffffffffffffffffffffffffffffffffffffffff1681526020019081526020015f205f6101000a81548160ff021916908315150217905550610b2c806100b05f395ff3fe608060405234801561000f575f80fd5b506004361061007b575f3560e01c806343d24a5e1161005957806343d24a5e146100eb5780638da5cb5b146101075780638ff29cfe14610125578063eacaced7146101555761007b565b806304b07a5e1461007f5780632daa1bdf1461009b5780632f6cacf5146100cf575b5f80fd5b61009960048036038101906100949190610707565b610189565b005b6100b560048036038101906100b09190610707565b61026f565b6040516100c695949392919061077c565b60405180910390f35b6100e960048036038101906100e4919061084b565b6102ac565b005b61010560048036038101906101009190610707565b6104c5565b005b61010f6105ab565b60405161011c91906108d1565b60405180910390f35b61013f600480360381019061013a9190610707565b6105d0565b60405161014c91906108ea565b60405180910390f35b61016f600480360381019061016a9190610707565b6105ed565b60405161018095949392919061077c565b60405180910390f35b60025f9054906101000a900473ffffffffffffffffffffffffffffffffffffffff1673ffffffffffffffffffffffffffffffffffffffff163373ffffffffffffffffffffffffffffffffffffffff1614610218576040517f08c379a000000000000000000000000000000000000000000000000000000000815260040161020f9061095d565b60405180910390fd5b5f60015f8373ffffffffffffffffffffffffffffffffffffffff1673ffffffffffffffffffffffffffffffffffffffff1681526020019081526020015f205f6101000a81548160ff02191690831515021790555050565b5f602052805f5260405f205f91509050805f015490806001015490806002015490806003015f9054906101000a900460ff16908060040154905085565b60015f3373ffffffffffffffffffffffffffffffffffffffff1673ffffffffffffffffffffffffffffffffffffffff1681526020019081526020015f205f9054906101000a900460ff16610335576040517f08c379a000000000000000000000000000000000000000000000000000000000815260040161032c906109c5565b60405180910390fd5b6064841115610379576040517f08c379a000000000000000000000000000000000000000000000000000000000815260040161037090610a2d565b60405180910390fd5b60648111156103bd576040517f08c379a00000000000000000000000000000000000000000000000000000000081526004016103b490610a95565b60405180910390fd5b6040518060a001604052808581526020018481526020014281526020018315158152602001828152505f808773ffffffffffffffffffffffffffffffffffffffff1673ffffffffffffffffffffffffffffffffffffffff1681526020019081526020015f205f820151815f015560208201518160010155604082015181600201556060820151816003015f6101000a81548160ff021916908315150217905550608082015181600401559050508473ffffffffffffffffffffffffffffffffffffffff167ff299f72b44aa6a6589bb03305d192b00977863348e19e01f283b483180048e2f858585856040516104b69493929190610ab3565b60405180910390a25050505050565b60025f9054906101000a900473ffffffffffffffffffffffffffffffffffffffff1673ffffffffffffffffffffffffffffffffffffffff163373ffffffffffffffffffffffffffffffffffffffff1614610554576040517f08c379a000000000000000000000000000000000000000000000000000000000815260040161054b9061095d565b60405180910390fd5b6001805f8373ffffffffffffffffffffffffffffffffffffffff1673ffffffffffffffffffffffffffffffffffffffff1681526020019081526020015f205f6101000a81548160ff02191690831515021790555050565b60025f9054906101000a900473ffffffffffffffffffffffffffffffffffffffff1681565b6001602052805f5260405f205f915054906101000a900460ff1681565b5f805f805f805f808873ffffffffffffffffffffffffffffffffffffffff1673ffffffffffffffffffffffffffffffffffffffff1681526020019081526020015f206040518060a00160405290815f82015481526020016001820154815260200160028201548152602001600382015f9054906101000a900460ff161515151581526020016004820154815250509050805f01518160200151826040015183606001518460800151955095509550955095505091939590929450565b5f80fd5b5f73ffffffffffffffffffffffffffffffffffffffff82169050919050565b5f6106d6826106ad565b9050919050565b6106e6816106cc565b81146106f0575f80fd5b50565b5f81359050610701816106dd565b92915050565b5f6020828403121561071c5761071b6106a9565b5b5f610729848285016106f3565b91505092915050565b5f819050919050565b61074481610732565b82525050565b5f819050919050565b61075c8161074a565b82525050565b5f8115159050919050565b61077681610762565b82525050565b5f60a08201905061078f5f83018861073b565b61079c6020830187610753565b6107a9604083018661073b565b6107b6606083018561076d565b6107c3608083018461073b565b9695505050505050565b6107d681610732565b81146107e0575f80fd5b50565b5f813590506107f1816107cd565b92915050565b6108008161074a565b811461080a575f80fd5b50565b5f8135905061081b816107f7565b92915050565b61082a81610762565b8114610834575f80fd5b50565b5f8135905061084581610821565b92915050565b5f805f805f60a08688031215610864576108636106a9565b5b5f610871888289016106f3565b9550506020610882888289016107e3565b94505060406108938882890161080d565b93505060606108a488828901610837565b92505060806108b5888289016107e3565b9150509295509295909350565b6108cb816106cc565b82525050565b5f6020820190506108e45f8301846108c2565b92915050565b5f6020820190506108fd5f83018461076d565b92915050565b5f82825260208201905092915050565b7f4e6f74206f776e657200000000000000000000000000000000000000000000005f82015250565b5f610947600983610903565b915061095282610913565b602082019050919050565b5f6020820190508181035f8301526109748161093b565b9050919050565b7f4e6f7420617574686f72697a65640000000000000000000000000000000000005f82015250565b5f6109af600e83610903565b91506109ba8261097b565b602082019050919050565b5f6020820190508181035f8301526109dc816109a3565b9050919050565b7f496e76616c696420636f6e666964656e636500000000000000000000000000005f82015250565b5f610a17601283610903565b9150610a22826109e3565b602082019050919050565b5f6020820190508181035f830152610a4481610a0b565b9050919050565b7f496e76616c6964207269736b2073636f726500000000000000000000000000005f82015250565b5f610a7f601283610903565b9150610a8a82610a4b565b602082019050919050565b5f6020820190508181035f830152610aac81610a73565b9050919050565b5f608082019050610ac65f83018761073b565b610ad36020830186610753565b610ae0604083018561076d565b610aed606083018461073b565b9594505050505056fea26469706673582212201b5aef747c0d164eecee34299eab1a86e60953eff59f5534ed410e47a6d715ba64736f6c634300081a0033",
					"opcodes": "PUSH1 0x80 PUSH1 0x40 MSTORE CALLVALUE DUP1 ISZERO PUSH1 0xE JUMPI PUSH0 DUP1 REVERT JUMPDEST POP CALLER PUSH1 0x2 PUSH0 PUSH2 0x100 EXP DUP2 SLOAD DUP2 PUSH20 0xFFFFFFFFFFFFFFFFFFFFFFFFFFFFFFFFFFFFFFFF MUL NOT AND SWAP1 DUP4 PUSH20 0xFFFFFFFFFFFFFFFFFFFFFFFFFFFFFFFFFFFFFFFF AND MUL OR SWAP1 SSTORE POP PUSH1 0x1 DUP1 PUSH0 CALLER PUSH20 0xFFFFFFFFFFFFFFFFFFFFFFFFFFFFFFFFFFFFFFFF AND PUSH20 0xFFFFFFFFFFFFFFFFFFFFFFFFFFFFFFFFFFFFFFFF AND DUP2 MSTORE PUSH1 0x20 ADD SWAP1 DUP2 MSTORE PUSH1 0x20 ADD PUSH0 KECCAK256 PUSH0 PUSH2 0x100 EXP DUP2 SLOAD DUP2 PUSH1 0xFF MUL NOT AND SWAP1 DUP4 ISZERO ISZERO MUL OR SWAP1 SSTORE POP PUSH2 0xB2C DUP1 PUSH2 0xB0 PUSH0 CODECOPY PUSH0 RETURN INVALID PUSH1 0x80 PUSH1 0x40 MSTORE CALLVALUE DUP1 ISZERO PUSH2 0xF JUMPI PUSH0 DUP1 REVERT JUMPDEST POP PUSH1 0x4 CALLDATASIZE LT PUSH2 0x7B JUMPI PUSH0 CALLDATALOAD PUSH1 0xE0 SHR DUP1 PUSH4 0x43D24A5E GT PUSH2 0x59 JUMPI DUP1 PUSH4 0x43D24A5E EQ PUSH2 0xEB JUMPI DUP1 PUSH4 0x8DA5CB5B EQ PUSH2 0x107 JUMPI DUP1 PUSH4 0x8FF29CFE EQ PUSH2 0x125 JUMPI DUP1 PUSH4 0xEACACED7 EQ PUSH2 0x155 JUMPI PUSH2 0x7B JUMP JUMPDEST DUP1 PUSH4 0x4B07A5E EQ PUSH2 0x7F JUMPI DUP1 PUSH4 0x2DAA1BDF EQ PUSH2 0x9B JUMPI DUP1 PUSH4 0x2F6CACF5 EQ PUSH2 0xCF JUMPI JUMPDEST PUSH0 DUP1 REVERT JUMPDEST PUSH2 0x99 PUSH1 0x4 DUP1 CALLDATASIZE SUB DUP2 ADD SWAP1 PUSH2 0x94 SWAP2 SWAP1 PUSH2 0x707 JUMP JUMPDEST PUSH2 0x189 JUMP JUMPDEST STOP JUMPDEST PUSH2 0xB5 PUSH1 0x4 DUP1 CALLDATASIZE SUB DUP2 ADD SWAP1 PUSH2 0xB0 SWAP2 SWAP1 PUSH2 0x707 JUMP JUMPDEST PUSH2 0x26F JUMP JUMPDEST PUSH1 0x40 MLOAD PUSH2 0xC6 SWAP6 SWAP5 SWAP4 SWAP3 SWAP2 SWAP1 PUSH2 0x77C JUMP JUMPDEST PUSH1 0x40 MLOAD DUP1 SWAP2 SUB SWAP1 RETURN JUMPDEST PUSH2 0xE9 PUSH1 0x4 DUP1 CALLDATASIZE SUB DUP2 ADD SWAP1 PUSH2 0xE4 SWAP2 SWAP1 PUSH2 0x84B JUMP JUMPDEST PUSH2 0x2AC JUMP JUMPDEST STOP JUMPDEST PUSH2 0x105 PUSH1 0x4 DUP1 CALLDATASIZE SUB DUP2 ADD SWAP1 PUSH2 0x100 SWAP2 SWAP1 PUSH2 0x707 JUMP JUMPDEST PUSH2 0x4C5 JUMP JUMPDEST STOP JUMPDEST PUSH2 0x10F PUSH2 0x5AB JUMP JUMPDEST PUSH1 0x40 MLOAD PUSH2 0x11C SWAP2 SWAP1 PUSH2 0x8D1 JUMP JUMPDEST PUSH1 0x40 MLOAD DUP1 SWAP2 SUB SWAP1 RETURN JUMPDEST PUSH2 0x13F PUSH1 0x4 DUP1 CALLDATASIZE SUB DUP2 ADD SWAP1 PUSH2 0x13A SWAP2 SWAP1 PUSH2 0x707 JUMP JUMPDEST PUSH2 0x5D0 JUMP JUMPDEST PUSH1 0x40 MLOAD PUSH2 0x14C SWAP2 SWAP1 PUSH2 0x8EA JUMP JUMPDEST PUSH1 0x40 MLOAD DUP1 SWAP2 SUB SWAP1 RETURN JUMPDEST PUSH2 0x16F PUSH1 0x4 DUP1 CALLDATASIZE SUB DUP2 ADD SWAP1 PUSH2 0x16A SWAP2 SWAP1 PUSH2 0x707 JUMP JUMPDEST PUSH2 0x5ED JUMP JUMPDEST PUSH1 0x40 MLOAD PUSH2 0x180 SWAP6 SWAP5 SWAP4 SWAP3 SWAP2 SWAP1 PUSH2 0x77C JUMP JUMPDEST PUSH1 0x40 MLOAD DUP1 SWAP2 SUB SWAP1 RETURN JUMPDEST PUSH1 0x2 PUSH0 SWAP1 SLOAD SWAP1 PUSH2 0x100 EXP SWAP1 DIV PUSH20 0xFFFFFFFFFFFFFFFFFFFFFFFFFFFFFFFFFFFFFFFF AND PUSH20 0xFFFFFFFFFFFFFFFFFFFFFFFFFFFFFFFFFFFFFFFF AND CALLER PUSH20 0xFFFFFFFFFFFFFFFFFFFFFFFFFFFFFFFFFFFFFFFF AND EQ PUSH2 0x218 JUMPI PUSH1 0x40 MLOAD PUSH32 0x8C379A000000000000000000000000000000000000000000000000000000000 DUP2 MSTORE PUSH1 0x4 ADD PUSH2 0x20F SWAP1 PUSH2 0x95D JUMP JUMPDEST PUSH1 0x40 MLOAD DUP1 SWAP2 SUB SWAP1 REVERT JUMPDEST PUSH0 PUSH1 0x1 PUSH0 DUP4 PUSH20 0xFFFFFFFFFFFFFFFFFFFFFFFFFFFFFFFFFFFFFFFF AND PUSH20 0xFFFFFFFFFFFFFFFFFFFFFFFFFFFFFFFFFFFFFFFF AND DUP2 MSTORE PUSH1 0x20 ADD SWAP1 DUP2 MSTORE PUSH1 0x20 ADD PUSH0 KECCAK256 PUSH0 PUSH2 0x100 EXP DUP2 SLOAD DUP2 PUSH1 0xFF MUL NOT AND SWAP1 DUP4 ISZERO ISZERO MUL OR SWAP1 SSTORE POP POP JUMP JUMPDEST PUSH0 PUSH1 0x20 MSTORE DUP1 PUSH0 MSTORE PUSH1 0x40 PUSH0 KECCAK256 PUSH0 SWAP2 POP SWAP1 POP DUP1 PUSH0 ADD SLOAD SWAP1 DUP1 PUSH1 0x1 ADD SLOAD SWAP1 DUP1 PUSH1 0x2 ADD SLOAD SWAP1 DUP1 PUSH1 0x3 ADD PUSH0 SWAP1 SLOAD SWAP1 PUSH2 0x100 EXP SWAP1 DIV PUSH1 0xFF AND SWAP1 DUP1 PUSH1 0x4 ADD SLOAD SWAP1 POP DUP6 JUMP JUMPDEST PUSH1 0x1 PUSH0 CALLER PUSH20 0xFFFFFFFFFFFFFFFFFFFFFFFFFFFFFFFFFFFFFFFF AND PUSH20 0xFFFFFFFFFFFFFFFFFFFFFFFFFFFFFFFFFFFFFFFF AND DUP2 MSTORE PUSH1 0x20 ADD SWAP1 DUP2 MSTORE PUSH1 0x20 ADD PUSH0 KECCAK256 PUSH0 SWAP1 SLOAD SWAP1 PUSH2 0x100 EXP SWAP1 DIV PUSH1 0xFF AND PUSH2 0x335 JUMPI PUSH1 0x40 MLOAD PUSH32 0x8C379A000000000000000000000000000000000000000000000000000000000 DUP2 MSTORE PUSH1 0x4 ADD PUSH2 0x32C SWAP1 PUSH2 0x9C5 JUMP JUMPDEST PUSH1 0x40 MLOAD DUP1 SWAP2 SUB SWAP1 REVERT JUMPDEST PUSH1 0x64 DUP5 GT ISZERO PUSH2 0x379 JUMPI PUSH1 0x40 MLOAD PUSH32 0x8C379A000000000000000000000000000000000000000000000000000000000 DUP2 MSTORE PUSH1 0x4 ADD PUSH2 0x370 SWAP1 PUSH2 0xA2D JUMP JUMPDEST PUSH1 0x40 MLOAD DUP1 SWAP2 SUB SWAP1 REVERT JUMPDEST PUSH1 0x64 DUP2 GT ISZERO PUSH2 0x3BD JUMPI PUSH1 0x40 MLOAD PUSH32 0x8C379A000000000000000000000000000000000000000000000000000000000 DUP2 MSTORE PUSH1 0x4 ADD PUSH2 0x3B4 SWAP1 PUSH2 0xA95 JUMP JUMPDEST PUSH1 0x40 MLOAD DUP1 SWAP2 SUB SWAP1 REVERT JUMPDEST PUSH1 0x40 MLOAD DUP1 PUSH1 0xA0 ADD PUSH1 0x40 MSTORE DUP1 DUP6 DUP2 MSTORE PUSH1 0x20 ADD DUP5 DUP2 MSTORE PUSH1 0x20 ADD TIMESTAMP DUP2 MSTORE PUSH1 0x20 ADD DUP4 ISZERO ISZERO DUP2 MSTORE PUSH1 0x20 ADD DUP3 DUP2 MSTORE POP PUSH0 DUP1 DUP8 PUSH20 0xFFFFFFFFFFFFFFFFFFFFFFFFFFFFFFFFFFFFFFFF AND PUSH20 0xFFFFFFFFFFFFFFFFFFFFFFFFFFFFFFFFFFFFFFFF AND DUP2 MSTORE PUSH1 0x20 ADD SWAP1 DUP2 MSTORE PUSH1 0x20 ADD PUSH0 KECCAK256 PUSH0 DUP3 ADD MLOAD DUP2 PUSH0 ADD SSTORE PUSH1 0x20 DUP3 ADD MLOAD DUP2 PUSH1 0x1 ADD SSTORE PUSH1 0x40 DUP3 ADD MLOAD DUP2 PUSH1 0x2 ADD SSTORE PUSH1 0x60 DUP3 ADD MLOAD DUP2 PUSH1 0x3 ADD PUSH0 PUSH2 0x100 EXP DUP2 SLOAD DUP2 PUSH1 0xFF MUL NOT AND SWAP1 DUP4 ISZERO ISZERO MUL OR SWAP1 SSTORE POP PUSH1 0x80 DUP3 ADD MLOAD DUP2 PUSH1 0x4 ADD SSTORE SWAP1 POP POP DUP5 PUSH20 0xFFFFFFFFFFFFFFFFFFFFFFFFFFFFFFFFFFFFFFFF AND PUSH32 0xF299F72B44AA6A6589BB03305D192B00977863348E19E01F283B483180048E2F DUP6 DUP6 DUP6 DUP6 PUSH1 0x40 MLOAD PUSH2 0x4B6 SWAP5 SWAP4 SWAP3 SWAP2 SWAP1 PUSH2 0xAB3 JUMP JUMPDEST PUSH1 0x40 MLOAD DUP1 SWAP2 SUB SWAP1 LOG2 POP POP POP POP POP JUMP JUMPDEST PUSH1 0x2 PUSH0 SWAP1 SLOAD SWAP1 PUSH2 0x100 EXP SWAP1 DIV PUSH20 0xFFFFFFFFFFFFFFFFFFFFFFFFFFFFFFFFFFFFFFFF AND PUSH20 0xFFFFFFFFFFFFFFFFFFFFFFFFFFFFFFFFFFFFFFFF AND CALLER PUSH20 0xFFFFFFFFFFFFFFFFFFFFFFFFFFFFFFFFFFFFFFFF AND EQ PUSH2 0x554 JUMPI PUSH1 0x40 MLOAD PUSH32 0x8C379A000000000000000000000000000000000000000000000000000000000 DUP2 MSTORE PUSH1 0x4 ADD PUSH2 0x54B SWAP1 PUSH2 0x95D JUMP JUMPDEST PUSH1 0x40 MLOAD DUP1 SWAP2 SUB SWAP1 REVERT JUMPDEST PUSH1 0x1 DUP1 PUSH0 DUP4 PUSH20 0xFFFFFFFFFFFFFFFFFFFFFFFFFFFFFFFFFFFFFFFF AND PUSH20 0xFFFFFFFFFFFFFFFFFFFFFFFFFFFFFFFFFFFFFFFF AND DUP2 MSTORE PUSH1 0x20 ADD SWAP1 DUP2 MSTORE PUSH1 0x20 ADD PUSH0 KECCAK256 PUSH0 PUSH2 0x100 EXP DUP2 SLOAD DUP2 PUSH1 0xFF MUL NOT AND SWAP1 DUP4 ISZERO ISZERO MUL OR SWAP1 SSTORE POP POP JUMP JUMPDEST PUSH1 0x2 PUSH0 SWAP1 SLOAD SWAP1 PUSH2 0x100 EXP SWAP1 DIV PUSH20 0xFFFFFFFFFFFFFFFFFFFFFFFFFFFFFFFFFFFFFFFF AND DUP2 JUMP JUMPDEST PUSH1 0x1 PUSH1 0x20 MSTORE DUP1 PUSH0 MSTORE PUSH1 0x40 PUSH0 KECCAK256 PUSH0 SWAP2 POP SLOAD SWAP1 PUSH2 0x100 EXP SWAP1 DIV PUSH1 0xFF AND DUP2 JUMP JUMPDEST PUSH0 DUP1 PUSH0 DUP1 PUSH0 DUP1 PUSH0 DUP1 DUP9 PUSH20 0xFFFFFFFFFFFFFFFFFFFFFFFFFFFFFFFFFFFFFFFF AND PUSH20 0xFFFFFFFFFFFFFFFFFFFFFFFFFFFFFFFFFFFFFFFF AND DUP2 MSTORE PUSH1 0x20 ADD SWAP1 DUP2 MSTORE PUSH1 0x20 ADD PUSH0 KECCAK256 PUSH1 0x40 MLOAD DUP1 PUSH1 0xA0 ADD PUSH1 0x40 MSTORE SWAP1 DUP2 PUSH0 DUP3 ADD SLOAD DUP2 MSTORE PUSH1 0x20 ADD PUSH1 0x1 DUP3 ADD SLOAD DUP2 MSTORE PUSH1 0x20 ADD PUSH1 0x2 DUP3 ADD SLOAD DUP2 MSTORE PUSH1 0x20 ADD PUSH1 0x3 DUP3 ADD PUSH0 SWAP1 SLOAD SWAP1 PUSH2 0x100 EXP SWAP1 DIV PUSH1 0xFF AND ISZERO ISZERO ISZERO ISZERO DUP2 MSTORE PUSH1 0x20 ADD PUSH1 0x4 DUP3 ADD SLOAD DUP2 MSTORE POP POP SWAP1 POP DUP1 PUSH0 ADD MLOAD DUP2 PUSH1 0x20 ADD MLOAD DUP3 PUSH1 0x40 ADD MLOAD DUP4 PUSH1 0x60 ADD MLOAD DUP5 PUSH1 0x80 ADD MLOAD SWAP6 POP SWAP6 POP SWAP6 POP SWAP6 POP SWAP6 POP POP SWAP2 SWAP4 SWAP6 SWAP1 SWAP3 SWAP5 POP JUMP JUMPDEST PUSH0 DUP1 REVERT JUMPDEST PUSH0 PUSH20 0xFFFFFFFFFFFFFFFFFFFFFFFFFFFFFFFFFFFFFFFF DUP3 AND SWAP1 POP SWAP2 SWAP1 POP JUMP JUMPDEST PUSH0 PUSH2 0x6D6 DUP3 PUSH2 0x6AD JUMP JUMPDEST SWAP1 POP SWAP2 SWAP1 POP JUMP JUMPDEST PUSH2 0x6E6 DUP2 PUSH2 0x6CC JUMP JUMPDEST DUP2 EQ PUSH2 0x6F0 JUMPI PUSH0 DUP1 REVERT JUMPDEST POP JUMP JUMPDEST PUSH0 DUP2 CALLDATALOAD SWAP1 POP PUSH2 0x701 DUP2 PUSH2 0x6DD JUMP JUMPDEST SWAP3 SWAP2 POP POP JUMP JUMPDEST PUSH0 PUSH1 0x20 DUP3 DUP5 SUB SLT ISZERO PUSH2 0x71C JUMPI PUSH2 0x71B PUSH2 0x6A9 JUMP JUMPDEST JUMPDEST PUSH0 PUSH2 0x729 DUP5 DUP3 DUP6 ADD PUSH2 0x6F3 JUMP JUMPDEST SWAP2 POP POP SWAP3 SWAP2 POP POP JUMP JUMPDEST PUSH0 DUP2 SWAP1 POP SWAP2 SWAP1 POP JUMP JUMPDEST PUSH2 0x744 DUP2 PUSH2 0x732 JUMP JUMPDEST DUP3 MSTORE POP POP JUMP JUMPDEST PUSH0 DUP2 SWAP1 POP SWAP2 SWAP1 POP JUMP JUMPDEST PUSH2 0x75C DUP2 PUSH2 0x74A JUMP JUMPDEST DUP3 MSTORE POP POP JUMP JUMPDEST PUSH0 DUP2 ISZERO ISZERO SWAP1 POP SWAP2 SWAP1 POP JUMP JUMPDEST PUSH2 0x776 DUP2 PUSH2 0x762 JUMP JUMPDEST DUP3 MSTORE POP POP JUMP JUMPDEST PUSH0 PUSH1 0xA0 DUP3 ADD SWAP1 POP PUSH2 0x78F PUSH0 DUP4 ADD DUP9 PUSH2 0x73B JUMP JUMPDEST PUSH2 0x79C PUSH1 0x20 DUP4 ADD DUP8 PUSH2 0x753 JUMP JUMPDEST PUSH2 0x7A9 PUSH1 0x40 DUP4 ADD DUP7 PUSH2 0x73B JUMP JUMPDEST PUSH2 0x7B6 PUSH1 0x60 DUP4 ADD DUP6 PUSH2 0x76D JUMP JUMPDEST PUSH2 0x7C3 PUSH1 0x80 DUP4 ADD DUP5 PUSH2 0x73B JUMP JUMPDEST SWAP7 SWAP6 POP POP POP POP POP POP JUMP JUMPDEST PUSH2 0x7D6 DUP2 PUSH2 0x732 JUMP JUMPDEST DUP2 EQ PUSH2 0x7E0 JUMPI PUSH0 DUP1 REVERT JUMPDEST POP JUMP JUMPDEST PUSH0 DUP2 CALLDATALOAD SWAP1 POP PUSH2 0x7F1 DUP2 PUSH2 0x7CD JUMP JUMPDEST SWAP3 SWAP2 POP POP JUMP JUMPDEST PUSH2 0x800 DUP2 PUSH2 0x74A JUMP JUMPDEST DUP2 EQ PUSH2 0x80A JUMPI PUSH0 DUP1 REVERT JUMPDEST POP JUMP JUMPDEST PUSH0 DUP2 CALLDATALOAD SWAP1 POP PUSH2 0x81B DUP2 PUSH2 0x7F7 JUMP JUMPDEST SWAP3 SWAP2 POP POP JUMP JUMPDEST PUSH2 0x82A DUP2 PUSH2 0x762 JUMP JUMPDEST DUP2 EQ PUSH2 0x834 JUMPI PUSH0 DUP1 REVERT JUMPDEST POP JUMP JUMPDEST PUSH0 DUP2 CALLDATALOAD SWAP1 POP PUSH2 0x845 DUP2 PUSH2 0x821 JUMP JUMPDEST SWAP3 SWAP2 POP POP JUMP JUMPDEST PUSH0 DUP1 PUSH0 DUP1 PUSH0 PUSH1 0xA0 DUP7 DUP9 SUB SLT ISZERO PUSH2 0x864 JUMPI PUSH2 0x863 PUSH2 0x6A9 JUMP JUMPDEST JUMPDEST PUSH0 PUSH2 0x871 DUP9 DUP3 DUP10 ADD PUSH2 0x6F3 JUMP JUMPDEST SWAP6 POP POP PUSH1 0x20 PUSH2 0x882 DUP9 DUP3 DUP10 ADD PUSH2 0x7E3 JUMP JUMPDEST SWAP5 POP POP PUSH1 0x40 PUSH2 0x893 DUP9 DUP3 DUP10 ADD PUSH2 0x80D JUMP JUMPDEST SWAP4 POP POP PUSH1 0x60 PUSH2 0x8A4 DUP9 DUP3 DUP10 ADD PUSH2 0x837 JUMP JUMPDEST SWAP3 POP POP PUSH1 0x80 PUSH2 0x8B5 DUP9 DUP3 DUP10 ADD PUSH2 0x7E3 JUMP JUMPDEST SWAP2 POP POP SWAP3 SWAP6 POP SWAP3 SWAP6 SWAP1 SWAP4 POP JUMP JUMPDEST PUSH2 0x8CB DUP2 PUSH2 0x6CC JUMP JUMPDEST DUP3 MSTORE POP POP JUMP JUMPDEST PUSH0 PUSH1 0x20 DUP3 ADD SWAP1 POP PUSH2 0x8E4 PUSH0 DUP4 ADD DUP5 PUSH2 0x8C2 JUMP JUMPDEST SWAP3 SWAP2 POP POP JUMP JUMPDEST PUSH0 PUSH1 0x20 DUP3 ADD SWAP1 POP PUSH2 0x8FD PUSH0 DUP4 ADD DUP5 PUSH2 0x76D JUMP JUMPDEST SWAP3 SWAP2 POP POP JUMP JUMPDEST PUSH0 DUP3 DUP3 MSTORE PUSH1 0x20 DUP3 ADD SWAP1 POP SWAP3 SWAP2 POP POP JUMP JUMPDEST PUSH32 0x4E6F74206F776E65720000000000000000000000000000000000000000000000 PUSH0 DUP3 ADD MSTORE POP JUMP JUMPDEST PUSH0 PUSH2 0x947 PUSH1 0x9 DUP4 PUSH2 0x903 JUMP JUMPDEST SWAP2 POP PUSH2 0x952 DUP3 PUSH2 0x913 JUMP JUMPDEST PUSH1 0x20 DUP3 ADD SWAP1 POP SWAP2 SWAP1 POP JUMP JUMPDEST PUSH0 PUSH1 0x20 DUP3 ADD SWAP1 POP DUP2 DUP2 SUB PUSH0 DUP4 ADD MSTORE PUSH2 0x974 DUP2 PUSH2 0x93B JUMP JUMPDEST SWAP1 POP SWAP2 SWAP1 POP JUMP JUMPDEST PUSH32 0x4E6F7420617574686F72697A6564000000000000000000000000000000000000 PUSH0 DUP3 ADD MSTORE POP JUMP JUMPDEST PUSH0 PUSH2 0x9AF PUSH1 0xE DUP4 PUSH2 0x903 JUMP JUMPDEST SWAP2 POP PUSH2 0x9BA DUP3 PUSH2 0x97B JUMP JUMPDEST PUSH1 0x20 DUP3 ADD SWAP1 POP SWAP2 SWAP1 POP JUMP JUMPDEST PUSH0 PUSH1 0x20 DUP3 ADD SWAP1 POP DUP2 DUP2 SUB PUSH0 DUP4 ADD MSTORE PUSH2 0x9DC DUP2 PUSH2 0x9A3 JUMP JUMPDEST SWAP1 POP SWAP2 SWAP1 POP JUMP JUMPDEST PUSH32 0x496E76616C696420636F6E666964656E63650000000000000000000000000000 PUSH0 DUP3 ADD MSTORE POP JUMP JUMPDEST PUSH0 PUSH2 0xA17 PUSH1 0x12 DUP4 PUSH2 0x903 JUMP JUMPDEST SWAP2 POP PUSH2 0xA22 DUP3 PUSH2 0x9E3 JUMP JUMPDEST PUSH1 0x20 DUP3 ADD SWAP1 POP SWAP2 SWAP1 POP JUMP JUMPDEST PUSH0 PUSH1 0x20 DUP3 ADD SWAP1 POP DUP2 DUP2 SUB PUSH0 DUP4 ADD MSTORE PUSH2 0xA44 DUP2 PUSH2 0xA0B JUMP JUMPDEST SWAP1 POP SWAP2 SWAP1 POP JUMP JUMPDEST PUSH32 0x496E76616C6964207269736B2073636F72650000000000000000000000000000 PUSH0 DUP3 ADD MSTORE POP JUMP JUMPDEST PUSH0 PUSH2 0xA7F PUSH1 0x12 DUP4 PUSH2 0x903 JUMP JUMPDEST SWAP2 POP PUSH2 0xA8A DUP3 PUSH2 0xA4B JUMP JUMPDEST PUSH1 0x20 DUP3 ADD SWAP1 POP SWAP2 SWAP1 POP JUMP JUMPDEST PUSH0 PUSH1 0x20 DUP3 ADD SWAP1 POP DUP2 DUP2 SUB PUSH0 DUP4 ADD MSTORE PUSH2 0xAAC DUP2 PUSH2 0xA73 JUMP JUMPDEST SWAP1 POP SWAP2 SWAP1 POP JUMP JUMPDEST PUSH0 PUSH1 0x80 DUP3 ADD SWAP1 POP PUSH2 0xAC6 PUSH0 DUP4 ADD DUP8 PUSH2 0x73B JUMP JUMPDEST PUSH2 0xAD3 PUSH1 0x20 DUP4 ADD DUP7 PUSH2 0x753 JUMP JUMPDEST PUSH2 0xAE0 PUSH1 0x40 DUP4 ADD DUP6 PUSH2 0x76D JUMP JUMPDEST PUSH2 0xAED PUSH1 0x60 DUP4 ADD DUP5 PUSH2 0x73B JUMP JUMPDEST SWAP6 SWAP5 POP POP POP POP POP JUMP INVALID LOG2 PUSH5 0x6970667358 0x22 SLT KECCAK256 SHL GAS 0xEF PUSH21 0x7C0D164EECEE34299EAB1A86E60953EFF59F5534ED COINBASE 0xE SELFBALANCE 0xA6 0xD7 ISZERO 0xBA PUSH5 0x736F6C6343 STOP ADDMOD BYTE STOP CALLER "
				},
				"gasEstimates": {
					"creation": {
						"codeDepositCost": "572000",
						"executionCost": "49222",
						"totalCost": "621222"
					},
					"external": {
						"addUpdater(address)": "26972",
						"authorizedUpdaters(address)": "2877",
						"getPrediction(address)": "infinite",
						"owner()": "2530",
						"removeUpdater(address)": "26972",
						"tokenPredictions(address)": "infinite",
						"updatePrediction(address,uint256,int256,bool,uint256)": "infinite"
					}
				},
				"methodIdentifiers": {
					"addUpdater(address)": "43d24a5e",
					"authorizedUpdaters(address)": "8ff29cfe",
					"getPrediction(address)": "eacaced7",
					"owner()": "8da5cb5b",
					"removeUpdater(address)": "04b07a5e",
					"tokenPredictions(address)": "2daa1bdf",
					"updatePrediction(address,uint256,int256,bool,uint256)": "2f6cacf5"
				}
			},
			"storageLayout": {
				"storage": [
					{
						"astId": 17,
						"contract": "contracts/AIOracleV1.sol:AIOracleV1",
						"label": "tokenPredictions",
						"offset": 0,
						"slot": "0",
						"type": "t_mapping(t_address,t_struct(Prediction)12_storage)"
					},
					{
						"astId": 21,
						"contract": "contracts/AIOracleV1.sol:AIOracleV1",
						"label": "authorizedUpdaters",
						"offset": 0,
						"slot": "1",
						"type": "t_mapping(t_address,t_bool)"
					},
					{
						"astId": 23,
						"contract": "contracts/AIOracleV1.sol:AIOracleV1",
						"label": "owner",
						"offset": 0,
						"slot": "2",
						"type": "t_address"
					}
				],
				"types": {
					"t_address": {
						"encoding": "inplace",
						"label": "address",
						"numberOfBytes": "20"
					},
					"t_bool": {
						"encoding": "inplace",
						"label": "bool",
						"numberOfBytes": "1"
					},
					"t_int256": {
						"encoding": "inplace",
						"label": "int256",
						"numberOfBytes": "32"
					},
					"t_mapping(t_address,t_bool)": {
						"encoding": "mapping",
						"key": "t_address",
						"label": "mapping(address => bool)",
						"numberOfBytes": "32",
						"value": "t_bool"
					},
					"t_mapping(t_address,t_struct(Prediction)12_storage)": {
						"encoding": "mapping",
						"key": "t_address",
						"label": "mapping(address => struct AIOracleV1.Prediction)",
						"numberOfBytes": "32",
						"value": "t_struct(Prediction)12_storage"
					},
					"t_struct(Prediction)12_storage": {
						"encoding": "inplace",
						"label": "struct AIOracleV1.Prediction",
						"members": [
							{
								"astId": 3,
								"contract": "contracts/AIOracleV1.sol:AIOracleV1",
								"label": "confidence",
								"offset": 0,
								"slot": "0",
								"type": "t_uint256"
							},
							{
								"astId": 5,
								"contract": "contracts/AIOracleV1.sol:AIOracleV1",
								"label": "priceDirection",
								"offset": 0,
								"slot": "1",
								"type": "t_int256"
							},
							{
								"astId": 7,
								"contract": "contracts/AIOracleV1.sol:AIOracleV1",
								"label": "timestamp",
								"offset": 0,
								"slot": "2",
								"type": "t_uint256"
							},
							{
								"astId": 9,
								"contract": "contracts/AIOracleV1.sol:AIOracleV1",
								"label": "isHoneypot",
								"offset": 0,
								"slot": "3",
								"type": "t_bool"
							},
							{
								"astId": 11,
								"contract": "contracts/AIOracleV1.sol:AIOracleV1",
								"label": "riskScore",
								"offset": 0,
								"slot": "4",
								"type": "t_uint256"
							}
						],
						"numberOfBytes": "160"
					},
					"t_uint256": {
						"encoding": "inplace",
						"label": "uint256",
						"numberOfBytes": "32"
					}
				}
			},
			"userdoc": {
				"kind": "user",
				"methods": {},
				"version": 1
			}
		}
	}
}