{
	"contracts/GoDegen.sol": {
		"GoDegen": {
			"abi": [
				{
					"inputs": [
						{
							"internalType": "address",
							"name": "_oracle",
							"type": "address"
						},
						{
							"internalType": "address",
							"name": "_router",
							"type": "address"
						},
						{
							"internalType": "address",
							"name": "_factory",
							"type": "address"
						},
						{
							"internalType": "address",
							"name": "_quoter",
							"type": "address"
						}
					],
					"stateMutability": "nonpayable",
					"type": "constructor"
				},
				{
					"anonymous": false,
					"inputs": [
						{
							"indexed": false,
							"internalType": "address",
							"name": "tokenIn",
							"type": "address"
						},
						{
							"indexed": false,
							"internalType": "address",
							"name": "tokenOut",
							"type": "address"
						},
						{
							"indexed": false,
							"internalType": "uint256",
							"name": "amountIn",
							"type": "uint256"
						},
						{
							"indexed": false,
							"internalType": "uint256",
							"name": "amountOut",
							"type": "uint256"
						},
						{
							"indexed": false,
							"internalType": "address",
							"name": "recipient",
							"type": "address"
						},
						{
							"indexed": false,
							"internalType": "uint24",
							"name": "fee",
							"type": "uint24"
						}
					],
					"name": "TradeExecuted",
					"type": "event"
				},
				{
					"inputs": [],
					"name": "DEADLINE_EXTENSION",
					"outputs": [
						{
							"internalType": "uint256",
							"name": "",
							"type": "uint256"
						}
					],
					"stateMutability": "view",
					"type": "function"
				},
				{
					"inputs": [],
					"name": "MAX_SLIPPAGE",
					"outputs": [
						{
							"internalType": "uint256",
							"name": "",
							"type": "uint256"
						}
					],
					"stateMutability": "view",
					"type": "function"
				},
				{
					"inputs": [],
					"name": "MIN_TRADE_AMOUNT",
					"outputs": [
						{
							"internalType": "uint256",
							"name": "",
							"type": "uint256"
						}
					],
					"stateMutability": "view",
					"type": "function"
				},
				{
					"inputs": [
						{
							"internalType": "uint256",
							"name": "",
							"type": "uint256"
						}
					],
					"name": "SUPPORTED_FEES",
					"outputs": [
						{
							"internalType": "uint24",
							"name": "",
							"type": "uint24"
						}
					],
					"stateMutability": "view",
					"type": "function"
				},
				{
					"inputs": [],
					"name": "aiOracle",
					"outputs": [
						{
							"internalType": "address",
							"name": "",
							"type": "address"
						}
					],
					"stateMutability": "view",
					"type": "function"
				},
				{
					"inputs": [
						{
							"internalType": "address",
							"name": "_tokenIn",
							"type": "address"
						},
						{
							"internalType": "address",
							"name": "_tokenOut",
							"type": "address"
						},
						{
							"internalType": "uint256",
							"name": "_amountIn",
							"type": "uint256"
						},
						{
							"internalType": "address",
							"name": "_recipient",
							"type": "address"
						}
					],
					"name": "executeManualTrade",
					"outputs": [
						{
							"internalType": "uint256",
							"name": "amountOut",
							"type": "uint256"
						}
					],
					"stateMutability": "nonpayable",
					"type": "function"
				},
				{
					"inputs": [
						{
							"internalType": "address",
							"name": "_tokenIn",
							"type": "address"
						},
						{
							"internalType": "address",
							"name": "_tokenOut",
							"type": "address"
						},
						{
							"internalType": "uint256",
							"name": "_amountIn",
							"type": "uint256"
						},
						{
							"internalType": "address",
							"name": "_recipient",
							"type": "address"
						},
						{
							"internalType": "bytes",
							"name": "_aiData",
							"type": "bytes"
						}
					],
					"name": "executeTrade",
					"outputs": [
						{
							"internalType": "uint256",
							"name": "amountOut",
							"type": "uint256"
						}
					],
					"stateMutability": "nonpayable",
					"type": "function"
				},
				{
					"inputs": [],
					"name": "factory",
					"outputs": [
						{
							"internalType": "contract IUniswapV3Factory",
							"name": "",
							"type": "address"
						}
					],
					"stateMutability": "view",
					"type": "function"
				},
				{
					"inputs": [
						{
							"internalType": "address",
							"name": "_tokenIn",
							"type": "address"
						},
						{
							"internalType": "address",
							"name": "_tokenOut",
							"type": "address"
						}
					],
					"name": "findBestPool",
					"outputs": [
						{
							"internalType": "address",
							"name": "pool",
							"type": "address"
						},
						{
							"internalType": "uint24",
							"name": "fee",
							"type": "uint24"
						}
					],
					"stateMutability": "view",
					"type": "function"
				},
				{
					"inputs": [],
					"name": "owner",
					"outputs": [
						{
							"internalType": "address",
							"name": "",
							"type": "address"
						}
					],
					"stateMutability": "view",
					"type": "function"
				},
				{
					"inputs": [],
					"name": "quoter",
					"outputs": [
						{
							"internalType": "contract IQuoterV2",
							"name": "",
							"type": "address"
						}
					],
					"stateMutability": "view",
					"type": "function"
				},
				{
					"inputs": [],
					"name": "swapRouter",
					"outputs": [
						{
							"internalType": "contract ISwapRouter",
							"name": "",
							"type": "address"
						}
					],
					"stateMutability": "view",
					"type": "function"
				},
				{
					"inputs": [
						{
							"internalType": "address",
							"name": "_token",
							"type": "address"
						},
						{
							"internalType": "bool",
							"name": "_status",
							"type": "bool"
						}
					],
					"name": "whitelistToken",
					"outputs": [],
					"stateMutability": "nonpayable",
					"type": "function"
				},
				{
					"inputs": [
						{
							"internalType": "address",
							"name": "",
							"type": "address"
						}
					],
					"name": "whitelistedTokens",
					"outputs": [
						{
							"internalType": "bool",
							"name": "",
							"type": "bool"
						}
					],
					"stateMutability": "view",
					"type": "function"
				}
			],
			"devdoc": {
				"kind": "dev",
				"methods": {},
				"version": 1
			},
			"evm": {
				"assembly": "    /* \"contracts/GoDegen.sol\":163:5836  contract GoDegen {... */\n  mstore(0x40, 0xe0)\n    /* \"contracts/GoDegen.sol\":374:430  uint24[] public SUPPORTED_FEES = [100, 500, 3000, 10000] */\n  mload(0x40)\n  dup1\n  0x80\n  add\n  0x40\n  mstore\n  dup1\n    /* \"contracts/GoDegen.sol\":408:411  100 */\n  0x64\n    /* \"contracts/GoDegen.sol\":374:430  uint24[] public SUPPORTED_FEES = [100, 500, 3000, 10000] */\n  0xffff\n  and\n  dup2\n  mstore\n  0x20\n  add\n    /* \"contracts/GoDegen.sol\":413:416  500 */\n  0x01f4\n    /* \"contracts/GoDegen.sol\":374:430  uint24[] public SUPPORTED_FEES = [100, 500, 3000, 10000] */\n  0xffff\n  and\n  dup2\n  mstore\n  0x20\n  add\n    /* \"contracts/GoDegen.sol\":418:422  3000 */\n  0x0bb8\n    /* \"contracts/GoDegen.sol\":374:430  uint24[] public SUPPORTED_FEES = [100, 500, 3000, 10000] */\n  0xffff\n  and\n  dup2\n  mstore\n  0x20\n  add\n    /* \"contracts/GoDegen.sol\":424:429  10000 */\n  0x2710\n    /* \"contracts/GoDegen.sol\":374:430  uint24[] public SUPPORTED_FEES = [100, 500, 3000, 10000] */\n  0xffff\n  and\n  dup2\n  mstore\n  pop\n  0x02\n  swap1\n  0x04\n  tag_1\n  swap3\n  swap2\n  swap1\n  tag_2\n  jump\t// in\ntag_1:\n  pop\n    /* \"contracts/GoDegen.sol\":857:1166  constructor(... */\n  callvalue\n  dup1\n  iszero\n  tag_3\n  jumpi\n  0x00\n  dup1\n  revert\ntag_3:\n  pop\n  mload(0x40)\n  sub(codesize, bytecodeSize)\n  dup1\n  bytecodeSize\n  dup4\n  codecopy\n  dup2\n  dup2\n  add\n  0x40\n  mstore\n  dup2\n  add\n  swap1\n  tag_4\n  swap2\n  swap1\n  tag_5\n  jump\t// in\ntag_4:\n    /* \"contracts/GoDegen.sol\":994:1004  msg.sender */\n  caller\n    /* \"contracts/GoDegen.sol\":986:991  owner */\n  0x00\n  dup1\n    /* \"contracts/GoDegen.sol\":986:1004  owner = msg.sender */\n  0x0100\n  exp\n  dup2\n  sload\n  dup2\n  0xffffffffffffffffffffffffffffffffffffffff\n  mul\n  not\n  and\n  swap1\n  dup4\n  0xffffffffffffffffffffffffffffffffffffffff\n  and\n  mul\n  or\n  swap1\n  sstore\n  pop\n    /* \"contracts/GoDegen.sol\":1025:1032  _oracle */\n  dup4\n    /* \"contracts/GoDegen.sol\":1014:1022  aiOracle */\n  0x01\n  0x00\n    /* \"contracts/GoDegen.sol\":1014:1032  aiOracle = _oracle */\n  0x0100\n  exp\n  dup2\n  sload\n  dup2\n  0xffffffffffffffffffffffffffffffffffffffff\n  mul\n  not\n  and\n  swap1\n  dup4\n  0xffffffffffffffffffffffffffffffffffffffff\n  and\n  mul\n  or\n  swap1\n  sstore\n  pop\n    /* \"contracts/GoDegen.sol\":1067:1074  _router */\n  dup3\n    /* \"contracts/GoDegen.sol\":1042:1075  swapRouter = ISwapRouter(_router) */\n  0xffffffffffffffffffffffffffffffffffffffff\n  and\n  0x80\n  dup2\n  0xffffffffffffffffffffffffffffffffffffffff\n  and\n  dup2\n  mstore\n  pop\n  pop\n    /* \"contracts/GoDegen.sol\":1113:1121  _factory */\n  dup2\n    /* \"contracts/GoDegen.sol\":1085:1122  factory = IUniswapV3Factory(_factory) */\n  0xffffffffffffffffffffffffffffffffffffffff\n  and\n  0xa0\n  dup2\n  0xffffffffffffffffffffffffffffffffffffffff\n  and\n  dup2\n  mstore\n  pop\n  pop\n    /* \"contracts/GoDegen.sol\":1151:1158  _quoter */\n  dup1\n    /* \"contracts/GoDegen.sol\":1132:1159  quoter = IQuoterV2(_quoter) */\n  0xffffffffffffffffffffffffffffffffffffffff\n  and\n  0xc0\n  dup2\n  0xffffffffffffffffffffffffffffffffffffffff\n  and\n  dup2\n  mstore\n  pop\n  pop\n    /* \"contracts/GoDegen.sol\":857:1166  constructor(... */\n  pop\n  pop\n  pop\n  pop\n    /* \"contracts/GoDegen.sol\":163:5836  contract GoDegen {... */\n  jump(tag_8)\ntag_2:\n  dup3\n  dup1\n  sload\n  dup3\n  dup3\n  sstore\n  swap1\n  0x00\n  mstore\n  keccak256(0x00, 0x20)\n  swap1\n  0x09\n  add\n  0x0a\n  swap1\n  div\n  dup2\n  add\n  swap3\n  dup3\n  iszero\n  tag_9\n  jumpi\n  swap2\n  0x20\n  mul\n  dup3\n  add\n  0x00\ntag_10:\n  dup4\n  dup3\n  gt\n  iszero\n  tag_11\n  jumpi\n  dup4\n  mload\n  dup4\n  dup3\n  0x0100\n  exp\n  dup2\n  sload\n  dup2\n  0xffffff\n  mul\n  not\n  and\n  swap1\n  dup4\n  0xffff\n  and\n  mul\n  or\n  swap1\n  sstore\n  pop\n  swap3\n  0x20\n  add\n  swap3\n  0x03\n  add\n  0x20\n  dup2\n  0x02\n  add\n  div\n  swap3\n  dup4\n  add\n  swap3\n  0x01\n  sub\n  mul\n  jump(tag_10)\ntag_11:\n  dup1\n  iszero\n  tag_12\n  jumpi\n  dup3\n  dup2\n  0x0100\n  exp\n  dup2\n  sload\n  swap1\n  0xffffff\n  mul\n  not\n  and\n  swap1\n  sstore\n  0x03\n  add\n  0x20\n  dup2\n  0x02\n  add\n  div\n  swap3\n  dup4\n  add\n  swap3\n  0x01\n  sub\n  mul\n  jump(tag_11)\ntag_12:\n  pop\ntag_9:\n  pop\n  swap1\n  pop\n  tag_13\n  swap2\n  swap1\n  tag_14\n  jump\t// in\ntag_13:\n  pop\n  swap1\n  jump\t// out\ntag_14:\ntag_15:\n  dup1\n  dup3\n  gt\n  iszero\n  tag_16\n  jumpi\n  0x00\n  dup2\n  0x00\n  swap1\n  sstore\n  pop\n  0x01\n  add\n  jump(tag_15)\ntag_16:\n  pop\n  swap1\n  jump\t// out\n    /* \"#utility.yul\":88:205   */\ntag_18:\n    /* \"#utility.yul\":197:198   */\n  0x00\n    /* \"#utility.yul\":194:195   */\n  dup1\n    /* \"#utility.yul\":187:199   */\n  revert\n    /* \"#utility.yul\":334:460   */\ntag_20:\n    /* \"#utility.yul\":371:378   */\n  0x00\n    /* \"#utility.yul\":411:453   */\n  0xffffffffffffffffffffffffffffffffffffffff\n    /* \"#utility.yul\":404:409   */\n  dup3\n    /* \"#utility.yul\":400:454   */\n  and\n    /* \"#utility.yul\":389:454   */\n  swap1\n  pop\n    /* \"#utility.yul\":334:460   */\n  swap2\n  swap1\n  pop\n  jump\t// out\n    /* \"#utility.yul\":466:562   */\ntag_21:\n    /* \"#utility.yul\":503:510   */\n  0x00\n    /* \"#utility.yul\":532:556   */\n  tag_30\n    /* \"#utility.yul\":550:555   */\n  dup3\n    /* \"#utility.yul\":532:556   */\n  tag_20\n  jump\t// in\ntag_30:\n    /* \"#utility.yul\":521:556   */\n  swap1\n  pop\n    /* \"#utility.yul\":466:562   */\n  swap2\n  swap1\n  pop\n  jump\t// out\n    /* \"#utility.yul\":568:690   */\ntag_22:\n    /* \"#utility.yul\":641:665   */\n  tag_32\n    /* \"#utility.yul\":659:664   */\n  dup2\n    /* \"#utility.yul\":641:665   */\n  tag_21\n  jump\t// in\ntag_32:\n    /* \"#utility.yul\":634:639   */\n  dup2\n    /* \"#utility.yul\":631:666   */\n  eq\n    /* \"#utility.yul\":621:684   */\n  tag_33\n  jumpi\n    /* \"#utility.yul\":680:681   */\n  0x00\n    /* \"#utility.yul\":677:678   */\n  dup1\n    /* \"#utility.yul\":670:682   */\n  revert\n    /* \"#utility.yul\":621:684   */\ntag_33:\n    /* \"#utility.yul\":568:690   */\n  pop\n  jump\t// out\n    /* \"#utility.yul\":696:839   */\ntag_23:\n    /* \"#utility.yul\":753:758   */\n  0x00\n    /* \"#utility.yul\":784:790   */\n  dup2\n    /* \"#utility.yul\":778:791   */\n  mload\n    /* \"#utility.yul\":769:791   */\n  swap1\n  pop\n    /* \"#utility.yul\":800:833   */\n  tag_35\n    /* \"#utility.yul\":827:832   */\n  dup2\n    /* \"#utility.yul\":800:833   */\n  tag_22\n  jump\t// in\ntag_35:\n    /* \"#utility.yul\":696:839   */\n  swap3\n  swap2\n  pop\n  pop\n  jump\t// out\n    /* \"#utility.yul\":845:1665   */\ntag_5:\n    /* \"#utility.yul\":942:948   */\n  0x00\n    /* \"#utility.yul\":950:956   */\n  dup1\n    /* \"#utility.yul\":958:964   */\n  0x00\n    /* \"#utility.yul\":966:972   */\n  dup1\n    /* \"#utility.yul\":1015:1018   */\n  0x80\n    /* \"#utility.yul\":1003:1012   */\n  dup6\n    /* \"#utility.yul\":994:1001   */\n  dup8\n    /* \"#utility.yul\":990:1013   */\n  sub\n    /* \"#utility.yul\":986:1019   */\n  slt\n    /* \"#utility.yul\":983:1103   */\n  iszero\n  tag_37\n  jumpi\n    /* \"#utility.yul\":1022:1101   */\n  tag_38\n  tag_18\n  jump\t// in\ntag_38:\n    /* \"#utility.yul\":983:1103   */\ntag_37:\n    /* \"#utility.yul\":1142:1143   */\n  0x00\n    /* \"#utility.yul\":1167:1231   */\n  tag_39\n    /* \"#utility.yul\":1223:1230   */\n  dup8\n    /* \"#utility.yul\":1214:1220   */\n  dup3\n    /* \"#utility.yul\":1203:1212   */\n  dup9\n    /* \"#utility.yul\":1199:1221   */\n  add\n    /* \"#utility.yul\":1167:1231   */\n  tag_23\n  jump\t// in\ntag_39:\n    /* \"#utility.yul\":1157:1231   */\n  swap5\n  pop\n    /* \"#utility.yul\":1113:1241   */\n  pop\n    /* \"#utility.yul\":1280:1282   */\n  0x20\n    /* \"#utility.yul\":1306:1370   */\n  tag_40\n    /* \"#utility.yul\":1362:1369   */\n  dup8\n    /* \"#utility.yul\":1353:1359   */\n  dup3\n    /* \"#utility.yul\":1342:1351   */\n  dup9\n    /* \"#utility.yul\":1338:1360   */\n  add\n    /* \"#utility.yul\":1306:1370   */\n  tag_23\n  jump\t// in\ntag_40:\n    /* \"#utility.yul\":1296:1370   */\n  swap4\n  pop\n    /* \"#utility.yul\":1251:1380   */\n  pop\n    /* \"#utility.yul\":1419:1421   */\n  0x40\n    /* \"#utility.yul\":1445:1509   */\n  tag_41\n    /* \"#utility.yul\":1501:1508   */\n  dup8\n    /* \"#utility.yul\":1492:1498   */\n  dup3\n    /* \"#utility.yul\":1481:1490   */\n  dup9\n    /* \"#utility.yul\":1477:1499   */\n  add\n    /* \"#utility.yul\":1445:1509   */\n  tag_23\n  jump\t// in\ntag_41:\n    /* \"#utility.yul\":1435:1509   */\n  swap3\n  pop\n    /* \"#utility.yul\":1390:1519   */\n  pop\n    /* \"#utility.yul\":1558:1560   */\n  0x60\n    /* \"#utility.yul\":1584:1648   */\n  tag_42\n    /* \"#utility.yul\":1640:1647   */\n  dup8\n    /* \"#utility.yul\":1631:1637   */\n  dup3\n    /* \"#utility.yul\":1620:1629   */\n  dup9\n    /* \"#utility.yul\":1616:1638   */\n  add\n    /* \"#utility.yul\":1584:1648   */\n  tag_23\n  jump\t// in\ntag_42:\n    /* \"#utility.yul\":1574:1648   */\n  swap2\n  pop\n    /* \"#utility.yul\":1529:1658   */\n  pop\n    /* \"#utility.yul\":845:1665   */\n  swap3\n  swap6\n  swap2\n  swap5\n  pop\n  swap3\n  pop\n  jump\t// out\n    /* \"contracts/GoDegen.sol\":163:5836  contract GoDegen {... */\ntag_8:\n  mload(0x80)\n  mload(0xa0)\n  mload(0xc0)\n  codecopy(0x00, dataOffset(sub_0), dataSize(sub_0))\n  0x00\n  assignImmutable(\"0xf4c2b5de886427473655d4c904c743576dc2d53249b7535d96c06cc97ae7216b\")\n  0x00\n  assignImmutable(\"0x8fef2229291b68be841adf029e58b87f39ba144b2d3b0af1760243d0a9bc6a1c\")\n  0x00\n  assignImmutable(\"0x1d3be50b2bb17407dd170f1d5da128d1def30c6b1598d6a629e79b4775265526\")\n  return(0x00, dataSize(sub_0))\nstop\n\nsub_0: assembly {\n        /* \"contracts/GoDegen.sol\":163:5836  contract GoDegen {... */\n      mstore(0x40, 0x80)\n      callvalue\n      dup1\n      iszero\n      tag_1\n      jumpi\n      0x00\n      dup1\n      revert\n    tag_1:\n      pop\n      jumpi(tag_2, lt(calldatasize, 0x04))\n      shr(0xe0, calldataload(0x00))\n      dup1\n      0xc31c9c07\n      gt\n      tag_17\n      jumpi\n      dup1\n      0xc90148ec\n      gt\n      tag_18\n      jumpi\n      dup1\n      0xc90148ec\n      eq\n      tag_13\n      jumpi\n      dup1\n      0xdaf9c210\n      eq\n      tag_14\n      jumpi\n      dup1\n      0xf9759518\n      eq\n      tag_15\n      jumpi\n      dup1\n      0xffe6f79a\n      eq\n      tag_16\n      jumpi\n      jump(tag_2)\n    tag_18:\n      dup1\n      0xc31c9c07\n      eq\n      tag_10\n      jumpi\n      dup1\n      0xc45a0155\n      eq\n      tag_11\n      jumpi\n      dup1\n      0xc6bbd5a7\n      eq\n      tag_12\n      jumpi\n      jump(tag_2)\n    tag_17:\n      dup1\n      0x31b7d413\n      gt\n      tag_19\n      jumpi\n      dup1\n      0x31b7d413\n      eq\n      tag_6\n      jumpi\n      dup1\n      0x502364d8\n      eq\n      tag_7\n      jumpi\n      dup1\n      0x8da5cb5b\n      eq\n      tag_8\n      jumpi\n      dup1\n      0xaad4466e\n      eq\n      tag_9\n      jumpi\n      jump(tag_2)\n    tag_19:\n      dup1\n      0x0c65dafe\n      eq\n      tag_3\n      jumpi\n      dup1\n      0x0ffb1d8b\n      eq\n      tag_4\n      jumpi\n      dup1\n      0x31b221cd\n      eq\n      tag_5\n      jumpi\n    tag_2:\n      0x00\n      dup1\n      revert\n        /* \"contracts/GoDegen.sol\":374:430  uint24[] public SUPPORTED_FEES = [100, 500, 3000, 10000] */\n    tag_3:\n      tag_20\n      0x04\n      dup1\n      calldatasize\n      sub\n      dup2\n      add\n      swap1\n      tag_21\n      swap2\n      swap1\n      tag_22\n      jump\t// in\n    tag_21:\n      tag_23\n      jump\t// in\n    tag_20:\n      mload(0x40)\n      tag_24\n      swap2\n      swap1\n      tag_25\n      jump\t// in\n    tag_24:\n      mload(0x40)\n      dup1\n      swap2\n      sub\n      swap1\n      return\n        /* \"contracts/GoDegen.sol\":1374:1499  function whitelistToken(address _token, bool _status) external onlyOwner {... */\n    tag_4:\n      tag_26\n      0x04\n      dup1\n      calldatasize\n      sub\n      dup2\n      add\n      swap1\n      tag_27\n      swap2\n      swap1\n      tag_28\n      jump\t// in\n    tag_27:\n      tag_29\n      jump\t// in\n    tag_26:\n      stop\n        /* \"contracts/GoDegen.sol\":212:235  address public aiOracle */\n    tag_5:\n      tag_30\n      tag_31\n      jump\t// in\n    tag_30:\n      mload(0x40)\n      tag_32\n      swap2\n      swap1\n      tag_33\n      jump\t// in\n    tag_32:\n      mload(0x40)\n      dup1\n      swap2\n      sub\n      swap1\n      return\n        /* \"contracts/GoDegen.sol\":552:598  uint256 public constant MIN_TRADE_AMOUNT = 1e4 */\n    tag_6:\n      tag_34\n      tag_35\n      jump\t// in\n    tag_34:\n      mload(0x40)\n      tag_36\n      swap2\n      swap1\n      tag_37\n      jump\t// in\n    tag_36:\n      mload(0x40)\n      dup1\n      swap2\n      sub\n      swap1\n      return\n        /* \"contracts/GoDegen.sol\":4093:5834  function executeManualTrade(... */\n    tag_7:\n      tag_38\n      0x04\n      dup1\n      calldatasize\n      sub\n      dup2\n      add\n      swap1\n      tag_39\n      swap2\n      swap1\n      tag_40\n      jump\t// in\n    tag_39:\n      tag_41\n      jump\t// in\n    tag_38:\n      mload(0x40)\n      tag_42\n      swap2\n      swap1\n      tag_37\n      jump\t// in\n    tag_42:\n      mload(0x40)\n      dup1\n      swap2\n      sub\n      swap1\n      return\n        /* \"contracts/GoDegen.sol\":186:206  address public owner */\n    tag_8:\n      tag_43\n      tag_44\n      jump\t// in\n    tag_43:\n      mload(0x40)\n      tag_45\n      swap2\n      swap1\n      tag_33\n      jump\t// in\n    tag_45:\n      mload(0x40)\n      dup1\n      swap2\n      sub\n      swap1\n      return\n        /* \"contracts/GoDegen.sol\":2296:4087  function executeTrade(... */\n    tag_9:\n      tag_46\n      0x04\n      dup1\n      calldatasize\n      sub\n      dup2\n      add\n      swap1\n      tag_47\n      swap2\n      swap1\n      tag_48\n      jump\t// in\n    tag_47:\n      tag_49\n      jump\t// in\n    tag_46:\n      mload(0x40)\n      tag_50\n      swap2\n      swap1\n      tag_37\n      jump\t// in\n    tag_50:\n      mload(0x40)\n      dup1\n      swap2\n      sub\n      swap1\n      return\n        /* \"contracts/GoDegen.sol\":241:280  ISwapRouter public immutable swapRouter */\n    tag_10:\n      tag_51\n      tag_52\n      jump\t// in\n    tag_51:\n      mload(0x40)\n      tag_53\n      swap2\n      swap1\n      tag_54\n      jump\t// in\n    tag_53:\n      mload(0x40)\n      dup1\n      swap2\n      sub\n      swap1\n      return\n        /* \"contracts/GoDegen.sol\":286:328  IUniswapV3Factory public immutable factory */\n    tag_11:\n      tag_55\n      tag_56\n      jump\t// in\n    tag_55:\n      mload(0x40)\n      tag_57\n      swap2\n      swap1\n      tag_58\n      jump\t// in\n    tag_57:\n      mload(0x40)\n      dup1\n      swap2\n      sub\n      swap1\n      return\n        /* \"contracts/GoDegen.sol\":334:367  IQuoterV2 public immutable quoter */\n    tag_12:\n      tag_59\n      tag_60\n      jump\t// in\n    tag_59:\n      mload(0x40)\n      tag_61\n      swap2\n      swap1\n      tag_62\n      jump\t// in\n    tag_61:\n      mload(0x40)\n      dup1\n      swap2\n      sub\n      swap1\n      return\n        /* \"contracts/GoDegen.sol\":1505:2290  function findBestPool(... */\n    tag_13:\n      tag_63\n      0x04\n      dup1\n      calldatasize\n      sub\n      dup2\n      add\n      swap1\n      tag_64\n      swap2\n      swap1\n      tag_65\n      jump\t// in\n    tag_64:\n      tag_66\n      jump\t// in\n    tag_63:\n      mload(0x40)\n      tag_67\n      swap3\n      swap2\n      swap1\n      tag_68\n      jump\t// in\n    tag_67:\n      mload(0x40)\n      dup1\n      swap2\n      sub\n      swap1\n      return\n        /* \"contracts/GoDegen.sol\":618:667  mapping(address => bool) public whitelistedTokens */\n    tag_14:\n      tag_69\n      0x04\n      dup1\n      calldatasize\n      sub\n      dup2\n      add\n      swap1\n      tag_70\n      swap2\n      swap1\n      tag_71\n      jump\t// in\n    tag_70:\n      tag_72\n      jump\t// in\n    tag_69:\n      mload(0x40)\n      tag_73\n      swap2\n      swap1\n      tag_74\n      jump\t// in\n    tag_73:\n      mload(0x40)\n      dup1\n      swap2\n      sub\n      swap1\n      return\n        /* \"contracts/GoDegen.sol\":497:539  uint256 public constant MAX_SLIPPAGE = 200 */\n    tag_15:\n      tag_75\n      tag_76\n      jump\t// in\n    tag_75:\n      mload(0x40)\n      tag_77\n      swap2\n      swap1\n      tag_37\n      jump\t// in\n    tag_77:\n      mload(0x40)\n      dup1\n      swap2\n      sub\n      swap1\n      return\n        /* \"contracts/GoDegen.sol\":436:491  uint256 public constant DEADLINE_EXTENSION = 20 minutes */\n    tag_16:\n      tag_78\n      tag_79\n      jump\t// in\n    tag_78:\n      mload(0x40)\n      tag_80\n      swap2\n      swap1\n      tag_37\n      jump\t// in\n    tag_80:\n      mload(0x40)\n      dup1\n      swap2\n      sub\n      swap1\n      return\n        /* \"contracts/GoDegen.sol\":374:430  uint24[] public SUPPORTED_FEES = [100, 500, 3000, 10000] */\n    tag_23:\n      0x02\n      dup2\n      dup2\n      sload\n      dup2\n      lt\n      tag_81\n      jumpi\n      0x00\n      dup1\n      revert\n    tag_81:\n      swap1\n      0x00\n      mstore\n      keccak256(0x00, 0x20)\n      swap1\n      0x0a\n      swap2\n      dup3\n      dup3\n      div\n      add\n      swap2\n      swap1\n      mod\n      0x03\n      mul\n      swap2\n      pop\n      sload\n      swap1\n      0x0100\n      exp\n      swap1\n      div\n      0xffffff\n      and\n      dup2\n      jump\t// out\n        /* \"contracts/GoDegen.sol\":1374:1499  function whitelistToken(address _token, bool _status) external onlyOwner {... */\n    tag_29:\n        /* \"contracts/GoDegen.sol\":1225:1230  owner */\n      0x00\n      dup1\n      sload\n      swap1\n      0x0100\n      exp\n      swap1\n      div\n      0xffffffffffffffffffffffffffffffffffffffff\n      and\n        /* \"contracts/GoDegen.sol\":1211:1230  msg.sender == owner */\n      0xffffffffffffffffffffffffffffffffffffffff\n      and\n        /* \"contracts/GoDegen.sol\":1211:1221  msg.sender */\n      caller\n        /* \"contracts/GoDegen.sol\":1211:1230  msg.sender == owner */\n      0xffffffffffffffffffffffffffffffffffffffff\n      and\n      eq\n        /* \"contracts/GoDegen.sol\":1203:1244  require(msg.sender == owner, \"Not owner\") */\n      tag_84\n      jumpi\n      mload(0x40)\n      0x08c379a000000000000000000000000000000000000000000000000000000000\n      dup2\n      mstore\n      0x04\n      add\n      tag_85\n      swap1\n      tag_86\n      jump\t// in\n    tag_85:\n      mload(0x40)\n      dup1\n      swap2\n      sub\n      swap1\n      revert\n    tag_84:\n        /* \"contracts/GoDegen.sol\":1485:1492  _status */\n      dup1\n        /* \"contracts/GoDegen.sol\":1457:1474  whitelistedTokens */\n      0x03\n        /* \"contracts/GoDegen.sol\":1457:1482  whitelistedTokens[_token] */\n      0x00\n        /* \"contracts/GoDegen.sol\":1475:1481  _token */\n      dup5\n        /* \"contracts/GoDegen.sol\":1457:1482  whitelistedTokens[_token] */\n      0xffffffffffffffffffffffffffffffffffffffff\n      and\n      0xffffffffffffffffffffffffffffffffffffffff\n      and\n      dup2\n      mstore\n      0x20\n      add\n      swap1\n      dup2\n      mstore\n      0x20\n      add\n      0x00\n      keccak256\n      0x00\n        /* \"contracts/GoDegen.sol\":1457:1492  whitelistedTokens[_token] = _status */\n      0x0100\n      exp\n      dup2\n      sload\n      dup2\n      0xff\n      mul\n      not\n      and\n      swap1\n      dup4\n      iszero\n      iszero\n      mul\n      or\n      swap1\n      sstore\n      pop\n        /* \"contracts/GoDegen.sol\":1374:1499  function whitelistToken(address _token, bool _status) external onlyOwner {... */\n      pop\n      pop\n      jump\t// out\n        /* \"contracts/GoDegen.sol\":212:235  address public aiOracle */\n    tag_31:\n      0x01\n      0x00\n      swap1\n      sload\n      swap1\n      0x0100\n      exp\n      swap1\n      div\n      0xffffffffffffffffffffffffffffffffffffffff\n      and\n      dup2\n      jump\t// out\n        /* \"contracts/GoDegen.sol\":552:598  uint256 public constant MIN_TRADE_AMOUNT = 1e4 */\n    tag_35:\n        /* \"contracts/GoDegen.sol\":595:598  1e4 */\n      0x2710\n        /* \"contracts/GoDegen.sol\":552:598  uint256 public constant MIN_TRADE_AMOUNT = 1e4 */\n      dup2\n      jump\t// out\n        /* \"contracts/GoDegen.sol\":4093:5834  function executeManualTrade(... */\n    tag_41:\n        /* \"contracts/GoDegen.sol\":4253:4270  uint256 amountOut */\n      0x00\n        /* \"contracts/GoDegen.sol\":4303:4320  whitelistedTokens */\n      0x03\n        /* \"contracts/GoDegen.sol\":4303:4330  whitelistedTokens[_tokenIn] */\n      0x00\n        /* \"contracts/GoDegen.sol\":4321:4329  _tokenIn */\n      dup7\n        /* \"contracts/GoDegen.sol\":4303:4330  whitelistedTokens[_tokenIn] */\n      0xffffffffffffffffffffffffffffffffffffffff\n      and\n      0xffffffffffffffffffffffffffffffffffffffff\n      and\n      dup2\n      mstore\n      0x20\n      add\n      swap1\n      dup2\n      mstore\n      0x20\n      add\n      0x00\n      keccak256\n      0x00\n      swap1\n      sload\n      swap1\n      0x0100\n      exp\n      swap1\n      div\n      0xff\n      and\n        /* \"contracts/GoDegen.sol\":4303:4362  whitelistedTokens[_tokenIn] && whitelistedTokens[_tokenOut] */\n      dup1\n      iszero\n      tag_89\n      jumpi\n      pop\n        /* \"contracts/GoDegen.sol\":4334:4351  whitelistedTokens */\n      0x03\n        /* \"contracts/GoDegen.sol\":4334:4362  whitelistedTokens[_tokenOut] */\n      0x00\n        /* \"contracts/GoDegen.sol\":4352:4361  _tokenOut */\n      dup6\n        /* \"contracts/GoDegen.sol\":4334:4362  whitelistedTokens[_tokenOut] */\n      0xffffffffffffffffffffffffffffffffffffffff\n      and\n      0xffffffffffffffffffffffffffffffffffffffff\n      and\n      dup2\n      mstore\n      0x20\n      add\n      swap1\n      dup2\n      mstore\n      0x20\n      add\n      0x00\n      keccak256\n      0x00\n      swap1\n      sload\n      swap1\n      0x0100\n      exp\n      swap1\n      div\n      0xff\n      and\n        /* \"contracts/GoDegen.sol\":4303:4362  whitelistedTokens[_tokenIn] && whitelistedTokens[_tokenOut] */\n    tag_89:\n        /* \"contracts/GoDegen.sol\":4282:4410  require(... */\n      tag_90\n      jumpi\n      mload(0x40)\n      0x08c379a000000000000000000000000000000000000000000000000000000000\n      dup2\n      mstore\n      0x04\n      add\n      tag_91\n      swap1\n      tag_92\n      jump\t// in\n    tag_91:\n      mload(0x40)\n      dup1\n      swap2\n      sub\n      swap1\n      revert\n    tag_90:\n        /* \"contracts/GoDegen.sol\":595:598  1e4 */\n      0x2710\n        /* \"contracts/GoDegen.sol\":4428:4437  _amountIn */\n      dup4\n        /* \"contracts/GoDegen.sol\":4428:4457  _amountIn >= MIN_TRADE_AMOUNT */\n      lt\n      iszero\n        /* \"contracts/GoDegen.sol\":4420:4476  require(_amountIn >= MIN_TRADE_AMOUNT, \"Amount too low\") */\n      tag_93\n      jumpi\n      mload(0x40)\n      0x08c379a000000000000000000000000000000000000000000000000000000000\n      dup2\n      mstore\n      0x04\n      add\n      tag_94\n      swap1\n      tag_95\n      jump\t// in\n    tag_94:\n      mload(0x40)\n      dup1\n      swap2\n      sub\n      swap1\n      revert\n    tag_93:\n        /* \"contracts/GoDegen.sol\":4522:4534  address pool */\n      0x00\n        /* \"contracts/GoDegen.sol\":4536:4546  uint24 fee */\n      dup1\n        /* \"contracts/GoDegen.sol\":4550:4583  findBestPool(_tokenIn, _tokenOut) */\n      tag_96\n        /* \"contracts/GoDegen.sol\":4563:4571  _tokenIn */\n      dup8\n        /* \"contracts/GoDegen.sol\":4573:4582  _tokenOut */\n      dup8\n        /* \"contracts/GoDegen.sol\":4550:4562  findBestPool */\n      tag_66\n        /* \"contracts/GoDegen.sol\":4550:4583  findBestPool(_tokenIn, _tokenOut) */\n      jump\t// in\n    tag_96:\n        /* \"contracts/GoDegen.sol\":4521:4583  (address pool, uint24 fee) = findBestPool(_tokenIn, _tokenOut) */\n      swap2\n      pop\n      swap2\n      pop\n        /* \"contracts/GoDegen.sol\":4639:4659  uint256 quotedAmount */\n      0x00\n        /* \"contracts/GoDegen.sol\":4669:4675  quoter */\n      immutable(\"0xf4c2b5de886427473655d4c904c743576dc2d53249b7535d96c06cc97ae7216b\")\n        /* \"contracts/GoDegen.sol\":4669:4697  quoter.quoteExactInputSingle */\n      0xffffffffffffffffffffffffffffffffffffffff\n      and\n      0xf7729d43\n        /* \"contracts/GoDegen.sol\":4711:4719  _tokenIn */\n      dup10\n        /* \"contracts/GoDegen.sol\":4733:4742  _tokenOut */\n      dup10\n        /* \"contracts/GoDegen.sol\":4756:4759  fee */\n      dup6\n        /* \"contracts/GoDegen.sol\":4773:4782  _amountIn */\n      dup11\n        /* \"contracts/GoDegen.sol\":4796:4797  0 */\n      0x00\n        /* \"contracts/GoDegen.sol\":4669:4807  quoter.quoteExactInputSingle(... */\n      mload(0x40)\n      dup7\n      0xffffffff\n      and\n      0xe0\n      shl\n      dup2\n      mstore\n      0x04\n      add\n      tag_97\n      swap6\n      swap5\n      swap4\n      swap3\n      swap2\n      swap1\n      tag_98\n      jump\t// in\n    tag_97:\n      0x80\n      mload(0x40)\n      dup1\n      dup4\n      sub\n      dup2\n      0x00\n      dup8\n      gas\n      call\n      iszero\n      dup1\n      iszero\n      tag_100\n      jumpi\n      returndatasize\n      0x00\n      dup1\n      returndatacopy\n      revert(0x00, returndatasize)\n    tag_100:\n      pop\n      pop\n      pop\n      pop\n      mload(0x40)\n      returndatasize\n      not(0x1f)\n      0x1f\n      dup3\n      add\n      and\n      dup3\n      add\n      dup1\n      0x40\n      mstore\n      pop\n      dup2\n      add\n      swap1\n      tag_101\n      swap2\n      swap1\n      tag_102\n      jump\t// in\n    tag_101:\n        /* \"contracts/GoDegen.sol\":4638:4807  (uint256 quotedAmount, , , ) = quoter.quoteExactInputSingle(... */\n      pop\n      pop\n      pop\n      swap1\n      pop\n        /* \"contracts/GoDegen.sol\":4818:4838  uint256 minAmountOut */\n      0x00\n        /* \"contracts/GoDegen.sol\":4883:4888  10000 */\n      0x2710\n        /* \"contracts/GoDegen.sol\":536:539  200 */\n      0xc8\n        /* \"contracts/GoDegen.sol\":4858:4863  10000 */\n      0x2710\n        /* \"contracts/GoDegen.sol\":4858:4878  10000 - MAX_SLIPPAGE */\n      tag_103\n      swap2\n      swap1\n      tag_104\n      jump\t// in\n    tag_103:\n        /* \"contracts/GoDegen.sol\":4842:4854  quotedAmount */\n      dup4\n        /* \"contracts/GoDegen.sol\":4842:4879  quotedAmount * (10000 - MAX_SLIPPAGE) */\n      tag_105\n      swap2\n      swap1\n      tag_106\n      jump\t// in\n    tag_105:\n        /* \"contracts/GoDegen.sol\":4841:4888  (quotedAmount * (10000 - MAX_SLIPPAGE)) / 10000 */\n      tag_107\n      swap2\n      swap1\n      tag_108\n      jump\t// in\n    tag_107:\n        /* \"contracts/GoDegen.sol\":4818:4888  uint256 minAmountOut = (quotedAmount * (10000 - MAX_SLIPPAGE)) / 10000 */\n      swap1\n      pop\n        /* \"contracts/GoDegen.sol\":4945:4953  _tokenIn */\n      dup9\n        /* \"contracts/GoDegen.sol\":4938:4967  IERC20(_tokenIn).transferFrom */\n      0xffffffffffffffffffffffffffffffffffffffff\n      and\n      0x23b872dd\n        /* \"contracts/GoDegen.sol\":4968:4978  msg.sender */\n      caller\n        /* \"contracts/GoDegen.sol\":4988:4992  this */\n      address\n        /* \"contracts/GoDegen.sol\":4995:5004  _amountIn */\n      dup11\n        /* \"contracts/GoDegen.sol\":4938:5005  IERC20(_tokenIn).transferFrom(msg.sender, address(this), _amountIn) */\n      mload(0x40)\n      dup5\n      0xffffffff\n      and\n      0xe0\n      shl\n      dup2\n      mstore\n      0x04\n      add\n      tag_109\n      swap4\n      swap3\n      swap2\n      swap1\n      tag_110\n      jump\t// in\n    tag_109:\n      0x20\n      mload(0x40)\n      dup1\n      dup4\n      sub\n      dup2\n      0x00\n      dup8\n      gas\n      call\n      iszero\n      dup1\n      iszero\n      tag_112\n      jumpi\n      returndatasize\n      0x00\n      dup1\n      returndatacopy\n      revert(0x00, returndatasize)\n    tag_112:\n      pop\n      pop\n      pop\n      pop\n      mload(0x40)\n      returndatasize\n      not(0x1f)\n      0x1f\n      dup3\n      add\n      and\n      dup3\n      add\n      dup1\n      0x40\n      mstore\n      pop\n      dup2\n      add\n      swap1\n      tag_113\n      swap2\n      swap1\n      tag_114\n      jump\t// in\n    tag_113:\n      pop\n        /* \"contracts/GoDegen.sol\":5049:5057  _tokenIn */\n      dup9\n        /* \"contracts/GoDegen.sol\":5042:5066  IERC20(_tokenIn).approve */\n      0xffffffffffffffffffffffffffffffffffffffff\n      and\n      0x095ea7b3\n        /* \"contracts/GoDegen.sol\":5075:5085  swapRouter */\n      immutable(\"0x1d3be50b2bb17407dd170f1d5da128d1def30c6b1598d6a629e79b4775265526\")\n        /* \"contracts/GoDegen.sol\":5088:5097  _amountIn */\n      dup10\n        /* \"contracts/GoDegen.sol\":5042:5098  IERC20(_tokenIn).approve(address(swapRouter), _amountIn) */\n      mload(0x40)\n      dup4\n      0xffffffff\n      and\n      0xe0\n      shl\n      dup2\n      mstore\n      0x04\n      add\n      tag_115\n      swap3\n      swap2\n      swap1\n      tag_116\n      jump\t// in\n    tag_115:\n      0x20\n      mload(0x40)\n      dup1\n      dup4\n      sub\n      dup2\n      0x00\n      dup8\n      gas\n      call\n      iszero\n      dup1\n      iszero\n      tag_118\n      jumpi\n      returndatasize\n      0x00\n      dup1\n      returndatacopy\n      revert(0x00, returndatasize)\n    tag_118:\n      pop\n      pop\n      pop\n      pop\n      mload(0x40)\n      returndatasize\n      not(0x1f)\n      0x1f\n      dup3\n      add\n      and\n      dup3\n      add\n      dup1\n      0x40\n      mstore\n      pop\n      dup2\n      add\n      swap1\n      tag_119\n      swap2\n      swap1\n      tag_114\n      jump\t// in\n    tag_119:\n      pop\n        /* \"contracts/GoDegen.sol\":5133:5181  ISwapRouter.ExactInputSingleParams memory params */\n      0x00\n        /* \"contracts/GoDegen.sol\":5184:5571  ISwapRouter... */\n      mload(0x40)\n      dup1\n      0x0100\n      add\n      0x40\n      mstore\n      dup1\n        /* \"contracts/GoDegen.sol\":5259:5267  _tokenIn */\n      dup12\n        /* \"contracts/GoDegen.sol\":5184:5571  ISwapRouter... */\n      0xffffffffffffffffffffffffffffffffffffffff\n      and\n      dup2\n      mstore\n      0x20\n      add\n        /* \"contracts/GoDegen.sol\":5295:5304  _tokenOut */\n      dup11\n        /* \"contracts/GoDegen.sol\":5184:5571  ISwapRouter... */\n      0xffffffffffffffffffffffffffffffffffffffff\n      and\n      dup2\n      mstore\n      0x20\n      add\n        /* \"contracts/GoDegen.sol\":5327:5330  fee */\n      dup6\n        /* \"contracts/GoDegen.sol\":5184:5571  ISwapRouter... */\n      0xffffff\n      and\n      dup2\n      mstore\n      0x20\n      add\n        /* \"contracts/GoDegen.sol\":5359:5369  _recipient */\n      dup9\n        /* \"contracts/GoDegen.sol\":5184:5571  ISwapRouter... */\n      0xffffffffffffffffffffffffffffffffffffffff\n      and\n      dup2\n      mstore\n      0x20\n      add\n        /* \"contracts/GoDegen.sol\":481:491  20 minutes */\n      0x04b0\n        /* \"contracts/GoDegen.sol\":5397:5412  block.timestamp */\n      timestamp\n        /* \"contracts/GoDegen.sol\":5397:5433  block.timestamp + DEADLINE_EXTENSION */\n      tag_120\n      swap2\n      swap1\n      tag_121\n      jump\t// in\n    tag_120:\n        /* \"contracts/GoDegen.sol\":5184:5571  ISwapRouter... */\n      dup2\n      mstore\n      0x20\n      add\n        /* \"contracts/GoDegen.sol\":5461:5470  _amountIn */\n      dup10\n        /* \"contracts/GoDegen.sol\":5184:5571  ISwapRouter... */\n      dup2\n      mstore\n      0x20\n      add\n        /* \"contracts/GoDegen.sol\":5506:5518  minAmountOut */\n      dup4\n        /* \"contracts/GoDegen.sol\":5184:5571  ISwapRouter... */\n      dup2\n      mstore\n      0x20\n      add\n        /* \"contracts/GoDegen.sol\":5555:5556  0 */\n      0x00\n        /* \"contracts/GoDegen.sol\":5184:5571  ISwapRouter... */\n      0xffffffffffffffffffffffffffffffffffffffff\n      and\n      dup2\n      mstore\n      pop\n        /* \"contracts/GoDegen.sol\":5133:5571  ISwapRouter.ExactInputSingleParams memory params = ISwapRouter... */\n      swap1\n      pop\n        /* \"contracts/GoDegen.sol\":5594:5604  swapRouter */\n      immutable(\"0x1d3be50b2bb17407dd170f1d5da128d1def30c6b1598d6a629e79b4775265526\")\n        /* \"contracts/GoDegen.sol\":5594:5621  swapRouter.exactInputSingle */\n      0xffffffffffffffffffffffffffffffffffffffff\n      and\n      0x414bf389\n        /* \"contracts/GoDegen.sol\":5622:5628  params */\n      dup3\n        /* \"contracts/GoDegen.sol\":5594:5629  swapRouter.exactInputSingle(params) */\n      mload(0x40)\n      dup3\n      0xffffffff\n      and\n      0xe0\n      shl\n      dup2\n      mstore\n      0x04\n      add\n      tag_122\n      swap2\n      swap1\n      tag_123\n      jump\t// in\n    tag_122:\n      0x20\n      mload(0x40)\n      dup1\n      dup4\n      sub\n      dup2\n      0x00\n      dup8\n      gas\n      call\n      iszero\n      dup1\n      iszero\n      tag_125\n      jumpi\n      returndatasize\n      0x00\n      dup1\n      returndatacopy\n      revert(0x00, returndatasize)\n    tag_125:\n      pop\n      pop\n      pop\n      pop\n      mload(0x40)\n      returndatasize\n      not(0x1f)\n      0x1f\n      dup3\n      add\n      and\n      dup3\n      add\n      dup1\n      0x40\n      mstore\n      pop\n      dup2\n      add\n      swap1\n      tag_126\n      swap2\n      swap1\n      tag_127\n      jump\t// in\n    tag_126:\n        /* \"contracts/GoDegen.sol\":5582:5629  amountOut = swapRouter.exactInputSingle(params) */\n      swap6\n      pop\n        /* \"contracts/GoDegen.sol\":5645:5800  TradeExecuted(... */\n      0x4c0bb63f8d47428a342c2a12f0dfd2a4c6910d09d38d94ad5593619c892931b8\n        /* \"contracts/GoDegen.sol\":5672:5680  _tokenIn */\n      dup11\n        /* \"contracts/GoDegen.sol\":5694:5703  _tokenOut */\n      dup11\n        /* \"contracts/GoDegen.sol\":5717:5726  _amountIn */\n      dup11\n        /* \"contracts/GoDegen.sol\":5740:5749  amountOut */\n      dup10\n        /* \"contracts/GoDegen.sol\":5763:5773  _recipient */\n      dup12\n        /* \"contracts/GoDegen.sol\":5787:5790  fee */\n      dup10\n        /* \"contracts/GoDegen.sol\":5645:5800  TradeExecuted(... */\n      mload(0x40)\n      tag_128\n      swap7\n      swap6\n      swap5\n      swap4\n      swap3\n      swap2\n      swap1\n      tag_129\n      jump\t// in\n    tag_128:\n      mload(0x40)\n      dup1\n      swap2\n      sub\n      swap1\n      log1\n        /* \"contracts/GoDegen.sol\":5811:5827  return amountOut */\n      pop\n      pop\n      pop\n      pop\n      pop\n        /* \"contracts/GoDegen.sol\":4093:5834  function executeManualTrade(... */\n      swap5\n      swap4\n      pop\n      pop\n      pop\n      pop\n      jump\t// out\n        /* \"contracts/GoDegen.sol\":186:206  address public owner */\n    tag_44:\n      0x00\n      dup1\n      sload\n      swap1\n      0x0100\n      exp\n      swap1\n      div\n      0xffffffffffffffffffffffffffffffffffffffff\n      and\n      dup2\n      jump\t// out\n        /* \"contracts/GoDegen.sol\":2296:4087  function executeTrade(... */\n    tag_49:\n        /* \"contracts/GoDegen.sol\":2495:2512  uint256 amountOut */\n      0x00\n        /* \"contracts/GoDegen.sol\":1324:1332  aiOracle */\n      0x01\n      0x00\n      swap1\n      sload\n      swap1\n      0x0100\n      exp\n      swap1\n      div\n      0xffffffffffffffffffffffffffffffffffffffff\n      and\n        /* \"contracts/GoDegen.sol\":1310:1332  msg.sender == aiOracle */\n      0xffffffffffffffffffffffffffffffffffffffff\n      and\n        /* \"contracts/GoDegen.sol\":1310:1320  msg.sender */\n      caller\n        /* \"contracts/GoDegen.sol\":1310:1332  msg.sender == aiOracle */\n      0xffffffffffffffffffffffffffffffffffffffff\n      and\n      eq\n        /* \"contracts/GoDegen.sol\":1302:1350  require(msg.sender == aiOracle, \"Not AI Oracle\") */\n      tag_131\n      jumpi\n      mload(0x40)\n      0x08c379a000000000000000000000000000000000000000000000000000000000\n      dup2\n      mstore\n      0x04\n      add\n      tag_132\n      swap1\n      tag_133\n      jump\t// in\n    tag_132:\n      mload(0x40)\n      dup1\n      swap2\n      sub\n      swap1\n      revert\n    tag_131:\n        /* \"contracts/GoDegen.sol\":2545:2562  whitelistedTokens */\n      0x03\n        /* \"contracts/GoDegen.sol\":2545:2572  whitelistedTokens[_tokenIn] */\n      0x00\n        /* \"contracts/GoDegen.sol\":2563:2571  _tokenIn */\n      dup9\n        /* \"contracts/GoDegen.sol\":2545:2572  whitelistedTokens[_tokenIn] */\n      0xffffffffffffffffffffffffffffffffffffffff\n      and\n      0xffffffffffffffffffffffffffffffffffffffff\n      and\n      dup2\n      mstore\n      0x20\n      add\n      swap1\n      dup2\n      mstore\n      0x20\n      add\n      0x00\n      keccak256\n      0x00\n      swap1\n      sload\n      swap1\n      0x0100\n      exp\n      swap1\n      div\n      0xff\n      and\n        /* \"contracts/GoDegen.sol\":2545:2604  whitelistedTokens[_tokenIn] && whitelistedTokens[_tokenOut] */\n      dup1\n      iszero\n      tag_135\n      jumpi\n      pop\n        /* \"contracts/GoDegen.sol\":2576:2593  whitelistedTokens */\n      0x03\n        /* \"contracts/GoDegen.sol\":2576:2604  whitelistedTokens[_tokenOut] */\n      0x00\n        /* \"contracts/GoDegen.sol\":2594:2603  _tokenOut */\n      dup8\n        /* \"contracts/GoDegen.sol\":2576:2604  whitelistedTokens[_tokenOut] */\n      0xffffffffffffffffffffffffffffffffffffffff\n      and\n      0xffffffffffffffffffffffffffffffffffffffff\n      and\n      dup2\n      mstore\n      0x20\n      add\n      swap1\n      dup2\n      mstore\n      0x20\n      add\n      0x00\n      keccak256\n      0x00\n      swap1\n      sload\n      swap1\n      0x0100\n      exp\n      swap1\n      div\n      0xff\n      and\n        /* \"contracts/GoDegen.sol\":2545:2604  whitelistedTokens[_tokenIn] && whitelistedTokens[_tokenOut] */\n    tag_135:\n        /* \"contracts/GoDegen.sol\":2524:2652  require(... */\n      tag_136\n      jumpi\n      mload(0x40)\n      0x08c379a000000000000000000000000000000000000000000000000000000000\n      dup2\n      mstore\n      0x04\n      add\n      tag_137\n      swap1\n      tag_92\n      jump\t// in\n    tag_137:\n      mload(0x40)\n      dup1\n      swap2\n      sub\n      swap1\n      revert\n    tag_136:\n        /* \"contracts/GoDegen.sol\":595:598  1e4 */\n      0x2710\n        /* \"contracts/GoDegen.sol\":2670:2679  _amountIn */\n      dup6\n        /* \"contracts/GoDegen.sol\":2670:2699  _amountIn >= MIN_TRADE_AMOUNT */\n      lt\n      iszero\n        /* \"contracts/GoDegen.sol\":2662:2718  require(_amountIn >= MIN_TRADE_AMOUNT, \"Amount too low\") */\n      tag_138\n      jumpi\n      mload(0x40)\n      0x08c379a000000000000000000000000000000000000000000000000000000000\n      dup2\n      mstore\n      0x04\n      add\n      tag_139\n      swap1\n      tag_95\n      jump\t// in\n    tag_139:\n      mload(0x40)\n      dup1\n      swap2\n      sub\n      swap1\n      revert\n    tag_138:\n        /* \"contracts/GoDegen.sol\":2764:2776  address pool */\n      0x00\n        /* \"contracts/GoDegen.sol\":2778:2788  uint24 fee */\n      dup1\n        /* \"contracts/GoDegen.sol\":2792:2825  findBestPool(_tokenIn, _tokenOut) */\n      tag_140\n        /* \"contracts/GoDegen.sol\":2805:2813  _tokenIn */\n      dup10\n        /* \"contracts/GoDegen.sol\":2815:2824  _tokenOut */\n      dup10\n        /* \"contracts/GoDegen.sol\":2792:2804  findBestPool */\n      tag_66\n        /* \"contracts/GoDegen.sol\":2792:2825  findBestPool(_tokenIn, _tokenOut) */\n      jump\t// in\n    tag_140:\n        /* \"contracts/GoDegen.sol\":2763:2825  (address pool, uint24 fee) = findBestPool(_tokenIn, _tokenOut) */\n      swap2\n      pop\n      swap2\n      pop\n        /* \"contracts/GoDegen.sol\":2881:2901  uint256 quotedAmount */\n      0x00\n        /* \"contracts/GoDegen.sol\":2911:2917  quoter */\n      immutable(\"0xf4c2b5de886427473655d4c904c743576dc2d53249b7535d96c06cc97ae7216b\")\n        /* \"contracts/GoDegen.sol\":2911:2939  quoter.quoteExactInputSingle */\n      0xffffffffffffffffffffffffffffffffffffffff\n      and\n      0xf7729d43\n        /* \"contracts/GoDegen.sol\":2953:2961  _tokenIn */\n      dup12\n        /* \"contracts/GoDegen.sol\":2975:2984  _tokenOut */\n      dup12\n        /* \"contracts/GoDegen.sol\":2998:3001  fee */\n      dup6\n        /* \"contracts/GoDegen.sol\":3015:3024  _amountIn */\n      dup13\n        /* \"contracts/GoDegen.sol\":3038:3039  0 */\n      0x00\n        /* \"contracts/GoDegen.sol\":2911:3049  quoter.quoteExactInputSingle(... */\n      mload(0x40)\n      dup7\n      0xffffffff\n      and\n      0xe0\n      shl\n      dup2\n      mstore\n      0x04\n      add\n      tag_141\n      swap6\n      swap5\n      swap4\n      swap3\n      swap2\n      swap1\n      tag_98\n      jump\t// in\n    tag_141:\n      0x80\n      mload(0x40)\n      dup1\n      dup4\n      sub\n      dup2\n      0x00\n      dup8\n      gas\n      call\n      iszero\n      dup1\n      iszero\n      tag_143\n      jumpi\n      returndatasize\n      0x00\n      dup1\n      returndatacopy\n      revert(0x00, returndatasize)\n    tag_143:\n      pop\n      pop\n      pop\n      pop\n      mload(0x40)\n      returndatasize\n      not(0x1f)\n      0x1f\n      dup3\n      add\n      and\n      dup3\n      add\n      dup1\n      0x40\n      mstore\n      pop\n      dup2\n      add\n      swap1\n      tag_144\n      swap2\n      swap1\n      tag_102\n      jump\t// in\n    tag_144:\n        /* \"contracts/GoDegen.sol\":2880:3049  (uint256 quotedAmount, , , ) = quoter.quoteExactInputSingle(... */\n      pop\n      pop\n      pop\n      swap1\n      pop\n        /* \"contracts/GoDegen.sol\":3060:3080  uint256 minAmountOut */\n      0x00\n        /* \"contracts/GoDegen.sol\":3125:3130  10000 */\n      0x2710\n        /* \"contracts/GoDegen.sol\":536:539  200 */\n      0xc8\n        /* \"contracts/GoDegen.sol\":3100:3105  10000 */\n      0x2710\n        /* \"contracts/GoDegen.sol\":3100:3120  10000 - MAX_SLIPPAGE */\n      tag_145\n      swap2\n      swap1\n      tag_104\n      jump\t// in\n    tag_145:\n        /* \"contracts/GoDegen.sol\":3084:3096  quotedAmount */\n      dup4\n        /* \"contracts/GoDegen.sol\":3084:3121  quotedAmount * (10000 - MAX_SLIPPAGE) */\n      tag_146\n      swap2\n      swap1\n      tag_106\n      jump\t// in\n    tag_146:\n        /* \"contracts/GoDegen.sol\":3083:3130  (quotedAmount * (10000 - MAX_SLIPPAGE)) / 10000 */\n      tag_147\n      swap2\n      swap1\n      tag_108\n      jump\t// in\n    tag_147:\n        /* \"contracts/GoDegen.sol\":3060:3130  uint256 minAmountOut = (quotedAmount * (10000 - MAX_SLIPPAGE)) / 10000 */\n      swap1\n      pop\n        /* \"contracts/GoDegen.sol\":3198:3206  _tokenIn */\n      dup11\n        /* \"contracts/GoDegen.sol\":3191:3220  IERC20(_tokenIn).transferFrom */\n      0xffffffffffffffffffffffffffffffffffffffff\n      and\n      0x23b872dd\n        /* \"contracts/GoDegen.sol\":3221:3231  msg.sender */\n      caller\n        /* \"contracts/GoDegen.sol\":3241:3245  this */\n      address\n        /* \"contracts/GoDegen.sol\":3248:3257  _amountIn */\n      dup13\n        /* \"contracts/GoDegen.sol\":3191:3258  IERC20(_tokenIn).transferFrom(msg.sender, address(this), _amountIn) */\n      mload(0x40)\n      dup5\n      0xffffffff\n      and\n      0xe0\n      shl\n      dup2\n      mstore\n      0x04\n      add\n      tag_148\n      swap4\n      swap3\n      swap2\n      swap1\n      tag_110\n      jump\t// in\n    tag_148:\n      0x20\n      mload(0x40)\n      dup1\n      dup4\n      sub\n      dup2\n      0x00\n      dup8\n      gas\n      call\n      iszero\n      dup1\n      iszero\n      tag_150\n      jumpi\n      returndatasize\n      0x00\n      dup1\n      returndatacopy\n      revert(0x00, returndatasize)\n    tag_150:\n      pop\n      pop\n      pop\n      pop\n      mload(0x40)\n      returndatasize\n      not(0x1f)\n      0x1f\n      dup3\n      add\n      and\n      dup3\n      add\n      dup1\n      0x40\n      mstore\n      pop\n      dup2\n      add\n      swap1\n      tag_151\n      swap2\n      swap1\n      tag_114\n      jump\t// in\n    tag_151:\n      pop\n        /* \"contracts/GoDegen.sol\":3302:3310  _tokenIn */\n      dup11\n        /* \"contracts/GoDegen.sol\":3295:3319  IERC20(_tokenIn).approve */\n      0xffffffffffffffffffffffffffffffffffffffff\n      and\n      0x095ea7b3\n        /* \"contracts/GoDegen.sol\":3328:3338  swapRouter */\n      immutable(\"0x1d3be50b2bb17407dd170f1d5da128d1def30c6b1598d6a629e79b4775265526\")\n        /* \"contracts/GoDegen.sol\":3341:3350  _amountIn */\n      dup12\n        /* \"contracts/GoDegen.sol\":3295:3351  IERC20(_tokenIn).approve(address(swapRouter), _amountIn) */\n      mload(0x40)\n      dup4\n      0xffffffff\n      and\n      0xe0\n      shl\n      dup2\n      mstore\n      0x04\n      add\n      tag_152\n      swap3\n      swap2\n      swap1\n      tag_116\n      jump\t// in\n    tag_152:\n      0x20\n      mload(0x40)\n      dup1\n      dup4\n      sub\n      dup2\n      0x00\n      dup8\n      gas\n      call\n      iszero\n      dup1\n      iszero\n      tag_154\n      jumpi\n      returndatasize\n      0x00\n      dup1\n      returndatacopy\n      revert(0x00, returndatasize)\n    tag_154:\n      pop\n      pop\n      pop\n      pop\n      mload(0x40)\n      returndatasize\n      not(0x1f)\n      0x1f\n      dup3\n      add\n      and\n      dup3\n      add\n      dup1\n      0x40\n      mstore\n      pop\n      dup2\n      add\n      swap1\n      tag_155\n      swap2\n      swap1\n      tag_114\n      jump\t// in\n    tag_155:\n      pop\n        /* \"contracts/GoDegen.sol\":3386:3434  ISwapRouter.ExactInputSingleParams memory params */\n      0x00\n        /* \"contracts/GoDegen.sol\":3437:3824  ISwapRouter... */\n      mload(0x40)\n      dup1\n      0x0100\n      add\n      0x40\n      mstore\n      dup1\n        /* \"contracts/GoDegen.sol\":3512:3520  _tokenIn */\n      dup14\n        /* \"contracts/GoDegen.sol\":3437:3824  ISwapRouter... */\n      0xffffffffffffffffffffffffffffffffffffffff\n      and\n      dup2\n      mstore\n      0x20\n      add\n        /* \"contracts/GoDegen.sol\":3548:3557  _tokenOut */\n      dup13\n        /* \"contracts/GoDegen.sol\":3437:3824  ISwapRouter... */\n      0xffffffffffffffffffffffffffffffffffffffff\n      and\n      dup2\n      mstore\n      0x20\n      add\n        /* \"contracts/GoDegen.sol\":3580:3583  fee */\n      dup6\n        /* \"contracts/GoDegen.sol\":3437:3824  ISwapRouter... */\n      0xffffff\n      and\n      dup2\n      mstore\n      0x20\n      add\n        /* \"contracts/GoDegen.sol\":3612:3622  _recipient */\n      dup11\n        /* \"contracts/GoDegen.sol\":3437:3824  ISwapRouter... */\n      0xffffffffffffffffffffffffffffffffffffffff\n      and\n      dup2\n      mstore\n      0x20\n      add\n        /* \"contracts/GoDegen.sol\":481:491  20 minutes */\n      0x04b0\n        /* \"contracts/GoDegen.sol\":3650:3665  block.timestamp */\n      timestamp\n        /* \"contracts/GoDegen.sol\":3650:3686  block.timestamp + DEADLINE_EXTENSION */\n      tag_156\n      swap2\n      swap1\n      tag_121\n      jump\t// in\n    tag_156:\n        /* \"contracts/GoDegen.sol\":3437:3824  ISwapRouter... */\n      dup2\n      mstore\n      0x20\n      add\n        /* \"contracts/GoDegen.sol\":3714:3723  _amountIn */\n      dup12\n        /* \"contracts/GoDegen.sol\":3437:3824  ISwapRouter... */\n      dup2\n      mstore\n      0x20\n      add\n        /* \"contracts/GoDegen.sol\":3759:3771  minAmountOut */\n      dup4\n        /* \"contracts/GoDegen.sol\":3437:3824  ISwapRouter... */\n      dup2\n      mstore\n      0x20\n      add\n        /* \"contracts/GoDegen.sol\":3808:3809  0 */\n      0x00\n        /* \"contracts/GoDegen.sol\":3437:3824  ISwapRouter... */\n      0xffffffffffffffffffffffffffffffffffffffff\n      and\n      dup2\n      mstore\n      pop\n        /* \"contracts/GoDegen.sol\":3386:3824  ISwapRouter.ExactInputSingleParams memory params = ISwapRouter... */\n      swap1\n      pop\n        /* \"contracts/GoDegen.sol\":3847:3857  swapRouter */\n      immutable(\"0x1d3be50b2bb17407dd170f1d5da128d1def30c6b1598d6a629e79b4775265526\")\n        /* \"contracts/GoDegen.sol\":3847:3874  swapRouter.exactInputSingle */\n      0xffffffffffffffffffffffffffffffffffffffff\n      and\n      0x414bf389\n        /* \"contracts/GoDegen.sol\":3875:3881  params */\n      dup3\n        /* \"contracts/GoDegen.sol\":3847:3882  swapRouter.exactInputSingle(params) */\n      mload(0x40)\n      dup3\n      0xffffffff\n      and\n      0xe0\n      shl\n      dup2\n      mstore\n      0x04\n      add\n      tag_157\n      swap2\n      swap1\n      tag_123\n      jump\t// in\n    tag_157:\n      0x20\n      mload(0x40)\n      dup1\n      dup4\n      sub\n      dup2\n      0x00\n      dup8\n      gas\n      call\n      iszero\n      dup1\n      iszero\n      tag_159\n      jumpi\n      returndatasize\n      0x00\n      dup1\n      returndatacopy\n      revert(0x00, returndatasize)\n    tag_159:\n      pop\n      pop\n      pop\n      pop\n      mload(0x40)\n      returndatasize\n      not(0x1f)\n      0x1f\n      dup3\n      add\n      and\n      dup3\n      add\n      dup1\n      0x40\n      mstore\n      pop\n      dup2\n      add\n      swap1\n      tag_160\n      swap2\n      swap1\n      tag_127\n      jump\t// in\n    tag_160:\n        /* \"contracts/GoDegen.sol\":3835:3882  amountOut = swapRouter.exactInputSingle(params) */\n      swap6\n      pop\n        /* \"contracts/GoDegen.sol\":3898:4053  TradeExecuted(... */\n      0x4c0bb63f8d47428a342c2a12f0dfd2a4c6910d09d38d94ad5593619c892931b8\n        /* \"contracts/GoDegen.sol\":3925:3933  _tokenIn */\n      dup13\n        /* \"contracts/GoDegen.sol\":3947:3956  _tokenOut */\n      dup13\n        /* \"contracts/GoDegen.sol\":3970:3979  _amountIn */\n      dup13\n        /* \"contracts/GoDegen.sol\":3993:4002  amountOut */\n      dup10\n        /* \"contracts/GoDegen.sol\":4016:4026  _recipient */\n      dup14\n        /* \"contracts/GoDegen.sol\":4040:4043  fee */\n      dup10\n        /* \"contracts/GoDegen.sol\":3898:4053  TradeExecuted(... */\n      mload(0x40)\n      tag_161\n      swap7\n      swap6\n      swap5\n      swap4\n      swap3\n      swap2\n      swap1\n      tag_129\n      jump\t// in\n    tag_161:\n      mload(0x40)\n      dup1\n      swap2\n      sub\n      swap1\n      log1\n        /* \"contracts/GoDegen.sol\":4064:4080  return amountOut */\n      pop\n      pop\n      pop\n      pop\n      pop\n        /* \"contracts/GoDegen.sol\":2296:4087  function executeTrade(... */\n      swap7\n      swap6\n      pop\n      pop\n      pop\n      pop\n      pop\n      pop\n      jump\t// out\n        /* \"contracts/GoDegen.sol\":241:280  ISwapRouter public immutable swapRouter */\n    tag_52:\n      immutable(\"0x1d3be50b2bb17407dd170f1d5da128d1def30c6b1598d6a629e79b4775265526\")\n      dup2\n      jump\t// out\n        /* \"contracts/GoDegen.sol\":286:328  IUniswapV3Factory public immutable factory */\n    tag_56:\n      immutable(\"0x8fef2229291b68be841adf029e58b87f39ba144b2d3b0af1760243d0a9bc6a1c\")\n      dup2\n      jump\t// out\n        /* \"contracts/GoDegen.sol\":334:367  IQuoterV2 public immutable quoter */\n    tag_60:\n      immutable(\"0xf4c2b5de886427473655d4c904c743576dc2d53249b7535d96c06cc97ae7216b\")\n      dup2\n      jump\t// out\n        /* \"contracts/GoDegen.sol\":1505:2290  function findBestPool(... */\n    tag_66:\n        /* \"contracts/GoDegen.sol\":1607:1619  address pool */\n      0x00\n        /* \"contracts/GoDegen.sol\":1621:1631  uint24 fee */\n      dup1\n        /* \"contracts/GoDegen.sol\":1643:1664  uint256 bestLiquidity */\n      0x00\n        /* \"contracts/GoDegen.sol\":1684:1693  uint256 i */\n      dup1\n        /* \"contracts/GoDegen.sol\":1679:2230  for (uint256 i = 0; i < SUPPORTED_FEES.length; i++) {... */\n    tag_163:\n        /* \"contracts/GoDegen.sol\":1703:1717  SUPPORTED_FEES */\n      0x02\n        /* \"contracts/GoDegen.sol\":1703:1724  SUPPORTED_FEES.length */\n      dup1\n      sload\n      swap1\n      pop\n        /* \"contracts/GoDegen.sol\":1699:1700  i */\n      dup2\n        /* \"contracts/GoDegen.sol\":1699:1724  i < SUPPORTED_FEES.length */\n      lt\n        /* \"contracts/GoDegen.sol\":1679:2230  for (uint256 i = 0; i < SUPPORTED_FEES.length; i++) {... */\n      iszero\n      tag_164\n      jumpi\n        /* \"contracts/GoDegen.sol\":1745:1764  address currentPool */\n      0x00\n        /* \"contracts/GoDegen.sol\":1767:1774  factory */\n      immutable(\"0x8fef2229291b68be841adf029e58b87f39ba144b2d3b0af1760243d0a9bc6a1c\")\n        /* \"contracts/GoDegen.sol\":1767:1782  factory.getPool */\n      0xffffffffffffffffffffffffffffffffffffffff\n      and\n      0x1698ee82\n        /* \"contracts/GoDegen.sol\":1800:1808  _tokenIn */\n      dup9\n        /* \"contracts/GoDegen.sol\":1826:1835  _tokenOut */\n      dup9\n        /* \"contracts/GoDegen.sol\":1853:1867  SUPPORTED_FEES */\n      0x02\n        /* \"contracts/GoDegen.sol\":1868:1869  i */\n      dup7\n        /* \"contracts/GoDegen.sol\":1853:1870  SUPPORTED_FEES[i] */\n      dup2\n      sload\n      dup2\n      lt\n      tag_166\n      jumpi\n      tag_167\n      tag_168\n      jump\t// in\n    tag_167:\n    tag_166:\n      swap1\n      0x00\n      mstore\n      keccak256(0x00, 0x20)\n      swap1\n      0x0a\n      swap2\n      dup3\n      dup3\n      div\n      add\n      swap2\n      swap1\n      mod\n      0x03\n      mul\n      swap1\n      sload\n      swap1\n      0x0100\n      exp\n      swap1\n      div\n      0xffffff\n      and\n        /* \"contracts/GoDegen.sol\":1767:1884  factory.getPool(... */\n      mload(0x40)\n      dup5\n      0xffffffff\n      and\n      0xe0\n      shl\n      dup2\n      mstore\n      0x04\n      add\n      tag_170\n      swap4\n      swap3\n      swap2\n      swap1\n      tag_171\n      jump\t// in\n    tag_170:\n      0x20\n      mload(0x40)\n      dup1\n      dup4\n      sub\n      dup2\n      dup7\n      gas\n      staticcall\n      iszero\n      dup1\n      iszero\n      tag_173\n      jumpi\n      returndatasize\n      0x00\n      dup1\n      returndatacopy\n      revert(0x00, returndatasize)\n    tag_173:\n      pop\n      pop\n      pop\n      pop\n      mload(0x40)\n      returndatasize\n      not(0x1f)\n      0x1f\n      dup3\n      add\n      and\n      dup3\n      add\n      dup1\n      0x40\n      mstore\n      pop\n      dup2\n      add\n      swap1\n      tag_174\n      swap2\n      swap1\n      tag_175\n      jump\t// in\n    tag_174:\n        /* \"contracts/GoDegen.sol\":1745:1884  address currentPool = factory.getPool(... */\n      swap1\n      pop\n        /* \"contracts/GoDegen.sol\":1925:1926  0 */\n      0x00\n        /* \"contracts/GoDegen.sol\":1902:1927  currentPool != address(0) */\n      0xffffffffffffffffffffffffffffffffffffffff\n      and\n        /* \"contracts/GoDegen.sol\":1902:1913  currentPool */\n      dup2\n        /* \"contracts/GoDegen.sol\":1902:1927  currentPool != address(0) */\n      0xffffffffffffffffffffffffffffffffffffffff\n      and\n      eq\n        /* \"contracts/GoDegen.sol\":1898:2220  if (currentPool != address(0)) {... */\n      tag_176\n      jumpi\n        /* \"contracts/GoDegen.sol\":1947:1964  uint256 liquidity */\n      0x00\n        /* \"contracts/GoDegen.sol\":1974:1982  _tokenIn */\n      dup8\n        /* \"contracts/GoDegen.sol\":1967:1993  IERC20(_tokenIn).balanceOf */\n      0xffffffffffffffffffffffffffffffffffffffff\n      and\n      0x70a08231\n        /* \"contracts/GoDegen.sol\":1994:2005  currentPool */\n      dup4\n        /* \"contracts/GoDegen.sol\":1967:2006  IERC20(_tokenIn).balanceOf(currentPool) */\n      mload(0x40)\n      dup3\n      0xffffffff\n      and\n      0xe0\n      shl\n      dup2\n      mstore\n      0x04\n      add\n      tag_177\n      swap2\n      swap1\n      tag_33\n      jump\t// in\n    tag_177:\n      0x20\n      mload(0x40)\n      dup1\n      dup4\n      sub\n      dup2\n      dup7\n      gas\n      staticcall\n      iszero\n      dup1\n      iszero\n      tag_179\n      jumpi\n      returndatasize\n      0x00\n      dup1\n      returndatacopy\n      revert(0x00, returndatasize)\n    tag_179:\n      pop\n      pop\n      pop\n      pop\n      mload(0x40)\n      returndatasize\n      not(0x1f)\n      0x1f\n      dup3\n      add\n      and\n      dup3\n      add\n      dup1\n      0x40\n      mstore\n      pop\n      dup2\n      add\n      swap1\n      tag_180\n      swap2\n      swap1\n      tag_127\n      jump\t// in\n    tag_180:\n        /* \"contracts/GoDegen.sol\":1947:2006  uint256 liquidity = IERC20(_tokenIn).balanceOf(currentPool) */\n      swap1\n      pop\n        /* \"contracts/GoDegen.sol\":2040:2053  bestLiquidity */\n      dup4\n        /* \"contracts/GoDegen.sol\":2028:2037  liquidity */\n      dup2\n        /* \"contracts/GoDegen.sol\":2028:2053  liquidity > bestLiquidity */\n      gt\n        /* \"contracts/GoDegen.sol\":2024:2206  if (liquidity > bestLiquidity) {... */\n      iszero\n      tag_181\n      jumpi\n        /* \"contracts/GoDegen.sol\":2093:2102  liquidity */\n      dup1\n        /* \"contracts/GoDegen.sol\":2077:2102  bestLiquidity = liquidity */\n      swap4\n      pop\n        /* \"contracts/GoDegen.sol\":2131:2142  currentPool */\n      dup2\n        /* \"contracts/GoDegen.sol\":2124:2142  pool = currentPool */\n      swap6\n      pop\n        /* \"contracts/GoDegen.sol\":2170:2184  SUPPORTED_FEES */\n      0x02\n        /* \"contracts/GoDegen.sol\":2185:2186  i */\n      dup4\n        /* \"contracts/GoDegen.sol\":2170:2187  SUPPORTED_FEES[i] */\n      dup2\n      sload\n      dup2\n      lt\n      tag_182\n      jumpi\n      tag_183\n      tag_168\n      jump\t// in\n    tag_183:\n    tag_182:\n      swap1\n      0x00\n      mstore\n      keccak256(0x00, 0x20)\n      swap1\n      0x0a\n      swap2\n      dup3\n      dup3\n      div\n      add\n      swap2\n      swap1\n      mod\n      0x03\n      mul\n      swap1\n      sload\n      swap1\n      0x0100\n      exp\n      swap1\n      div\n      0xffffff\n      and\n        /* \"contracts/GoDegen.sol\":2164:2187  fee = SUPPORTED_FEES[i] */\n      swap5\n      pop\n        /* \"contracts/GoDegen.sol\":2024:2206  if (liquidity > bestLiquidity) {... */\n    tag_181:\n        /* \"contracts/GoDegen.sol\":1929:2220  {... */\n      pop\n        /* \"contracts/GoDegen.sol\":1898:2220  if (currentPool != address(0)) {... */\n    tag_176:\n        /* \"contracts/GoDegen.sol\":1731:2230  {... */\n      pop\n        /* \"contracts/GoDegen.sol\":1726:1729  i++ */\n      dup1\n      dup1\n      0x01\n      add\n      swap2\n      pop\n      pop\n        /* \"contracts/GoDegen.sol\":1679:2230  for (uint256 i = 0; i < SUPPORTED_FEES.length; i++) {... */\n      jump(tag_163)\n    tag_164:\n      pop\n        /* \"contracts/GoDegen.sol\":2263:2264  0 */\n      0x00\n        /* \"contracts/GoDegen.sol\":2247:2265  pool != address(0) */\n      0xffffffffffffffffffffffffffffffffffffffff\n      and\n        /* \"contracts/GoDegen.sol\":2247:2251  pool */\n      dup4\n        /* \"contracts/GoDegen.sol\":2247:2265  pool != address(0) */\n      0xffffffffffffffffffffffffffffffffffffffff\n      and\n      sub\n        /* \"contracts/GoDegen.sol\":2239:2283  require(pool != address(0), \"No pool found\") */\n      tag_185\n      jumpi\n      mload(0x40)\n      0x08c379a000000000000000000000000000000000000000000000000000000000\n      dup2\n      mstore\n      0x04\n      add\n      tag_186\n      swap1\n      tag_187\n      jump\t// in\n    tag_186:\n      mload(0x40)\n      dup1\n      swap2\n      sub\n      swap1\n      revert\n    tag_185:\n        /* \"contracts/GoDegen.sol\":1633:2290  {... */\n      pop\n        /* \"contracts/GoDegen.sol\":1505:2290  function findBestPool(... */\n      swap3\n      pop\n      swap3\n      swap1\n      pop\n      jump\t// out\n        /* \"contracts/GoDegen.sol\":618:667  mapping(address => bool) public whitelistedTokens */\n    tag_72:\n      mstore(0x20, 0x03)\n      dup1\n      0x00\n      mstore\n      keccak256(0x00, 0x40)\n      0x00\n      swap2\n      pop\n      sload\n      swap1\n      0x0100\n      exp\n      swap1\n      div\n      0xff\n      and\n      dup2\n      jump\t// out\n        /* \"contracts/GoDegen.sol\":497:539  uint256 public constant MAX_SLIPPAGE = 200 */\n    tag_76:\n        /* \"contracts/GoDegen.sol\":536:539  200 */\n      0xc8\n        /* \"contracts/GoDegen.sol\":497:539  uint256 public constant MAX_SLIPPAGE = 200 */\n      dup2\n      jump\t// out\n        /* \"contracts/GoDegen.sol\":436:491  uint256 public constant DEADLINE_EXTENSION = 20 minutes */\n    tag_79:\n        /* \"contracts/GoDegen.sol\":481:491  20 minutes */\n      0x04b0\n        /* \"contracts/GoDegen.sol\":436:491  uint256 public constant DEADLINE_EXTENSION = 20 minutes */\n      dup2\n      jump\t// out\n        /* \"#utility.yul\":88:205   */\n    tag_189:\n        /* \"#utility.yul\":197:198   */\n      0x00\n        /* \"#utility.yul\":194:195   */\n      dup1\n        /* \"#utility.yul\":187:199   */\n      revert\n        /* \"#utility.yul\":211:328   */\n    tag_190:\n        /* \"#utility.yul\":320:321   */\n      0x00\n        /* \"#utility.yul\":317:318   */\n      dup1\n        /* \"#utility.yul\":310:322   */\n      revert\n        /* \"#utility.yul\":334:411   */\n    tag_191:\n        /* \"#utility.yul\":371:378   */\n      0x00\n        /* \"#utility.yul\":400:405   */\n      dup2\n        /* \"#utility.yul\":389:405   */\n      swap1\n      pop\n        /* \"#utility.yul\":334:411   */\n      swap2\n      swap1\n      pop\n      jump\t// out\n        /* \"#utility.yul\":417:539   */\n    tag_192:\n        /* \"#utility.yul\":490:514   */\n      tag_254\n        /* \"#utility.yul\":508:513   */\n      dup2\n        /* \"#utility.yul\":490:514   */\n      tag_191\n      jump\t// in\n    tag_254:\n        /* \"#utility.yul\":483:488   */\n      dup2\n        /* \"#utility.yul\":480:515   */\n      eq\n        /* \"#utility.yul\":470:533   */\n      tag_255\n      jumpi\n        /* \"#utility.yul\":529:530   */\n      0x00\n        /* \"#utility.yul\":526:527   */\n      dup1\n        /* \"#utility.yul\":519:531   */\n      revert\n        /* \"#utility.yul\":470:533   */\n    tag_255:\n        /* \"#utility.yul\":417:539   */\n      pop\n      jump\t// out\n        /* \"#utility.yul\":545:684   */\n    tag_193:\n        /* \"#utility.yul\":591:596   */\n      0x00\n        /* \"#utility.yul\":629:635   */\n      dup2\n        /* \"#utility.yul\":616:636   */\n      calldataload\n        /* \"#utility.yul\":607:636   */\n      swap1\n      pop\n        /* \"#utility.yul\":645:678   */\n      tag_257\n        /* \"#utility.yul\":672:677   */\n      dup2\n        /* \"#utility.yul\":645:678   */\n      tag_192\n      jump\t// in\n    tag_257:\n        /* \"#utility.yul\":545:684   */\n      swap3\n      swap2\n      pop\n      pop\n      jump\t// out\n        /* \"#utility.yul\":690:1019   */\n    tag_22:\n        /* \"#utility.yul\":749:755   */\n      0x00\n        /* \"#utility.yul\":798:800   */\n      0x20\n        /* \"#utility.yul\":786:795   */\n      dup3\n        /* \"#utility.yul\":777:784   */\n      dup5\n        /* \"#utility.yul\":773:796   */\n      sub\n        /* \"#utility.yul\":769:801   */\n      slt\n        /* \"#utility.yul\":766:885   */\n      iszero\n      tag_259\n      jumpi\n        /* \"#utility.yul\":804:883   */\n      tag_260\n      tag_189\n      jump\t// in\n    tag_260:\n        /* \"#utility.yul\":766:885   */\n    tag_259:\n        /* \"#utility.yul\":924:925   */\n      0x00\n        /* \"#utility.yul\":949:1002   */\n      tag_261\n        /* \"#utility.yul\":994:1001   */\n      dup5\n        /* \"#utility.yul\":985:991   */\n      dup3\n        /* \"#utility.yul\":974:983   */\n      dup6\n        /* \"#utility.yul\":970:992   */\n      add\n        /* \"#utility.yul\":949:1002   */\n      tag_193\n      jump\t// in\n    tag_261:\n        /* \"#utility.yul\":939:1002   */\n      swap2\n      pop\n        /* \"#utility.yul\":895:1012   */\n      pop\n        /* \"#utility.yul\":690:1019   */\n      swap3\n      swap2\n      pop\n      pop\n      jump\t// out\n        /* \"#utility.yul\":1025:1116   */\n    tag_194:\n        /* \"#utility.yul\":1061:1068   */\n      0x00\n        /* \"#utility.yul\":1101:1109   */\n      0xffffff\n        /* \"#utility.yul\":1094:1099   */\n      dup3\n        /* \"#utility.yul\":1090:1110   */\n      and\n        /* \"#utility.yul\":1079:1110   */\n      swap1\n      pop\n        /* \"#utility.yul\":1025:1116   */\n      swap2\n      swap1\n      pop\n      jump\t// out\n        /* \"#utility.yul\":1122:1237   */\n    tag_195:\n        /* \"#utility.yul\":1207:1230   */\n      tag_264\n        /* \"#utility.yul\":1224:1229   */\n      dup2\n        /* \"#utility.yul\":1207:1230   */\n      tag_194\n      jump\t// in\n    tag_264:\n        /* \"#utility.yul\":1202:1205   */\n      dup3\n        /* \"#utility.yul\":1195:1231   */\n      mstore\n        /* \"#utility.yul\":1122:1237   */\n      pop\n      pop\n      jump\t// out\n        /* \"#utility.yul\":1243:1461   */\n    tag_25:\n        /* \"#utility.yul\":1334:1338   */\n      0x00\n        /* \"#utility.yul\":1372:1374   */\n      0x20\n        /* \"#utility.yul\":1361:1370   */\n      dup3\n        /* \"#utility.yul\":1357:1375   */\n      add\n        /* \"#utility.yul\":1349:1375   */\n      swap1\n      pop\n        /* \"#utility.yul\":1385:1454   */\n      tag_266\n        /* \"#utility.yul\":1451:1452   */\n      0x00\n        /* \"#utility.yul\":1440:1449   */\n      dup4\n        /* \"#utility.yul\":1436:1453   */\n      add\n        /* \"#utility.yul\":1427:1433   */\n      dup5\n        /* \"#utility.yul\":1385:1454   */\n      tag_195\n      jump\t// in\n    tag_266:\n        /* \"#utility.yul\":1243:1461   */\n      swap3\n      swap2\n      pop\n      pop\n      jump\t// out\n        /* \"#utility.yul\":1467:1593   */\n    tag_196:\n        /* \"#utility.yul\":1504:1511   */\n      0x00\n        /* \"#utility.yul\":1544:1586   */\n      0xffffffffffffffffffffffffffffffffffffffff\n        /* \"#utility.yul\":1537:1542   */\n      dup3\n        /* \"#utility.yul\":1533:1587   */\n      and\n        /* \"#utility.yul\":1522:1587   */\n      swap1\n      pop\n        /* \"#utility.yul\":1467:1593   */\n      swap2\n      swap1\n      pop\n      jump\t// out\n        /* \"#utility.yul\":1599:1695   */\n    tag_197:\n        /* \"#utility.yul\":1636:1643   */\n      0x00\n        /* \"#utility.yul\":1665:1689   */\n      tag_269\n        /* \"#utility.yul\":1683:1688   */\n      dup3\n        /* \"#utility.yul\":1665:1689   */\n      tag_196\n      jump\t// in\n    tag_269:\n        /* \"#utility.yul\":1654:1689   */\n      swap1\n      pop\n        /* \"#utility.yul\":1599:1695   */\n      swap2\n      swap1\n      pop\n      jump\t// out\n        /* \"#utility.yul\":1701:1823   */\n    tag_198:\n        /* \"#utility.yul\":1774:1798   */\n      tag_271\n        /* \"#utility.yul\":1792:1797   */\n      dup2\n        /* \"#utility.yul\":1774:1798   */\n      tag_197\n      jump\t// in\n    tag_271:\n        /* \"#utility.yul\":1767:1772   */\n      dup2\n        /* \"#utility.yul\":1764:1799   */\n      eq\n        /* \"#utility.yul\":1754:1817   */\n      tag_272\n      jumpi\n        /* \"#utility.yul\":1813:1814   */\n      0x00\n        /* \"#utility.yul\":1810:1811   */\n      dup1\n        /* \"#utility.yul\":1803:1815   */\n      revert\n        /* \"#utility.yul\":1754:1817   */\n    tag_272:\n        /* \"#utility.yul\":1701:1823   */\n      pop\n      jump\t// out\n        /* \"#utility.yul\":1829:1968   */\n    tag_199:\n        /* \"#utility.yul\":1875:1880   */\n      0x00\n        /* \"#utility.yul\":1913:1919   */\n      dup2\n        /* \"#utility.yul\":1900:1920   */\n      calldataload\n        /* \"#utility.yul\":1891:1920   */\n      swap1\n      pop\n        /* \"#utility.yul\":1929:1962   */\n      tag_274\n        /* \"#utility.yul\":1956:1961   */\n      dup2\n        /* \"#utility.yul\":1929:1962   */\n      tag_198\n      jump\t// in\n    tag_274:\n        /* \"#utility.yul\":1829:1968   */\n      swap3\n      swap2\n      pop\n      pop\n      jump\t// out\n        /* \"#utility.yul\":1974:2064   */\n    tag_200:\n        /* \"#utility.yul\":2008:2015   */\n      0x00\n        /* \"#utility.yul\":2051:2056   */\n      dup2\n        /* \"#utility.yul\":2044:2057   */\n      iszero\n        /* \"#utility.yul\":2037:2058   */\n      iszero\n        /* \"#utility.yul\":2026:2058   */\n      swap1\n      pop\n        /* \"#utility.yul\":1974:2064   */\n      swap2\n      swap1\n      pop\n      jump\t// out\n        /* \"#utility.yul\":2070:2186   */\n    tag_201:\n        /* \"#utility.yul\":2140:2161   */\n      tag_277\n        /* \"#utility.yul\":2155:2160   */\n      dup2\n        /* \"#utility.yul\":2140:2161   */\n      tag_200\n      jump\t// in\n    tag_277:\n        /* \"#utility.yul\":2133:2138   */\n      dup2\n        /* \"#utility.yul\":2130:2162   */\n      eq\n        /* \"#utility.yul\":2120:2180   */\n      tag_278\n      jumpi\n        /* \"#utility.yul\":2176:2177   */\n      0x00\n        /* \"#utility.yul\":2173:2174   */\n      dup1\n        /* \"#utility.yul\":2166:2178   */\n      revert\n        /* \"#utility.yul\":2120:2180   */\n    tag_278:\n        /* \"#utility.yul\":2070:2186   */\n      pop\n      jump\t// out\n        /* \"#utility.yul\":2192:2325   */\n    tag_202:\n        /* \"#utility.yul\":2235:2240   */\n      0x00\n        /* \"#utility.yul\":2273:2279   */\n      dup2\n        /* \"#utility.yul\":2260:2280   */\n      calldataload\n        /* \"#utility.yul\":2251:2280   */\n      swap1\n      pop\n        /* \"#utility.yul\":2289:2319   */\n      tag_280\n        /* \"#utility.yul\":2313:2318   */\n      dup2\n        /* \"#utility.yul\":2289:2319   */\n      tag_201\n      jump\t// in\n    tag_280:\n        /* \"#utility.yul\":2192:2325   */\n      swap3\n      swap2\n      pop\n      pop\n      jump\t// out\n        /* \"#utility.yul\":2331:2799   */\n    tag_28:\n        /* \"#utility.yul\":2396:2402   */\n      0x00\n        /* \"#utility.yul\":2404:2410   */\n      dup1\n        /* \"#utility.yul\":2453:2455   */\n      0x40\n        /* \"#utility.yul\":2441:2450   */\n      dup4\n        /* \"#utility.yul\":2432:2439   */\n      dup6\n        /* \"#utility.yul\":2428:2451   */\n      sub\n        /* \"#utility.yul\":2424:2456   */\n      slt\n        /* \"#utility.yul\":2421:2540   */\n      iszero\n      tag_282\n      jumpi\n        /* \"#utility.yul\":2459:2538   */\n      tag_283\n      tag_189\n      jump\t// in\n    tag_283:\n        /* \"#utility.yul\":2421:2540   */\n    tag_282:\n        /* \"#utility.yul\":2579:2580   */\n      0x00\n        /* \"#utility.yul\":2604:2657   */\n      tag_284\n        /* \"#utility.yul\":2649:2656   */\n      dup6\n        /* \"#utility.yul\":2640:2646   */\n      dup3\n        /* \"#utility.yul\":2629:2638   */\n      dup7\n        /* \"#utility.yul\":2625:2647   */\n      add\n        /* \"#utility.yul\":2604:2657   */\n      tag_199\n      jump\t// in\n    tag_284:\n        /* \"#utility.yul\":2594:2657   */\n      swap3\n      pop\n        /* \"#utility.yul\":2550:2667   */\n      pop\n        /* \"#utility.yul\":2706:2708   */\n      0x20\n        /* \"#utility.yul\":2732:2782   */\n      tag_285\n        /* \"#utility.yul\":2774:2781   */\n      dup6\n        /* \"#utility.yul\":2765:2771   */\n      dup3\n        /* \"#utility.yul\":2754:2763   */\n      dup7\n        /* \"#utility.yul\":2750:2772   */\n      add\n        /* \"#utility.yul\":2732:2782   */\n      tag_202\n      jump\t// in\n    tag_285:\n        /* \"#utility.yul\":2722:2782   */\n      swap2\n      pop\n        /* \"#utility.yul\":2677:2792   */\n      pop\n        /* \"#utility.yul\":2331:2799   */\n      swap3\n      pop\n      swap3\n      swap1\n      pop\n      jump\t// out\n        /* \"#utility.yul\":2805:2923   */\n    tag_203:\n        /* \"#utility.yul\":2892:2916   */\n      tag_287\n        /* \"#utility.yul\":2910:2915   */\n      dup2\n        /* \"#utility.yul\":2892:2916   */\n      tag_197\n      jump\t// in\n    tag_287:\n        /* \"#utility.yul\":2887:2890   */\n      dup3\n        /* \"#utility.yul\":2880:2917   */\n      mstore\n        /* \"#utility.yul\":2805:2923   */\n      pop\n      pop\n      jump\t// out\n        /* \"#utility.yul\":2929:3151   */\n    tag_33:\n        /* \"#utility.yul\":3022:3026   */\n      0x00\n        /* \"#utility.yul\":3060:3062   */\n      0x20\n        /* \"#utility.yul\":3049:3058   */\n      dup3\n        /* \"#utility.yul\":3045:3063   */\n      add\n        /* \"#utility.yul\":3037:3063   */\n      swap1\n      pop\n        /* \"#utility.yul\":3073:3144   */\n      tag_289\n        /* \"#utility.yul\":3141:3142   */\n      0x00\n        /* \"#utility.yul\":3130:3139   */\n      dup4\n        /* \"#utility.yul\":3126:3143   */\n      add\n        /* \"#utility.yul\":3117:3123   */\n      dup5\n        /* \"#utility.yul\":3073:3144   */\n      tag_203\n      jump\t// in\n    tag_289:\n        /* \"#utility.yul\":2929:3151   */\n      swap3\n      swap2\n      pop\n      pop\n      jump\t// out\n        /* \"#utility.yul\":3157:3275   */\n    tag_204:\n        /* \"#utility.yul\":3244:3268   */\n      tag_291\n        /* \"#utility.yul\":3262:3267   */\n      dup2\n        /* \"#utility.yul\":3244:3268   */\n      tag_191\n      jump\t// in\n    tag_291:\n        /* \"#utility.yul\":3239:3242   */\n      dup3\n        /* \"#utility.yul\":3232:3269   */\n      mstore\n        /* \"#utility.yul\":3157:3275   */\n      pop\n      pop\n      jump\t// out\n        /* \"#utility.yul\":3281:3503   */\n    tag_37:\n        /* \"#utility.yul\":3374:3378   */\n      0x00\n        /* \"#utility.yul\":3412:3414   */\n      0x20\n        /* \"#utility.yul\":3401:3410   */\n      dup3\n        /* \"#utility.yul\":3397:3415   */\n      add\n        /* \"#utility.yul\":3389:3415   */\n      swap1\n      pop\n        /* \"#utility.yul\":3425:3496   */\n      tag_293\n        /* \"#utility.yul\":3493:3494   */\n      0x00\n        /* \"#utility.yul\":3482:3491   */\n      dup4\n        /* \"#utility.yul\":3478:3495   */\n      add\n        /* \"#utility.yul\":3469:3475   */\n      dup5\n        /* \"#utility.yul\":3425:3496   */\n      tag_204\n      jump\t// in\n    tag_293:\n        /* \"#utility.yul\":3281:3503   */\n      swap3\n      swap2\n      pop\n      pop\n      jump\t// out\n        /* \"#utility.yul\":3509:4274   */\n    tag_40:\n        /* \"#utility.yul\":3595:3601   */\n      0x00\n        /* \"#utility.yul\":3603:3609   */\n      dup1\n        /* \"#utility.yul\":3611:3617   */\n      0x00\n        /* \"#utility.yul\":3619:3625   */\n      dup1\n        /* \"#utility.yul\":3668:3671   */\n      0x80\n        /* \"#utility.yul\":3656:3665   */\n      dup6\n        /* \"#utility.yul\":3647:3654   */\n      dup8\n        /* \"#utility.yul\":3643:3666   */\n      sub\n        /* \"#utility.yul\":3639:3672   */\n      slt\n        /* \"#utility.yul\":3636:3756   */\n      iszero\n      tag_295\n      jumpi\n        /* \"#utility.yul\":3675:3754   */\n      tag_296\n      tag_189\n      jump\t// in\n    tag_296:\n        /* \"#utility.yul\":3636:3756   */\n    tag_295:\n        /* \"#utility.yul\":3795:3796   */\n      0x00\n        /* \"#utility.yul\":3820:3873   */\n      tag_297\n        /* \"#utility.yul\":3865:3872   */\n      dup8\n        /* \"#utility.yul\":3856:3862   */\n      dup3\n        /* \"#utility.yul\":3845:3854   */\n      dup9\n        /* \"#utility.yul\":3841:3863   */\n      add\n        /* \"#utility.yul\":3820:3873   */\n      tag_199\n      jump\t// in\n    tag_297:\n        /* \"#utility.yul\":3810:3873   */\n      swap5\n      pop\n        /* \"#utility.yul\":3766:3883   */\n      pop\n        /* \"#utility.yul\":3922:3924   */\n      0x20\n        /* \"#utility.yul\":3948:4001   */\n      tag_298\n        /* \"#utility.yul\":3993:4000   */\n      dup8\n        /* \"#utility.yul\":3984:3990   */\n      dup3\n        /* \"#utility.yul\":3973:3982   */\n      dup9\n        /* \"#utility.yul\":3969:3991   */\n      add\n        /* \"#utility.yul\":3948:4001   */\n      tag_199\n      jump\t// in\n    tag_298:\n        /* \"#utility.yul\":3938:4001   */\n      swap4\n      pop\n        /* \"#utility.yul\":3893:4011   */\n      pop\n        /* \"#utility.yul\":4050:4052   */\n      0x40\n        /* \"#utility.yul\":4076:4129   */\n      tag_299\n        /* \"#utility.yul\":4121:4128   */\n      dup8\n        /* \"#utility.yul\":4112:4118   */\n      dup3\n        /* \"#utility.yul\":4101:4110   */\n      dup9\n        /* \"#utility.yul\":4097:4119   */\n      add\n        /* \"#utility.yul\":4076:4129   */\n      tag_193\n      jump\t// in\n    tag_299:\n        /* \"#utility.yul\":4066:4129   */\n      swap3\n      pop\n        /* \"#utility.yul\":4021:4139   */\n      pop\n        /* \"#utility.yul\":4178:4180   */\n      0x60\n        /* \"#utility.yul\":4204:4257   */\n      tag_300\n        /* \"#utility.yul\":4249:4256   */\n      dup8\n        /* \"#utility.yul\":4240:4246   */\n      dup3\n        /* \"#utility.yul\":4229:4238   */\n      dup9\n        /* \"#utility.yul\":4225:4247   */\n      add\n        /* \"#utility.yul\":4204:4257   */\n      tag_199\n      jump\t// in\n    tag_300:\n        /* \"#utility.yul\":4194:4257   */\n      swap2\n      pop\n        /* \"#utility.yul\":4149:4267   */\n      pop\n        /* \"#utility.yul\":3509:4274   */\n      swap3\n      swap6\n      swap2\n      swap5\n      pop\n      swap3\n      pop\n      jump\t// out\n        /* \"#utility.yul\":4280:4397   */\n    tag_205:\n        /* \"#utility.yul\":4389:4390   */\n      0x00\n        /* \"#utility.yul\":4386:4387   */\n      dup1\n        /* \"#utility.yul\":4379:4391   */\n      revert\n        /* \"#utility.yul\":4403:4520   */\n    tag_206:\n        /* \"#utility.yul\":4512:4513   */\n      0x00\n        /* \"#utility.yul\":4509:4510   */\n      dup1\n        /* \"#utility.yul\":4502:4514   */\n      revert\n        /* \"#utility.yul\":4526:4643   */\n    tag_207:\n        /* \"#utility.yul\":4635:4636   */\n      0x00\n        /* \"#utility.yul\":4632:4633   */\n      dup1\n        /* \"#utility.yul\":4625:4637   */\n      revert\n        /* \"#utility.yul\":4662:5214   */\n    tag_208:\n        /* \"#utility.yul\":4719:4727   */\n      0x00\n        /* \"#utility.yul\":4729:4735   */\n      dup1\n        /* \"#utility.yul\":4779:4782   */\n      dup4\n        /* \"#utility.yul\":4772:4776   */\n      0x1f\n        /* \"#utility.yul\":4764:4770   */\n      dup5\n        /* \"#utility.yul\":4760:4777   */\n      add\n        /* \"#utility.yul\":4756:4783   */\n      slt\n        /* \"#utility.yul\":4746:4868   */\n      tag_305\n      jumpi\n        /* \"#utility.yul\":4787:4866   */\n      tag_306\n      tag_205\n      jump\t// in\n    tag_306:\n        /* \"#utility.yul\":4746:4868   */\n    tag_305:\n        /* \"#utility.yul\":4900:4906   */\n      dup3\n        /* \"#utility.yul\":4887:4907   */\n      calldataload\n        /* \"#utility.yul\":4877:4907   */\n      swap1\n      pop\n        /* \"#utility.yul\":4930:4948   */\n      0xffffffffffffffff\n        /* \"#utility.yul\":4922:4928   */\n      dup2\n        /* \"#utility.yul\":4919:4949   */\n      gt\n        /* \"#utility.yul\":4916:5033   */\n      iszero\n      tag_307\n      jumpi\n        /* \"#utility.yul\":4952:5031   */\n      tag_308\n      tag_206\n      jump\t// in\n    tag_308:\n        /* \"#utility.yul\":4916:5033   */\n    tag_307:\n        /* \"#utility.yul\":5066:5070   */\n      0x20\n        /* \"#utility.yul\":5058:5064   */\n      dup4\n        /* \"#utility.yul\":5054:5071   */\n      add\n        /* \"#utility.yul\":5042:5071   */\n      swap2\n      pop\n        /* \"#utility.yul\":5120:5123   */\n      dup4\n        /* \"#utility.yul\":5112:5116   */\n      0x01\n        /* \"#utility.yul\":5104:5110   */\n      dup3\n        /* \"#utility.yul\":5100:5117   */\n      mul\n        /* \"#utility.yul\":5090:5098   */\n      dup4\n        /* \"#utility.yul\":5086:5118   */\n      add\n        /* \"#utility.yul\":5083:5124   */\n      gt\n        /* \"#utility.yul\":5080:5208   */\n      iszero\n      tag_309\n      jumpi\n        /* \"#utility.yul\":5127:5206   */\n      tag_310\n      tag_207\n      jump\t// in\n    tag_310:\n        /* \"#utility.yul\":5080:5208   */\n    tag_309:\n        /* \"#utility.yul\":4662:5214   */\n      swap3\n      pop\n      swap3\n      swap1\n      pop\n      jump\t// out\n        /* \"#utility.yul\":5220:6329   */\n    tag_48:\n        /* \"#utility.yul\":5326:5332   */\n      0x00\n        /* \"#utility.yul\":5334:5340   */\n      dup1\n        /* \"#utility.yul\":5342:5348   */\n      0x00\n        /* \"#utility.yul\":5350:5356   */\n      dup1\n        /* \"#utility.yul\":5358:5364   */\n      0x00\n        /* \"#utility.yul\":5366:5372   */\n      dup1\n        /* \"#utility.yul\":5415:5418   */\n      0xa0\n        /* \"#utility.yul\":5403:5412   */\n      dup8\n        /* \"#utility.yul\":5394:5401   */\n      dup10\n        /* \"#utility.yul\":5390:5413   */\n      sub\n        /* \"#utility.yul\":5386:5419   */\n      slt\n        /* \"#utility.yul\":5383:5503   */\n      iszero\n      tag_312\n      jumpi\n        /* \"#utility.yul\":5422:5501   */\n      tag_313\n      tag_189\n      jump\t// in\n    tag_313:\n        /* \"#utility.yul\":5383:5503   */\n    tag_312:\n        /* \"#utility.yul\":5542:5543   */\n      0x00\n        /* \"#utility.yul\":5567:5620   */\n      tag_314\n        /* \"#utility.yul\":5612:5619   */\n      dup10\n        /* \"#utility.yul\":5603:5609   */\n      dup3\n        /* \"#utility.yul\":5592:5601   */\n      dup11\n        /* \"#utility.yul\":5588:5610   */\n      add\n        /* \"#utility.yul\":5567:5620   */\n      tag_199\n      jump\t// in\n    tag_314:\n        /* \"#utility.yul\":5557:5620   */\n      swap7\n      pop\n        /* \"#utility.yul\":5513:5630   */\n      pop\n        /* \"#utility.yul\":5669:5671   */\n      0x20\n        /* \"#utility.yul\":5695:5748   */\n      tag_315\n        /* \"#utility.yul\":5740:5747   */\n      dup10\n        /* \"#utility.yul\":5731:5737   */\n      dup3\n        /* \"#utility.yul\":5720:5729   */\n      dup11\n        /* \"#utility.yul\":5716:5738   */\n      add\n        /* \"#utility.yul\":5695:5748   */\n      tag_199\n      jump\t// in\n    tag_315:\n        /* \"#utility.yul\":5685:5748   */\n      swap6\n      pop\n        /* \"#utility.yul\":5640:5758   */\n      pop\n        /* \"#utility.yul\":5797:5799   */\n      0x40\n        /* \"#utility.yul\":5823:5876   */\n      tag_316\n        /* \"#utility.yul\":5868:5875   */\n      dup10\n        /* \"#utility.yul\":5859:5865   */\n      dup3\n        /* \"#utility.yul\":5848:5857   */\n      dup11\n        /* \"#utility.yul\":5844:5866   */\n      add\n        /* \"#utility.yul\":5823:5876   */\n      tag_193\n      jump\t// in\n    tag_316:\n        /* \"#utility.yul\":5813:5876   */\n      swap5\n      pop\n        /* \"#utility.yul\":5768:5886   */\n      pop\n        /* \"#utility.yul\":5925:5927   */\n      0x60\n        /* \"#utility.yul\":5951:6004   */\n      tag_317\n        /* \"#utility.yul\":5996:6003   */\n      dup10\n        /* \"#utility.yul\":5987:5993   */\n      dup3\n        /* \"#utility.yul\":5976:5985   */\n      dup11\n        /* \"#utility.yul\":5972:5994   */\n      add\n        /* \"#utility.yul\":5951:6004   */\n      tag_199\n      jump\t// in\n    tag_317:\n        /* \"#utility.yul\":5941:6004   */\n      swap4\n      pop\n        /* \"#utility.yul\":5896:6014   */\n      pop\n        /* \"#utility.yul\":6081:6084   */\n      0x80\n        /* \"#utility.yul\":6070:6079   */\n      dup8\n        /* \"#utility.yul\":6066:6085   */\n      add\n        /* \"#utility.yul\":6053:6086   */\n      calldataload\n        /* \"#utility.yul\":6113:6131   */\n      0xffffffffffffffff\n        /* \"#utility.yul\":6105:6111   */\n      dup2\n        /* \"#utility.yul\":6102:6132   */\n      gt\n        /* \"#utility.yul\":6099:6216   */\n      iszero\n      tag_318\n      jumpi\n        /* \"#utility.yul\":6135:6214   */\n      tag_319\n      tag_190\n      jump\t// in\n    tag_319:\n        /* \"#utility.yul\":6099:6216   */\n    tag_318:\n        /* \"#utility.yul\":6248:6312   */\n      tag_320\n        /* \"#utility.yul\":6304:6311   */\n      dup10\n        /* \"#utility.yul\":6295:6301   */\n      dup3\n        /* \"#utility.yul\":6284:6293   */\n      dup11\n        /* \"#utility.yul\":6280:6302   */\n      add\n        /* \"#utility.yul\":6248:6312   */\n      tag_208\n      jump\t// in\n    tag_320:\n        /* \"#utility.yul\":6230:6312   */\n      swap3\n      pop\n      swap3\n      pop\n        /* \"#utility.yul\":6024:6322   */\n      pop\n        /* \"#utility.yul\":5220:6329   */\n      swap3\n      swap6\n      pop\n      swap3\n      swap6\n      pop\n      swap3\n      swap6\n      jump\t// out\n        /* \"#utility.yul\":6335:6395   */\n    tag_209:\n        /* \"#utility.yul\":6363:6366   */\n      0x00\n        /* \"#utility.yul\":6384:6389   */\n      dup2\n        /* \"#utility.yul\":6377:6389   */\n      swap1\n      pop\n        /* \"#utility.yul\":6335:6395   */\n      swap2\n      swap1\n      pop\n      jump\t// out\n        /* \"#utility.yul\":6401:6543   */\n    tag_210:\n        /* \"#utility.yul\":6451:6460   */\n      0x00\n        /* \"#utility.yul\":6484:6537   */\n      tag_323\n        /* \"#utility.yul\":6502:6536   */\n      tag_324\n        /* \"#utility.yul\":6511:6535   */\n      tag_325\n        /* \"#utility.yul\":6529:6534   */\n      dup5\n        /* \"#utility.yul\":6511:6535   */\n      tag_196\n      jump\t// in\n    tag_325:\n        /* \"#utility.yul\":6502:6536   */\n      tag_209\n      jump\t// in\n    tag_324:\n        /* \"#utility.yul\":6484:6537   */\n      tag_196\n      jump\t// in\n    tag_323:\n        /* \"#utility.yul\":6471:6537   */\n      swap1\n      pop\n        /* \"#utility.yul\":6401:6543   */\n      swap2\n      swap1\n      pop\n      jump\t// out\n        /* \"#utility.yul\":6549:6675   */\n    tag_211:\n        /* \"#utility.yul\":6599:6608   */\n      0x00\n        /* \"#utility.yul\":6632:6669   */\n      tag_327\n        /* \"#utility.yul\":6663:6668   */\n      dup3\n        /* \"#utility.yul\":6632:6669   */\n      tag_210\n      jump\t// in\n    tag_327:\n        /* \"#utility.yul\":6619:6669   */\n      swap1\n      pop\n        /* \"#utility.yul\":6549:6675   */\n      swap2\n      swap1\n      pop\n      jump\t// out\n        /* \"#utility.yul\":6681:6826   */\n    tag_212:\n        /* \"#utility.yul\":6750:6759   */\n      0x00\n        /* \"#utility.yul\":6783:6820   */\n      tag_329\n        /* \"#utility.yul\":6814:6819   */\n      dup3\n        /* \"#utility.yul\":6783:6820   */\n      tag_211\n      jump\t// in\n    tag_329:\n        /* \"#utility.yul\":6770:6820   */\n      swap1\n      pop\n        /* \"#utility.yul\":6681:6826   */\n      swap2\n      swap1\n      pop\n      jump\t// out\n        /* \"#utility.yul\":6832:7001   */\n    tag_213:\n        /* \"#utility.yul\":6938:6994   */\n      tag_331\n        /* \"#utility.yul\":6988:6993   */\n      dup2\n        /* \"#utility.yul\":6938:6994   */\n      tag_212\n      jump\t// in\n    tag_331:\n        /* \"#utility.yul\":6933:6936   */\n      dup3\n        /* \"#utility.yul\":6926:6995   */\n      mstore\n        /* \"#utility.yul\":6832:7001   */\n      pop\n      pop\n      jump\t// out\n        /* \"#utility.yul\":7007:7267   */\n    tag_54:\n        /* \"#utility.yul\":7119:7123   */\n      0x00\n        /* \"#utility.yul\":7157:7159   */\n      0x20\n        /* \"#utility.yul\":7146:7155   */\n      dup3\n        /* \"#utility.yul\":7142:7160   */\n      add\n        /* \"#utility.yul\":7134:7160   */\n      swap1\n      pop\n        /* \"#utility.yul\":7170:7260   */\n      tag_333\n        /* \"#utility.yul\":7257:7258   */\n      0x00\n        /* \"#utility.yul\":7246:7255   */\n      dup4\n        /* \"#utility.yul\":7242:7259   */\n      add\n        /* \"#utility.yul\":7233:7239   */\n      dup5\n        /* \"#utility.yul\":7170:7260   */\n      tag_213\n      jump\t// in\n    tag_333:\n        /* \"#utility.yul\":7007:7267   */\n      swap3\n      swap2\n      pop\n      pop\n      jump\t// out\n        /* \"#utility.yul\":7273:7424   */\n    tag_214:\n        /* \"#utility.yul\":7348:7357   */\n      0x00\n        /* \"#utility.yul\":7381:7418   */\n      tag_335\n        /* \"#utility.yul\":7412:7417   */\n      dup3\n        /* \"#utility.yul\":7381:7418   */\n      tag_211\n      jump\t// in\n    tag_335:\n        /* \"#utility.yul\":7368:7418   */\n      swap1\n      pop\n        /* \"#utility.yul\":7273:7424   */\n      swap2\n      swap1\n      pop\n      jump\t// out\n        /* \"#utility.yul\":7430:7611   */\n    tag_215:\n        /* \"#utility.yul\":7542:7604   */\n      tag_337\n        /* \"#utility.yul\":7598:7603   */\n      dup2\n        /* \"#utility.yul\":7542:7604   */\n      tag_214\n      jump\t// in\n    tag_337:\n        /* \"#utility.yul\":7537:7540   */\n      dup3\n        /* \"#utility.yul\":7530:7605   */\n      mstore\n        /* \"#utility.yul\":7430:7611   */\n      pop\n      pop\n      jump\t// out\n        /* \"#utility.yul\":7617:7889   */\n    tag_58:\n        /* \"#utility.yul\":7735:7739   */\n      0x00\n        /* \"#utility.yul\":7773:7775   */\n      0x20\n        /* \"#utility.yul\":7762:7771   */\n      dup3\n        /* \"#utility.yul\":7758:7776   */\n      add\n        /* \"#utility.yul\":7750:7776   */\n      swap1\n      pop\n        /* \"#utility.yul\":7786:7882   */\n      tag_339\n        /* \"#utility.yul\":7879:7880   */\n      0x00\n        /* \"#utility.yul\":7868:7877   */\n      dup4\n        /* \"#utility.yul\":7864:7881   */\n      add\n        /* \"#utility.yul\":7855:7861   */\n      dup5\n        /* \"#utility.yul\":7786:7882   */\n      tag_215\n      jump\t// in\n    tag_339:\n        /* \"#utility.yul\":7617:7889   */\n      swap3\n      swap2\n      pop\n      pop\n      jump\t// out\n        /* \"#utility.yul\":7895:8038   */\n    tag_216:\n        /* \"#utility.yul\":7962:7971   */\n      0x00\n        /* \"#utility.yul\":7995:8032   */\n      tag_341\n        /* \"#utility.yul\":8026:8031   */\n      dup3\n        /* \"#utility.yul\":7995:8032   */\n      tag_211\n      jump\t// in\n    tag_341:\n        /* \"#utility.yul\":7982:8032   */\n      swap1\n      pop\n        /* \"#utility.yul\":7895:8038   */\n      swap2\n      swap1\n      pop\n      jump\t// out\n        /* \"#utility.yul\":8044:8209   */\n    tag_217:\n        /* \"#utility.yul\":8148:8202   */\n      tag_343\n        /* \"#utility.yul\":8196:8201   */\n      dup2\n        /* \"#utility.yul\":8148:8202   */\n      tag_216\n      jump\t// in\n    tag_343:\n        /* \"#utility.yul\":8143:8146   */\n      dup3\n        /* \"#utility.yul\":8136:8203   */\n      mstore\n        /* \"#utility.yul\":8044:8209   */\n      pop\n      pop\n      jump\t// out\n        /* \"#utility.yul\":8215:8471   */\n    tag_62:\n        /* \"#utility.yul\":8325:8329   */\n      0x00\n        /* \"#utility.yul\":8363:8365   */\n      0x20\n        /* \"#utility.yul\":8352:8361   */\n      dup3\n        /* \"#utility.yul\":8348:8366   */\n      add\n        /* \"#utility.yul\":8340:8366   */\n      swap1\n      pop\n        /* \"#utility.yul\":8376:8464   */\n      tag_345\n        /* \"#utility.yul\":8461:8462   */\n      0x00\n        /* \"#utility.yul\":8450:8459   */\n      dup4\n        /* \"#utility.yul\":8446:8463   */\n      add\n        /* \"#utility.yul\":8437:8443   */\n      dup5\n        /* \"#utility.yul\":8376:8464   */\n      tag_217\n      jump\t// in\n    tag_345:\n        /* \"#utility.yul\":8215:8471   */\n      swap3\n      swap2\n      pop\n      pop\n      jump\t// out\n        /* \"#utility.yul\":8477:8951   */\n    tag_65:\n        /* \"#utility.yul\":8545:8551   */\n      0x00\n        /* \"#utility.yul\":8553:8559   */\n      dup1\n        /* \"#utility.yul\":8602:8604   */\n      0x40\n        /* \"#utility.yul\":8590:8599   */\n      dup4\n        /* \"#utility.yul\":8581:8588   */\n      dup6\n        /* \"#utility.yul\":8577:8600   */\n      sub\n        /* \"#utility.yul\":8573:8605   */\n      slt\n        /* \"#utility.yul\":8570:8689   */\n      iszero\n      tag_347\n      jumpi\n        /* \"#utility.yul\":8608:8687   */\n      tag_348\n      tag_189\n      jump\t// in\n    tag_348:\n        /* \"#utility.yul\":8570:8689   */\n    tag_347:\n        /* \"#utility.yul\":8728:8729   */\n      0x00\n        /* \"#utility.yul\":8753:8806   */\n      tag_349\n        /* \"#utility.yul\":8798:8805   */\n      dup6\n        /* \"#utility.yul\":8789:8795   */\n      dup3\n        /* \"#utility.yul\":8778:8787   */\n      dup7\n        /* \"#utility.yul\":8774:8796   */\n      add\n        /* \"#utility.yul\":8753:8806   */\n      tag_199\n      jump\t// in\n    tag_349:\n        /* \"#utility.yul\":8743:8806   */\n      swap3\n      pop\n        /* \"#utility.yul\":8699:8816   */\n      pop\n        /* \"#utility.yul\":8855:8857   */\n      0x20\n        /* \"#utility.yul\":8881:8934   */\n      tag_350\n        /* \"#utility.yul\":8926:8933   */\n      dup6\n        /* \"#utility.yul\":8917:8923   */\n      dup3\n        /* \"#utility.yul\":8906:8915   */\n      dup7\n        /* \"#utility.yul\":8902:8924   */\n      add\n        /* \"#utility.yul\":8881:8934   */\n      tag_199\n      jump\t// in\n    tag_350:\n        /* \"#utility.yul\":8871:8934   */\n      swap2\n      pop\n        /* \"#utility.yul\":8826:8944   */\n      pop\n        /* \"#utility.yul\":8477:8951   */\n      swap3\n      pop\n      swap3\n      swap1\n      pop\n      jump\t// out\n        /* \"#utility.yul\":8957:9285   */\n    tag_68:\n        /* \"#utility.yul\":9076:9080   */\n      0x00\n        /* \"#utility.yul\":9114:9116   */\n      0x40\n        /* \"#utility.yul\":9103:9112   */\n      dup3\n        /* \"#utility.yul\":9099:9117   */\n      add\n        /* \"#utility.yul\":9091:9117   */\n      swap1\n      pop\n        /* \"#utility.yul\":9127:9198   */\n      tag_352\n        /* \"#utility.yul\":9195:9196   */\n      0x00\n        /* \"#utility.yul\":9184:9193   */\n      dup4\n        /* \"#utility.yul\":9180:9197   */\n      add\n        /* \"#utility.yul\":9171:9177   */\n      dup6\n        /* \"#utility.yul\":9127:9198   */\n      tag_203\n      jump\t// in\n    tag_352:\n        /* \"#utility.yul\":9208:9278   */\n      tag_353\n        /* \"#utility.yul\":9274:9276   */\n      0x20\n        /* \"#utility.yul\":9263:9272   */\n      dup4\n        /* \"#utility.yul\":9259:9277   */\n      add\n        /* \"#utility.yul\":9250:9256   */\n      dup5\n        /* \"#utility.yul\":9208:9278   */\n      tag_195\n      jump\t// in\n    tag_353:\n        /* \"#utility.yul\":8957:9285   */\n      swap4\n      swap3\n      pop\n      pop\n      pop\n      jump\t// out\n        /* \"#utility.yul\":9291:9620   */\n    tag_71:\n        /* \"#utility.yul\":9350:9356   */\n      0x00\n        /* \"#utility.yul\":9399:9401   */\n      0x20\n        /* \"#utility.yul\":9387:9396   */\n      dup3\n        /* \"#utility.yul\":9378:9385   */\n      dup5\n        /* \"#utility.yul\":9374:9397   */\n      sub\n        /* \"#utility.yul\":9370:9402   */\n      slt\n        /* \"#utility.yul\":9367:9486   */\n      iszero\n      tag_355\n      jumpi\n        /* \"#utility.yul\":9405:9484   */\n      tag_356\n      tag_189\n      jump\t// in\n    tag_356:\n        /* \"#utility.yul\":9367:9486   */\n    tag_355:\n        /* \"#utility.yul\":9525:9526   */\n      0x00\n        /* \"#utility.yul\":9550:9603   */\n      tag_357\n        /* \"#utility.yul\":9595:9602   */\n      dup5\n        /* \"#utility.yul\":9586:9592   */\n      dup3\n        /* \"#utility.yul\":9575:9584   */\n      dup6\n        /* \"#utility.yul\":9571:9593   */\n      add\n        /* \"#utility.yul\":9550:9603   */\n      tag_199\n      jump\t// in\n    tag_357:\n        /* \"#utility.yul\":9540:9603   */\n      swap2\n      pop\n        /* \"#utility.yul\":9496:9613   */\n      pop\n        /* \"#utility.yul\":9291:9620   */\n      swap3\n      swap2\n      pop\n      pop\n      jump\t// out\n        /* \"#utility.yul\":9626:9735   */\n    tag_218:\n        /* \"#utility.yul\":9707:9728   */\n      tag_359\n        /* \"#utility.yul\":9722:9727   */\n      dup2\n        /* \"#utility.yul\":9707:9728   */\n      tag_200\n      jump\t// in\n    tag_359:\n        /* \"#utility.yul\":9702:9705   */\n      dup3\n        /* \"#utility.yul\":9695:9729   */\n      mstore\n        /* \"#utility.yul\":9626:9735   */\n      pop\n      pop\n      jump\t// out\n        /* \"#utility.yul\":9741:9951   */\n    tag_74:\n        /* \"#utility.yul\":9828:9832   */\n      0x00\n        /* \"#utility.yul\":9866:9868   */\n      0x20\n        /* \"#utility.yul\":9855:9864   */\n      dup3\n        /* \"#utility.yul\":9851:9869   */\n      add\n        /* \"#utility.yul\":9843:9869   */\n      swap1\n      pop\n        /* \"#utility.yul\":9879:9944   */\n      tag_361\n        /* \"#utility.yul\":9941:9942   */\n      0x00\n        /* \"#utility.yul\":9930:9939   */\n      dup4\n        /* \"#utility.yul\":9926:9943   */\n      add\n        /* \"#utility.yul\":9917:9923   */\n      dup5\n        /* \"#utility.yul\":9879:9944   */\n      tag_218\n      jump\t// in\n    tag_361:\n        /* \"#utility.yul\":9741:9951   */\n      swap3\n      swap2\n      pop\n      pop\n      jump\t// out\n        /* \"#utility.yul\":9957:10126   */\n    tag_219:\n        /* \"#utility.yul\":10041:10052   */\n      0x00\n        /* \"#utility.yul\":10075:10081   */\n      dup3\n        /* \"#utility.yul\":10070:10073   */\n      dup3\n        /* \"#utility.yul\":10063:10082   */\n      mstore\n        /* \"#utility.yul\":10115:10119   */\n      0x20\n        /* \"#utility.yul\":10110:10113   */\n      dup3\n        /* \"#utility.yul\":10106:10120   */\n      add\n        /* \"#utility.yul\":10091:10120   */\n      swap1\n      pop\n        /* \"#utility.yul\":9957:10126   */\n      swap3\n      swap2\n      pop\n      pop\n      jump\t// out\n        /* \"#utility.yul\":10132:10291   */\n    tag_220:\n        /* \"#utility.yul\":10272:10283   */\n      0x4e6f74206f776e65720000000000000000000000000000000000000000000000\n        /* \"#utility.yul\":10268:10269   */\n      0x00\n        /* \"#utility.yul\":10260:10266   */\n      dup3\n        /* \"#utility.yul\":10256:10270   */\n      add\n        /* \"#utility.yul\":10249:10284   */\n      mstore\n        /* \"#utility.yul\":10132:10291   */\n      pop\n      jump\t// out\n        /* \"#utility.yul\":10297:10662   */\n    tag_221:\n        /* \"#utility.yul\":10439:10442   */\n      0x00\n        /* \"#utility.yul\":10460:10526   */\n      tag_365\n        /* \"#utility.yul\":10524:10525   */\n      0x09\n        /* \"#utility.yul\":10519:10522   */\n      dup4\n        /* \"#utility.yul\":10460:10526   */\n      tag_219\n      jump\t// in\n    tag_365:\n        /* \"#utility.yul\":10453:10526   */\n      swap2\n      pop\n        /* \"#utility.yul\":10535:10628   */\n      tag_366\n        /* \"#utility.yul\":10624:10627   */\n      dup3\n        /* \"#utility.yul\":10535:10628   */\n      tag_220\n      jump\t// in\n    tag_366:\n        /* \"#utility.yul\":10653:10655   */\n      0x20\n        /* \"#utility.yul\":10648:10651   */\n      dup3\n        /* \"#utility.yul\":10644:10656   */\n      add\n        /* \"#utility.yul\":10637:10656   */\n      swap1\n      pop\n        /* \"#utility.yul\":10297:10662   */\n      swap2\n      swap1\n      pop\n      jump\t// out\n        /* \"#utility.yul\":10668:11087   */\n    tag_86:\n        /* \"#utility.yul\":10834:10838   */\n      0x00\n        /* \"#utility.yul\":10872:10874   */\n      0x20\n        /* \"#utility.yul\":10861:10870   */\n      dup3\n        /* \"#utility.yul\":10857:10875   */\n      add\n        /* \"#utility.yul\":10849:10875   */\n      swap1\n      pop\n        /* \"#utility.yul\":10921:10930   */\n      dup2\n        /* \"#utility.yul\":10915:10919   */\n      dup2\n        /* \"#utility.yul\":10911:10931   */\n      sub\n        /* \"#utility.yul\":10907:10908   */\n      0x00\n        /* \"#utility.yul\":10896:10905   */\n      dup4\n        /* \"#utility.yul\":10892:10909   */\n      add\n        /* \"#utility.yul\":10885:10932   */\n      mstore\n        /* \"#utility.yul\":10949:11080   */\n      tag_368\n        /* \"#utility.yul\":11075:11079   */\n      dup2\n        /* \"#utility.yul\":10949:11080   */\n      tag_221\n      jump\t// in\n    tag_368:\n        /* \"#utility.yul\":10941:11080   */\n      swap1\n      pop\n        /* \"#utility.yul\":10668:11087   */\n      swap2\n      swap1\n      pop\n      jump\t// out\n        /* \"#utility.yul\":11093:11265   */\n    tag_222:\n        /* \"#utility.yul\":11233:11257   */\n      0x546f6b656e73206e6f742077686974656c697374656400000000000000000000\n        /* \"#utility.yul\":11229:11230   */\n      0x00\n        /* \"#utility.yul\":11221:11227   */\n      dup3\n        /* \"#utility.yul\":11217:11231   */\n      add\n        /* \"#utility.yul\":11210:11258   */\n      mstore\n        /* \"#utility.yul\":11093:11265   */\n      pop\n      jump\t// out\n        /* \"#utility.yul\":11271:11637   */\n    tag_223:\n        /* \"#utility.yul\":11413:11416   */\n      0x00\n        /* \"#utility.yul\":11434:11501   */\n      tag_371\n        /* \"#utility.yul\":11498:11500   */\n      0x16\n        /* \"#utility.yul\":11493:11496   */\n      dup4\n        /* \"#utility.yul\":11434:11501   */\n      tag_219\n      jump\t// in\n    tag_371:\n        /* \"#utility.yul\":11427:11501   */\n      swap2\n      pop\n        /* \"#utility.yul\":11510:11603   */\n      tag_372\n        /* \"#utility.yul\":11599:11602   */\n      dup3\n        /* \"#utility.yul\":11510:11603   */\n      tag_222\n      jump\t// in\n    tag_372:\n        /* \"#utility.yul\":11628:11630   */\n      0x20\n        /* \"#utility.yul\":11623:11626   */\n      dup3\n        /* \"#utility.yul\":11619:11631   */\n      add\n        /* \"#utility.yul\":11612:11631   */\n      swap1\n      pop\n        /* \"#utility.yul\":11271:11637   */\n      swap2\n      swap1\n      pop\n      jump\t// out\n        /* \"#utility.yul\":11643:12062   */\n    tag_92:\n        /* \"#utility.yul\":11809:11813   */\n      0x00\n        /* \"#utility.yul\":11847:11849   */\n      0x20\n        /* \"#utility.yul\":11836:11845   */\n      dup3\n        /* \"#utility.yul\":11832:11850   */\n      add\n        /* \"#utility.yul\":11824:11850   */\n      swap1\n      pop\n        /* \"#utility.yul\":11896:11905   */\n      dup2\n        /* \"#utility.yul\":11890:11894   */\n      dup2\n        /* \"#utility.yul\":11886:11906   */\n      sub\n        /* \"#utility.yul\":11882:11883   */\n      0x00\n        /* \"#utility.yul\":11871:11880   */\n      dup4\n        /* \"#utility.yul\":11867:11884   */\n      add\n        /* \"#utility.yul\":11860:11907   */\n      mstore\n        /* \"#utility.yul\":11924:12055   */\n      tag_374\n        /* \"#utility.yul\":12050:12054   */\n      dup2\n        /* \"#utility.yul\":11924:12055   */\n      tag_223\n      jump\t// in\n    tag_374:\n        /* \"#utility.yul\":11916:12055   */\n      swap1\n      pop\n        /* \"#utility.yul\":11643:12062   */\n      swap2\n      swap1\n      pop\n      jump\t// out\n        /* \"#utility.yul\":12068:12232   */\n    tag_224:\n        /* \"#utility.yul\":12208:12224   */\n      0x416d6f756e7420746f6f206c6f77000000000000000000000000000000000000\n        /* \"#utility.yul\":12204:12205   */\n      0x00\n        /* \"#utility.yul\":12196:12202   */\n      dup3\n        /* \"#utility.yul\":12192:12206   */\n      add\n        /* \"#utility.yul\":12185:12225   */\n      mstore\n        /* \"#utility.yul\":12068:12232   */\n      pop\n      jump\t// out\n        /* \"#utility.yul\":12238:12604   */\n    tag_225:\n        /* \"#utility.yul\":12380:12383   */\n      0x00\n        /* \"#utility.yul\":12401:12468   */\n      tag_377\n        /* \"#utility.yul\":12465:12467   */\n      0x0e\n        /* \"#utility.yul\":12460:12463   */\n      dup4\n        /* \"#utility.yul\":12401:12468   */\n      tag_219\n      jump\t// in\n    tag_377:\n        /* \"#utility.yul\":12394:12468   */\n      swap2\n      pop\n        /* \"#utility.yul\":12477:12570   */\n      tag_378\n        /* \"#utility.yul\":12566:12569   */\n      dup3\n        /* \"#utility.yul\":12477:12570   */\n      tag_224\n      jump\t// in\n    tag_378:\n        /* \"#utility.yul\":12595:12597   */\n      0x20\n        /* \"#utility.yul\":12590:12593   */\n      dup3\n        /* \"#utility.yul\":12586:12598   */\n      add\n        /* \"#utility.yul\":12579:12598   */\n      swap1\n      pop\n        /* \"#utility.yul\":12238:12604   */\n      swap2\n      swap1\n      pop\n      jump\t// out\n        /* \"#utility.yul\":12610:13029   */\n    tag_95:\n        /* \"#utility.yul\":12776:12780   */\n      0x00\n        /* \"#utility.yul\":12814:12816   */\n      0x20\n        /* \"#utility.yul\":12803:12812   */\n      dup3\n        /* \"#utility.yul\":12799:12817   */\n      add\n        /* \"#utility.yul\":12791:12817   */\n      swap1\n      pop\n        /* \"#utility.yul\":12863:12872   */\n      dup2\n        /* \"#utility.yul\":12857:12861   */\n      dup2\n        /* \"#utility.yul\":12853:12873   */\n      sub\n        /* \"#utility.yul\":12849:12850   */\n      0x00\n        /* \"#utility.yul\":12838:12847   */\n      dup4\n        /* \"#utility.yul\":12834:12851   */\n      add\n        /* \"#utility.yul\":12827:12874   */\n      mstore\n        /* \"#utility.yul\":12891:13022   */\n      tag_380\n        /* \"#utility.yul\":13017:13021   */\n      dup2\n        /* \"#utility.yul\":12891:13022   */\n      tag_225\n      jump\t// in\n    tag_380:\n        /* \"#utility.yul\":12883:13022   */\n      swap1\n      pop\n        /* \"#utility.yul\":12610:13029   */\n      swap2\n      swap1\n      pop\n      jump\t// out\n        /* \"#utility.yul\":13035:13120   */\n    tag_226:\n        /* \"#utility.yul\":13080:13087   */\n      0x00\n        /* \"#utility.yul\":13109:13114   */\n      dup2\n        /* \"#utility.yul\":13098:13114   */\n      swap1\n      pop\n        /* \"#utility.yul\":13035:13120   */\n      swap2\n      swap1\n      pop\n      jump\t// out\n        /* \"#utility.yul\":13126:13284   */\n    tag_227:\n        /* \"#utility.yul\":13184:13193   */\n      0x00\n        /* \"#utility.yul\":13217:13278   */\n      tag_383\n        /* \"#utility.yul\":13235:13277   */\n      tag_384\n        /* \"#utility.yul\":13244:13276   */\n      tag_385\n        /* \"#utility.yul\":13270:13275   */\n      dup5\n        /* \"#utility.yul\":13244:13276   */\n      tag_226\n      jump\t// in\n    tag_385:\n        /* \"#utility.yul\":13235:13277   */\n      tag_209\n      jump\t// in\n    tag_384:\n        /* \"#utility.yul\":13217:13278   */\n      tag_196\n      jump\t// in\n    tag_383:\n        /* \"#utility.yul\":13204:13278   */\n      swap1\n      pop\n        /* \"#utility.yul\":13126:13284   */\n      swap2\n      swap1\n      pop\n      jump\t// out\n        /* \"#utility.yul\":13290:13437   */\n    tag_228:\n        /* \"#utility.yul\":13385:13430   */\n      tag_387\n        /* \"#utility.yul\":13424:13429   */\n      dup2\n        /* \"#utility.yul\":13385:13430   */\n      tag_227\n      jump\t// in\n    tag_387:\n        /* \"#utility.yul\":13380:13383   */\n      dup3\n        /* \"#utility.yul\":13373:13431   */\n      mstore\n        /* \"#utility.yul\":13290:13437   */\n      pop\n      pop\n      jump\t// out\n        /* \"#utility.yul\":13443:14119   */\n    tag_98:\n        /* \"#utility.yul\":13654:13658   */\n      0x00\n        /* \"#utility.yul\":13692:13695   */\n      0xa0\n        /* \"#utility.yul\":13681:13690   */\n      dup3\n        /* \"#utility.yul\":13677:13696   */\n      add\n        /* \"#utility.yul\":13669:13696   */\n      swap1\n      pop\n        /* \"#utility.yul\":13706:13777   */\n      tag_389\n        /* \"#utility.yul\":13774:13775   */\n      0x00\n        /* \"#utility.yul\":13763:13772   */\n      dup4\n        /* \"#utility.yul\":13759:13776   */\n      add\n        /* \"#utility.yul\":13750:13756   */\n      dup9\n        /* \"#utility.yul\":13706:13777   */\n      tag_203\n      jump\t// in\n    tag_389:\n        /* \"#utility.yul\":13787:13859   */\n      tag_390\n        /* \"#utility.yul\":13855:13857   */\n      0x20\n        /* \"#utility.yul\":13844:13853   */\n      dup4\n        /* \"#utility.yul\":13840:13858   */\n      add\n        /* \"#utility.yul\":13831:13837   */\n      dup8\n        /* \"#utility.yul\":13787:13859   */\n      tag_203\n      jump\t// in\n    tag_390:\n        /* \"#utility.yul\":13869:13939   */\n      tag_391\n        /* \"#utility.yul\":13935:13937   */\n      0x40\n        /* \"#utility.yul\":13924:13933   */\n      dup4\n        /* \"#utility.yul\":13920:13938   */\n      add\n        /* \"#utility.yul\":13911:13917   */\n      dup7\n        /* \"#utility.yul\":13869:13939   */\n      tag_195\n      jump\t// in\n    tag_391:\n        /* \"#utility.yul\":13949:14021   */\n      tag_392\n        /* \"#utility.yul\":14017:14019   */\n      0x60\n        /* \"#utility.yul\":14006:14015   */\n      dup4\n        /* \"#utility.yul\":14002:14020   */\n      add\n        /* \"#utility.yul\":13993:13999   */\n      dup6\n        /* \"#utility.yul\":13949:14021   */\n      tag_204\n      jump\t// in\n    tag_392:\n        /* \"#utility.yul\":14031:14112   */\n      tag_393\n        /* \"#utility.yul\":14107:14110   */\n      0x80\n        /* \"#utility.yul\":14096:14105   */\n      dup4\n        /* \"#utility.yul\":14092:14111   */\n      add\n        /* \"#utility.yul\":14083:14089   */\n      dup5\n        /* \"#utility.yul\":14031:14112   */\n      tag_228\n      jump\t// in\n    tag_393:\n        /* \"#utility.yul\":13443:14119   */\n      swap7\n      swap6\n      pop\n      pop\n      pop\n      pop\n      pop\n      pop\n      jump\t// out\n        /* \"#utility.yul\":14125:14268   */\n    tag_229:\n        /* \"#utility.yul\":14182:14187   */\n      0x00\n        /* \"#utility.yul\":14213:14219   */\n      dup2\n        /* \"#utility.yul\":14207:14220   */\n      mload\n        /* \"#utility.yul\":14198:14220   */\n      swap1\n      pop\n        /* \"#utility.yul\":14229:14262   */\n      tag_395\n        /* \"#utility.yul\":14256:14261   */\n      dup2\n        /* \"#utility.yul\":14229:14262   */\n      tag_192\n      jump\t// in\n    tag_395:\n        /* \"#utility.yul\":14125:14268   */\n      swap3\n      swap2\n      pop\n      pop\n      jump\t// out\n        /* \"#utility.yul\":14274:14396   */\n    tag_230:\n        /* \"#utility.yul\":14347:14371   */\n      tag_397\n        /* \"#utility.yul\":14365:14370   */\n      dup2\n        /* \"#utility.yul\":14347:14371   */\n      tag_196\n      jump\t// in\n    tag_397:\n        /* \"#utility.yul\":14340:14345   */\n      dup2\n        /* \"#utility.yul\":14337:14372   */\n      eq\n        /* \"#utility.yul\":14327:14390   */\n      tag_398\n      jumpi\n        /* \"#utility.yul\":14386:14387   */\n      0x00\n        /* \"#utility.yul\":14383:14384   */\n      dup1\n        /* \"#utility.yul\":14376:14388   */\n      revert\n        /* \"#utility.yul\":14327:14390   */\n    tag_398:\n        /* \"#utility.yul\":14274:14396   */\n      pop\n      jump\t// out\n        /* \"#utility.yul\":14402:14545   */\n    tag_231:\n        /* \"#utility.yul\":14459:14464   */\n      0x00\n        /* \"#utility.yul\":14490:14496   */\n      dup2\n        /* \"#utility.yul\":14484:14497   */\n      mload\n        /* \"#utility.yul\":14475:14497   */\n      swap1\n      pop\n        /* \"#utility.yul\":14506:14539   */\n      tag_400\n        /* \"#utility.yul\":14533:14538   */\n      dup2\n        /* \"#utility.yul\":14506:14539   */\n      tag_230\n      jump\t// in\n    tag_400:\n        /* \"#utility.yul\":14402:14545   */\n      swap3\n      swap2\n      pop\n      pop\n      jump\t// out\n        /* \"#utility.yul\":14551:14644   */\n    tag_232:\n        /* \"#utility.yul\":14587:14594   */\n      0x00\n        /* \"#utility.yul\":14627:14637   */\n      0xffffffff\n        /* \"#utility.yul\":14620:14625   */\n      dup3\n        /* \"#utility.yul\":14616:14638   */\n      and\n        /* \"#utility.yul\":14605:14638   */\n      swap1\n      pop\n        /* \"#utility.yul\":14551:14644   */\n      swap2\n      swap1\n      pop\n      jump\t// out\n        /* \"#utility.yul\":14650:14770   */\n    tag_233:\n        /* \"#utility.yul\":14722:14745   */\n      tag_403\n        /* \"#utility.yul\":14739:14744   */\n      dup2\n        /* \"#utility.yul\":14722:14745   */\n      tag_232\n      jump\t// in\n    tag_403:\n        /* \"#utility.yul\":14715:14720   */\n      dup2\n        /* \"#utility.yul\":14712:14746   */\n      eq\n        /* \"#utility.yul\":14702:14764   */\n      tag_404\n      jumpi\n        /* \"#utility.yul\":14760:14761   */\n      0x00\n        /* \"#utility.yul\":14757:14758   */\n      dup1\n        /* \"#utility.yul\":14750:14762   */\n      revert\n        /* \"#utility.yul\":14702:14764   */\n    tag_404:\n        /* \"#utility.yul\":14650:14770   */\n      pop\n      jump\t// out\n        /* \"#utility.yul\":14776:14917   */\n    tag_234:\n        /* \"#utility.yul\":14832:14837   */\n      0x00\n        /* \"#utility.yul\":14863:14869   */\n      dup2\n        /* \"#utility.yul\":14857:14870   */\n      mload\n        /* \"#utility.yul\":14848:14870   */\n      swap1\n      pop\n        /* \"#utility.yul\":14879:14911   */\n      tag_406\n        /* \"#utility.yul\":14905:14910   */\n      dup2\n        /* \"#utility.yul\":14879:14911   */\n      tag_233\n      jump\t// in\n    tag_406:\n        /* \"#utility.yul\":14776:14917   */\n      swap3\n      swap2\n      pop\n      pop\n      jump\t// out\n        /* \"#utility.yul\":14923:15741   */\n    tag_102:\n        /* \"#utility.yul\":15019:15025   */\n      0x00\n        /* \"#utility.yul\":15027:15033   */\n      dup1\n        /* \"#utility.yul\":15035:15041   */\n      0x00\n        /* \"#utility.yul\":15043:15049   */\n      dup1\n        /* \"#utility.yul\":15092:15095   */\n      0x80\n        /* \"#utility.yul\":15080:15089   */\n      dup6\n        /* \"#utility.yul\":15071:15078   */\n      dup8\n        /* \"#utility.yul\":15067:15090   */\n      sub\n        /* \"#utility.yul\":15063:15096   */\n      slt\n        /* \"#utility.yul\":15060:15180   */\n      iszero\n      tag_408\n      jumpi\n        /* \"#utility.yul\":15099:15178   */\n      tag_409\n      tag_189\n      jump\t// in\n    tag_409:\n        /* \"#utility.yul\":15060:15180   */\n    tag_408:\n        /* \"#utility.yul\":15219:15220   */\n      0x00\n        /* \"#utility.yul\":15244:15308   */\n      tag_410\n        /* \"#utility.yul\":15300:15307   */\n      dup8\n        /* \"#utility.yul\":15291:15297   */\n      dup3\n        /* \"#utility.yul\":15280:15289   */\n      dup9\n        /* \"#utility.yul\":15276:15298   */\n      add\n        /* \"#utility.yul\":15244:15308   */\n      tag_229\n      jump\t// in\n    tag_410:\n        /* \"#utility.yul\":15234:15308   */\n      swap5\n      pop\n        /* \"#utility.yul\":15190:15318   */\n      pop\n        /* \"#utility.yul\":15357:15359   */\n      0x20\n        /* \"#utility.yul\":15383:15447   */\n      tag_411\n        /* \"#utility.yul\":15439:15446   */\n      dup8\n        /* \"#utility.yul\":15430:15436   */\n      dup3\n        /* \"#utility.yul\":15419:15428   */\n      dup9\n        /* \"#utility.yul\":15415:15437   */\n      add\n        /* \"#utility.yul\":15383:15447   */\n      tag_231\n      jump\t// in\n    tag_411:\n        /* \"#utility.yul\":15373:15447   */\n      swap4\n      pop\n        /* \"#utility.yul\":15328:15457   */\n      pop\n        /* \"#utility.yul\":15496:15498   */\n      0x40\n        /* \"#utility.yul\":15522:15585   */\n      tag_412\n        /* \"#utility.yul\":15577:15584   */\n      dup8\n        /* \"#utility.yul\":15568:15574   */\n      dup3\n        /* \"#utility.yul\":15557:15566   */\n      dup9\n        /* \"#utility.yul\":15553:15575   */\n      add\n        /* \"#utility.yul\":15522:15585   */\n      tag_234\n      jump\t// in\n    tag_412:\n        /* \"#utility.yul\":15512:15585   */\n      swap3\n      pop\n        /* \"#utility.yul\":15467:15595   */\n      pop\n        /* \"#utility.yul\":15634:15636   */\n      0x60\n        /* \"#utility.yul\":15660:15724   */\n      tag_413\n        /* \"#utility.yul\":15716:15723   */\n      dup8\n        /* \"#utility.yul\":15707:15713   */\n      dup3\n        /* \"#utility.yul\":15696:15705   */\n      dup9\n        /* \"#utility.yul\":15692:15714   */\n      add\n        /* \"#utility.yul\":15660:15724   */\n      tag_229\n      jump\t// in\n    tag_413:\n        /* \"#utility.yul\":15650:15724   */\n      swap2\n      pop\n        /* \"#utility.yul\":15605:15734   */\n      pop\n        /* \"#utility.yul\":14923:15741   */\n      swap3\n      swap6\n      swap2\n      swap5\n      pop\n      swap3\n      pop\n      jump\t// out\n        /* \"#utility.yul\":15747:15927   */\n    tag_235:\n        /* \"#utility.yul\":15795:15872   */\n      0x4e487b7100000000000000000000000000000000000000000000000000000000\n        /* \"#utility.yul\":15792:15793   */\n      0x00\n        /* \"#utility.yul\":15785:15873   */\n      mstore\n        /* \"#utility.yul\":15892:15896   */\n      0x11\n        /* \"#utility.yul\":15889:15890   */\n      0x04\n        /* \"#utility.yul\":15882:15897   */\n      mstore\n        /* \"#utility.yul\":15916:15920   */\n      0x24\n        /* \"#utility.yul\":15913:15914   */\n      0x00\n        /* \"#utility.yul\":15906:15921   */\n      revert\n        /* \"#utility.yul\":15933:16127   */\n    tag_104:\n        /* \"#utility.yul\":15973:15977   */\n      0x00\n        /* \"#utility.yul\":15993:16013   */\n      tag_416\n        /* \"#utility.yul\":16011:16012   */\n      dup3\n        /* \"#utility.yul\":15993:16013   */\n      tag_191\n      jump\t// in\n    tag_416:\n        /* \"#utility.yul\":15988:16013   */\n      swap2\n      pop\n        /* \"#utility.yul\":16027:16047   */\n      tag_417\n        /* \"#utility.yul\":16045:16046   */\n      dup4\n        /* \"#utility.yul\":16027:16047   */\n      tag_191\n      jump\t// in\n    tag_417:\n        /* \"#utility.yul\":16022:16047   */\n      swap3\n      pop\n        /* \"#utility.yul\":16071:16072   */\n      dup3\n        /* \"#utility.yul\":16068:16069   */\n      dup3\n        /* \"#utility.yul\":16064:16073   */\n      sub\n        /* \"#utility.yul\":16056:16073   */\n      swap1\n      pop\n        /* \"#utility.yul\":16095:16096   */\n      dup2\n        /* \"#utility.yul\":16089:16093   */\n      dup2\n        /* \"#utility.yul\":16086:16097   */\n      gt\n        /* \"#utility.yul\":16083:16120   */\n      iszero\n      tag_418\n      jumpi\n        /* \"#utility.yul\":16100:16118   */\n      tag_419\n      tag_235\n      jump\t// in\n    tag_419:\n        /* \"#utility.yul\":16083:16120   */\n    tag_418:\n        /* \"#utility.yul\":15933:16127   */\n      swap3\n      swap2\n      pop\n      pop\n      jump\t// out\n        /* \"#utility.yul\":16133:16543   */\n    tag_106:\n        /* \"#utility.yul\":16173:16180   */\n      0x00\n        /* \"#utility.yul\":16196:16216   */\n      tag_421\n        /* \"#utility.yul\":16214:16215   */\n      dup3\n        /* \"#utility.yul\":16196:16216   */\n      tag_191\n      jump\t// in\n    tag_421:\n        /* \"#utility.yul\":16191:16216   */\n      swap2\n      pop\n        /* \"#utility.yul\":16230:16250   */\n      tag_422\n        /* \"#utility.yul\":16248:16249   */\n      dup4\n        /* \"#utility.yul\":16230:16250   */\n      tag_191\n      jump\t// in\n    tag_422:\n        /* \"#utility.yul\":16225:16250   */\n      swap3\n      pop\n        /* \"#utility.yul\":16285:16286   */\n      dup3\n        /* \"#utility.yul\":16282:16283   */\n      dup3\n        /* \"#utility.yul\":16278:16287   */\n      mul\n        /* \"#utility.yul\":16307:16337   */\n      tag_423\n        /* \"#utility.yul\":16325:16336   */\n      dup2\n        /* \"#utility.yul\":16307:16337   */\n      tag_191\n      jump\t// in\n    tag_423:\n        /* \"#utility.yul\":16296:16337   */\n      swap2\n      pop\n        /* \"#utility.yul\":16486:16487   */\n      dup3\n        /* \"#utility.yul\":16477:16484   */\n      dup3\n        /* \"#utility.yul\":16473:16488   */\n      div\n        /* \"#utility.yul\":16470:16471   */\n      dup5\n        /* \"#utility.yul\":16467:16489   */\n      eq\n        /* \"#utility.yul\":16447:16448   */\n      dup4\n        /* \"#utility.yul\":16440:16449   */\n      iszero\n        /* \"#utility.yul\":16420:16503   */\n      or\n        /* \"#utility.yul\":16397:16536   */\n      tag_424\n      jumpi\n        /* \"#utility.yul\":16516:16534   */\n      tag_425\n      tag_235\n      jump\t// in\n    tag_425:\n        /* \"#utility.yul\":16397:16536   */\n    tag_424:\n        /* \"#utility.yul\":16181:16543   */\n      pop\n        /* \"#utility.yul\":16133:16543   */\n      swap3\n      swap2\n      pop\n      pop\n      jump\t// out\n        /* \"#utility.yul\":16549:16729   */\n    tag_236:\n        /* \"#utility.yul\":16597:16674   */\n      0x4e487b7100000000000000000000000000000000000000000000000000000000\n        /* \"#utility.yul\":16594:16595   */\n      0x00\n        /* \"#utility.yul\":16587:16675   */\n      mstore\n        /* \"#utility.yul\":16694:16698   */\n      0x12\n        /* \"#utility.yul\":16691:16692   */\n      0x04\n        /* \"#utility.yul\":16684:16699   */\n      mstore\n        /* \"#utility.yul\":16718:16722   */\n      0x24\n        /* \"#utility.yul\":16715:16716   */\n      0x00\n        /* \"#utility.yul\":16708:16723   */\n      revert\n        /* \"#utility.yul\":16735:16920   */\n    tag_108:\n        /* \"#utility.yul\":16775:16776   */\n      0x00\n        /* \"#utility.yul\":16792:16812   */\n      tag_428\n        /* \"#utility.yul\":16810:16811   */\n      dup3\n        /* \"#utility.yul\":16792:16812   */\n      tag_191\n      jump\t// in\n    tag_428:\n        /* \"#utility.yul\":16787:16812   */\n      swap2\n      pop\n        /* \"#utility.yul\":16826:16846   */\n      tag_429\n        /* \"#utility.yul\":16844:16845   */\n      dup4\n        /* \"#utility.yul\":16826:16846   */\n      tag_191\n      jump\t// in\n    tag_429:\n        /* \"#utility.yul\":16821:16846   */\n      swap3\n      pop\n        /* \"#utility.yul\":16865:16866   */\n      dup3\n        /* \"#utility.yul\":16855:16890   */\n      tag_430\n      jumpi\n        /* \"#utility.yul\":16870:16888   */\n      tag_431\n      tag_236\n      jump\t// in\n    tag_431:\n        /* \"#utility.yul\":16855:16890   */\n    tag_430:\n        /* \"#utility.yul\":16912:16913   */\n      dup3\n        /* \"#utility.yul\":16909:16910   */\n      dup3\n        /* \"#utility.yul\":16905:16914   */\n      div\n        /* \"#utility.yul\":16900:16914   */\n      swap1\n      pop\n        /* \"#utility.yul\":16735:16920   */\n      swap3\n      swap2\n      pop\n      pop\n      jump\t// out\n        /* \"#utility.yul\":16926:17368   */\n    tag_110:\n        /* \"#utility.yul\":17075:17079   */\n      0x00\n        /* \"#utility.yul\":17113:17115   */\n      0x60\n        /* \"#utility.yul\":17102:17111   */\n      dup3\n        /* \"#utility.yul\":17098:17116   */\n      add\n        /* \"#utility.yul\":17090:17116   */\n      swap1\n      pop\n        /* \"#utility.yul\":17126:17197   */\n      tag_433\n        /* \"#utility.yul\":17194:17195   */\n      0x00\n        /* \"#utility.yul\":17183:17192   */\n      dup4\n        /* \"#utility.yul\":17179:17196   */\n      add\n        /* \"#utility.yul\":17170:17176   */\n      dup7\n        /* \"#utility.yul\":17126:17197   */\n      tag_203\n      jump\t// in\n    tag_433:\n        /* \"#utility.yul\":17207:17279   */\n      tag_434\n        /* \"#utility.yul\":17275:17277   */\n      0x20\n        /* \"#utility.yul\":17264:17273   */\n      dup4\n        /* \"#utility.yul\":17260:17278   */\n      add\n        /* \"#utility.yul\":17251:17257   */\n      dup6\n        /* \"#utility.yul\":17207:17279   */\n      tag_203\n      jump\t// in\n    tag_434:\n        /* \"#utility.yul\":17289:17361   */\n      tag_435\n        /* \"#utility.yul\":17357:17359   */\n      0x40\n        /* \"#utility.yul\":17346:17355   */\n      dup4\n        /* \"#utility.yul\":17342:17360   */\n      add\n        /* \"#utility.yul\":17333:17339   */\n      dup5\n        /* \"#utility.yul\":17289:17361   */\n      tag_204\n      jump\t// in\n    tag_435:\n        /* \"#utility.yul\":16926:17368   */\n      swap5\n      swap4\n      pop\n      pop\n      pop\n      pop\n      jump\t// out\n        /* \"#utility.yul\":17374:17511   */\n    tag_237:\n        /* \"#utility.yul\":17428:17433   */\n      0x00\n        /* \"#utility.yul\":17459:17465   */\n      dup2\n        /* \"#utility.yul\":17453:17466   */\n      mload\n        /* \"#utility.yul\":17444:17466   */\n      swap1\n      pop\n        /* \"#utility.yul\":17475:17505   */\n      tag_437\n        /* \"#utility.yul\":17499:17504   */\n      dup2\n        /* \"#utility.yul\":17475:17505   */\n      tag_201\n      jump\t// in\n    tag_437:\n        /* \"#utility.yul\":17374:17511   */\n      swap3\n      swap2\n      pop\n      pop\n      jump\t// out\n        /* \"#utility.yul\":17517:17862   */\n    tag_114:\n        /* \"#utility.yul\":17584:17590   */\n      0x00\n        /* \"#utility.yul\":17633:17635   */\n      0x20\n        /* \"#utility.yul\":17621:17630   */\n      dup3\n        /* \"#utility.yul\":17612:17619   */\n      dup5\n        /* \"#utility.yul\":17608:17631   */\n      sub\n        /* \"#utility.yul\":17604:17636   */\n      slt\n        /* \"#utility.yul\":17601:17720   */\n      iszero\n      tag_439\n      jumpi\n        /* \"#utility.yul\":17639:17718   */\n      tag_440\n      tag_189\n      jump\t// in\n    tag_440:\n        /* \"#utility.yul\":17601:17720   */\n    tag_439:\n        /* \"#utility.yul\":17759:17760   */\n      0x00\n        /* \"#utility.yul\":17784:17845   */\n      tag_441\n        /* \"#utility.yul\":17837:17844   */\n      dup5\n        /* \"#utility.yul\":17828:17834   */\n      dup3\n        /* \"#utility.yul\":17817:17826   */\n      dup6\n        /* \"#utility.yul\":17813:17835   */\n      add\n        /* \"#utility.yul\":17784:17845   */\n      tag_237\n      jump\t// in\n    tag_441:\n        /* \"#utility.yul\":17774:17845   */\n      swap2\n      pop\n        /* \"#utility.yul\":17730:17855   */\n      pop\n        /* \"#utility.yul\":17517:17862   */\n      swap3\n      swap2\n      pop\n      pop\n      jump\t// out\n        /* \"#utility.yul\":17868:18200   */\n    tag_116:\n        /* \"#utility.yul\":17989:17993   */\n      0x00\n        /* \"#utility.yul\":18027:18029   */\n      0x40\n        /* \"#utility.yul\":18016:18025   */\n      dup3\n        /* \"#utility.yul\":18012:18030   */\n      add\n        /* \"#utility.yul\":18004:18030   */\n      swap1\n      pop\n        /* \"#utility.yul\":18040:18111   */\n      tag_443\n        /* \"#utility.yul\":18108:18109   */\n      0x00\n        /* \"#utility.yul\":18097:18106   */\n      dup4\n        /* \"#utility.yul\":18093:18110   */\n      add\n        /* \"#utility.yul\":18084:18090   */\n      dup6\n        /* \"#utility.yul\":18040:18111   */\n      tag_203\n      jump\t// in\n    tag_443:\n        /* \"#utility.yul\":18121:18193   */\n      tag_444\n        /* \"#utility.yul\":18189:18191   */\n      0x20\n        /* \"#utility.yul\":18178:18187   */\n      dup4\n        /* \"#utility.yul\":18174:18192   */\n      add\n        /* \"#utility.yul\":18165:18171   */\n      dup5\n        /* \"#utility.yul\":18121:18193   */\n      tag_204\n      jump\t// in\n    tag_444:\n        /* \"#utility.yul\":17868:18200   */\n      swap4\n      swap3\n      pop\n      pop\n      pop\n      jump\t// out\n        /* \"#utility.yul\":18206:18397   */\n    tag_121:\n        /* \"#utility.yul\":18246:18249   */\n      0x00\n        /* \"#utility.yul\":18265:18285   */\n      tag_446\n        /* \"#utility.yul\":18283:18284   */\n      dup3\n        /* \"#utility.yul\":18265:18285   */\n      tag_191\n      jump\t// in\n    tag_446:\n        /* \"#utility.yul\":18260:18285   */\n      swap2\n      pop\n        /* \"#utility.yul\":18299:18319   */\n      tag_447\n        /* \"#utility.yul\":18317:18318   */\n      dup4\n        /* \"#utility.yul\":18299:18319   */\n      tag_191\n      jump\t// in\n    tag_447:\n        /* \"#utility.yul\":18294:18319   */\n      swap3\n      pop\n        /* \"#utility.yul\":18342:18343   */\n      dup3\n        /* \"#utility.yul\":18339:18340   */\n      dup3\n        /* \"#utility.yul\":18335:18344   */\n      add\n        /* \"#utility.yul\":18328:18344   */\n      swap1\n      pop\n        /* \"#utility.yul\":18363:18366   */\n      dup1\n        /* \"#utility.yul\":18360:18361   */\n      dup3\n        /* \"#utility.yul\":18357:18367   */\n      gt\n        /* \"#utility.yul\":18354:18390   */\n      iszero\n      tag_448\n      jumpi\n        /* \"#utility.yul\":18370:18388   */\n      tag_449\n      tag_235\n      jump\t// in\n    tag_449:\n        /* \"#utility.yul\":18354:18390   */\n    tag_448:\n        /* \"#utility.yul\":18206:18397   */\n      swap3\n      swap2\n      pop\n      pop\n      jump\t// out\n        /* \"#utility.yul\":18403:18511   */\n    tag_238:\n        /* \"#utility.yul\":18480:18504   */\n      tag_451\n        /* \"#utility.yul\":18498:18503   */\n      dup2\n        /* \"#utility.yul\":18480:18504   */\n      tag_197\n      jump\t// in\n    tag_451:\n        /* \"#utility.yul\":18475:18478   */\n      dup3\n        /* \"#utility.yul\":18468:18505   */\n      mstore\n        /* \"#utility.yul\":18403:18511   */\n      pop\n      pop\n      jump\t// out\n        /* \"#utility.yul\":18517:18622   */\n    tag_239:\n        /* \"#utility.yul\":18592:18615   */\n      tag_453\n        /* \"#utility.yul\":18609:18614   */\n      dup2\n        /* \"#utility.yul\":18592:18615   */\n      tag_194\n      jump\t// in\n    tag_453:\n        /* \"#utility.yul\":18587:18590   */\n      dup3\n        /* \"#utility.yul\":18580:18616   */\n      mstore\n        /* \"#utility.yul\":18517:18622   */\n      pop\n      pop\n      jump\t// out\n        /* \"#utility.yul\":18628:18736   */\n    tag_240:\n        /* \"#utility.yul\":18705:18729   */\n      tag_455\n        /* \"#utility.yul\":18723:18728   */\n      dup2\n        /* \"#utility.yul\":18705:18729   */\n      tag_191\n      jump\t// in\n    tag_455:\n        /* \"#utility.yul\":18700:18703   */\n      dup3\n        /* \"#utility.yul\":18693:18730   */\n      mstore\n        /* \"#utility.yul\":18628:18736   */\n      pop\n      pop\n      jump\t// out\n        /* \"#utility.yul\":18742:18850   */\n    tag_241:\n        /* \"#utility.yul\":18819:18843   */\n      tag_457\n        /* \"#utility.yul\":18837:18842   */\n      dup2\n        /* \"#utility.yul\":18819:18843   */\n      tag_196\n      jump\t// in\n    tag_457:\n        /* \"#utility.yul\":18814:18817   */\n      dup3\n        /* \"#utility.yul\":18807:18844   */\n      mstore\n        /* \"#utility.yul\":18742:18850   */\n      pop\n      pop\n      jump\t// out\n        /* \"#utility.yul\":18950:20573   */\n    tag_242:\n        /* \"#utility.yul\":19125:19131   */\n      0x0100\n        /* \"#utility.yul\":19120:19123   */\n      dup3\n        /* \"#utility.yul\":19116:19132   */\n      add\n        /* \"#utility.yul\":19217:19221   */\n      0x00\n        /* \"#utility.yul\":19210:19215   */\n      dup3\n        /* \"#utility.yul\":19206:19222   */\n      add\n        /* \"#utility.yul\":19200:19223   */\n      mload\n        /* \"#utility.yul\":19236:19299   */\n      tag_459\n        /* \"#utility.yul\":19293:19297   */\n      0x00\n        /* \"#utility.yul\":19288:19291   */\n      dup6\n        /* \"#utility.yul\":19284:19298   */\n      add\n        /* \"#utility.yul\":19270:19282   */\n      dup3\n        /* \"#utility.yul\":19236:19299   */\n      tag_238\n      jump\t// in\n    tag_459:\n        /* \"#utility.yul\":19142:19309   */\n      pop\n        /* \"#utility.yul\":19395:19399   */\n      0x20\n        /* \"#utility.yul\":19388:19393   */\n      dup3\n        /* \"#utility.yul\":19384:19400   */\n      add\n        /* \"#utility.yul\":19378:19401   */\n      mload\n        /* \"#utility.yul\":19414:19477   */\n      tag_460\n        /* \"#utility.yul\":19471:19475   */\n      0x20\n        /* \"#utility.yul\":19466:19469   */\n      dup6\n        /* \"#utility.yul\":19462:19476   */\n      add\n        /* \"#utility.yul\":19448:19460   */\n      dup3\n        /* \"#utility.yul\":19414:19477   */\n      tag_238\n      jump\t// in\n    tag_460:\n        /* \"#utility.yul\":19319:19487   */\n      pop\n        /* \"#utility.yul\":19568:19572   */\n      0x40\n        /* \"#utility.yul\":19561:19566   */\n      dup3\n        /* \"#utility.yul\":19557:19573   */\n      add\n        /* \"#utility.yul\":19551:19574   */\n      mload\n        /* \"#utility.yul\":19587:19648   */\n      tag_461\n        /* \"#utility.yul\":19642:19646   */\n      0x40\n        /* \"#utility.yul\":19637:19640   */\n      dup6\n        /* \"#utility.yul\":19633:19647   */\n      add\n        /* \"#utility.yul\":19619:19631   */\n      dup3\n        /* \"#utility.yul\":19587:19648   */\n      tag_239\n      jump\t// in\n    tag_461:\n        /* \"#utility.yul\":19497:19658   */\n      pop\n        /* \"#utility.yul\":19745:19749   */\n      0x60\n        /* \"#utility.yul\":19738:19743   */\n      dup3\n        /* \"#utility.yul\":19734:19750   */\n      add\n        /* \"#utility.yul\":19728:19751   */\n      mload\n        /* \"#utility.yul\":19764:19827   */\n      tag_462\n        /* \"#utility.yul\":19821:19825   */\n      0x60\n        /* \"#utility.yul\":19816:19819   */\n      dup6\n        /* \"#utility.yul\":19812:19826   */\n      add\n        /* \"#utility.yul\":19798:19810   */\n      dup3\n        /* \"#utility.yul\":19764:19827   */\n      tag_238\n      jump\t// in\n    tag_462:\n        /* \"#utility.yul\":19668:19837   */\n      pop\n        /* \"#utility.yul\":19923:19927   */\n      0x80\n        /* \"#utility.yul\":19916:19921   */\n      dup3\n        /* \"#utility.yul\":19912:19928   */\n      add\n        /* \"#utility.yul\":19906:19929   */\n      mload\n        /* \"#utility.yul\":19942:20005   */\n      tag_463\n        /* \"#utility.yul\":19999:20003   */\n      0x80\n        /* \"#utility.yul\":19994:19997   */\n      dup6\n        /* \"#utility.yul\":19990:20004   */\n      add\n        /* \"#utility.yul\":19976:19988   */\n      dup3\n        /* \"#utility.yul\":19942:20005   */\n      tag_240\n      jump\t// in\n    tag_463:\n        /* \"#utility.yul\":19847:20015   */\n      pop\n        /* \"#utility.yul\":20101:20105   */\n      0xa0\n        /* \"#utility.yul\":20094:20099   */\n      dup3\n        /* \"#utility.yul\":20090:20106   */\n      add\n        /* \"#utility.yul\":20084:20107   */\n      mload\n        /* \"#utility.yul\":20120:20183   */\n      tag_464\n        /* \"#utility.yul\":20177:20181   */\n      0xa0\n        /* \"#utility.yul\":20172:20175   */\n      dup6\n        /* \"#utility.yul\":20168:20182   */\n      add\n        /* \"#utility.yul\":20154:20166   */\n      dup3\n        /* \"#utility.yul\":20120:20183   */\n      tag_240\n      jump\t// in\n    tag_464:\n        /* \"#utility.yul\":20025:20193   */\n      pop\n        /* \"#utility.yul\":20287:20291   */\n      0xc0\n        /* \"#utility.yul\":20280:20285   */\n      dup3\n        /* \"#utility.yul\":20276:20292   */\n      add\n        /* \"#utility.yul\":20270:20293   */\n      mload\n        /* \"#utility.yul\":20306:20369   */\n      tag_465\n        /* \"#utility.yul\":20363:20367   */\n      0xc0\n        /* \"#utility.yul\":20358:20361   */\n      dup6\n        /* \"#utility.yul\":20354:20368   */\n      add\n        /* \"#utility.yul\":20340:20352   */\n      dup3\n        /* \"#utility.yul\":20306:20369   */\n      tag_240\n      jump\t// in\n    tag_465:\n        /* \"#utility.yul\":20203:20379   */\n      pop\n        /* \"#utility.yul\":20474:20478   */\n      0xe0\n        /* \"#utility.yul\":20467:20472   */\n      dup3\n        /* \"#utility.yul\":20463:20479   */\n      add\n        /* \"#utility.yul\":20457:20480   */\n      mload\n        /* \"#utility.yul\":20493:20556   */\n      tag_466\n        /* \"#utility.yul\":20550:20554   */\n      0xe0\n        /* \"#utility.yul\":20545:20548   */\n      dup6\n        /* \"#utility.yul\":20541:20555   */\n      add\n        /* \"#utility.yul\":20527:20539   */\n      dup3\n        /* \"#utility.yul\":20493:20556   */\n      tag_241\n      jump\t// in\n    tag_466:\n        /* \"#utility.yul\":20389:20566   */\n      pop\n        /* \"#utility.yul\":19094:20573   */\n      pop\n        /* \"#utility.yul\":18950:20573   */\n      pop\n      pop\n      jump\t// out\n        /* \"#utility.yul\":20579:20958   */\n    tag_123:\n        /* \"#utility.yul\":20750:20754   */\n      0x00\n        /* \"#utility.yul\":20788:20791   */\n      0x0100\n        /* \"#utility.yul\":20777:20786   */\n      dup3\n        /* \"#utility.yul\":20773:20792   */\n      add\n        /* \"#utility.yul\":20765:20792   */\n      swap1\n      pop\n        /* \"#utility.yul\":20802:20951   */\n      tag_468\n        /* \"#utility.yul\":20948:20949   */\n      0x00\n        /* \"#utility.yul\":20937:20946   */\n      dup4\n        /* \"#utility.yul\":20933:20950   */\n      add\n        /* \"#utility.yul\":20924:20930   */\n      dup5\n        /* \"#utility.yul\":20802:20951   */\n      tag_242\n      jump\t// in\n    tag_468:\n        /* \"#utility.yul\":20579:20958   */\n      swap3\n      swap2\n      pop\n      pop\n      jump\t// out\n        /* \"#utility.yul\":20964:21315   */\n    tag_127:\n        /* \"#utility.yul\":21034:21040   */\n      0x00\n        /* \"#utility.yul\":21083:21085   */\n      0x20\n        /* \"#utility.yul\":21071:21080   */\n      dup3\n        /* \"#utility.yul\":21062:21069   */\n      dup5\n        /* \"#utility.yul\":21058:21081   */\n      sub\n        /* \"#utility.yul\":21054:21086   */\n      slt\n        /* \"#utility.yul\":21051:21170   */\n      iszero\n      tag_470\n      jumpi\n        /* \"#utility.yul\":21089:21168   */\n      tag_471\n      tag_189\n      jump\t// in\n    tag_471:\n        /* \"#utility.yul\":21051:21170   */\n    tag_470:\n        /* \"#utility.yul\":21209:21210   */\n      0x00\n        /* \"#utility.yul\":21234:21298   */\n      tag_472\n        /* \"#utility.yul\":21290:21297   */\n      dup5\n        /* \"#utility.yul\":21281:21287   */\n      dup3\n        /* \"#utility.yul\":21270:21279   */\n      dup6\n        /* \"#utility.yul\":21266:21288   */\n      add\n        /* \"#utility.yul\":21234:21298   */\n      tag_229\n      jump\t// in\n    tag_472:\n        /* \"#utility.yul\":21224:21298   */\n      swap2\n      pop\n        /* \"#utility.yul\":21180:21308   */\n      pop\n        /* \"#utility.yul\":20964:21315   */\n      swap3\n      swap2\n      pop\n      pop\n      jump\t// out\n        /* \"#utility.yul\":21321:22092   */\n    tag_129:\n        /* \"#utility.yul\":21552:21556   */\n      0x00\n        /* \"#utility.yul\":21590:21593   */\n      0xc0\n        /* \"#utility.yul\":21579:21588   */\n      dup3\n        /* \"#utility.yul\":21575:21594   */\n      add\n        /* \"#utility.yul\":21567:21594   */\n      swap1\n      pop\n        /* \"#utility.yul\":21604:21675   */\n      tag_474\n        /* \"#utility.yul\":21672:21673   */\n      0x00\n        /* \"#utility.yul\":21661:21670   */\n      dup4\n        /* \"#utility.yul\":21657:21674   */\n      add\n        /* \"#utility.yul\":21648:21654   */\n      dup10\n        /* \"#utility.yul\":21604:21675   */\n      tag_203\n      jump\t// in\n    tag_474:\n        /* \"#utility.yul\":21685:21757   */\n      tag_475\n        /* \"#utility.yul\":21753:21755   */\n      0x20\n        /* \"#utility.yul\":21742:21751   */\n      dup4\n        /* \"#utility.yul\":21738:21756   */\n      add\n        /* \"#utility.yul\":21729:21735   */\n      dup9\n        /* \"#utility.yul\":21685:21757   */\n      tag_203\n      jump\t// in\n    tag_475:\n        /* \"#utility.yul\":21767:21839   */\n      tag_476\n        /* \"#utility.yul\":21835:21837   */\n      0x40\n        /* \"#utility.yul\":21824:21833   */\n      dup4\n        /* \"#utility.yul\":21820:21838   */\n      add\n        /* \"#utility.yul\":21811:21817   */\n      dup8\n        /* \"#utility.yul\":21767:21839   */\n      tag_204\n      jump\t// in\n    tag_476:\n        /* \"#utility.yul\":21849:21921   */\n      tag_477\n        /* \"#utility.yul\":21917:21919   */\n      0x60\n        /* \"#utility.yul\":21906:21915   */\n      dup4\n        /* \"#utility.yul\":21902:21920   */\n      add\n        /* \"#utility.yul\":21893:21899   */\n      dup7\n        /* \"#utility.yul\":21849:21921   */\n      tag_204\n      jump\t// in\n    tag_477:\n        /* \"#utility.yul\":21931:22004   */\n      tag_478\n        /* \"#utility.yul\":21999:22002   */\n      0x80\n        /* \"#utility.yul\":21988:21997   */\n      dup4\n        /* \"#utility.yul\":21984:22003   */\n      add\n        /* \"#utility.yul\":21975:21981   */\n      dup6\n        /* \"#utility.yul\":21931:22004   */\n      tag_203\n      jump\t// in\n    tag_478:\n        /* \"#utility.yul\":22014:22085   */\n      tag_479\n        /* \"#utility.yul\":22080:22083   */\n      0xa0\n        /* \"#utility.yul\":22069:22078   */\n      dup4\n        /* \"#utility.yul\":22065:22084   */\n      add\n        /* \"#utility.yul\":22056:22062   */\n      dup5\n        /* \"#utility.yul\":22014:22085   */\n      tag_195\n      jump\t// in\n    tag_479:\n        /* \"#utility.yul\":21321:22092   */\n      swap8\n      swap7\n      pop\n      pop\n      pop\n      pop\n      pop\n      pop\n      pop\n      jump\t// out\n        /* \"#utility.yul\":22098:22261   */\n    tag_243:\n        /* \"#utility.yul\":22238:22253   */\n      0x4e6f74204149204f7261636c6500000000000000000000000000000000000000\n        /* \"#utility.yul\":22234:22235   */\n      0x00\n        /* \"#utility.yul\":22226:22232   */\n      dup3\n        /* \"#utility.yul\":22222:22236   */\n      add\n        /* \"#utility.yul\":22215:22254   */\n      mstore\n        /* \"#utility.yul\":22098:22261   */\n      pop\n      jump\t// out\n        /* \"#utility.yul\":22267:22633   */\n    tag_244:\n        /* \"#utility.yul\":22409:22412   */\n      0x00\n        /* \"#utility.yul\":22430:22497   */\n      tag_482\n        /* \"#utility.yul\":22494:22496   */\n      0x0d\n        /* \"#utility.yul\":22489:22492   */\n      dup4\n        /* \"#utility.yul\":22430:22497   */\n      tag_219\n      jump\t// in\n    tag_482:\n        /* \"#utility.yul\":22423:22497   */\n      swap2\n      pop\n        /* \"#utility.yul\":22506:22599   */\n      tag_483\n        /* \"#utility.yul\":22595:22598   */\n      dup3\n        /* \"#utility.yul\":22506:22599   */\n      tag_243\n      jump\t// in\n    tag_483:\n        /* \"#utility.yul\":22624:22626   */\n      0x20\n        /* \"#utility.yul\":22619:22622   */\n      dup3\n        /* \"#utility.yul\":22615:22627   */\n      add\n        /* \"#utility.yul\":22608:22627   */\n      swap1\n      pop\n        /* \"#utility.yul\":22267:22633   */\n      swap2\n      swap1\n      pop\n      jump\t// out\n        /* \"#utility.yul\":22639:23058   */\n    tag_133:\n        /* \"#utility.yul\":22805:22809   */\n      0x00\n        /* \"#utility.yul\":22843:22845   */\n      0x20\n        /* \"#utility.yul\":22832:22841   */\n      dup3\n        /* \"#utility.yul\":22828:22846   */\n      add\n        /* \"#utility.yul\":22820:22846   */\n      swap1\n      pop\n        /* \"#utility.yul\":22892:22901   */\n      dup2\n        /* \"#utility.yul\":22886:22890   */\n      dup2\n        /* \"#utility.yul\":22882:22902   */\n      sub\n        /* \"#utility.yul\":22878:22879   */\n      0x00\n        /* \"#utility.yul\":22867:22876   */\n      dup4\n        /* \"#utility.yul\":22863:22880   */\n      add\n        /* \"#utility.yul\":22856:22903   */\n      mstore\n        /* \"#utility.yul\":22920:23051   */\n      tag_485\n        /* \"#utility.yul\":23046:23050   */\n      dup2\n        /* \"#utility.yul\":22920:23051   */\n      tag_244\n      jump\t// in\n    tag_485:\n        /* \"#utility.yul\":22912:23051   */\n      swap1\n      pop\n        /* \"#utility.yul\":22639:23058   */\n      swap2\n      swap1\n      pop\n      jump\t// out\n        /* \"#utility.yul\":23064:23244   */\n    tag_168:\n        /* \"#utility.yul\":23112:23189   */\n      0x4e487b7100000000000000000000000000000000000000000000000000000000\n        /* \"#utility.yul\":23109:23110   */\n      0x00\n        /* \"#utility.yul\":23102:23190   */\n      mstore\n        /* \"#utility.yul\":23209:23213   */\n      0x32\n        /* \"#utility.yul\":23206:23207   */\n      0x04\n        /* \"#utility.yul\":23199:23214   */\n      mstore\n        /* \"#utility.yul\":23233:23237   */\n      0x24\n        /* \"#utility.yul\":23230:23231   */\n      0x00\n        /* \"#utility.yul\":23223:23238   */\n      revert\n        /* \"#utility.yul\":23250:23688   */\n    tag_171:\n        /* \"#utility.yul\":23397:23401   */\n      0x00\n        /* \"#utility.yul\":23435:23437   */\n      0x60\n        /* \"#utility.yul\":23424:23433   */\n      dup3\n        /* \"#utility.yul\":23420:23438   */\n      add\n        /* \"#utility.yul\":23412:23438   */\n      swap1\n      pop\n        /* \"#utility.yul\":23448:23519   */\n      tag_488\n        /* \"#utility.yul\":23516:23517   */\n      0x00\n        /* \"#utility.yul\":23505:23514   */\n      dup4\n        /* \"#utility.yul\":23501:23518   */\n      add\n        /* \"#utility.yul\":23492:23498   */\n      dup7\n        /* \"#utility.yul\":23448:23519   */\n      tag_203\n      jump\t// in\n    tag_488:\n        /* \"#utility.yul\":23529:23601   */\n      tag_489\n        /* \"#utility.yul\":23597:23599   */\n      0x20\n        /* \"#utility.yul\":23586:23595   */\n      dup4\n        /* \"#utility.yul\":23582:23600   */\n      add\n        /* \"#utility.yul\":23573:23579   */\n      dup6\n        /* \"#utility.yul\":23529:23601   */\n      tag_203\n      jump\t// in\n    tag_489:\n        /* \"#utility.yul\":23611:23681   */\n      tag_490\n        /* \"#utility.yul\":23677:23679   */\n      0x40\n        /* \"#utility.yul\":23666:23675   */\n      dup4\n        /* \"#utility.yul\":23662:23680   */\n      add\n        /* \"#utility.yul\":23653:23659   */\n      dup5\n        /* \"#utility.yul\":23611:23681   */\n      tag_195\n      jump\t// in\n    tag_490:\n        /* \"#utility.yul\":23250:23688   */\n      swap5\n      swap4\n      pop\n      pop\n      pop\n      pop\n      jump\t// out\n        /* \"#utility.yul\":23694:23837   */\n    tag_245:\n        /* \"#utility.yul\":23751:23756   */\n      0x00\n        /* \"#utility.yul\":23782:23788   */\n      dup2\n        /* \"#utility.yul\":23776:23789   */\n      mload\n        /* \"#utility.yul\":23767:23789   */\n      swap1\n      pop\n        /* \"#utility.yul\":23798:23831   */\n      tag_492\n        /* \"#utility.yul\":23825:23830   */\n      dup2\n        /* \"#utility.yul\":23798:23831   */\n      tag_198\n      jump\t// in\n    tag_492:\n        /* \"#utility.yul\":23694:23837   */\n      swap3\n      swap2\n      pop\n      pop\n      jump\t// out\n        /* \"#utility.yul\":23843:24194   */\n    tag_175:\n        /* \"#utility.yul\":23913:23919   */\n      0x00\n        /* \"#utility.yul\":23962:23964   */\n      0x20\n        /* \"#utility.yul\":23950:23959   */\n      dup3\n        /* \"#utility.yul\":23941:23948   */\n      dup5\n        /* \"#utility.yul\":23937:23960   */\n      sub\n        /* \"#utility.yul\":23933:23965   */\n      slt\n        /* \"#utility.yul\":23930:24049   */\n      iszero\n      tag_494\n      jumpi\n        /* \"#utility.yul\":23968:24047   */\n      tag_495\n      tag_189\n      jump\t// in\n    tag_495:\n        /* \"#utility.yul\":23930:24049   */\n    tag_494:\n        /* \"#utility.yul\":24088:24089   */\n      0x00\n        /* \"#utility.yul\":24113:24177   */\n      tag_496\n        /* \"#utility.yul\":24169:24176   */\n      dup5\n        /* \"#utility.yul\":24160:24166   */\n      dup3\n        /* \"#utility.yul\":24149:24158   */\n      dup6\n        /* \"#utility.yul\":24145:24167   */\n      add\n        /* \"#utility.yul\":24113:24177   */\n      tag_245\n      jump\t// in\n    tag_496:\n        /* \"#utility.yul\":24103:24177   */\n      swap2\n      pop\n        /* \"#utility.yul\":24059:24187   */\n      pop\n        /* \"#utility.yul\":23843:24194   */\n      swap3\n      swap2\n      pop\n      pop\n      jump\t// out\n        /* \"#utility.yul\":24200:24363   */\n    tag_246:\n        /* \"#utility.yul\":24340:24355   */\n      0x4e6f20706f6f6c20666f756e6400000000000000000000000000000000000000\n        /* \"#utility.yul\":24336:24337   */\n      0x00\n        /* \"#utility.yul\":24328:24334   */\n      dup3\n        /* \"#utility.yul\":24324:24338   */\n      add\n        /* \"#utility.yul\":24317:24356   */\n      mstore\n        /* \"#utility.yul\":24200:24363   */\n      pop\n      jump\t// out\n        /* \"#utility.yul\":24369:24735   */\n    tag_247:\n        /* \"#utility.yul\":24511:24514   */\n      0x00\n        /* \"#utility.yul\":24532:24599   */\n      tag_499\n        /* \"#utility.yul\":24596:24598   */\n      0x0d\n        /* \"#utility.yul\":24591:24594   */\n      dup4\n        /* \"#utility.yul\":24532:24599   */\n      tag_219\n      jump\t// in\n    tag_499:\n        /* \"#utility.yul\":24525:24599   */\n      swap2\n      pop\n        /* \"#utility.yul\":24608:24701   */\n      tag_500\n        /* \"#utility.yul\":24697:24700   */\n      dup3\n        /* \"#utility.yul\":24608:24701   */\n      tag_246\n      jump\t// in\n    tag_500:\n        /* \"#utility.yul\":24726:24728   */\n      0x20\n        /* \"#utility.yul\":24721:24724   */\n      dup3\n        /* \"#utility.yul\":24717:24729   */\n      add\n        /* \"#utility.yul\":24710:24729   */\n      swap1\n      pop\n        /* \"#utility.yul\":24369:24735   */\n      swap2\n      swap1\n      pop\n      jump\t// out\n        /* \"#utility.yul\":24741:25160   */\n    tag_187:\n        /* \"#utility.yul\":24907:24911   */\n      0x00\n        /* \"#utility.yul\":24945:24947   */\n      0x20\n        /* \"#utility.yul\":24934:24943   */\n      dup3\n        /* \"#utility.yul\":24930:24948   */\n      add\n        /* \"#utility.yul\":24922:24948   */\n      swap1\n      pop\n        /* \"#utility.yul\":24994:25003   */\n      dup2\n        /* \"#utility.yul\":24988:24992   */\n      dup2\n        /* \"#utility.yul\":24984:25004   */\n      sub\n        /* \"#utility.yul\":24980:24981   */\n      0x00\n        /* \"#utility.yul\":24969:24978   */\n      dup4\n        /* \"#utility.yul\":24965:24982   */\n      add\n        /* \"#utility.yul\":24958:25005   */\n      mstore\n        /* \"#utility.yul\":25022:25153   */\n      tag_502\n        /* \"#utility.yul\":25148:25152   */\n      dup2\n        /* \"#utility.yul\":25022:25153   */\n      tag_247\n      jump\t// in\n    tag_502:\n        /* \"#utility.yul\":25014:25153   */\n      swap1\n      pop\n        /* \"#utility.yul\":24741:25160   */\n      swap2\n      swap1\n      pop\n      jump\t// out\n\n    auxdata: 0xa2646970667358221220584975e17cf2aee258bb11668342dbb6e9cd25088c55a0d56e3123b7bd94d6aa64736f6c634300081a0033\n}\n",
				"bytecode": {
					"linkReferences": {},
					"object": "60e06040526040518060800160405280606461ffff1681526020016101f461ffff168152602001610bb861ffff16815260200161271061ffff16815250600290600461004c92919061019e565b50348015610058575f80fd5b50604051612104380380612104833981810160405281019061007a91906102c0565b335f806101000a81548173ffffffffffffffffffffffffffffffffffffffff021916908373ffffffffffffffffffffffffffffffffffffffff1602179055508360015f6101000a81548173ffffffffffffffffffffffffffffffffffffffff021916908373ffffffffffffffffffffffffffffffffffffffff1602179055508273ffffffffffffffffffffffffffffffffffffffff1660808173ffffffffffffffffffffffffffffffffffffffff16815250508173ffffffffffffffffffffffffffffffffffffffff1660a08173ffffffffffffffffffffffffffffffffffffffff16815250508073ffffffffffffffffffffffffffffffffffffffff1660c08173ffffffffffffffffffffffffffffffffffffffff168152505050505050610324565b828054828255905f5260205f2090600901600a90048101928215610236579160200282015f5b8382111561020557835183826101000a81548162ffffff021916908361ffff16021790555092602001926003016020816002010492830192600103026101c4565b80156102345782816101000a81549062ffffff0219169055600301602081600201049283019260010302610205565b505b5090506102439190610247565b5090565b5b8082111561025e575f815f905550600101610248565b5090565b5f80fd5b5f73ffffffffffffffffffffffffffffffffffffffff82169050919050565b5f61028f82610266565b9050919050565b61029f81610285565b81146102a9575f80fd5b50565b5f815190506102ba81610296565b92915050565b5f805f80608085870312156102d8576102d7610262565b5b5f6102e5878288016102ac565b94505060206102f6878288016102ac565b9350506040610307878288016102ac565b9250506060610318878288016102ac565b91505092959194509250565b60805160a05160c051611d8561037f5f395f818161056301528181610ac10152610e8501525f8181610e610152610ebc01525f81816106cd015281816107f401528181610c2b01528181610d520152610e3d0152611d855ff3fe608060405234801561000f575f80fd5b50600436106100e8575f3560e01c8063c31c9c071161008a578063c90148ec11610064578063c90148ec1461024c578063daf9c2101461027d578063f9759518146102ad578063ffe6f79a146102cb576100e8565b8063c31c9c07146101f2578063c45a015514610210578063c6bbd5a71461022e576100e8565b806331b7d413116100c657806331b7d41314610156578063502364d8146101745780638da5cb5b146101a4578063aad4466e146101c2576100e8565b80630c65dafe146100ec5780630ffb1d8b1461011c57806331b221cd14610138575b5f80fd5b6101066004803603810190610101919061116e565b6102e9565b60405161011391906111b6565b60405180910390f35b6101366004803603810190610131919061125e565b61031f565b005b610140610404565b60405161014d91906112ab565b60405180910390f35b61015e610429565b60405161016b91906112d3565b60405180910390f35b61018e600480360381019061018991906112ec565b61042f565b60405161019b91906112d3565b60405180910390f35b6101ac6108db565b6040516101b991906112ab565b60405180910390f35b6101dc60048036038101906101d791906113b1565b6108fe565b6040516101e991906112d3565b60405180910390f35b6101fa610e3b565b60405161020791906114a2565b60405180910390f35b610218610e5f565b60405161022591906114db565b60405180910390f35b610236610e83565b6040516102439190611514565b60405180910390f35b6102666004803603810190610261919061152d565b610ea7565b60405161027492919061156b565b60405180910390f35b61029760048036038101906102929190611592565b61110b565b6040516102a491906115cc565b60405180910390f35b6102b5611128565b6040516102c291906112d3565b60405180910390f35b6102d361112d565b6040516102e091906112d3565b60405180910390f35b600281815481106102f8575f80fd5b905f5260205f2090600a9182820401919006600302915054906101000a900462ffffff1681565b5f8054906101000a900473ffffffffffffffffffffffffffffffffffffffff1673ffffffffffffffffffffffffffffffffffffffff163373ffffffffffffffffffffffffffffffffffffffff16146103ac576040517f08c379a00000000000000000000000000000000000000000000000000000000081526004016103a39061163f565b60405180910390fd5b8060035f8473ffffffffffffffffffffffffffffffffffffffff1673ffffffffffffffffffffffffffffffffffffffff1681526020019081526020015f205f6101000a81548160ff0219169083151502179055505050565b60015f9054906101000a900473ffffffffffffffffffffffffffffffffffffffff1681565b61271081565b5f60035f8673ffffffffffffffffffffffffffffffffffffffff1673ffffffffffffffffffffffffffffffffffffffff1681526020019081526020015f205f9054906101000a900460ff1680156104cc575060035f8573ffffffffffffffffffffffffffffffffffffffff1673ffffffffffffffffffffffffffffffffffffffff1681526020019081526020015f205f9054906101000a900460ff165b61050b576040517f08c379a0000000000000000000000000000000000000000000000000000000008152600401610502906116a7565b60405180910390fd5b612710831015610550576040517f08c379a00000000000000000000000000000000000000000000000000000000081526004016105479061170f565b60405180910390fd5b5f8061055c8787610ea7565b915091505f7f000000000000000000000000000000000000000000000000000000000000000073ffffffffffffffffffffffffffffffffffffffff1663f7729d438989858a5f6040518663ffffffff1660e01b81526004016105c2959493929190611766565b6080604051808303815f875af11580156105de573d5f803e3d5ffd5b505050506040513d601f19601f82011682018060405250810190610602919061182e565b50505090505f61271060c861271061061a91906118bf565b8361062591906118f2565b61062f9190611960565b90508873ffffffffffffffffffffffffffffffffffffffff166323b872dd33308a6040518463ffffffff1660e01b815260040161066e93929190611990565b6020604051808303815f875af115801561068a573d5f803e3d5ffd5b505050506040513d601f19601f820116820180604052508101906106ae91906119d9565b508873ffffffffffffffffffffffffffffffffffffffff1663095ea7b37f0000000000000000000000000000000000000000000000000000000000000000896040518363ffffffff1660e01b815260040161070a929190611a04565b6020604051808303815f875af1158015610726573d5f803e3d5ffd5b505050506040513d601f19601f8201168201806040525081019061074a91906119d9565b505f6040518061010001604052808b73ffffffffffffffffffffffffffffffffffffffff1681526020018a73ffffffffffffffffffffffffffffffffffffffff1681526020018562ffffff1681526020018873ffffffffffffffffffffffffffffffffffffffff1681526020016104b0426107c59190611a2b565b81526020018981526020018381526020015f73ffffffffffffffffffffffffffffffffffffffff1681525090507f000000000000000000000000000000000000000000000000000000000000000073ffffffffffffffffffffffffffffffffffffffff1663414bf389826040518263ffffffff1660e01b815260040161084b9190611b3a565b6020604051808303815f875af1158015610867573d5f803e3d5ffd5b505050506040513d601f19601f8201168201806040525081019061088b9190611b54565b95507f4c0bb63f8d47428a342c2a12f0dfd2a4c6910d09d38d94ad5593619c892931b88a8a8a898b896040516108c696959493929190611b7f565b60405180910390a15050505050949350505050565b5f8054906101000a900473ffffffffffffffffffffffffffffffffffffffff1681565b5f60015f9054906101000a900473ffffffffffffffffffffffffffffffffffffffff1673ffffffffffffffffffffffffffffffffffffffff163373ffffffffffffffffffffffffffffffffffffffff161461098e576040517f08c379a000000000000000000000000000000000000000000000000000000000815260040161098590611c28565b60405180910390fd5b60035f8873ffffffffffffffffffffffffffffffffffffffff1673ffffffffffffffffffffffffffffffffffffffff1681526020019081526020015f205f9054906101000a900460ff168015610a2a575060035f8773ffffffffffffffffffffffffffffffffffffffff1673ffffffffffffffffffffffffffffffffffffffff1681526020019081526020015f205f9054906101000a900460ff165b610a69576040517f08c379a0000000000000000000000000000000000000000000000000000000008152600401610a60906116a7565b60405180910390fd5b612710851015610aae576040517f08c379a0000000000000000000000000000000000000000000000000000000008152600401610aa59061170f565b60405180910390fd5b5f80610aba8989610ea7565b915091505f7f000000000000000000000000000000000000000000000000000000000000000073ffffffffffffffffffffffffffffffffffffffff1663f7729d438b8b858c5f6040518663ffffffff1660e01b8152600401610b20959493929190611766565b6080604051808303815f875af1158015610b3c573d5f803e3d5ffd5b505050506040513d601f19601f82011682018060405250810190610b60919061182e565b50505090505f61271060c8612710610b7891906118bf565b83610b8391906118f2565b610b8d9190611960565b90508a73ffffffffffffffffffffffffffffffffffffffff166323b872dd33308c6040518463ffffffff1660e01b8152600401610bcc93929190611990565b6020604051808303815f875af1158015610be8573d5f803e3d5ffd5b505050506040513d601f19601f82011682018060405250810190610c0c91906119d9565b508a73ffffffffffffffffffffffffffffffffffffffff1663095ea7b37f00000000000000000000000000000000000000000000000000000000000000008b6040518363ffffffff1660e01b8152600401610c68929190611a04565b6020604051808303815f875af1158015610c84573d5f803e3d5ffd5b505050506040513d601f19601f82011682018060405250810190610ca891906119d9565b505f6040518061010001604052808d73ffffffffffffffffffffffffffffffffffffffff1681526020018c73ffffffffffffffffffffffffffffffffffffffff1681526020018562ffffff1681526020018a73ffffffffffffffffffffffffffffffffffffffff1681526020016104b042610d239190611a2b565b81526020018b81526020018381526020015f73ffffffffffffffffffffffffffffffffffffffff1681525090507f000000000000000000000000000000000000000000000000000000000000000073ffffffffffffffffffffffffffffffffffffffff1663414bf389826040518263ffffffff1660e01b8152600401610da99190611b3a565b6020604051808303815f875af1158015610dc5573d5f803e3d5ffd5b505050506040513d601f19601f82011682018060405250810190610de99190611b54565b95507f4c0bb63f8d47428a342c2a12f0dfd2a4c6910d09d38d94ad5593619c892931b88c8c8c898d89604051610e2496959493929190611b7f565b60405180910390a150505050509695505050505050565b7f000000000000000000000000000000000000000000000000000000000000000081565b7f000000000000000000000000000000000000000000000000000000000000000081565b7f000000000000000000000000000000000000000000000000000000000000000081565b5f805f805b600280549050811015611094575f7f000000000000000000000000000000000000000000000000000000000000000073ffffffffffffffffffffffffffffffffffffffff16631698ee82888860028681548110610f0c57610f0b611c46565b5b905f5260205f2090600a91828204019190066003029054906101000a900462ffffff166040518463ffffffff1660e01b8152600401610f4d93929190611c73565b602060405180830381865afa158015610f68573d5f803e3d5ffd5b505050506040513d601f19601f82011682018060405250810190610f8c9190611cbc565b90505f73ffffffffffffffffffffffffffffffffffffffff168173ffffffffffffffffffffffffffffffffffffffff1614611086575f8773ffffffffffffffffffffffffffffffffffffffff166370a08231836040518263ffffffff1660e01b8152600401610ffb91906112ab565b602060405180830381865afa158015611016573d5f803e3d5ffd5b505050506040513d601f19601f8201168201806040525081019061103a9190611b54565b905083811115611084578093508195506002838154811061105e5761105d611c46565b5b905f5260205f2090600a91828204019190066003029054906101000a900462ffffff1694505b505b508080600101915050610eac565b505f73ffffffffffffffffffffffffffffffffffffffff168373ffffffffffffffffffffffffffffffffffffffff1603611103576040517f08c379a00000000000000000000000000000000000000000000000000000000081526004016110fa90611d31565b60405180910390fd5b509250929050565b6003602052805f5260405f205f915054906101000a900460ff1681565b60c881565b6104b081565b5f80fd5b5f80fd5b5f819050919050565b61114d8161113b565b8114611157575f80fd5b50565b5f8135905061116881611144565b92915050565b5f6020828403121561118357611182611133565b5b5f6111908482850161115a565b91505092915050565b5f62ffffff82169050919050565b6111b081611199565b82525050565b5f6020820190506111c95f8301846111a7565b92915050565b5f73ffffffffffffffffffffffffffffffffffffffff82169050919050565b5f6111f8826111cf565b9050919050565b611208816111ee565b8114611212575f80fd5b50565b5f81359050611223816111ff565b92915050565b5f8115159050919050565b61123d81611229565b8114611247575f80fd5b50565b5f8135905061125881611234565b92915050565b5f806040838503121561127457611273611133565b5b5f61128185828601611215565b92505060206112928582860161124a565b9150509250929050565b6112a5816111ee565b82525050565b5f6020820190506112be5f83018461129c565b92915050565b6112cd8161113b565b82525050565b5f6020820190506112e65f8301846112c4565b92915050565b5f805f806080858703121561130457611303611133565b5b5f61131187828801611215565b945050602061132287828801611215565b93505060406113338782880161115a565b925050606061134487828801611215565b91505092959194509250565b5f80fd5b5f80fd5b5f80fd5b5f8083601f84011261137157611370611350565b5b8235905067ffffffffffffffff81111561138e5761138d611354565b5b6020830191508360018202830111156113aa576113a9611358565b5b9250929050565b5f805f805f8060a087890312156113cb576113ca611133565b5b5f6113d889828a01611215565b96505060206113e989828a01611215565b95505060406113fa89828a0161115a565b945050606061140b89828a01611215565b935050608087013567ffffffffffffffff81111561142c5761142b611137565b5b61143889828a0161135c565b92509250509295509295509295565b5f819050919050565b5f61146a611465611460846111cf565b611447565b6111cf565b9050919050565b5f61147b82611450565b9050919050565b5f61148c82611471565b9050919050565b61149c81611482565b82525050565b5f6020820190506114b55f830184611493565b92915050565b5f6114c582611471565b9050919050565b6114d5816114bb565b82525050565b5f6020820190506114ee5f8301846114cc565b92915050565b5f6114fe82611471565b9050919050565b61150e816114f4565b82525050565b5f6020820190506115275f830184611505565b92915050565b5f806040838503121561154357611542611133565b5b5f61155085828601611215565b925050602061156185828601611215565b9150509250929050565b5f60408201905061157e5f83018561129c565b61158b60208301846111a7565b9392505050565b5f602082840312156115a7576115a6611133565b5b5f6115b484828501611215565b91505092915050565b6115c681611229565b82525050565b5f6020820190506115df5f8301846115bd565b92915050565b5f82825260208201905092915050565b7f4e6f74206f776e657200000000000000000000000000000000000000000000005f82015250565b5f6116296009836115e5565b9150611634826115f5565b602082019050919050565b5f6020820190508181035f8301526116568161161d565b9050919050565b7f546f6b656e73206e6f742077686974656c6973746564000000000000000000005f82015250565b5f6116916016836115e5565b915061169c8261165d565b602082019050919050565b5f6020820190508181035f8301526116be81611685565b9050919050565b7f416d6f756e7420746f6f206c6f770000000000000000000000000000000000005f82015250565b5f6116f9600e836115e5565b9150611704826116c5565b602082019050919050565b5f6020820190508181035f830152611726816116ed565b9050919050565b5f819050919050565b5f61175061174b6117468461172d565b611447565b6111cf565b9050919050565b61176081611736565b82525050565b5f60a0820190506117795f83018861129c565b611786602083018761129c565b61179360408301866111a7565b6117a060608301856112c4565b6117ad6080830184611757565b9695505050505050565b5f815190506117c581611144565b92915050565b6117d4816111cf565b81146117de575f80fd5b50565b5f815190506117ef816117cb565b92915050565b5f63ffffffff82169050919050565b61180d816117f5565b8114611817575f80fd5b50565b5f8151905061182881611804565b92915050565b5f805f806080858703121561184657611845611133565b5b5f611853878288016117b7565b9450506020611864878288016117e1565b93505060406118758782880161181a565b9250506060611886878288016117b7565b91505092959194509250565b7f4e487b71000000000000000000000000000000000000000000000000000000005f52601160045260245ffd5b5f6118c98261113b565b91506118d48361113b565b92508282039050818111156118ec576118eb611892565b5b92915050565b5f6118fc8261113b565b91506119078361113b565b92508282026119158161113b565b9150828204841483151761192c5761192b611892565b5b5092915050565b7f4e487b71000000000000000000000000000000000000000000000000000000005f52601260045260245ffd5b5f61196a8261113b565b91506119758361113b565b92508261198557611984611933565b5b828204905092915050565b5f6060820190506119a35f83018661129c565b6119b0602083018561129c565b6119bd60408301846112c4565b949350505050565b5f815190506119d381611234565b92915050565b5f602082840312156119ee576119ed611133565b5b5f6119fb848285016119c5565b91505092915050565b5f604082019050611a175f83018561129c565b611a2460208301846112c4565b9392505050565b5f611a358261113b565b9150611a408361113b565b9250828201905080821115611a5857611a57611892565b5b92915050565b611a67816111ee565b82525050565b611a7681611199565b82525050565b611a858161113b565b82525050565b611a94816111cf565b82525050565b61010082015f820151611aaf5f850182611a5e565b506020820151611ac26020850182611a5e565b506040820151611ad56040850182611a6d565b506060820151611ae86060850182611a5e565b506080820151611afb6080850182611a7c565b5060a0820151611b0e60a0850182611a7c565b5060c0820151611b2160c0850182611a7c565b5060e0820151611b3460e0850182611a8b565b50505050565b5f61010082019050611b4e5f830184611a9a565b92915050565b5f60208284031215611b6957611b68611133565b5b5f611b76848285016117b7565b91505092915050565b5f60c082019050611b925f83018961129c565b611b9f602083018861129c565b611bac60408301876112c4565b611bb960608301866112c4565b611bc6608083018561129c565b611bd360a08301846111a7565b979650505050505050565b7f4e6f74204149204f7261636c65000000000000000000000000000000000000005f82015250565b5f611c12600d836115e5565b9150611c1d82611bde565b602082019050919050565b5f6020820190508181035f830152611c3f81611c06565b9050919050565b7f4e487b71000000000000000000000000000000000000000000000000000000005f52603260045260245ffd5b5f606082019050611c865f83018661129c565b611c93602083018561129c565b611ca060408301846111a7565b949350505050565b5f81519050611cb6816111ff565b92915050565b5f60208284031215611cd157611cd0611133565b5b5f611cde84828501611ca8565b91505092915050565b7f4e6f20706f6f6c20666f756e64000000000000000000000000000000000000005f82015250565b5f611d1b600d836115e5565b9150611d2682611ce7565b602082019050919050565b5f6020820190508181035f830152611d4881611d0f565b905091905056fea2646970667358221220584975e17cf2aee258bb11668342dbb6e9cd25088c55a0d56e3123b7bd94d6aa64736f6c634300081a0033",
					"opcodes": "PUSH1 0xE0 PUSH1 0x40 MSTORE PUSH1 0x40 MLOAD DUP1 PUSH1 0x80 ADD PUSH1 0x40 MSTORE DUP1 PUSH1 0x64 PUSH2 0xFFFF AND DUP2 MSTORE PUSH1 0x20 ADD PUSH2 0x1F4 PUSH2 0xFFFF AND DUP2 MSTORE PUSH1 0x20 ADD PUSH2 0xBB8 PUSH2 0xFFFF AND DUP2 MSTORE PUSH1 0x20 ADD PUSH2 0x2710 PUSH2 0xFFFF AND DUP2 MSTORE POP PUSH1 0x2 SWAP1 PUSH1 0x4 PUSH2 0x4C SWAP3 SWAP2 SWAP1 PUSH2 0x19E JUMP JUMPDEST POP CALLVALUE DUP1 ISZERO PUSH2 0x58 JUMPI PUSH0 DUP1 REVERT JUMPDEST POP PUSH1 0x40 MLOAD PUSH2 0x2104 CODESIZE SUB DUP1 PUSH2 0x2104 DUP4 CODECOPY DUP2 DUP2 ADD PUSH1 0x40 MSTORE DUP2 ADD SWAP1 PUSH2 0x7A SWAP2 SWAP1 PUSH2 0x2C0 JUMP JUMPDEST CALLER PUSH0 DUP1 PUSH2 0x100 EXP DUP2 SLOAD DUP2 PUSH20 0xFFFFFFFFFFFFFFFFFFFFFFFFFFFFFFFFFFFFFFFF MUL NOT AND SWAP1 DUP4 PUSH20 0xFFFFFFFFFFFFFFFFFFFFFFFFFFFFFFFFFFFFFFFF AND MUL OR SWAP1 SSTORE POP DUP4 PUSH1 0x1 PUSH0 PUSH2 0x100 EXP DUP2 SLOAD DUP2 PUSH20 0xFFFFFFFFFFFFFFFFFFFFFFFFFFFFFFFFFFFFFFFF MUL NOT AND SWAP1 DUP4 PUSH20 0xFFFFFFFFFFFFFFFFFFFFFFFFFFFFFFFFFFFFFFFF AND MUL OR SWAP1 SSTORE POP DUP3 PUSH20 0xFFFFFFFFFFFFFFFFFFFFFFFFFFFFFFFFFFFFFFFF AND PUSH1 0x80 DUP2 PUSH20 0xFFFFFFFFFFFFFFFFFFFFFFFFFFFFFFFFFFFFFFFF AND DUP2 MSTORE POP POP DUP2 PUSH20 0xFFFFFFFFFFFFFFFFFFFFFFFFFFFFFFFFFFFFFFFF AND PUSH1 0xA0 DUP2 PUSH20 0xFFFFFFFFFFFFFFFFFFFFFFFFFFFFFFFFFFFFFFFF AND DUP2 MSTORE POP POP DUP1 PUSH20 0xFFFFFFFFFFFFFFFFFFFFFFFFFFFFFFFFFFFFFFFF AND PUSH1 0xC0 DUP2 PUSH20 0xFFFFFFFFFFFFFFFFFFFFFFFFFFFFFFFFFFFFFFFF AND DUP2 MSTORE POP POP POP POP POP POP PUSH2 0x324 JUMP JUMPDEST DUP3 DUP1 SLOAD DUP3 DUP3 SSTORE SWAP1 PUSH0 MSTORE PUSH1 0x20 PUSH0 KECCAK256 SWAP1 PUSH1 0x9 ADD PUSH1 0xA SWAP1 DIV DUP2 ADD SWAP3 DUP3 ISZERO PUSH2 0x236 JUMPI SWAP2 PUSH1 0x20 MUL DUP3 ADD PUSH0 JUMPDEST DUP4 DUP3 GT ISZERO PUSH2 0x205 JUMPI DUP4 MLOAD DUP4 DUP3 PUSH2 0x100 EXP DUP2 SLOAD DUP2 PUSH3 0xFFFFFF MUL NOT AND SWAP1 DUP4 PUSH2 0xFFFF AND MUL OR SWAP1 SSTORE POP SWAP3 PUSH1 0x20 ADD SWAP3 PUSH1 0x3 ADD PUSH1 0x20 DUP2 PUSH1 0x2 ADD DIV SWAP3 DUP4 ADD SWAP3 PUSH1 0x1 SUB MUL PUSH2 0x1C4 JUMP JUMPDEST DUP1 ISZERO PUSH2 0x234 JUMPI DUP3 DUP2 PUSH2 0x100 EXP DUP2 SLOAD SWAP1 PUSH3 0xFFFFFF MUL NOT AND SWAP1 SSTORE PUSH1 0x3 ADD PUSH1 0x20 DUP2 PUSH1 0x2 ADD DIV SWAP3 DUP4 ADD SWAP3 PUSH1 0x1 SUB MUL PUSH2 0x205 JUMP JUMPDEST POP JUMPDEST POP SWAP1 POP PUSH2 0x243 SWAP2 SWAP1 PUSH2 0x247 JUMP JUMPDEST POP SWAP1 JUMP JUMPDEST JUMPDEST DUP1 DUP3 GT ISZERO PUSH2 0x25E JUMPI PUSH0 DUP2 PUSH0 SWAP1 SSTORE POP PUSH1 0x1 ADD PUSH2 0x248 JUMP JUMPDEST POP SWAP1 JUMP JUMPDEST PUSH0 DUP1 REVERT JUMPDEST PUSH0 PUSH20 0xFFFFFFFFFFFFFFFFFFFFFFFFFFFFFFFFFFFFFFFF DUP3 AND SWAP1 POP SWAP2 SWAP1 POP JUMP JUMPDEST PUSH0 PUSH2 0x28F DUP3 PUSH2 0x266 JUMP JUMPDEST SWAP1 POP SWAP2 SWAP1 POP JUMP JUMPDEST PUSH2 0x29F DUP2 PUSH2 0x285 JUMP JUMPDEST DUP2 EQ PUSH2 0x2A9 JUMPI PUSH0 DUP1 REVERT JUMPDEST POP JUMP JUMPDEST PUSH0 DUP2 MLOAD SWAP1 POP PUSH2 0x2BA DUP2 PUSH2 0x296 JUMP JUMPDEST SWAP3 SWAP2 POP POP JUMP JUMPDEST PUSH0 DUP1 PUSH0 DUP1 PUSH1 0x80 DUP6 DUP8 SUB SLT ISZERO PUSH2 0x2D8 JUMPI PUSH2 0x2D7 PUSH2 0x262 JUMP JUMPDEST JUMPDEST PUSH0 PUSH2 0x2E5 DUP8 DUP3 DUP9 ADD PUSH2 0x2AC JUMP JUMPDEST SWAP5 POP POP PUSH1 0x20 PUSH2 0x2F6 DUP8 DUP3 DUP9 ADD PUSH2 0x2AC JUMP JUMPDEST SWAP4 POP POP PUSH1 0x40 PUSH2 0x307 DUP8 DUP3 DUP9 ADD PUSH2 0x2AC JUMP JUMPDEST SWAP3 POP POP PUSH1 0x60 PUSH2 0x318 DUP8 DUP3 DUP9 ADD PUSH2 0x2AC JUMP JUMPDEST SWAP2 POP POP SWAP3 SWAP6 SWAP2 SWAP5 POP SWAP3 POP JUMP JUMPDEST PUSH1 0x80 MLOAD PUSH1 0xA0 MLOAD PUSH1 0xC0 MLOAD PUSH2 0x1D85 PUSH2 0x37F PUSH0 CODECOPY PUSH0 DUP2 DUP2 PUSH2 0x563 ADD MSTORE DUP2 DUP2 PUSH2 0xAC1 ADD MSTORE PUSH2 0xE85 ADD MSTORE PUSH0 DUP2 DUP2 PUSH2 0xE61 ADD MSTORE PUSH2 0xEBC ADD MSTORE PUSH0 DUP2 DUP2 PUSH2 0x6CD ADD MSTORE DUP2 DUP2 PUSH2 0x7F4 ADD MSTORE DUP2 DUP2 PUSH2 0xC2B ADD MSTORE DUP2 DUP2 PUSH2 0xD52 ADD MSTORE PUSH2 0xE3D ADD MSTORE PUSH2 0x1D85 PUSH0 RETURN INVALID PUSH1 0x80 PUSH1 0x40 MSTORE CALLVALUE DUP1 ISZERO PUSH2 0xF JUMPI PUSH0 DUP1 REVERT JUMPDEST POP PUSH1 0x4 CALLDATASIZE LT PUSH2 0xE8 JUMPI PUSH0 CALLDATALOAD PUSH1 0xE0 SHR DUP1 PUSH4 0xC31C9C07 GT PUSH2 0x8A JUMPI DUP1 PUSH4 0xC90148EC GT PUSH2 0x64 JUMPI DUP1 PUSH4 0xC90148EC EQ PUSH2 0x24C JUMPI DUP1 PUSH4 0xDAF9C210 EQ PUSH2 0x27D JUMPI DUP1 PUSH4 0xF9759518 EQ PUSH2 0x2AD JUMPI DUP1 PUSH4 0xFFE6F79A EQ PUSH2 0x2CB JUMPI PUSH2 0xE8 JUMP JUMPDEST DUP1 PUSH4 0xC31C9C07 EQ PUSH2 0x1F2 JUMPI DUP1 PUSH4 0xC45A0155 EQ PUSH2 0x210 JUMPI DUP1 PUSH4 0xC6BBD5A7 EQ PUSH2 0x22E JUMPI PUSH2 0xE8 JUMP JUMPDEST DUP1 PUSH4 0x31B7D413 GT PUSH2 0xC6 JUMPI DUP1 PUSH4 0x31B7D413 EQ PUSH2 0x156 JUMPI DUP1 PUSH4 0x502364D8 EQ PUSH2 0x174 JUMPI DUP1 PUSH4 0x8DA5CB5B EQ PUSH2 0x1A4 JUMPI DUP1 PUSH4 0xAAD4466E EQ PUSH2 0x1C2 JUMPI PUSH2 0xE8 JUMP JUMPDEST DUP1 PUSH4 0xC65DAFE EQ PUSH2 0xEC JUMPI DUP1 PUSH4 0xFFB1D8B EQ PUSH2 0x11C JUMPI DUP1 PUSH4 0x31B221CD EQ PUSH2 0x138 JUMPI JUMPDEST PUSH0 DUP1 REVERT JUMPDEST PUSH2 0x106 PUSH1 0x4 DUP1 CALLDATASIZE SUB DUP2 ADD SWAP1 PUSH2 0x101 SWAP2 SWAP1 PUSH2 0x116E JUMP JUMPDEST PUSH2 0x2E9 JUMP JUMPDEST PUSH1 0x40 MLOAD PUSH2 0x113 SWAP2 SWAP1 PUSH2 0x11B6 JUMP JUMPDEST PUSH1 0x40 MLOAD DUP1 SWAP2 SUB SWAP1 RETURN JUMPDEST PUSH2 0x136 PUSH1 0x4 DUP1 CALLDATASIZE SUB DUP2 ADD SWAP1 PUSH2 0x131 SWAP2 SWAP1 PUSH2 0x125E JUMP JUMPDEST PUSH2 0x31F JUMP JUMPDEST STOP JUMPDEST PUSH2 0x140 PUSH2 0x404 JUMP JUMPDEST PUSH1 0x40 MLOAD PUSH2 0x14D SWAP2 SWAP1 PUSH2 0x12AB JUMP JUMPDEST PUSH1 0x40 MLOAD DUP1 SWAP2 SUB SWAP1 RETURN JUMPDEST PUSH2 0x15E PUSH2 0x429 JUMP JUMPDEST PUSH1 0x40 MLOAD PUSH2 0x16B SWAP2 SWAP1 PUSH2 0x12D3 JUMP JUMPDEST PUSH1 0x40 MLOAD DUP1 SWAP2 SUB SWAP1 RETURN JUMPDEST PUSH2 0x18E PUSH1 0x4 DUP1 CALLDATASIZE SUB DUP2 ADD SWAP1 PUSH2 0x189 SWAP2 SWAP1 PUSH2 0x12EC JUMP JUMPDEST PUSH2 0x42F JUMP JUMPDEST PUSH1 0x40 MLOAD PUSH2 0x19B SWAP2 SWAP1 PUSH2 0x12D3 JUMP JUMPDEST PUSH1 0x40 MLOAD DUP1 SWAP2 SUB SWAP1 RETURN JUMPDEST PUSH2 0x1AC PUSH2 0x8DB JUMP JUMPDEST PUSH1 0x40 MLOAD PUSH2 0x1B9 SWAP2 SWAP1 PUSH2 0x12AB JUMP JUMPDEST PUSH1 0x40 MLOAD DUP1 SWAP2 SUB SWAP1 RETURN JUMPDEST PUSH2 0x1DC PUSH1 0x4 DUP1 CALLDATASIZE SUB DUP2 ADD SWAP1 PUSH2 0x1D7 SWAP2 SWAP1 PUSH2 0x13B1 JUMP JUMPDEST PUSH2 0x8FE JUMP JUMPDEST PUSH1 0x40 MLOAD PUSH2 0x1E9 SWAP2 SWAP1 PUSH2 0x12D3 JUMP JUMPDEST PUSH1 0x40 MLOAD DUP1 SWAP2 SUB SWAP1 RETURN JUMPDEST PUSH2 0x1FA PUSH2 0xE3B JUMP JUMPDEST PUSH1 0x40 MLOAD PUSH2 0x207 SWAP2 SWAP1 PUSH2 0x14A2 JUMP JUMPDEST PUSH1 0x40 MLOAD DUP1 SWAP2 SUB SWAP1 RETURN JUMPDEST PUSH2 0x218 PUSH2 0xE5F JUMP JUMPDEST PUSH1 0x40 MLOAD PUSH2 0x225 SWAP2 SWAP1 PUSH2 0x14DB JUMP JUMPDEST PUSH1 0x40 MLOAD DUP1 SWAP2 SUB SWAP1 RETURN JUMPDEST PUSH2 0x236 PUSH2 0xE83 JUMP JUMPDEST PUSH1 0x40 MLOAD PUSH2 0x243 SWAP2 SWAP1 PUSH2 0x1514 JUMP JUMPDEST PUSH1 0x40 MLOAD DUP1 SWAP2 SUB SWAP1 RETURN JUMPDEST PUSH2 0x266 PUSH1 0x4 DUP1 CALLDATASIZE SUB DUP2 ADD SWAP1 PUSH2 0x261 SWAP2 SWAP1 PUSH2 0x152D JUMP JUMPDEST PUSH2 0xEA7 JUMP JUMPDEST PUSH1 0x40 MLOAD PUSH2 0x274 SWAP3 SWAP2 SWAP1 PUSH2 0x156B JUMP JUMPDEST PUSH1 0x40 MLOAD DUP1 SWAP2 SUB SWAP1 RETURN JUMPDEST PUSH2 0x297 PUSH1 0x4 DUP1 CALLDATASIZE SUB DUP2 ADD SWAP1 PUSH2 0x292 SWAP2 SWAP1 PUSH2 0x1592 JUMP JUMPDEST PUSH2 0x110B JUMP JUMPDEST PUSH1 0x40 MLOAD PUSH2 0x2A4 SWAP2 SWAP1 PUSH2 0x15CC JUMP JUMPDEST PUSH1 0x40 MLOAD DUP1 SWAP2 SUB SWAP1 RETURN JUMPDEST PUSH2 0x2B5 PUSH2 0x1128 JUMP JUMPDEST PUSH1 0x40 MLOAD PUSH2 0x2C2 SWAP2 SWAP1 PUSH2 0x12D3 JUMP JUMPDEST PUSH1 0x40 MLOAD DUP1 SWAP2 SUB SWAP1 RETURN JUMPDEST PUSH2 0x2D3 PUSH2 0x112D JUMP JUMPDEST PUSH1 0x40 MLOAD PUSH2 0x2E0 SWAP2 SWAP1 PUSH2 0x12D3 JUMP JUMPDEST PUSH1 0x40 MLOAD DUP1 SWAP2 SUB SWAP1 RETURN JUMPDEST PUSH1 0x2 DUP2 DUP2 SLOAD DUP2 LT PUSH2 0x2F8 JUMPI PUSH0 DUP1 REVERT JUMPDEST SWAP1 PUSH0 MSTORE PUSH1 0x20 PUSH0 KECCAK256 SWAP1 PUSH1 0xA SWAP2 DUP3 DUP3 DIV ADD SWAP2 SWAP1 MOD PUSH1 0x3 MUL SWAP2 POP SLOAD SWAP1 PUSH2 0x100 EXP SWAP1 DIV PUSH3 0xFFFFFF AND DUP2 JUMP JUMPDEST PUSH0 DUP1 SLOAD SWAP1 PUSH2 0x100 EXP SWAP1 DIV PUSH20 0xFFFFFFFFFFFFFFFFFFFFFFFFFFFFFFFFFFFFFFFF AND PUSH20 0xFFFFFFFFFFFFFFFFFFFFFFFFFFFFFFFFFFFFFFFF AND CALLER PUSH20 0xFFFFFFFFFFFFFFFFFFFFFFFFFFFFFFFFFFFFFFFF AND EQ PUSH2 0x3AC JUMPI PUSH1 0x40 MLOAD PUSH32 0x8C379A000000000000000000000000000000000000000000000000000000000 DUP2 MSTORE PUSH1 0x4 ADD PUSH2 0x3A3 SWAP1 PUSH2 0x163F JUMP JUMPDEST PUSH1 0x40 MLOAD DUP1 SWAP2 SUB SWAP1 REVERT JUMPDEST DUP1 PUSH1 0x3 PUSH0 DUP5 PUSH20 0xFFFFFFFFFFFFFFFFFFFFFFFFFFFFFFFFFFFFFFFF AND PUSH20 0xFFFFFFFFFFFFFFFFFFFFFFFFFFFFFFFFFFFFFFFF AND DUP2 MSTORE PUSH1 0x20 ADD SWAP1 DUP2 MSTORE PUSH1 0x20 ADD PUSH0 KECCAK256 PUSH0 PUSH2 0x100 EXP DUP2 SLOAD DUP2 PUSH1 0xFF MUL NOT AND SWAP1 DUP4 ISZERO ISZERO MUL OR SWAP1 SSTORE POP POP POP JUMP JUMPDEST PUSH1 0x1 PUSH0 SWAP1 SLOAD SWAP1 PUSH2 0x100 EXP SWAP1 DIV PUSH20 0xFFFFFFFFFFFFFFFFFFFFFFFFFFFFFFFFFFFFFFFF AND DUP2 JUMP JUMPDEST PUSH2 0x2710 DUP2 JUMP JUMPDEST PUSH0 PUSH1 0x3 PUSH0 DUP7 PUSH20 0xFFFFFFFFFFFFFFFFFFFFFFFFFFFFFFFFFFFFFFFF AND PUSH20 0xFFFFFFFFFFFFFFFFFFFFFFFFFFFFFFFFFFFFFFFF AND DUP2 MSTORE PUSH1 0x20 ADD SWAP1 DUP2 MSTORE PUSH1 0x20 ADD PUSH0 KECCAK256 PUSH0 SWAP1 SLOAD SWAP1 PUSH2 0x100 EXP SWAP1 DIV PUSH1 0xFF AND DUP1 ISZERO PUSH2 0x4CC JUMPI POP PUSH1 0x3 PUSH0 DUP6 PUSH20 0xFFFFFFFFFFFFFFFFFFFFFFFFFFFFFFFFFFFFFFFF AND PUSH20 0xFFFFFFFFFFFFFFFFFFFFFFFFFFFFFFFFFFFFFFFF AND DUP2 MSTORE PUSH1 0x20 ADD SWAP1 DUP2 MSTORE PUSH1 0x20 ADD PUSH0 KECCAK256 PUSH0 SWAP1 SLOAD SWAP1 PUSH2 0x100 EXP SWAP1 DIV PUSH1 0xFF AND JUMPDEST PUSH2 0x50B JUMPI PUSH1 0x40 MLOAD PUSH32 0x8C379A000000000000000000000000000000000000000000000000000000000 DUP2 MSTORE PUSH1 0x4 ADD PUSH2 0x502 SWAP1 PUSH2 0x16A7 JUMP JUMPDEST PUSH1 0x40 MLOAD DUP1 SWAP2 SUB SWAP1 REVERT JUMPDEST PUSH2 0x2710 DUP4 LT ISZERO PUSH2 0x550 JUMPI PUSH1 0x40 MLOAD PUSH32 0x8C379A000000000000000000000000000000000000000000000000000000000 DUP2 MSTORE PUSH1 0x4 ADD PUSH2 0x547 SWAP1 PUSH2 0x170F JUMP JUMPDEST PUSH1 0x40 MLOAD DUP1 SWAP2 SUB SWAP1 REVERT JUMPDEST PUSH0 DUP1 PUSH2 0x55C DUP8 DUP8 PUSH2 0xEA7 JUMP JUMPDEST SWAP2 POP SWAP2 POP PUSH0 PUSH32 0x0 PUSH20 0xFFFFFFFFFFFFFFFFFFFFFFFFFFFFFFFFFFFFFFFF AND PUSH4 0xF7729D43 DUP10 DUP10 DUP6 DUP11 PUSH0 PUSH1 0x40 MLOAD DUP7 PUSH4 0xFFFFFFFF AND PUSH1 0xE0 SHL DUP2 MSTORE PUSH1 0x4 ADD PUSH2 0x5C2 SWAP6 SWAP5 SWAP4 SWAP3 SWAP2 SWAP1 PUSH2 0x1766 JUMP JUMPDEST PUSH1 0x80 PUSH1 0x40 MLOAD DUP1 DUP4 SUB DUP2 PUSH0 DUP8 GAS CALL ISZERO DUP1 ISZERO PUSH2 0x5DE JUMPI RETURNDATASIZE PUSH0 DUP1 RETURNDATACOPY RETURNDATASIZE PUSH0 REVERT JUMPDEST POP POP POP POP PUSH1 0x40 MLOAD RETURNDATASIZE PUSH1 0x1F NOT PUSH1 0x1F DUP3 ADD AND DUP3 ADD DUP1 PUSH1 0x40 MSTORE POP DUP2 ADD SWAP1 PUSH2 0x602 SWAP2 SWAP1 PUSH2 0x182E JUMP JUMPDEST POP POP POP SWAP1 POP PUSH0 PUSH2 0x2710 PUSH1 0xC8 PUSH2 0x2710 PUSH2 0x61A SWAP2 SWAP1 PUSH2 0x18BF JUMP JUMPDEST DUP4 PUSH2 0x625 SWAP2 SWAP1 PUSH2 0x18F2 JUMP JUMPDEST PUSH2 0x62F SWAP2 SWAP1 PUSH2 0x1960 JUMP JUMPDEST SWAP1 POP DUP9 PUSH20 0xFFFFFFFFFFFFFFFFFFFFFFFFFFFFFFFFFFFFFFFF AND PUSH4 0x23B872DD CALLER ADDRESS DUP11 PUSH1 0x40 MLOAD DUP5 PUSH4 0xFFFFFFFF AND PUSH1 0xE0 SHL DUP2 MSTORE PUSH1 0x4 ADD PUSH2 0x66E SWAP4 SWAP3 SWAP2 SWAP1 PUSH2 0x1990 JUMP JUMPDEST PUSH1 0x20 PUSH1 0x40 MLOAD DUP1 DUP4 SUB DUP2 PUSH0 DUP8 GAS CALL ISZERO DUP1 ISZERO PUSH2 0x68A JUMPI RETURNDATASIZE PUSH0 DUP1 RETURNDATACOPY RETURNDATASIZE PUSH0 REVERT JUMPDEST POP POP POP POP PUSH1 0x40 MLOAD RETURNDATASIZE PUSH1 0x1F NOT PUSH1 0x1F DUP3 ADD AND DUP3 ADD DUP1 PUSH1 0x40 MSTORE POP DUP2 ADD SWAP1 PUSH2 0x6AE SWAP2 SWAP1 PUSH2 0x19D9 JUMP JUMPDEST POP DUP9 PUSH20 0xFFFFFFFFFFFFFFFFFFFFFFFFFFFFFFFFFFFFFFFF AND PUSH4 0x95EA7B3 PUSH32 0x0 DUP10 PUSH1 0x40 MLOAD DUP4 PUSH4 0xFFFFFFFF AND PUSH1 0xE0 SHL DUP2 MSTORE PUSH1 0x4 ADD PUSH2 0x70A SWAP3 SWAP2 SWAP1 PUSH2 0x1A04 JUMP JUMPDEST PUSH1 0x20 PUSH1 0x40 MLOAD DUP1 DUP4 SUB DUP2 PUSH0 DUP8 GAS CALL ISZERO DUP1 ISZERO PUSH2 0x726 JUMPI RETURNDATASIZE PUSH0 DUP1 RETURNDATACOPY RETURNDATASIZE PUSH0 REVERT JUMPDEST POP POP POP POP PUSH1 0x40 MLOAD RETURNDATASIZE PUSH1 0x1F NOT PUSH1 0x1F DUP3 ADD AND DUP3 ADD DUP1 PUSH1 0x40 MSTORE POP DUP2 ADD SWAP1 PUSH2 0x74A SWAP2 SWAP1 PUSH2 0x19D9 JUMP JUMPDEST POP PUSH0 PUSH1 0x40 MLOAD DUP1 PUSH2 0x100 ADD PUSH1 0x40 MSTORE DUP1 DUP12 PUSH20 0xFFFFFFFFFFFFFFFFFFFFFFFFFFFFFFFFFFFFFFFF AND DUP2 MSTORE PUSH1 0x20 ADD DUP11 PUSH20 0xFFFFFFFFFFFFFFFFFFFFFFFFFFFFFFFFFFFFFFFF AND DUP2 MSTORE PUSH1 0x20 ADD DUP6 PUSH3 0xFFFFFF AND DUP2 MSTORE PUSH1 0x20 ADD DUP9 PUSH20 0xFFFFFFFFFFFFFFFFFFFFFFFFFFFFFFFFFFFFFFFF AND DUP2 MSTORE PUSH1 0x20 ADD PUSH2 0x4B0 TIMESTAMP PUSH2 0x7C5 SWAP2 SWAP1 PUSH2 0x1A2B JUMP JUMPDEST DUP2 MSTORE PUSH1 0x20 ADD DUP10 DUP2 MSTORE PUSH1 0x20 ADD DUP4 DUP2 MSTORE PUSH1 0x20 ADD PUSH0 PUSH20 0xFFFFFFFFFFFFFFFFFFFFFFFFFFFFFFFFFFFFFFFF AND DUP2 MSTORE POP SWAP1 POP PUSH32 0x0 PUSH20 0xFFFFFFFFFFFFFFFFFFFFFFFFFFFFFFFFFFFFFFFF AND PUSH4 0x414BF389 DUP3 PUSH1 0x40 MLOAD DUP3 PUSH4 0xFFFFFFFF AND PUSH1 0xE0 SHL DUP2 MSTORE PUSH1 0x4 ADD PUSH2 0x84B SWAP2 SWAP1 PUSH2 0x1B3A JUMP JUMPDEST PUSH1 0x20 PUSH1 0x40 MLOAD DUP1 DUP4 SUB DUP2 PUSH0 DUP8 GAS CALL ISZERO DUP1 ISZERO PUSH2 0x867 JUMPI RETURNDATASIZE PUSH0 DUP1 RETURNDATACOPY RETURNDATASIZE PUSH0 REVERT JUMPDEST POP POP POP POP PUSH1 0x40 MLOAD RETURNDATASIZE PUSH1 0x1F NOT PUSH1 0x1F DUP3 ADD AND DUP3 ADD DUP1 PUSH1 0x40 MSTORE POP DUP2 ADD SWAP1 PUSH2 0x88B SWAP2 SWAP1 PUSH2 0x1B54 JUMP JUMPDEST SWAP6 POP PUSH32 0x4C0BB63F8D47428A342C2A12F0DFD2A4C6910D09D38D94AD5593619C892931B8 DUP11 DUP11 DUP11 DUP10 DUP12 DUP10 PUSH1 0x40 MLOAD PUSH2 0x8C6 SWAP7 SWAP6 SWAP5 SWAP4 SWAP3 SWAP2 SWAP1 PUSH2 0x1B7F JUMP JUMPDEST PUSH1 0x40 MLOAD DUP1 SWAP2 SUB SWAP1 LOG1 POP POP POP POP POP SWAP5 SWAP4 POP POP POP POP JUMP JUMPDEST PUSH0 DUP1 SLOAD SWAP1 PUSH2 0x100 EXP SWAP1 DIV PUSH20 0xFFFFFFFFFFFFFFFFFFFFFFFFFFFFFFFFFFFFFFFF AND DUP2 JUMP JUMPDEST PUSH0 PUSH1 0x1 PUSH0 SWAP1 SLOAD SWAP1 PUSH2 0x100 EXP SWAP1 DIV PUSH20 0xFFFFFFFFFFFFFFFFFFFFFFFFFFFFFFFFFFFFFFFF AND PUSH20 0xFFFFFFFFFFFFFFFFFFFFFFFFFFFFFFFFFFFFFFFF AND CALLER PUSH20 0xFFFFFFFFFFFFFFFFFFFFFFFFFFFFFFFFFFFFFFFF AND EQ PUSH2 0x98E JUMPI PUSH1 0x40 MLOAD PUSH32 0x8C379A000000000000000000000000000000000000000000000000000000000 DUP2 MSTORE PUSH1 0x4 ADD PUSH2 0x985 SWAP1 PUSH2 0x1C28 JUMP JUMPDEST PUSH1 0x40 MLOAD DUP1 SWAP2 SUB SWAP1 REVERT JUMPDEST PUSH1 0x3 PUSH0 DUP9 PUSH20 0xFFFFFFFFFFFFFFFFFFFFFFFFFFFFFFFFFFFFFFFF AND PUSH20 0xFFFFFFFFFFFFFFFFFFFFFFFFFFFFFFFFFFFFFFFF AND DUP2 MSTORE PUSH1 0x20 ADD SWAP1 DUP2 MSTORE PUSH1 0x20 ADD PUSH0 KECCAK256 PUSH0 SWAP1 SLOAD SWAP1 PUSH2 0x100 EXP SWAP1 DIV PUSH1 0xFF AND DUP1 ISZERO PUSH2 0xA2A JUMPI POP PUSH1 0x3 PUSH0 DUP8 PUSH20 0xFFFFFFFFFFFFFFFFFFFFFFFFFFFFFFFFFFFFFFFF AND PUSH20 0xFFFFFFFFFFFFFFFFFFFFFFFFFFFFFFFFFFFFFFFF AND DUP2 MSTORE PUSH1 0x20 ADD SWAP1 DUP2 MSTORE PUSH1 0x20 ADD PUSH0 KECCAK256 PUSH0 SWAP1 SLOAD SWAP1 PUSH2 0x100 EXP SWAP1 DIV PUSH1 0xFF AND JUMPDEST PUSH2 0xA69 JUMPI PUSH1 0x40 MLOAD PUSH32 0x8C379A000000000000000000000000000000000000000000000000000000000 DUP2 MSTORE PUSH1 0x4 ADD PUSH2 0xA60 SWAP1 PUSH2 0x16A7 JUMP JUMPDEST PUSH1 0x40 MLOAD DUP1 SWAP2 SUB SWAP1 REVERT JUMPDEST PUSH2 0x2710 DUP6 LT ISZERO PUSH2 0xAAE JUMPI PUSH1 0x40 MLOAD PUSH32 0x8C379A000000000000000000000000000000000000000000000000000000000 DUP2 MSTORE PUSH1 0x4 ADD PUSH2 0xAA5 SWAP1 PUSH2 0x170F JUMP JUMPDEST PUSH1 0x40 MLOAD DUP1 SWAP2 SUB SWAP1 REVERT JUMPDEST PUSH0 DUP1 PUSH2 0xABA DUP10 DUP10 PUSH2 0xEA7 JUMP JUMPDEST SWAP2 POP SWAP2 POP PUSH0 PUSH32 0x0 PUSH20 0xFFFFFFFFFFFFFFFFFFFFFFFFFFFFFFFFFFFFFFFF AND PUSH4 0xF7729D43 DUP12 DUP12 DUP6 DUP13 PUSH0 PUSH1 0x40 MLOAD DUP7 PUSH4 0xFFFFFFFF AND PUSH1 0xE0 SHL DUP2 MSTORE PUSH1 0x4 ADD PUSH2 0xB20 SWAP6 SWAP5 SWAP4 SWAP3 SWAP2 SWAP1 PUSH2 0x1766 JUMP JUMPDEST PUSH1 0x80 PUSH1 0x40 MLOAD DUP1 DUP4 SUB DUP2 PUSH0 DUP8 GAS CALL ISZERO DUP1 ISZERO PUSH2 0xB3C JUMPI RETURNDATASIZE PUSH0 DUP1 RETURNDATACOPY RETURNDATASIZE PUSH0 REVERT JUMPDEST POP POP POP POP PUSH1 0x40 MLOAD RETURNDATASIZE PUSH1 0x1F NOT PUSH1 0x1F DUP3 ADD AND DUP3 ADD DUP1 PUSH1 0x40 MSTORE POP DUP2 ADD SWAP1 PUSH2 0xB60 SWAP2 SWAP1 PUSH2 0x182E JUMP JUMPDEST POP POP POP SWAP1 POP PUSH0 PUSH2 0x2710 PUSH1 0xC8 PUSH2 0x2710 PUSH2 0xB78 SWAP2 SWAP1 PUSH2 0x18BF JUMP JUMPDEST DUP4 PUSH2 0xB83 SWAP2 SWAP1 PUSH2 0x18F2 JUMP JUMPDEST PUSH2 0xB8D SWAP2 SWAP1 PUSH2 0x1960 JUMP JUMPDEST SWAP1 POP DUP11 PUSH20 0xFFFFFFFFFFFFFFFFFFFFFFFFFFFFFFFFFFFFFFFF AND PUSH4 0x23B872DD CALLER ADDRESS DUP13 PUSH1 0x40 MLOAD DUP5 PUSH4 0xFFFFFFFF AND PUSH1 0xE0 SHL DUP2 MSTORE PUSH1 0x4 ADD PUSH2 0xBCC SWAP4 SWAP3 SWAP2 SWAP1 PUSH2 0x1990 JUMP JUMPDEST PUSH1 0x20 PUSH1 0x40 MLOAD DUP1 DUP4 SUB DUP2 PUSH0 DUP8 GAS CALL ISZERO DUP1 ISZERO PUSH2 0xBE8 JUMPI RETURNDATASIZE PUSH0 DUP1 RETURNDATACOPY RETURNDATASIZE PUSH0 REVERT JUMPDEST POP POP POP POP PUSH1 0x40 MLOAD RETURNDATASIZE PUSH1 0x1F NOT PUSH1 0x1F DUP3 ADD AND DUP3 ADD DUP1 PUSH1 0x40 MSTORE POP DUP2 ADD SWAP1 PUSH2 0xC0C SWAP2 SWAP1 PUSH2 0x19D9 JUMP JUMPDEST POP DUP11 PUSH20 0xFFFFFFFFFFFFFFFFFFFFFFFFFFFFFFFFFFFFFFFF AND PUSH4 0x95EA7B3 PUSH32 0x0 DUP12 PUSH1 0x40 MLOAD DUP4 PUSH4 0xFFFFFFFF AND PUSH1 0xE0 SHL DUP2 MSTORE PUSH1 0x4 ADD PUSH2 0xC68 SWAP3 SWAP2 SWAP1 PUSH2 0x1A04 JUMP JUMPDEST PUSH1 0x20 PUSH1 0x40 MLOAD DUP1 DUP4 SUB DUP2 PUSH0 DUP8 GAS CALL ISZERO DUP1 ISZERO PUSH2 0xC84 JUMPI RETURNDATASIZE PUSH0 DUP1 RETURNDATACOPY RETURNDATASIZE PUSH0 REVERT JUMPDEST POP POP POP POP PUSH1 0x40 MLOAD RETURNDATASIZE PUSH1 0x1F NOT PUSH1 0x1F DUP3 ADD AND DUP3 ADD DUP1 PUSH1 0x40 MSTORE POP DUP2 ADD SWAP1 PUSH2 0xCA8 SWAP2 SWAP1 PUSH2 0x19D9 JUMP JUMPDEST POP PUSH0 PUSH1 0x40 MLOAD DUP1 PUSH2 0x100 ADD PUSH1 0x40 MSTORE DUP1 DUP14 PUSH20 0xFFFFFFFFFFFFFFFFFFFFFFFFFFFFFFFFFFFFFFFF AND DUP2 MSTORE PUSH1 0x20 ADD DUP13 PUSH20 0xFFFFFFFFFFFFFFFFFFFFFFFFFFFFFFFFFFFFFFFF AND DUP2 MSTORE PUSH1 0x20 ADD DUP6 PUSH3 0xFFFFFF AND DUP2 MSTORE PUSH1 0x20 ADD DUP11 PUSH20 0xFFFFFFFFFFFFFFFFFFFFFFFFFFFFFFFFFFFFFFFF AND DUP2 MSTORE PUSH1 0x20 ADD PUSH2 0x4B0 TIMESTAMP PUSH2 0xD23 SWAP2 SWAP1 PUSH2 0x1A2B JUMP JUMPDEST DUP2 MSTORE PUSH1 0x20 ADD DUP12 DUP2 MSTORE PUSH1 0x20 ADD DUP4 DUP2 MSTORE PUSH1 0x20 ADD PUSH0 PUSH20 0xFFFFFFFFFFFFFFFFFFFFFFFFFFFFFFFFFFFFFFFF AND DUP2 MSTORE POP SWAP1 POP PUSH32 0x0 PUSH20 0xFFFFFFFFFFFFFFFFFFFFFFFFFFFFFFFFFFFFFFFF AND PUSH4 0x414BF389 DUP3 PUSH1 0x40 MLOAD DUP3 PUSH4 0xFFFFFFFF AND PUSH1 0xE0 SHL DUP2 MSTORE PUSH1 0x4 ADD PUSH2 0xDA9 SWAP2 SWAP1 PUSH2 0x1B3A JUMP JUMPDEST PUSH1 0x20 PUSH1 0x40 MLOAD DUP1 DUP4 SUB DUP2 PUSH0 DUP8 GAS CALL ISZERO DUP1 ISZERO PUSH2 0xDC5 JUMPI RETURNDATASIZE PUSH0 DUP1 RETURNDATACOPY RETURNDATASIZE PUSH0 REVERT JUMPDEST POP POP POP POP PUSH1 0x40 MLOAD RETURNDATASIZE PUSH1 0x1F NOT PUSH1 0x1F DUP3 ADD AND DUP3 ADD DUP1 PUSH1 0x40 MSTORE POP DUP2 ADD SWAP1 PUSH2 0xDE9 SWAP2 SWAP1 PUSH2 0x1B54 JUMP JUMPDEST SWAP6 POP PUSH32 0x4C0BB63F8D47428A342C2A12F0DFD2A4C6910D09D38D94AD5593619C892931B8 DUP13 DUP13 DUP13 DUP10 DUP14 DUP10 PUSH1 0x40 MLOAD PUSH2 0xE24 SWAP7 SWAP6 SWAP5 SWAP4 SWAP3 SWAP2 SWAP1 PUSH2 0x1B7F JUMP JUMPDEST PUSH1 0x40 MLOAD DUP1 SWAP2 SUB SWAP1 LOG1 POP POP POP POP POP SWAP7 SWAP6 POP POP POP POP POP POP JUMP JUMPDEST PUSH32 0x0 DUP2 JUMP JUMPDEST PUSH32 0x0 DUP2 JUMP JUMPDEST PUSH32 0x0 DUP2 JUMP JUMPDEST PUSH0 DUP1 PUSH0 DUP1 JUMPDEST PUSH1 0x2 DUP1 SLOAD SWAP1 POP DUP2 LT ISZERO PUSH2 0x1094 JUMPI PUSH0 PUSH32 0x0 PUSH20 0xFFFFFFFFFFFFFFFFFFFFFFFFFFFFFFFFFFFFFFFF AND PUSH4 0x1698EE82 DUP9 DUP9 PUSH1 0x2 DUP7 DUP2 SLOAD DUP2 LT PUSH2 0xF0C JUMPI PUSH2 0xF0B PUSH2 0x1C46 JUMP JUMPDEST JUMPDEST SWAP1 PUSH0 MSTORE PUSH1 0x20 PUSH0 KECCAK256 SWAP1 PUSH1 0xA SWAP2 DUP3 DUP3 DIV ADD SWAP2 SWAP1 MOD PUSH1 0x3 MUL SWAP1 SLOAD SWAP1 PUSH2 0x100 EXP SWAP1 DIV PUSH3 0xFFFFFF AND PUSH1 0x40 MLOAD DUP5 PUSH4 0xFFFFFFFF AND PUSH1 0xE0 SHL DUP2 MSTORE PUSH1 0x4 ADD PUSH2 0xF4D SWAP4 SWAP3 SWAP2 SWAP1 PUSH2 0x1C73 JUMP JUMPDEST PUSH1 0x20 PUSH1 0x40 MLOAD DUP1 DUP4 SUB DUP2 DUP7 GAS STATICCALL ISZERO DUP1 ISZERO PUSH2 0xF68 JUMPI RETURNDATASIZE PUSH0 DUP1 RETURNDATACOPY RETURNDATASIZE PUSH0 REVERT JUMPDEST POP POP POP POP PUSH1 0x40 MLOAD RETURNDATASIZE PUSH1 0x1F NOT PUSH1 0x1F DUP3 ADD AND DUP3 ADD DUP1 PUSH1 0x40 MSTORE POP DUP2 ADD SWAP1 PUSH2 0xF8C SWAP2 SWAP1 PUSH2 0x1CBC JUMP JUMPDEST SWAP1 POP PUSH0 PUSH20 0xFFFFFFFFFFFFFFFFFFFFFFFFFFFFFFFFFFFFFFFF AND DUP2 PUSH20 0xFFFFFFFFFFFFFFFFFFFFFFFFFFFFFFFFFFFFFFFF AND EQ PUSH2 0x1086 JUMPI PUSH0 DUP8 PUSH20 0xFFFFFFFFFFFFFFFFFFFFFFFFFFFFFFFFFFFFFFFF AND PUSH4 0x70A08231 DUP4 PUSH1 0x40 MLOAD DUP3 PUSH4 0xFFFFFFFF AND PUSH1 0xE0 SHL DUP2 MSTORE PUSH1 0x4 ADD PUSH2 0xFFB SWAP2 SWAP1 PUSH2 0x12AB JUMP JUMPDEST PUSH1 0x20 PUSH1 0x40 MLOAD DUP1 DUP4 SUB DUP2 DUP7 GAS STATICCALL ISZERO DUP1 ISZERO PUSH2 0x1016 JUMPI RETURNDATASIZE PUSH0 DUP1 RETURNDATACOPY RETURNDATASIZE PUSH0 REVERT JUMPDEST POP POP POP POP PUSH1 0x40 MLOAD RETURNDATASIZE PUSH1 0x1F NOT PUSH1 0x1F DUP3 ADD AND DUP3 ADD DUP1 PUSH1 0x40 MSTORE POP DUP2 ADD SWAP1 PUSH2 0x103A SWAP2 SWAP1 PUSH2 0x1B54 JUMP JUMPDEST SWAP1 POP DUP4 DUP2 GT ISZERO PUSH2 0x1084 JUMPI DUP1 SWAP4 POP DUP2 SWAP6 POP PUSH1 0x2 DUP4 DUP2 SLOAD DUP2 LT PUSH2 0x105E JUMPI PUSH2 0x105D PUSH2 0x1C46 JUMP JUMPDEST JUMPDEST SWAP1 PUSH0 MSTORE PUSH1 0x20 PUSH0 KECCAK256 SWAP1 PUSH1 0xA SWAP2 DUP3 DUP3 DIV ADD SWAP2 SWAP1 MOD PUSH1 0x3 MUL SWAP1 SLOAD SWAP1 PUSH2 0x100 EXP SWAP1 DIV PUSH3 0xFFFFFF AND SWAP5 POP JUMPDEST POP JUMPDEST POP DUP1 DUP1 PUSH1 0x1 ADD SWAP2 POP POP PUSH2 0xEAC JUMP JUMPDEST POP PUSH0 PUSH20 0xFFFFFFFFFFFFFFFFFFFFFFFFFFFFFFFFFFFFFFFF AND DUP4 PUSH20 0xFFFFFFFFFFFFFFFFFFFFFFFFFFFFFFFFFFFFFFFF AND SUB PUSH2 0x1103 JUMPI PUSH1 0x40 MLOAD PUSH32 0x8C379A000000000000000000000000000000000000000000000000000000000 DUP2 MSTORE PUSH1 0x4 ADD PUSH2 0x10FA SWAP1 PUSH2 0x1D31 JUMP JUMPDEST PUSH1 0x40 MLOAD DUP1 SWAP2 SUB SWAP1 REVERT JUMPDEST POP SWAP3 POP SWAP3 SWAP1 POP JUMP JUMPDEST PUSH1 0x3 PUSH1 0x20 MSTORE DUP1 PUSH0 MSTORE PUSH1 0x40 PUSH0 KECCAK256 PUSH0 SWAP2 POP SLOAD SWAP1 PUSH2 0x100 EXP SWAP1 DIV PUSH1 0xFF AND DUP2 JUMP JUMPDEST PUSH1 0xC8 DUP2 JUMP JUMPDEST PUSH2 0x4B0 DUP2 JUMP JUMPDEST PUSH0 DUP1 REVERT JUMPDEST PUSH0 DUP1 REVERT JUMPDEST PUSH0 DUP2 SWAP1 POP SWAP2 SWAP1 POP JUMP JUMPDEST PUSH2 0x114D DUP2 PUSH2 0x113B JUMP JUMPDEST DUP2 EQ PUSH2 0x1157 JUMPI PUSH0 DUP1 REVERT JUMPDEST POP JUMP JUMPDEST PUSH0 DUP2 CALLDATALOAD SWAP1 POP PUSH2 0x1168 DUP2 PUSH2 0x1144 JUMP JUMPDEST SWAP3 SWAP2 POP POP JUMP JUMPDEST PUSH0 PUSH1 0x20 DUP3 DUP5 SUB SLT ISZERO PUSH2 0x1183 JUMPI PUSH2 0x1182 PUSH2 0x1133 JUMP JUMPDEST JUMPDEST PUSH0 PUSH2 0x1190 DUP5 DUP3 DUP6 ADD PUSH2 0x115A JUMP JUMPDEST SWAP2 POP POP SWAP3 SWAP2 POP POP JUMP JUMPDEST PUSH0 PUSH3 0xFFFFFF DUP3 AND SWAP1 POP SWAP2 SWAP1 POP JUMP JUMPDEST PUSH2 0x11B0 DUP2 PUSH2 0x1199 JUMP JUMPDEST DUP3 MSTORE POP POP JUMP JUMPDEST PUSH0 PUSH1 0x20 DUP3 ADD SWAP1 POP PUSH2 0x11C9 PUSH0 DUP4 ADD DUP5 PUSH2 0x11A7 JUMP JUMPDEST SWAP3 SWAP2 POP POP JUMP JUMPDEST PUSH0 PUSH20 0xFFFFFFFFFFFFFFFFFFFFFFFFFFFFFFFFFFFFFFFF DUP3 AND SWAP1 POP SWAP2 SWAP1 POP JUMP JUMPDEST PUSH0 PUSH2 0x11F8 DUP3 PUSH2 0x11CF JUMP JUMPDEST SWAP1 POP SWAP2 SWAP1 POP JUMP JUMPDEST PUSH2 0x1208 DUP2 PUSH2 0x11EE JUMP JUMPDEST DUP2 EQ PUSH2 0x1212 JUMPI PUSH0 DUP1 REVERT JUMPDEST POP JUMP JUMPDEST PUSH0 DUP2 CALLDATALOAD SWAP1 POP PUSH2 0x1223 DUP2 PUSH2 0x11FF JUMP JUMPDEST SWAP3 SWAP2 POP POP JUMP JUMPDEST PUSH0 DUP2 ISZERO ISZERO SWAP1 POP SWAP2 SWAP1 POP JUMP JUMPDEST PUSH2 0x123D DUP2 PUSH2 0x1229 JUMP JUMPDEST DUP2 EQ PUSH2 0x1247 JUMPI PUSH0 DUP1 REVERT JUMPDEST POP JUMP JUMPDEST PUSH0 DUP2 CALLDATALOAD SWAP1 POP PUSH2 0x1258 DUP2 PUSH2 0x1234 JUMP JUMPDEST SWAP3 SWAP2 POP POP JUMP JUMPDEST PUSH0 DUP1 PUSH1 0x40 DUP4 DUP6 SUB SLT ISZERO PUSH2 0x1274 JUMPI PUSH2 0x1273 PUSH2 0x1133 JUMP JUMPDEST JUMPDEST PUSH0 PUSH2 0x1281 DUP6 DUP3 DUP7 ADD PUSH2 0x1215 JUMP JUMPDEST SWAP3 POP POP PUSH1 0x20 PUSH2 0x1292 DUP6 DUP3 DUP7 ADD PUSH2 0x124A JUMP JUMPDEST SWAP2 POP POP SWAP3 POP SWAP3 SWAP1 POP JUMP JUMPDEST PUSH2 0x12A5 DUP2 PUSH2 0x11EE JUMP JUMPDEST DUP3 MSTORE POP POP JUMP JUMPDEST PUSH0 PUSH1 0x20 DUP3 ADD SWAP1 POP PUSH2 0x12BE PUSH0 DUP4 ADD DUP5 PUSH2 0x129C JUMP JUMPDEST SWAP3 SWAP2 POP POP JUMP JUMPDEST PUSH2 0x12CD DUP2 PUSH2 0x113B JUMP JUMPDEST DUP3 MSTORE POP POP JUMP JUMPDEST PUSH0 PUSH1 0x20 DUP3 ADD SWAP1 POP PUSH2 0x12E6 PUSH0 DUP4 ADD DUP5 PUSH2 0x12C4 JUMP JUMPDEST SWAP3 SWAP2 POP POP JUMP JUMPDEST PUSH0 DUP1 PUSH0 DUP1 PUSH1 0x80 DUP6 DUP8 SUB SLT ISZERO PUSH2 0x1304 JUMPI PUSH2 0x1303 PUSH2 0x1133 JUMP JUMPDEST JUMPDEST PUSH0 PUSH2 0x1311 DUP8 DUP3 DUP9 ADD PUSH2 0x1215 JUMP JUMPDEST SWAP5 POP POP PUSH1 0x20 PUSH2 0x1322 DUP8 DUP3 DUP9 ADD PUSH2 0x1215 JUMP JUMPDEST SWAP4 POP POP PUSH1 0x40 PUSH2 0x1333 DUP8 DUP3 DUP9 ADD PUSH2 0x115A JUMP JUMPDEST SWAP3 POP POP PUSH1 0x60 PUSH2 0x1344 DUP8 DUP3 DUP9 ADD PUSH2 0x1215 JUMP JUMPDEST SWAP2 POP POP SWAP3 SWAP6 SWAP2 SWAP5 POP SWAP3 POP JUMP JUMPDEST PUSH0 DUP1 REVERT JUMPDEST PUSH0 DUP1 REVERT JUMPDEST PUSH0 DUP1 REVERT JUMPDEST PUSH0 DUP1 DUP4 PUSH1 0x1F DUP5 ADD SLT PUSH2 0x1371 JUMPI PUSH2 0x1370 PUSH2 0x1350 JUMP JUMPDEST JUMPDEST DUP3 CALLDATALOAD SWAP1 POP PUSH8 0xFFFFFFFFFFFFFFFF DUP2 GT ISZERO PUSH2 0x138E JUMPI PUSH2 0x138D PUSH2 0x1354 JUMP JUMPDEST JUMPDEST PUSH1 0x20 DUP4 ADD SWAP2 POP DUP4 PUSH1 0x1 DUP3 MUL DUP4 ADD GT ISZERO PUSH2 0x13AA JUMPI PUSH2 0x13A9 PUSH2 0x1358 JUMP JUMPDEST JUMPDEST SWAP3 POP SWAP3 SWAP1 POP JUMP JUMPDEST PUSH0 DUP1 PUSH0 DUP1 PUSH0 DUP1 PUSH1 0xA0 DUP8 DUP10 SUB SLT ISZERO PUSH2 0x13CB JUMPI PUSH2 0x13CA PUSH2 0x1133 JUMP JUMPDEST JUMPDEST PUSH0 PUSH2 0x13D8 DUP10 DUP3 DUP11 ADD PUSH2 0x1215 JUMP JUMPDEST SWAP7 POP POP PUSH1 0x20 PUSH2 0x13E9 DUP10 DUP3 DUP11 ADD PUSH2 0x1215 JUMP JUMPDEST SWAP6 POP POP PUSH1 0x40 PUSH2 0x13FA DUP10 DUP3 DUP11 ADD PUSH2 0x115A JUMP JUMPDEST SWAP5 POP POP PUSH1 0x60 PUSH2 0x140B DUP10 DUP3 DUP11 ADD PUSH2 0x1215 JUMP JUMPDEST SWAP4 POP POP PUSH1 0x80 DUP8 ADD CALLDATALOAD PUSH8 0xFFFFFFFFFFFFFFFF DUP2 GT ISZERO PUSH2 0x142C JUMPI PUSH2 0x142B PUSH2 0x1137 JUMP JUMPDEST JUMPDEST PUSH2 0x1438 DUP10 DUP3 DUP11 ADD PUSH2 0x135C JUMP JUMPDEST SWAP3 POP SWAP3 POP POP SWAP3 SWAP6 POP SWAP3 SWAP6 POP SWAP3 SWAP6 JUMP JUMPDEST PUSH0 DUP2 SWAP1 POP SWAP2 SWAP1 POP JUMP JUMPDEST PUSH0 PUSH2 0x146A PUSH2 0x1465 PUSH2 0x1460 DUP5 PUSH2 0x11CF JUMP JUMPDEST PUSH2 0x1447 JUMP JUMPDEST PUSH2 0x11CF JUMP JUMPDEST SWAP1 POP SWAP2 SWAP1 POP JUMP JUMPDEST PUSH0 PUSH2 0x147B DUP3 PUSH2 0x1450 JUMP JUMPDEST SWAP1 POP SWAP2 SWAP1 POP JUMP JUMPDEST PUSH0 PUSH2 0x148C DUP3 PUSH2 0x1471 JUMP JUMPDEST SWAP1 POP SWAP2 SWAP1 POP JUMP JUMPDEST PUSH2 0x149C DUP2 PUSH2 0x1482 JUMP JUMPDEST DUP3 MSTORE POP POP JUMP JUMPDEST PUSH0 PUSH1 0x20 DUP3 ADD SWAP1 POP PUSH2 0x14B5 PUSH0 DUP4 ADD DUP5 PUSH2 0x1493 JUMP JUMPDEST SWAP3 SWAP2 POP POP JUMP JUMPDEST PUSH0 PUSH2 0x14C5 DUP3 PUSH2 0x1471 JUMP JUMPDEST SWAP1 POP SWAP2 SWAP1 POP JUMP JUMPDEST PUSH2 0x14D5 DUP2 PUSH2 0x14BB JUMP JUMPDEST DUP3 MSTORE POP POP JUMP JUMPDEST PUSH0 PUSH1 0x20 DUP3 ADD SWAP1 POP PUSH2 0x14EE PUSH0 DUP4 ADD DUP5 PUSH2 0x14CC JUMP JUMPDEST SWAP3 SWAP2 POP POP JUMP JUMPDEST PUSH0 PUSH2 0x14FE DUP3 PUSH2 0x1471 JUMP JUMPDEST SWAP1 POP SWAP2 SWAP1 POP JUMP JUMPDEST PUSH2 0x150E DUP2 PUSH2 0x14F4 JUMP JUMPDEST DUP3 MSTORE POP POP JUMP JUMPDEST PUSH0 PUSH1 0x20 DUP3 ADD SWAP1 POP PUSH2 0x1527 PUSH0 DUP4 ADD DUP5 PUSH2 0x1505 JUMP JUMPDEST SWAP3 SWAP2 POP POP JUMP JUMPDEST PUSH0 DUP1 PUSH1 0x40 DUP4 DUP6 SUB SLT ISZERO PUSH2 0x1543 JUMPI PUSH2 0x1542 PUSH2 0x1133 JUMP JUMPDEST JUMPDEST PUSH0 PUSH2 0x1550 DUP6 DUP3 DUP7 ADD PUSH2 0x1215 JUMP JUMPDEST SWAP3 POP POP PUSH1 0x20 PUSH2 0x1561 DUP6 DUP3 DUP7 ADD PUSH2 0x1215 JUMP JUMPDEST SWAP2 POP POP SWAP3 POP SWAP3 SWAP1 POP JUMP JUMPDEST PUSH0 PUSH1 0x40 DUP3 ADD SWAP1 POP PUSH2 0x157E PUSH0 DUP4 ADD DUP6 PUSH2 0x129C JUMP JUMPDEST PUSH2 0x158B PUSH1 0x20 DUP4 ADD DUP5 PUSH2 0x11A7 JUMP JUMPDEST SWAP4 SWAP3 POP POP POP JUMP JUMPDEST PUSH0 PUSH1 0x20 DUP3 DUP5 SUB SLT ISZERO PUSH2 0x15A7 JUMPI PUSH2 0x15A6 PUSH2 0x1133 JUMP JUMPDEST JUMPDEST PUSH0 PUSH2 0x15B4 DUP5 DUP3 DUP6 ADD PUSH2 0x1215 JUMP JUMPDEST SWAP2 POP POP SWAP3 SWAP2 POP POP JUMP JUMPDEST PUSH2 0x15C6 DUP2 PUSH2 0x1229 JUMP JUMPDEST DUP3 MSTORE POP POP JUMP JUMPDEST PUSH0 PUSH1 0x20 DUP3 ADD SWAP1 POP PUSH2 0x15DF PUSH0 DUP4 ADD DUP5 PUSH2 0x15BD JUMP JUMPDEST SWAP3 SWAP2 POP POP JUMP JUMPDEST PUSH0 DUP3 DUP3 MSTORE PUSH1 0x20 DUP3 ADD SWAP1 POP SWAP3 SWAP2 POP POP JUMP JUMPDEST PUSH32 0x4E6F74206F776E65720000000000000000000000000000000000000000000000 PUSH0 DUP3 ADD MSTORE POP JUMP JUMPDEST PUSH0 PUSH2 0x1629 PUSH1 0x9 DUP4 PUSH2 0x15E5 JUMP JUMPDEST SWAP2 POP PUSH2 0x1634 DUP3 PUSH2 0x15F5 JUMP JUMPDEST PUSH1 0x20 DUP3 ADD SWAP1 POP SWAP2 SWAP1 POP JUMP JUMPDEST PUSH0 PUSH1 0x20 DUP3 ADD SWAP1 POP DUP2 DUP2 SUB PUSH0 DUP4 ADD MSTORE PUSH2 0x1656 DUP2 PUSH2 0x161D JUMP JUMPDEST SWAP1 POP SWAP2 SWAP1 POP JUMP JUMPDEST PUSH32 0x546F6B656E73206E6F742077686974656C697374656400000000000000000000 PUSH0 DUP3 ADD MSTORE POP JUMP JUMPDEST PUSH0 PUSH2 0x1691 PUSH1 0x16 DUP4 PUSH2 0x15E5 JUMP JUMPDEST SWAP2 POP PUSH2 0x169C DUP3 PUSH2 0x165D JUMP JUMPDEST PUSH1 0x20 DUP3 ADD SWAP1 POP SWAP2 SWAP1 POP JUMP JUMPDEST PUSH0 PUSH1 0x20 DUP3 ADD SWAP1 POP DUP2 DUP2 SUB PUSH0 DUP4 ADD MSTORE PUSH2 0x16BE DUP2 PUSH2 0x1685 JUMP JUMPDEST SWAP1 POP SWAP2 SWAP1 POP JUMP JUMPDEST PUSH32 0x416D6F756E7420746F6F206C6F77000000000000000000000000000000000000 PUSH0 DUP3 ADD MSTORE POP JUMP JUMPDEST PUSH0 PUSH2 0x16F9 PUSH1 0xE DUP4 PUSH2 0x15E5 JUMP JUMPDEST SWAP2 POP PUSH2 0x1704 DUP3 PUSH2 0x16C5 JUMP JUMPDEST PUSH1 0x20 DUP3 ADD SWAP1 POP SWAP2 SWAP1 POP JUMP JUMPDEST PUSH0 PUSH1 0x20 DUP3 ADD SWAP1 POP DUP2 DUP2 SUB PUSH0 DUP4 ADD MSTORE PUSH2 0x1726 DUP2 PUSH2 0x16ED JUMP JUMPDEST SWAP1 POP SWAP2 SWAP1 POP JUMP JUMPDEST PUSH0 DUP2 SWAP1 POP SWAP2 SWAP1 POP JUMP JUMPDEST PUSH0 PUSH2 0x1750 PUSH2 0x174B PUSH2 0x1746 DUP5 PUSH2 0x172D JUMP JUMPDEST PUSH2 0x1447 JUMP JUMPDEST PUSH2 0x11CF JUMP JUMPDEST SWAP1 POP SWAP2 SWAP1 POP JUMP JUMPDEST PUSH2 0x1760 DUP2 PUSH2 0x1736 JUMP JUMPDEST DUP3 MSTORE POP POP JUMP JUMPDEST PUSH0 PUSH1 0xA0 DUP3 ADD SWAP1 POP PUSH2 0x1779 PUSH0 DUP4 ADD DUP9 PUSH2 0x129C JUMP JUMPDEST PUSH2 0x1786 PUSH1 0x20 DUP4 ADD DUP8 PUSH2 0x129C JUMP JUMPDEST PUSH2 0x1793 PUSH1 0x40 DUP4 ADD DUP7 PUSH2 0x11A7 JUMP JUMPDEST PUSH2 0x17A0 PUSH1 0x60 DUP4 ADD DUP6 PUSH2 0x12C4 JUMP JUMPDEST PUSH2 0x17AD PUSH1 0x80 DUP4 ADD DUP5 PUSH2 0x1757 JUMP JUMPDEST SWAP7 SWAP6 POP POP POP POP POP POP JUMP JUMPDEST PUSH0 DUP2 MLOAD SWAP1 POP PUSH2 0x17C5 DUP2 PUSH2 0x1144 JUMP JUMPDEST SWAP3 SWAP2 POP POP JUMP JUMPDEST PUSH2 0x17D4 DUP2 PUSH2 0x11CF JUMP JUMPDEST DUP2 EQ PUSH2 0x17DE JUMPI PUSH0 DUP1 REVERT JUMPDEST POP JUMP JUMPDEST PUSH0 DUP2 MLOAD SWAP1 POP PUSH2 0x17EF DUP2 PUSH2 0x17CB JUMP JUMPDEST SWAP3 SWAP2 POP POP JUMP JUMPDEST PUSH0 PUSH4 0xFFFFFFFF DUP3 AND SWAP1 POP SWAP2 SWAP1 POP JUMP JUMPDEST PUSH2 0x180D DUP2 PUSH2 0x17F5 JUMP JUMPDEST DUP2 EQ PUSH2 0x1817 JUMPI PUSH0 DUP1 REVERT JUMPDEST POP JUMP JUMPDEST PUSH0 DUP2 MLOAD SWAP1 POP PUSH2 0x1828 DUP2 PUSH2 0x1804 JUMP JUMPDEST SWAP3 SWAP2 POP POP JUMP JUMPDEST PUSH0 DUP1 PUSH0 DUP1 PUSH1 0x80 DUP6 DUP8 SUB SLT ISZERO PUSH2 0x1846 JUMPI PUSH2 0x1845 PUSH2 0x1133 JUMP JUMPDEST JUMPDEST PUSH0 PUSH2 0x1853 DUP8 DUP3 DUP9 ADD PUSH2 0x17B7 JUMP JUMPDEST SWAP5 POP POP PUSH1 0x20 PUSH2 0x1864 DUP8 DUP3 DUP9 ADD PUSH2 0x17E1 JUMP JUMPDEST SWAP4 POP POP PUSH1 0x40 PUSH2 0x1875 DUP8 DUP3 DUP9 ADD PUSH2 0x181A JUMP JUMPDEST SWAP3 POP POP PUSH1 0x60 PUSH2 0x1886 DUP8 DUP3 DUP9 ADD PUSH2 0x17B7 JUMP JUMPDEST SWAP2 POP POP SWAP3 SWAP6 SWAP2 SWAP5 POP SWAP3 POP JUMP JUMPDEST PUSH32 0x4E487B7100000000000000000000000000000000000000000000000000000000 PUSH0 MSTORE PUSH1 0x11 PUSH1 0x4 MSTORE PUSH1 0x24 PUSH0 REVERT JUMPDEST PUSH0 PUSH2 0x18C9 DUP3 PUSH2 0x113B JUMP JUMPDEST SWAP2 POP PUSH2 0x18D4 DUP4 PUSH2 0x113B JUMP JUMPDEST SWAP3 POP DUP3 DUP3 SUB SWAP1 POP DUP2 DUP2 GT ISZERO PUSH2 0x18EC JUMPI PUSH2 0x18EB PUSH2 0x1892 JUMP JUMPDEST JUMPDEST SWAP3 SWAP2 POP POP JUMP JUMPDEST PUSH0 PUSH2 0x18FC DUP3 PUSH2 0x113B JUMP JUMPDEST SWAP2 POP PUSH2 0x1907 DUP4 PUSH2 0x113B JUMP JUMPDEST SWAP3 POP DUP3 DUP3 MUL PUSH2 0x1915 DUP2 PUSH2 0x113B JUMP JUMPDEST SWAP2 POP DUP3 DUP3 DIV DUP5 EQ DUP4 ISZERO OR PUSH2 0x192C JUMPI PUSH2 0x192B PUSH2 0x1892 JUMP JUMPDEST JUMPDEST POP SWAP3 SWAP2 POP POP JUMP JUMPDEST PUSH32 0x4E487B7100000000000000000000000000000000000000000000000000000000 PUSH0 MSTORE PUSH1 0x12 PUSH1 0x4 MSTORE PUSH1 0x24 PUSH0 REVERT JUMPDEST PUSH0 PUSH2 0x196A DUP3 PUSH2 0x113B JUMP JUMPDEST SWAP2 POP PUSH2 0x1975 DUP4 PUSH2 0x113B JUMP JUMPDEST SWAP3 POP DUP3 PUSH2 0x1985 JUMPI PUSH2 0x1984 PUSH2 0x1933 JUMP JUMPDEST JUMPDEST DUP3 DUP3 DIV SWAP1 POP SWAP3 SWAP2 POP POP JUMP JUMPDEST PUSH0 PUSH1 0x60 DUP3 ADD SWAP1 POP PUSH2 0x19A3 PUSH0 DUP4 ADD DUP7 PUSH2 0x129C JUMP JUMPDEST PUSH2 0x19B0 PUSH1 0x20 DUP4 ADD DUP6 PUSH2 0x129C JUMP JUMPDEST PUSH2 0x19BD PUSH1 0x40 DUP4 ADD DUP5 PUSH2 0x12C4 JUMP JUMPDEST SWAP5 SWAP4 POP POP POP POP JUMP JUMPDEST PUSH0 DUP2 MLOAD SWAP1 POP PUSH2 0x19D3 DUP2 PUSH2 0x1234 JUMP JUMPDEST SWAP3 SWAP2 POP POP JUMP JUMPDEST PUSH0 PUSH1 0x20 DUP3 DUP5 SUB SLT ISZERO PUSH2 0x19EE JUMPI PUSH2 0x19ED PUSH2 0x1133 JUMP JUMPDEST JUMPDEST PUSH0 PUSH2 0x19FB DUP5 DUP3 DUP6 ADD PUSH2 0x19C5 JUMP JUMPDEST SWAP2 POP POP SWAP3 SWAP2 POP POP JUMP JUMPDEST PUSH0 PUSH1 0x40 DUP3 ADD SWAP1 POP PUSH2 0x1A17 PUSH0 DUP4 ADD DUP6 PUSH2 0x129C JUMP JUMPDEST PUSH2 0x1A24 PUSH1 0x20 DUP4 ADD DUP5 PUSH2 0x12C4 JUMP JUMPDEST SWAP4 SWAP3 POP POP POP JUMP JUMPDEST PUSH0 PUSH2 0x1A35 DUP3 PUSH2 0x113B JUMP JUMPDEST SWAP2 POP PUSH2 0x1A40 DUP4 PUSH2 0x113B JUMP JUMPDEST SWAP3 POP DUP3 DUP3 ADD SWAP1 POP DUP1 DUP3 GT ISZERO PUSH2 0x1A58 JUMPI PUSH2 0x1A57 PUSH2 0x1892 JUMP JUMPDEST JUMPDEST SWAP3 SWAP2 POP POP JUMP JUMPDEST PUSH2 0x1A67 DUP2 PUSH2 0x11EE JUMP JUMPDEST DUP3 MSTORE POP POP JUMP JUMPDEST PUSH2 0x1A76 DUP2 PUSH2 0x1199 JUMP JUMPDEST DUP3 MSTORE POP POP JUMP JUMPDEST PUSH2 0x1A85 DUP2 PUSH2 0x113B JUMP JUMPDEST DUP3 MSTORE POP POP JUMP JUMPDEST PUSH2 0x1A94 DUP2 PUSH2 0x11CF JUMP JUMPDEST DUP3 MSTORE POP POP JUMP JUMPDEST PUSH2 0x100 DUP3 ADD PUSH0 DUP3 ADD MLOAD PUSH2 0x1AAF PUSH0 DUP6 ADD DUP3 PUSH2 0x1A5E JUMP JUMPDEST POP PUSH1 0x20 DUP3 ADD MLOAD PUSH2 0x1AC2 PUSH1 0x20 DUP6 ADD DUP3 PUSH2 0x1A5E JUMP JUMPDEST POP PUSH1 0x40 DUP3 ADD MLOAD PUSH2 0x1AD5 PUSH1 0x40 DUP6 ADD DUP3 PUSH2 0x1A6D JUMP JUMPDEST POP PUSH1 0x60 DUP3 ADD MLOAD PUSH2 0x1AE8 PUSH1 0x60 DUP6 ADD DUP3 PUSH2 0x1A5E JUMP JUMPDEST POP PUSH1 0x80 DUP3 ADD MLOAD PUSH2 0x1AFB PUSH1 0x80 DUP6 ADD DUP3 PUSH2 0x1A7C JUMP JUMPDEST POP PUSH1 0xA0 DUP3 ADD MLOAD PUSH2 0x1B0E PUSH1 0xA0 DUP6 ADD DUP3 PUSH2 0x1A7C JUMP JUMPDEST POP PUSH1 0xC0 DUP3 ADD MLOAD PUSH2 0x1B21 PUSH1 0xC0 DUP6 ADD DUP3 PUSH2 0x1A7C JUMP JUMPDEST POP PUSH1 0xE0 DUP3 ADD MLOAD PUSH2 0x1B34 PUSH1 0xE0 DUP6 ADD DUP3 PUSH2 0x1A8B JUMP JUMPDEST POP POP POP POP JUMP JUMPDEST PUSH0 PUSH2 0x100 DUP3 ADD SWAP1 POP PUSH2 0x1B4E PUSH0 DUP4 ADD DUP5 PUSH2 0x1A9A JUMP JUMPDEST SWAP3 SWAP2 POP POP JUMP JUMPDEST PUSH0 PUSH1 0x20 DUP3 DUP5 SUB SLT ISZERO PUSH2 0x1B69 JUMPI PUSH2 0x1B68 PUSH2 0x1133 JUMP JUMPDEST JUMPDEST PUSH0 PUSH2 0x1B76 DUP5 DUP3 DUP6 ADD PUSH2 0x17B7 JUMP JUMPDEST SWAP2 POP POP SWAP3 SWAP2 POP POP JUMP JUMPDEST PUSH0 PUSH1 0xC0 DUP3 ADD SWAP1 POP PUSH2 0x1B92 PUSH0 DUP4 ADD DUP10 PUSH2 0x129C JUMP JUMPDEST PUSH2 0x1B9F PUSH1 0x20 DUP4 ADD DUP9 PUSH2 0x129C JUMP JUMPDEST PUSH2 0x1BAC PUSH1 0x40 DUP4 ADD DUP8 PUSH2 0x12C4 JUMP JUMPDEST PUSH2 0x1BB9 PUSH1 0x60 DUP4 ADD DUP7 PUSH2 0x12C4 JUMP JUMPDEST PUSH2 0x1BC6 PUSH1 0x80 DUP4 ADD DUP6 PUSH2 0x129C JUMP JUMPDEST PUSH2 0x1BD3 PUSH1 0xA0 DUP4 ADD DUP5 PUSH2 0x11A7 JUMP JUMPDEST SWAP8 SWAP7 POP POP POP POP POP POP POP JUMP JUMPDEST PUSH32 0x4E6F74204149204F7261636C6500000000000000000000000000000000000000 PUSH0 DUP3 ADD MSTORE POP JUMP JUMPDEST PUSH0 PUSH2 0x1C12 PUSH1 0xD DUP4 PUSH2 0x15E5 JUMP JUMPDEST SWAP2 POP PUSH2 0x1C1D DUP3 PUSH2 0x1BDE JUMP JUMPDEST PUSH1 0x20 DUP3 ADD SWAP1 POP SWAP2 SWAP1 POP JUMP JUMPDEST PUSH0 PUSH1 0x20 DUP3 ADD SWAP1 POP DUP2 DUP2 SUB PUSH0 DUP4 ADD MSTORE PUSH2 0x1C3F DUP2 PUSH2 0x1C06 JUMP JUMPDEST SWAP1 POP SWAP2 SWAP1 POP JUMP JUMPDEST PUSH32 0x4E487B7100000000000000000000000000000000000000000000000000000000 PUSH0 MSTORE PUSH1 0x32 PUSH1 0x4 MSTORE PUSH1 0x24 PUSH0 REVERT JUMPDEST PUSH0 PUSH1 0x60 DUP3 ADD SWAP1 POP PUSH2 0x1C86 PUSH0 DUP4 ADD DUP7 PUSH2 0x129C JUMP JUMPDEST PUSH2 0x1C93 PUSH1 0x20 DUP4 ADD DUP6 PUSH2 0x129C JUMP JUMPDEST PUSH2 0x1CA0 PUSH1 0x40 DUP4 ADD DUP5 PUSH2 0x11A7 JUMP JUMPDEST SWAP5 SWAP4 POP POP POP POP JUMP JUMPDEST PUSH0 DUP2 MLOAD SWAP1 POP PUSH2 0x1CB6 DUP2 PUSH2 0x11FF JUMP JUMPDEST SWAP3 SWAP2 POP POP JUMP JUMPDEST PUSH0 PUSH1 0x20 DUP3 DUP5 SUB SLT ISZERO PUSH2 0x1CD1 JUMPI PUSH2 0x1CD0 PUSH2 0x1133 JUMP JUMPDEST JUMPDEST PUSH0 PUSH2 0x1CDE DUP5 DUP3 DUP6 ADD PUSH2 0x1CA8 JUMP JUMPDEST SWAP2 POP POP SWAP3 SWAP2 POP POP JUMP JUMPDEST PUSH32 0x4E6F20706F6F6C20666F756E6400000000000000000000000000000000000000 PUSH0 DUP3 ADD MSTORE POP JUMP JUMPDEST PUSH0 PUSH2 0x1D1B PUSH1 0xD DUP4 PUSH2 0x15E5 JUMP JUMPDEST SWAP2 POP PUSH2 0x1D26 DUP3 PUSH2 0x1CE7 JUMP JUMPDEST PUSH1 0x20 DUP3 ADD SWAP1 POP SWAP2 SWAP1 POP JUMP JUMPDEST PUSH0 PUSH1 0x20 DUP3 ADD SWAP1 POP DUP2 DUP2 SUB PUSH0 DUP4 ADD MSTORE PUSH2 0x1D48 DUP2 PUSH2 0x1D0F JUMP JUMPDEST SWAP1 POP SWAP2 SWAP1 POP JUMP INVALID LOG2 PUSH5 0x6970667358 0x22 SLT KECCAK256 PC BLOBHASH PUSH22 0xE17CF2AEE258BB11668342DBB6E9CD25088C55A0D56E BALANCE 0x23 0xB7 0xBD SWAP5 0xD6 0xAA PUSH5 0x736F6C6343 STOP ADDMOD BYTE STOP CALLER "
				},
				"gasEstimates": {
					"creation": {
						"codeDepositCost": "1511400",
						"executionCost": "infinite",
						"totalCost": "infinite"
					},
					"external": {
						"DEADLINE_EXTENSION()": "413",
						"MAX_SLIPPAGE()": "391",
						"MIN_TRADE_AMOUNT()": "348",
						"SUPPORTED_FEES(uint256)": "6563",
						"aiOracle()": "2576",
						"executeManualTrade(address,address,uint256,address)": "infinite",
						"executeTrade(address,address,uint256,address,bytes)": "infinite",
						"factory()": "infinite",
						"findBestPool(address,address)": "infinite",
						"owner()": "2572",
						"quoter()": "infinite",
						"swapRouter()": "infinite",
						"whitelistToken(address,bool)": "27192",
						"whitelistedTokens(address)": "2877"
					}
				},
				"methodIdentifiers": {
					"DEADLINE_EXTENSION()": "ffe6f79a",
					"MAX_SLIPPAGE()": "f9759518",
					"MIN_TRADE_AMOUNT()": "31b7d413",
					"SUPPORTED_FEES(uint256)": "0c65dafe",
					"aiOracle()": "31b221cd",
					"executeManualTrade(address,address,uint256,address)": "502364d8",
					"executeTrade(address,address,uint256,address,bytes)": "aad4466e",
					"factory()": "c45a0155",
					"findBestPool(address,address)": "c90148ec",
					"owner()": "8da5cb5b",
					"quoter()": "c6bbd5a7",
					"swapRouter()": "c31c9c07",
					"whitelistToken(address,bool)": "0ffb1d8b",
					"whitelistedTokens(address)": "daf9c210"
				}
			},
			"storageLayout": {
				"storage": [
					{
						"astId": 10,
						"contract": "contracts/GoDegen.sol:GoDegen",
						"label": "owner",
						"offset": 0,
						"slot": "0",
						"type": "t_address"
					},
					{
						"astId": 12,
						"contract": "contracts/GoDegen.sol:GoDegen",
						"label": "aiOracle",
						"offset": 0,
						"slot": "1",
						"type": "t_address"
					},
					{
						"astId": 29,
						"contract": "contracts/GoDegen.sol:GoDegen",
						"label": "SUPPORTED_FEES",
						"offset": 0,
						"slot": "2",
						"type": "t_array(t_uint24)dyn_storage"
					},
					{
						"astId": 42,
						"contract": "contracts/GoDegen.sol:GoDegen",
						"label": "whitelistedTokens",
						"offset": 0,
						"slot": "3",
						"type": "t_mapping(t_address,t_bool)"
					}
				],
				"types": {
					"t_address": {
						"encoding": "inplace",
						"label": "address",
						"numberOfBytes": "20"
					},
					"t_array(t_uint24)dyn_storage": {
						"base": "t_uint24",
						"encoding": "dynamic_array",
						"label": "uint24[]",
						"numberOfBytes": "32"
					},
					"t_bool": {
						"encoding": "inplace",
						"label": "bool",
						"numberOfBytes": "1"
					},
					"t_mapping(t_address,t_bool)": {
						"encoding": "mapping",
						"key": "t_address",
						"label": "mapping(address => bool)",
						"numberOfBytes": "32",
						"value": "t_bool"
					},
					"t_uint24": {
						"encoding": "inplace",
						"label": "uint24",
						"numberOfBytes": "3"
					}
				}
			},
			"userdoc": {
				"kind": "user",
				"methods": {},
				"version": 1
			}
		}
	}
}