{
	"data": {
		"bytecode": {
			"linkReferences": {},
			"object": "6080604052348015600e575f80fd5b50600280546001600160a01b031916339081179091555f908152600160208190526040909120805460ff191690911790556105268061004c5f395ff3fe608060405234801561000f575f80fd5b506004361061007a575f3560e01c806343d24a5e1161005857806343d24a5e146101145780638da5cb5b146101275780638ff29cfe14610152578063eacaced714610184575f80fd5b806304b07a5e1461007e5780632daa1bdf146100935780632f6cacf514610101575b5f80fd5b61009161008c366004610480565b6101f2565b005b6100d26100a1366004610480565b5f602081905290815260409020805460018201546002830154600384015460049094015492939192909160ff169085565b6040805195865260208601949094529284019190915215156060830152608082015260a0015b60405180910390f35b61009161010f3660046104a0565b61025d565b610091610122366004610480565b6103f9565b60025461013a906001600160a01b031681565b6040516001600160a01b0390911681526020016100f8565b610174610160366004610480565b60016020525f908152604090205460ff1681565b60405190151581526020016100f8565b6100d2610192366004610480565b6001600160a01b03165f9081526020818152604091829020825160a081018452815480825260018301549382018490526002830154948201859052600383015460ff16151560608301819052600490930154608090920182905294929392565b6002546001600160a01b0316331461023d5760405162461bcd60e51b81526020600482015260096024820152682737ba1037bbb732b960b91b60448201526064015b60405180910390fd5b6001600160a01b03165f908152600160205260409020805460ff19169055565b335f9081526001602052604090205460ff166102ac5760405162461bcd60e51b815260206004820152600e60248201526d139bdd08185d5d1a1bdc9a5e995960921b6044820152606401610234565b60648411156102f25760405162461bcd60e51b8152602060048201526012602482015271496e76616c696420636f6e666964656e636560701b6044820152606401610234565b60648111156103385760405162461bcd60e51b8152602060048201526012602482015271496e76616c6964207269736b2073636f726560701b6044820152606401610234565b6040805160a081018252858152602080820186815242838501908152861515606080860182815260808088018a81526001600160a01b038f165f818152808a528b902099518a55965160018a015594516002890155905160038801805460ff1916911515919091179055925160049096019590955585518a81529384018990529483019490945291810184905290917ff299f72b44aa6a6589bb03305d192b00977863348e19e01f283b483180048e2f910160405180910390a25050505050565b6002546001600160a01b0316331461043f5760405162461bcd60e51b81526020600482015260096024820152682737ba1037bbb732b960b91b6044820152606401610234565b6001600160a01b03165f908152600160208190526040909120805460ff19169091179055565b80356001600160a01b038116811461047b575f80fd5b919050565b5f60208284031215610490575f80fd5b61049982610465565b9392505050565b5f805f805f60a086880312156104b4575f80fd5b6104bd86610465565b94506020860135935060408601359250606086013580151581146104df575f80fd5b94979396509194608001359291505056fea2646970667358221220c72cdda18c23f946d0a0b42e19355062de4d0e3415f4539c35feb03b3e5d8b6f64736f6c634300081a0033",
			"opcodes": "PUSH1 0x80 PUSH1 0x40 MSTORE CALLVALUE DUP1 ISZERO PUSH1 0xE JUMPI PUSH0 DUP1 REVERT JUMPDEST POP PUSH1 0x2 DUP1 SLOAD PUSH1 0x1 PUSH1 0x1 PUSH1 0xA0 SHL SUB NOT AND CALLER SWAP1 DUP2 OR SWAP1 SWAP2 SSTORE PUSH0 SWAP1 DUP2 MSTORE PUSH1 0x1 PUSH1 0x20 DUP2 SWAP1 MSTORE PUSH1 0x40 SWAP1 SWAP2 KECCAK256 DUP1 SLOAD PUSH1 0xFF NOT AND SWAP1 SWAP2 OR SWAP1 SSTORE PUSH2 0x526 DUP1 PUSH2 0x4C PUSH0 CODECOPY PUSH0 RETURN INVALID PUSH1 0x80 PUSH1 0x40 MSTORE CALLVALUE DUP1 ISZERO PUSH2 0xF JUMPI PUSH0 DUP1 REVERT JUMPDEST POP PUSH1 0x4 CALLDATASIZE LT PUSH2 0x7A JUMPI PUSH0 CALLDATALOAD PUSH1 0xE0 SHR DUP1 PUSH4 0x43D24A5E GT PUSH2 0x58 JUMPI DUP1 PUSH4 0x43D24A5E EQ PUSH2 0x114 JUMPI DUP1 PUSH4 0x8DA5CB5B EQ PUSH2 0x127 JUMPI DUP1 PUSH4 0x8FF29CFE EQ PUSH2 0x152 JUMPI DUP1 PUSH4 0xEACACED7 EQ PUSH2 0x184 JUMPI PUSH0 DUP1 REVERT JUMPDEST DUP1 PUSH4 0x4B07A5E EQ PUSH2 0x7E JUMPI DUP1 PUSH4 0x2DAA1BDF EQ PUSH2 0x93 JUMPI DUP1 PUSH4 0x2F6CACF5 EQ PUSH2 0x101 JUMPI JUMPDEST PUSH0 DUP1 REVERT JUMPDEST PUSH2 0x91 PUSH2 0x8C CALLDATASIZE PUSH1 0x4 PUSH2 0x480 JUMP JUMPDEST PUSH2 0x1F2 JUMP JUMPDEST STOP JUMPDEST PUSH2 0xD2 PUSH2 0xA1 CALLDATASIZE PUSH1 0x4 PUSH2 0x480 JUMP JUMPDEST PUSH0 PUSH1 0x20 DUP2 SWAP1 MSTORE SWAP1 DUP2 MSTORE PUSH1 0x40 SWAP1 KECCAK256 DUP1 SLOAD PUSH1 0x1 DUP3 ADD SLOAD PUSH1 0x2 DUP4 ADD SLOAD PUSH1 0x3 DUP5 ADD SLOAD PUSH1 0x4 SWAP1 SWAP5 ADD SLOAD SWAP3 SWAP4 SWAP2 SWAP3 SWAP1 SWAP2 PUSH1 0xFF AND SWAP1 DUP6 JUMP JUMPDEST PUSH1 0x40 DUP1 MLOAD SWAP6 DUP7 MSTORE PUSH1 0x20 DUP7 ADD SWAP5 SWAP1 SWAP5 MSTORE SWAP3 DUP5 ADD SWAP2 SWAP1 SWAP2 MSTORE ISZERO ISZERO PUSH1 0x60 DUP4 ADD MSTORE PUSH1 0x80 DUP3 ADD MSTORE PUSH1 0xA0 ADD JUMPDEST PUSH1 0x40 MLOAD DUP1 SWAP2 SUB SWAP1 RETURN JUMPDEST PUSH2 0x91 PUSH2 0x10F CALLDATASIZE PUSH1 0x4 PUSH2 0x4A0 JUMP JUMPDEST PUSH2 0x25D JUMP JUMPDEST PUSH2 0x91 PUSH2 0x122 CALLDATASIZE PUSH1 0x4 PUSH2 0x480 JUMP JUMPDEST PUSH2 0x3F9 JUMP JUMPDEST PUSH1 0x2 SLOAD PUSH2 0x13A SWAP1 PUSH1 0x1 PUSH1 0x1 PUSH1 0xA0 SHL SUB AND DUP2 JUMP JUMPDEST PUSH1 0x40 MLOAD PUSH1 0x1 PUSH1 0x1 PUSH1 0xA0 SHL SUB SWAP1 SWAP2 AND DUP2 MSTORE PUSH1 0x20 ADD PUSH2 0xF8 JUMP JUMPDEST PUSH2 0x174 PUSH2 0x160 CALLDATASIZE PUSH1 0x4 PUSH2 0x480 JUMP JUMPDEST PUSH1 0x1 PUSH1 0x20 MSTORE PUSH0 SWAP1 DUP2 MSTORE PUSH1 0x40 SWAP1 KECCAK256 SLOAD PUSH1 0xFF AND DUP2 JUMP JUMPDEST PUSH1 0x40 MLOAD SWAP1 ISZERO ISZERO DUP2 MSTORE PUSH1 0x20 ADD PUSH2 0xF8 JUMP JUMPDEST PUSH2 0xD2 PUSH2 0x192 CALLDATASIZE PUSH1 0x4 PUSH2 0x480 JUMP JUMPDEST PUSH1 0x1 PUSH1 0x1 PUSH1 0xA0 SHL SUB AND PUSH0 SWAP1 DUP2 MSTORE PUSH1 0x20 DUP2 DUP2 MSTORE PUSH1 0x40 SWAP2 DUP3 SWAP1 KECCAK256 DUP3 MLOAD PUSH1 0xA0 DUP2 ADD DUP5 MSTORE DUP2 SLOAD DUP1 DUP3 MSTORE PUSH1 0x1 DUP4 ADD SLOAD SWAP4 DUP3 ADD DUP5 SWAP1 MSTORE PUSH1 0x2 DUP4 ADD SLOAD SWAP5 DUP3 ADD DUP6 SWAP1 MSTORE PUSH1 0x3 DUP4 ADD SLOAD PUSH1 0xFF AND ISZERO ISZERO PUSH1 0x60 DUP4 ADD DUP2 SWAP1 MSTORE PUSH1 0x4 SWAP1 SWAP4 ADD SLOAD PUSH1 0x80 SWAP1 SWAP3 ADD DUP3 SWAP1 MSTORE SWAP5 SWAP3 SWAP4 SWAP3 JUMP JUMPDEST PUSH1 0x2 SLOAD PUSH1 0x1 PUSH1 0x1 PUSH1 0xA0 SHL SUB AND CALLER EQ PUSH2 0x23D JUMPI PUSH1 0x40 MLOAD PUSH3 0x461BCD PUSH1 0xE5 SHL DUP2 MSTORE PUSH1 0x20 PUSH1 0x4 DUP3 ADD MSTORE PUSH1 0x9 PUSH1 0x24 DUP3 ADD MSTORE PUSH9 0x2737BA1037BBB732B9 PUSH1 0xB9 SHL PUSH1 0x44 DUP3 ADD MSTORE PUSH1 0x64 ADD JUMPDEST PUSH1 0x40 MLOAD DUP1 SWAP2 SUB SWAP1 REVERT JUMPDEST PUSH1 0x1 PUSH1 0x1 PUSH1 0xA0 SHL SUB AND PUSH0 SWAP1 DUP2 MSTORE PUSH1 0x1 PUSH1 0x20 MSTORE PUSH1 0x40 SWAP1 KECCAK256 DUP1 SLOAD PUSH1 0xFF NOT AND SWAP1 SSTORE JUMP JUMPDEST CALLER PUSH0 SWAP1 DUP2 MSTORE PUSH1 0x1 PUSH1 0x20 MSTORE PUSH1 0x40 SWAP1 KECCAK256 SLOAD PUSH1 0xFF AND PUSH2 0x2AC JUMPI PUSH1 0x40 MLOAD PUSH3 0x461BCD PUSH1 0xE5 SHL DUP2 MSTORE PUSH1 0x20 PUSH1 0x4 DUP3 ADD MSTORE PUSH1 0xE PUSH1 0x24 DUP3 ADD MSTORE PUSH14 0x139BDD08185D5D1A1BDC9A5E9959 PUSH1 0x92 SHL PUSH1 0x44 DUP3 ADD MSTORE PUSH1 0x64 ADD PUSH2 0x234 JUMP JUMPDEST PUSH1 0x64 DUP5 GT ISZERO PUSH2 0x2F2 JUMPI PUSH1 0x40 MLOAD PUSH3 0x461BCD PUSH1 0xE5 SHL DUP2 MSTORE PUSH1 0x20 PUSH1 0x4 DUP3 ADD MSTORE PUSH1 0x12 PUSH1 0x24 DUP3 ADD MSTORE PUSH18 0x496E76616C696420636F6E666964656E6365 PUSH1 0x70 SHL PUSH1 0x44 DUP3 ADD MSTORE PUSH1 0x64 ADD PUSH2 0x234 JUMP JUMPDEST PUSH1 0x64 DUP2 GT ISZERO PUSH2 0x338 JUMPI PUSH1 0x40 MLOAD PUSH3 0x461BCD PUSH1 0xE5 SHL DUP2 MSTORE PUSH1 0x20 PUSH1 0x4 DUP3 ADD MSTORE PUSH1 0x12 PUSH1 0x24 DUP3 ADD MSTORE PUSH18 0x496E76616C6964207269736B2073636F7265 PUSH1 0x70 SHL PUSH1 0x44 DUP3 ADD MSTORE PUSH1 0x64 ADD PUSH2 0x234 JUMP JUMPDEST PUSH1 0x40 DUP1 MLOAD PUSH1 0xA0 DUP2 ADD DUP3 MSTORE DUP6 DUP2 MSTORE PUSH1 0x20 DUP1 DUP3 ADD DUP7 DUP2 MSTORE TIMESTAMP DUP4 DUP6 ADD SWAP1 DUP2 MSTORE DUP7 ISZERO ISZERO PUSH1 0x60 DUP1 DUP7 ADD DUP3 DUP2 MSTORE PUSH1 0x80 DUP1 DUP9 ADD DUP11 DUP2 MSTORE PUSH1 0x1 PUSH1 0x1 PUSH1 0xA0 SHL SUB DUP16 AND PUSH0 DUP2 DUP2 MSTORE DUP1 DUP11 MSTORE DUP12 SWAP1 KECCAK256 SWAP10 MLOAD DUP11 SSTORE SWAP7 MLOAD PUSH1 0x1 DUP11 ADD SSTORE SWAP5 MLOAD PUSH1 0x2 DUP10 ADD SSTORE SWAP1 MLOAD PUSH1 0x3 DUP9 ADD DUP1 SLOAD PUSH1 0xFF NOT AND SWAP2 ISZERO ISZERO SWAP2 SWAP1 SWAP2 OR SWAP1 SSTORE SWAP3 MLOAD PUSH1 0x4 SWAP1 SWAP7 ADD SWAP6 SWAP1 SWAP6 SSTORE DUP6 MLOAD DUP11 DUP2 MSTORE SWAP4 DUP5 ADD DUP10 SWAP1 MSTORE SWAP5 DUP4 ADD SWAP5 SWAP1 SWAP5 MSTORE SWAP2 DUP2 ADD DUP5 SWAP1 MSTORE SWAP1 SWAP2 PUSH32 0xF299F72B44AA6A6589BB03305D192B00977863348E19E01F283B483180048E2F SWAP2 ADD PUSH1 0x40 MLOAD DUP1 SWAP2 SUB SWAP1 LOG2 POP POP POP POP POP JUMP JUMPDEST PUSH1 0x2 SLOAD PUSH1 0x1 PUSH1 0x1 PUSH1 0xA0 SHL SUB AND CALLER EQ PUSH2 0x43F JUMPI PUSH1 0x40 MLOAD PUSH3 0x461BCD PUSH1 0xE5 SHL DUP2 MSTORE PUSH1 0x20 PUSH1 0x4 DUP3 ADD MSTORE PUSH1 0x9 PUSH1 0x24 DUP3 ADD MSTORE PUSH9 0x2737BA1037BBB732B9 PUSH1 0xB9 SHL PUSH1 0x44 DUP3 ADD MSTORE PUSH1 0x64 ADD PUSH2 0x234 JUMP JUMPDEST PUSH1 0x1 PUSH1 0x1 PUSH1 0xA0 SHL SUB AND PUSH0 SWAP1 DUP2 MSTORE PUSH1 0x1 PUSH1 0x20 DUP2 SWAP1 MSTORE PUSH1 0x40 SWAP1 SWAP2 KECCAK256 DUP1 SLOAD PUSH1 0xFF NOT AND SWAP1 SWAP2 OR SWAP1 SSTORE JUMP JUMPDEST DUP1 CALLDATALOAD PUSH1 0x1 PUSH1 0x1 PUSH1 0xA0 SHL SUB DUP2 AND DUP2 EQ PUSH2 0x47B JUMPI PUSH0 DUP1 REVERT JUMPDEST SWAP2 SWAP1 POP JUMP JUMPDEST PUSH0 PUSH1 0x20 DUP3 DUP5 SUB SLT ISZERO PUSH2 0x490 JUMPI PUSH0 DUP1 REVERT JUMPDEST PUSH2 0x499 DUP3 PUSH2 0x465 JUMP JUMPDEST SWAP4 SWAP3 POP POP POP JUMP JUMPDEST PUSH0 DUP1 PUSH0 DUP1 PUSH0 PUSH1 0xA0 DUP7 DUP9 SUB SLT ISZERO PUSH2 0x4B4 JUMPI PUSH0 DUP1 REVERT JUMPDEST PUSH2 0x4BD DUP7 PUSH2 0x465 JUMP JUMPDEST SWAP5 POP PUSH1 0x20 DUP7 ADD CALLDATALOAD SWAP4 POP PUSH1 0x40 DUP7 ADD CALLDATALOAD SWAP3 POP PUSH1 0x60 DUP7 ADD CALLDATALOAD DUP1 ISZERO ISZERO DUP2 EQ PUSH2 0x4DF JUMPI PUSH0 DUP1 REVERT JUMPDEST SWAP5 SWAP8 SWAP4 SWAP7 POP SWAP2 SWAP5 PUSH1 0x80 ADD CALLDATALOAD SWAP3 SWAP2 POP POP JUMP INVALID LOG2 PUSH5 0x6970667358 0x22 SLT KECCAK256 0xC7 0x2C 0xDD LOG1 DUP13 0x23 0xF9 CHAINID 0xD0 LOG0 0xB4 0x2E NOT CALLDATALOAD POP PUSH3 0xDE4D0E CALLVALUE ISZERO DELEGATECALL MSTORE8 SWAP13 CALLDATALOAD INVALID 0xB0 EXTCODESIZE RETURNDATACOPY TSTORE DUP12 PUSH16 0x64736F6C634300081A00330000000000 "
		},
		"gasEstimates": {
			"creation": {
				"codeDepositCost": "263600",
				"executionCost": "48849",
				"totalCost": "312449"
			},
			"external": {
				"addUpdater(address)": "26759",
				"authorizedUpdaters(address)": "2572",
				"getPrediction(address)": "11268",
				"owner()": "2358",
				"removeUpdater(address)": "26742",
				"tokenPredictions(address)": "11087",
				"updatePrediction(address,uint256,int256,bool,uint256)": "117929"
			}
		},
		"methodIdentifiers": {
			"addUpdater(address)": "43d24a5e",
			"authorizedUpdaters(address)": "8ff29cfe",
			"getPrediction(address)": "eacaced7",
			"owner()": "8da5cb5b",
			"removeUpdater(address)": "04b07a5e",
			"tokenPredictions(address)": "2daa1bdf",
			"updatePrediction(address,uint256,int256,bool,uint256)": "2f6cacf5"
		}
	},
	"abi": [
		{
			"inputs": [],
			"stateMutability": "nonpayable",
			"type": "constructor"
		},
		{
			"anonymous": false,
			"inputs": [
				{
					"indexed": true,
					"internalType": "address",
					"name": "token",
					"type": "address"
				},
				{
					"indexed": false,
					"internalType": "uint256",
					"name": "confidence",
					"type": "uint256"
				},
				{
					"indexed": false,
					"internalType": "int256",
					"name": "priceDirection",
					"type": "int256"
				},
				{
					"indexed": false,
					"internalType": "bool",
					"name": "isHoneypot",
					"type": "bool"
				},
				{
					"indexed": false,
					"internalType": "uint256",
					"name": "riskScore",
					"type": "uint256"
				}
			],
			"name": "PredictionUpdated",
			"type": "event"
		},
		{
			"inputs": [
				{
					"internalType": "address",
					"name": "_updater",
					"type": "address"
				}
			],
			"name": "addUpdater",
			"outputs": [],
			"stateMutability": "nonpayable",
			"type": "function"
		},
		{
			"inputs": [
				{
					"internalType": "address",
					"name": "",
					"type": "address"
				}
			],
			"name": "authorizedUpdaters",
			"outputs": [
				{
					"internalType": "bool",
					"name": "",
					"type": "bool"
				}
			],
			"stateMutability": "view",
			"type": "function"
		},
		{
			"inputs": [
				{
					"internalType": "address",
					"name": "_token",
					"type": "address"
				}
			],
			"name": "getPrediction",
			"outputs": [
				{
					"internalType": "uint256",
					"name": "confidence",
					"type": "uint256"
				},
				{
					"internalType": "int256",
					"name": "priceDirection",
					"type": "int256"
				},
				{
					"internalType": "uint256",
					"name": "timestamp",
					"type": "uint256"
				},
				{
					"internalType": "bool",
					"name": "isHoneypot",
					"type": "bool"
				},
				{
					"internalType": "uint256",
					"name": "riskScore",
					"type": "uint256"
				}
			],
			"stateMutability": "view",
			"type": "function"
		},
		{
			"inputs": [],
			"name": "owner",
			"outputs": [
				{
					"internalType": "address",
					"name": "",
					"type": "address"
				}
			],
			"stateMutability": "view",
			"type": "function"
		},
		{
			"inputs": [
				{
					"internalType": "address",
					"name": "_updater",
					"type": "address"
				}
			],
			"name": "removeUpdater",
			"outputs": [],
			"stateMutability": "nonpayable",
			"type": "function"
		},
		{
			"inputs": [
				{
					"internalType": "address",
					"name": "",
					"type": "address"
				}
			],
			"name": "tokenPredictions",
			"outputs": [
				{
					"internalType": "uint256",
					"name": "confidence",
					"type": "uint256"
				},
				{
					"internalType": "int256",
					"name": "priceDirection",
					"type": "int256"
				},
				{
					"internalType": "uint256",
					"name": "timestamp",
					"type": "uint256"
				},
				{
					"internalType": "bool",
					"name": "isHoneypot",
					"type": "bool"
				},
				{
					"internalType": "uint256",
					"name": "riskScore",
					"type": "uint256"
				}
			],
			"stateMutability": "view",
			"type": "function"
		},
		{
			"inputs": [
				{
					"internalType": "address",
					"name": "_token",
					"type": "address"
				},
				{
					"internalType": "uint256",
					"name": "_confidence",
					"type": "uint256"
				},
				{
					"internalType": "int256",
					"name": "_priceDirection",
					"type": "int256"
				},
				{
					"internalType": "bool",
					"name": "_isHoneypot",
					"type": "bool"
				},
				{
					"internalType": "uint256",
					"name": "_riskScore",
					"type": "uint256"
				}
			],
			"name": "updatePrediction",
			"outputs": [],
			"stateMutability": "nonpayable",
			"type": "function"
		}
	]
}