{
	"data": {
		"bytecode": {
			"linkReferences": {},
			"object": "60e06040526040518060800160405280606461ffff1681526020016101f461ffff168152602001610bb861ffff16815260200161271061ffff16815250600290600461004c92919061019e565b50348015610058575f80fd5b50604051611b96380380611b96833981810160405281019061007a91906102c0565b335f806101000a81548173ffffffffffffffffffffffffffffffffffffffff021916908373ffffffffffffffffffffffffffffffffffffffff1602179055508360015f6101000a81548173ffffffffffffffffffffffffffffffffffffffff021916908373ffffffffffffffffffffffffffffffffffffffff1602179055508273ffffffffffffffffffffffffffffffffffffffff1660808173ffffffffffffffffffffffffffffffffffffffff16815250508173ffffffffffffffffffffffffffffffffffffffff1660a08173ffffffffffffffffffffffffffffffffffffffff16815250508073ffffffffffffffffffffffffffffffffffffffff1660c08173ffffffffffffffffffffffffffffffffffffffff168152505050505050610324565b828054828255905f5260205f2090600901600a90048101928215610236579160200282015f5b8382111561020557835183826101000a81548162ffffff021916908361ffff16021790555092602001926003016020816002010492830192600103026101c4565b80156102345782816101000a81549062ffffff0219169055600301602081600201049283019260010302610205565b505b5090506102439190610247565b5090565b5b8082111561025e575f815f905550600101610248565b5090565b5f80fd5b5f73ffffffffffffffffffffffffffffffffffffffff82169050919050565b5f61028f82610266565b9050919050565b61029f81610285565b81146102a9575f80fd5b50565b5f815190506102ba81610296565b92915050565b5f805f80608085870312156102d8576102d7610262565b5b5f6102e5878288016102ac565b94505060206102f6878288016102ac565b9350506040610307878288016102ac565b9250506060610318878288016102ac565b91505092959194509250565b60805160a05160c05161182c61036a5f395f81816105cc015261099001525f818161096c01526109c701525f81816107360152818161085d0152610948015261182c5ff3fe608060405234801561000f575f80fd5b50600436106100cd575f3560e01c8063c31c9c071161008a578063c90148ec11610064578063c90148ec14610201578063daf9c21014610232578063f975951814610262578063ffe6f79a14610280576100cd565b8063c31c9c07146101a7578063c45a0155146101c5578063c6bbd5a7146101e3576100cd565b80630c65dafe146100d15780630ffb1d8b1461010157806331b221cd1461011d57806331b7d4131461013b5780638da5cb5b14610159578063aad4466e14610177575b5f80fd5b6100eb60048036038101906100e69190610c79565b61029e565b6040516100f89190610cc1565b60405180910390f35b61011b60048036038101906101169190610d69565b6102d4565b005b6101256103b9565b6040516101329190610db6565b60405180910390f35b6101436103de565b6040516101509190610dde565b60405180910390f35b6101616103e5565b60405161016e9190610db6565b60405180910390f35b610191600480360381019061018c9190610e58565b610408565b60405161019e9190610dde565b60405180910390f35b6101af610946565b6040516101bc9190610f49565b60405180910390f35b6101cd61096a565b6040516101da9190610f82565b60405180910390f35b6101eb61098e565b6040516101f89190610fbb565b60405180910390f35b61021b60048036038101906102169190610fd4565b6109b2565b604051610229929190611012565b60405180910390f35b61024c60048036038101906102479190611039565b610c16565b6040516102599190611073565b60405180910390f35b61026a610c33565b6040516102779190610dde565b60405180910390f35b610288610c38565b6040516102959190610dde565b60405180910390f35b600281815481106102ad575f80fd5b905f5260205f2090600a9182820401919006600302915054906101000a900462ffffff1681565b5f8054906101000a900473ffffffffffffffffffffffffffffffffffffffff1673ffffffffffffffffffffffffffffffffffffffff163373ffffffffffffffffffffffffffffffffffffffff1614610361576040517f08c379a0000000000000000000000000000000000000000000000000000000008152600401610358906110e6565b60405180910390fd5b8060035f8473ffffffffffffffffffffffffffffffffffffffff1673ffffffffffffffffffffffffffffffffffffffff1681526020019081526020015f205f6101000a81548160ff0219169083151502179055505050565b60015f9054906101000a900473ffffffffffffffffffffffffffffffffffffffff1681565b620f424081565b5f8054906101000a900473ffffffffffffffffffffffffffffffffffffffff1681565b5f60015f9054906101000a900473ffffffffffffffffffffffffffffffffffffffff1673ffffffffffffffffffffffffffffffffffffffff163373ffffffffffffffffffffffffffffffffffffffff1614610498576040517f08c379a000000000000000000000000000000000000000000000000000000000815260040161048f9061114e565b60405180910390fd5b60035f8873ffffffffffffffffffffffffffffffffffffffff1673ffffffffffffffffffffffffffffffffffffffff1681526020019081526020015f205f9054906101000a900460ff168015610534575060035f8773ffffffffffffffffffffffffffffffffffffffff1673ffffffffffffffffffffffffffffffffffffffff1681526020019081526020015f205f9054906101000a900460ff165b610573576040517f08c379a000000000000000000000000000000000000000000000000000000000815260040161056a906111b6565b60405180910390fd5b620f42408510156105b9576040517f08c379a00000000000000000000000000000000000000000000000000000000081526004016105b09061121e565b60405180910390fd5b5f806105c589896109b2565b915091505f7f000000000000000000000000000000000000000000000000000000000000000073ffffffffffffffffffffffffffffffffffffffff1663f7729d438b8b858c5f6040518663ffffffff1660e01b815260040161062b959493929190611275565b6080604051808303815f875af1158015610647573d5f803e3d5ffd5b505050506040513d601f19601f8201168201806040525081019061066b919061133d565b50505090505f61271060c861271061068391906113ce565b8361068e9190611401565b610698919061146f565b90508a73ffffffffffffffffffffffffffffffffffffffff166323b872dd33308c6040518463ffffffff1660e01b81526004016106d79392919061149f565b6020604051808303815f875af11580156106f3573d5f803e3d5ffd5b505050506040513d601f19601f8201168201806040525081019061071791906114e8565b508a73ffffffffffffffffffffffffffffffffffffffff1663095ea7b37f00000000000000000000000000000000000000000000000000000000000000008b6040518363ffffffff1660e01b8152600401610773929190611513565b6020604051808303815f875af115801561078f573d5f803e3d5ffd5b505050506040513d601f19601f820116820180604052508101906107b391906114e8565b505f6040518061010001604052808d73ffffffffffffffffffffffffffffffffffffffff1681526020018c73ffffffffffffffffffffffffffffffffffffffff1681526020018562ffffff1681526020018a73ffffffffffffffffffffffffffffffffffffffff1681526020016104b04261082e919061153a565b81526020018b81526020018381526020015f73ffffffffffffffffffffffffffffffffffffffff1681525090507f000000000000000000000000000000000000000000000000000000000000000073ffffffffffffffffffffffffffffffffffffffff1663414bf389826040518263ffffffff1660e01b81526004016108b49190611649565b6020604051808303815f875af11580156108d0573d5f803e3d5ffd5b505050506040513d601f19601f820116820180604052508101906108f49190611663565b95507f4c0bb63f8d47428a342c2a12f0dfd2a4c6910d09d38d94ad5593619c892931b88c8c8c898d8960405161092f9695949392919061168e565b60405180910390a150505050509695505050505050565b7f000000000000000000000000000000000000000000000000000000000000000081565b7f000000000000000000000000000000000000000000000000000000000000000081565b7f000000000000000000000000000000000000000000000000000000000000000081565b5f805f805b600280549050811015610b9f575f7f000000000000000000000000000000000000000000000000000000000000000073ffffffffffffffffffffffffffffffffffffffff16631698ee82888860028681548110610a1757610a166116ed565b5b905f5260205f2090600a91828204019190066003029054906101000a900462ffffff166040518463ffffffff1660e01b8152600401610a589392919061171a565b602060405180830381865afa158015610a73573d5f803e3d5ffd5b505050506040513d601f19601f82011682018060405250810190610a979190611763565b90505f73ffffffffffffffffffffffffffffffffffffffff168173ffffffffffffffffffffffffffffffffffffffff1614610b91575f8773ffffffffffffffffffffffffffffffffffffffff166370a08231836040518263ffffffff1660e01b8152600401610b069190610db6565b602060405180830381865afa158015610b21573d5f803e3d5ffd5b505050506040513d601f19601f82011682018060405250810190610b459190611663565b905083811115610b8f5780935081955060028381548110610b6957610b686116ed565b5b905f5260205f2090600a91828204019190066003029054906101000a900462ffffff1694505b505b5080806001019150506109b7565b505f73ffffffffffffffffffffffffffffffffffffffff168373ffffffffffffffffffffffffffffffffffffffff1603610c0e576040517f08c379a0000000000000000000000000000000000000000000000000000000008152600401610c05906117d8565b60405180910390fd5b509250929050565b6003602052805f5260405f205f915054906101000a900460ff1681565b60c881565b6104b081565b5f80fd5b5f80fd5b5f819050919050565b610c5881610c46565b8114610c62575f80fd5b50565b5f81359050610c7381610c4f565b92915050565b5f60208284031215610c8e57610c8d610c3e565b5b5f610c9b84828501610c65565b91505092915050565b5f62ffffff82169050919050565b610cbb81610ca4565b82525050565b5f602082019050610cd45f830184610cb2565b92915050565b5f73ffffffffffffffffffffffffffffffffffffffff82169050919050565b5f610d0382610cda565b9050919050565b610d1381610cf9565b8114610d1d575f80fd5b50565b5f81359050610d2e81610d0a565b92915050565b5f8115159050919050565b610d4881610d34565b8114610d52575f80fd5b50565b5f81359050610d6381610d3f565b92915050565b5f8060408385031215610d7f57610d7e610c3e565b5b5f610d8c85828601610d20565b9250506020610d9d85828601610d55565b9150509250929050565b610db081610cf9565b82525050565b5f602082019050610dc95f830184610da7565b92915050565b610dd881610c46565b82525050565b5f602082019050610df15f830184610dcf565b92915050565b5f80fd5b5f80fd5b5f80fd5b5f8083601f840112610e1857610e17610df7565b5b8235905067ffffffffffffffff811115610e3557610e34610dfb565b5b602083019150836001820283011115610e5157610e50610dff565b5b9250929050565b5f805f805f8060a08789031215610e7257610e71610c3e565b5b5f610e7f89828a01610d20565b9650506020610e9089828a01610d20565b9550506040610ea189828a01610c65565b9450506060610eb289828a01610d20565b935050608087013567ffffffffffffffff811115610ed357610ed2610c42565b5b610edf89828a01610e03565b92509250509295509295509295565b5f819050919050565b5f610f11610f0c610f0784610cda565b610eee565b610cda565b9050919050565b5f610f2282610ef7565b9050919050565b5f610f3382610f18565b9050919050565b610f4381610f29565b82525050565b5f602082019050610f5c5f830184610f3a565b92915050565b5f610f6c82610f18565b9050919050565b610f7c81610f62565b82525050565b5f602082019050610f955f830184610f73565b92915050565b5f610fa582610f18565b9050919050565b610fb581610f9b565b82525050565b5f602082019050610fce5f830184610fac565b92915050565b5f8060408385031215610fea57610fe9610c3e565b5b5f610ff785828601610d20565b925050602061100885828601610d20565b9150509250929050565b5f6040820190506110255f830185610da7565b6110326020830184610cb2565b9392505050565b5f6020828403121561104e5761104d610c3e565b5b5f61105b84828501610d20565b91505092915050565b61106d81610d34565b82525050565b5f6020820190506110865f830184611064565b92915050565b5f82825260208201905092915050565b7f4e6f74206f776e657200000000000000000000000000000000000000000000005f82015250565b5f6110d060098361108c565b91506110db8261109c565b602082019050919050565b5f6020820190508181035f8301526110fd816110c4565b9050919050565b7f4e6f74204149204f7261636c65000000000000000000000000000000000000005f82015250565b5f611138600d8361108c565b915061114382611104565b602082019050919050565b5f6020820190508181035f8301526111658161112c565b9050919050565b7f546f6b656e73206e6f742077686974656c6973746564000000000000000000005f82015250565b5f6111a060168361108c565b91506111ab8261116c565b602082019050919050565b5f6020820190508181035f8301526111cd81611194565b9050919050565b7f416d6f756e7420746f6f206c6f770000000000000000000000000000000000005f82015250565b5f611208600e8361108c565b9150611213826111d4565b602082019050919050565b5f6020820190508181035f830152611235816111fc565b9050919050565b5f819050919050565b5f61125f61125a6112558461123c565b610eee565b610cda565b9050919050565b61126f81611245565b82525050565b5f60a0820190506112885f830188610da7565b6112956020830187610da7565b6112a26040830186610cb2565b6112af6060830185610dcf565b6112bc6080830184611266565b9695505050505050565b5f815190506112d481610c4f565b92915050565b6112e381610cda565b81146112ed575f80fd5b50565b5f815190506112fe816112da565b92915050565b5f63ffffffff82169050919050565b61131c81611304565b8114611326575f80fd5b50565b5f8151905061133781611313565b92915050565b5f805f806080858703121561135557611354610c3e565b5b5f611362878288016112c6565b9450506020611373878288016112f0565b935050604061138487828801611329565b9250506060611395878288016112c6565b91505092959194509250565b7f4e487b71000000000000000000000000000000000000000000000000000000005f52601160045260245ffd5b5f6113d882610c46565b91506113e383610c46565b92508282039050818111156113fb576113fa6113a1565b5b92915050565b5f61140b82610c46565b915061141683610c46565b925082820261142481610c46565b9150828204841483151761143b5761143a6113a1565b5b5092915050565b7f4e487b71000000000000000000000000000000000000000000000000000000005f52601260045260245ffd5b5f61147982610c46565b915061148483610c46565b92508261149457611493611442565b5b828204905092915050565b5f6060820190506114b25f830186610da7565b6114bf6020830185610da7565b6114cc6040830184610dcf565b949350505050565b5f815190506114e281610d3f565b92915050565b5f602082840312156114fd576114fc610c3e565b5b5f61150a848285016114d4565b91505092915050565b5f6040820190506115265f830185610da7565b6115336020830184610dcf565b9392505050565b5f61154482610c46565b915061154f83610c46565b9250828201905080821115611567576115666113a1565b5b92915050565b61157681610cf9565b82525050565b61158581610ca4565b82525050565b61159481610c46565b82525050565b6115a381610cda565b82525050565b61010082015f8201516115be5f85018261156d565b5060208201516115d1602085018261156d565b5060408201516115e4604085018261157c565b5060608201516115f7606085018261156d565b50608082015161160a608085018261158b565b5060a082015161161d60a085018261158b565b5060c082015161163060c085018261158b565b5060e082015161164360e085018261159a565b50505050565b5f6101008201905061165d5f8301846115a9565b92915050565b5f6020828403121561167857611677610c3e565b5b5f611685848285016112c6565b91505092915050565b5f60c0820190506116a15f830189610da7565b6116ae6020830188610da7565b6116bb6040830187610dcf565b6116c86060830186610dcf565b6116d56080830185610da7565b6116e260a0830184610cb2565b979650505050505050565b7f4e487b71000000000000000000000000000000000000000000000000000000005f52603260045260245ffd5b5f60608201905061172d5f830186610da7565b61173a6020830185610da7565b6117476040830184610cb2565b949350505050565b5f8151905061175d81610d0a565b92915050565b5f6020828403121561177857611777610c3e565b5b5f6117858482850161174f565b91505092915050565b7f4e6f20706f6f6c20666f756e64000000000000000000000000000000000000005f82015250565b5f6117c2600d8361108c565b91506117cd8261178e565b602082019050919050565b5f6020820190508181035f8301526117ef816117b6565b905091905056fea26469706673582212201dd8953d1d200b93a5a4eff27aff9ab35c2764617dbc48494f2032aadb0b0ea164736f6c634300081a0033",
			"opcodes": "PUSH1 0xE0 PUSH1 0x40 MSTORE PUSH1 0x40 MLOAD DUP1 PUSH1 0x80 ADD PUSH1 0x40 MSTORE DUP1 PUSH1 0x64 PUSH2 0xFFFF AND DUP2 MSTORE PUSH1 0x20 ADD PUSH2 0x1F4 PUSH2 0xFFFF AND DUP2 MSTORE PUSH1 0x20 ADD PUSH2 0xBB8 PUSH2 0xFFFF AND DUP2 MSTORE PUSH1 0x20 ADD PUSH2 0x2710 PUSH2 0xFFFF AND DUP2 MSTORE POP PUSH1 0x2 SWAP1 PUSH1 0x4 PUSH2 0x4C SWAP3 SWAP2 SWAP1 PUSH2 0x19E JUMP JUMPDEST POP CALLVALUE DUP1 ISZERO PUSH2 0x58 JUMPI PUSH0 DUP1 REVERT JUMPDEST POP PUSH1 0x40 MLOAD PUSH2 0x1B96 CODESIZE SUB DUP1 PUSH2 0x1B96 DUP4 CODECOPY DUP2 DUP2 ADD PUSH1 0x40 MSTORE DUP2 ADD SWAP1 PUSH2 0x7A SWAP2 SWAP1 PUSH2 0x2C0 JUMP JUMPDEST CALLER PUSH0 DUP1 PUSH2 0x100 EXP DUP2 SLOAD DUP2 PUSH20 0xFFFFFFFFFFFFFFFFFFFFFFFFFFFFFFFFFFFFFFFF MUL NOT AND SWAP1 DUP4 PUSH20 0xFFFFFFFFFFFFFFFFFFFFFFFFFFFFFFFFFFFFFFFF AND MUL OR SWAP1 SSTORE POP DUP4 PUSH1 0x1 PUSH0 PUSH2 0x100 EXP DUP2 SLOAD DUP2 PUSH20 0xFFFFFFFFFFFFFFFFFFFFFFFFFFFFFFFFFFFFFFFF MUL NOT AND SWAP1 DUP4 PUSH20 0xFFFFFFFFFFFFFFFFFFFFFFFFFFFFFFFFFFFFFFFF AND MUL OR SWAP1 SSTORE POP DUP3 PUSH20 0xFFFFFFFFFFFFFFFFFFFFFFFFFFFFFFFFFFFFFFFF AND PUSH1 0x80 DUP2 PUSH20 0xFFFFFFFFFFFFFFFFFFFFFFFFFFFFFFFFFFFFFFFF AND DUP2 MSTORE POP POP DUP2 PUSH20 0xFFFFFFFFFFFFFFFFFFFFFFFFFFFFFFFFFFFFFFFF AND PUSH1 0xA0 DUP2 PUSH20 0xFFFFFFFFFFFFFFFFFFFFFFFFFFFFFFFFFFFFFFFF AND DUP2 MSTORE POP POP DUP1 PUSH20 0xFFFFFFFFFFFFFFFFFFFFFFFFFFFFFFFFFFFFFFFF AND PUSH1 0xC0 DUP2 PUSH20 0xFFFFFFFFFFFFFFFFFFFFFFFFFFFFFFFFFFFFFFFF AND DUP2 MSTORE POP POP POP POP POP POP PUSH2 0x324 JUMP JUMPDEST DUP3 DUP1 SLOAD DUP3 DUP3 SSTORE SWAP1 PUSH0 MSTORE PUSH1 0x20 PUSH0 KECCAK256 SWAP1 PUSH1 0x9 ADD PUSH1 0xA SWAP1 DIV DUP2 ADD SWAP3 DUP3 ISZERO PUSH2 0x236 JUMPI SWAP2 PUSH1 0x20 MUL DUP3 ADD PUSH0 JUMPDEST DUP4 DUP3 GT ISZERO PUSH2 0x205 JUMPI DUP4 MLOAD DUP4 DUP3 PUSH2 0x100 EXP DUP2 SLOAD DUP2 PUSH3 0xFFFFFF MUL NOT AND SWAP1 DUP4 PUSH2 0xFFFF AND MUL OR SWAP1 SSTORE POP SWAP3 PUSH1 0x20 ADD SWAP3 PUSH1 0x3 ADD PUSH1 0x20 DUP2 PUSH1 0x2 ADD DIV SWAP3 DUP4 ADD SWAP3 PUSH1 0x1 SUB MUL PUSH2 0x1C4 JUMP JUMPDEST DUP1 ISZERO PUSH2 0x234 JUMPI DUP3 DUP2 PUSH2 0x100 EXP DUP2 SLOAD SWAP1 PUSH3 0xFFFFFF MUL NOT AND SWAP1 SSTORE PUSH1 0x3 ADD PUSH1 0x20 DUP2 PUSH1 0x2 ADD DIV SWAP3 DUP4 ADD SWAP3 PUSH1 0x1 SUB MUL PUSH2 0x205 JUMP JUMPDEST POP JUMPDEST POP SWAP1 POP PUSH2 0x243 SWAP2 SWAP1 PUSH2 0x247 JUMP JUMPDEST POP SWAP1 JUMP JUMPDEST JUMPDEST DUP1 DUP3 GT ISZERO PUSH2 0x25E JUMPI PUSH0 DUP2 PUSH0 SWAP1 SSTORE POP PUSH1 0x1 ADD PUSH2 0x248 JUMP JUMPDEST POP SWAP1 JUMP JUMPDEST PUSH0 DUP1 REVERT JUMPDEST PUSH0 PUSH20 0xFFFFFFFFFFFFFFFFFFFFFFFFFFFFFFFFFFFFFFFF DUP3 AND SWAP1 POP SWAP2 SWAP1 POP JUMP JUMPDEST PUSH0 PUSH2 0x28F DUP3 PUSH2 0x266 JUMP JUMPDEST SWAP1 POP SWAP2 SWAP1 POP JUMP JUMPDEST PUSH2 0x29F DUP2 PUSH2 0x285 JUMP JUMPDEST DUP2 EQ PUSH2 0x2A9 JUMPI PUSH0 DUP1 REVERT JUMPDEST POP JUMP JUMPDEST PUSH0 DUP2 MLOAD SWAP1 POP PUSH2 0x2BA DUP2 PUSH2 0x296 JUMP JUMPDEST SWAP3 SWAP2 POP POP JUMP JUMPDEST PUSH0 DUP1 PUSH0 DUP1 PUSH1 0x80 DUP6 DUP8 SUB SLT ISZERO PUSH2 0x2D8 JUMPI PUSH2 0x2D7 PUSH2 0x262 JUMP JUMPDEST JUMPDEST PUSH0 PUSH2 0x2E5 DUP8 DUP3 DUP9 ADD PUSH2 0x2AC JUMP JUMPDEST SWAP5 POP POP PUSH1 0x20 PUSH2 0x2F6 DUP8 DUP3 DUP9 ADD PUSH2 0x2AC JUMP JUMPDEST SWAP4 POP POP PUSH1 0x40 PUSH2 0x307 DUP8 DUP3 DUP9 ADD PUSH2 0x2AC JUMP JUMPDEST SWAP3 POP POP PUSH1 0x60 PUSH2 0x318 DUP8 DUP3 DUP9 ADD PUSH2 0x2AC JUMP JUMPDEST SWAP2 POP POP SWAP3 SWAP6 SWAP2 SWAP5 POP SWAP3 POP JUMP JUMPDEST PUSH1 0x80 MLOAD PUSH1 0xA0 MLOAD PUSH1 0xC0 MLOAD PUSH2 0x182C PUSH2 0x36A PUSH0 CODECOPY PUSH0 DUP2 DUP2 PUSH2 0x5CC ADD MSTORE PUSH2 0x990 ADD MSTORE PUSH0 DUP2 DUP2 PUSH2 0x96C ADD MSTORE PUSH2 0x9C7 ADD MSTORE PUSH0 DUP2 DUP2 PUSH2 0x736 ADD MSTORE DUP2 DUP2 PUSH2 0x85D ADD MSTORE PUSH2 0x948 ADD MSTORE PUSH2 0x182C PUSH0 RETURN INVALID PUSH1 0x80 PUSH1 0x40 MSTORE CALLVALUE DUP1 ISZERO PUSH2 0xF JUMPI PUSH0 DUP1 REVERT JUMPDEST POP PUSH1 0x4 CALLDATASIZE LT PUSH2 0xCD JUMPI PUSH0 CALLDATALOAD PUSH1 0xE0 SHR DUP1 PUSH4 0xC31C9C07 GT PUSH2 0x8A JUMPI DUP1 PUSH4 0xC90148EC GT PUSH2 0x64 JUMPI DUP1 PUSH4 0xC90148EC EQ PUSH2 0x201 JUMPI DUP1 PUSH4 0xDAF9C210 EQ PUSH2 0x232 JUMPI DUP1 PUSH4 0xF9759518 EQ PUSH2 0x262 JUMPI DUP1 PUSH4 0xFFE6F79A EQ PUSH2 0x280 JUMPI PUSH2 0xCD JUMP JUMPDEST DUP1 PUSH4 0xC31C9C07 EQ PUSH2 0x1A7 JUMPI DUP1 PUSH4 0xC45A0155 EQ PUSH2 0x1C5 JUMPI DUP1 PUSH4 0xC6BBD5A7 EQ PUSH2 0x1E3 JUMPI PUSH2 0xCD JUMP JUMPDEST DUP1 PUSH4 0xC65DAFE EQ PUSH2 0xD1 JUMPI DUP1 PUSH4 0xFFB1D8B EQ PUSH2 0x101 JUMPI DUP1 PUSH4 0x31B221CD EQ PUSH2 0x11D JUMPI DUP1 PUSH4 0x31B7D413 EQ PUSH2 0x13B JUMPI DUP1 PUSH4 0x8DA5CB5B EQ PUSH2 0x159 JUMPI DUP1 PUSH4 0xAAD4466E EQ PUSH2 0x177 JUMPI JUMPDEST PUSH0 DUP1 REVERT JUMPDEST PUSH2 0xEB PUSH1 0x4 DUP1 CALLDATASIZE SUB DUP2 ADD SWAP1 PUSH2 0xE6 SWAP2 SWAP1 PUSH2 0xC79 JUMP JUMPDEST PUSH2 0x29E JUMP JUMPDEST PUSH1 0x40 MLOAD PUSH2 0xF8 SWAP2 SWAP1 PUSH2 0xCC1 JUMP JUMPDEST PUSH1 0x40 MLOAD DUP1 SWAP2 SUB SWAP1 RETURN JUMPDEST PUSH2 0x11B PUSH1 0x4 DUP1 CALLDATASIZE SUB DUP2 ADD SWAP1 PUSH2 0x116 SWAP2 SWAP1 PUSH2 0xD69 JUMP JUMPDEST PUSH2 0x2D4 JUMP JUMPDEST STOP JUMPDEST PUSH2 0x125 PUSH2 0x3B9 JUMP JUMPDEST PUSH1 0x40 MLOAD PUSH2 0x132 SWAP2 SWAP1 PUSH2 0xDB6 JUMP JUMPDEST PUSH1 0x40 MLOAD DUP1 SWAP2 SUB SWAP1 RETURN JUMPDEST PUSH2 0x143 PUSH2 0x3DE JUMP JUMPDEST PUSH1 0x40 MLOAD PUSH2 0x150 SWAP2 SWAP1 PUSH2 0xDDE JUMP JUMPDEST PUSH1 0x40 MLOAD DUP1 SWAP2 SUB SWAP1 RETURN JUMPDEST PUSH2 0x161 PUSH2 0x3E5 JUMP JUMPDEST PUSH1 0x40 MLOAD PUSH2 0x16E SWAP2 SWAP1 PUSH2 0xDB6 JUMP JUMPDEST PUSH1 0x40 MLOAD DUP1 SWAP2 SUB SWAP1 RETURN JUMPDEST PUSH2 0x191 PUSH1 0x4 DUP1 CALLDATASIZE SUB DUP2 ADD SWAP1 PUSH2 0x18C SWAP2 SWAP1 PUSH2 0xE58 JUMP JUMPDEST PUSH2 0x408 JUMP JUMPDEST PUSH1 0x40 MLOAD PUSH2 0x19E SWAP2 SWAP1 PUSH2 0xDDE JUMP JUMPDEST PUSH1 0x40 MLOAD DUP1 SWAP2 SUB SWAP1 RETURN JUMPDEST PUSH2 0x1AF PUSH2 0x946 JUMP JUMPDEST PUSH1 0x40 MLOAD PUSH2 0x1BC SWAP2 SWAP1 PUSH2 0xF49 JUMP JUMPDEST PUSH1 0x40 MLOAD DUP1 SWAP2 SUB SWAP1 RETURN JUMPDEST PUSH2 0x1CD PUSH2 0x96A JUMP JUMPDEST PUSH1 0x40 MLOAD PUSH2 0x1DA SWAP2 SWAP1 PUSH2 0xF82 JUMP JUMPDEST PUSH1 0x40 MLOAD DUP1 SWAP2 SUB SWAP1 RETURN JUMPDEST PUSH2 0x1EB PUSH2 0x98E JUMP JUMPDEST PUSH1 0x40 MLOAD PUSH2 0x1F8 SWAP2 SWAP1 PUSH2 0xFBB JUMP JUMPDEST PUSH1 0x40 MLOAD DUP1 SWAP2 SUB SWAP1 RETURN JUMPDEST PUSH2 0x21B PUSH1 0x4 DUP1 CALLDATASIZE SUB DUP2 ADD SWAP1 PUSH2 0x216 SWAP2 SWAP1 PUSH2 0xFD4 JUMP JUMPDEST PUSH2 0x9B2 JUMP JUMPDEST PUSH1 0x40 MLOAD PUSH2 0x229 SWAP3 SWAP2 SWAP1 PUSH2 0x1012 JUMP JUMPDEST PUSH1 0x40 MLOAD DUP1 SWAP2 SUB SWAP1 RETURN JUMPDEST PUSH2 0x24C PUSH1 0x4 DUP1 CALLDATASIZE SUB DUP2 ADD SWAP1 PUSH2 0x247 SWAP2 SWAP1 PUSH2 0x1039 JUMP JUMPDEST PUSH2 0xC16 JUMP JUMPDEST PUSH1 0x40 MLOAD PUSH2 0x259 SWAP2 SWAP1 PUSH2 0x1073 JUMP JUMPDEST PUSH1 0x40 MLOAD DUP1 SWAP2 SUB SWAP1 RETURN JUMPDEST PUSH2 0x26A PUSH2 0xC33 JUMP JUMPDEST PUSH1 0x40 MLOAD PUSH2 0x277 SWAP2 SWAP1 PUSH2 0xDDE JUMP JUMPDEST PUSH1 0x40 MLOAD DUP1 SWAP2 SUB SWAP1 RETURN JUMPDEST PUSH2 0x288 PUSH2 0xC38 JUMP JUMPDEST PUSH1 0x40 MLOAD PUSH2 0x295 SWAP2 SWAP1 PUSH2 0xDDE JUMP JUMPDEST PUSH1 0x40 MLOAD DUP1 SWAP2 SUB SWAP1 RETURN JUMPDEST PUSH1 0x2 DUP2 DUP2 SLOAD DUP2 LT PUSH2 0x2AD JUMPI PUSH0 DUP1 REVERT JUMPDEST SWAP1 PUSH0 MSTORE PUSH1 0x20 PUSH0 KECCAK256 SWAP1 PUSH1 0xA SWAP2 DUP3 DUP3 DIV ADD SWAP2 SWAP1 MOD PUSH1 0x3 MUL SWAP2 POP SLOAD SWAP1 PUSH2 0x100 EXP SWAP1 DIV PUSH3 0xFFFFFF AND DUP2 JUMP JUMPDEST PUSH0 DUP1 SLOAD SWAP1 PUSH2 0x100 EXP SWAP1 DIV PUSH20 0xFFFFFFFFFFFFFFFFFFFFFFFFFFFFFFFFFFFFFFFF AND PUSH20 0xFFFFFFFFFFFFFFFFFFFFFFFFFFFFFFFFFFFFFFFF AND CALLER PUSH20 0xFFFFFFFFFFFFFFFFFFFFFFFFFFFFFFFFFFFFFFFF AND EQ PUSH2 0x361 JUMPI PUSH1 0x40 MLOAD PUSH32 0x8C379A000000000000000000000000000000000000000000000000000000000 DUP2 MSTORE PUSH1 0x4 ADD PUSH2 0x358 SWAP1 PUSH2 0x10E6 JUMP JUMPDEST PUSH1 0x40 MLOAD DUP1 SWAP2 SUB SWAP1 REVERT JUMPDEST DUP1 PUSH1 0x3 PUSH0 DUP5 PUSH20 0xFFFFFFFFFFFFFFFFFFFFFFFFFFFFFFFFFFFFFFFF AND PUSH20 0xFFFFFFFFFFFFFFFFFFFFFFFFFFFFFFFFFFFFFFFF AND DUP2 MSTORE PUSH1 0x20 ADD SWAP1 DUP2 MSTORE PUSH1 0x20 ADD PUSH0 KECCAK256 PUSH0 PUSH2 0x100 EXP DUP2 SLOAD DUP2 PUSH1 0xFF MUL NOT AND SWAP1 DUP4 ISZERO ISZERO MUL OR SWAP1 SSTORE POP POP POP JUMP JUMPDEST PUSH1 0x1 PUSH0 SWAP1 SLOAD SWAP1 PUSH2 0x100 EXP SWAP1 DIV PUSH20 0xFFFFFFFFFFFFFFFFFFFFFFFFFFFFFFFFFFFFFFFF AND DUP2 JUMP JUMPDEST PUSH3 0xF4240 DUP2 JUMP JUMPDEST PUSH0 DUP1 SLOAD SWAP1 PUSH2 0x100 EXP SWAP1 DIV PUSH20 0xFFFFFFFFFFFFFFFFFFFFFFFFFFFFFFFFFFFFFFFF AND DUP2 JUMP JUMPDEST PUSH0 PUSH1 0x1 PUSH0 SWAP1 SLOAD SWAP1 PUSH2 0x100 EXP SWAP1 DIV PUSH20 0xFFFFFFFFFFFFFFFFFFFFFFFFFFFFFFFFFFFFFFFF AND PUSH20 0xFFFFFFFFFFFFFFFFFFFFFFFFFFFFFFFFFFFFFFFF AND CALLER PUSH20 0xFFFFFFFFFFFFFFFFFFFFFFFFFFFFFFFFFFFFFFFF AND EQ PUSH2 0x498 JUMPI PUSH1 0x40 MLOAD PUSH32 0x8C379A000000000000000000000000000000000000000000000000000000000 DUP2 MSTORE PUSH1 0x4 ADD PUSH2 0x48F SWAP1 PUSH2 0x114E JUMP JUMPDEST PUSH1 0x40 MLOAD DUP1 SWAP2 SUB SWAP1 REVERT JUMPDEST PUSH1 0x3 PUSH0 DUP9 PUSH20 0xFFFFFFFFFFFFFFFFFFFFFFFFFFFFFFFFFFFFFFFF AND PUSH20 0xFFFFFFFFFFFFFFFFFFFFFFFFFFFFFFFFFFFFFFFF AND DUP2 MSTORE PUSH1 0x20 ADD SWAP1 DUP2 MSTORE PUSH1 0x20 ADD PUSH0 KECCAK256 PUSH0 SWAP1 SLOAD SWAP1 PUSH2 0x100 EXP SWAP1 DIV PUSH1 0xFF AND DUP1 ISZERO PUSH2 0x534 JUMPI POP PUSH1 0x3 PUSH0 DUP8 PUSH20 0xFFFFFFFFFFFFFFFFFFFFFFFFFFFFFFFFFFFFFFFF AND PUSH20 0xFFFFFFFFFFFFFFFFFFFFFFFFFFFFFFFFFFFFFFFF AND DUP2 MSTORE PUSH1 0x20 ADD SWAP1 DUP2 MSTORE PUSH1 0x20 ADD PUSH0 KECCAK256 PUSH0 SWAP1 SLOAD SWAP1 PUSH2 0x100 EXP SWAP1 DIV PUSH1 0xFF AND JUMPDEST PUSH2 0x573 JUMPI PUSH1 0x40 MLOAD PUSH32 0x8C379A000000000000000000000000000000000000000000000000000000000 DUP2 MSTORE PUSH1 0x4 ADD PUSH2 0x56A SWAP1 PUSH2 0x11B6 JUMP JUMPDEST PUSH1 0x40 MLOAD DUP1 SWAP2 SUB SWAP1 REVERT JUMPDEST PUSH3 0xF4240 DUP6 LT ISZERO PUSH2 0x5B9 JUMPI PUSH1 0x40 MLOAD PUSH32 0x8C379A000000000000000000000000000000000000000000000000000000000 DUP2 MSTORE PUSH1 0x4 ADD PUSH2 0x5B0 SWAP1 PUSH2 0x121E JUMP JUMPDEST PUSH1 0x40 MLOAD DUP1 SWAP2 SUB SWAP1 REVERT JUMPDEST PUSH0 DUP1 PUSH2 0x5C5 DUP10 DUP10 PUSH2 0x9B2 JUMP JUMPDEST SWAP2 POP SWAP2 POP PUSH0 PUSH32 0x0 PUSH20 0xFFFFFFFFFFFFFFFFFFFFFFFFFFFFFFFFFFFFFFFF AND PUSH4 0xF7729D43 DUP12 DUP12 DUP6 DUP13 PUSH0 PUSH1 0x40 MLOAD DUP7 PUSH4 0xFFFFFFFF AND PUSH1 0xE0 SHL DUP2 MSTORE PUSH1 0x4 ADD PUSH2 0x62B SWAP6 SWAP5 SWAP4 SWAP3 SWAP2 SWAP1 PUSH2 0x1275 JUMP JUMPDEST PUSH1 0x80 PUSH1 0x40 MLOAD DUP1 DUP4 SUB DUP2 PUSH0 DUP8 GAS CALL ISZERO DUP1 ISZERO PUSH2 0x647 JUMPI RETURNDATASIZE PUSH0 DUP1 RETURNDATACOPY RETURNDATASIZE PUSH0 REVERT JUMPDEST POP POP POP POP PUSH1 0x40 MLOAD RETURNDATASIZE PUSH1 0x1F NOT PUSH1 0x1F DUP3 ADD AND DUP3 ADD DUP1 PUSH1 0x40 MSTORE POP DUP2 ADD SWAP1 PUSH2 0x66B SWAP2 SWAP1 PUSH2 0x133D JUMP JUMPDEST POP POP POP SWAP1 POP PUSH0 PUSH2 0x2710 PUSH1 0xC8 PUSH2 0x2710 PUSH2 0x683 SWAP2 SWAP1 PUSH2 0x13CE JUMP JUMPDEST DUP4 PUSH2 0x68E SWAP2 SWAP1 PUSH2 0x1401 JUMP JUMPDEST PUSH2 0x698 SWAP2 SWAP1 PUSH2 0x146F JUMP JUMPDEST SWAP1 POP DUP11 PUSH20 0xFFFFFFFFFFFFFFFFFFFFFFFFFFFFFFFFFFFFFFFF AND PUSH4 0x23B872DD CALLER ADDRESS DUP13 PUSH1 0x40 MLOAD DUP5 PUSH4 0xFFFFFFFF AND PUSH1 0xE0 SHL DUP2 MSTORE PUSH1 0x4 ADD PUSH2 0x6D7 SWAP4 SWAP3 SWAP2 SWAP1 PUSH2 0x149F JUMP JUMPDEST PUSH1 0x20 PUSH1 0x40 MLOAD DUP1 DUP4 SUB DUP2 PUSH0 DUP8 GAS CALL ISZERO DUP1 ISZERO PUSH2 0x6F3 JUMPI RETURNDATASIZE PUSH0 DUP1 RETURNDATACOPY RETURNDATASIZE PUSH0 REVERT JUMPDEST POP POP POP POP PUSH1 0x40 MLOAD RETURNDATASIZE PUSH1 0x1F NOT PUSH1 0x1F DUP3 ADD AND DUP3 ADD DUP1 PUSH1 0x40 MSTORE POP DUP2 ADD SWAP1 PUSH2 0x717 SWAP2 SWAP1 PUSH2 0x14E8 JUMP JUMPDEST POP DUP11 PUSH20 0xFFFFFFFFFFFFFFFFFFFFFFFFFFFFFFFFFFFFFFFF AND PUSH4 0x95EA7B3 PUSH32 0x0 DUP12 PUSH1 0x40 MLOAD DUP4 PUSH4 0xFFFFFFFF AND PUSH1 0xE0 SHL DUP2 MSTORE PUSH1 0x4 ADD PUSH2 0x773 SWAP3 SWAP2 SWAP1 PUSH2 0x1513 JUMP JUMPDEST PUSH1 0x20 PUSH1 0x40 MLOAD DUP1 DUP4 SUB DUP2 PUSH0 DUP8 GAS CALL ISZERO DUP1 ISZERO PUSH2 0x78F JUMPI RETURNDATASIZE PUSH0 DUP1 RETURNDATACOPY RETURNDATASIZE PUSH0 REVERT JUMPDEST POP POP POP POP PUSH1 0x40 MLOAD RETURNDATASIZE PUSH1 0x1F NOT PUSH1 0x1F DUP3 ADD AND DUP3 ADD DUP1 PUSH1 0x40 MSTORE POP DUP2 ADD SWAP1 PUSH2 0x7B3 SWAP2 SWAP1 PUSH2 0x14E8 JUMP JUMPDEST POP PUSH0 PUSH1 0x40 MLOAD DUP1 PUSH2 0x100 ADD PUSH1 0x40 MSTORE DUP1 DUP14 PUSH20 0xFFFFFFFFFFFFFFFFFFFFFFFFFFFFFFFFFFFFFFFF AND DUP2 MSTORE PUSH1 0x20 ADD DUP13 PUSH20 0xFFFFFFFFFFFFFFFFFFFFFFFFFFFFFFFFFFFFFFFF AND DUP2 MSTORE PUSH1 0x20 ADD DUP6 PUSH3 0xFFFFFF AND DUP2 MSTORE PUSH1 0x20 ADD DUP11 PUSH20 0xFFFFFFFFFFFFFFFFFFFFFFFFFFFFFFFFFFFFFFFF AND DUP2 MSTORE PUSH1 0x20 ADD PUSH2 0x4B0 TIMESTAMP PUSH2 0x82E SWAP2 SWAP1 PUSH2 0x153A JUMP JUMPDEST DUP2 MSTORE PUSH1 0x20 ADD DUP12 DUP2 MSTORE PUSH1 0x20 ADD DUP4 DUP2 MSTORE PUSH1 0x20 ADD PUSH0 PUSH20 0xFFFFFFFFFFFFFFFFFFFFFFFFFFFFFFFFFFFFFFFF AND DUP2 MSTORE POP SWAP1 POP PUSH32 0x0 PUSH20 0xFFFFFFFFFFFFFFFFFFFFFFFFFFFFFFFFFFFFFFFF AND PUSH4 0x414BF389 DUP3 PUSH1 0x40 MLOAD DUP3 PUSH4 0xFFFFFFFF AND PUSH1 0xE0 SHL DUP2 MSTORE PUSH1 0x4 ADD PUSH2 0x8B4 SWAP2 SWAP1 PUSH2 0x1649 JUMP JUMPDEST PUSH1 0x20 PUSH1 0x40 MLOAD DUP1 DUP4 SUB DUP2 PUSH0 DUP8 GAS CALL ISZERO DUP1 ISZERO PUSH2 0x8D0 JUMPI RETURNDATASIZE PUSH0 DUP1 RETURNDATACOPY RETURNDATASIZE PUSH0 REVERT JUMPDEST POP POP POP POP PUSH1 0x40 MLOAD RETURNDATASIZE PUSH1 0x1F NOT PUSH1 0x1F DUP3 ADD AND DUP3 ADD DUP1 PUSH1 0x40 MSTORE POP DUP2 ADD SWAP1 PUSH2 0x8F4 SWAP2 SWAP1 PUSH2 0x1663 JUMP JUMPDEST SWAP6 POP PUSH32 0x4C0BB63F8D47428A342C2A12F0DFD2A4C6910D09D38D94AD5593619C892931B8 DUP13 DUP13 DUP13 DUP10 DUP14 DUP10 PUSH1 0x40 MLOAD PUSH2 0x92F SWAP7 SWAP6 SWAP5 SWAP4 SWAP3 SWAP2 SWAP1 PUSH2 0x168E JUMP JUMPDEST PUSH1 0x40 MLOAD DUP1 SWAP2 SUB SWAP1 LOG1 POP POP POP POP POP SWAP7 SWAP6 POP POP POP POP POP POP JUMP JUMPDEST PUSH32 0x0 DUP2 JUMP JUMPDEST PUSH32 0x0 DUP2 JUMP JUMPDEST PUSH32 0x0 DUP2 JUMP JUMPDEST PUSH0 DUP1 PUSH0 DUP1 JUMPDEST PUSH1 0x2 DUP1 SLOAD SWAP1 POP DUP2 LT ISZERO PUSH2 0xB9F JUMPI PUSH0 PUSH32 0x0 PUSH20 0xFFFFFFFFFFFFFFFFFFFFFFFFFFFFFFFFFFFFFFFF AND PUSH4 0x1698EE82 DUP9 DUP9 PUSH1 0x2 DUP7 DUP2 SLOAD DUP2 LT PUSH2 0xA17 JUMPI PUSH2 0xA16 PUSH2 0x16ED JUMP JUMPDEST JUMPDEST SWAP1 PUSH0 MSTORE PUSH1 0x20 PUSH0 KECCAK256 SWAP1 PUSH1 0xA SWAP2 DUP3 DUP3 DIV ADD SWAP2 SWAP1 MOD PUSH1 0x3 MUL SWAP1 SLOAD SWAP1 PUSH2 0x100 EXP SWAP1 DIV PUSH3 0xFFFFFF AND PUSH1 0x40 MLOAD DUP5 PUSH4 0xFFFFFFFF AND PUSH1 0xE0 SHL DUP2 MSTORE PUSH1 0x4 ADD PUSH2 0xA58 SWAP4 SWAP3 SWAP2 SWAP1 PUSH2 0x171A JUMP JUMPDEST PUSH1 0x20 PUSH1 0x40 MLOAD DUP1 DUP4 SUB DUP2 DUP7 GAS STATICCALL ISZERO DUP1 ISZERO PUSH2 0xA73 JUMPI RETURNDATASIZE PUSH0 DUP1 RETURNDATACOPY RETURNDATASIZE PUSH0 REVERT JUMPDEST POP POP POP POP PUSH1 0x40 MLOAD RETURNDATASIZE PUSH1 0x1F NOT PUSH1 0x1F DUP3 ADD AND DUP3 ADD DUP1 PUSH1 0x40 MSTORE POP DUP2 ADD SWAP1 PUSH2 0xA97 SWAP2 SWAP1 PUSH2 0x1763 JUMP JUMPDEST SWAP1 POP PUSH0 PUSH20 0xFFFFFFFFFFFFFFFFFFFFFFFFFFFFFFFFFFFFFFFF AND DUP2 PUSH20 0xFFFFFFFFFFFFFFFFFFFFFFFFFFFFFFFFFFFFFFFF AND EQ PUSH2 0xB91 JUMPI PUSH0 DUP8 PUSH20 0xFFFFFFFFFFFFFFFFFFFFFFFFFFFFFFFFFFFFFFFF AND PUSH4 0x70A08231 DUP4 PUSH1 0x40 MLOAD DUP3 PUSH4 0xFFFFFFFF AND PUSH1 0xE0 SHL DUP2 MSTORE PUSH1 0x4 ADD PUSH2 0xB06 SWAP2 SWAP1 PUSH2 0xDB6 JUMP JUMPDEST PUSH1 0x20 PUSH1 0x40 MLOAD DUP1 DUP4 SUB DUP2 DUP7 GAS STATICCALL ISZERO DUP1 ISZERO PUSH2 0xB21 JUMPI RETURNDATASIZE PUSH0 DUP1 RETURNDATACOPY RETURNDATASIZE PUSH0 REVERT JUMPDEST POP POP POP POP PUSH1 0x40 MLOAD RETURNDATASIZE PUSH1 0x1F NOT PUSH1 0x1F DUP3 ADD AND DUP3 ADD DUP1 PUSH1 0x40 MSTORE POP DUP2 ADD SWAP1 PUSH2 0xB45 SWAP2 SWAP1 PUSH2 0x1663 JUMP JUMPDEST SWAP1 POP DUP4 DUP2 GT ISZERO PUSH2 0xB8F JUMPI DUP1 SWAP4 POP DUP2 SWAP6 POP PUSH1 0x2 DUP4 DUP2 SLOAD DUP2 LT PUSH2 0xB69 JUMPI PUSH2 0xB68 PUSH2 0x16ED JUMP JUMPDEST JUMPDEST SWAP1 PUSH0 MSTORE PUSH1 0x20 PUSH0 KECCAK256 SWAP1 PUSH1 0xA SWAP2 DUP3 DUP3 DIV ADD SWAP2 SWAP1 MOD PUSH1 0x3 MUL SWAP1 SLOAD SWAP1 PUSH2 0x100 EXP SWAP1 DIV PUSH3 0xFFFFFF AND SWAP5 POP JUMPDEST POP JUMPDEST POP DUP1 DUP1 PUSH1 0x1 ADD SWAP2 POP POP PUSH2 0x9B7 JUMP JUMPDEST POP PUSH0 PUSH20 0xFFFFFFFFFFFFFFFFFFFFFFFFFFFFFFFFFFFFFFFF AND DUP4 PUSH20 0xFFFFFFFFFFFFFFFFFFFFFFFFFFFFFFFFFFFFFFFF AND SUB PUSH2 0xC0E JUMPI PUSH1 0x40 MLOAD PUSH32 0x8C379A000000000000000000000000000000000000000000000000000000000 DUP2 MSTORE PUSH1 0x4 ADD PUSH2 0xC05 SWAP1 PUSH2 0x17D8 JUMP JUMPDEST PUSH1 0x40 MLOAD DUP1 SWAP2 SUB SWAP1 REVERT JUMPDEST POP SWAP3 POP SWAP3 SWAP1 POP JUMP JUMPDEST PUSH1 0x3 PUSH1 0x20 MSTORE DUP1 PUSH0 MSTORE PUSH1 0x40 PUSH0 KECCAK256 PUSH0 SWAP2 POP SLOAD SWAP1 PUSH2 0x100 EXP SWAP1 DIV PUSH1 0xFF AND DUP2 JUMP JUMPDEST PUSH1 0xC8 DUP2 JUMP JUMPDEST PUSH2 0x4B0 DUP2 JUMP JUMPDEST PUSH0 DUP1 REVERT JUMPDEST PUSH0 DUP1 REVERT JUMPDEST PUSH0 DUP2 SWAP1 POP SWAP2 SWAP1 POP JUMP JUMPDEST PUSH2 0xC58 DUP2 PUSH2 0xC46 JUMP JUMPDEST DUP2 EQ PUSH2 0xC62 JUMPI PUSH0 DUP1 REVERT JUMPDEST POP JUMP JUMPDEST PUSH0 DUP2 CALLDATALOAD SWAP1 POP PUSH2 0xC73 DUP2 PUSH2 0xC4F JUMP JUMPDEST SWAP3 SWAP2 POP POP JUMP JUMPDEST PUSH0 PUSH1 0x20 DUP3 DUP5 SUB SLT ISZERO PUSH2 0xC8E JUMPI PUSH2 0xC8D PUSH2 0xC3E JUMP JUMPDEST JUMPDEST PUSH0 PUSH2 0xC9B DUP5 DUP3 DUP6 ADD PUSH2 0xC65 JUMP JUMPDEST SWAP2 POP POP SWAP3 SWAP2 POP POP JUMP JUMPDEST PUSH0 PUSH3 0xFFFFFF DUP3 AND SWAP1 POP SWAP2 SWAP1 POP JUMP JUMPDEST PUSH2 0xCBB DUP2 PUSH2 0xCA4 JUMP JUMPDEST DUP3 MSTORE POP POP JUMP JUMPDEST PUSH0 PUSH1 0x20 DUP3 ADD SWAP1 POP PUSH2 0xCD4 PUSH0 DUP4 ADD DUP5 PUSH2 0xCB2 JUMP JUMPDEST SWAP3 SWAP2 POP POP JUMP JUMPDEST PUSH0 PUSH20 0xFFFFFFFFFFFFFFFFFFFFFFFFFFFFFFFFFFFFFFFF DUP3 AND SWAP1 POP SWAP2 SWAP1 POP JUMP JUMPDEST PUSH0 PUSH2 0xD03 DUP3 PUSH2 0xCDA JUMP JUMPDEST SWAP1 POP SWAP2 SWAP1 POP JUMP JUMPDEST PUSH2 0xD13 DUP2 PUSH2 0xCF9 JUMP JUMPDEST DUP2 EQ PUSH2 0xD1D JUMPI PUSH0 DUP1 REVERT JUMPDEST POP JUMP JUMPDEST PUSH0 DUP2 CALLDATALOAD SWAP1 POP PUSH2 0xD2E DUP2 PUSH2 0xD0A JUMP JUMPDEST SWAP3 SWAP2 POP POP JUMP JUMPDEST PUSH0 DUP2 ISZERO ISZERO SWAP1 POP SWAP2 SWAP1 POP JUMP JUMPDEST PUSH2 0xD48 DUP2 PUSH2 0xD34 JUMP JUMPDEST DUP2 EQ PUSH2 0xD52 JUMPI PUSH0 DUP1 REVERT JUMPDEST POP JUMP JUMPDEST PUSH0 DUP2 CALLDATALOAD SWAP1 POP PUSH2 0xD63 DUP2 PUSH2 0xD3F JUMP JUMPDEST SWAP3 SWAP2 POP POP JUMP JUMPDEST PUSH0 DUP1 PUSH1 0x40 DUP4 DUP6 SUB SLT ISZERO PUSH2 0xD7F JUMPI PUSH2 0xD7E PUSH2 0xC3E JUMP JUMPDEST JUMPDEST PUSH0 PUSH2 0xD8C DUP6 DUP3 DUP7 ADD PUSH2 0xD20 JUMP JUMPDEST SWAP3 POP POP PUSH1 0x20 PUSH2 0xD9D DUP6 DUP3 DUP7 ADD PUSH2 0xD55 JUMP JUMPDEST SWAP2 POP POP SWAP3 POP SWAP3 SWAP1 POP JUMP JUMPDEST PUSH2 0xDB0 DUP2 PUSH2 0xCF9 JUMP JUMPDEST DUP3 MSTORE POP POP JUMP JUMPDEST PUSH0 PUSH1 0x20 DUP3 ADD SWAP1 POP PUSH2 0xDC9 PUSH0 DUP4 ADD DUP5 PUSH2 0xDA7 JUMP JUMPDEST SWAP3 SWAP2 POP POP JUMP JUMPDEST PUSH2 0xDD8 DUP2 PUSH2 0xC46 JUMP JUMPDEST DUP3 MSTORE POP POP JUMP JUMPDEST PUSH0 PUSH1 0x20 DUP3 ADD SWAP1 POP PUSH2 0xDF1 PUSH0 DUP4 ADD DUP5 PUSH2 0xDCF JUMP JUMPDEST SWAP3 SWAP2 POP POP JUMP JUMPDEST PUSH0 DUP1 REVERT JUMPDEST PUSH0 DUP1 REVERT JUMPDEST PUSH0 DUP1 REVERT JUMPDEST PUSH0 DUP1 DUP4 PUSH1 0x1F DUP5 ADD SLT PUSH2 0xE18 JUMPI PUSH2 0xE17 PUSH2 0xDF7 JUMP JUMPDEST JUMPDEST DUP3 CALLDATALOAD SWAP1 POP PUSH8 0xFFFFFFFFFFFFFFFF DUP2 GT ISZERO PUSH2 0xE35 JUMPI PUSH2 0xE34 PUSH2 0xDFB JUMP JUMPDEST JUMPDEST PUSH1 0x20 DUP4 ADD SWAP2 POP DUP4 PUSH1 0x1 DUP3 MUL DUP4 ADD GT ISZERO PUSH2 0xE51 JUMPI PUSH2 0xE50 PUSH2 0xDFF JUMP JUMPDEST JUMPDEST SWAP3 POP SWAP3 SWAP1 POP JUMP JUMPDEST PUSH0 DUP1 PUSH0 DUP1 PUSH0 DUP1 PUSH1 0xA0 DUP8 DUP10 SUB SLT ISZERO PUSH2 0xE72 JUMPI PUSH2 0xE71 PUSH2 0xC3E JUMP JUMPDEST JUMPDEST PUSH0 PUSH2 0xE7F DUP10 DUP3 DUP11 ADD PUSH2 0xD20 JUMP JUMPDEST SWAP7 POP POP PUSH1 0x20 PUSH2 0xE90 DUP10 DUP3 DUP11 ADD PUSH2 0xD20 JUMP JUMPDEST SWAP6 POP POP PUSH1 0x40 PUSH2 0xEA1 DUP10 DUP3 DUP11 ADD PUSH2 0xC65 JUMP JUMPDEST SWAP5 POP POP PUSH1 0x60 PUSH2 0xEB2 DUP10 DUP3 DUP11 ADD PUSH2 0xD20 JUMP JUMPDEST SWAP4 POP POP PUSH1 0x80 DUP8 ADD CALLDATALOAD PUSH8 0xFFFFFFFFFFFFFFFF DUP2 GT ISZERO PUSH2 0xED3 JUMPI PUSH2 0xED2 PUSH2 0xC42 JUMP JUMPDEST JUMPDEST PUSH2 0xEDF DUP10 DUP3 DUP11 ADD PUSH2 0xE03 JUMP JUMPDEST SWAP3 POP SWAP3 POP POP SWAP3 SWAP6 POP SWAP3 SWAP6 POP SWAP3 SWAP6 JUMP JUMPDEST PUSH0 DUP2 SWAP1 POP SWAP2 SWAP1 POP JUMP JUMPDEST PUSH0 PUSH2 0xF11 PUSH2 0xF0C PUSH2 0xF07 DUP5 PUSH2 0xCDA JUMP JUMPDEST PUSH2 0xEEE JUMP JUMPDEST PUSH2 0xCDA JUMP JUMPDEST SWAP1 POP SWAP2 SWAP1 POP JUMP JUMPDEST PUSH0 PUSH2 0xF22 DUP3 PUSH2 0xEF7 JUMP JUMPDEST SWAP1 POP SWAP2 SWAP1 POP JUMP JUMPDEST PUSH0 PUSH2 0xF33 DUP3 PUSH2 0xF18 JUMP JUMPDEST SWAP1 POP SWAP2 SWAP1 POP JUMP JUMPDEST PUSH2 0xF43 DUP2 PUSH2 0xF29 JUMP JUMPDEST DUP3 MSTORE POP POP JUMP JUMPDEST PUSH0 PUSH1 0x20 DUP3 ADD SWAP1 POP PUSH2 0xF5C PUSH0 DUP4 ADD DUP5 PUSH2 0xF3A JUMP JUMPDEST SWAP3 SWAP2 POP POP JUMP JUMPDEST PUSH0 PUSH2 0xF6C DUP3 PUSH2 0xF18 JUMP JUMPDEST SWAP1 POP SWAP2 SWAP1 POP JUMP JUMPDEST PUSH2 0xF7C DUP2 PUSH2 0xF62 JUMP JUMPDEST DUP3 MSTORE POP POP JUMP JUMPDEST PUSH0 PUSH1 0x20 DUP3 ADD SWAP1 POP PUSH2 0xF95 PUSH0 DUP4 ADD DUP5 PUSH2 0xF73 JUMP JUMPDEST SWAP3 SWAP2 POP POP JUMP JUMPDEST PUSH0 PUSH2 0xFA5 DUP3 PUSH2 0xF18 JUMP JUMPDEST SWAP1 POP SWAP2 SWAP1 POP JUMP JUMPDEST PUSH2 0xFB5 DUP2 PUSH2 0xF9B JUMP JUMPDEST DUP3 MSTORE POP POP JUMP JUMPDEST PUSH0 PUSH1 0x20 DUP3 ADD SWAP1 POP PUSH2 0xFCE PUSH0 DUP4 ADD DUP5 PUSH2 0xFAC JUMP JUMPDEST SWAP3 SWAP2 POP POP JUMP JUMPDEST PUSH0 DUP1 PUSH1 0x40 DUP4 DUP6 SUB SLT ISZERO PUSH2 0xFEA JUMPI PUSH2 0xFE9 PUSH2 0xC3E JUMP JUMPDEST JUMPDEST PUSH0 PUSH2 0xFF7 DUP6 DUP3 DUP7 ADD PUSH2 0xD20 JUMP JUMPDEST SWAP3 POP POP PUSH1 0x20 PUSH2 0x1008 DUP6 DUP3 DUP7 ADD PUSH2 0xD20 JUMP JUMPDEST SWAP2 POP POP SWAP3 POP SWAP3 SWAP1 POP JUMP JUMPDEST PUSH0 PUSH1 0x40 DUP3 ADD SWAP1 POP PUSH2 0x1025 PUSH0 DUP4 ADD DUP6 PUSH2 0xDA7 JUMP JUMPDEST PUSH2 0x1032 PUSH1 0x20 DUP4 ADD DUP5 PUSH2 0xCB2 JUMP JUMPDEST SWAP4 SWAP3 POP POP POP JUMP JUMPDEST PUSH0 PUSH1 0x20 DUP3 DUP5 SUB SLT ISZERO PUSH2 0x104E JUMPI PUSH2 0x104D PUSH2 0xC3E JUMP JUMPDEST JUMPDEST PUSH0 PUSH2 0x105B DUP5 DUP3 DUP6 ADD PUSH2 0xD20 JUMP JUMPDEST SWAP2 POP POP SWAP3 SWAP2 POP POP JUMP JUMPDEST PUSH2 0x106D DUP2 PUSH2 0xD34 JUMP JUMPDEST DUP3 MSTORE POP POP JUMP JUMPDEST PUSH0 PUSH1 0x20 DUP3 ADD SWAP1 POP PUSH2 0x1086 PUSH0 DUP4 ADD DUP5 PUSH2 0x1064 JUMP JUMPDEST SWAP3 SWAP2 POP POP JUMP JUMPDEST PUSH0 DUP3 DUP3 MSTORE PUSH1 0x20 DUP3 ADD SWAP1 POP SWAP3 SWAP2 POP POP JUMP JUMPDEST PUSH32 0x4E6F74206F776E65720000000000000000000000000000000000000000000000 PUSH0 DUP3 ADD MSTORE POP JUMP JUMPDEST PUSH0 PUSH2 0x10D0 PUSH1 0x9 DUP4 PUSH2 0x108C JUMP JUMPDEST SWAP2 POP PUSH2 0x10DB DUP3 PUSH2 0x109C JUMP JUMPDEST PUSH1 0x20 DUP3 ADD SWAP1 POP SWAP2 SWAP1 POP JUMP JUMPDEST PUSH0 PUSH1 0x20 DUP3 ADD SWAP1 POP DUP2 DUP2 SUB PUSH0 DUP4 ADD MSTORE PUSH2 0x10FD DUP2 PUSH2 0x10C4 JUMP JUMPDEST SWAP1 POP SWAP2 SWAP1 POP JUMP JUMPDEST PUSH32 0x4E6F74204149204F7261636C6500000000000000000000000000000000000000 PUSH0 DUP3 ADD MSTORE POP JUMP JUMPDEST PUSH0 PUSH2 0x1138 PUSH1 0xD DUP4 PUSH2 0x108C JUMP JUMPDEST SWAP2 POP PUSH2 0x1143 DUP3 PUSH2 0x1104 JUMP JUMPDEST PUSH1 0x20 DUP3 ADD SWAP1 POP SWAP2 SWAP1 POP JUMP JUMPDEST PUSH0 PUSH1 0x20 DUP3 ADD SWAP1 POP DUP2 DUP2 SUB PUSH0 DUP4 ADD MSTORE PUSH2 0x1165 DUP2 PUSH2 0x112C JUMP JUMPDEST SWAP1 POP SWAP2 SWAP1 POP JUMP JUMPDEST PUSH32 0x546F6B656E73206E6F742077686974656C697374656400000000000000000000 PUSH0 DUP3 ADD MSTORE POP JUMP JUMPDEST PUSH0 PUSH2 0x11A0 PUSH1 0x16 DUP4 PUSH2 0x108C JUMP JUMPDEST SWAP2 POP PUSH2 0x11AB DUP3 PUSH2 0x116C JUMP JUMPDEST PUSH1 0x20 DUP3 ADD SWAP1 POP SWAP2 SWAP1 POP JUMP JUMPDEST PUSH0 PUSH1 0x20 DUP3 ADD SWAP1 POP DUP2 DUP2 SUB PUSH0 DUP4 ADD MSTORE PUSH2 0x11CD DUP2 PUSH2 0x1194 JUMP JUMPDEST SWAP1 POP SWAP2 SWAP1 POP JUMP JUMPDEST PUSH32 0x416D6F756E7420746F6F206C6F77000000000000000000000000000000000000 PUSH0 DUP3 ADD MSTORE POP JUMP JUMPDEST PUSH0 PUSH2 0x1208 PUSH1 0xE DUP4 PUSH2 0x108C JUMP JUMPDEST SWAP2 POP PUSH2 0x1213 DUP3 PUSH2 0x11D4 JUMP JUMPDEST PUSH1 0x20 DUP3 ADD SWAP1 POP SWAP2 SWAP1 POP JUMP JUMPDEST PUSH0 PUSH1 0x20 DUP3 ADD SWAP1 POP DUP2 DUP2 SUB PUSH0 DUP4 ADD MSTORE PUSH2 0x1235 DUP2 PUSH2 0x11FC JUMP JUMPDEST SWAP1 POP SWAP2 SWAP1 POP JUMP JUMPDEST PUSH0 DUP2 SWAP1 POP SWAP2 SWAP1 POP JUMP JUMPDEST PUSH0 PUSH2 0x125F PUSH2 0x125A PUSH2 0x1255 DUP5 PUSH2 0x123C JUMP JUMPDEST PUSH2 0xEEE JUMP JUMPDEST PUSH2 0xCDA JUMP JUMPDEST SWAP1 POP SWAP2 SWAP1 POP JUMP JUMPDEST PUSH2 0x126F DUP2 PUSH2 0x1245 JUMP JUMPDEST DUP3 MSTORE POP POP JUMP JUMPDEST PUSH0 PUSH1 0xA0 DUP3 ADD SWAP1 POP PUSH2 0x1288 PUSH0 DUP4 ADD DUP9 PUSH2 0xDA7 JUMP JUMPDEST PUSH2 0x1295 PUSH1 0x20 DUP4 ADD DUP8 PUSH2 0xDA7 JUMP JUMPDEST PUSH2 0x12A2 PUSH1 0x40 DUP4 ADD DUP7 PUSH2 0xCB2 JUMP JUMPDEST PUSH2 0x12AF PUSH1 0x60 DUP4 ADD DUP6 PUSH2 0xDCF JUMP JUMPDEST PUSH2 0x12BC PUSH1 0x80 DUP4 ADD DUP5 PUSH2 0x1266 JUMP JUMPDEST SWAP7 SWAP6 POP POP POP POP POP POP JUMP JUMPDEST PUSH0 DUP2 MLOAD SWAP1 POP PUSH2 0x12D4 DUP2 PUSH2 0xC4F JUMP JUMPDEST SWAP3 SWAP2 POP POP JUMP JUMPDEST PUSH2 0x12E3 DUP2 PUSH2 0xCDA JUMP JUMPDEST DUP2 EQ PUSH2 0x12ED JUMPI PUSH0 DUP1 REVERT JUMPDEST POP JUMP JUMPDEST PUSH0 DUP2 MLOAD SWAP1 POP PUSH2 0x12FE DUP2 PUSH2 0x12DA JUMP JUMPDEST SWAP3 SWAP2 POP POP JUMP JUMPDEST PUSH0 PUSH4 0xFFFFFFFF DUP3 AND SWAP1 POP SWAP2 SWAP1 POP JUMP JUMPDEST PUSH2 0x131C DUP2 PUSH2 0x1304 JUMP JUMPDEST DUP2 EQ PUSH2 0x1326 JUMPI PUSH0 DUP1 REVERT JUMPDEST POP JUMP JUMPDEST PUSH0 DUP2 MLOAD SWAP1 POP PUSH2 0x1337 DUP2 PUSH2 0x1313 JUMP JUMPDEST SWAP3 SWAP2 POP POP JUMP JUMPDEST PUSH0 DUP1 PUSH0 DUP1 PUSH1 0x80 DUP6 DUP8 SUB SLT ISZERO PUSH2 0x1355 JUMPI PUSH2 0x1354 PUSH2 0xC3E JUMP JUMPDEST JUMPDEST PUSH0 PUSH2 0x1362 DUP8 DUP3 DUP9 ADD PUSH2 0x12C6 JUMP JUMPDEST SWAP5 POP POP PUSH1 0x20 PUSH2 0x1373 DUP8 DUP3 DUP9 ADD PUSH2 0x12F0 JUMP JUMPDEST SWAP4 POP POP PUSH1 0x40 PUSH2 0x1384 DUP8 DUP3 DUP9 ADD PUSH2 0x1329 JUMP JUMPDEST SWAP3 POP POP PUSH1 0x60 PUSH2 0x1395 DUP8 DUP3 DUP9 ADD PUSH2 0x12C6 JUMP JUMPDEST SWAP2 POP POP SWAP3 SWAP6 SWAP2 SWAP5 POP SWAP3 POP JUMP JUMPDEST PUSH32 0x4E487B7100000000000000000000000000000000000000000000000000000000 PUSH0 MSTORE PUSH1 0x11 PUSH1 0x4 MSTORE PUSH1 0x24 PUSH0 REVERT JUMPDEST PUSH0 PUSH2 0x13D8 DUP3 PUSH2 0xC46 JUMP JUMPDEST SWAP2 POP PUSH2 0x13E3 DUP4 PUSH2 0xC46 JUMP JUMPDEST SWAP3 POP DUP3 DUP3 SUB SWAP1 POP DUP2 DUP2 GT ISZERO PUSH2 0x13FB JUMPI PUSH2 0x13FA PUSH2 0x13A1 JUMP JUMPDEST JUMPDEST SWAP3 SWAP2 POP POP JUMP JUMPDEST PUSH0 PUSH2 0x140B DUP3 PUSH2 0xC46 JUMP JUMPDEST SWAP2 POP PUSH2 0x1416 DUP4 PUSH2 0xC46 JUMP JUMPDEST SWAP3 POP DUP3 DUP3 MUL PUSH2 0x1424 DUP2 PUSH2 0xC46 JUMP JUMPDEST SWAP2 POP DUP3 DUP3 DIV DUP5 EQ DUP4 ISZERO OR PUSH2 0x143B JUMPI PUSH2 0x143A PUSH2 0x13A1 JUMP JUMPDEST JUMPDEST POP SWAP3 SWAP2 POP POP JUMP JUMPDEST PUSH32 0x4E487B7100000000000000000000000000000000000000000000000000000000 PUSH0 MSTORE PUSH1 0x12 PUSH1 0x4 MSTORE PUSH1 0x24 PUSH0 REVERT JUMPDEST PUSH0 PUSH2 0x1479 DUP3 PUSH2 0xC46 JUMP JUMPDEST SWAP2 POP PUSH2 0x1484 DUP4 PUSH2 0xC46 JUMP JUMPDEST SWAP3 POP DUP3 PUSH2 0x1494 JUMPI PUSH2 0x1493 PUSH2 0x1442 JUMP JUMPDEST JUMPDEST DUP3 DUP3 DIV SWAP1 POP SWAP3 SWAP2 POP POP JUMP JUMPDEST PUSH0 PUSH1 0x60 DUP3 ADD SWAP1 POP PUSH2 0x14B2 PUSH0 DUP4 ADD DUP7 PUSH2 0xDA7 JUMP JUMPDEST PUSH2 0x14BF PUSH1 0x20 DUP4 ADD DUP6 PUSH2 0xDA7 JUMP JUMPDEST PUSH2 0x14CC PUSH1 0x40 DUP4 ADD DUP5 PUSH2 0xDCF JUMP JUMPDEST SWAP5 SWAP4 POP POP POP POP JUMP JUMPDEST PUSH0 DUP2 MLOAD SWAP1 POP PUSH2 0x14E2 DUP2 PUSH2 0xD3F JUMP JUMPDEST SWAP3 SWAP2 POP POP JUMP JUMPDEST PUSH0 PUSH1 0x20 DUP3 DUP5 SUB SLT ISZERO PUSH2 0x14FD JUMPI PUSH2 0x14FC PUSH2 0xC3E JUMP JUMPDEST JUMPDEST PUSH0 PUSH2 0x150A DUP5 DUP3 DUP6 ADD PUSH2 0x14D4 JUMP JUMPDEST SWAP2 POP POP SWAP3 SWAP2 POP POP JUMP JUMPDEST PUSH0 PUSH1 0x40 DUP3 ADD SWAP1 POP PUSH2 0x1526 PUSH0 DUP4 ADD DUP6 PUSH2 0xDA7 JUMP JUMPDEST PUSH2 0x1533 PUSH1 0x20 DUP4 ADD DUP5 PUSH2 0xDCF JUMP JUMPDEST SWAP4 SWAP3 POP POP POP JUMP JUMPDEST PUSH0 PUSH2 0x1544 DUP3 PUSH2 0xC46 JUMP JUMPDEST SWAP2 POP PUSH2 0x154F DUP4 PUSH2 0xC46 JUMP JUMPDEST SWAP3 POP DUP3 DUP3 ADD SWAP1 POP DUP1 DUP3 GT ISZERO PUSH2 0x1567 JUMPI PUSH2 0x1566 PUSH2 0x13A1 JUMP JUMPDEST JUMPDEST SWAP3 SWAP2 POP POP JUMP JUMPDEST PUSH2 0x1576 DUP2 PUSH2 0xCF9 JUMP JUMPDEST DUP3 MSTORE POP POP JUMP JUMPDEST PUSH2 0x1585 DUP2 PUSH2 0xCA4 JUMP JUMPDEST DUP3 MSTORE POP POP JUMP JUMPDEST PUSH2 0x1594 DUP2 PUSH2 0xC46 JUMP JUMPDEST DUP3 MSTORE POP POP JUMP JUMPDEST PUSH2 0x15A3 DUP2 PUSH2 0xCDA JUMP JUMPDEST DUP3 MSTORE POP POP JUMP JUMPDEST PUSH2 0x100 DUP3 ADD PUSH0 DUP3 ADD MLOAD PUSH2 0x15BE PUSH0 DUP6 ADD DUP3 PUSH2 0x156D JUMP JUMPDEST POP PUSH1 0x20 DUP3 ADD MLOAD PUSH2 0x15D1 PUSH1 0x20 DUP6 ADD DUP3 PUSH2 0x156D JUMP JUMPDEST POP PUSH1 0x40 DUP3 ADD MLOAD PUSH2 0x15E4 PUSH1 0x40 DUP6 ADD DUP3 PUSH2 0x157C JUMP JUMPDEST POP PUSH1 0x60 DUP3 ADD MLOAD PUSH2 0x15F7 PUSH1 0x60 DUP6 ADD DUP3 PUSH2 0x156D JUMP JUMPDEST POP PUSH1 0x80 DUP3 ADD MLOAD PUSH2 0x160A PUSH1 0x80 DUP6 ADD DUP3 PUSH2 0x158B JUMP JUMPDEST POP PUSH1 0xA0 DUP3 ADD MLOAD PUSH2 0x161D PUSH1 0xA0 DUP6 ADD DUP3 PUSH2 0x158B JUMP JUMPDEST POP PUSH1 0xC0 DUP3 ADD MLOAD PUSH2 0x1630 PUSH1 0xC0 DUP6 ADD DUP3 PUSH2 0x158B JUMP JUMPDEST POP PUSH1 0xE0 DUP3 ADD MLOAD PUSH2 0x1643 PUSH1 0xE0 DUP6 ADD DUP3 PUSH2 0x159A JUMP JUMPDEST POP POP POP POP JUMP JUMPDEST PUSH0 PUSH2 0x100 DUP3 ADD SWAP1 POP PUSH2 0x165D PUSH0 DUP4 ADD DUP5 PUSH2 0x15A9 JUMP JUMPDEST SWAP3 SWAP2 POP POP JUMP JUMPDEST PUSH0 PUSH1 0x20 DUP3 DUP5 SUB SLT ISZERO PUSH2 0x1678 JUMPI PUSH2 0x1677 PUSH2 0xC3E JUMP JUMPDEST JUMPDEST PUSH0 PUSH2 0x1685 DUP5 DUP3 DUP6 ADD PUSH2 0x12C6 JUMP JUMPDEST SWAP2 POP POP SWAP3 SWAP2 POP POP JUMP JUMPDEST PUSH0 PUSH1 0xC0 DUP3 ADD SWAP1 POP PUSH2 0x16A1 PUSH0 DUP4 ADD DUP10 PUSH2 0xDA7 JUMP JUMPDEST PUSH2 0x16AE PUSH1 0x20 DUP4 ADD DUP9 PUSH2 0xDA7 JUMP JUMPDEST PUSH2 0x16BB PUSH1 0x40 DUP4 ADD DUP8 PUSH2 0xDCF JUMP JUMPDEST PUSH2 0x16C8 PUSH1 0x60 DUP4 ADD DUP7 PUSH2 0xDCF JUMP JUMPDEST PUSH2 0x16D5 PUSH1 0x80 DUP4 ADD DUP6 PUSH2 0xDA7 JUMP JUMPDEST PUSH2 0x16E2 PUSH1 0xA0 DUP4 ADD DUP5 PUSH2 0xCB2 JUMP JUMPDEST SWAP8 SWAP7 POP POP POP POP POP POP POP JUMP JUMPDEST PUSH32 0x4E487B7100000000000000000000000000000000000000000000000000000000 PUSH0 MSTORE PUSH1 0x32 PUSH1 0x4 MSTORE PUSH1 0x24 PUSH0 REVERT JUMPDEST PUSH0 PUSH1 0x60 DUP3 ADD SWAP1 POP PUSH2 0x172D PUSH0 DUP4 ADD DUP7 PUSH2 0xDA7 JUMP JUMPDEST PUSH2 0x173A PUSH1 0x20 DUP4 ADD DUP6 PUSH2 0xDA7 JUMP JUMPDEST PUSH2 0x1747 PUSH1 0x40 DUP4 ADD DUP5 PUSH2 0xCB2 JUMP JUMPDEST SWAP5 SWAP4 POP POP POP POP JUMP JUMPDEST PUSH0 DUP2 MLOAD SWAP1 POP PUSH2 0x175D DUP2 PUSH2 0xD0A JUMP JUMPDEST SWAP3 SWAP2 POP POP JUMP JUMPDEST PUSH0 PUSH1 0x20 DUP3 DUP5 SUB SLT ISZERO PUSH2 0x1778 JUMPI PUSH2 0x1777 PUSH2 0xC3E JUMP JUMPDEST JUMPDEST PUSH0 PUSH2 0x1785 DUP5 DUP3 DUP6 ADD PUSH2 0x174F JUMP JUMPDEST SWAP2 POP POP SWAP3 SWAP2 POP POP JUMP JUMPDEST PUSH32 0x4E6F20706F6F6C20666F756E6400000000000000000000000000000000000000 PUSH0 DUP3 ADD MSTORE POP JUMP JUMPDEST PUSH0 PUSH2 0x17C2 PUSH1 0xD DUP4 PUSH2 0x108C JUMP JUMPDEST SWAP2 POP PUSH2 0x17CD DUP3 PUSH2 0x178E JUMP JUMPDEST PUSH1 0x20 DUP3 ADD SWAP1 POP SWAP2 SWAP1 POP JUMP JUMPDEST PUSH0 PUSH1 0x20 DUP3 ADD SWAP1 POP DUP2 DUP2 SUB PUSH0 DUP4 ADD MSTORE PUSH2 0x17EF DUP2 PUSH2 0x17B6 JUMP JUMPDEST SWAP1 POP SWAP2 SWAP1 POP JUMP INVALID LOG2 PUSH5 0x6970667358 0x22 SLT KECCAK256 SAR 0xD8 SWAP6 RETURNDATASIZE SAR KECCAK256 SIGNEXTEND SWAP4 0xA5 LOG4 0xEF CALLCODE PUSH27 0xFF9AB35C2764617DBC48494F2032AADB0B0EA164736F6C63430008 BYTE STOP CALLER "
		},
		"gasEstimates": {
			"creation": {
				"codeDepositCost": "1237600",
				"executionCost": "infinite",
				"totalCost": "infinite"
			},
			"external": {
				"DEADLINE_EXTENSION()": "413",
				"MAX_SLIPPAGE()": "391",
				"MIN_TRADE_AMOUNT()": "392",
				"SUPPORTED_FEES(uint256)": "6540",
				"aiOracle()": "2553",
				"executeTrade(address,address,uint256,address,bytes)": "infinite",
				"factory()": "infinite",
				"findBestPool(address,address)": "infinite",
				"owner()": "2594",
				"quoter()": "infinite",
				"swapRouter()": "infinite",
				"whitelistToken(address,bool)": "27169",
				"whitelistedTokens(address)": "2877"
			}
		},
		"methodIdentifiers": {
			"DEADLINE_EXTENSION()": "ffe6f79a",
			"MAX_SLIPPAGE()": "f9759518",
			"MIN_TRADE_AMOUNT()": "31b7d413",
			"SUPPORTED_FEES(uint256)": "0c65dafe",
			"aiOracle()": "31b221cd",
			"executeTrade(address,address,uint256,address,bytes)": "aad4466e",
			"factory()": "c45a0155",
			"findBestPool(address,address)": "c90148ec",
			"owner()": "8da5cb5b",
			"quoter()": "c6bbd5a7",
			"swapRouter()": "c31c9c07",
			"whitelistToken(address,bool)": "0ffb1d8b",
			"whitelistedTokens(address)": "daf9c210"
		}
	},
	"abi": [
		{
			"inputs": [
				{
					"internalType": "address",
					"name": "_oracle",
					"type": "address"
				},
				{
					"internalType": "address",
					"name": "_router",
					"type": "address"
				},
				{
					"internalType": "address",
					"name": "_factory",
					"type": "address"
				},
				{
					"internalType": "address",
					"name": "_quoter",
					"type": "address"
				}
			],
			"stateMutability": "nonpayable",
			"type": "constructor"
		},
		{
			"anonymous": false,
			"inputs": [
				{
					"indexed": false,
					"internalType": "address",
					"name": "tokenIn",
					"type": "address"
				},
				{
					"indexed": false,
					"internalType": "address",
					"name": "tokenOut",
					"type": "address"
				},
				{
					"indexed": false,
					"internalType": "uint256",
					"name": "amountIn",
					"type": "uint256"
				},
				{
					"indexed": false,
					"internalType": "uint256",
					"name": "amountOut",
					"type": "uint256"
				},
				{
					"indexed": false,
					"internalType": "address",
					"name": "recipient",
					"type": "address"
				},
				{
					"indexed": false,
					"internalType": "uint24",
					"name": "fee",
					"type": "uint24"
				}
			],
			"name": "TradeExecuted",
			"type": "event"
		},
		{
			"inputs": [],
			"name": "DEADLINE_EXTENSION",
			"outputs": [
				{
					"internalType": "uint256",
					"name": "",
					"type": "uint256"
				}
			],
			"stateMutability": "view",
			"type": "function"
		},
		{
			"inputs": [],
			"name": "MAX_SLIPPAGE",
			"outputs": [
				{
					"internalType": "uint256",
					"name": "",
					"type": "uint256"
				}
			],
			"stateMutability": "view",
			"type": "function"
		},
		{
			"inputs": [],
			"name": "MIN_TRADE_AMOUNT",
			"outputs": [
				{
					"internalType": "uint256",
					"name": "",
					"type": "uint256"
				}
			],
			"stateMutability": "view",
			"type": "function"
		},
		{
			"inputs": [
				{
					"internalType": "uint256",
					"name": "",
					"type": "uint256"
				}
			],
			"name": "SUPPORTED_FEES",
			"outputs": [
				{
					"internalType": "uint24",
					"name": "",
					"type": "uint24"
				}
			],
			"stateMutability": "view",
			"type": "function"
		},
		{
			"inputs": [],
			"name": "aiOracle",
			"outputs": [
				{
					"internalType": "address",
					"name": "",
					"type": "address"
				}
			],
			"stateMutability": "view",
			"type": "function"
		},
		{
			"inputs": [
				{
					"internalType": "address",
					"name": "_tokenIn",
					"type": "address"
				},
				{
					"internalType": "address",
					"name": "_tokenOut",
					"type": "address"
				},
				{
					"internalType": "uint256",
					"name": "_amountIn",
					"type": "uint256"
				},
				{
					"internalType": "address",
					"name": "_recipient",
					"type": "address"
				},
				{
					"internalType": "bytes",
					"name": "_aiData",
					"type": "bytes"
				}
			],
			"name": "executeTrade",
			"outputs": [
				{
					"internalType": "uint256",
					"name": "amountOut",
					"type": "uint256"
				}
			],
			"stateMutability": "nonpayable",
			"type": "function"
		},
		{
			"inputs": [],
			"name": "factory",
			"outputs": [
				{
					"internalType": "contract IUniswapV3Factory",
					"name": "",
					"type": "address"
				}
			],
			"stateMutability": "view",
			"type": "function"
		},
		{
			"inputs": [
				{
					"internalType": "address",
					"name": "_tokenIn",
					"type": "address"
				},
				{
					"internalType": "address",
					"name": "_tokenOut",
					"type": "address"
				}
			],
			"name": "findBestPool",
			"outputs": [
				{
					"internalType": "address",
					"name": "pool",
					"type": "address"
				},
				{
					"internalType": "uint24",
					"name": "fee",
					"type": "uint24"
				}
			],
			"stateMutability": "view",
			"type": "function"
		},
		{
			"inputs": [],
			"name": "owner",
			"outputs": [
				{
					"internalType": "address",
					"name": "",
					"type": "address"
				}
			],
			"stateMutability": "view",
			"type": "function"
		},
		{
			"inputs": [],
			"name": "quoter",
			"outputs": [
				{
					"internalType": "contract IQuoterV2",
					"name": "",
					"type": "address"
				}
			],
			"stateMutability": "view",
			"type": "function"
		},
		{
			"inputs": [],
			"name": "swapRouter",
			"outputs": [
				{
					"internalType": "contract ISwapRouter",
					"name": "",
					"type": "address"
				}
			],
			"stateMutability": "view",
			"type": "function"
		},
		{
			"inputs": [
				{
					"internalType": "address",
					"name": "_token",
					"type": "address"
				},
				{
					"internalType": "bool",
					"name": "_status",
					"type": "bool"
				}
			],
			"name": "whitelistToken",
			"outputs": [],
			"stateMutability": "nonpayable",
			"type": "function"
		},
		{
			"inputs": [
				{
					"internalType": "address",
					"name": "",
					"type": "address"
				}
			],
			"name": "whitelistedTokens",
			"outputs": [
				{
					"internalType": "bool",
					"name": "",
					"type": "bool"
				}
			],
			"stateMutability": "view",
			"type": "function"
		}
	]
}