{
	"data": {
		"bytecode": {
			"linkReferences": {},
			"object": "61018060405260646101009081526101f461012052610bb861014052612710610160526100309060029060046100ec565b5034801561003c575f80fd5b506040516117c63803806117c683398101604081905261005b916101c3565b50505f8054336001600160a01b031991821617909155600180549091166001600160a01b03939093169290921790915550732626664c2603336e57b271c5c0b26f421741e4816080527333128a8fc17869897dce68ed026d694621f6fdfd60a052733d4e44eb1374240ce5f1b871ab261cd16335b76a60c0526e22d473030f116ddee9f6b43ac78ba360e052610214565b828054828255905f5260205f2090600901600a90048101928215610184579160200282015f5b8382111561015357835183826101000a81548162ffffff021916908361ffff1602179055509260200192600301602081600201049283019260010302610112565b80156101825782816101000a81549062ffffff0219169055600301602081600201049283019260010302610153565b505b50610190929150610194565b5090565b5b80821115610190575f8155600101610195565b80516001600160a01b03811681146101be575f80fd5b919050565b5f805f80608085870312156101d6575f80fd5b6101df856101a8565b93506101ed602086016101a8565b92506101fb604086016101a8565b9150610209606086016101a8565b905092959194509250565b60805160a05160c05160e05161154761027f5f395f818161013a015281816103f7015261051701525f818161022a0152610d1c01525f818161020301528181610779015281816108e50152610b4e01525f81816101dc0152818161053f0152610fad01526115475ff3fe608060405234801561000f575f80fd5b50600436106100f0575f3560e01c8063aad4466e11610093578063c90148ec11610063578063c90148ec1461024c578063daf9c21014610282578063f9759518146102b4578063ffe6f79a146102bd575f80fd5b8063aad4466e146101c4578063c31c9c07146101d7578063c45a0155146101fe578063c6bbd5a714610225575f80fd5b806331b221cd116100ce57806331b221cd1461017457806331b7d41314610187578063502364d81461019f5780638da5cb5b146101b2575f80fd5b80630c65dafe146100f45780630ffb1d8b1461012057806312261ee714610135575b5f80fd5b610107610102366004611043565b6102c6565b60405162ffffff90911681526020015b60405180910390f35b61013361012e366004611071565b6102fc565b005b61015c7f000000000000000000000000000000000000000000000000000000000000000081565b6040516001600160a01b039091168152602001610117565b60015461015c906001600160a01b031681565b610191620186a081565b604051908152602001610117565b6101916101ad3660046110ac565b610370565b5f5461015c906001600160a01b031681565b6101916101d23660046110fc565b6106d8565b61015c7f000000000000000000000000000000000000000000000000000000000000000081565b61015c7f000000000000000000000000000000000000000000000000000000000000000081565b61015c7f000000000000000000000000000000000000000000000000000000000000000081565b61025f61025a3660046111aa565b61073b565b604080516001600160a01b03909316835262ffffff909116602083015201610117565b6102a46102903660046111d6565b60036020525f908152604090205460ff1681565b6040519015158152602001610117565b61019161138881565b6101916104b081565b600281815481106102d5575f80fd5b905f5260205f2090600a9182820401919006600302915054906101000a900462ffffff1681565b5f546001600160a01b031633146103465760405162461bcd60e51b81526020600482015260096024820152682737ba1037bbb732b960b91b60448201526064015b60405180910390fd5b6001600160a01b03919091165f908152600360205260409020805460ff1916911515919091179055565b5f61037c858585610a6e565b5f610387868661073b565b9150505f8061039888888886610b49565b90925090505f6127106103ad6113888261120c565b6103b79085611225565b6103c1919061123c565b604051631b63c28b60e11b81523360048201523060248201526001600160a01b0389811660448301528b811660648301529192507f0000000000000000000000000000000000000000000000000000000000000000909116906336c78516906084015f604051808303815f87803b15801561043a575f80fd5b505af192505050801561044b575060015b61050d5761045761125b565b806308c379a0036104ad575061046b6112ad565b8061047657506104af565b806040516020016104879190611348565b60408051601f198184030181529082905262461bcd60e51b825261033d9160040161136d565b505b60405162461bcd60e51b815260206004820152602d60248201527f5472616e73666572206661696c6564202d20636865636b2062616c616e63652060448201526c616e6420616c6c6f77616e636560981b606482015260840161033d565b6001600160a01b037f0000000000000000000000000000000000000000000000000000000000000000166387517c458a7f00000000000000000000000000000000000000000000000000000000000000008a61056b6104b0426113a2565b6040516001600160e01b031960e087901b1681526001600160a01b03948516600482015292841660248401529216604482015265ffffffffffff90911660648201526084015f604051808303815f87803b1580156105c7575f80fd5b505af11580156105d9573d5f803e3d5ffd5b505050506105eb898989848a89610f37565b94508085101561063d5760405162461bcd60e51b815260206004820152601a60248201527f496e73756666696369656e74206f757470757420616d6f756e74000000000000604482015260640161033d565b5f82815260046020908152604080832083815560018101939093556002909201805462ffffff1916905581516001600160a01b03808d168252808c1692820192909252918201899052606082018790528716608082015262ffffff851660a08201527f4c0bb63f8d47428a342c2a12f0dfd2a4c6910d09d38d94ad5593619c892931b89060c00160405180910390a150505050949350505050565b6001545f906001600160a01b031633146107245760405162461bcd60e51b815260206004820152600d60248201526c4e6f74204149204f7261636c6560981b604482015260640161033d565b61073087878787610370565b979650505050505050565b604080516080810182526101f48152610bb8602082015260649181019190915261271060608201525f90819081908190815b60048110156108d1575f7f00000000000000000000000000000000000000000000000000000000000000006001600160a01b0316631698ee828a8a8686600481106107ba576107ba6113b5565b60200201516040518463ffffffff1660e01b81526004016107dd939291906113c9565b602060405180830381865afa1580156107f8573d5f803e3d5ffd5b505050506040513d601f19601f8201168201806040525081019061081c91906113f1565b90506001600160a01b038116156108c8576040516370a0823160e01b81526001600160a01b0382811660048301525f91908b16906370a0823190602401602060405180830381865afa158015610874573d5f803e3d5ffd5b505050506040513d601f19601f82011682018060405250810190610898919061140c565b9050858111156108c6578095508197508383600481106108ba576108ba6113b5565b60200201519650600194505b505b5060010161076d565b50816109ca575f5b60048110156109c8575f7f00000000000000000000000000000000000000000000000000000000000000006001600160a01b0316631698ee828a8a868660048110610926576109266113b5565b60200201516040518463ffffffff1660e01b8152600401610949939291906113c9565b602060405180830381865afa158015610964573d5f803e3d5ffd5b505050506040513d601f19601f8201168201806040525081019061098891906113f1565b90506001600160a01b038116156109bf578096508282600481106109ae576109ae6113b5565b6020020151955060019350506109c8565b506001016108d9565b505b81610a175760405162461bcd60e51b815260206004820152601c60248201527f4e6f20706f6f6c20666f756e6420666f7220746f6b656e207061697200000000604482015260640161033d565b6001600160a01b038516610a645760405162461bcd60e51b8152602060048201526014602482015273496e76616c696420706f6f6c206164647265737360601b604482015260640161033d565b5050509250929050565b6001600160a01b0383165f9081526003602052604090205460ff168015610aac57506001600160a01b0382165f9081526003602052604090205460ff165b610af15760405162461bcd60e51b8152602060048201526016602482015275151bdad95b9cc81b9bdd081dda1a5d195b1a5cdd195960521b604482015260640161033d565b620186a0811015610b445760405162461bcd60e51b815260206004820152601d60248201527f416d6f756e7420746f6f206c6f7720286d696e20302e31205553444329000000604482015260640161033d565b505050565b5f805f7f00000000000000000000000000000000000000000000000000000000000000006001600160a01b0316631698ee828888876040518463ffffffff1660e01b8152600401610b9c939291906113c9565b602060405180830381865afa158015610bb7573d5f803e3d5ffd5b505050506040513d601f19601f82011682018060405250810190610bdb91906113f1565b90506001600160a01b038116610c295760405162461bcd60e51b8152602060048201526013602482015272141bdbdb08191bd95cc81b9bdd08195e1a5cdd606a1b604482015260640161033d565b6040516370a0823160e01b81526001600160a01b0382811660048301525f91908916906370a0823190602401602060405180830381865afa158015610c70573d5f803e3d5ffd5b505050506040513d601f19601f82011682018060405250810190610c94919061140c565b90505f8111610cdd5760405162461bcd60e51b8152602060048201526015602482015274506f6f6c20686173206e6f206c697175696469747960581b604482015260640161033d565b60405163f7729d4360e01b81526001600160a01b038981166004830152888116602483015262ffffff87166044830152606482018890525f60848301527f0000000000000000000000000000000000000000000000000000000000000000169063f7729d439060a4016080604051808303815f875af1925050508015610d80575060408051601f3d908101601f19168201909252610d7d91810190611423565b60015b610e2557610d8c61125b565b806308c379a003610dbc5750610da06112ad565b80610dab5750610dbe565b806040516020016104879190611472565b505b60405162461bcd60e51b815260206004820152603660248201527f506f6f6c206d6179206e6f7420626520696e697469616c697a6564202d2074726044820152753c9030903234b33332b932b73a103332b2903a34b2b960511b606482015260840161033d565b5f8411610e745760405162461bcd60e51b815260206004820152601a60248201527f51756f74652072657475726e6564207a65726f20616d6f756e74000000000000604482015260640161033d565b6040516bffffffffffffffffffffffff1960608e811b821660208401528d901b166034820152604881018b90526001600160e81b031960e88b901b166068820152606b0160408051808303601f19018152828252805160209182012060608401835242845281840188815262ffffff8e81168686019081525f8481526004909552949093209451855551600185015591516002909301805462ffffff19169390911692909217909155939750929550610f2e945050505050565b94509492505050565b5f80604051806101000160405280896001600160a01b03168152602001886001600160a01b031681526020018462ffffff168152602001856001600160a01b031681526020016104b042610f8b91906113a2565b81526020018781526020018681526020015f6001600160a01b031681525090507f00000000000000000000000000000000000000000000000000000000000000006001600160a01b031663414bf389826040518263ffffffff1660e01b8152600401610ff79190611494565b6020604051808303815f875af1158015611013573d5f803e3d5ffd5b505050506040513d601f19601f82011682018060405250810190611037919061140c565b98975050505050505050565b5f60208284031215611053575f80fd5b5035919050565b6001600160a01b038116811461106e575f80fd5b50565b5f8060408385031215611082575f80fd5b823561108d8161105a565b9150602083013580151581146110a1575f80fd5b809150509250929050565b5f805f80608085870312156110bf575f80fd5b84356110ca8161105a565b935060208501356110da8161105a565b92506040850135915060608501356110f18161105a565b939692955090935050565b5f805f805f8060a08789031215611111575f80fd5b863561111c8161105a565b9550602087013561112c8161105a565b94506040870135935060608701356111438161105a565b9250608087013567ffffffffffffffff81111561115e575f80fd5b8701601f8101891361116e575f80fd5b803567ffffffffffffffff811115611184575f80fd5b896020828401011115611195575f80fd5b60208201935080925050509295509295509295565b5f80604083850312156111bb575f80fd5b82356111c68161105a565b915060208301356110a18161105a565b5f602082840312156111e6575f80fd5b81356111f18161105a565b9392505050565b634e487b7160e01b5f52601160045260245ffd5b8181038181111561121f5761121f6111f8565b92915050565b808202811582820484141761121f5761121f6111f8565b5f8261125657634e487b7160e01b5f52601260045260245ffd5b500490565b5f60033d11156112715760045f803e505f5160e01c5b90565b601f8201601f1916810167ffffffffffffffff811182821017156112a657634e487b7160e01b5f52604160045260245ffd5b6040525050565b5f60443d10156112ba5790565b6040513d600319016004823e80513d602482011167ffffffffffffffff821117156112e457505090565b808201805167ffffffffffffffff811115611300575050505090565b3d840160031901828201602001111561131a575050505090565b61132960208285010185611274565b509392505050565b5f81518060208401855e5f93019283525090919050565b7002a3930b739b332b9103330b4b632b21d1607d1b81525f6111f16011830184611331565b602081525f82518060208401528060208501604085015e5f604082850101526040601f19601f83011684010191505092915050565b8082018082111561121f5761121f6111f8565b634e487b7160e01b5f52603260045260245ffd5b6001600160a01b03938416815291909216602082015262ffffff909116604082015260600190565b5f60208284031215611401575f80fd5b81516111f18161105a565b5f6020828403121561141c575f80fd5b5051919050565b5f805f8060808587031215611436575f80fd5b845160208601519094506114498161105a565b604086015190935063ffffffff81168114611462575f80fd5b6060959095015193969295505050565b6d028bab7ba32903330b4b632b21d160951b81525f6111f1600e830184611331565b81516001600160a01b03908116825260208084015182169083015260408084015162ffffff169083015260608084015191821690830152610100820190506080830151608083015260a083015160a083015260c083015160c083015260e083015161150a60e08401826001600160a01b03169052565b509291505056fea26469706673582212203d0a14db671ff9bf472dcd8f9ba15564c75c86db586d1dbbf6ceab6e3560466c64736f6c634300081a0033",
			"opcodes": "PUSH2 0x180 PUSH1 0x40 MSTORE PUSH1 0x64 PUSH2 0x100 SWAP1 DUP2 MSTORE PUSH2 0x1F4 PUSH2 0x120 MSTORE PUSH2 0xBB8 PUSH2 0x140 MSTORE PUSH2 0x2710 PUSH2 0x160 MSTORE PUSH2 0x30 SWAP1 PUSH1 0x2 SWAP1 PUSH1 0x4 PUSH2 0xEC JUMP JUMPDEST POP CALLVALUE DUP1 ISZERO PUSH2 0x3C JUMPI PUSH0 DUP1 REVERT JUMPDEST POP PUSH1 0x40 MLOAD PUSH2 0x17C6 CODESIZE SUB DUP1 PUSH2 0x17C6 DUP4 CODECOPY DUP2 ADD PUSH1 0x40 DUP2 SWAP1 MSTORE PUSH2 0x5B SWAP2 PUSH2 0x1C3 JUMP JUMPDEST POP POP PUSH0 DUP1 SLOAD CALLER PUSH1 0x1 PUSH1 0x1 PUSH1 0xA0 SHL SUB NOT SWAP2 DUP3 AND OR SWAP1 SWAP2 SSTORE PUSH1 0x1 DUP1 SLOAD SWAP1 SWAP2 AND PUSH1 0x1 PUSH1 0x1 PUSH1 0xA0 SHL SUB SWAP4 SWAP1 SWAP4 AND SWAP3 SWAP1 SWAP3 OR SWAP1 SWAP2 SSTORE POP PUSH20 0x2626664C2603336E57B271C5C0B26F421741E481 PUSH1 0x80 MSTORE PUSH20 0x33128A8FC17869897DCE68ED026D694621F6FDFD PUSH1 0xA0 MSTORE PUSH20 0x3D4E44EB1374240CE5F1B871AB261CD16335B76A PUSH1 0xC0 MSTORE PUSH15 0x22D473030F116DDEE9F6B43AC78BA3 PUSH1 0xE0 MSTORE PUSH2 0x214 JUMP JUMPDEST DUP3 DUP1 SLOAD DUP3 DUP3 SSTORE SWAP1 PUSH0 MSTORE PUSH1 0x20 PUSH0 KECCAK256 SWAP1 PUSH1 0x9 ADD PUSH1 0xA SWAP1 DIV DUP2 ADD SWAP3 DUP3 ISZERO PUSH2 0x184 JUMPI SWAP2 PUSH1 0x20 MUL DUP3 ADD PUSH0 JUMPDEST DUP4 DUP3 GT ISZERO PUSH2 0x153 JUMPI DUP4 MLOAD DUP4 DUP3 PUSH2 0x100 EXP DUP2 SLOAD DUP2 PUSH3 0xFFFFFF MUL NOT AND SWAP1 DUP4 PUSH2 0xFFFF AND MUL OR SWAP1 SSTORE POP SWAP3 PUSH1 0x20 ADD SWAP3 PUSH1 0x3 ADD PUSH1 0x20 DUP2 PUSH1 0x2 ADD DIV SWAP3 DUP4 ADD SWAP3 PUSH1 0x1 SUB MUL PUSH2 0x112 JUMP JUMPDEST DUP1 ISZERO PUSH2 0x182 JUMPI DUP3 DUP2 PUSH2 0x100 EXP DUP2 SLOAD SWAP1 PUSH3 0xFFFFFF MUL NOT AND SWAP1 SSTORE PUSH1 0x3 ADD PUSH1 0x20 DUP2 PUSH1 0x2 ADD DIV SWAP3 DUP4 ADD SWAP3 PUSH1 0x1 SUB MUL PUSH2 0x153 JUMP JUMPDEST POP JUMPDEST POP PUSH2 0x190 SWAP3 SWAP2 POP PUSH2 0x194 JUMP JUMPDEST POP SWAP1 JUMP JUMPDEST JUMPDEST DUP1 DUP3 GT ISZERO PUSH2 0x190 JUMPI PUSH0 DUP2 SSTORE PUSH1 0x1 ADD PUSH2 0x195 JUMP JUMPDEST DUP1 MLOAD PUSH1 0x1 PUSH1 0x1 PUSH1 0xA0 SHL SUB DUP2 AND DUP2 EQ PUSH2 0x1BE JUMPI PUSH0 DUP1 REVERT JUMPDEST SWAP2 SWAP1 POP JUMP JUMPDEST PUSH0 DUP1 PUSH0 DUP1 PUSH1 0x80 DUP6 DUP8 SUB SLT ISZERO PUSH2 0x1D6 JUMPI PUSH0 DUP1 REVERT JUMPDEST PUSH2 0x1DF DUP6 PUSH2 0x1A8 JUMP JUMPDEST SWAP4 POP PUSH2 0x1ED PUSH1 0x20 DUP7 ADD PUSH2 0x1A8 JUMP JUMPDEST SWAP3 POP PUSH2 0x1FB PUSH1 0x40 DUP7 ADD PUSH2 0x1A8 JUMP JUMPDEST SWAP2 POP PUSH2 0x209 PUSH1 0x60 DUP7 ADD PUSH2 0x1A8 JUMP JUMPDEST SWAP1 POP SWAP3 SWAP6 SWAP2 SWAP5 POP SWAP3 POP JUMP JUMPDEST PUSH1 0x80 MLOAD PUSH1 0xA0 MLOAD PUSH1 0xC0 MLOAD PUSH1 0xE0 MLOAD PUSH2 0x1547 PUSH2 0x27F PUSH0 CODECOPY PUSH0 DUP2 DUP2 PUSH2 0x13A ADD MSTORE DUP2 DUP2 PUSH2 0x3F7 ADD MSTORE PUSH2 0x517 ADD MSTORE PUSH0 DUP2 DUP2 PUSH2 0x22A ADD MSTORE PUSH2 0xD1C ADD MSTORE PUSH0 DUP2 DUP2 PUSH2 0x203 ADD MSTORE DUP2 DUP2 PUSH2 0x779 ADD MSTORE DUP2 DUP2 PUSH2 0x8E5 ADD MSTORE PUSH2 0xB4E ADD MSTORE PUSH0 DUP2 DUP2 PUSH2 0x1DC ADD MSTORE DUP2 DUP2 PUSH2 0x53F ADD MSTORE PUSH2 0xFAD ADD MSTORE PUSH2 0x1547 PUSH0 RETURN INVALID PUSH1 0x80 PUSH1 0x40 MSTORE CALLVALUE DUP1 ISZERO PUSH2 0xF JUMPI PUSH0 DUP1 REVERT JUMPDEST POP PUSH1 0x4 CALLDATASIZE LT PUSH2 0xF0 JUMPI PUSH0 CALLDATALOAD PUSH1 0xE0 SHR DUP1 PUSH4 0xAAD4466E GT PUSH2 0x93 JUMPI DUP1 PUSH4 0xC90148EC GT PUSH2 0x63 JUMPI DUP1 PUSH4 0xC90148EC EQ PUSH2 0x24C JUMPI DUP1 PUSH4 0xDAF9C210 EQ PUSH2 0x282 JUMPI DUP1 PUSH4 0xF9759518 EQ PUSH2 0x2B4 JUMPI DUP1 PUSH4 0xFFE6F79A EQ PUSH2 0x2BD JUMPI PUSH0 DUP1 REVERT JUMPDEST DUP1 PUSH4 0xAAD4466E EQ PUSH2 0x1C4 JUMPI DUP1 PUSH4 0xC31C9C07 EQ PUSH2 0x1D7 JUMPI DUP1 PUSH4 0xC45A0155 EQ PUSH2 0x1FE JUMPI DUP1 PUSH4 0xC6BBD5A7 EQ PUSH2 0x225 JUMPI PUSH0 DUP1 REVERT JUMPDEST DUP1 PUSH4 0x31B221CD GT PUSH2 0xCE JUMPI DUP1 PUSH4 0x31B221CD EQ PUSH2 0x174 JUMPI DUP1 PUSH4 0x31B7D413 EQ PUSH2 0x187 JUMPI DUP1 PUSH4 0x502364D8 EQ PUSH2 0x19F JUMPI DUP1 PUSH4 0x8DA5CB5B EQ PUSH2 0x1B2 JUMPI PUSH0 DUP1 REVERT JUMPDEST DUP1 PUSH4 0xC65DAFE EQ PUSH2 0xF4 JUMPI DUP1 PUSH4 0xFFB1D8B EQ PUSH2 0x120 JUMPI DUP1 PUSH4 0x12261EE7 EQ PUSH2 0x135 JUMPI JUMPDEST PUSH0 DUP1 REVERT JUMPDEST PUSH2 0x107 PUSH2 0x102 CALLDATASIZE PUSH1 0x4 PUSH2 0x1043 JUMP JUMPDEST PUSH2 0x2C6 JUMP JUMPDEST PUSH1 0x40 MLOAD PUSH3 0xFFFFFF SWAP1 SWAP2 AND DUP2 MSTORE PUSH1 0x20 ADD JUMPDEST PUSH1 0x40 MLOAD DUP1 SWAP2 SUB SWAP1 RETURN JUMPDEST PUSH2 0x133 PUSH2 0x12E CALLDATASIZE PUSH1 0x4 PUSH2 0x1071 JUMP JUMPDEST PUSH2 0x2FC JUMP JUMPDEST STOP JUMPDEST PUSH2 0x15C PUSH32 0x0 DUP2 JUMP JUMPDEST PUSH1 0x40 MLOAD PUSH1 0x1 PUSH1 0x1 PUSH1 0xA0 SHL SUB SWAP1 SWAP2 AND DUP2 MSTORE PUSH1 0x20 ADD PUSH2 0x117 JUMP JUMPDEST PUSH1 0x1 SLOAD PUSH2 0x15C SWAP1 PUSH1 0x1 PUSH1 0x1 PUSH1 0xA0 SHL SUB AND DUP2 JUMP JUMPDEST PUSH2 0x191 PUSH3 0x186A0 DUP2 JUMP JUMPDEST PUSH1 0x40 MLOAD SWAP1 DUP2 MSTORE PUSH1 0x20 ADD PUSH2 0x117 JUMP JUMPDEST PUSH2 0x191 PUSH2 0x1AD CALLDATASIZE PUSH1 0x4 PUSH2 0x10AC JUMP JUMPDEST PUSH2 0x370 JUMP JUMPDEST PUSH0 SLOAD PUSH2 0x15C SWAP1 PUSH1 0x1 PUSH1 0x1 PUSH1 0xA0 SHL SUB AND DUP2 JUMP JUMPDEST PUSH2 0x191 PUSH2 0x1D2 CALLDATASIZE PUSH1 0x4 PUSH2 0x10FC JUMP JUMPDEST PUSH2 0x6D8 JUMP JUMPDEST PUSH2 0x15C PUSH32 0x0 DUP2 JUMP JUMPDEST PUSH2 0x15C PUSH32 0x0 DUP2 JUMP JUMPDEST PUSH2 0x15C PUSH32 0x0 DUP2 JUMP JUMPDEST PUSH2 0x25F PUSH2 0x25A CALLDATASIZE PUSH1 0x4 PUSH2 0x11AA JUMP JUMPDEST PUSH2 0x73B JUMP JUMPDEST PUSH1 0x40 DUP1 MLOAD PUSH1 0x1 PUSH1 0x1 PUSH1 0xA0 SHL SUB SWAP1 SWAP4 AND DUP4 MSTORE PUSH3 0xFFFFFF SWAP1 SWAP2 AND PUSH1 0x20 DUP4 ADD MSTORE ADD PUSH2 0x117 JUMP JUMPDEST PUSH2 0x2A4 PUSH2 0x290 CALLDATASIZE PUSH1 0x4 PUSH2 0x11D6 JUMP JUMPDEST PUSH1 0x3 PUSH1 0x20 MSTORE PUSH0 SWAP1 DUP2 MSTORE PUSH1 0x40 SWAP1 KECCAK256 SLOAD PUSH1 0xFF AND DUP2 JUMP JUMPDEST PUSH1 0x40 MLOAD SWAP1 ISZERO ISZERO DUP2 MSTORE PUSH1 0x20 ADD PUSH2 0x117 JUMP JUMPDEST PUSH2 0x191 PUSH2 0x1388 DUP2 JUMP JUMPDEST PUSH2 0x191 PUSH2 0x4B0 DUP2 JUMP JUMPDEST PUSH1 0x2 DUP2 DUP2 SLOAD DUP2 LT PUSH2 0x2D5 JUMPI PUSH0 DUP1 REVERT JUMPDEST SWAP1 PUSH0 MSTORE PUSH1 0x20 PUSH0 KECCAK256 SWAP1 PUSH1 0xA SWAP2 DUP3 DUP3 DIV ADD SWAP2 SWAP1 MOD PUSH1 0x3 MUL SWAP2 POP SLOAD SWAP1 PUSH2 0x100 EXP SWAP1 DIV PUSH3 0xFFFFFF AND DUP2 JUMP JUMPDEST PUSH0 SLOAD PUSH1 0x1 PUSH1 0x1 PUSH1 0xA0 SHL SUB AND CALLER EQ PUSH2 0x346 JUMPI PUSH1 0x40 MLOAD PUSH3 0x461BCD PUSH1 0xE5 SHL DUP2 MSTORE PUSH1 0x20 PUSH1 0x4 DUP3 ADD MSTORE PUSH1 0x9 PUSH1 0x24 DUP3 ADD MSTORE PUSH9 0x2737BA1037BBB732B9 PUSH1 0xB9 SHL PUSH1 0x44 DUP3 ADD MSTORE PUSH1 0x64 ADD JUMPDEST PUSH1 0x40 MLOAD DUP1 SWAP2 SUB SWAP1 REVERT JUMPDEST PUSH1 0x1 PUSH1 0x1 PUSH1 0xA0 SHL SUB SWAP2 SWAP1 SWAP2 AND PUSH0 SWAP1 DUP2 MSTORE PUSH1 0x3 PUSH1 0x20 MSTORE PUSH1 0x40 SWAP1 KECCAK256 DUP1 SLOAD PUSH1 0xFF NOT AND SWAP2 ISZERO ISZERO SWAP2 SWAP1 SWAP2 OR SWAP1 SSTORE JUMP JUMPDEST PUSH0 PUSH2 0x37C DUP6 DUP6 DUP6 PUSH2 0xA6E JUMP JUMPDEST PUSH0 PUSH2 0x387 DUP7 DUP7 PUSH2 0x73B JUMP JUMPDEST SWAP2 POP POP PUSH0 DUP1 PUSH2 0x398 DUP9 DUP9 DUP9 DUP7 PUSH2 0xB49 JUMP JUMPDEST SWAP1 SWAP3 POP SWAP1 POP PUSH0 PUSH2 0x2710 PUSH2 0x3AD PUSH2 0x1388 DUP3 PUSH2 0x120C JUMP JUMPDEST PUSH2 0x3B7 SWAP1 DUP6 PUSH2 0x1225 JUMP JUMPDEST PUSH2 0x3C1 SWAP2 SWAP1 PUSH2 0x123C JUMP JUMPDEST PUSH1 0x40 MLOAD PUSH4 0x1B63C28B PUSH1 0xE1 SHL DUP2 MSTORE CALLER PUSH1 0x4 DUP3 ADD MSTORE ADDRESS PUSH1 0x24 DUP3 ADD MSTORE PUSH1 0x1 PUSH1 0x1 PUSH1 0xA0 SHL SUB DUP10 DUP2 AND PUSH1 0x44 DUP4 ADD MSTORE DUP12 DUP2 AND PUSH1 0x64 DUP4 ADD MSTORE SWAP2 SWAP3 POP PUSH32 0x0 SWAP1 SWAP2 AND SWAP1 PUSH4 0x36C78516 SWAP1 PUSH1 0x84 ADD PUSH0 PUSH1 0x40 MLOAD DUP1 DUP4 SUB DUP2 PUSH0 DUP8 DUP1 EXTCODESIZE ISZERO DUP1 ISZERO PUSH2 0x43A JUMPI PUSH0 DUP1 REVERT JUMPDEST POP GAS CALL SWAP3 POP POP POP DUP1 ISZERO PUSH2 0x44B JUMPI POP PUSH1 0x1 JUMPDEST PUSH2 0x50D JUMPI PUSH2 0x457 PUSH2 0x125B JUMP JUMPDEST DUP1 PUSH4 0x8C379A0 SUB PUSH2 0x4AD JUMPI POP PUSH2 0x46B PUSH2 0x12AD JUMP JUMPDEST DUP1 PUSH2 0x476 JUMPI POP PUSH2 0x4AF JUMP JUMPDEST DUP1 PUSH1 0x40 MLOAD PUSH1 0x20 ADD PUSH2 0x487 SWAP2 SWAP1 PUSH2 0x1348 JUMP JUMPDEST PUSH1 0x40 DUP1 MLOAD PUSH1 0x1F NOT DUP2 DUP5 SUB ADD DUP2 MSTORE SWAP1 DUP3 SWAP1 MSTORE PUSH3 0x461BCD PUSH1 0xE5 SHL DUP3 MSTORE PUSH2 0x33D SWAP2 PUSH1 0x4 ADD PUSH2 0x136D JUMP JUMPDEST POP JUMPDEST PUSH1 0x40 MLOAD PUSH3 0x461BCD PUSH1 0xE5 SHL DUP2 MSTORE PUSH1 0x20 PUSH1 0x4 DUP3 ADD MSTORE PUSH1 0x2D PUSH1 0x24 DUP3 ADD MSTORE PUSH32 0x5472616E73666572206661696C6564202D20636865636B2062616C616E636520 PUSH1 0x44 DUP3 ADD MSTORE PUSH13 0x616E6420616C6C6F77616E6365 PUSH1 0x98 SHL PUSH1 0x64 DUP3 ADD MSTORE PUSH1 0x84 ADD PUSH2 0x33D JUMP JUMPDEST PUSH1 0x1 PUSH1 0x1 PUSH1 0xA0 SHL SUB PUSH32 0x0 AND PUSH4 0x87517C45 DUP11 PUSH32 0x0 DUP11 PUSH2 0x56B PUSH2 0x4B0 TIMESTAMP PUSH2 0x13A2 JUMP JUMPDEST PUSH1 0x40 MLOAD PUSH1 0x1 PUSH1 0x1 PUSH1 0xE0 SHL SUB NOT PUSH1 0xE0 DUP8 SWAP1 SHL AND DUP2 MSTORE PUSH1 0x1 PUSH1 0x1 PUSH1 0xA0 SHL SUB SWAP5 DUP6 AND PUSH1 0x4 DUP3 ADD MSTORE SWAP3 DUP5 AND PUSH1 0x24 DUP5 ADD MSTORE SWAP3 AND PUSH1 0x44 DUP3 ADD MSTORE PUSH6 0xFFFFFFFFFFFF SWAP1 SWAP2 AND PUSH1 0x64 DUP3 ADD MSTORE PUSH1 0x84 ADD PUSH0 PUSH1 0x40 MLOAD DUP1 DUP4 SUB DUP2 PUSH0 DUP8 DUP1 EXTCODESIZE ISZERO DUP1 ISZERO PUSH2 0x5C7 JUMPI PUSH0 DUP1 REVERT JUMPDEST POP GAS CALL ISZERO DUP1 ISZERO PUSH2 0x5D9 JUMPI RETURNDATASIZE PUSH0 DUP1 RETURNDATACOPY RETURNDATASIZE PUSH0 REVERT JUMPDEST POP POP POP POP PUSH2 0x5EB DUP10 DUP10 DUP10 DUP5 DUP11 DUP10 PUSH2 0xF37 JUMP JUMPDEST SWAP5 POP DUP1 DUP6 LT ISZERO PUSH2 0x63D JUMPI PUSH1 0x40 MLOAD PUSH3 0x461BCD PUSH1 0xE5 SHL DUP2 MSTORE PUSH1 0x20 PUSH1 0x4 DUP3 ADD MSTORE PUSH1 0x1A PUSH1 0x24 DUP3 ADD MSTORE PUSH32 0x496E73756666696369656E74206F757470757420616D6F756E74000000000000 PUSH1 0x44 DUP3 ADD MSTORE PUSH1 0x64 ADD PUSH2 0x33D JUMP JUMPDEST PUSH0 DUP3 DUP2 MSTORE PUSH1 0x4 PUSH1 0x20 SWAP1 DUP2 MSTORE PUSH1 0x40 DUP1 DUP4 KECCAK256 DUP4 DUP2 SSTORE PUSH1 0x1 DUP2 ADD SWAP4 SWAP1 SWAP4 SSTORE PUSH1 0x2 SWAP1 SWAP3 ADD DUP1 SLOAD PUSH3 0xFFFFFF NOT AND SWAP1 SSTORE DUP2 MLOAD PUSH1 0x1 PUSH1 0x1 PUSH1 0xA0 SHL SUB DUP1 DUP14 AND DUP3 MSTORE DUP1 DUP13 AND SWAP3 DUP3 ADD SWAP3 SWAP1 SWAP3 MSTORE SWAP2 DUP3 ADD DUP10 SWAP1 MSTORE PUSH1 0x60 DUP3 ADD DUP8 SWAP1 MSTORE DUP8 AND PUSH1 0x80 DUP3 ADD MSTORE PUSH3 0xFFFFFF DUP6 AND PUSH1 0xA0 DUP3 ADD MSTORE PUSH32 0x4C0BB63F8D47428A342C2A12F0DFD2A4C6910D09D38D94AD5593619C892931B8 SWAP1 PUSH1 0xC0 ADD PUSH1 0x40 MLOAD DUP1 SWAP2 SUB SWAP1 LOG1 POP POP POP POP SWAP5 SWAP4 POP POP POP POP JUMP JUMPDEST PUSH1 0x1 SLOAD PUSH0 SWAP1 PUSH1 0x1 PUSH1 0x1 PUSH1 0xA0 SHL SUB AND CALLER EQ PUSH2 0x724 JUMPI PUSH1 0x40 MLOAD PUSH3 0x461BCD PUSH1 0xE5 SHL DUP2 MSTORE PUSH1 0x20 PUSH1 0x4 DUP3 ADD MSTORE PUSH1 0xD PUSH1 0x24 DUP3 ADD MSTORE PUSH13 0x4E6F74204149204F7261636C65 PUSH1 0x98 SHL PUSH1 0x44 DUP3 ADD MSTORE PUSH1 0x64 ADD PUSH2 0x33D JUMP JUMPDEST PUSH2 0x730 DUP8 DUP8 DUP8 DUP8 PUSH2 0x370 JUMP JUMPDEST SWAP8 SWAP7 POP POP POP POP POP POP POP JUMP JUMPDEST PUSH1 0x40 DUP1 MLOAD PUSH1 0x80 DUP2 ADD DUP3 MSTORE PUSH2 0x1F4 DUP2 MSTORE PUSH2 0xBB8 PUSH1 0x20 DUP3 ADD MSTORE PUSH1 0x64 SWAP2 DUP2 ADD SWAP2 SWAP1 SWAP2 MSTORE PUSH2 0x2710 PUSH1 0x60 DUP3 ADD MSTORE PUSH0 SWAP1 DUP2 SWAP1 DUP2 SWAP1 DUP2 SWAP1 DUP2 JUMPDEST PUSH1 0x4 DUP2 LT ISZERO PUSH2 0x8D1 JUMPI PUSH0 PUSH32 0x0 PUSH1 0x1 PUSH1 0x1 PUSH1 0xA0 SHL SUB AND PUSH4 0x1698EE82 DUP11 DUP11 DUP7 DUP7 PUSH1 0x4 DUP2 LT PUSH2 0x7BA JUMPI PUSH2 0x7BA PUSH2 0x13B5 JUMP JUMPDEST PUSH1 0x20 MUL ADD MLOAD PUSH1 0x40 MLOAD DUP5 PUSH4 0xFFFFFFFF AND PUSH1 0xE0 SHL DUP2 MSTORE PUSH1 0x4 ADD PUSH2 0x7DD SWAP4 SWAP3 SWAP2 SWAP1 PUSH2 0x13C9 JUMP JUMPDEST PUSH1 0x20 PUSH1 0x40 MLOAD DUP1 DUP4 SUB DUP2 DUP7 GAS STATICCALL ISZERO DUP1 ISZERO PUSH2 0x7F8 JUMPI RETURNDATASIZE PUSH0 DUP1 RETURNDATACOPY RETURNDATASIZE PUSH0 REVERT JUMPDEST POP POP POP POP PUSH1 0x40 MLOAD RETURNDATASIZE PUSH1 0x1F NOT PUSH1 0x1F DUP3 ADD AND DUP3 ADD DUP1 PUSH1 0x40 MSTORE POP DUP2 ADD SWAP1 PUSH2 0x81C SWAP2 SWAP1 PUSH2 0x13F1 JUMP JUMPDEST SWAP1 POP PUSH1 0x1 PUSH1 0x1 PUSH1 0xA0 SHL SUB DUP2 AND ISZERO PUSH2 0x8C8 JUMPI PUSH1 0x40 MLOAD PUSH4 0x70A08231 PUSH1 0xE0 SHL DUP2 MSTORE PUSH1 0x1 PUSH1 0x1 PUSH1 0xA0 SHL SUB DUP3 DUP2 AND PUSH1 0x4 DUP4 ADD MSTORE PUSH0 SWAP2 SWAP1 DUP12 AND SWAP1 PUSH4 0x70A08231 SWAP1 PUSH1 0x24 ADD PUSH1 0x20 PUSH1 0x40 MLOAD DUP1 DUP4 SUB DUP2 DUP7 GAS STATICCALL ISZERO DUP1 ISZERO PUSH2 0x874 JUMPI RETURNDATASIZE PUSH0 DUP1 RETURNDATACOPY RETURNDATASIZE PUSH0 REVERT JUMPDEST POP POP POP POP PUSH1 0x40 MLOAD RETURNDATASIZE PUSH1 0x1F NOT PUSH1 0x1F DUP3 ADD AND DUP3 ADD DUP1 PUSH1 0x40 MSTORE POP DUP2 ADD SWAP1 PUSH2 0x898 SWAP2 SWAP1 PUSH2 0x140C JUMP JUMPDEST SWAP1 POP DUP6 DUP2 GT ISZERO PUSH2 0x8C6 JUMPI DUP1 SWAP6 POP DUP2 SWAP8 POP DUP4 DUP4 PUSH1 0x4 DUP2 LT PUSH2 0x8BA JUMPI PUSH2 0x8BA PUSH2 0x13B5 JUMP JUMPDEST PUSH1 0x20 MUL ADD MLOAD SWAP7 POP PUSH1 0x1 SWAP5 POP JUMPDEST POP JUMPDEST POP PUSH1 0x1 ADD PUSH2 0x76D JUMP JUMPDEST POP DUP2 PUSH2 0x9CA JUMPI PUSH0 JUMPDEST PUSH1 0x4 DUP2 LT ISZERO PUSH2 0x9C8 JUMPI PUSH0 PUSH32 0x0 PUSH1 0x1 PUSH1 0x1 PUSH1 0xA0 SHL SUB AND PUSH4 0x1698EE82 DUP11 DUP11 DUP7 DUP7 PUSH1 0x4 DUP2 LT PUSH2 0x926 JUMPI PUSH2 0x926 PUSH2 0x13B5 JUMP JUMPDEST PUSH1 0x20 MUL ADD MLOAD PUSH1 0x40 MLOAD DUP5 PUSH4 0xFFFFFFFF AND PUSH1 0xE0 SHL DUP2 MSTORE PUSH1 0x4 ADD PUSH2 0x949 SWAP4 SWAP3 SWAP2 SWAP1 PUSH2 0x13C9 JUMP JUMPDEST PUSH1 0x20 PUSH1 0x40 MLOAD DUP1 DUP4 SUB DUP2 DUP7 GAS STATICCALL ISZERO DUP1 ISZERO PUSH2 0x964 JUMPI RETURNDATASIZE PUSH0 DUP1 RETURNDATACOPY RETURNDATASIZE PUSH0 REVERT JUMPDEST POP POP POP POP PUSH1 0x40 MLOAD RETURNDATASIZE PUSH1 0x1F NOT PUSH1 0x1F DUP3 ADD AND DUP3 ADD DUP1 PUSH1 0x40 MSTORE POP DUP2 ADD SWAP1 PUSH2 0x988 SWAP2 SWAP1 PUSH2 0x13F1 JUMP JUMPDEST SWAP1 POP PUSH1 0x1 PUSH1 0x1 PUSH1 0xA0 SHL SUB DUP2 AND ISZERO PUSH2 0x9BF JUMPI DUP1 SWAP7 POP DUP3 DUP3 PUSH1 0x4 DUP2 LT PUSH2 0x9AE JUMPI PUSH2 0x9AE PUSH2 0x13B5 JUMP JUMPDEST PUSH1 0x20 MUL ADD MLOAD SWAP6 POP PUSH1 0x1 SWAP4 POP POP PUSH2 0x9C8 JUMP JUMPDEST POP PUSH1 0x1 ADD PUSH2 0x8D9 JUMP JUMPDEST POP JUMPDEST DUP2 PUSH2 0xA17 JUMPI PUSH1 0x40 MLOAD PUSH3 0x461BCD PUSH1 0xE5 SHL DUP2 MSTORE PUSH1 0x20 PUSH1 0x4 DUP3 ADD MSTORE PUSH1 0x1C PUSH1 0x24 DUP3 ADD MSTORE PUSH32 0x4E6F20706F6F6C20666F756E6420666F7220746F6B656E207061697200000000 PUSH1 0x44 DUP3 ADD MSTORE PUSH1 0x64 ADD PUSH2 0x33D JUMP JUMPDEST PUSH1 0x1 PUSH1 0x1 PUSH1 0xA0 SHL SUB DUP6 AND PUSH2 0xA64 JUMPI PUSH1 0x40 MLOAD PUSH3 0x461BCD PUSH1 0xE5 SHL DUP2 MSTORE PUSH1 0x20 PUSH1 0x4 DUP3 ADD MSTORE PUSH1 0x14 PUSH1 0x24 DUP3 ADD MSTORE PUSH20 0x496E76616C696420706F6F6C2061646472657373 PUSH1 0x60 SHL PUSH1 0x44 DUP3 ADD MSTORE PUSH1 0x64 ADD PUSH2 0x33D JUMP JUMPDEST POP POP POP SWAP3 POP SWAP3 SWAP1 POP JUMP JUMPDEST PUSH1 0x1 PUSH1 0x1 PUSH1 0xA0 SHL SUB DUP4 AND PUSH0 SWAP1 DUP2 MSTORE PUSH1 0x3 PUSH1 0x20 MSTORE PUSH1 0x40 SWAP1 KECCAK256 SLOAD PUSH1 0xFF AND DUP1 ISZERO PUSH2 0xAAC JUMPI POP PUSH1 0x1 PUSH1 0x1 PUSH1 0xA0 SHL SUB DUP3 AND PUSH0 SWAP1 DUP2 MSTORE PUSH1 0x3 PUSH1 0x20 MSTORE PUSH1 0x40 SWAP1 KECCAK256 SLOAD PUSH1 0xFF AND JUMPDEST PUSH2 0xAF1 JUMPI PUSH1 0x40 MLOAD PUSH3 0x461BCD PUSH1 0xE5 SHL DUP2 MSTORE PUSH1 0x20 PUSH1 0x4 DUP3 ADD MSTORE PUSH1 0x16 PUSH1 0x24 DUP3 ADD MSTORE PUSH22 0x151BDAD95B9CC81B9BDD081DDA1A5D195B1A5CDD1959 PUSH1 0x52 SHL PUSH1 0x44 DUP3 ADD MSTORE PUSH1 0x64 ADD PUSH2 0x33D JUMP JUMPDEST PUSH3 0x186A0 DUP2 LT ISZERO PUSH2 0xB44 JUMPI PUSH1 0x40 MLOAD PUSH3 0x461BCD PUSH1 0xE5 SHL DUP2 MSTORE PUSH1 0x20 PUSH1 0x4 DUP3 ADD MSTORE PUSH1 0x1D PUSH1 0x24 DUP3 ADD MSTORE PUSH32 0x416D6F756E7420746F6F206C6F7720286D696E20302E31205553444329000000 PUSH1 0x44 DUP3 ADD MSTORE PUSH1 0x64 ADD PUSH2 0x33D JUMP JUMPDEST POP POP POP JUMP JUMPDEST PUSH0 DUP1 PUSH0 PUSH32 0x0 PUSH1 0x1 PUSH1 0x1 PUSH1 0xA0 SHL SUB AND PUSH4 0x1698EE82 DUP9 DUP9 DUP8 PUSH1 0x40 MLOAD DUP5 PUSH4 0xFFFFFFFF AND PUSH1 0xE0 SHL DUP2 MSTORE PUSH1 0x4 ADD PUSH2 0xB9C SWAP4 SWAP3 SWAP2 SWAP1 PUSH2 0x13C9 JUMP JUMPDEST PUSH1 0x20 PUSH1 0x40 MLOAD DUP1 DUP4 SUB DUP2 DUP7 GAS STATICCALL ISZERO DUP1 ISZERO PUSH2 0xBB7 JUMPI RETURNDATASIZE PUSH0 DUP1 RETURNDATACOPY RETURNDATASIZE PUSH0 REVERT JUMPDEST POP POP POP POP PUSH1 0x40 MLOAD RETURNDATASIZE PUSH1 0x1F NOT PUSH1 0x1F DUP3 ADD AND DUP3 ADD DUP1 PUSH1 0x40 MSTORE POP DUP2 ADD SWAP1 PUSH2 0xBDB SWAP2 SWAP1 PUSH2 0x13F1 JUMP JUMPDEST SWAP1 POP PUSH1 0x1 PUSH1 0x1 PUSH1 0xA0 SHL SUB DUP2 AND PUSH2 0xC29 JUMPI PUSH1 0x40 MLOAD PUSH3 0x461BCD PUSH1 0xE5 SHL DUP2 MSTORE PUSH1 0x20 PUSH1 0x4 DUP3 ADD MSTORE PUSH1 0x13 PUSH1 0x24 DUP3 ADD MSTORE PUSH19 0x141BDBDB08191BD95CC81B9BDD08195E1A5CDD PUSH1 0x6A SHL PUSH1 0x44 DUP3 ADD MSTORE PUSH1 0x64 ADD PUSH2 0x33D JUMP JUMPDEST PUSH1 0x40 MLOAD PUSH4 0x70A08231 PUSH1 0xE0 SHL DUP2 MSTORE PUSH1 0x1 PUSH1 0x1 PUSH1 0xA0 SHL SUB DUP3 DUP2 AND PUSH1 0x4 DUP4 ADD MSTORE PUSH0 SWAP2 SWAP1 DUP10 AND SWAP1 PUSH4 0x70A08231 SWAP1 PUSH1 0x24 ADD PUSH1 0x20 PUSH1 0x40 MLOAD DUP1 DUP4 SUB DUP2 DUP7 GAS STATICCALL ISZERO DUP1 ISZERO PUSH2 0xC70 JUMPI RETURNDATASIZE PUSH0 DUP1 RETURNDATACOPY RETURNDATASIZE PUSH0 REVERT JUMPDEST POP POP POP POP PUSH1 0x40 MLOAD RETURNDATASIZE PUSH1 0x1F NOT PUSH1 0x1F DUP3 ADD AND DUP3 ADD DUP1 PUSH1 0x40 MSTORE POP DUP2 ADD SWAP1 PUSH2 0xC94 SWAP2 SWAP1 PUSH2 0x140C JUMP JUMPDEST SWAP1 POP PUSH0 DUP2 GT PUSH2 0xCDD JUMPI PUSH1 0x40 MLOAD PUSH3 0x461BCD PUSH1 0xE5 SHL DUP2 MSTORE PUSH1 0x20 PUSH1 0x4 DUP3 ADD MSTORE PUSH1 0x15 PUSH1 0x24 DUP3 ADD MSTORE PUSH21 0x506F6F6C20686173206E6F206C6971756964697479 PUSH1 0x58 SHL PUSH1 0x44 DUP3 ADD MSTORE PUSH1 0x64 ADD PUSH2 0x33D JUMP JUMPDEST PUSH1 0x40 MLOAD PUSH4 0xF7729D43 PUSH1 0xE0 SHL DUP2 MSTORE PUSH1 0x1 PUSH1 0x1 PUSH1 0xA0 SHL SUB DUP10 DUP2 AND PUSH1 0x4 DUP4 ADD MSTORE DUP9 DUP2 AND PUSH1 0x24 DUP4 ADD MSTORE PUSH3 0xFFFFFF DUP8 AND PUSH1 0x44 DUP4 ADD MSTORE PUSH1 0x64 DUP3 ADD DUP9 SWAP1 MSTORE PUSH0 PUSH1 0x84 DUP4 ADD MSTORE PUSH32 0x0 AND SWAP1 PUSH4 0xF7729D43 SWAP1 PUSH1 0xA4 ADD PUSH1 0x80 PUSH1 0x40 MLOAD DUP1 DUP4 SUB DUP2 PUSH0 DUP8 GAS CALL SWAP3 POP POP POP DUP1 ISZERO PUSH2 0xD80 JUMPI POP PUSH1 0x40 DUP1 MLOAD PUSH1 0x1F RETURNDATASIZE SWAP1 DUP2 ADD PUSH1 0x1F NOT AND DUP3 ADD SWAP1 SWAP3 MSTORE PUSH2 0xD7D SWAP2 DUP2 ADD SWAP1 PUSH2 0x1423 JUMP JUMPDEST PUSH1 0x1 JUMPDEST PUSH2 0xE25 JUMPI PUSH2 0xD8C PUSH2 0x125B JUMP JUMPDEST DUP1 PUSH4 0x8C379A0 SUB PUSH2 0xDBC JUMPI POP PUSH2 0xDA0 PUSH2 0x12AD JUMP JUMPDEST DUP1 PUSH2 0xDAB JUMPI POP PUSH2 0xDBE JUMP JUMPDEST DUP1 PUSH1 0x40 MLOAD PUSH1 0x20 ADD PUSH2 0x487 SWAP2 SWAP1 PUSH2 0x1472 JUMP JUMPDEST POP JUMPDEST PUSH1 0x40 MLOAD PUSH3 0x461BCD PUSH1 0xE5 SHL DUP2 MSTORE PUSH1 0x20 PUSH1 0x4 DUP3 ADD MSTORE PUSH1 0x36 PUSH1 0x24 DUP3 ADD MSTORE PUSH32 0x506F6F6C206D6179206E6F7420626520696E697469616C697A6564202D207472 PUSH1 0x44 DUP3 ADD MSTORE PUSH22 0x3C9030903234B33332B932B73A103332B2903A34B2B9 PUSH1 0x51 SHL PUSH1 0x64 DUP3 ADD MSTORE PUSH1 0x84 ADD PUSH2 0x33D JUMP JUMPDEST PUSH0 DUP5 GT PUSH2 0xE74 JUMPI PUSH1 0x40 MLOAD PUSH3 0x461BCD PUSH1 0xE5 SHL DUP2 MSTORE PUSH1 0x20 PUSH1 0x4 DUP3 ADD MSTORE PUSH1 0x1A PUSH1 0x24 DUP3 ADD MSTORE PUSH32 0x51756F74652072657475726E6564207A65726F20616D6F756E74000000000000 PUSH1 0x44 DUP3 ADD MSTORE PUSH1 0x64 ADD PUSH2 0x33D JUMP JUMPDEST PUSH1 0x40 MLOAD PUSH12 0xFFFFFFFFFFFFFFFFFFFFFFFF NOT PUSH1 0x60 DUP15 DUP2 SHL DUP3 AND PUSH1 0x20 DUP5 ADD MSTORE DUP14 SWAP1 SHL AND PUSH1 0x34 DUP3 ADD MSTORE PUSH1 0x48 DUP2 ADD DUP12 SWAP1 MSTORE PUSH1 0x1 PUSH1 0x1 PUSH1 0xE8 SHL SUB NOT PUSH1 0xE8 DUP12 SWAP1 SHL AND PUSH1 0x68 DUP3 ADD MSTORE PUSH1 0x6B ADD PUSH1 0x40 DUP1 MLOAD DUP1 DUP4 SUB PUSH1 0x1F NOT ADD DUP2 MSTORE DUP3 DUP3 MSTORE DUP1 MLOAD PUSH1 0x20 SWAP2 DUP3 ADD KECCAK256 PUSH1 0x60 DUP5 ADD DUP4 MSTORE TIMESTAMP DUP5 MSTORE DUP2 DUP5 ADD DUP9 DUP2 MSTORE PUSH3 0xFFFFFF DUP15 DUP2 AND DUP7 DUP7 ADD SWAP1 DUP2 MSTORE PUSH0 DUP5 DUP2 MSTORE PUSH1 0x4 SWAP1 SWAP6 MSTORE SWAP5 SWAP1 SWAP4 KECCAK256 SWAP5 MLOAD DUP6 SSTORE MLOAD PUSH1 0x1 DUP6 ADD SSTORE SWAP2 MLOAD PUSH1 0x2 SWAP1 SWAP4 ADD DUP1 SLOAD PUSH3 0xFFFFFF NOT AND SWAP4 SWAP1 SWAP2 AND SWAP3 SWAP1 SWAP3 OR SWAP1 SWAP2 SSTORE SWAP4 SWAP8 POP SWAP3 SWAP6 POP PUSH2 0xF2E SWAP5 POP POP POP POP POP JUMP JUMPDEST SWAP5 POP SWAP5 SWAP3 POP POP POP JUMP JUMPDEST PUSH0 DUP1 PUSH1 0x40 MLOAD DUP1 PUSH2 0x100 ADD PUSH1 0x40 MSTORE DUP1 DUP10 PUSH1 0x1 PUSH1 0x1 PUSH1 0xA0 SHL SUB AND DUP2 MSTORE PUSH1 0x20 ADD DUP9 PUSH1 0x1 PUSH1 0x1 PUSH1 0xA0 SHL SUB AND DUP2 MSTORE PUSH1 0x20 ADD DUP5 PUSH3 0xFFFFFF AND DUP2 MSTORE PUSH1 0x20 ADD DUP6 PUSH1 0x1 PUSH1 0x1 PUSH1 0xA0 SHL SUB AND DUP2 MSTORE PUSH1 0x20 ADD PUSH2 0x4B0 TIMESTAMP PUSH2 0xF8B SWAP2 SWAP1 PUSH2 0x13A2 JUMP JUMPDEST DUP2 MSTORE PUSH1 0x20 ADD DUP8 DUP2 MSTORE PUSH1 0x20 ADD DUP7 DUP2 MSTORE PUSH1 0x20 ADD PUSH0 PUSH1 0x1 PUSH1 0x1 PUSH1 0xA0 SHL SUB AND DUP2 MSTORE POP SWAP1 POP PUSH32 0x0 PUSH1 0x1 PUSH1 0x1 PUSH1 0xA0 SHL SUB AND PUSH4 0x414BF389 DUP3 PUSH1 0x40 MLOAD DUP3 PUSH4 0xFFFFFFFF AND PUSH1 0xE0 SHL DUP2 MSTORE PUSH1 0x4 ADD PUSH2 0xFF7 SWAP2 SWAP1 PUSH2 0x1494 JUMP JUMPDEST PUSH1 0x20 PUSH1 0x40 MLOAD DUP1 DUP4 SUB DUP2 PUSH0 DUP8 GAS CALL ISZERO DUP1 ISZERO PUSH2 0x1013 JUMPI RETURNDATASIZE PUSH0 DUP1 RETURNDATACOPY RETURNDATASIZE PUSH0 REVERT JUMPDEST POP POP POP POP PUSH1 0x40 MLOAD RETURNDATASIZE PUSH1 0x1F NOT PUSH1 0x1F DUP3 ADD AND DUP3 ADD DUP1 PUSH1 0x40 MSTORE POP DUP2 ADD SWAP1 PUSH2 0x1037 SWAP2 SWAP1 PUSH2 0x140C JUMP JUMPDEST SWAP9 SWAP8 POP POP POP POP POP POP POP POP JUMP JUMPDEST PUSH0 PUSH1 0x20 DUP3 DUP5 SUB SLT ISZERO PUSH2 0x1053 JUMPI PUSH0 DUP1 REVERT JUMPDEST POP CALLDATALOAD SWAP2 SWAP1 POP JUMP JUMPDEST PUSH1 0x1 PUSH1 0x1 PUSH1 0xA0 SHL SUB DUP2 AND DUP2 EQ PUSH2 0x106E JUMPI PUSH0 DUP1 REVERT JUMPDEST POP JUMP JUMPDEST PUSH0 DUP1 PUSH1 0x40 DUP4 DUP6 SUB SLT ISZERO PUSH2 0x1082 JUMPI PUSH0 DUP1 REVERT JUMPDEST DUP3 CALLDATALOAD PUSH2 0x108D DUP2 PUSH2 0x105A JUMP JUMPDEST SWAP2 POP PUSH1 0x20 DUP4 ADD CALLDATALOAD DUP1 ISZERO ISZERO DUP2 EQ PUSH2 0x10A1 JUMPI PUSH0 DUP1 REVERT JUMPDEST DUP1 SWAP2 POP POP SWAP3 POP SWAP3 SWAP1 POP JUMP JUMPDEST PUSH0 DUP1 PUSH0 DUP1 PUSH1 0x80 DUP6 DUP8 SUB SLT ISZERO PUSH2 0x10BF JUMPI PUSH0 DUP1 REVERT JUMPDEST DUP5 CALLDATALOAD PUSH2 0x10CA DUP2 PUSH2 0x105A JUMP JUMPDEST SWAP4 POP PUSH1 0x20 DUP6 ADD CALLDATALOAD PUSH2 0x10DA DUP2 PUSH2 0x105A JUMP JUMPDEST SWAP3 POP PUSH1 0x40 DUP6 ADD CALLDATALOAD SWAP2 POP PUSH1 0x60 DUP6 ADD CALLDATALOAD PUSH2 0x10F1 DUP2 PUSH2 0x105A JUMP JUMPDEST SWAP4 SWAP7 SWAP3 SWAP6 POP SWAP1 SWAP4 POP POP JUMP JUMPDEST PUSH0 DUP1 PUSH0 DUP1 PUSH0 DUP1 PUSH1 0xA0 DUP8 DUP10 SUB SLT ISZERO PUSH2 0x1111 JUMPI PUSH0 DUP1 REVERT JUMPDEST DUP7 CALLDATALOAD PUSH2 0x111C DUP2 PUSH2 0x105A JUMP JUMPDEST SWAP6 POP PUSH1 0x20 DUP8 ADD CALLDATALOAD PUSH2 0x112C DUP2 PUSH2 0x105A JUMP JUMPDEST SWAP5 POP PUSH1 0x40 DUP8 ADD CALLDATALOAD SWAP4 POP PUSH1 0x60 DUP8 ADD CALLDATALOAD PUSH2 0x1143 DUP2 PUSH2 0x105A JUMP JUMPDEST SWAP3 POP PUSH1 0x80 DUP8 ADD CALLDATALOAD PUSH8 0xFFFFFFFFFFFFFFFF DUP2 GT ISZERO PUSH2 0x115E JUMPI PUSH0 DUP1 REVERT JUMPDEST DUP8 ADD PUSH1 0x1F DUP2 ADD DUP10 SGT PUSH2 0x116E JUMPI PUSH0 DUP1 REVERT JUMPDEST DUP1 CALLDATALOAD PUSH8 0xFFFFFFFFFFFFFFFF DUP2 GT ISZERO PUSH2 0x1184 JUMPI PUSH0 DUP1 REVERT JUMPDEST DUP10 PUSH1 0x20 DUP3 DUP5 ADD ADD GT ISZERO PUSH2 0x1195 JUMPI PUSH0 DUP1 REVERT JUMPDEST PUSH1 0x20 DUP3 ADD SWAP4 POP DUP1 SWAP3 POP POP POP SWAP3 SWAP6 POP SWAP3 SWAP6 POP SWAP3 SWAP6 JUMP JUMPDEST PUSH0 DUP1 PUSH1 0x40 DUP4 DUP6 SUB SLT ISZERO PUSH2 0x11BB JUMPI PUSH0 DUP1 REVERT JUMPDEST DUP3 CALLDATALOAD PUSH2 0x11C6 DUP2 PUSH2 0x105A JUMP JUMPDEST SWAP2 POP PUSH1 0x20 DUP4 ADD CALLDATALOAD PUSH2 0x10A1 DUP2 PUSH2 0x105A JUMP JUMPDEST PUSH0 PUSH1 0x20 DUP3 DUP5 SUB SLT ISZERO PUSH2 0x11E6 JUMPI PUSH0 DUP1 REVERT JUMPDEST DUP2 CALLDATALOAD PUSH2 0x11F1 DUP2 PUSH2 0x105A JUMP JUMPDEST SWAP4 SWAP3 POP POP POP JUMP JUMPDEST PUSH4 0x4E487B71 PUSH1 0xE0 SHL PUSH0 MSTORE PUSH1 0x11 PUSH1 0x4 MSTORE PUSH1 0x24 PUSH0 REVERT JUMPDEST DUP2 DUP2 SUB DUP2 DUP2 GT ISZERO PUSH2 0x121F JUMPI PUSH2 0x121F PUSH2 0x11F8 JUMP JUMPDEST SWAP3 SWAP2 POP POP JUMP JUMPDEST DUP1 DUP3 MUL DUP2 ISZERO DUP3 DUP3 DIV DUP5 EQ OR PUSH2 0x121F JUMPI PUSH2 0x121F PUSH2 0x11F8 JUMP JUMPDEST PUSH0 DUP3 PUSH2 0x1256 JUMPI PUSH4 0x4E487B71 PUSH1 0xE0 SHL PUSH0 MSTORE PUSH1 0x12 PUSH1 0x4 MSTORE PUSH1 0x24 PUSH0 REVERT JUMPDEST POP DIV SWAP1 JUMP JUMPDEST PUSH0 PUSH1 0x3 RETURNDATASIZE GT ISZERO PUSH2 0x1271 JUMPI PUSH1 0x4 PUSH0 DUP1 RETURNDATACOPY POP PUSH0 MLOAD PUSH1 0xE0 SHR JUMPDEST SWAP1 JUMP JUMPDEST PUSH1 0x1F DUP3 ADD PUSH1 0x1F NOT AND DUP2 ADD PUSH8 0xFFFFFFFFFFFFFFFF DUP2 GT DUP3 DUP3 LT OR ISZERO PUSH2 0x12A6 JUMPI PUSH4 0x4E487B71 PUSH1 0xE0 SHL PUSH0 MSTORE PUSH1 0x41 PUSH1 0x4 MSTORE PUSH1 0x24 PUSH0 REVERT JUMPDEST PUSH1 0x40 MSTORE POP POP JUMP JUMPDEST PUSH0 PUSH1 0x44 RETURNDATASIZE LT ISZERO PUSH2 0x12BA JUMPI SWAP1 JUMP JUMPDEST PUSH1 0x40 MLOAD RETURNDATASIZE PUSH1 0x3 NOT ADD PUSH1 0x4 DUP3 RETURNDATACOPY DUP1 MLOAD RETURNDATASIZE PUSH1 0x24 DUP3 ADD GT PUSH8 0xFFFFFFFFFFFFFFFF DUP3 GT OR ISZERO PUSH2 0x12E4 JUMPI POP POP SWAP1 JUMP JUMPDEST DUP1 DUP3 ADD DUP1 MLOAD PUSH8 0xFFFFFFFFFFFFFFFF DUP2 GT ISZERO PUSH2 0x1300 JUMPI POP POP POP POP SWAP1 JUMP JUMPDEST RETURNDATASIZE DUP5 ADD PUSH1 0x3 NOT ADD DUP3 DUP3 ADD PUSH1 0x20 ADD GT ISZERO PUSH2 0x131A JUMPI POP POP POP POP SWAP1 JUMP JUMPDEST PUSH2 0x1329 PUSH1 0x20 DUP3 DUP6 ADD ADD DUP6 PUSH2 0x1274 JUMP JUMPDEST POP SWAP4 SWAP3 POP POP POP JUMP JUMPDEST PUSH0 DUP2 MLOAD DUP1 PUSH1 0x20 DUP5 ADD DUP6 MCOPY PUSH0 SWAP4 ADD SWAP3 DUP4 MSTORE POP SWAP1 SWAP2 SWAP1 POP JUMP JUMPDEST PUSH17 0x2A3930B739B332B9103330B4B632B21D1 PUSH1 0x7D SHL DUP2 MSTORE PUSH0 PUSH2 0x11F1 PUSH1 0x11 DUP4 ADD DUP5 PUSH2 0x1331 JUMP JUMPDEST PUSH1 0x20 DUP2 MSTORE PUSH0 DUP3 MLOAD DUP1 PUSH1 0x20 DUP5 ADD MSTORE DUP1 PUSH1 0x20 DUP6 ADD PUSH1 0x40 DUP6 ADD MCOPY PUSH0 PUSH1 0x40 DUP3 DUP6 ADD ADD MSTORE PUSH1 0x40 PUSH1 0x1F NOT PUSH1 0x1F DUP4 ADD AND DUP5 ADD ADD SWAP2 POP POP SWAP3 SWAP2 POP POP JUMP JUMPDEST DUP1 DUP3 ADD DUP1 DUP3 GT ISZERO PUSH2 0x121F JUMPI PUSH2 0x121F PUSH2 0x11F8 JUMP JUMPDEST PUSH4 0x4E487B71 PUSH1 0xE0 SHL PUSH0 MSTORE PUSH1 0x32 PUSH1 0x4 MSTORE PUSH1 0x24 PUSH0 REVERT JUMPDEST PUSH1 0x1 PUSH1 0x1 PUSH1 0xA0 SHL SUB SWAP4 DUP5 AND DUP2 MSTORE SWAP2 SWAP1 SWAP3 AND PUSH1 0x20 DUP3 ADD MSTORE PUSH3 0xFFFFFF SWAP1 SWAP2 AND PUSH1 0x40 DUP3 ADD MSTORE PUSH1 0x60 ADD SWAP1 JUMP JUMPDEST PUSH0 PUSH1 0x20 DUP3 DUP5 SUB SLT ISZERO PUSH2 0x1401 JUMPI PUSH0 DUP1 REVERT JUMPDEST DUP2 MLOAD PUSH2 0x11F1 DUP2 PUSH2 0x105A JUMP JUMPDEST PUSH0 PUSH1 0x20 DUP3 DUP5 SUB SLT ISZERO PUSH2 0x141C JUMPI PUSH0 DUP1 REVERT JUMPDEST POP MLOAD SWAP2 SWAP1 POP JUMP JUMPDEST PUSH0 DUP1 PUSH0 DUP1 PUSH1 0x80 DUP6 DUP8 SUB SLT ISZERO PUSH2 0x1436 JUMPI PUSH0 DUP1 REVERT JUMPDEST DUP5 MLOAD PUSH1 0x20 DUP7 ADD MLOAD SWAP1 SWAP5 POP PUSH2 0x1449 DUP2 PUSH2 0x105A JUMP JUMPDEST PUSH1 0x40 DUP7 ADD MLOAD SWAP1 SWAP4 POP PUSH4 0xFFFFFFFF DUP2 AND DUP2 EQ PUSH2 0x1462 JUMPI PUSH0 DUP1 REVERT JUMPDEST PUSH1 0x60 SWAP6 SWAP1 SWAP6 ADD MLOAD SWAP4 SWAP7 SWAP3 SWAP6 POP POP POP JUMP JUMPDEST PUSH14 0x28BAB7BA32903330B4B632B21D1 PUSH1 0x95 SHL DUP2 MSTORE PUSH0 PUSH2 0x11F1 PUSH1 0xE DUP4 ADD DUP5 PUSH2 0x1331 JUMP JUMPDEST DUP2 MLOAD PUSH1 0x1 PUSH1 0x1 PUSH1 0xA0 SHL SUB SWAP1 DUP2 AND DUP3 MSTORE PUSH1 0x20 DUP1 DUP5 ADD MLOAD DUP3 AND SWAP1 DUP4 ADD MSTORE PUSH1 0x40 DUP1 DUP5 ADD MLOAD PUSH3 0xFFFFFF AND SWAP1 DUP4 ADD MSTORE PUSH1 0x60 DUP1 DUP5 ADD MLOAD SWAP2 DUP3 AND SWAP1 DUP4 ADD MSTORE PUSH2 0x100 DUP3 ADD SWAP1 POP PUSH1 0x80 DUP4 ADD MLOAD PUSH1 0x80 DUP4 ADD MSTORE PUSH1 0xA0 DUP4 ADD MLOAD PUSH1 0xA0 DUP4 ADD MSTORE PUSH1 0xC0 DUP4 ADD MLOAD PUSH1 0xC0 DUP4 ADD MSTORE PUSH1 0xE0 DUP4 ADD MLOAD PUSH2 0x150A PUSH1 0xE0 DUP5 ADD DUP3 PUSH1 0x1 PUSH1 0x1 PUSH1 0xA0 SHL SUB AND SWAP1 MSTORE JUMP JUMPDEST POP SWAP3 SWAP2 POP POP JUMP INVALID LOG2 PUSH5 0x6970667358 0x22 SLT KECCAK256 RETURNDATASIZE EXP EQ 0xDB PUSH8 0x1FF9BF472DCD8F9B LOG1 SSTORE PUSH5 0xC75C86DB58 PUSH14 0x1DBBF6CEAB6E3560466C64736F6C PUSH4 0x4300081A STOP CALLER "
		},
		"gasEstimates": {
			"creation": {
				"codeDepositCost": "1089400",
				"executionCost": "infinite",
				"totalCost": "infinite"
			},
			"external": {
				"DEADLINE_EXTENSION()": "282",
				"MAX_SLIPPAGE()": "260",
				"MIN_TRADE_AMOUNT()": "239",
				"SUPPORTED_FEES(uint256)": "6256",
				"aiOracle()": "2359",
				"executeManualTrade(address,address,uint256,address)": "infinite",
				"executeTrade(address,address,uint256,address,bytes)": "infinite",
				"factory()": "infinite",
				"findBestPool(address,address)": "infinite",
				"owner()": "2424",
				"permit2()": "infinite",
				"quoter()": "infinite",
				"swapRouter()": "infinite",
				"whitelistToken(address,bool)": "26870",
				"whitelistedTokens(address)": "2566"
			},
			"internal": {
				"executeSwap(address,address,uint256,uint256,address,uint24)": "infinite",
				"getQuoteFromPool(address,address,uint256,uint24)": "infinite",
				"validateTradeParams(address,address,uint256)": "infinite"
			}
		},
		"methodIdentifiers": {
			"DEADLINE_EXTENSION()": "ffe6f79a",
			"MAX_SLIPPAGE()": "f9759518",
			"MIN_TRADE_AMOUNT()": "31b7d413",
			"SUPPORTED_FEES(uint256)": "0c65dafe",
			"aiOracle()": "31b221cd",
			"executeManualTrade(address,address,uint256,address)": "502364d8",
			"executeTrade(address,address,uint256,address,bytes)": "aad4466e",
			"factory()": "c45a0155",
			"findBestPool(address,address)": "c90148ec",
			"owner()": "8da5cb5b",
			"permit2()": "12261ee7",
			"quoter()": "c6bbd5a7",
			"swapRouter()": "c31c9c07",
			"whitelistToken(address,bool)": "0ffb1d8b",
			"whitelistedTokens(address)": "daf9c210"
		}
	},
	"abi": [
		{
			"inputs": [
				{
					"internalType": "address",
					"name": "_oracle",
					"type": "address"
				},
				{
					"internalType": "address",
					"name": "_router",
					"type": "address"
				},
				{
					"internalType": "address",
					"name": "_factory",
					"type": "address"
				},
				{
					"internalType": "address",
					"name": "_quoter",
					"type": "address"
				}
			],
			"stateMutability": "nonpayable",
			"type": "constructor"
		},
		{
			"anonymous": false,
			"inputs": [
				{
					"indexed": false,
					"internalType": "address",
					"name": "tokenIn",
					"type": "address"
				},
				{
					"indexed": false,
					"internalType": "address",
					"name": "tokenOut",
					"type": "address"
				},
				{
					"indexed": false,
					"internalType": "uint256",
					"name": "amountIn",
					"type": "uint256"
				},
				{
					"indexed": false,
					"internalType": "uint256",
					"name": "amountOut",
					"type": "uint256"
				},
				{
					"indexed": false,
					"internalType": "address",
					"name": "recipient",
					"type": "address"
				},
				{
					"indexed": false,
					"internalType": "uint24",
					"name": "fee",
					"type": "uint24"
				}
			],
			"name": "TradeExecuted",
			"type": "event"
		},
		{
			"inputs": [],
			"name": "DEADLINE_EXTENSION",
			"outputs": [
				{
					"internalType": "uint256",
					"name": "",
					"type": "uint256"
				}
			],
			"stateMutability": "view",
			"type": "function"
		},
		{
			"inputs": [],
			"name": "MAX_SLIPPAGE",
			"outputs": [
				{
					"internalType": "uint256",
					"name": "",
					"type": "uint256"
				}
			],
			"stateMutability": "view",
			"type": "function"
		},
		{
			"inputs": [],
			"name": "MIN_TRADE_AMOUNT",
			"outputs": [
				{
					"internalType": "uint256",
					"name": "",
					"type": "uint256"
				}
			],
			"stateMutability": "view",
			"type": "function"
		},
		{
			"inputs": [
				{
					"internalType": "uint256",
					"name": "",
					"type": "uint256"
				}
			],
			"name": "SUPPORTED_FEES",
			"outputs": [
				{
					"internalType": "uint24",
					"name": "",
					"type": "uint24"
				}
			],
			"stateMutability": "view",
			"type": "function"
		},
		{
			"inputs": [],
			"name": "aiOracle",
			"outputs": [
				{
					"internalType": "address",
					"name": "",
					"type": "address"
				}
			],
			"stateMutability": "view",
			"type": "function"
		},
		{
			"inputs": [
				{
					"internalType": "address",
					"name": "_tokenIn",
					"type": "address"
				},
				{
					"internalType": "address",
					"name": "_tokenOut",
					"type": "address"
				},
				{
					"internalType": "uint256",
					"name": "_amountIn",
					"type": "uint256"
				},
				{
					"internalType": "address",
					"name": "_recipient",
					"type": "address"
				}
			],
			"name": "executeManualTrade",
			"outputs": [
				{
					"internalType": "uint256",
					"name": "amountOut",
					"type": "uint256"
				}
			],
			"stateMutability": "nonpayable",
			"type": "function"
		},
		{
			"inputs": [
				{
					"internalType": "address",
					"name": "_tokenIn",
					"type": "address"
				},
				{
					"internalType": "address",
					"name": "_tokenOut",
					"type": "address"
				},
				{
					"internalType": "uint256",
					"name": "_amountIn",
					"type": "uint256"
				},
				{
					"internalType": "address",
					"name": "_recipient",
					"type": "address"
				},
				{
					"internalType": "bytes",
					"name": "",
					"type": "bytes"
				}
			],
			"name": "executeTrade",
			"outputs": [
				{
					"internalType": "uint256",
					"name": "",
					"type": "uint256"
				}
			],
			"stateMutability": "nonpayable",
			"type": "function"
		},
		{
			"inputs": [],
			"name": "factory",
			"outputs": [
				{
					"internalType": "contract IUniswapV3Factory",
					"name": "",
					"type": "address"
				}
			],
			"stateMutability": "view",
			"type": "function"
		},
		{
			"inputs": [
				{
					"internalType": "address",
					"name": "_tokenIn",
					"type": "address"
				},
				{
					"internalType": "address",
					"name": "_tokenOut",
					"type": "address"
				}
			],
			"name": "findBestPool",
			"outputs": [
				{
					"internalType": "address",
					"name": "pool",
					"type": "address"
				},
				{
					"internalType": "uint24",
					"name": "fee",
					"type": "uint24"
				}
			],
			"stateMutability": "view",
			"type": "function"
		},
		{
			"inputs": [],
			"name": "owner",
			"outputs": [
				{
					"internalType": "address",
					"name": "",
					"type": "address"
				}
			],
			"stateMutability": "view",
			"type": "function"
		},
		{
			"inputs": [],
			"name": "permit2",
			"outputs": [
				{
					"internalType": "contract IPermit2",
					"name": "",
					"type": "address"
				}
			],
			"stateMutability": "view",
			"type": "function"
		},
		{
			"inputs": [],
			"name": "quoter",
			"outputs": [
				{
					"internalType": "contract IQuoterV2",
					"name": "",
					"type": "address"
				}
			],
			"stateMutability": "view",
			"type": "function"
		},
		{
			"inputs": [],
			"name": "swapRouter",
			"outputs": [
				{
					"internalType": "contract ISwapRouter",
					"name": "",
					"type": "address"
				}
			],
			"stateMutability": "view",
			"type": "function"
		},
		{
			"inputs": [
				{
					"internalType": "address",
					"name": "_token",
					"type": "address"
				},
				{
					"internalType": "bool",
					"name": "_status",
					"type": "bool"
				}
			],
			"name": "whitelistToken",
			"outputs": [],
			"stateMutability": "nonpayable",
			"type": "function"
		},
		{
			"inputs": [
				{
					"internalType": "address",
					"name": "",
					"type": "address"
				}
			],
			"name": "whitelistedTokens",
			"outputs": [
				{
					"internalType": "bool",
					"name": "",
					"type": "bool"
				}
			],
			"stateMutability": "view",
			"type": "function"
		}
	]
}