{
	"data": {
		"bytecode": {
			"linkReferences": {},
			"object": "6080604052348015600e575f80fd5b5061063e8061001c5f395ff3fe608060405234801561000f575f80fd5b5060043610610029575f3560e01c8063d66383cb1461002d575b5f80fd5b61004760048036038101906100429190610344565b61005d565b6040516100549190610389565b60405180910390f35b5f808273ffffffffffffffffffffffffffffffffffffffff16670de0b6b3a764000060405160240161008f91906103f7565b6040516020818303038152906040527fe4849b32000000000000000000000000000000000000000000000000000000007bffffffffffffffffffffffffffffffffffffffffffffffffffffffff19166020820180517bffffffffffffffffffffffffffffffffffffffffffffffffffffffff83818316178352505050506040516101199190610462565b5f60405180830381855afa9150503d805f8114610151576040519150601f19603f3d011682016040523d82523d5f602084013e610156565b606091505b50509050806101695760019150506102e1565b5f8373ffffffffffffffffffffffffffffffffffffffff166370a082318573ffffffffffffffffffffffffffffffffffffffff16638da5cb5b6040518163ffffffff1660e01b8152600401602060405180830381865afa1580156101cf573d5f803e3d5ffd5b505050506040513d601f19601f820116820180604052508101906101f3919061048c565b6040518263ffffffff1660e01b815260040161020f91906104c6565b602060405180830381865afa15801561022a573d5f803e3d5ffd5b505050506040513d601f19601f8201168201806040525081019061024e9190610512565b90505f8473ffffffffffffffffffffffffffffffffffffffff166318160ddd6040518163ffffffff1660e01b8152600401602060405180830381865afa15801561029a573d5f803e3d5ffd5b505050506040513d601f19601f820116820180604052508101906102be9190610512565b90506050816064846102d0919061056a565b6102da91906105d8565b1193505050505b919050565b5f80fd5b5f73ffffffffffffffffffffffffffffffffffffffff82169050919050565b5f610313826102ea565b9050919050565b61032381610309565b811461032d575f80fd5b50565b5f8135905061033e8161031a565b92915050565b5f60208284031215610359576103586102e6565b5b5f61036684828501610330565b91505092915050565b5f8115159050919050565b6103838161036f565b82525050565b5f60208201905061039c5f83018461037a565b92915050565b5f819050919050565b5f67ffffffffffffffff82169050919050565b5f819050919050565b5f6103e16103dc6103d7846103a2565b6103be565b6103ab565b9050919050565b6103f1816103c7565b82525050565b5f60208201905061040a5f8301846103e8565b92915050565b5f81519050919050565b5f81905092915050565b8281835e5f83830152505050565b5f61043c82610410565b610446818561041a565b9350610456818560208601610424565b80840191505092915050565b5f61046d8284610432565b915081905092915050565b5f815190506104868161031a565b92915050565b5f602082840312156104a1576104a06102e6565b5b5f6104ae84828501610478565b91505092915050565b6104c081610309565b82525050565b5f6020820190506104d95f8301846104b7565b92915050565b5f819050919050565b6104f1816104df565b81146104fb575f80fd5b50565b5f8151905061050c816104e8565b92915050565b5f60208284031215610527576105266102e6565b5b5f610534848285016104fe565b91505092915050565b7f4e487b71000000000000000000000000000000000000000000000000000000005f52601160045260245ffd5b5f610574826104df565b915061057f836104df565b925082820261058d816104df565b915082820484148315176105a4576105a361053d565b5b5092915050565b7f4e487b71000000000000000000000000000000000000000000000000000000005f52601260045260245ffd5b5f6105e2826104df565b91506105ed836104df565b9250826105fd576105fc6105ab565b5b82820490509291505056fea264697066735822122039f06bb6b31aa9ddeed5a11ef6698a2af1f36c1be44874a7c55fda4ae1489c5664736f6c634300081a0033",
			"opcodes": "PUSH1 0x80 PUSH1 0x40 MSTORE CALLVALUE DUP1 ISZERO PUSH1 0xE JUMPI PUSH0 DUP1 REVERT JUMPDEST POP PUSH2 0x63E DUP1 PUSH2 0x1C PUSH0 CODECOPY PUSH0 RETURN INVALID PUSH1 0x80 PUSH1 0x40 MSTORE CALLVALUE DUP1 ISZERO PUSH2 0xF JUMPI PUSH0 DUP1 REVERT JUMPDEST POP PUSH1 0x4 CALLDATASIZE LT PUSH2 0x29 JUMPI PUSH0 CALLDATALOAD PUSH1 0xE0 SHR DUP1 PUSH4 0xD66383CB EQ PUSH2 0x2D JUMPI JUMPDEST PUSH0 DUP1 REVERT JUMPDEST PUSH2 0x47 PUSH1 0x4 DUP1 CALLDATASIZE SUB DUP2 ADD SWAP1 PUSH2 0x42 SWAP2 SWAP1 PUSH2 0x344 JUMP JUMPDEST PUSH2 0x5D JUMP JUMPDEST PUSH1 0x40 MLOAD PUSH2 0x54 SWAP2 SWAP1 PUSH2 0x389 JUMP JUMPDEST PUSH1 0x40 MLOAD DUP1 SWAP2 SUB SWAP1 RETURN JUMPDEST PUSH0 DUP1 DUP3 PUSH20 0xFFFFFFFFFFFFFFFFFFFFFFFFFFFFFFFFFFFFFFFF AND PUSH8 0xDE0B6B3A7640000 PUSH1 0x40 MLOAD PUSH1 0x24 ADD PUSH2 0x8F SWAP2 SWAP1 PUSH2 0x3F7 JUMP JUMPDEST PUSH1 0x40 MLOAD PUSH1 0x20 DUP2 DUP4 SUB SUB DUP2 MSTORE SWAP1 PUSH1 0x40 MSTORE PUSH32 0xE4849B3200000000000000000000000000000000000000000000000000000000 PUSH28 0xFFFFFFFFFFFFFFFFFFFFFFFFFFFFFFFFFFFFFFFFFFFFFFFFFFFFFFFF NOT AND PUSH1 0x20 DUP3 ADD DUP1 MLOAD PUSH28 0xFFFFFFFFFFFFFFFFFFFFFFFFFFFFFFFFFFFFFFFFFFFFFFFFFFFFFFFF DUP4 DUP2 DUP4 AND OR DUP4 MSTORE POP POP POP POP PUSH1 0x40 MLOAD PUSH2 0x119 SWAP2 SWAP1 PUSH2 0x462 JUMP JUMPDEST PUSH0 PUSH1 0x40 MLOAD DUP1 DUP4 SUB DUP2 DUP6 GAS STATICCALL SWAP2 POP POP RETURNDATASIZE DUP1 PUSH0 DUP2 EQ PUSH2 0x151 JUMPI PUSH1 0x40 MLOAD SWAP2 POP PUSH1 0x1F NOT PUSH1 0x3F RETURNDATASIZE ADD AND DUP3 ADD PUSH1 0x40 MSTORE RETURNDATASIZE DUP3 MSTORE RETURNDATASIZE PUSH0 PUSH1 0x20 DUP5 ADD RETURNDATACOPY PUSH2 0x156 JUMP JUMPDEST PUSH1 0x60 SWAP2 POP JUMPDEST POP POP SWAP1 POP DUP1 PUSH2 0x169 JUMPI PUSH1 0x1 SWAP2 POP POP PUSH2 0x2E1 JUMP JUMPDEST PUSH0 DUP4 PUSH20 0xFFFFFFFFFFFFFFFFFFFFFFFFFFFFFFFFFFFFFFFF AND PUSH4 0x70A08231 DUP6 PUSH20 0xFFFFFFFFFFFFFFFFFFFFFFFFFFFFFFFFFFFFFFFF AND PUSH4 0x8DA5CB5B PUSH1 0x40 MLOAD DUP2 PUSH4 0xFFFFFFFF AND PUSH1 0xE0 SHL DUP2 MSTORE PUSH1 0x4 ADD PUSH1 0x20 PUSH1 0x40 MLOAD DUP1 DUP4 SUB DUP2 DUP7 GAS STATICCALL ISZERO DUP1 ISZERO PUSH2 0x1CF JUMPI RETURNDATASIZE PUSH0 DUP1 RETURNDATACOPY RETURNDATASIZE PUSH0 REVERT JUMPDEST POP POP POP POP PUSH1 0x40 MLOAD RETURNDATASIZE PUSH1 0x1F NOT PUSH1 0x1F DUP3 ADD AND DUP3 ADD DUP1 PUSH1 0x40 MSTORE POP DUP2 ADD SWAP1 PUSH2 0x1F3 SWAP2 SWAP1 PUSH2 0x48C JUMP JUMPDEST PUSH1 0x40 MLOAD DUP3 PUSH4 0xFFFFFFFF AND PUSH1 0xE0 SHL DUP2 MSTORE PUSH1 0x4 ADD PUSH2 0x20F SWAP2 SWAP1 PUSH2 0x4C6 JUMP JUMPDEST PUSH1 0x20 PUSH1 0x40 MLOAD DUP1 DUP4 SUB DUP2 DUP7 GAS STATICCALL ISZERO DUP1 ISZERO PUSH2 0x22A JUMPI RETURNDATASIZE PUSH0 DUP1 RETURNDATACOPY RETURNDATASIZE PUSH0 REVERT JUMPDEST POP POP POP POP PUSH1 0x40 MLOAD RETURNDATASIZE PUSH1 0x1F NOT PUSH1 0x1F DUP3 ADD AND DUP3 ADD DUP1 PUSH1 0x40 MSTORE POP DUP2 ADD SWAP1 PUSH2 0x24E SWAP2 SWAP1 PUSH2 0x512 JUMP JUMPDEST SWAP1 POP PUSH0 DUP5 PUSH20 0xFFFFFFFFFFFFFFFFFFFFFFFFFFFFFFFFFFFFFFFF AND PUSH4 0x18160DDD PUSH1 0x40 MLOAD DUP2 PUSH4 0xFFFFFFFF AND PUSH1 0xE0 SHL DUP2 MSTORE PUSH1 0x4 ADD PUSH1 0x20 PUSH1 0x40 MLOAD DUP1 DUP4 SUB DUP2 DUP7 GAS STATICCALL ISZERO DUP1 ISZERO PUSH2 0x29A JUMPI RETURNDATASIZE PUSH0 DUP1 RETURNDATACOPY RETURNDATASIZE PUSH0 REVERT JUMPDEST POP POP POP POP PUSH1 0x40 MLOAD RETURNDATASIZE PUSH1 0x1F NOT PUSH1 0x1F DUP3 ADD AND DUP3 ADD DUP1 PUSH1 0x40 MSTORE POP DUP2 ADD SWAP1 PUSH2 0x2BE SWAP2 SWAP1 PUSH2 0x512 JUMP JUMPDEST SWAP1 POP PUSH1 0x50 DUP2 PUSH1 0x64 DUP5 PUSH2 0x2D0 SWAP2 SWAP1 PUSH2 0x56A JUMP JUMPDEST PUSH2 0x2DA SWAP2 SWAP1 PUSH2 0x5D8 JUMP JUMPDEST GT SWAP4 POP POP POP POP JUMPDEST SWAP2 SWAP1 POP JUMP JUMPDEST PUSH0 DUP1 REVERT JUMPDEST PUSH0 PUSH20 0xFFFFFFFFFFFFFFFFFFFFFFFFFFFFFFFFFFFFFFFF DUP3 AND SWAP1 POP SWAP2 SWAP1 POP JUMP JUMPDEST PUSH0 PUSH2 0x313 DUP3 PUSH2 0x2EA JUMP JUMPDEST SWAP1 POP SWAP2 SWAP1 POP JUMP JUMPDEST PUSH2 0x323 DUP2 PUSH2 0x309 JUMP JUMPDEST DUP2 EQ PUSH2 0x32D JUMPI PUSH0 DUP1 REVERT JUMPDEST POP JUMP JUMPDEST PUSH0 DUP2 CALLDATALOAD SWAP1 POP PUSH2 0x33E DUP2 PUSH2 0x31A JUMP JUMPDEST SWAP3 SWAP2 POP POP JUMP JUMPDEST PUSH0 PUSH1 0x20 DUP3 DUP5 SUB SLT ISZERO PUSH2 0x359 JUMPI PUSH2 0x358 PUSH2 0x2E6 JUMP JUMPDEST JUMPDEST PUSH0 PUSH2 0x366 DUP5 DUP3 DUP6 ADD PUSH2 0x330 JUMP JUMPDEST SWAP2 POP POP SWAP3 SWAP2 POP POP JUMP JUMPDEST PUSH0 DUP2 ISZERO ISZERO SWAP1 POP SWAP2 SWAP1 POP JUMP JUMPDEST PUSH2 0x383 DUP2 PUSH2 0x36F JUMP JUMPDEST DUP3 MSTORE POP POP JUMP JUMPDEST PUSH0 PUSH1 0x20 DUP3 ADD SWAP1 POP PUSH2 0x39C PUSH0 DUP4 ADD DUP5 PUSH2 0x37A JUMP JUMPDEST SWAP3 SWAP2 POP POP JUMP JUMPDEST PUSH0 DUP2 SWAP1 POP SWAP2 SWAP1 POP JUMP JUMPDEST PUSH0 PUSH8 0xFFFFFFFFFFFFFFFF DUP3 AND SWAP1 POP SWAP2 SWAP1 POP JUMP JUMPDEST PUSH0 DUP2 SWAP1 POP SWAP2 SWAP1 POP JUMP JUMPDEST PUSH0 PUSH2 0x3E1 PUSH2 0x3DC PUSH2 0x3D7 DUP5 PUSH2 0x3A2 JUMP JUMPDEST PUSH2 0x3BE JUMP JUMPDEST PUSH2 0x3AB JUMP JUMPDEST SWAP1 POP SWAP2 SWAP1 POP JUMP JUMPDEST PUSH2 0x3F1 DUP2 PUSH2 0x3C7 JUMP JUMPDEST DUP3 MSTORE POP POP JUMP JUMPDEST PUSH0 PUSH1 0x20 DUP3 ADD SWAP1 POP PUSH2 0x40A PUSH0 DUP4 ADD DUP5 PUSH2 0x3E8 JUMP JUMPDEST SWAP3 SWAP2 POP POP JUMP JUMPDEST PUSH0 DUP2 MLOAD SWAP1 POP SWAP2 SWAP1 POP JUMP JUMPDEST PUSH0 DUP2 SWAP1 POP SWAP3 SWAP2 POP POP JUMP JUMPDEST DUP3 DUP2 DUP4 MCOPY PUSH0 DUP4 DUP4 ADD MSTORE POP POP POP JUMP JUMPDEST PUSH0 PUSH2 0x43C DUP3 PUSH2 0x410 JUMP JUMPDEST PUSH2 0x446 DUP2 DUP6 PUSH2 0x41A JUMP JUMPDEST SWAP4 POP PUSH2 0x456 DUP2 DUP6 PUSH1 0x20 DUP7 ADD PUSH2 0x424 JUMP JUMPDEST DUP1 DUP5 ADD SWAP2 POP POP SWAP3 SWAP2 POP POP JUMP JUMPDEST PUSH0 PUSH2 0x46D DUP3 DUP5 PUSH2 0x432 JUMP JUMPDEST SWAP2 POP DUP2 SWAP1 POP SWAP3 SWAP2 POP POP JUMP JUMPDEST PUSH0 DUP2 MLOAD SWAP1 POP PUSH2 0x486 DUP2 PUSH2 0x31A JUMP JUMPDEST SWAP3 SWAP2 POP POP JUMP JUMPDEST PUSH0 PUSH1 0x20 DUP3 DUP5 SUB SLT ISZERO PUSH2 0x4A1 JUMPI PUSH2 0x4A0 PUSH2 0x2E6 JUMP JUMPDEST JUMPDEST PUSH0 PUSH2 0x4AE DUP5 DUP3 DUP6 ADD PUSH2 0x478 JUMP JUMPDEST SWAP2 POP POP SWAP3 SWAP2 POP POP JUMP JUMPDEST PUSH2 0x4C0 DUP2 PUSH2 0x309 JUMP JUMPDEST DUP3 MSTORE POP POP JUMP JUMPDEST PUSH0 PUSH1 0x20 DUP3 ADD SWAP1 POP PUSH2 0x4D9 PUSH0 DUP4 ADD DUP5 PUSH2 0x4B7 JUMP JUMPDEST SWAP3 SWAP2 POP POP JUMP JUMPDEST PUSH0 DUP2 SWAP1 POP SWAP2 SWAP1 POP JUMP JUMPDEST PUSH2 0x4F1 DUP2 PUSH2 0x4DF JUMP JUMPDEST DUP2 EQ PUSH2 0x4FB JUMPI PUSH0 DUP1 REVERT JUMPDEST POP JUMP JUMPDEST PUSH0 DUP2 MLOAD SWAP1 POP PUSH2 0x50C DUP2 PUSH2 0x4E8 JUMP JUMPDEST SWAP3 SWAP2 POP POP JUMP JUMPDEST PUSH0 PUSH1 0x20 DUP3 DUP5 SUB SLT ISZERO PUSH2 0x527 JUMPI PUSH2 0x526 PUSH2 0x2E6 JUMP JUMPDEST JUMPDEST PUSH0 PUSH2 0x534 DUP5 DUP3 DUP6 ADD PUSH2 0x4FE JUMP JUMPDEST SWAP2 POP POP SWAP3 SWAP2 POP POP JUMP JUMPDEST PUSH32 0x4E487B7100000000000000000000000000000000000000000000000000000000 PUSH0 MSTORE PUSH1 0x11 PUSH1 0x4 MSTORE PUSH1 0x24 PUSH0 REVERT JUMPDEST PUSH0 PUSH2 0x574 DUP3 PUSH2 0x4DF JUMP JUMPDEST SWAP2 POP PUSH2 0x57F DUP4 PUSH2 0x4DF JUMP JUMPDEST SWAP3 POP DUP3 DUP3 MUL PUSH2 0x58D DUP2 PUSH2 0x4DF JUMP JUMPDEST SWAP2 POP DUP3 DUP3 DIV DUP5 EQ DUP4 ISZERO OR PUSH2 0x5A4 JUMPI PUSH2 0x5A3 PUSH2 0x53D JUMP JUMPDEST JUMPDEST POP SWAP3 SWAP2 POP POP JUMP JUMPDEST PUSH32 0x4E487B7100000000000000000000000000000000000000000000000000000000 PUSH0 MSTORE PUSH1 0x12 PUSH1 0x4 MSTORE PUSH1 0x24 PUSH0 REVERT JUMPDEST PUSH0 PUSH2 0x5E2 DUP3 PUSH2 0x4DF JUMP JUMPDEST SWAP2 POP PUSH2 0x5ED DUP4 PUSH2 0x4DF JUMP JUMPDEST SWAP3 POP DUP3 PUSH2 0x5FD JUMPI PUSH2 0x5FC PUSH2 0x5AB JUMP JUMPDEST JUMPDEST DUP3 DUP3 DIV SWAP1 POP SWAP3 SWAP2 POP POP JUMP INVALID LOG2 PUSH5 0x6970667358 0x22 SLT KECCAK256 CODECOPY CREATE PUSH12 0xB6B31AA9DDEED5A11EF6698A 0x2A CALL RETURN PUSH13 0x1BE44874A7C55FDA4AE1489C56 PUSH5 0x736F6C6343 STOP ADDMOD BYTE STOP CALLER "
		},
		"gasEstimates": {
			"creation": {
				"codeDepositCost": "319600",
				"executionCost": "353",
				"totalCost": "319953"
			},
			"external": {
				"isHoneypot(address)": "infinite"
			}
		},
		"methodIdentifiers": {
			"isHoneypot(address)": "d66383cb"
		}
	},
	"abi": [
		{
			"inputs": [
				{
					"internalType": "address",
					"name": "_token",
					"type": "address"
				}
			],
			"name": "isHoneypot",
			"outputs": [
				{
					"internalType": "bool",
					"name": "",
					"type": "bool"
				}
			],
			"stateMutability": "view",
			"type": "function"
		}
	]
}