{
	"data": {
		"bytecode": {
			"linkReferences": {},
			"object": "6080604052348015600e575f80fd5b50604051610f5f380380610f5f833981016040819052602b91605d565b60028054336001600160a01b031991821617909155600380549091166001600160a01b03929092169190911790556088565b5f60208284031215606c575f80fd5b81516001600160a01b03811681146081575f80fd5b9392505050565b610eca806100955f395ff3fe608060405234801561000f575f80fd5b50600436106100cb575f3560e01c80638da5cb5b11610088578063b61920c111610063578063b61920c114610210578063c489744b14610298578063d48bfca7146102b9578063f3fef3a3146102cc575f80fd5b80638da5cb5b146101d7578063951e75c9146101ea578063b1d6e59d146101fd575f80fd5b806308d247cf146100cf578063138a5e251461013f57806343b254521461016a57806347e7ef241461017f5780635fa7b584146101925780636d1ea3fa146101a5575b5f80fd5b6101186100dd366004610cdb565b6001600160a01b03165f90815260208190526040902060038101546004820154600583015460069093015461010090920460ff169390929190565b60408051941515855260208501939093529183015260608201526080015b60405180910390f35b600354610152906001600160a01b031681565b6040516001600160a01b039091168152602001610136565b61017d610178366004610cfb565b6102df565b005b61017d61018d366004610d12565b6103e8565b61017d6101a0366004610cdb565b610526565b6101c76101b3366004610cdb565b60016020525f908152604090205460ff1681565b6040519015158152602001610136565b600254610152906001600160a01b031681565b61017d6101f8366004610d4a565b6105b4565b61017d61020b366004610d82565b610746565b61025d61021e366004610cdb565b5f602081905290815260409020805460018201546003830154600484015460058501546006909501549394929360ff8084169461010090940416929087565b604080519788526020880196909652931515948601949094529015156060850152608084015260a083019190915260c082015260e001610136565b6102ab6102a6366004610dca565b610a7d565b604051908152602001610136565b61017d6102c7366004610cdb565b610ae6565b61017d6102da366004610d12565b610b7a565b5f811180156102ef5750600a8111155b6103355760405162461bcd60e51b8152602060048201526012602482015271125b9d985b1a59081c9a5cdac81b195d995b60721b60448201526064015b60405180910390fd5b335f9081526020819052604090206003015460ff161561038a5760405162461bcd60e51b815260206004820152601060248201526f506f7274666f6c696f2065786973747360801b604482015260640161032c565b335f8181526020818152604091829020600180820186905560038201805460ff1916909117905591518481529192917f67fb572dde9f80bfb3f0454266d9258cf72d569e4ef809f9301b9ee757dd78d0910160405180910390a25050565b6001600160a01b0382165f9081526001602052604090205460ff166104445760405162461bcd60e51b8152602060048201526012602482015271151bdad95b881b9bdd08185c1c1c9bdd995960721b604482015260640161032c565b335f9081526020819052604090206003015460ff166104755760405162461bcd60e51b815260040161032c90610dfb565b6040516323b872dd60e01b8152336004820152306024820152604481018290526001600160a01b038316906323b872dd906064016020604051808303815f875af11580156104c5573d5f803e3d5ffd5b505050506040513d601f19601f820116820180604052508101906104e99190610e28565b50335f908152602081815260408083206001600160a01b03861684526002019091528120805483929061051d908490610e57565b90915550505050565b6002546001600160a01b0316331461056c5760405162461bcd60e51b81526020600482015260096024820152682737ba1037bbb732b960b91b604482015260640161032c565b6001600160a01b0381165f81815260016020526040808220805460ff19169055517f4c910b69fe65a61f7531b9c5042b2329ca7179c77290aa7e2eb3afa3c8511fd39190a250565b335f9081526020819052604090206003015460ff166105e55760405162461bcd60e51b815260040161032c90610dfb565b606483111561062b5760405162461bcd60e51b8152602060048201526012602482015271496e76616c696420636f6e666964656e636560701b604482015260640161032c565b60648211156106715760405162461bcd60e51b8152602060048201526012602482015271496e76616c6964207269736b2073636f726560701b604482015260640161032c565b5f81116106b75760405162461bcd60e51b8152602060048201526014602482015273125b9d985b1a59081d1c98591948185b5bdd5b9d60621b604482015260640161032c565b335f818152602081815260409182902060038101805461ff0019166101008a1515908102919091179091556004820188905560058201879055600682018690558351908152918201879052918101859052606081018490529091907fa60d0da4e64a82565a5aebdd5a8aa59946cd037ba264597a275c58c49d25d8889060800160405180910390a25050505050565b6003546001600160a01b031633146107905760405162461bcd60e51b815260206004820152600d60248201526c2737ba1020a4903a3930b232b960991b604482015260640161032c565b6001600160a01b0383165f9081526001602052604090205460ff1680156107ce57506001600160a01b0382165f9081526001602052604090205460ff165b61080e5760405162461bcd60e51b8152602060048201526011602482015270556e617070726f76656420746f6b656e7360781b604482015260640161032c565b6001600160a01b0384165f9081526020819052604090206003015460ff166108485760405162461bcd60e51b815260040161032c90610dfb565b6001600160a01b038085165f908152602081815260408083209387168352600284019091529020548211156108b65760405162461bcd60e51b8152602060048201526014602482015273496e73756666696369656e742062616c616e636560601b604482015260640161032c565b60035460405163095ea7b360e01b81526001600160a01b039182166004820152602481018490529085169063095ea7b3906044016020604051808303815f875af1158015610906573d5f803e3d5ffd5b505050506040513d601f19601f8201168201806040525081019061092a9190610e28565b506001600160a01b0384165f90815260028201602052604081208054849290610954908490610e6a565b909155505060035460405163556a233760e11b81526001600160a01b03868116600483015285811660248301526044820185905230606483015260a060848301525f60a4830181905292169063aad4466e9060c4016020604051808303815f875af11580156109c5573d5f803e3d5ffd5b505050506040513d601f19601f820116820180604052508101906109e99190610e7d565b6001600160a01b0385165f908152600284016020526040812080549293508392909190610a17908490610e57565b92505081905550836001600160a01b0316856001600160a01b0316876001600160a01b03167f7c98d1e471158166ac434c9c01540b47abb40862bbf909edb2dc73c22229a23f86604051610a6d91815260200190565b60405180910390a4505050505050565b6001600160a01b0382165f9081526020819052604081206003015460ff16610ab75760405162461bcd60e51b815260040161032c90610dfb565b506001600160a01b038083165f9081526020818152604080832093851683526002909301905220545b92915050565b6002546001600160a01b03163314610b2c5760405162461bcd60e51b81526020600482015260096024820152682737ba1037bbb732b960b91b604482015260640161032c565b6001600160a01b0381165f818152600160208190526040808320805460ff1916909217909155517f784c8f4dbf0ffedd6e72c76501c545a70f8b203b30a26ce542bf92ba87c248a49190a250565b335f9081526020819052604090206003015460ff16610bab5760405162461bcd60e51b815260040161032c90610dfb565b335f908152602081815260408083206001600160a01b0386168452600201909152902054811115610c155760405162461bcd60e51b8152602060048201526014602482015273496e73756666696369656e742062616c616e636560601b604482015260640161032c565b335f908152602081815260408083206001600160a01b038616845260020190915281208054839290610c48908490610e6a565b909155505060405163a9059cbb60e01b8152336004820152602481018290526001600160a01b0383169063a9059cbb906044016020604051808303815f875af1158015610c97573d5f803e3d5ffd5b505050506040513d601f19601f82011682018060405250810190610cbb9190610e28565b505050565b80356001600160a01b0381168114610cd6575f80fd5b919050565b5f60208284031215610ceb575f80fd5b610cf482610cc0565b9392505050565b5f60208284031215610d0b575f80fd5b5035919050565b5f8060408385031215610d23575f80fd5b610d2c83610cc0565b946020939093013593505050565b8015158114610d47575f80fd5b50565b5f805f8060808587031215610d5d575f80fd5b8435610d6881610d3a565b966020860135965060408601359560600135945092505050565b5f805f8060808587031215610d95575f80fd5b610d9e85610cc0565b9350610dac60208601610cc0565b9250610dba60408601610cc0565b9396929550929360600135925050565b5f8060408385031215610ddb575f80fd5b610de483610cc0565b9150610df260208401610cc0565b90509250929050565b6020808252601390820152724e6f2061637469766520706f7274666f6c696f60681b604082015260600190565b5f60208284031215610e38575f80fd5b8151610cf481610d3a565b634e487b7160e01b5f52601160045260245ffd5b80820180821115610ae057610ae0610e43565b81810381811115610ae057610ae0610e43565b5f60208284031215610e8d575f80fd5b505191905056fea2646970667358221220fd8c3acb4160c641074c441e570435338701f628d34a2d0e6ef9ffc500354b1d64736f6c634300081a0033",
			"opcodes": "PUSH1 0x80 PUSH1 0x40 MSTORE CALLVALUE DUP1 ISZERO PUSH1 0xE JUMPI PUSH0 DUP1 REVERT JUMPDEST POP PUSH1 0x40 MLOAD PUSH2 0xF5F CODESIZE SUB DUP1 PUSH2 0xF5F DUP4 CODECOPY DUP2 ADD PUSH1 0x40 DUP2 SWAP1 MSTORE PUSH1 0x2B SWAP2 PUSH1 0x5D JUMP JUMPDEST PUSH1 0x2 DUP1 SLOAD CALLER PUSH1 0x1 PUSH1 0x1 PUSH1 0xA0 SHL SUB NOT SWAP2 DUP3 AND OR SWAP1 SWAP2 SSTORE PUSH1 0x3 DUP1 SLOAD SWAP1 SWAP2 AND PUSH1 0x1 PUSH1 0x1 PUSH1 0xA0 SHL SUB SWAP3 SWAP1 SWAP3 AND SWAP2 SWAP1 SWAP2 OR SWAP1 SSTORE PUSH1 0x88 JUMP JUMPDEST PUSH0 PUSH1 0x20 DUP3 DUP5 SUB SLT ISZERO PUSH1 0x6C JUMPI PUSH0 DUP1 REVERT JUMPDEST DUP2 MLOAD PUSH1 0x1 PUSH1 0x1 PUSH1 0xA0 SHL SUB DUP2 AND DUP2 EQ PUSH1 0x81 JUMPI PUSH0 DUP1 REVERT JUMPDEST SWAP4 SWAP3 POP POP POP JUMP JUMPDEST PUSH2 0xECA DUP1 PUSH2 0x95 PUSH0 CODECOPY PUSH0 RETURN INVALID PUSH1 0x80 PUSH1 0x40 MSTORE CALLVALUE DUP1 ISZERO PUSH2 0xF JUMPI PUSH0 DUP1 REVERT JUMPDEST POP PUSH1 0x4 CALLDATASIZE LT PUSH2 0xCB JUMPI PUSH0 CALLDATALOAD PUSH1 0xE0 SHR DUP1 PUSH4 0x8DA5CB5B GT PUSH2 0x88 JUMPI DUP1 PUSH4 0xB61920C1 GT PUSH2 0x63 JUMPI DUP1 PUSH4 0xB61920C1 EQ PUSH2 0x210 JUMPI DUP1 PUSH4 0xC489744B EQ PUSH2 0x298 JUMPI DUP1 PUSH4 0xD48BFCA7 EQ PUSH2 0x2B9 JUMPI DUP1 PUSH4 0xF3FEF3A3 EQ PUSH2 0x2CC JUMPI PUSH0 DUP1 REVERT JUMPDEST DUP1 PUSH4 0x8DA5CB5B EQ PUSH2 0x1D7 JUMPI DUP1 PUSH4 0x951E75C9 EQ PUSH2 0x1EA JUMPI DUP1 PUSH4 0xB1D6E59D EQ PUSH2 0x1FD JUMPI PUSH0 DUP1 REVERT JUMPDEST DUP1 PUSH4 0x8D247CF EQ PUSH2 0xCF JUMPI DUP1 PUSH4 0x138A5E25 EQ PUSH2 0x13F JUMPI DUP1 PUSH4 0x43B25452 EQ PUSH2 0x16A JUMPI DUP1 PUSH4 0x47E7EF24 EQ PUSH2 0x17F JUMPI DUP1 PUSH4 0x5FA7B584 EQ PUSH2 0x192 JUMPI DUP1 PUSH4 0x6D1EA3FA EQ PUSH2 0x1A5 JUMPI JUMPDEST PUSH0 DUP1 REVERT JUMPDEST PUSH2 0x118 PUSH2 0xDD CALLDATASIZE PUSH1 0x4 PUSH2 0xCDB JUMP JUMPDEST PUSH1 0x1 PUSH1 0x1 PUSH1 0xA0 SHL SUB AND PUSH0 SWAP1 DUP2 MSTORE PUSH1 0x20 DUP2 SWAP1 MSTORE PUSH1 0x40 SWAP1 KECCAK256 PUSH1 0x3 DUP2 ADD SLOAD PUSH1 0x4 DUP3 ADD SLOAD PUSH1 0x5 DUP4 ADD SLOAD PUSH1 0x6 SWAP1 SWAP4 ADD SLOAD PUSH2 0x100 SWAP1 SWAP3 DIV PUSH1 0xFF AND SWAP4 SWAP1 SWAP3 SWAP2 SWAP1 JUMP JUMPDEST PUSH1 0x40 DUP1 MLOAD SWAP5 ISZERO ISZERO DUP6 MSTORE PUSH1 0x20 DUP6 ADD SWAP4 SWAP1 SWAP4 MSTORE SWAP2 DUP4 ADD MSTORE PUSH1 0x60 DUP3 ADD MSTORE PUSH1 0x80 ADD JUMPDEST PUSH1 0x40 MLOAD DUP1 SWAP2 SUB SWAP1 RETURN JUMPDEST PUSH1 0x3 SLOAD PUSH2 0x152 SWAP1 PUSH1 0x1 PUSH1 0x1 PUSH1 0xA0 SHL SUB AND DUP2 JUMP JUMPDEST PUSH1 0x40 MLOAD PUSH1 0x1 PUSH1 0x1 PUSH1 0xA0 SHL SUB SWAP1 SWAP2 AND DUP2 MSTORE PUSH1 0x20 ADD PUSH2 0x136 JUMP JUMPDEST PUSH2 0x17D PUSH2 0x178 CALLDATASIZE PUSH1 0x4 PUSH2 0xCFB JUMP JUMPDEST PUSH2 0x2DF JUMP JUMPDEST STOP JUMPDEST PUSH2 0x17D PUSH2 0x18D CALLDATASIZE PUSH1 0x4 PUSH2 0xD12 JUMP JUMPDEST PUSH2 0x3E8 JUMP JUMPDEST PUSH2 0x17D PUSH2 0x1A0 CALLDATASIZE PUSH1 0x4 PUSH2 0xCDB JUMP JUMPDEST PUSH2 0x526 JUMP JUMPDEST PUSH2 0x1C7 PUSH2 0x1B3 CALLDATASIZE PUSH1 0x4 PUSH2 0xCDB JUMP JUMPDEST PUSH1 0x1 PUSH1 0x20 MSTORE PUSH0 SWAP1 DUP2 MSTORE PUSH1 0x40 SWAP1 KECCAK256 SLOAD PUSH1 0xFF AND DUP2 JUMP JUMPDEST PUSH1 0x40 MLOAD SWAP1 ISZERO ISZERO DUP2 MSTORE PUSH1 0x20 ADD PUSH2 0x136 JUMP JUMPDEST PUSH1 0x2 SLOAD PUSH2 0x152 SWAP1 PUSH1 0x1 PUSH1 0x1 PUSH1 0xA0 SHL SUB AND DUP2 JUMP JUMPDEST PUSH2 0x17D PUSH2 0x1F8 CALLDATASIZE PUSH1 0x4 PUSH2 0xD4A JUMP JUMPDEST PUSH2 0x5B4 JUMP JUMPDEST PUSH2 0x17D PUSH2 0x20B CALLDATASIZE PUSH1 0x4 PUSH2 0xD82 JUMP JUMPDEST PUSH2 0x746 JUMP JUMPDEST PUSH2 0x25D PUSH2 0x21E CALLDATASIZE PUSH1 0x4 PUSH2 0xCDB JUMP JUMPDEST PUSH0 PUSH1 0x20 DUP2 SWAP1 MSTORE SWAP1 DUP2 MSTORE PUSH1 0x40 SWAP1 KECCAK256 DUP1 SLOAD PUSH1 0x1 DUP3 ADD SLOAD PUSH1 0x3 DUP4 ADD SLOAD PUSH1 0x4 DUP5 ADD SLOAD PUSH1 0x5 DUP6 ADD SLOAD PUSH1 0x6 SWAP1 SWAP6 ADD SLOAD SWAP4 SWAP5 SWAP3 SWAP4 PUSH1 0xFF DUP1 DUP5 AND SWAP5 PUSH2 0x100 SWAP1 SWAP5 DIV AND SWAP3 SWAP1 DUP8 JUMP JUMPDEST PUSH1 0x40 DUP1 MLOAD SWAP8 DUP9 MSTORE PUSH1 0x20 DUP9 ADD SWAP7 SWAP1 SWAP7 MSTORE SWAP4 ISZERO ISZERO SWAP5 DUP7 ADD SWAP5 SWAP1 SWAP5 MSTORE SWAP1 ISZERO ISZERO PUSH1 0x60 DUP6 ADD MSTORE PUSH1 0x80 DUP5 ADD MSTORE PUSH1 0xA0 DUP4 ADD SWAP2 SWAP1 SWAP2 MSTORE PUSH1 0xC0 DUP3 ADD MSTORE PUSH1 0xE0 ADD PUSH2 0x136 JUMP JUMPDEST PUSH2 0x2AB PUSH2 0x2A6 CALLDATASIZE PUSH1 0x4 PUSH2 0xDCA JUMP JUMPDEST PUSH2 0xA7D JUMP JUMPDEST PUSH1 0x40 MLOAD SWAP1 DUP2 MSTORE PUSH1 0x20 ADD PUSH2 0x136 JUMP JUMPDEST PUSH2 0x17D PUSH2 0x2C7 CALLDATASIZE PUSH1 0x4 PUSH2 0xCDB JUMP JUMPDEST PUSH2 0xAE6 JUMP JUMPDEST PUSH2 0x17D PUSH2 0x2DA CALLDATASIZE PUSH1 0x4 PUSH2 0xD12 JUMP JUMPDEST PUSH2 0xB7A JUMP JUMPDEST PUSH0 DUP2 GT DUP1 ISZERO PUSH2 0x2EF JUMPI POP PUSH1 0xA DUP2 GT ISZERO JUMPDEST PUSH2 0x335 JUMPI PUSH1 0x40 MLOAD PUSH3 0x461BCD PUSH1 0xE5 SHL DUP2 MSTORE PUSH1 0x20 PUSH1 0x4 DUP3 ADD MSTORE PUSH1 0x12 PUSH1 0x24 DUP3 ADD MSTORE PUSH18 0x125B9D985B1A59081C9A5CDAC81B195D995B PUSH1 0x72 SHL PUSH1 0x44 DUP3 ADD MSTORE PUSH1 0x64 ADD JUMPDEST PUSH1 0x40 MLOAD DUP1 SWAP2 SUB SWAP1 REVERT JUMPDEST CALLER PUSH0 SWAP1 DUP2 MSTORE PUSH1 0x20 DUP2 SWAP1 MSTORE PUSH1 0x40 SWAP1 KECCAK256 PUSH1 0x3 ADD SLOAD PUSH1 0xFF AND ISZERO PUSH2 0x38A JUMPI PUSH1 0x40 MLOAD PUSH3 0x461BCD PUSH1 0xE5 SHL DUP2 MSTORE PUSH1 0x20 PUSH1 0x4 DUP3 ADD MSTORE PUSH1 0x10 PUSH1 0x24 DUP3 ADD MSTORE PUSH16 0x506F7274666F6C696F20657869737473 PUSH1 0x80 SHL PUSH1 0x44 DUP3 ADD MSTORE PUSH1 0x64 ADD PUSH2 0x32C JUMP JUMPDEST CALLER PUSH0 DUP2 DUP2 MSTORE PUSH1 0x20 DUP2 DUP2 MSTORE PUSH1 0x40 SWAP2 DUP3 SWAP1 KECCAK256 PUSH1 0x1 DUP1 DUP3 ADD DUP7 SWAP1 SSTORE PUSH1 0x3 DUP3 ADD DUP1 SLOAD PUSH1 0xFF NOT AND SWAP1 SWAP2 OR SWAP1 SSTORE SWAP2 MLOAD DUP5 DUP2 MSTORE SWAP2 SWAP3 SWAP2 PUSH32 0x67FB572DDE9F80BFB3F0454266D9258CF72D569E4EF809F9301B9EE757DD78D0 SWAP2 ADD PUSH1 0x40 MLOAD DUP1 SWAP2 SUB SWAP1 LOG2 POP POP JUMP JUMPDEST PUSH1 0x1 PUSH1 0x1 PUSH1 0xA0 SHL SUB DUP3 AND PUSH0 SWAP1 DUP2 MSTORE PUSH1 0x1 PUSH1 0x20 MSTORE PUSH1 0x40 SWAP1 KECCAK256 SLOAD PUSH1 0xFF AND PUSH2 0x444 JUMPI PUSH1 0x40 MLOAD PUSH3 0x461BCD PUSH1 0xE5 SHL DUP2 MSTORE PUSH1 0x20 PUSH1 0x4 DUP3 ADD MSTORE PUSH1 0x12 PUSH1 0x24 DUP3 ADD MSTORE PUSH18 0x151BDAD95B881B9BDD08185C1C1C9BDD9959 PUSH1 0x72 SHL PUSH1 0x44 DUP3 ADD MSTORE PUSH1 0x64 ADD PUSH2 0x32C JUMP JUMPDEST CALLER PUSH0 SWAP1 DUP2 MSTORE PUSH1 0x20 DUP2 SWAP1 MSTORE PUSH1 0x40 SWAP1 KECCAK256 PUSH1 0x3 ADD SLOAD PUSH1 0xFF AND PUSH2 0x475 JUMPI PUSH1 0x40 MLOAD PUSH3 0x461BCD PUSH1 0xE5 SHL DUP2 MSTORE PUSH1 0x4 ADD PUSH2 0x32C SWAP1 PUSH2 0xDFB JUMP JUMPDEST PUSH1 0x40 MLOAD PUSH4 0x23B872DD PUSH1 0xE0 SHL DUP2 MSTORE CALLER PUSH1 0x4 DUP3 ADD MSTORE ADDRESS PUSH1 0x24 DUP3 ADD MSTORE PUSH1 0x44 DUP2 ADD DUP3 SWAP1 MSTORE PUSH1 0x1 PUSH1 0x1 PUSH1 0xA0 SHL SUB DUP4 AND SWAP1 PUSH4 0x23B872DD SWAP1 PUSH1 0x64 ADD PUSH1 0x20 PUSH1 0x40 MLOAD DUP1 DUP4 SUB DUP2 PUSH0 DUP8 GAS CALL ISZERO DUP1 ISZERO PUSH2 0x4C5 JUMPI RETURNDATASIZE PUSH0 DUP1 RETURNDATACOPY RETURNDATASIZE PUSH0 REVERT JUMPDEST POP POP POP POP PUSH1 0x40 MLOAD RETURNDATASIZE PUSH1 0x1F NOT PUSH1 0x1F DUP3 ADD AND DUP3 ADD DUP1 PUSH1 0x40 MSTORE POP DUP2 ADD SWAP1 PUSH2 0x4E9 SWAP2 SWAP1 PUSH2 0xE28 JUMP JUMPDEST POP CALLER PUSH0 SWAP1 DUP2 MSTORE PUSH1 0x20 DUP2 DUP2 MSTORE PUSH1 0x40 DUP1 DUP4 KECCAK256 PUSH1 0x1 PUSH1 0x1 PUSH1 0xA0 SHL SUB DUP7 AND DUP5 MSTORE PUSH1 0x2 ADD SWAP1 SWAP2 MSTORE DUP2 KECCAK256 DUP1 SLOAD DUP4 SWAP3 SWAP1 PUSH2 0x51D SWAP1 DUP5 SWAP1 PUSH2 0xE57 JUMP JUMPDEST SWAP1 SWAP2 SSTORE POP POP POP POP JUMP JUMPDEST PUSH1 0x2 SLOAD PUSH1 0x1 PUSH1 0x1 PUSH1 0xA0 SHL SUB AND CALLER EQ PUSH2 0x56C JUMPI PUSH1 0x40 MLOAD PUSH3 0x461BCD PUSH1 0xE5 SHL DUP2 MSTORE PUSH1 0x20 PUSH1 0x4 DUP3 ADD MSTORE PUSH1 0x9 PUSH1 0x24 DUP3 ADD MSTORE PUSH9 0x2737BA1037BBB732B9 PUSH1 0xB9 SHL PUSH1 0x44 DUP3 ADD MSTORE PUSH1 0x64 ADD PUSH2 0x32C JUMP JUMPDEST PUSH1 0x1 PUSH1 0x1 PUSH1 0xA0 SHL SUB DUP2 AND PUSH0 DUP2 DUP2 MSTORE PUSH1 0x1 PUSH1 0x20 MSTORE PUSH1 0x40 DUP1 DUP3 KECCAK256 DUP1 SLOAD PUSH1 0xFF NOT AND SWAP1 SSTORE MLOAD PUSH32 0x4C910B69FE65A61F7531B9C5042B2329CA7179C77290AA7E2EB3AFA3C8511FD3 SWAP2 SWAP1 LOG2 POP JUMP JUMPDEST CALLER PUSH0 SWAP1 DUP2 MSTORE PUSH1 0x20 DUP2 SWAP1 MSTORE PUSH1 0x40 SWAP1 KECCAK256 PUSH1 0x3 ADD SLOAD PUSH1 0xFF AND PUSH2 0x5E5 JUMPI PUSH1 0x40 MLOAD PUSH3 0x461BCD PUSH1 0xE5 SHL DUP2 MSTORE PUSH1 0x4 ADD PUSH2 0x32C SWAP1 PUSH2 0xDFB JUMP JUMPDEST PUSH1 0x64 DUP4 GT ISZERO PUSH2 0x62B JUMPI PUSH1 0x40 MLOAD PUSH3 0x461BCD PUSH1 0xE5 SHL DUP2 MSTORE PUSH1 0x20 PUSH1 0x4 DUP3 ADD MSTORE PUSH1 0x12 PUSH1 0x24 DUP3 ADD MSTORE PUSH18 0x496E76616C696420636F6E666964656E6365 PUSH1 0x70 SHL PUSH1 0x44 DUP3 ADD MSTORE PUSH1 0x64 ADD PUSH2 0x32C JUMP JUMPDEST PUSH1 0x64 DUP3 GT ISZERO PUSH2 0x671 JUMPI PUSH1 0x40 MLOAD PUSH3 0x461BCD PUSH1 0xE5 SHL DUP2 MSTORE PUSH1 0x20 PUSH1 0x4 DUP3 ADD MSTORE PUSH1 0x12 PUSH1 0x24 DUP3 ADD MSTORE PUSH18 0x496E76616C6964207269736B2073636F7265 PUSH1 0x70 SHL PUSH1 0x44 DUP3 ADD MSTORE PUSH1 0x64 ADD PUSH2 0x32C JUMP JUMPDEST PUSH0 DUP2 GT PUSH2 0x6B7 JUMPI PUSH1 0x40 MLOAD PUSH3 0x461BCD PUSH1 0xE5 SHL DUP2 MSTORE PUSH1 0x20 PUSH1 0x4 DUP3 ADD MSTORE PUSH1 0x14 PUSH1 0x24 DUP3 ADD MSTORE PUSH20 0x125B9D985B1A59081D1C98591948185B5BDD5B9D PUSH1 0x62 SHL PUSH1 0x44 DUP3 ADD MSTORE PUSH1 0x64 ADD PUSH2 0x32C JUMP JUMPDEST CALLER PUSH0 DUP2 DUP2 MSTORE PUSH1 0x20 DUP2 DUP2 MSTORE PUSH1 0x40 SWAP2 DUP3 SWAP1 KECCAK256 PUSH1 0x3 DUP2 ADD DUP1 SLOAD PUSH2 0xFF00 NOT AND PUSH2 0x100 DUP11 ISZERO ISZERO SWAP1 DUP2 MUL SWAP2 SWAP1 SWAP2 OR SWAP1 SWAP2 SSTORE PUSH1 0x4 DUP3 ADD DUP9 SWAP1 SSTORE PUSH1 0x5 DUP3 ADD DUP8 SWAP1 SSTORE PUSH1 0x6 DUP3 ADD DUP7 SWAP1 SSTORE DUP4 MLOAD SWAP1 DUP2 MSTORE SWAP2 DUP3 ADD DUP8 SWAP1 MSTORE SWAP2 DUP2 ADD DUP6 SWAP1 MSTORE PUSH1 0x60 DUP2 ADD DUP5 SWAP1 MSTORE SWAP1 SWAP2 SWAP1 PUSH32 0xA60D0DA4E64A82565A5AEBDD5A8AA59946CD037BA264597A275C58C49D25D888 SWAP1 PUSH1 0x80 ADD PUSH1 0x40 MLOAD DUP1 SWAP2 SUB SWAP1 LOG2 POP POP POP POP POP JUMP JUMPDEST PUSH1 0x3 SLOAD PUSH1 0x1 PUSH1 0x1 PUSH1 0xA0 SHL SUB AND CALLER EQ PUSH2 0x790 JUMPI PUSH1 0x40 MLOAD PUSH3 0x461BCD PUSH1 0xE5 SHL DUP2 MSTORE PUSH1 0x20 PUSH1 0x4 DUP3 ADD MSTORE PUSH1 0xD PUSH1 0x24 DUP3 ADD MSTORE PUSH13 0x2737BA1020A4903A3930B232B9 PUSH1 0x99 SHL PUSH1 0x44 DUP3 ADD MSTORE PUSH1 0x64 ADD PUSH2 0x32C JUMP JUMPDEST PUSH1 0x1 PUSH1 0x1 PUSH1 0xA0 SHL SUB DUP4 AND PUSH0 SWAP1 DUP2 MSTORE PUSH1 0x1 PUSH1 0x20 MSTORE PUSH1 0x40 SWAP1 KECCAK256 SLOAD PUSH1 0xFF AND DUP1 ISZERO PUSH2 0x7CE JUMPI POP PUSH1 0x1 PUSH1 0x1 PUSH1 0xA0 SHL SUB DUP3 AND PUSH0 SWAP1 DUP2 MSTORE PUSH1 0x1 PUSH1 0x20 MSTORE PUSH1 0x40 SWAP1 KECCAK256 SLOAD PUSH1 0xFF AND JUMPDEST PUSH2 0x80E JUMPI PUSH1 0x40 MLOAD PUSH3 0x461BCD PUSH1 0xE5 SHL DUP2 MSTORE PUSH1 0x20 PUSH1 0x4 DUP3 ADD MSTORE PUSH1 0x11 PUSH1 0x24 DUP3 ADD MSTORE PUSH17 0x556E617070726F76656420746F6B656E73 PUSH1 0x78 SHL PUSH1 0x44 DUP3 ADD MSTORE PUSH1 0x64 ADD PUSH2 0x32C JUMP JUMPDEST PUSH1 0x1 PUSH1 0x1 PUSH1 0xA0 SHL SUB DUP5 AND PUSH0 SWAP1 DUP2 MSTORE PUSH1 0x20 DUP2 SWAP1 MSTORE PUSH1 0x40 SWAP1 KECCAK256 PUSH1 0x3 ADD SLOAD PUSH1 0xFF AND PUSH2 0x848 JUMPI PUSH1 0x40 MLOAD PUSH3 0x461BCD PUSH1 0xE5 SHL DUP2 MSTORE PUSH1 0x4 ADD PUSH2 0x32C SWAP1 PUSH2 0xDFB JUMP JUMPDEST PUSH1 0x1 PUSH1 0x1 PUSH1 0xA0 SHL SUB DUP1 DUP6 AND PUSH0 SWAP1 DUP2 MSTORE PUSH1 0x20 DUP2 DUP2 MSTORE PUSH1 0x40 DUP1 DUP4 KECCAK256 SWAP4 DUP8 AND DUP4 MSTORE PUSH1 0x2 DUP5 ADD SWAP1 SWAP2 MSTORE SWAP1 KECCAK256 SLOAD DUP3 GT ISZERO PUSH2 0x8B6 JUMPI PUSH1 0x40 MLOAD PUSH3 0x461BCD PUSH1 0xE5 SHL DUP2 MSTORE PUSH1 0x20 PUSH1 0x4 DUP3 ADD MSTORE PUSH1 0x14 PUSH1 0x24 DUP3 ADD MSTORE PUSH20 0x496E73756666696369656E742062616C616E6365 PUSH1 0x60 SHL PUSH1 0x44 DUP3 ADD MSTORE PUSH1 0x64 ADD PUSH2 0x32C JUMP JUMPDEST PUSH1 0x3 SLOAD PUSH1 0x40 MLOAD PUSH4 0x95EA7B3 PUSH1 0xE0 SHL DUP2 MSTORE PUSH1 0x1 PUSH1 0x1 PUSH1 0xA0 SHL SUB SWAP2 DUP3 AND PUSH1 0x4 DUP3 ADD MSTORE PUSH1 0x24 DUP2 ADD DUP5 SWAP1 MSTORE SWAP1 DUP6 AND SWAP1 PUSH4 0x95EA7B3 SWAP1 PUSH1 0x44 ADD PUSH1 0x20 PUSH1 0x40 MLOAD DUP1 DUP4 SUB DUP2 PUSH0 DUP8 GAS CALL ISZERO DUP1 ISZERO PUSH2 0x906 JUMPI RETURNDATASIZE PUSH0 DUP1 RETURNDATACOPY RETURNDATASIZE PUSH0 REVERT JUMPDEST POP POP POP POP PUSH1 0x40 MLOAD RETURNDATASIZE PUSH1 0x1F NOT PUSH1 0x1F DUP3 ADD AND DUP3 ADD DUP1 PUSH1 0x40 MSTORE POP DUP2 ADD SWAP1 PUSH2 0x92A SWAP2 SWAP1 PUSH2 0xE28 JUMP JUMPDEST POP PUSH1 0x1 PUSH1 0x1 PUSH1 0xA0 SHL SUB DUP5 AND PUSH0 SWAP1 DUP2 MSTORE PUSH1 0x2 DUP3 ADD PUSH1 0x20 MSTORE PUSH1 0x40 DUP2 KECCAK256 DUP1 SLOAD DUP5 SWAP3 SWAP1 PUSH2 0x954 SWAP1 DUP5 SWAP1 PUSH2 0xE6A JUMP JUMPDEST SWAP1 SWAP2 SSTORE POP POP PUSH1 0x3 SLOAD PUSH1 0x40 MLOAD PUSH4 0x556A2337 PUSH1 0xE1 SHL DUP2 MSTORE PUSH1 0x1 PUSH1 0x1 PUSH1 0xA0 SHL SUB DUP7 DUP2 AND PUSH1 0x4 DUP4 ADD MSTORE DUP6 DUP2 AND PUSH1 0x24 DUP4 ADD MSTORE PUSH1 0x44 DUP3 ADD DUP6 SWAP1 MSTORE ADDRESS PUSH1 0x64 DUP4 ADD MSTORE PUSH1 0xA0 PUSH1 0x84 DUP4 ADD MSTORE PUSH0 PUSH1 0xA4 DUP4 ADD DUP2 SWAP1 MSTORE SWAP3 AND SWAP1 PUSH4 0xAAD4466E SWAP1 PUSH1 0xC4 ADD PUSH1 0x20 PUSH1 0x40 MLOAD DUP1 DUP4 SUB DUP2 PUSH0 DUP8 GAS CALL ISZERO DUP1 ISZERO PUSH2 0x9C5 JUMPI RETURNDATASIZE PUSH0 DUP1 RETURNDATACOPY RETURNDATASIZE PUSH0 REVERT JUMPDEST POP POP POP POP PUSH1 0x40 MLOAD RETURNDATASIZE PUSH1 0x1F NOT PUSH1 0x1F DUP3 ADD AND DUP3 ADD DUP1 PUSH1 0x40 MSTORE POP DUP2 ADD SWAP1 PUSH2 0x9E9 SWAP2 SWAP1 PUSH2 0xE7D JUMP JUMPDEST PUSH1 0x1 PUSH1 0x1 PUSH1 0xA0 SHL SUB DUP6 AND PUSH0 SWAP1 DUP2 MSTORE PUSH1 0x2 DUP5 ADD PUSH1 0x20 MSTORE PUSH1 0x40 DUP2 KECCAK256 DUP1 SLOAD SWAP3 SWAP4 POP DUP4 SWAP3 SWAP1 SWAP2 SWAP1 PUSH2 0xA17 SWAP1 DUP5 SWAP1 PUSH2 0xE57 JUMP JUMPDEST SWAP3 POP POP DUP2 SWAP1 SSTORE POP DUP4 PUSH1 0x1 PUSH1 0x1 PUSH1 0xA0 SHL SUB AND DUP6 PUSH1 0x1 PUSH1 0x1 PUSH1 0xA0 SHL SUB AND DUP8 PUSH1 0x1 PUSH1 0x1 PUSH1 0xA0 SHL SUB AND PUSH32 0x7C98D1E471158166AC434C9C01540B47ABB40862BBF909EDB2DC73C22229A23F DUP7 PUSH1 0x40 MLOAD PUSH2 0xA6D SWAP2 DUP2 MSTORE PUSH1 0x20 ADD SWAP1 JUMP JUMPDEST PUSH1 0x40 MLOAD DUP1 SWAP2 SUB SWAP1 LOG4 POP POP POP POP POP POP JUMP JUMPDEST PUSH1 0x1 PUSH1 0x1 PUSH1 0xA0 SHL SUB DUP3 AND PUSH0 SWAP1 DUP2 MSTORE PUSH1 0x20 DUP2 SWAP1 MSTORE PUSH1 0x40 DUP2 KECCAK256 PUSH1 0x3 ADD SLOAD PUSH1 0xFF AND PUSH2 0xAB7 JUMPI PUSH1 0x40 MLOAD PUSH3 0x461BCD PUSH1 0xE5 SHL DUP2 MSTORE PUSH1 0x4 ADD PUSH2 0x32C SWAP1 PUSH2 0xDFB JUMP JUMPDEST POP PUSH1 0x1 PUSH1 0x1 PUSH1 0xA0 SHL SUB DUP1 DUP4 AND PUSH0 SWAP1 DUP2 MSTORE PUSH1 0x20 DUP2 DUP2 MSTORE PUSH1 0x40 DUP1 DUP4 KECCAK256 SWAP4 DUP6 AND DUP4 MSTORE PUSH1 0x2 SWAP1 SWAP4 ADD SWAP1 MSTORE KECCAK256 SLOAD JUMPDEST SWAP3 SWAP2 POP POP JUMP JUMPDEST PUSH1 0x2 SLOAD PUSH1 0x1 PUSH1 0x1 PUSH1 0xA0 SHL SUB AND CALLER EQ PUSH2 0xB2C JUMPI PUSH1 0x40 MLOAD PUSH3 0x461BCD PUSH1 0xE5 SHL DUP2 MSTORE PUSH1 0x20 PUSH1 0x4 DUP3 ADD MSTORE PUSH1 0x9 PUSH1 0x24 DUP3 ADD MSTORE PUSH9 0x2737BA1037BBB732B9 PUSH1 0xB9 SHL PUSH1 0x44 DUP3 ADD MSTORE PUSH1 0x64 ADD PUSH2 0x32C JUMP JUMPDEST PUSH1 0x1 PUSH1 0x1 PUSH1 0xA0 SHL SUB DUP2 AND PUSH0 DUP2 DUP2 MSTORE PUSH1 0x1 PUSH1 0x20 DUP2 SWAP1 MSTORE PUSH1 0x40 DUP1 DUP4 KECCAK256 DUP1 SLOAD PUSH1 0xFF NOT AND SWAP1 SWAP3 OR SWAP1 SWAP2 SSTORE MLOAD PUSH32 0x784C8F4DBF0FFEDD6E72C76501C545A70F8B203B30A26CE542BF92BA87C248A4 SWAP2 SWAP1 LOG2 POP JUMP JUMPDEST CALLER PUSH0 SWAP1 DUP2 MSTORE PUSH1 0x20 DUP2 SWAP1 MSTORE PUSH1 0x40 SWAP1 KECCAK256 PUSH1 0x3 ADD SLOAD PUSH1 0xFF AND PUSH2 0xBAB JUMPI PUSH1 0x40 MLOAD PUSH3 0x461BCD PUSH1 0xE5 SHL DUP2 MSTORE PUSH1 0x4 ADD PUSH2 0x32C SWAP1 PUSH2 0xDFB JUMP JUMPDEST CALLER PUSH0 SWAP1 DUP2 MSTORE PUSH1 0x20 DUP2 DUP2 MSTORE PUSH1 0x40 DUP1 DUP4 KECCAK256 PUSH1 0x1 PUSH1 0x1 PUSH1 0xA0 SHL SUB DUP7 AND DUP5 MSTORE PUSH1 0x2 ADD SWAP1 SWAP2 MSTORE SWAP1 KECCAK256 SLOAD DUP2 GT ISZERO PUSH2 0xC15 JUMPI PUSH1 0x40 MLOAD PUSH3 0x461BCD PUSH1 0xE5 SHL DUP2 MSTORE PUSH1 0x20 PUSH1 0x4 DUP3 ADD MSTORE PUSH1 0x14 PUSH1 0x24 DUP3 ADD MSTORE PUSH20 0x496E73756666696369656E742062616C616E6365 PUSH1 0x60 SHL PUSH1 0x44 DUP3 ADD MSTORE PUSH1 0x64 ADD PUSH2 0x32C JUMP JUMPDEST CALLER PUSH0 SWAP1 DUP2 MSTORE PUSH1 0x20 DUP2 DUP2 MSTORE PUSH1 0x40 DUP1 DUP4 KECCAK256 PUSH1 0x1 PUSH1 0x1 PUSH1 0xA0 SHL SUB DUP7 AND DUP5 MSTORE PUSH1 0x2 ADD SWAP1 SWAP2 MSTORE DUP2 KECCAK256 DUP1 SLOAD DUP4 SWAP3 SWAP1 PUSH2 0xC48 SWAP1 DUP5 SWAP1 PUSH2 0xE6A JUMP JUMPDEST SWAP1 SWAP2 SSTORE POP POP PUSH1 0x40 MLOAD PUSH4 0xA9059CBB PUSH1 0xE0 SHL DUP2 MSTORE CALLER PUSH1 0x4 DUP3 ADD MSTORE PUSH1 0x24 DUP2 ADD DUP3 SWAP1 MSTORE PUSH1 0x1 PUSH1 0x1 PUSH1 0xA0 SHL SUB DUP4 AND SWAP1 PUSH4 0xA9059CBB SWAP1 PUSH1 0x44 ADD PUSH1 0x20 PUSH1 0x40 MLOAD DUP1 DUP4 SUB DUP2 PUSH0 DUP8 GAS CALL ISZERO DUP1 ISZERO PUSH2 0xC97 JUMPI RETURNDATASIZE PUSH0 DUP1 RETURNDATACOPY RETURNDATASIZE PUSH0 REVERT JUMPDEST POP POP POP POP PUSH1 0x40 MLOAD RETURNDATASIZE PUSH1 0x1F NOT PUSH1 0x1F DUP3 ADD AND DUP3 ADD DUP1 PUSH1 0x40 MSTORE POP DUP2 ADD SWAP1 PUSH2 0xCBB SWAP2 SWAP1 PUSH2 0xE28 JUMP JUMPDEST POP POP POP JUMP JUMPDEST DUP1 CALLDATALOAD PUSH1 0x1 PUSH1 0x1 PUSH1 0xA0 SHL SUB DUP2 AND DUP2 EQ PUSH2 0xCD6 JUMPI PUSH0 DUP1 REVERT JUMPDEST SWAP2 SWAP1 POP JUMP JUMPDEST PUSH0 PUSH1 0x20 DUP3 DUP5 SUB SLT ISZERO PUSH2 0xCEB JUMPI PUSH0 DUP1 REVERT JUMPDEST PUSH2 0xCF4 DUP3 PUSH2 0xCC0 JUMP JUMPDEST SWAP4 SWAP3 POP POP POP JUMP JUMPDEST PUSH0 PUSH1 0x20 DUP3 DUP5 SUB SLT ISZERO PUSH2 0xD0B JUMPI PUSH0 DUP1 REVERT JUMPDEST POP CALLDATALOAD SWAP2 SWAP1 POP JUMP JUMPDEST PUSH0 DUP1 PUSH1 0x40 DUP4 DUP6 SUB SLT ISZERO PUSH2 0xD23 JUMPI PUSH0 DUP1 REVERT JUMPDEST PUSH2 0xD2C DUP4 PUSH2 0xCC0 JUMP JUMPDEST SWAP5 PUSH1 0x20 SWAP4 SWAP1 SWAP4 ADD CALLDATALOAD SWAP4 POP POP POP JUMP JUMPDEST DUP1 ISZERO ISZERO DUP2 EQ PUSH2 0xD47 JUMPI PUSH0 DUP1 REVERT JUMPDEST POP JUMP JUMPDEST PUSH0 DUP1 PUSH0 DUP1 PUSH1 0x80 DUP6 DUP8 SUB SLT ISZERO PUSH2 0xD5D JUMPI PUSH0 DUP1 REVERT JUMPDEST DUP5 CALLDATALOAD PUSH2 0xD68 DUP2 PUSH2 0xD3A JUMP JUMPDEST SWAP7 PUSH1 0x20 DUP7 ADD CALLDATALOAD SWAP7 POP PUSH1 0x40 DUP7 ADD CALLDATALOAD SWAP6 PUSH1 0x60 ADD CALLDATALOAD SWAP5 POP SWAP3 POP POP POP JUMP JUMPDEST PUSH0 DUP1 PUSH0 DUP1 PUSH1 0x80 DUP6 DUP8 SUB SLT ISZERO PUSH2 0xD95 JUMPI PUSH0 DUP1 REVERT JUMPDEST PUSH2 0xD9E DUP6 PUSH2 0xCC0 JUMP JUMPDEST SWAP4 POP PUSH2 0xDAC PUSH1 0x20 DUP7 ADD PUSH2 0xCC0 JUMP JUMPDEST SWAP3 POP PUSH2 0xDBA PUSH1 0x40 DUP7 ADD PUSH2 0xCC0 JUMP JUMPDEST SWAP4 SWAP7 SWAP3 SWAP6 POP SWAP3 SWAP4 PUSH1 0x60 ADD CALLDATALOAD SWAP3 POP POP JUMP JUMPDEST PUSH0 DUP1 PUSH1 0x40 DUP4 DUP6 SUB SLT ISZERO PUSH2 0xDDB JUMPI PUSH0 DUP1 REVERT JUMPDEST PUSH2 0xDE4 DUP4 PUSH2 0xCC0 JUMP JUMPDEST SWAP2 POP PUSH2 0xDF2 PUSH1 0x20 DUP5 ADD PUSH2 0xCC0 JUMP JUMPDEST SWAP1 POP SWAP3 POP SWAP3 SWAP1 POP JUMP JUMPDEST PUSH1 0x20 DUP1 DUP3 MSTORE PUSH1 0x13 SWAP1 DUP3 ADD MSTORE PUSH19 0x4E6F2061637469766520706F7274666F6C696F PUSH1 0x68 SHL PUSH1 0x40 DUP3 ADD MSTORE PUSH1 0x60 ADD SWAP1 JUMP JUMPDEST PUSH0 PUSH1 0x20 DUP3 DUP5 SUB SLT ISZERO PUSH2 0xE38 JUMPI PUSH0 DUP1 REVERT JUMPDEST DUP2 MLOAD PUSH2 0xCF4 DUP2 PUSH2 0xD3A JUMP JUMPDEST PUSH4 0x4E487B71 PUSH1 0xE0 SHL PUSH0 MSTORE PUSH1 0x11 PUSH1 0x4 MSTORE PUSH1 0x24 PUSH0 REVERT JUMPDEST DUP1 DUP3 ADD DUP1 DUP3 GT ISZERO PUSH2 0xAE0 JUMPI PUSH2 0xAE0 PUSH2 0xE43 JUMP JUMPDEST DUP2 DUP2 SUB DUP2 DUP2 GT ISZERO PUSH2 0xAE0 JUMPI PUSH2 0xAE0 PUSH2 0xE43 JUMP JUMPDEST PUSH0 PUSH1 0x20 DUP3 DUP5 SUB SLT ISZERO PUSH2 0xE8D JUMPI PUSH0 DUP1 REVERT JUMPDEST POP MLOAD SWAP2 SWAP1 POP JUMP INVALID LOG2 PUSH5 0x6970667358 0x22 SLT KECCAK256 REVERT DUP13 GASPRICE 0xCB COINBASE PUSH1 0xC6 COINBASE SMOD 0x4C PREVRANDAO 0x1E JUMPI DIV CALLDATALOAD CALLER DUP8 ADD 0xF6 0x28 0xD3 BLOBBASEFEE 0x2D 0xE PUSH15 0xF9FFC500354B1D64736F6C63430008 BYTE STOP CALLER "
		},
		"gasEstimates": {
			"creation": {
				"codeDepositCost": "757200",
				"executionCost": "infinite",
				"totalCost": "infinite"
			},
			"external": {
				"addToken(address)": "27970",
				"aiTrader()": "2359",
				"approvedTokens(address)": "2639",
				"createPortfolio(uint256)": "50394",
				"deposit(address,uint256)": "infinite",
				"executeAITrade(address,address,address,uint256)": "infinite",
				"getAutoTradingSettings(address)": "8961",
				"getTokenBalance(address,address)": "infinite",
				"owner()": "2359",
				"removeToken(address)": "27975",
				"updateAutoTrading(bool,uint256,uint256,uint256)": "95622",
				"userPortfolios(address)": "13280",
				"withdraw(address,uint256)": "infinite"
			}
		},
		"methodIdentifiers": {
			"addToken(address)": "d48bfca7",
			"aiTrader()": "138a5e25",
			"approvedTokens(address)": "6d1ea3fa",
			"createPortfolio(uint256)": "43b25452",
			"deposit(address,uint256)": "47e7ef24",
			"executeAITrade(address,address,address,uint256)": "b1d6e59d",
			"getAutoTradingSettings(address)": "08d247cf",
			"getTokenBalance(address,address)": "c489744b",
			"owner()": "8da5cb5b",
			"removeToken(address)": "5fa7b584",
			"updateAutoTrading(bool,uint256,uint256,uint256)": "951e75c9",
			"userPortfolios(address)": "b61920c1",
			"withdraw(address,uint256)": "f3fef3a3"
		}
	},
	"abi": [
		{
			"inputs": [
				{
					"internalType": "address",
					"name": "_aiTrader",
					"type": "address"
				}
			],
			"stateMutability": "nonpayable",
			"type": "constructor"
		},
		{
			"anonymous": false,
			"inputs": [
				{
					"indexed": true,
					"internalType": "address",
					"name": "user",
					"type": "address"
				},
				{
					"indexed": false,
					"internalType": "bool",
					"name": "enabled",
					"type": "bool"
				},
				{
					"indexed": false,
					"internalType": "uint256",
					"name": "minConfidence",
					"type": "uint256"
				},
				{
					"indexed": false,
					"internalType": "uint256",
					"name": "maxRiskScore",
					"type": "uint256"
				},
				{
					"indexed": false,
					"internalType": "uint256",
					"name": "tradeAmount",
					"type": "uint256"
				}
			],
			"name": "AutoTradingUpdated",
			"type": "event"
		},
		{
			"anonymous": false,
			"inputs": [
				{
					"indexed": true,
					"internalType": "address",
					"name": "user",
					"type": "address"
				},
				{
					"indexed": false,
					"internalType": "uint256",
					"name": "riskLevel",
					"type": "uint256"
				}
			],
			"name": "PortfolioCreated",
			"type": "event"
		},
		{
			"anonymous": false,
			"inputs": [
				{
					"indexed": true,
					"internalType": "address",
					"name": "token",
					"type": "address"
				}
			],
			"name": "TokenAdded",
			"type": "event"
		},
		{
			"anonymous": false,
			"inputs": [
				{
					"indexed": true,
					"internalType": "address",
					"name": "token",
					"type": "address"
				}
			],
			"name": "TokenRemoved",
			"type": "event"
		},
		{
			"anonymous": false,
			"inputs": [
				{
					"indexed": true,
					"internalType": "address",
					"name": "user",
					"type": "address"
				},
				{
					"indexed": true,
					"internalType": "address",
					"name": "tokenIn",
					"type": "address"
				},
				{
					"indexed": true,
					"internalType": "address",
					"name": "tokenOut",
					"type": "address"
				},
				{
					"indexed": false,
					"internalType": "uint256",
					"name": "amount",
					"type": "uint256"
				}
			],
			"name": "TradeExecuted",
			"type": "event"
		},
		{
			"inputs": [
				{
					"internalType": "address",
					"name": "_token",
					"type": "address"
				}
			],
			"name": "addToken",
			"outputs": [],
			"stateMutability": "nonpayable",
			"type": "function"
		},
		{
			"inputs": [],
			"name": "aiTrader",
			"outputs": [
				{
					"internalType": "address",
					"name": "",
					"type": "address"
				}
			],
			"stateMutability": "view",
			"type": "function"
		},
		{
			"inputs": [
				{
					"internalType": "address",
					"name": "",
					"type": "address"
				}
			],
			"name": "approvedTokens",
			"outputs": [
				{
					"internalType": "bool",
					"name": "",
					"type": "bool"
				}
			],
			"stateMutability": "view",
			"type": "function"
		},
		{
			"inputs": [
				{
					"internalType": "uint256",
					"name": "_riskLevel",
					"type": "uint256"
				}
			],
			"name": "createPortfolio",
			"outputs": [],
			"stateMutability": "nonpayable",
			"type": "function"
		},
		{
			"inputs": [
				{
					"internalType": "address",
					"name": "_token",
					"type": "address"
				},
				{
					"internalType": "uint256",
					"name": "_amount",
					"type": "uint256"
				}
			],
			"name": "deposit",
			"outputs": [],
			"stateMutability": "nonpayable",
			"type": "function"
		},
		{
			"inputs": [
				{
					"internalType": "address",
					"name": "_user",
					"type": "address"
				},
				{
					"internalType": "address",
					"name": "_tokenIn",
					"type": "address"
				},
				{
					"internalType": "address",
					"name": "_tokenOut",
					"type": "address"
				},
				{
					"internalType": "uint256",
					"name": "_amount",
					"type": "uint256"
				}
			],
			"name": "executeAITrade",
			"outputs": [],
			"stateMutability": "nonpayable",
			"type": "function"
		},
		{
			"inputs": [
				{
					"internalType": "address",
					"name": "_user",
					"type": "address"
				}
			],
			"name": "getAutoTradingSettings",
			"outputs": [
				{
					"internalType": "bool",
					"name": "enabled",
					"type": "bool"
				},
				{
					"internalType": "uint256",
					"name": "minConfidence",
					"type": "uint256"
				},
				{
					"internalType": "uint256",
					"name": "maxRiskScore",
					"type": "uint256"
				},
				{
					"internalType": "uint256",
					"name": "tradeAmount",
					"type": "uint256"
				}
			],
			"stateMutability": "view",
			"type": "function"
		},
		{
			"inputs": [
				{
					"internalType": "address",
					"name": "_user",
					"type": "address"
				},
				{
					"internalType": "address",
					"name": "_token",
					"type": "address"
				}
			],
			"name": "getTokenBalance",
			"outputs": [
				{
					"internalType": "uint256",
					"name": "",
					"type": "uint256"
				}
			],
			"stateMutability": "view",
			"type": "function"
		},
		{
			"inputs": [],
			"name": "owner",
			"outputs": [
				{
					"internalType": "address",
					"name": "",
					"type": "address"
				}
			],
			"stateMutability": "view",
			"type": "function"
		},
		{
			"inputs": [
				{
					"internalType": "address",
					"name": "_token",
					"type": "address"
				}
			],
			"name": "removeToken",
			"outputs": [],
			"stateMutability": "nonpayable",
			"type": "function"
		},
		{
			"inputs": [
				{
					"internalType": "bool",
					"name": "_enabled",
					"type": "bool"
				},
				{
					"internalType": "uint256",
					"name": "_minConfidence",
					"type": "uint256"
				},
				{
					"internalType": "uint256",
					"name": "_maxRiskScore",
					"type": "uint256"
				},
				{
					"internalType": "uint256",
					"name": "_tradeAmount",
					"type": "uint256"
				}
			],
			"name": "updateAutoTrading",
			"outputs": [],
			"stateMutability": "nonpayable",
			"type": "function"
		},
		{
			"inputs": [
				{
					"internalType": "address",
					"name": "",
					"type": "address"
				}
			],
			"name": "userPortfolios",
			"outputs": [
				{
					"internalType": "uint256",
					"name": "totalValue",
					"type": "uint256"
				},
				{
					"internalType": "uint256",
					"name": "riskLevel",
					"type": "uint256"
				},
				{
					"internalType": "bool",
					"name": "isActive",
					"type": "bool"
				},
				{
					"internalType": "bool",
					"name": "autoTrading",
					"type": "bool"
				},
				{
					"internalType": "uint256",
					"name": "minConfidence",
					"type": "uint256"
				},
				{
					"internalType": "uint256",
					"name": "maxRiskScore",
					"type": "uint256"
				},
				{
					"internalType": "uint256",
					"name": "tradeAmount",
					"type": "uint256"
				}
			],
			"stateMutability": "view",
			"type": "function"
		},
		{
			"inputs": [
				{
					"internalType": "address",
					"name": "_token",
					"type": "address"
				},
				{
					"internalType": "uint256",
					"name": "_amount",
					"type": "uint256"
				}
			],
			"name": "withdraw",
			"outputs": [],
			"stateMutability": "nonpayable",
			"type": "function"
		}
	]
}